{
  "contractName": "Marketplace",
  "abi": [
    {
      "anonymous": false,
      "inputs": [
        {
          "indexed": false,
          "internalType": "address",
          "name": "customer",
          "type": "address"
        }
      ],
      "name": "CartEmptied",
      "type": "event"
    },
    {
      "anonymous": false,
      "inputs": [
        {
          "indexed": false,
          "internalType": "address",
          "name": "customer",
          "type": "address"
        },
        {
          "indexed": false,
          "internalType": "uint256",
          "name": "prodId",
          "type": "uint256"
        },
        {
          "indexed": false,
          "internalType": "uint256",
          "name": "prodPrice",
          "type": "uint256"
        },
        {
          "indexed": false,
          "internalType": "uint256",
          "name": "completeSum",
          "type": "uint256"
        }
      ],
      "name": "CartProductInserted",
      "type": "event"
    },
    {
      "anonymous": false,
      "inputs": [
        {
          "indexed": false,
          "internalType": "address",
          "name": "customer",
          "type": "address"
        },
        {
          "indexed": false,
          "internalType": "uint256",
          "name": "prodId",
          "type": "uint256"
        }
      ],
      "name": "CartProductInsertionFailed",
      "type": "event"
    },
    {
      "anonymous": false,
      "inputs": [
        {
          "indexed": false,
          "internalType": "address",
          "name": "customer",
          "type": "address"
        },
        {
          "indexed": false,
          "internalType": "uint256",
          "name": "prodId",
          "type": "uint256"
        }
      ],
      "name": "CartProductRemoved",
      "type": "event"
    },
    {
      "anonymous": false,
      "inputs": [
        {
          "indexed": false,
          "internalType": "address",
          "name": "customer",
          "type": "address"
        }
      ],
      "name": "CustomerRegistered",
      "type": "event"
    },
    {
      "anonymous": false,
      "inputs": [
        {
          "indexed": false,
          "internalType": "address",
          "name": "customer",
          "type": "address"
        }
      ],
      "name": "CustomerRegistrationFailed",
      "type": "event"
    },
    {
      "anonymous": false,
      "inputs": [
        {
          "indexed": false,
          "internalType": "uint256",
          "name": "id",
          "type": "uint256"
        },
        {
          "indexed": false,
          "internalType": "string",
          "name": "name",
          "type": "string"
        },
        {
          "indexed": false,
          "internalType": "string",
          "name": "description",
          "type": "string"
        },
        {
          "indexed": false,
          "internalType": "uint256",
          "name": "price",
          "type": "uint256"
        },
        {
          "indexed": false,
          "internalType": "string",
          "name": "imgipfshash",
          "type": "string"
        },
        {
          "indexed": false,
          "internalType": "string",
          "name": "fileipfshash",
          "type": "string"
        },
        {
          "indexed": false,
          "internalType": "address",
          "name": "owner",
          "type": "address"
        }
      ],
      "name": "ProductCreated",
      "type": "event"
    },
    {
      "anonymous": false,
      "inputs": [
        {
          "indexed": false,
          "internalType": "uint256",
          "name": "id",
          "type": "uint256"
        },
        {
          "indexed": false,
          "internalType": "string",
          "name": "name",
          "type": "string"
        },
        {
          "indexed": false,
          "internalType": "string",
          "name": "description",
          "type": "string"
        },
        {
          "indexed": false,
          "internalType": "uint256",
          "name": "price",
          "type": "uint256"
        },
        {
          "indexed": false,
          "internalType": "string",
          "name": "imgipfshash",
          "type": "string"
        },
        {
          "indexed": false,
          "internalType": "address",
          "name": "owner",
          "type": "address"
        }
      ],
      "name": "ProductPurchased",
      "type": "event"
    },
    {
      "inputs": [
        {
          "internalType": "uint256",
          "name": "",
          "type": "uint256"
        }
      ],
      "name": "addressLUT",
      "outputs": [
        {
          "internalType": "address",
          "name": "",
          "type": "address"
        }
      ],
      "stateMutability": "view",
      "type": "function",
      "constant": true
    },
    {
      "inputs": [
        {
          "internalType": "enum Marketplace.Categories",
          "name": "",
          "type": "uint8"
        },
        {
          "internalType": "uint256",
          "name": "",
          "type": "uint256"
        }
      ],
      "name": "categorieToProduct",
      "outputs": [
        {
          "internalType": "uint256",
          "name": "",
          "type": "uint256"
        }
      ],
      "stateMutability": "view",
      "type": "function",
      "constant": true
    },
    {
      "inputs": [],
      "name": "customerCount",
      "outputs": [
        {
          "internalType": "uint256",
          "name": "",
          "type": "uint256"
        }
      ],
      "stateMutability": "view",
      "type": "function",
      "constant": true
    },
    {
      "inputs": [
        {
          "internalType": "address",
          "name": "",
          "type": "address"
        }
      ],
      "name": "customers",
      "outputs": [
        {
          "internalType": "address",
          "name": "adr",
          "type": "address"
        },
        {
          "internalType": "string",
          "name": "name",
          "type": "string"
        },
        {
          "components": [
            {
              "internalType": "uint256[]",
              "name": "products",
              "type": "uint256[]"
            },
            {
              "internalType": "uint256",
              "name": "completeSum",
              "type": "uint256"
            }
          ],
          "internalType": "struct Marketplace.Cart",
          "name": "cart",
          "type": "tuple"
        }
      ],
      "stateMutability": "view",
      "type": "function",
      "constant": true
    },
    {
      "inputs": [
        {
          "internalType": "uint256",
          "name": "",
          "type": "uint256"
        }
      ],
      "name": "files",
      "outputs": [
        {
          "internalType": "string",
          "name": "",
          "type": "string"
        }
      ],
      "stateMutability": "view",
      "type": "function",
      "constant": true
    },
    {
      "inputs": [],
      "name": "flag",
      "outputs": [
        {
          "internalType": "bool",
          "name": "",
          "type": "bool"
        }
      ],
      "stateMutability": "view",
      "type": "function",
      "constant": true
    },
    {
      "inputs": [],
      "name": "productCount",
      "outputs": [
        {
          "internalType": "uint256",
          "name": "",
          "type": "uint256"
        }
      ],
      "stateMutability": "view",
      "type": "function",
      "constant": true
    },
    {
      "inputs": [
        {
          "internalType": "uint256",
          "name": "",
          "type": "uint256"
        }
      ],
      "name": "products",
      "outputs": [
        {
          "internalType": "uint256",
          "name": "id",
          "type": "uint256"
        },
        {
          "internalType": "string",
          "name": "name",
          "type": "string"
        },
        {
          "internalType": "string",
          "name": "description",
          "type": "string"
        },
        {
          "internalType": "uint256",
          "name": "price",
          "type": "uint256"
        },
        {
          "internalType": "string",
          "name": "imgipfshash",
          "type": "string"
        },
        {
          "internalType": "address",
          "name": "owner",
          "type": "address"
        },
        {
          "internalType": "enum Marketplace.Categories",
          "name": "categorie",
          "type": "uint8"
        },
        {
          "internalType": "uint256",
          "name": "uploadedOn",
          "type": "uint256"
        },
        {
          "internalType": "uint256",
          "name": "rate",
          "type": "uint256"
        },
        {
          "internalType": "uint256",
          "name": "reviewsCount",
          "type": "uint256"
        },
        {
          "internalType": "uint256",
          "name": "totalSold",
          "type": "uint256"
        },
        {
          "internalType": "uint256",
          "name": "report",
          "type": "uint256"
        }
      ],
      "stateMutability": "view",
      "type": "function",
      "constant": true
    },
    {
      "inputs": [
        {
          "internalType": "string",
          "name": "_name",
          "type": "string"
        },
        {
          "internalType": "string",
          "name": "_description",
          "type": "string"
        },
        {
          "internalType": "uint256",
          "name": "_price",
          "type": "uint256"
        },
        {
          "internalType": "string",
          "name": "_imgipfshash",
          "type": "string"
        },
        {
          "internalType": "string",
          "name": "_fileipfshash",
          "type": "string"
        },
        {
          "internalType": "enum Marketplace.Categories",
          "name": "_categorie",
          "type": "uint8"
        }
      ],
      "name": "createProduct",
      "outputs": [],
      "stateMutability": "nonpayable",
      "type": "function"
    },
    {
      "inputs": [
        {
          "internalType": "uint256",
          "name": "_id",
          "type": "uint256"
        }
      ],
      "name": "purchaseProduct",
      "outputs": [],
      "stateMutability": "payable",
      "type": "function",
      "payable": true
    },
    {
      "inputs": [
        {
          "internalType": "uint256",
          "name": "id1",
          "type": "uint256"
        }
      ],
      "name": "removeProduct",
      "outputs": [],
      "stateMutability": "nonpayable",
      "type": "function"
    },
    {
      "inputs": [
        {
          "internalType": "uint256",
          "name": "_id",
          "type": "uint256"
        },
        {
          "internalType": "string",
          "name": "_name",
          "type": "string"
        },
        {
          "internalType": "string",
          "name": "_des",
          "type": "string"
        },
        {
          "internalType": "uint256",
          "name": "_price",
          "type": "uint256"
        },
        {
          "internalType": "enum Marketplace.Categories",
          "name": "_categorie",
          "type": "uint8"
        }
      ],
      "name": "editProduct",
      "outputs": [],
      "stateMutability": "nonpayable",
      "type": "function"
    },
    {
      "inputs": [
        {
          "internalType": "uint256",
          "name": "_id",
          "type": "uint256"
        },
        {
          "internalType": "uint256",
          "name": "_rate",
          "type": "uint256"
        },
        {
          "internalType": "uint256",
          "name": "_score",
          "type": "uint256"
        },
        {
          "internalType": "string",
          "name": "_review",
          "type": "string"
        }
      ],
      "name": "reviewProduct",
      "outputs": [],
      "stateMutability": "nonpayable",
      "type": "function"
    },
    {
      "inputs": [
        {
          "internalType": "address",
          "name": "_address",
          "type": "address"
        },
        {
          "internalType": "string",
          "name": "_name",
          "type": "string"
        }
      ],
      "name": "registerCustomer",
      "outputs": [
        {
          "internalType": "bool",
          "name": "success",
          "type": "bool"
        }
      ],
      "stateMutability": "nonpayable",
      "type": "function"
    },
    {
      "inputs": [
        {
          "internalType": "uint256",
          "name": "_id",
          "type": "uint256"
        }
      ],
      "name": "report",
      "outputs": [],
      "stateMutability": "nonpayable",
      "type": "function"
    },
    {
      "inputs": [
        {
          "internalType": "uint256",
          "name": "_id",
          "type": "uint256"
        }
      ],
      "name": "getReport",
      "outputs": [
        {
          "internalType": "uint256",
          "name": "",
          "type": "uint256"
        }
      ],
      "stateMutability": "view",
      "type": "function",
      "constant": true
    },
    {
      "inputs": [
        {
          "internalType": "uint256",
          "name": "_id",
          "type": "uint256"
        }
      ],
      "name": "getProductReviews",
      "outputs": [
        {
          "components": [
            {
              "internalType": "bool",
              "name": "isBuy",
              "type": "bool"
            },
            {
              "internalType": "bool",
              "name": "isReview",
              "type": "bool"
            },
            {
              "internalType": "string",
              "name": "name",
              "type": "string"
            },
            {
              "internalType": "uint256",
              "name": "rate",
              "type": "uint256"
            },
            {
              "internalType": "string",
              "name": "reviewDescription",
              "type": "string"
            },
            {
              "internalType": "uint256",
              "name": "score",
              "type": "uint256"
            },
            {
              "internalType": "uint256",
              "name": "timeStamp",
              "type": "uint256"
            }
          ],
          "internalType": "struct Marketplace.Review[]",
          "name": "",
          "type": "tuple[]"
        }
      ],
      "stateMutability": "view",
      "type": "function",
      "constant": true
    },
    {
      "inputs": [
        {
          "internalType": "uint256",
          "name": "_id",
          "type": "uint256"
        }
      ],
      "name": "getProductBuyers",
      "outputs": [
        {
          "internalType": "address[]",
          "name": "",
          "type": "address[]"
        }
      ],
      "stateMutability": "view",
      "type": "function",
      "constant": true
    },
    {
      "inputs": [
        {
          "internalType": "uint256",
          "name": "_id",
          "type": "uint256"
        }
      ],
      "name": "getProductfile",
      "outputs": [
        {
          "internalType": "string",
          "name": "",
          "type": "string"
        }
      ],
      "stateMutability": "view",
      "type": "function",
      "constant": true
    },
    {
      "inputs": [
        {
          "internalType": "address",
          "name": "adr",
          "type": "address"
        }
      ],
      "name": "getPurchasedProducts",
      "outputs": [
        {
          "internalType": "uint256[]",
          "name": "",
          "type": "uint256[]"
        }
      ],
      "stateMutability": "view",
      "type": "function",
      "constant": true
    }
  ],
  "bytecode": "0x60806040526000805560006001556000600260006101000a81548160ff021916908315150217905550606460085534801561003957600080fd5b50613a4b806100496000396000f3fe60806040526004361061011f5760003560e01c80637acc0b20116100a0578063aca4901811610064578063aca490181461041b578063cc94f2d914610458578063db1970f414610495578063e0f6ef87146104d2578063f4c714b4146104fd5761011f565b80637acc0b201461032b5780637b61b70214610373578063890eba681461039c578063969b1cdb146103c75780639757e8a3146103f05761011f565b806342761c85116100e757806342761c851461022257806343308eef1461024b57806346a4237b146102885780634e7f9b19146102c55780635ee95cae146103025761011f565b80630b784d2d146101245780630fb9398f1461014d57806330a7bfe71461018a578063336989ae146101c757806338e76a0314610206575b600080fd5b34801561013057600080fd5b5061014b60048036038101906101469190612b2c565b61053a565b005b34801561015957600080fd5b50610174600480360381019061016f9190612c29565b610918565b604051610181919061321d565b60405180910390f35b34801561019657600080fd5b506101b160048036038101906101ac9190612aec565b6109bc565b6040516101be91906132e0565b60405180910390f35b3480156101d357600080fd5b506101ee60048036038101906101e99190612a63565b6109ed565b6040516101fd939291906131d8565b60405180910390f35b610220600480360381019061021b9190612c29565b610b2b565b005b34801561022e57600080fd5b5061024960048036038101906102449190612d09565b610dc4565b005b34801561025757600080fd5b50610272600480360381019061026d9190612c29565b611431565b60405161027f919061329e565b60405180910390f35b34801561029457600080fd5b506102af60048036038101906102aa9190612c29565b6116e6565b6040516102bc919061323f565b60405180910390f35b3480156102d157600080fd5b506102ec60048036038101906102e79190612c29565b6118d3565b6040516102f991906132e0565b60405180910390f35b34801561030e57600080fd5b5061032960048036038101906103249190612c29565b6118f3565b005b34801561033757600080fd5b50610352600480360381019061034d9190612c29565b611d29565b60405161036a9c9b9a999897969594939291906132fb565b60405180910390f35b34801561037f57600080fd5b5061039a60048036038101906103959190612c56565b611f4e565b005b3480156103a857600080fd5b506103b161206f565b6040516103be9190613283565b60405180910390f35b3480156103d357600080fd5b506103ee60048036038101906103e99190612c29565b612082565b005b3480156103fc57600080fd5b506104056121b4565b60405161041291906132e0565b60405180910390f35b34801561042757600080fd5b50610442600480360381019061043d9190612c29565b6121ba565b60405161044f91906131bd565b60405180910390f35b34801561046457600080fd5b5061047f600480360381019061047a9190612a63565b6121ed565b60405161048c9190613261565b60405180910390f35b3480156104a157600080fd5b506104bc60048036038101906104b79190612a90565b612287565b6040516104c99190613283565b60405180910390f35b3480156104de57600080fd5b506104e761257e565b6040516104f491906132e0565b60405180910390f35b34801561050957600080fd5b50610524600480360381019061051f9190612c29565b612584565b604051610531919061329e565b60405180910390f35b600086511161054857600080fd5b600085511161055657600080fd5b6000841161056357600080fd5b600083511161057157600080fd5b600082511161057f57600080fd5b6000429050600080815480929190610596906137ec565b919050555060005460036000805481526020019081526020016000206000018190555086600360008054815260200190815260200160002060010190805190602001906105e4929190612624565b508560036000805481526020019081526020016000206002019080519060200190610610929190612624565b50846003600080548152602001908152602001600020600301819055508360036000805481526020019081526020016000206004019080519060200190610658929190612624565b508260076000805481526020019081526020016000209080519060200190610681929190612624565b5033600360008054815260200190815260200160002060050160006101000a81548173ffffffffffffffffffffffffffffffffffffffff021916908373ffffffffffffffffffffffffffffffffffffffff16021790555081600360008054815260200190815260200160002060050160146101000a81548160ff0219169083600a81111561071257610711613893565b5b021790555080600360008054815260200190815260200160002060060181905550600060036000805481526020019081526020016000206008018190555060006003600080548152602001908152602001600020600f018190555060006003600080548152602001908152602001600020600a0181905550600067ffffffffffffffff8111156107a5576107a4613920565b5b6040519080825280602002602001820160405280156107d35781602001602082028036833780820191505090505b50600360008054815260200190815260200160002060090190805190602001906107fe9291906126aa565b506004600083600a81111561081657610815613893565b5b600a81111561082857610827613893565b5b81526020019081526020016000206000549080600181540180825580915050600190039060005260206000200160009091909190915055600560003373ffffffffffffffffffffffffffffffffffffffff1673ffffffffffffffffffffffffffffffffffffffff16815260200190815260200160002060020160005490806001815401808255809150506001900390600052602060002001600090919091909150557f1a3f2c9175d23760b6304c5f19e98b7b12dd25309a0a92996815dcf864cece0960005488888888883360405161090797969594939291906133ca565b60405180910390a150505050505050565b6060600360008381526020019081526020016000206009018054806020026020016040519081016040528092919081815260200182805480156109b057602002820191906000526020600020905b8160009054906101000a900473ffffffffffffffffffffffffffffffffffffffff1673ffffffffffffffffffffffffffffffffffffffff1681526020019060010190808311610966575b50505050509050919050565b600460205281600052604060002081815481106109d857600080fd5b90600052602060002001600091509150505481565b60056020528060005260406000206000915090508060000160009054906101000a900473ffffffffffffffffffffffffffffffffffffffff1690806001018054610a3690613789565b80601f0160208091040260200160405190810160405280929190818152602001828054610a6290613789565b8015610aaf5780601f10610a8457610100808354040283529160200191610aaf565b820191906000526020600020905b815481529060010190602001808311610a9257829003601f168201915b5050505050908060040160405180604001604052908160008201805480602002602001604051908101604052809291908181526020018280548015610b1357602002820191906000526020600020905b815481526020019060010190808311610aff575b50505050508152602001600182015481525050905083565b60006003600083815260200190815260200160002060050160009054906101000a900473ffffffffffffffffffffffffffffffffffffffff169050600160036000848152602001908152602001600020600d0160003373ffffffffffffffffffffffffffffffffffffffff1673ffffffffffffffffffffffffffffffffffffffff16815260200190815260200160002060000160006101000a81548160ff02191690831515021790555060036000838152602001908152602001600020600901339080600181540180825580915050600190039060005260206000200160009091909190916101000a81548173ffffffffffffffffffffffffffffffffffffffff021916908373ffffffffffffffffffffffffffffffffffffffff16021790555060036000838152602001908152602001600020600a016000815480929190610c73906137ec565b9190505550600560003373ffffffffffffffffffffffffffffffffffffffff1673ffffffffffffffffffffffffffffffffffffffff1681526020019081526020016000206003018290806001815401808255809150506001900390600052602060002001600090919091909150558073ffffffffffffffffffffffffffffffffffffffff166108fc349081150290604051600060405180830381858888f19350505050158015610d27573d6000803e3d6000fd5b507fa60391b5fc12a2bf84e95996952da9569290e72de60381dafc011bc0fbbd6af1600054600360008581526020019081526020016000206001016003600086815260200190815260200160002060020160036000878152602001908152602001600020600301546003600088815260200190815260200160002060040133604051610db896959493929190613455565b60405180910390a15050565b6001151560036000868152602001908152602001600020600d0160003373ffffffffffffffffffffffffffffffffffffffff1673ffffffffffffffffffffffffffffffffffffffff16815260200190815260200160002060000160009054906101000a900460ff16151514610e6e576040517f08c379a0000000000000000000000000000000000000000000000000000000008152600401610e65906132c0565b60405180910390fd5b6000151560036000868152602001908152602001600020600d0160003373ffffffffffffffffffffffffffffffffffffffff1673ffffffffffffffffffffffffffffffffffffffff16815260200190815260200160002060000160019054906101000a900460ff161515141561142b57600160036000868152602001908152602001600020600d0160003373ffffffffffffffffffffffffffffffffffffffff1673ffffffffffffffffffffffffffffffffffffffff16815260200190815260200160002060000160016101000a81548160ff021916908315150217905550600560003373ffffffffffffffffffffffffffffffffffffffff1673ffffffffffffffffffffffffffffffffffffffff16815260200190815260200160002060010160036000868152602001908152602001600020600d0160003373ffffffffffffffffffffffffffffffffffffffff1673ffffffffffffffffffffffffffffffffffffffff168152602001908152602001600020600101908054610ff190613789565b610ffc929190612734565b508260036000868152602001908152602001600020600d0160003373ffffffffffffffffffffffffffffffffffffffff1673ffffffffffffffffffffffffffffffffffffffff168152602001908152602001600020600201819055508060036000868152602001908152602001600020600d0160003373ffffffffffffffffffffffffffffffffffffffff1673ffffffffffffffffffffffffffffffffffffffff16815260200190815260200160002060030190805190602001906110c2929190612624565b508160036000868152602001908152602001600020600d0160003373ffffffffffffffffffffffffffffffffffffffff1673ffffffffffffffffffffffffffffffffffffffff168152602001908152602001600020600401819055504260036000868152602001908152602001600020600d0160003373ffffffffffffffffffffffffffffffffffffffff1673ffffffffffffffffffffffffffffffffffffffff168152602001908152602001600020600501819055503360036000868152602001908152602001600020600c0160006003600088815260200190815260200160002060080154815260200190815260200160002060006101000a81548173ffffffffffffffffffffffffffffffffffffffff021916908373ffffffffffffffffffffffffffffffffffffffff16021790555060036000858152602001908152602001600020600b0160036000868152602001908152602001600020600d0160003373ffffffffffffffffffffffffffffffffffffffff1673ffffffffffffffffffffffffffffffffffffffff16815260200190815260200160002090806001815401808255809150506001900390600052602060002090600602016000909190919091506000820160009054906101000a900460ff168160000160006101000a81548160ff0219169083151502179055506000820160019054906101000a900460ff168160000160016101000a81548160ff02191690831515021790555060018201816001019080546112f590613789565b6113009291906127c1565b5060028201548160020155600382018160030190805461131f90613789565b61132a9291906127c1565b5060048201548160040155600582015481600501555050600360008581526020019081526020016000206008016000815480929190611368906137ec565b91905055506000805b60036000878152602001908152602001600020600b01805490508110156113ec5760036000878152602001908152602001600020600b0181815481106113ba576113b96138f1565b5b906000526020600020906006020160020154826113d7919061361f565b915080806113e4906137ec565b915050611371565b5060036000868152602001908152602001600020600801548161140f9190613675565b6003600087815260200190815260200160002060070181905550505b50505050565b60603373ffffffffffffffffffffffffffffffffffffffff166003600084815260200190815260200160002060050160009054906101000a900473ffffffffffffffffffffffffffffffffffffffff1673ffffffffffffffffffffffffffffffffffffffff161415611540576007600083815260200190815260200160002080546114bb90613789565b80601f01602080910402602001604051908101604052809291908181526020018280546114e790613789565b80156115345780601f1061150957610100808354040283529160200191611534565b820191906000526020600020905b81548152906001019060200180831161151757829003601f168201915b505050505090506116e1565b6000600360008481526020019081526020016000206009018054905011156116c95760005b60036000848152602001908152602001600020600901805490508110156116c3573373ffffffffffffffffffffffffffffffffffffffff166003600085815260200190815260200160002060090182815481106115c5576115c46138f1565b5b9060005260206000200160009054906101000a900473ffffffffffffffffffffffffffffffffffffffff1673ffffffffffffffffffffffffffffffffffffffff1614156116b05760076000848152602001908152602001600020805461162a90613789565b80601f016020809104026020016040519081016040528092919081815260200182805461165690613789565b80156116a35780601f10611678576101008083540402835291602001916116a3565b820191906000526020600020905b81548152906001019060200180831161168657829003601f168201915b50505050509150506116e1565b80806116bb906137ec565b915050611565565b506116e0565b6040518060200160405280600081525090506116e1565b5b919050565b606060036000838152602001908152602001600020600b01805480602002602001604051908101604052809291908181526020016000905b828210156118c857838290600052602060002090600602016040518060e00160405290816000820160009054906101000a900460ff161515151581526020016000820160019054906101000a900460ff1615151515815260200160018201805461178790613789565b80601f01602080910402602001604051908101604052809291908181526020018280546117b390613789565b80156118005780601f106117d557610100808354040283529160200191611800565b820191906000526020600020905b8154815290600101906020018083116117e357829003601f168201915b505050505081526020016002820154815260200160038201805461182390613789565b80601f016020809104026020016040519081016040528092919081815260200182805461184f90613789565b801561189c5780601f106118715761010080835404028352916020019161189c565b820191906000526020600020905b81548152906001019060200180831161187f57829003601f168201915b50505050508152602001600482015481526020016005820154815250508152602001906001019061171e565b505050509050919050565b600060036000838152602001908152602001600020600f01549050919050565b6003600082815260200190815260200160002060050160009054906101000a900473ffffffffffffffffffffffffffffffffffffffff1673ffffffffffffffffffffffffffffffffffffffff163373ffffffffffffffffffffffffffffffffffffffff161415611d265760036000828152602001908152602001600020600080820160009055600182016000611989919061284e565b600282016000611999919061284e565b60038201600090556004820160006119b1919061284e565b6005820160006101000a81549073ffffffffffffffffffffffffffffffffffffffff02191690556005820160146101000a81549060ff0219169055600682016000905560078201600090556008820160009055600982016000611a14919061288e565b600a820160009055600b82016000611a2c91906128af565b600f820160009055505060006003600083815260200190815260200160002060050160149054906101000a900460ff1690506004600082600a811115611a7557611a74613893565b5b600a811115611a8757611a86613893565b5b8152602001908152602001600020600183611aa291906136a6565b81548110611ab357611ab26138f1565b5b9060005260206000200160009055600060036000848152602001908152602001600020600c0160006003600086815260200190815260200160002060080154815260200190815260200160002060009054906101000a900473ffffffffffffffffffffffffffffffffffffffff16905060036000848152602001908152602001600020600c0160006003600086815260200190815260200160002060080154815260200190815260200160002060006101000a81549073ffffffffffffffffffffffffffffffffffffffff021916905560036000848152602001908152602001600020600d0160008273ffffffffffffffffffffffffffffffffffffffff1673ffffffffffffffffffffffffffffffffffffffff168152602001908152602001600020600080820160006101000a81549060ff02191690556000820160016101000a81549060ff0219169055600182016000611c0f919061284e565b6002820160009055600382016000611c27919061284e565b60048201600090556005820160009055505060005b600054811015611d225783600560003373ffffffffffffffffffffffffffffffffffffffff1673ffffffffffffffffffffffffffffffffffffffff1681526020019081526020016000206002018281548110611c9b57611c9a6138f1565b5b90600052602060002001541415611d0f57600560003373ffffffffffffffffffffffffffffffffffffffff1673ffffffffffffffffffffffffffffffffffffffff1681526020019081526020016000206002018181548110611d0057611cff6138f1565b5b90600052602060002001600090555b8080611d1a906137ec565b915050611c3c565b5050505b50565b6003602052806000526040600020600091509050806000015490806001018054611d5290613789565b80601f0160208091040260200160405190810160405280929190818152602001828054611d7e90613789565b8015611dcb5780601f10611da057610100808354040283529160200191611dcb565b820191906000526020600020905b815481529060010190602001808311611dae57829003601f168201915b505050505090806002018054611de090613789565b80601f0160208091040260200160405190810160405280929190818152602001828054611e0c90613789565b8015611e595780601f10611e2e57610100808354040283529160200191611e59565b820191906000526020600020905b815481529060010190602001808311611e3c57829003601f168201915b505050505090806003015490806004018054611e7490613789565b80601f0160208091040260200160405190810160405280929190818152602001828054611ea090613789565b8015611eed5780601f10611ec257610100808354040283529160200191611eed565b820191906000526020600020905b815481529060010190602001808311611ed057829003601f168201915b5050505050908060050160009054906101000a900473ffffffffffffffffffffffffffffffffffffffff16908060050160149054906101000a900460ff169080600601549080600701549080600801549080600a01549080600f015490508c565b6003600086815260200190815260200160002060050160009054906101000a900473ffffffffffffffffffffffffffffffffffffffff1673ffffffffffffffffffffffffffffffffffffffff163373ffffffffffffffffffffffffffffffffffffffff1614156120685783600360008781526020019081526020016000206001019080519060200190611fe2929190612624565b508260036000878152602001908152602001600020600201908051906020019061200d929190612624565b50816003600087815260200190815260200160002060030181905550806003600087815260200190815260200160002060050160146101000a81548160ff0219169083600a81111561206257612061613893565b5b02179055505b5050505050565b600260009054906101000a900460ff1681565b6000151560036000838152602001908152602001600020600e0160003373ffffffffffffffffffffffffffffffffffffffff1673ffffffffffffffffffffffffffffffffffffffff16815260200190815260200160002060009054906101000a900460ff16151514156121b15760036000828152602001908152602001600020600f016000815480929190612116906137ec565b9190505550600160036000838152602001908152602001600020600e0160003373ffffffffffffffffffffffffffffffffffffffff1673ffffffffffffffffffffffffffffffffffffffff16815260200190815260200160002060006101000a81548160ff02191690831515021790555060085460036000838152602001908152602001600020600f0154106121b0576121af816118f3565b5b5b50565b60015481565b60066020528060005260406000206000915054906101000a900473ffffffffffffffffffffffffffffffffffffffff1681565b6060600560008373ffffffffffffffffffffffffffffffffffffffff1673ffffffffffffffffffffffffffffffffffffffff16815260200190815260200160002060030180548060200260200160405190810160405280929190818152602001828054801561227b57602002820191906000526020600020905b815481526020019060010190808311612267575b50505050509050919050565b6000806040518060a001604052808573ffffffffffffffffffffffffffffffffffffffff168152602001848152602001600067ffffffffffffffff8111156122d2576122d1613920565b5b6040519080825280602002602001820160405280156123005781602001602082028036833780820191505090505b508152602001600067ffffffffffffffff81111561232157612320613920565b5b60405190808252806020026020018201604052801561234f5781602001602082028036833780820191505090505b5081526020016040518060400160405280600067ffffffffffffffff81111561237b5761237a613920565b5b6040519080825280602002602001820160405280156123a95781602001602082028036833780820191505090505b50815260200160008152508152509050600160008154809291906123cc906137ec565b9190505550806000015160066000600154815260200190815260200160002060006101000a81548173ffffffffffffffffffffffffffffffffffffffff021916908373ffffffffffffffffffffffffffffffffffffffff16021790555080600560008673ffffffffffffffffffffffffffffffffffffffff1673ffffffffffffffffffffffffffffffffffffffff16815260200190815260200160002060008201518160000160006101000a81548173ffffffffffffffffffffffffffffffffffffffff021916908373ffffffffffffffffffffffffffffffffffffffff16021790555060208201518160010190805190602001906124cc929190612624565b5060408201518160020190805190602001906124e99291906128d3565b5060608201518160030190805190602001906125069291906128d3565b50608082015181600401600082015181600001908051906020019061252c9291906128d3565b506020820151816001015550509050507f155e8619f4d23b96769599cb9af87da3e06a360082869c18578011da9a06e6708460405161256b91906131bd565b60405180910390a1600191505092915050565b60005481565b600760205280600052604060002060009150905080546125a390613789565b80601f01602080910402602001604051908101604052809291908181526020018280546125cf90613789565b801561261c5780601f106125f15761010080835404028352916020019161261c565b820191906000526020600020905b8154815290600101906020018083116125ff57829003601f168201915b505050505081565b82805461263090613789565b90600052602060002090601f0160209004810192826126525760008555612699565b82601f1061266b57805160ff1916838001178555612699565b82800160010185558215612699579182015b8281111561269857825182559160200191906001019061267d565b5b5090506126a69190612920565b5090565b828054828255906000526020600020908101928215612723579160200282015b828111156127225782518260006101000a81548173ffffffffffffffffffffffffffffffffffffffff021916908373ffffffffffffffffffffffffffffffffffffffff160217905550916020019190600101906126ca565b5b5090506127309190612920565b5090565b82805461274090613789565b90600052602060002090601f01602090048101928261276257600085556127b0565b82601f1061277357805485556127b0565b828001600101855582156127b057600052602060002091601f016020900482015b828111156127af578254825591600101919060010190612794565b5b5090506127bd9190612920565b5090565b8280546127cd90613789565b90600052602060002090601f0160209004810192826127ef576000855561283d565b82601f10612800578054855561283d565b8280016001018555821561283d57600052602060002091601f016020900482015b8281111561283c578254825591600101919060010190612821565b5b50905061284a9190612920565b5090565b50805461285a90613789565b6000825580601f1061286c575061288b565b601f01602090049060005260206000209081019061288a9190612920565b5b50565b50805460008255906000526020600020908101906128ac9190612920565b50565b50805460008255600602906000526020600020908101906128d0919061293d565b50565b82805482825590600052602060002090810192821561290f579160200282015b8281111561290e5782518255916020019190600101906128f3565b5b50905061291c9190612920565b5090565b5b80821115612939576000816000905550600101612921565b5090565b5b808211156129b057600080820160006101000a81549060ff02191690556000820160016101000a81549060ff021916905560018201600061297f919061284e565b6002820160009055600382016000612997919061284e565b600482016000905560058201600090555060060161293e565b5090565b60006129c76129c2846134f0565b6134cb565b9050828152602081018484840111156129e3576129e2613954565b5b6129ee848285613747565b509392505050565b600081359050612a05816139d7565b92915050565b600081359050612a1a816139ee565b92915050565b600082601f830112612a3557612a3461394f565b5b8135612a458482602086016129b4565b91505092915050565b600081359050612a5d816139fe565b92915050565b600060208284031215612a7957612a7861395e565b5b6000612a87848285016129f6565b91505092915050565b60008060408385031215612aa757612aa661395e565b5b6000612ab5858286016129f6565b925050602083013567ffffffffffffffff811115612ad657612ad5613959565b5b612ae285828601612a20565b9150509250929050565b60008060408385031215612b0357612b0261395e565b5b6000612b1185828601612a0b565b9250506020612b2285828601612a4e565b9150509250929050565b60008060008060008060c08789031215612b4957612b4861395e565b5b600087013567ffffffffffffffff811115612b6757612b66613959565b5b612b7389828a01612a20565b965050602087013567ffffffffffffffff811115612b9457612b93613959565b5b612ba089828a01612a20565b9550506040612bb189828a01612a4e565b945050606087013567ffffffffffffffff811115612bd257612bd1613959565b5b612bde89828a01612a20565b935050608087013567ffffffffffffffff811115612bff57612bfe613959565b5b612c0b89828a01612a20565b92505060a0612c1c89828a01612a0b565b9150509295509295509295565b600060208284031215612c3f57612c3e61395e565b5b6000612c4d84828501612a4e565b91505092915050565b600080600080600060a08688031215612c7257612c7161395e565b5b6000612c8088828901612a4e565b955050602086013567ffffffffffffffff811115612ca157612ca0613959565b5b612cad88828901612a20565b945050604086013567ffffffffffffffff811115612cce57612ccd613959565b5b612cda88828901612a20565b9350506060612ceb88828901612a4e565b9250506080612cfc88828901612a0b565b9150509295509295909350565b60008060008060808587031215612d2357612d2261395e565b5b6000612d3187828801612a4e565b9450506020612d4287828801612a4e565b9350506040612d5387828801612a4e565b925050606085013567ffffffffffffffff811115612d7457612d73613959565b5b612d8087828801612a20565b91505092959194509250565b6000612d988383612dd0565b60208301905092915050565b6000612db083836130fc565b905092915050565b6000612dc4838361319f565b60208301905092915050565b612dd9816136da565b82525050565b612de8816136da565b82525050565b6000612df982613566565b612e0381856135b9565b9350612e0e83613521565b8060005b83811015612e3f578151612e268882612d8c565b9750612e3183613592565b925050600181019050612e12565b5085935050505092915050565b6000612e5782613571565b612e6181856135ca565b935083602082028501612e7385613531565b8060005b85811015612eaf5784840389528151612e908582612da4565b9450612e9b8361359f565b925060208a01995050600181019050612e77565b50829750879550505050505092915050565b6000612ecc8261357c565b612ed681856135db565b9350612ee183613541565b8060005b83811015612f12578151612ef98882612db8565b9750612f04836135ac565b925050600181019050612ee5565b5085935050505092915050565b6000612f2a8261357c565b612f3481856135ec565b9350612f3f83613541565b8060005b83811015612f70578151612f578882612db8565b9750612f62836135ac565b925050600181019050612f43565b5085935050505092915050565b612f86816136ec565b82525050565b612f95816136ec565b82525050565b612fa481613735565b82525050565b6000612fb582613587565b612fbf81856135fd565b9350612fcf818560208601613756565b612fd881613963565b840191505092915050565b6000612fee82613587565b612ff8818561360e565b9350613008818560208601613756565b61301181613963565b840191505092915050565b6000815461302981613789565b613033818661360e565b9450600182166000811461304e576001811461306057613093565b60ff1983168652602086019350613093565b61306985613551565b60005b8381101561308b5781548189015260018201915060208101905061306c565b808801955050505b50505092915050565b60006130a9602b8361360e565b91506130b482613974565b604082019050919050565b600060408301600083015184820360008601526130dc8282612ec1565b91505060208301516130f1602086018261319f565b508091505092915050565b600060e0830160008301516131146000860182612f7d565b5060208301516131276020860182612f7d565b506040830151848203604086015261313f8282612faa565b9150506060830151613154606086018261319f565b506080830151848203608086015261316c8282612faa565b91505060a083015161318160a086018261319f565b5060c083015161319460c086018261319f565b508091505092915050565b6131a88161372b565b82525050565b6131b78161372b565b82525050565b60006020820190506131d26000830184612ddf565b92915050565b60006060820190506131ed6000830186612ddf565b81810360208301526131ff8185612fe3565b9050818103604083015261321381846130bf565b9050949350505050565b600060208201905081810360008301526132378184612dee565b905092915050565b600060208201905081810360008301526132598184612e4c565b905092915050565b6000602082019050818103600083015261327b8184612f1f565b905092915050565b60006020820190506132986000830184612f8c565b92915050565b600060208201905081810360008301526132b88184612fe3565b905092915050565b600060208201905081810360008301526132d98161309c565b9050919050565b60006020820190506132f560008301846131ae565b92915050565b600061018082019050613311600083018f6131ae565b8181036020830152613323818e612fe3565b90508181036040830152613337818d612fe3565b9050613346606083018c6131ae565b8181036080830152613358818b612fe3565b905061336760a083018a612ddf565b61337460c0830189612f9b565b61338160e08301886131ae565b61338f6101008301876131ae565b61339d6101208301866131ae565b6133ab6101408301856131ae565b6133b96101608301846131ae565b9d9c50505050505050505050505050565b600060e0820190506133df600083018a6131ae565b81810360208301526133f18189612fe3565b905081810360408301526134058188612fe3565b905061341460608301876131ae565b81810360808301526134268186612fe3565b905081810360a083015261343a8185612fe3565b905061344960c0830184612ddf565b98975050505050505050565b600060c08201905061346a60008301896131ae565b818103602083015261347c818861301c565b90508181036040830152613490818761301c565b905061349f60608301866131ae565b81810360808301526134b1818561301c565b90506134c060a0830184612ddf565b979650505050505050565b60006134d56134e6565b90506134e182826137bb565b919050565b6000604051905090565b600067ffffffffffffffff82111561350b5761350a613920565b5b61351482613963565b9050602081019050919050565b6000819050602082019050919050565b6000819050602082019050919050565b6000819050602082019050919050565b60008190508160005260206000209050919050565b600081519050919050565b600081519050919050565b600081519050919050565b600081519050919050565b6000602082019050919050565b6000602082019050919050565b6000602082019050919050565b600082825260208201905092915050565b600082825260208201905092915050565b600082825260208201905092915050565b600082825260208201905092915050565b600082825260208201905092915050565b600082825260208201905092915050565b600061362a8261372b565b91506136358361372b565b9250827fffffffffffffffffffffffffffffffffffffffffffffffffffffffffffffffff0382111561366a57613669613835565b5b828201905092915050565b60006136808261372b565b915061368b8361372b565b92508261369b5761369a613864565b5b828204905092915050565b60006136b18261372b565b91506136bc8361372b565b9250828210156136cf576136ce613835565b5b828203905092915050565b60006136e58261370b565b9050919050565b60008115159050919050565b6000819050613706826139c3565b919050565b600073ffffffffffffffffffffffffffffffffffffffff82169050919050565b6000819050919050565b6000613740826136f8565b9050919050565b82818337600083830152505050565b60005b83811015613774578082015181840152602081019050613759565b83811115613783576000848401525b50505050565b600060028204905060018216806137a157607f821691505b602082108114156137b5576137b46138c2565b5b50919050565b6137c482613963565b810181811067ffffffffffffffff821117156137e3576137e2613920565b5b80604052505050565b60006137f78261372b565b91507fffffffffffffffffffffffffffffffffffffffffffffffffffffffffffffffff82141561382a57613829613835565b5b600182019050919050565b7f4e487b7100000000000000000000000000000000000000000000000000000000600052601160045260246000fd5b7f4e487b7100000000000000000000000000000000000000000000000000000000600052601260045260246000fd5b7f4e487b7100000000000000000000000000000000000000000000000000000000600052602160045260246000fd5b7f4e487b7100000000000000000000000000000000000000000000000000000000600052602260045260246000fd5b7f4e487b7100000000000000000000000000000000000000000000000000000000600052603260045260246000fd5b7f4e487b7100000000000000000000000000000000000000000000000000000000600052604160045260246000fd5b600080fd5b600080fd5b600080fd5b600080fd5b6000601f19601f8301169050919050565b7f596f7520617265206e6f7420656c696769626c6520746f20726576696577207460008201527f6869732070726f64756374000000000000000000000000000000000000000000602082015250565b600b81106139d4576139d3613893565b5b50565b6139e0816136da565b81146139eb57600080fd5b50565b600b81106139fb57600080fd5b50565b613a078161372b565b8114613a1257600080fd5b5056fea2646970667358221220518e8f9d272c6d359c07d1bd6c3acab17e25752b168a2bdbeafa0a96fa004e6864736f6c63430008070033",
  "immutableReferences": {},
  "source": "//buyer w purchasedProduct\r\n// SPDX-License-Identifier: MIT\r\npragma solidity  ^0.8.0;\r\n\r\ncontract Marketplace {\r\n    //string public name;\r\n    uint public productCount = 0;\r\n    uint public customerCount = 0;\r\n    //to store the products on blockchain\r\n    bool public flag = false;\r\n    mapping(uint => Product) public products;\r\n    //mapping(uint => uint[]) public productsRates;\r\n    //mapping(uint => string[]) public productsReviews;\r\n    mapping(Categories => uint[]) public categorieToProduct;\r\n    //to store the customers on blockchain\r\n    mapping(address  => Customer) public customers;\r\n    mapping(uint => address) public addressLUT;\r\n    mapping(uint => string) public files;\r\n    uint256 MAXREPORT = 100;\r\n    \r\n    enum Categories {\r\n        Tech,\r\n        PCGames,\r\n        PS4Games,\r\n        XboxGames,\r\n        Movies,\r\n        Courses,\r\n        Books,\r\n        AudioBooks,\r\n        Images,\r\n        Videos,\r\n        Other\r\n    }\r\n    struct Review{\r\n        bool isBuy;\r\n        bool isReview;\r\n        string name;\r\n        uint256 rate;\r\n        string reviewDescription;\r\n        uint256 score;\r\n        uint timeStamp;\r\n    }\r\n    struct Customer {\r\n        address adr;\r\n        string name;\r\n        uint256[] ownedProducts;\r\n        uint256[] purchasedProducts;\r\n        Cart cart;\r\n        \r\n    }\r\n\r\n    struct Cart {\r\n      uint256[] products;\r\n      uint256 completeSum;\r\n    }\r\n\r\n    struct Product {\r\n        uint id;\r\n        string name;\r\n        string description;\r\n        uint price;\r\n        string imgipfshash;\r\n        address owner;\r\n        Categories categorie;\r\n        uint256 uploadedOn;\r\n        uint256 rate;\r\n        uint256 reviewsCount;\r\n        address[] buyers;\r\n        uint256 totalSold;\r\n        Review [] reviews;\r\n        mapping (uint=>address) raters; //address of reviewers\r\n        mapping (address=>Review) productUserReview;\r\n        mapping (address => bool)hasReported;\r\n        uint report;\r\n        //bool removed;\r\n    }\r\n\r\n    event ProductCreated(uint id, string name, string description, uint price, string imgipfshash, string fileipfshash, address owner);\r\n    event ProductPurchased(uint id, string name, string description, uint price, string imgipfshash, address owner);\r\n    event CustomerRegistered(address customer);\r\n    event CustomerRegistrationFailed(address customer);\r\n    event CartProductInserted(address customer, uint256 prodId, uint256 prodPrice, uint256 completeSum);\r\n    event CartProductInsertionFailed(address customer, uint256 prodId);\r\n    event CartProductRemoved(address customer, uint256 prodId);\r\n    event CartEmptied(address customer);\r\n\r\n    // Create a new product with a struct\r\n    // Add the struct to the mapping, and store it on the blockchain\r\n    // Trigger an event that lets someone know a product was creatd\r\n    function createProduct(string memory _name,string memory _description, uint _price,string memory _imgipfshash,string memory _fileipfshash , Categories _categorie ) public {\r\n        // Require a valid name\r\n        require(bytes(_name).length > 0);\r\n        // Require a valid description\r\n        require(bytes(_description).length > 0);\r\n        // Require a valid price\r\n        require(_price > 0);\r\n        // Require a valid image hash\r\n        require(bytes(_imgipfshash).length > 0);\r\n        // Require a valid file hash\r\n        require(bytes(_fileipfshash).length > 0);\r\n        // Increment product count\r\n        uint256 _uploadedOn = block.timestamp;\r\n        //increment number of products\r\n        productCount ++;\r\n        //add this Product to the products map\r\n        products[productCount].id = productCount;\r\n        products[productCount].name = _name;\r\n        products[productCount].description = _description;\r\n        products[productCount].price = _price;\r\n        products[productCount].imgipfshash = _imgipfshash;\r\n        files[productCount] = _fileipfshash;\r\n        products[productCount].owner = msg.sender;\r\n        products[productCount].categorie = _categorie;\r\n        products[productCount].uploadedOn = _uploadedOn;\r\n        products[productCount].reviewsCount = 0;\r\n        products[productCount].report = 0;\r\n        products[productCount].totalSold = 0;\r\n        products[productCount].buyers = new address[](0);\r\n        //products[productCount].removed = false;\r\n        //add this product to it's categorie\r\n        categorieToProduct[_categorie].push(productCount);\r\n        //add this product to the customer's owned product\r\n        customers[msg.sender].ownedProducts.push(productCount);\r\n        //create an event\r\n        emit ProductCreated(productCount, _name, _description, _price, _imgipfshash,_fileipfshash, msg.sender);\r\n    }\r\n\r\n    function purchaseProduct(uint _id) public payable {\r\n        // Fetch the owner\r\n        address _seller = products[_id].owner;\r\n        /*require(products[_id].owner != msg.sender, \"You cannot buy your own product\");\r\n        // Make sure the product has a valid id\r\n        require(products[_id].id > 0 && products[_id].id <= productCount);\r\n        // Require that there is enough Ether in the transaction\r\n        require(msg.value >= products[_id].price, \"Insufficient Ether\");\r\n        // Require that the buyer is not the seller\r\n        require(_seller != msg.sender);*/\r\n        //add to products a user can revie\r\n        products[_id].productUserReview[msg.sender].isBuy = true;\r\n        //add this customer to the people who bought this product\r\n        products[_id].buyers.push(msg.sender);\r\n        //update total purchases\r\n        products[_id].totalSold++;\r\n        //add to the products owners\r\n        customers[msg.sender].purchasedProducts.push(_id);\r\n        // Pay the seller by sending them Ether\r\n        payable(_seller).transfer(msg.value);\r\n        // Trigger an event\r\n        emit ProductPurchased(productCount, products[_id].name,products[_id].description, products[_id].price, products[_id].imgipfshash, msg.sender);\r\n    }\r\n    /* function removeProduct(uint id1) public {\r\n         if(msg.sender == products[id1].owner){\r\n             products[id1].removed = true;\r\n         }\r\n     }*/\r\n        function removeProduct(uint id1) public {\r\n        if(msg.sender == products[id1].owner){\r\n            delete products [id1];\r\n            Categories cat;\r\n            cat = products[id1].categorie;\r\n            delete categorieToProduct[cat][id1-1];\r\n            address add = products[id1].raters[products[id1].reviewsCount];\r\n            delete products[id1].raters[products[id1].reviewsCount];\r\n            delete products[id1].productUserReview[add];\r\n            for(uint i=0;i<productCount;i++){\r\n                if(customers[msg.sender].ownedProducts[i] == id1){\r\n                    delete customers[msg.sender].ownedProducts[i];\r\n                }\r\n            }\r\n        }\r\n    }\r\n    function editProduct(uint256 _id , string memory _name , string memory _des , uint _price , Categories _categorie) public{\r\n        if(msg.sender == products[_id].owner){\r\n            products[_id].name = _name;\r\n            products[_id].description = _des;\r\n            products[_id].price = _price;\r\n            products[_id].categorie = _categorie;\r\n            \r\n        }\r\n    }\r\n    function reviewProduct(uint _id,uint256 _rate,uint256 _score, string memory _review) public\r\n    {\r\n           require(products[_id].productUserReview[msg.sender].isBuy == true, \"You are not eligible to review this product\");\r\n           if (products[_id].productUserReview[msg.sender].isReview == false){ //only once\r\n               products[_id].productUserReview[msg.sender].isReview = true;\r\n\r\n               products[_id].productUserReview[msg.sender].name = customers[msg.sender].name;\r\n               products[_id].productUserReview[msg.sender].rate = _rate;\r\n               products[_id].productUserReview[msg.sender].reviewDescription = _review;\r\n               products[_id].productUserReview[msg.sender].score = _score;\r\n               products[_id].productUserReview[msg.sender].timeStamp = block.timestamp;\r\n\r\n    \r\n               products[_id].raters[products[_id].reviewsCount] = msg.sender;\r\n                  products[_id].reviews.push(products[_id].productUserReview[msg.sender]);\r\n    \r\n               products[_id].reviewsCount ++;\r\n               \r\n               //calculate and update product rate\r\n               uint sum=0;\r\n               for(uint i=0;i<products[_id].reviews.length;i++){\r\n               sum+=products[_id].reviews[i].rate;\r\n               }\r\n               products[_id].rate = sum/products[_id].reviewsCount;\r\n           }\r\n\r\n    }\r\n\r\n    /*function insertProductIntoCart(uint256 id) public returns (bool success,\r\n                                                  uint256 pos_in_prod_mapping) {\r\n        Customer storage cust = customers[msg.sender];\r\n        Product memory prod = products[id];\r\n        uint256 prods_prev_len = cust.cart.products.length;\r\n        cust.cart.products.push(prod.id);\r\n        uint256 current_sum = cust.cart.completeSum;\r\n        cust.cart.completeSum = current_sum + prod.price;\r\n        if (cust.cart.products.length > prods_prev_len) {\r\n          emit CartProductInserted(msg.sender, id, prod.price, cust.cart.completeSum);\r\n          return (true, cust.cart.products.length - 1);\r\n        }\r\n        emit CartProductInsertionFailed(msg.sender, id);\r\n        return (false, 0);\r\n    }*/\r\n\r\n    /*function removeProductFromCart(uint256 prod_pos_in_mapping) public {\r\n        uint256[] memory new_product_list = new uint256[](customers[msg.sender]\r\n                                                    .cart.products.length - 1);\r\n        uint256[] memory customerProds = customers[msg.sender].cart.products;\r\n        for (uint256 i = 0; i < customerProds.length; i++) {\r\n          if (i != prod_pos_in_mapping) {\r\n            new_product_list[i] = customerProds[i];\r\n          } else {\r\n            customers[msg.sender].cart.completeSum -=\r\n                                               products[customerProds[i]].price;\r\n            emit CartProductRemoved(msg.sender, customerProds[i]);\r\n          }\r\n        }\r\n        customers[msg.sender].cart.products = new_product_list;\r\n    }\r\n*/\r\n    /*function emptyCart() public returns (bool success) {\r\n        Customer storage customer = customers[msg.sender];\r\n        customer.cart = Cart(new uint256[](0), 0);\r\n        emit CartEmptied(customer.adr);\r\n        return true;\r\n    }\r\n*/\r\n    function registerCustomer(address _address, string memory _name)\r\n                                        public returns (bool success) {\r\n        Customer memory customer = Customer(_address, _name,new uint256[](0),new uint256[](0),Cart(new uint256[](0),0));\r\n        customerCount++;\r\n        addressLUT[customerCount]=customer.adr;\r\n        customers[_address] = customer;\r\n        emit CustomerRegistered(_address);\r\n        return true;\r\n    }\r\n    function report(uint _id) public {\r\n        if(products[_id].hasReported[msg.sender] == false){\r\n            products[_id].report++;\r\n            products[_id].hasReported[msg.sender] = true;\r\n            if(products[_id].report >= MAXREPORT){\r\n                removeProduct(_id);\r\n            }\r\n        }\r\n    }\r\n    function getReport(uint _id) public view returns(uint){\r\n        return products[_id].report;\r\n    }\r\n\r\n    function getProductReviews(uint _id) public view returns (Review[] memory){\r\n        return products[_id].reviews;\r\n    }\r\n    function getProductBuyers(uint _id) public view returns(address[] memory){\r\n        return products[_id].buyers;\r\n    }\r\n    function getProductfile(uint _id) public view returns(string memory){\r\n        if(products[_id].owner == msg.sender){\r\n            return files[_id];\r\n        }\r\n        else if(products[_id].buyers.length > 0)\r\n        for(uint i=0;i<products[_id].buyers.length;i++){\r\n            if(products[_id].buyers[i] == msg.sender)\r\n                return files[_id];\r\n        }\r\n        else\r\n        return \"\";\r\n    }\r\n    function getPurchasedProducts(address adr) public view returns( uint256[] memory){\r\n        return customers[adr].purchasedProducts;\r\n    }\r\n\r\n}",
  "sourcePath": "C:\\Users\\Administrator\\Desktop\\MarketPlace\\src\\contracts\\Marketplace.sol",
  "compiler": {
    "name": "solc",
    "version": "0.8.7+commit.e28d00a7.Emscripten.clang"
  },
  "schemaVersion": "3.4.2",
  "updatedAt": "2021-08-27T18:15:26.192Z",
  "networkType": "ethereum",
  "devdoc": {
    "kind": "dev",
    "methods": {},
    "version": 1
  },
  "userdoc": {
    "kind": "user",
    "methods": {},
    "version": 1
  }
}