{
  "contractName": "Marketplace",
  "abi": [
    {
      "anonymous": false,
      "inputs": [
        {
          "indexed": false,
          "internalType": "address",
          "name": "customer",
          "type": "address"
        }
      ],
      "name": "CartEmptied",
      "type": "event"
    },
    {
      "anonymous": false,
      "inputs": [
        {
          "indexed": false,
          "internalType": "address",
          "name": "customer",
          "type": "address"
        },
        {
          "indexed": false,
          "internalType": "uint256",
          "name": "prodId",
          "type": "uint256"
        },
        {
          "indexed": false,
          "internalType": "uint256",
          "name": "prodPrice",
          "type": "uint256"
        },
        {
          "indexed": false,
          "internalType": "uint256",
          "name": "completeSum",
          "type": "uint256"
        }
      ],
      "name": "CartProductInserted",
      "type": "event"
    },
    {
      "anonymous": false,
      "inputs": [
        {
          "indexed": false,
          "internalType": "address",
          "name": "customer",
          "type": "address"
        },
        {
          "indexed": false,
          "internalType": "uint256",
          "name": "prodId",
          "type": "uint256"
        }
      ],
      "name": "CartProductInsertionFailed",
      "type": "event"
    },
    {
      "anonymous": false,
      "inputs": [
        {
          "indexed": false,
          "internalType": "address",
          "name": "customer",
          "type": "address"
        },
        {
          "indexed": false,
          "internalType": "uint256",
          "name": "prodId",
          "type": "uint256"
        }
      ],
      "name": "CartProductRemoved",
      "type": "event"
    },
    {
      "anonymous": false,
      "inputs": [
        {
          "indexed": false,
          "internalType": "address",
          "name": "customer",
          "type": "address"
        }
      ],
      "name": "CustomerRegistered",
      "type": "event"
    },
    {
      "anonymous": false,
      "inputs": [
        {
          "indexed": false,
          "internalType": "address",
          "name": "customer",
          "type": "address"
        }
      ],
      "name": "CustomerRegistrationFailed",
      "type": "event"
    },
    {
      "anonymous": false,
      "inputs": [
        {
          "indexed": false,
          "internalType": "uint256",
          "name": "id",
          "type": "uint256"
        },
        {
          "indexed": false,
          "internalType": "string",
          "name": "name",
          "type": "string"
        },
        {
          "indexed": false,
          "internalType": "string",
          "name": "description",
          "type": "string"
        },
        {
          "indexed": false,
          "internalType": "uint256",
          "name": "price",
          "type": "uint256"
        },
        {
          "indexed": false,
          "internalType": "string",
          "name": "imgipfshash",
          "type": "string"
        },
        {
          "indexed": false,
          "internalType": "string",
          "name": "fileipfshash",
          "type": "string"
        },
        {
          "indexed": false,
          "internalType": "address",
          "name": "owner",
          "type": "address"
        },
        {
          "indexed": false,
          "internalType": "bool",
          "name": "purchased",
          "type": "bool"
        }
      ],
      "name": "ProductCreated",
      "type": "event"
    },
    {
      "anonymous": false,
      "inputs": [
        {
          "indexed": false,
          "internalType": "uint256",
          "name": "id",
          "type": "uint256"
        },
        {
          "indexed": false,
          "internalType": "string",
          "name": "name",
          "type": "string"
        },
        {
          "indexed": false,
          "internalType": "string",
          "name": "description",
          "type": "string"
        },
        {
          "indexed": false,
          "internalType": "uint256",
          "name": "price",
          "type": "uint256"
        },
        {
          "indexed": false,
          "internalType": "string",
          "name": "imgipfshash",
          "type": "string"
        },
        {
          "indexed": false,
          "internalType": "string",
          "name": "fileipfshash",
          "type": "string"
        },
        {
          "indexed": false,
          "internalType": "address",
          "name": "owner",
          "type": "address"
        },
        {
          "indexed": false,
          "internalType": "bool",
          "name": "purchased",
          "type": "bool"
        }
      ],
      "name": "ProductPurchased",
      "type": "event"
    },
    {
      "inputs": [
        {
          "internalType": "uint256",
          "name": "",
          "type": "uint256"
        }
      ],
      "name": "addressLUT",
      "outputs": [
        {
          "internalType": "address",
          "name": "",
          "type": "address"
        }
      ],
      "stateMutability": "view",
      "type": "function",
      "constant": true
    },
    {
      "inputs": [],
      "name": "customerCount",
      "outputs": [
        {
          "internalType": "uint256",
          "name": "",
          "type": "uint256"
        }
      ],
      "stateMutability": "view",
      "type": "function",
      "constant": true
    },
    {
      "inputs": [
        {
          "internalType": "address",
          "name": "",
          "type": "address"
        }
      ],
      "name": "customers",
      "outputs": [
        {
          "internalType": "address",
          "name": "adr",
          "type": "address"
        },
        {
          "internalType": "string",
          "name": "name",
          "type": "string"
        },
        {
          "components": [
            {
              "internalType": "uint256[]",
              "name": "products",
              "type": "uint256[]"
            },
            {
              "internalType": "uint256",
              "name": "completeSum",
              "type": "uint256"
            }
          ],
          "internalType": "struct Marketplace.Cart",
          "name": "cart",
          "type": "tuple"
        }
      ],
      "stateMutability": "view",
      "type": "function",
      "constant": true
    },
    {
      "inputs": [
        {
          "internalType": "uint256",
          "name": "",
          "type": "uint256"
        }
      ],
      "name": "emptySpaces",
      "outputs": [
        {
          "internalType": "uint256",
          "name": "",
          "type": "uint256"
        }
      ],
      "stateMutability": "view",
      "type": "function",
      "constant": true
    },
    {
      "inputs": [],
      "name": "flag",
      "outputs": [
        {
          "internalType": "bool",
          "name": "",
          "type": "bool"
        }
      ],
      "stateMutability": "view",
      "type": "function",
      "constant": true
    },
    {
      "inputs": [],
      "name": "ftt",
      "outputs": [
        {
          "internalType": "uint256",
          "name": "",
          "type": "uint256"
        }
      ],
      "stateMutability": "view",
      "type": "function",
      "constant": true
    },
    {
      "inputs": [],
      "name": "len",
      "outputs": [
        {
          "internalType": "uint256",
          "name": "",
          "type": "uint256"
        }
      ],
      "stateMutability": "view",
      "type": "function",
      "constant": true
    },
    {
      "inputs": [
        {
          "internalType": "address",
          "name": "",
          "type": "address"
        },
        {
          "internalType": "uint256",
          "name": "",
          "type": "uint256"
        }
      ],
      "name": "ownerToProducts",
      "outputs": [
        {
          "internalType": "uint256",
          "name": "id",
          "type": "uint256"
        },
        {
          "internalType": "string",
          "name": "name",
          "type": "string"
        },
        {
          "internalType": "string",
          "name": "description",
          "type": "string"
        },
        {
          "internalType": "uint256",
          "name": "price",
          "type": "uint256"
        },
        {
          "internalType": "string",
          "name": "imgipfshash",
          "type": "string"
        },
        {
          "internalType": "string",
          "name": "fileipfshash",
          "type": "string"
        },
        {
          "internalType": "address",
          "name": "owner",
          "type": "address"
        },
        {
          "internalType": "bool",
          "name": "purchased",
          "type": "bool"
        },
        {
          "internalType": "enum Marketplace.Categories",
          "name": "categorie",
          "type": "uint8"
        }
      ],
      "stateMutability": "view",
      "type": "function",
      "constant": true
    },
    {
      "inputs": [],
      "name": "productCount",
      "outputs": [
        {
          "internalType": "uint256",
          "name": "",
          "type": "uint256"
        }
      ],
      "stateMutability": "view",
      "type": "function",
      "constant": true
    },
    {
      "inputs": [
        {
          "internalType": "uint256",
          "name": "",
          "type": "uint256"
        }
      ],
      "name": "products",
      "outputs": [
        {
          "internalType": "uint256",
          "name": "id",
          "type": "uint256"
        },
        {
          "internalType": "string",
          "name": "name",
          "type": "string"
        },
        {
          "internalType": "string",
          "name": "description",
          "type": "string"
        },
        {
          "internalType": "uint256",
          "name": "price",
          "type": "uint256"
        },
        {
          "internalType": "string",
          "name": "imgipfshash",
          "type": "string"
        },
        {
          "internalType": "string",
          "name": "fileipfshash",
          "type": "string"
        },
        {
          "internalType": "address",
          "name": "owner",
          "type": "address"
        },
        {
          "internalType": "bool",
          "name": "purchased",
          "type": "bool"
        },
        {
          "internalType": "enum Marketplace.Categories",
          "name": "categorie",
          "type": "uint8"
        }
      ],
      "stateMutability": "view",
      "type": "function",
      "constant": true
    },
    {
      "inputs": [
        {
          "internalType": "uint256",
          "name": "",
          "type": "uint256"
        },
        {
          "internalType": "uint256",
          "name": "",
          "type": "uint256"
        }
      ],
      "name": "productsRates",
      "outputs": [
        {
          "internalType": "uint256",
          "name": "",
          "type": "uint256"
        }
      ],
      "stateMutability": "view",
      "type": "function",
      "constant": true
    },
    {
      "inputs": [
        {
          "internalType": "uint256",
          "name": "",
          "type": "uint256"
        },
        {
          "internalType": "uint256",
          "name": "",
          "type": "uint256"
        }
      ],
      "name": "productsReviews",
      "outputs": [
        {
          "internalType": "string",
          "name": "",
          "type": "string"
        }
      ],
      "stateMutability": "view",
      "type": "function",
      "constant": true
    },
    {
      "inputs": [
        {
          "internalType": "string",
          "name": "_name",
          "type": "string"
        },
        {
          "internalType": "string",
          "name": "_description",
          "type": "string"
        },
        {
          "internalType": "uint256",
          "name": "_price",
          "type": "uint256"
        },
        {
          "internalType": "string",
          "name": "_imgipfshash",
          "type": "string"
        },
        {
          "internalType": "string",
          "name": "_fileipfshash",
          "type": "string"
        },
        {
          "internalType": "enum Marketplace.Categories",
          "name": "_categorie",
          "type": "uint8"
        }
      ],
      "name": "createProduct",
      "outputs": [],
      "stateMutability": "nonpayable",
      "type": "function"
    },
    {
      "inputs": [
        {
          "internalType": "uint256",
          "name": "id1",
          "type": "uint256"
        }
      ],
      "name": "removeProduct",
      "outputs": [],
      "stateMutability": "nonpayable",
      "type": "function"
    },
    {
      "inputs": [
        {
          "internalType": "uint256",
          "name": "id1",
          "type": "uint256"
        }
      ],
      "name": "removeNestedProduct",
      "outputs": [],
      "stateMutability": "nonpayable",
      "type": "function"
    },
    {
      "inputs": [
        {
          "internalType": "uint256",
          "name": "_id",
          "type": "uint256"
        }
      ],
      "name": "purchaseProduct",
      "outputs": [],
      "stateMutability": "payable",
      "type": "function",
      "payable": true
    },
    {
      "inputs": [
        {
          "internalType": "uint256",
          "name": "_id",
          "type": "uint256"
        },
        {
          "internalType": "string",
          "name": "_name",
          "type": "string"
        },
        {
          "internalType": "string",
          "name": "_des",
          "type": "string"
        },
        {
          "internalType": "uint256",
          "name": "_price",
          "type": "uint256"
        },
        {
          "internalType": "string",
          "name": "_imgipfshash",
          "type": "string"
        },
        {
          "internalType": "enum Marketplace.Categories",
          "name": "_categorie",
          "type": "uint8"
        }
      ],
      "name": "editProduct",
      "outputs": [],
      "stateMutability": "nonpayable",
      "type": "function"
    },
    {
      "inputs": [
        {
          "internalType": "uint256",
          "name": "_rate",
          "type": "uint256"
        },
        {
          "internalType": "uint256",
          "name": "pos_in_prod_mapping",
          "type": "uint256"
        }
      ],
      "name": "giveRate",
      "outputs": [],
      "stateMutability": "nonpayable",
      "type": "function"
    },
    {
      "inputs": [
        {
          "internalType": "string",
          "name": "_review",
          "type": "string"
        },
        {
          "internalType": "uint256",
          "name": "pos_in_prod_mapping",
          "type": "uint256"
        }
      ],
      "name": "writeReview",
      "outputs": [],
      "stateMutability": "nonpayable",
      "type": "function"
    },
    {
      "inputs": [
        {
          "internalType": "uint256",
          "name": "id",
          "type": "uint256"
        }
      ],
      "name": "insertProductIntoCart",
      "outputs": [
        {
          "internalType": "bool",
          "name": "success",
          "type": "bool"
        },
        {
          "internalType": "uint256",
          "name": "pos_in_prod_mapping",
          "type": "uint256"
        }
      ],
      "stateMutability": "nonpayable",
      "type": "function"
    },
    {
      "inputs": [
        {
          "internalType": "uint256",
          "name": "prod_pos_in_mapping",
          "type": "uint256"
        }
      ],
      "name": "removeProductFromCart",
      "outputs": [],
      "stateMutability": "nonpayable",
      "type": "function"
    },
    {
      "inputs": [],
      "name": "emptyCart",
      "outputs": [
        {
          "internalType": "bool",
          "name": "success",
          "type": "bool"
        }
      ],
      "stateMutability": "nonpayable",
      "type": "function"
    },
    {
      "inputs": [
        {
          "internalType": "address",
          "name": "_address",
          "type": "address"
        },
        {
          "internalType": "string",
          "name": "_name",
          "type": "string"
        }
      ],
      "name": "registerCustomer",
      "outputs": [
        {
          "internalType": "bool",
          "name": "success",
          "type": "bool"
        }
      ],
      "stateMutability": "nonpayable",
      "type": "function"
    },
    {
      "inputs": [
        {
          "internalType": "address",
          "name": "_adr",
          "type": "address"
        }
      ],
      "name": "getCustomer",
      "outputs": [
        {
          "components": [
            {
              "internalType": "address",
              "name": "adr",
              "type": "address"
            },
            {
              "internalType": "string",
              "name": "name",
              "type": "string"
            },
            {
              "components": [
                {
                  "internalType": "uint256[]",
                  "name": "products",
                  "type": "uint256[]"
                },
                {
                  "internalType": "uint256",
                  "name": "completeSum",
                  "type": "uint256"
                }
              ],
              "internalType": "struct Marketplace.Cart",
              "name": "cart",
              "type": "tuple"
            }
          ],
          "internalType": "struct Marketplace.Customer",
          "name": "",
          "type": "tuple"
        }
      ],
      "stateMutability": "view",
      "type": "function",
      "constant": true
    },
    {
      "inputs": [
        {
          "internalType": "address",
          "name": "_owner",
          "type": "address"
        }
      ],
      "name": "getProductCount",
      "outputs": [
        {
          "internalType": "uint256",
          "name": "",
          "type": "uint256"
        }
      ],
      "stateMutability": "view",
      "type": "function",
      "constant": true
    },
    {
      "inputs": [
        {
          "internalType": "address",
          "name": "_owner",
          "type": "address"
        },
        {
          "internalType": "uint8",
          "name": "_index",
          "type": "uint8"
        }
      ],
      "name": "getProduct",
      "outputs": [
        {
          "internalType": "uint256",
          "name": "_id",
          "type": "uint256"
        },
        {
          "internalType": "string",
          "name": "_name",
          "type": "string"
        },
        {
          "internalType": "string",
          "name": "_description",
          "type": "string"
        },
        {
          "internalType": "uint256",
          "name": "_price",
          "type": "uint256"
        },
        {
          "internalType": "string",
          "name": "imgipfshash",
          "type": "string"
        },
        {
          "internalType": "string",
          "name": "fileipfshash",
          "type": "string"
        }
      ],
      "stateMutability": "view",
      "type": "function",
      "constant": true
    }
  ],
  "bytecode": "0x60806040526000805560006001556000600260006101000a81548160ff0219169083151502179055506000600b5534801561003957600080fd5b506152a6806100496000396000f3fe6080604052600436106101815760003560e01c8063846c8dea116100d1578063aca490181161008a578063d5b24d8111610064578063d5b24d81146105e4578063db1970f41461060d578063e0f6ef871461064a578063e8b4194e1461067557610181565b8063aca490181461053f578063cb949e511461057c578063ce9f791d146105b957610181565b8063846c8dea1461041b578063890eba68146104445780639757e8a31461046f5780639abdb0b01461049a578063a0c8c156146104d7578063a6ec73581461050257610181565b806356d88e271161013e5780636ebdac12116101185780636ebdac121461033257806377faa57c1461035b5780637acc0b20146103985780637e6b867f146103dd57610181565b806356d88e27146102b55780635ee95cae146102e05780636dda4f8c1461030957610181565b80630b784d2d1461018657806330ff5948146101af578063336989ae146101f457806338e76a03146102335780634cfc3f311461024f57806350208eee14610278575b600080fd5b34801561019257600080fd5b506101ad60048036038101906101a8919061462f565b6106b7565b005b3480156101bb57600080fd5b506101d660048036038101906101d191906145af565b6111ae565b6040516101eb99989796959493929190614d71565b60405180910390f35b34801561020057600080fd5b5061021b60048036038101906102169190614526565b611473565b60405161022a93929190614b04565b60405180910390f35b61024d60048036038101906102489190614788565b6115b1565b005b34801561025b57600080fd5b5061027660048036038101906102719190614896565b611bc2565b005b34801561028457600080fd5b5061029f600480360381019061029a9190614526565b611c00565b6040516102ac9190614c3f565b60405180910390f35b3480156102c157600080fd5b506102ca611c85565b6040516102d79190614c3f565b60405180910390f35b3480156102ec57600080fd5b5061030760048036038101906103029190614788565b611c8b565b005b34801561031557600080fd5b50610330600480360381019061032b91906147b5565b611d85565b005b34801561033e57600080fd5b5061035960048036038101906103549190614788565b6128ef565b005b34801561036757600080fd5b50610382600480360381019061037d9190614788565b612bcd565b60405161038f9190614c3f565b60405180910390f35b3480156103a457600080fd5b506103bf60048036038101906103ba9190614788565b612bf1565b6040516103d499989796959493929190614d71565b60405180910390f35b3480156103e957600080fd5b5061040460048036038101906103ff9190614788565b612e99565b604051610412929190614bd2565b60405180910390f35b34801561042757600080fd5b50610442600480360381019061043d9190614788565b6133c9565b005b34801561045057600080fd5b506104596134dd565b6040516104669190614bb7565b60405180910390f35b34801561047b57600080fd5b506104846134f0565b6040516104919190614c3f565b60405180910390f35b3480156104a657600080fd5b506104c160048036038101906104bc9190614896565b6134f6565b6040516104ce9190614c3f565b60405180910390f35b3480156104e357600080fd5b506104ec613527565b6040516104f99190614bb7565b60405180910390f35b34801561050e57600080fd5b5061052960048036038101906105249190614896565b61365b565b6040516105369190614bfb565b60405180910390f35b34801561054b57600080fd5b5061056660048036038101906105619190614788565b613714565b6040516105739190614ae9565b60405180910390f35b34801561058857600080fd5b506105a3600480360381019061059e9190614526565b613747565b6040516105b09190614c1d565b60405180910390f35b3480156105c557600080fd5b506105ce6138fe565b6040516105db9190614c3f565b60405180910390f35b3480156105f057600080fd5b5061060b6004803603810190610606919061472c565b613904565b005b34801561061957600080fd5b50610634600480360381019061062f9190614553565b613955565b6040516106419190614bb7565b60405180910390f35b34801561065657600080fd5b5061065f613eaf565b60405161066c9190614c3f565b60405180910390f35b34801561068157600080fd5b5061069c600480360381019061069791906145ef565b613eb5565b6040516106ae96959493929190614c5a565b60405180910390f35b60008651116106c557600080fd5b600084116106d257600080fd5b600060098054905014806107055750600060096000815481106106f8576106f7615184565b5b9060005260206000200154145b15610be35760008081548092919061071c9061507f565b919050555060405180610140016040528060005481526020018781526020018681526020018581526020018481526020018381526020013373ffffffffffffffffffffffffffffffffffffffff168152602001600015158152602001600067ffffffffffffffff811115610793576107926151b3565b5b6040519080825280602002602001820160405280156107c15781602001602082028036833780820191505090505b5081526020018260058111156107da576107d96150f7565b5b8152506003600080548152602001908152602001600020600082015181600001556020820151816001019080519060200190610817929190614230565b506040820151816002019080519060200190610834929190614230565b5060608201518160030155608082015181600401908051906020019061085b929190614230565b5060a0820151816005019080519060200190610878929190614230565b5060c08201518160060160006101000a81548173ffffffffffffffffffffffffffffffffffffffff021916908373ffffffffffffffffffffffffffffffffffffffff16021790555060e08201518160060160146101000a81548160ff0219169083151502179055506101008201518160070190805190602001906108fd9291906142b6565b506101208201518160080160006101000a81548160ff0219169083600581111561092a576109296150f7565b5b0217905550905050600860003373ffffffffffffffffffffffffffffffffffffffff1673ffffffffffffffffffffffffffffffffffffffff16815260200190815260200160002060405180610140016040528060005481526020018881526020018781526020018681526020018581526020018481526020013373ffffffffffffffffffffffffffffffffffffffff168152602001600015158152602001600067ffffffffffffffff8111156109e3576109e26151b3565b5b604051908082528060200260200182016040528015610a115781602001602082028036833780820191505090505b508152602001836005811115610a2a57610a296150f7565b5b8152509080600181540180825580915050600190039060005260206000209060090201600090919091909150600082015181600001556020820151816001019080519060200190610a7c929190614230565b506040820151816002019080519060200190610a99929190614230565b50606082015181600301556080820151816004019080519060200190610ac0929190614230565b5060a0820151816005019080519060200190610add929190614230565b5060c08201518160060160006101000a81548173ffffffffffffffffffffffffffffffffffffffff021916908373ffffffffffffffffffffffffffffffffffffffff16021790555060e08201518160060160146101000a81548160ff021916908315150217905550610100820151816007019080519060200190610b629291906142b6565b506101208201518160080160006101000a81548160ff02191690836005811115610b8f57610b8e6150f7565b5b021790555050507fbb45e05496e643a69bb522fd78ec743fcc4cecc08d892a6685a76f79e29e1eb46000548787878787336000604051610bd6989796959493929190614cd7565b60405180910390a16111a6565b60006009600081548110610bfa57610bf9615184565b5b906000526020600020015490506040518061014001604052806009600081548110610c2857610c27615184565b5b906000526020600020015481526020018881526020018781526020018681526020018581526020018481526020013373ffffffffffffffffffffffffffffffffffffffff168152602001600015158152602001600067ffffffffffffffff811115610c9657610c956151b3565b5b604051908082528060200260200182016040528015610cc45781602001602082028036833780820191505090505b508152602001836005811115610cdd57610cdc6150f7565b5b815250600360006009600081548110610cf957610cf8615184565b5b90600052602060002001548152602001908152602001600020600082015181600001556020820151816001019080519060200190610d38929190614230565b506040820151816002019080519060200190610d55929190614230565b50606082015181600301556080820151816004019080519060200190610d7c929190614230565b5060a0820151816005019080519060200190610d99929190614230565b5060c08201518160060160006101000a81548173ffffffffffffffffffffffffffffffffffffffff021916908373ffffffffffffffffffffffffffffffffffffffff16021790555060e08201518160060160146101000a81548160ff021916908315150217905550610100820151816007019080519060200190610e1e9291906142b6565b506101208201518160080160006101000a81548160ff02191690836005811115610e4b57610e4a6150f7565b5b0217905550905050600980549050600a8190555060005b6001600980549050610e749190614f2c565b811015610edb576009600182610e8a9190614ed6565b81548110610e9b57610e9a615184565b5b906000526020600020015460098281548110610eba57610eb9615184565b5b90600052602060002001819055508080610ed39061507f565b915050610e62565b506009805480610eee57610eed615155565b5b600190038181906000526020600020016000905590556040518061014001604052808281526020018881526020018781526020018681526020018581526020018481526020013373ffffffffffffffffffffffffffffffffffffffff168152602001600015158152602001600067ffffffffffffffff811115610f7457610f736151b3565b5b604051908082528060200260200182016040528015610fa25781602001602082028036833780820191505090505b508152602001836005811115610fbb57610fba6150f7565b5b815250600860003373ffffffffffffffffffffffffffffffffffffffff1673ffffffffffffffffffffffffffffffffffffffff168152602001908152602001600020828154811061100f5761100e615184565b5b9060005260206000209060090201600082015181600001556020820151816001019080519060200190611043929190614230565b506040820151816002019080519060200190611060929190614230565b50606082015181600301556080820151816004019080519060200190611087929190614230565b5060a08201518160050190805190602001906110a4929190614230565b5060c08201518160060160006101000a81548173ffffffffffffffffffffffffffffffffffffffff021916908373ffffffffffffffffffffffffffffffffffffffff16021790555060e08201518160060160146101000a81548160ff0219169083151502179055506101008201518160070190805190602001906111299291906142b6565b506101208201518160080160006101000a81548160ff02191690836005811115611156576111556150f7565b5b02179055509050507fbb45e05496e643a69bb522fd78ec743fcc4cecc08d892a6685a76f79e29e1eb481888888888833600060405161119c989796959493929190614cd7565b60405180910390a1505b505050505050565b600860205281600052604060002081815481106111ca57600080fd5b9060005260206000209060090201600091509150508060000154908060010180546111f49061501c565b80601f01602080910402602001604051908101604052809291908181526020018280546112209061501c565b801561126d5780601f106112425761010080835404028352916020019161126d565b820191906000526020600020905b81548152906001019060200180831161125057829003601f168201915b5050505050908060020180546112829061501c565b80601f01602080910402602001604051908101604052809291908181526020018280546112ae9061501c565b80156112fb5780601f106112d0576101008083540402835291602001916112fb565b820191906000526020600020905b8154815290600101906020018083116112de57829003601f168201915b5050505050908060030154908060040180546113169061501c565b80601f01602080910402602001604051908101604052809291908181526020018280546113429061501c565b801561138f5780601f106113645761010080835404028352916020019161138f565b820191906000526020600020905b81548152906001019060200180831161137257829003601f168201915b5050505050908060050180546113a49061501c565b80601f01602080910402602001604051908101604052809291908181526020018280546113d09061501c565b801561141d5780601f106113f25761010080835404028352916020019161141d565b820191906000526020600020905b81548152906001019060200180831161140057829003601f168201915b5050505050908060060160009054906101000a900473ffffffffffffffffffffffffffffffffffffffff16908060060160149054906101000a900460ff16908060080160009054906101000a900460ff16905089565b60066020528060005260406000206000915090508060000160009054906101000a900473ffffffffffffffffffffffffffffffffffffffff16908060010180546114bc9061501c565b80601f01602080910402602001604051908101604052809291908181526020018280546114e89061501c565b80156115355780601f1061150a57610100808354040283529160200191611535565b820191906000526020600020905b81548152906001019060200180831161151857829003601f168201915b505050505090806002016040518060400160405290816000820180548060200260200160405190810160405280929190818152602001828054801561159957602002820191906000526020600020905b815481526020019060010190808311611585575b50505050508152602001600182015481525050905083565b60006003600083815260200190815260200160002060405180610140016040529081600082015481526020016001820180546115ec9061501c565b80601f01602080910402602001604051908101604052809291908181526020018280546116189061501c565b80156116655780601f1061163a57610100808354040283529160200191611665565b820191906000526020600020905b81548152906001019060200180831161164857829003601f168201915b5050505050815260200160028201805461167e9061501c565b80601f01602080910402602001604051908101604052809291908181526020018280546116aa9061501c565b80156116f75780601f106116cc576101008083540402835291602001916116f7565b820191906000526020600020905b8154815290600101906020018083116116da57829003601f168201915b505050505081526020016003820154815260200160048201805461171a9061501c565b80601f01602080910402602001604051908101604052809291908181526020018280546117469061501c565b80156117935780601f1061176857610100808354040283529160200191611793565b820191906000526020600020905b81548152906001019060200180831161177657829003601f168201915b505050505081526020016005820180546117ac9061501c565b80601f01602080910402602001604051908101604052809291908181526020018280546117d89061501c565b80156118255780601f106117fa57610100808354040283529160200191611825565b820191906000526020600020905b81548152906001019060200180831161180857829003601f168201915b505050505081526020016006820160009054906101000a900473ffffffffffffffffffffffffffffffffffffffff1673ffffffffffffffffffffffffffffffffffffffff1673ffffffffffffffffffffffffffffffffffffffff1681526020016006820160149054906101000a900460ff161515151581526020016007820180548060200260200160405190810160405280929190818152602001828054801561192457602002820191906000526020600020905b8160009054906101000a900473ffffffffffffffffffffffffffffffffffffffff1673ffffffffffffffffffffffffffffffffffffffff16815260200190600101908083116118da575b505050505081526020016008820160009054906101000a900460ff166005811115611952576119516150f7565b5b6005811115611964576119636150f7565b5b81525050905060008160c001519050338260c0019073ffffffffffffffffffffffffffffffffffffffff16908173ffffffffffffffffffffffffffffffffffffffff168152505060018260e001901515908115158152505081600360008581526020019081526020016000206000820151816000015560208201518160010190805190602001906119f6929190614230565b506040820151816002019080519060200190611a13929190614230565b50606082015181600301556080820151816004019080519060200190611a3a929190614230565b5060a0820151816005019080519060200190611a57929190614230565b5060c08201518160060160006101000a81548173ffffffffffffffffffffffffffffffffffffffff021916908373ffffffffffffffffffffffffffffffffffffffff16021790555060e08201518160060160146101000a81548160ff021916908315150217905550610100820151816007019080519060200190611adc9291906142b6565b506101208201518160080160006101000a81548160ff02191690836005811115611b0957611b086150f7565b5b02179055509050508073ffffffffffffffffffffffffffffffffffffffff166108fc349081150290604051600060405180830381858888f19350505050158015611b57573d6000803e3d6000fd5b50611b61836133c9565b7f5d3e174cea83fc7a15e7c910d86c8dceb0129bfdabceb14a6e43e0d4ccbfdb4a60005483602001518460400151856060015186608001518760a00151336001604051611bb5989796959493929190614cd7565b60405180910390a1505050565b600460008281526020019081526020016000208290806001815401808255809150506001900390600052602060002001600090919091909150555050565b60008073ffffffffffffffffffffffffffffffffffffffff168273ffffffffffffffffffffffffffffffffffffffff161415611c3b57600080fd5b600860008373ffffffffffffffffffffffffffffffffffffffff1673ffffffffffffffffffffffffffffffffffffffff168152602001908152602001600020805490509050919050565b600a5481565b611c94816133c9565b60036000828152602001908152602001600020600080820160009055600182016000611cc09190614340565b600282016000611cd09190614340565b6003820160009055600482016000611ce89190614340565b600582016000611cf89190614340565b6006820160006101000a81549073ffffffffffffffffffffffffffffffffffffffff02191690556006820160146101000a81549060ff0219169055600782016000611d439190614380565b6008820160006101000a81549060ff02191690555050600981908060018154018082558091505060019003906000526020600020016000909190919091505550565b6000600360008881526020019081526020016000206040518061014001604052908160008201548152602001600182018054611dc09061501c565b80601f0160208091040260200160405190810160405280929190818152602001828054611dec9061501c565b8015611e395780601f10611e0e57610100808354040283529160200191611e39565b820191906000526020600020905b815481529060010190602001808311611e1c57829003601f168201915b50505050508152602001600282018054611e529061501c565b80601f0160208091040260200160405190810160405280929190818152602001828054611e7e9061501c565b8015611ecb5780601f10611ea057610100808354040283529160200191611ecb565b820191906000526020600020905b815481529060010190602001808311611eae57829003601f168201915b5050505050815260200160038201548152602001600482018054611eee9061501c565b80601f0160208091040260200160405190810160405280929190818152602001828054611f1a9061501c565b8015611f675780601f10611f3c57610100808354040283529160200191611f67565b820191906000526020600020905b815481529060010190602001808311611f4a57829003601f168201915b50505050508152602001600582018054611f809061501c565b80601f0160208091040260200160405190810160405280929190818152602001828054611fac9061501c565b8015611ff95780601f10611fce57610100808354040283529160200191611ff9565b820191906000526020600020905b815481529060010190602001808311611fdc57829003601f168201915b505050505081526020016006820160009054906101000a900473ffffffffffffffffffffffffffffffffffffffff1673ffffffffffffffffffffffffffffffffffffffff1673ffffffffffffffffffffffffffffffffffffffff1681526020016006820160149054906101000a900460ff16151515158152602001600782018054806020026020016040519081016040528092919081815260200182805480156120f857602002820191906000526020600020905b8160009054906101000a900473ffffffffffffffffffffffffffffffffffffffff1673ffffffffffffffffffffffffffffffffffffffff16815260200190600101908083116120ae575b505050505081526020016008820160009054906101000a900460ff166005811115612126576121256150f7565b5b6005811115612138576121376150f7565b5b8152505090508581602001819052508481604001819052508381606001818152505082816080018190525081816101200190600581111561217c5761217b6150f7565b5b908160058111156121905761218f6150f7565b5b8152505080600360008981526020019081526020016000206000820151816000015560208201518160010190805190602001906121ce929190614230565b5060408201518160020190805190602001906121eb929190614230565b50606082015181600301556080820151816004019080519060200190612212929190614230565b5060a082015181600501908051906020019061222f929190614230565b5060c08201518160060160006101000a81548173ffffffffffffffffffffffffffffffffffffffff021916908373ffffffffffffffffffffffffffffffffffffffff16021790555060e08201518160060160146101000a81548160ff0219169083151502179055506101008201518160070190805190602001906122b49291906142b6565b506101208201518160080160006101000a81548160ff021916908360058111156122e1576122e06150f7565b5b02179055509050506000600860003373ffffffffffffffffffffffffffffffffffffffff1673ffffffffffffffffffffffffffffffffffffffff168152602001908152602001600020888154811061233c5761233b615184565b5b906000526020600020906009020160405180610140016040529081600082015481526020016001820180546123709061501c565b80601f016020809104026020016040519081016040528092919081815260200182805461239c9061501c565b80156123e95780601f106123be576101008083540402835291602001916123e9565b820191906000526020600020905b8154815290600101906020018083116123cc57829003601f168201915b505050505081526020016002820180546124029061501c565b80601f016020809104026020016040519081016040528092919081815260200182805461242e9061501c565b801561247b5780601f106124505761010080835404028352916020019161247b565b820191906000526020600020905b81548152906001019060200180831161245e57829003601f168201915b505050505081526020016003820154815260200160048201805461249e9061501c565b80601f01602080910402602001604051908101604052809291908181526020018280546124ca9061501c565b80156125175780601f106124ec57610100808354040283529160200191612517565b820191906000526020600020905b8154815290600101906020018083116124fa57829003601f168201915b505050505081526020016005820180546125309061501c565b80601f016020809104026020016040519081016040528092919081815260200182805461255c9061501c565b80156125a95780601f1061257e576101008083540402835291602001916125a9565b820191906000526020600020905b81548152906001019060200180831161258c57829003601f168201915b505050505081526020016006820160009054906101000a900473ffffffffffffffffffffffffffffffffffffffff1673ffffffffffffffffffffffffffffffffffffffff1673ffffffffffffffffffffffffffffffffffffffff1681526020016006820160149054906101000a900460ff16151515158152602001600782018054806020026020016040519081016040528092919081815260200182805480156126a857602002820191906000526020600020905b8160009054906101000a900473ffffffffffffffffffffffffffffffffffffffff1673ffffffffffffffffffffffffffffffffffffffff168152602001906001019080831161265e575b505050505081526020016008820160009054906101000a900460ff1660058111156126d6576126d56150f7565b5b60058111156126e8576126e76150f7565b5b8152505090508681602001819052508581604001819052508481606001818152505083816080018190525082816101200190600581111561272c5761272b6150f7565b5b908160058111156127405761273f6150f7565b5b8152505080600860003373ffffffffffffffffffffffffffffffffffffffff1673ffffffffffffffffffffffffffffffffffffffff168152602001908152602001600020898154811061279657612795615184565b5b90600052602060002090600902016000820151816000015560208201518160010190805190602001906127ca929190614230565b5060408201518160020190805190602001906127e7929190614230565b5060608201518160030155608082015181600401908051906020019061280e929190614230565b5060a082015181600501908051906020019061282b929190614230565b5060c08201518160060160006101000a81548173ffffffffffffffffffffffffffffffffffffffff021916908373ffffffffffffffffffffffffffffffffffffffff16021790555060e08201518160060160146101000a81548160ff0219169083151502179055506101008201518160070190805190602001906128b09291906142b6565b506101208201518160080160006101000a81548160ff021916908360058111156128dd576128dc6150f7565b5b02179055509050505050505050505050565b60006001600660003373ffffffffffffffffffffffffffffffffffffffff1673ffffffffffffffffffffffffffffffffffffffff168152602001908152602001600020600201600001805490506129469190614f2c565b67ffffffffffffffff81111561295f5761295e6151b3565b5b60405190808252806020026020018201604052801561298d5781602001602082028036833780820191505090505b5090506000600660003373ffffffffffffffffffffffffffffffffffffffff1673ffffffffffffffffffffffffffffffffffffffff168152602001908152602001600020600201600001805480602002602001604051908101604052809291908181526020018280548015612a2157602002820191906000526020600020905b815481526020019060010190808311612a0d575b5050505050905060005b8151811015612b6d57838114612a7a57818181518110612a4e57612a4d615184565b5b6020026020010151838281518110612a6957612a68615184565b5b602002602001018181525050612b5a565b60036000838381518110612a9157612a90615184565b5b6020026020010151815260200190815260200160002060030154600660003373ffffffffffffffffffffffffffffffffffffffff1673ffffffffffffffffffffffffffffffffffffffff1681526020019081526020016000206002016001016000828254612aff9190614f2c565b925050819055507fa623e239783d1923197e89ebc14226d544e0c6a48928ebfd977de627b61766bf33838381518110612b3b57612b3a615184565b5b6020026020010151604051612b51929190614b49565b60405180910390a15b8080612b659061507f565b915050612a2b565b5081600660003373ffffffffffffffffffffffffffffffffffffffff1673ffffffffffffffffffffffffffffffffffffffff1681526020019081526020016000206002016000019080519060200190612bc79291906143a1565b50505050565b60098181548110612bdd57600080fd5b906000526020600020016000915090505481565b6003602052806000526040600020600091509050806000015490806001018054612c1a9061501c565b80601f0160208091040260200160405190810160405280929190818152602001828054612c469061501c565b8015612c935780601f10612c6857610100808354040283529160200191612c93565b820191906000526020600020905b815481529060010190602001808311612c7657829003601f168201915b505050505090806002018054612ca89061501c565b80601f0160208091040260200160405190810160405280929190818152602001828054612cd49061501c565b8015612d215780601f10612cf657610100808354040283529160200191612d21565b820191906000526020600020905b815481529060010190602001808311612d0457829003601f168201915b505050505090806003015490806004018054612d3c9061501c565b80601f0160208091040260200160405190810160405280929190818152602001828054612d689061501c565b8015612db55780601f10612d8a57610100808354040283529160200191612db5565b820191906000526020600020905b815481529060010190602001808311612d9857829003601f168201915b505050505090806005018054612dca9061501c565b80601f0160208091040260200160405190810160405280929190818152602001828054612df69061501c565b8015612e435780601f10612e1857610100808354040283529160200191612e43565b820191906000526020600020905b815481529060010190602001808311612e2657829003601f168201915b5050505050908060060160009054906101000a900473ffffffffffffffffffffffffffffffffffffffff16908060060160149054906101000a900460ff16908060080160009054906101000a900460ff16905089565b6000806000600660003373ffffffffffffffffffffffffffffffffffffffff1673ffffffffffffffffffffffffffffffffffffffff16815260200190815260200160002090506000600360008681526020019081526020016000206040518061014001604052908160008201548152602001600182018054612f1a9061501c565b80601f0160208091040260200160405190810160405280929190818152602001828054612f469061501c565b8015612f935780601f10612f6857610100808354040283529160200191612f93565b820191906000526020600020905b815481529060010190602001808311612f7657829003601f168201915b50505050508152602001600282018054612fac9061501c565b80601f0160208091040260200160405190810160405280929190818152602001828054612fd89061501c565b80156130255780601f10612ffa57610100808354040283529160200191613025565b820191906000526020600020905b81548152906001019060200180831161300857829003601f168201915b50505050508152602001600382015481526020016004820180546130489061501c565b80601f01602080910402602001604051908101604052809291908181526020018280546130749061501c565b80156130c15780601f10613096576101008083540402835291602001916130c1565b820191906000526020600020905b8154815290600101906020018083116130a457829003601f168201915b505050505081526020016005820180546130da9061501c565b80601f01602080910402602001604051908101604052809291908181526020018280546131069061501c565b80156131535780601f1061312857610100808354040283529160200191613153565b820191906000526020600020905b81548152906001019060200180831161313657829003601f168201915b505050505081526020016006820160009054906101000a900473ffffffffffffffffffffffffffffffffffffffff1673ffffffffffffffffffffffffffffffffffffffff1673ffffffffffffffffffffffffffffffffffffffff1681526020016006820160149054906101000a900460ff161515151581526020016007820180548060200260200160405190810160405280929190818152602001828054801561325257602002820191906000526020600020905b8160009054906101000a900473ffffffffffffffffffffffffffffffffffffffff1673ffffffffffffffffffffffffffffffffffffffff1681526020019060010190808311613208575b505050505081526020016008820160009054906101000a900460ff1660058111156132805761327f6150f7565b5b6005811115613292576132916150f7565b5b81525050905060008260020160000180549050905082600201600001826000015190806001815401808255809150506001900390600052602060002001600090919091909150556000836002016001015490508260600151816132f59190614ed6565b8460020160010181905550818460020160000180549050111561337f577f1e862ddcab5a3222c811c44ecc1c4a46d3da57dde0e884ad6e7e070a8ece23773388856060015187600201600101546040516133529493929190614b72565b60405180910390a160018085600201600001805490506133729190614f2c565b95509550505050506133c4565b7f5f187c44b1528b1d93b313a10cf6038ff514e59499f6790e1e2da2f7d1cfdd3033886040516133b0929190614b49565b60405180910390a160008095509550505050505b915091565b600860003373ffffffffffffffffffffffffffffffffffffffff1673ffffffffffffffffffffffffffffffffffffffff168152602001908152602001600020818154811061341a57613419615184565b5b90600052602060002090600902016000808201600090556001820160006134419190614340565b6002820160006134519190614340565b60038201600090556004820160006134699190614340565b6005820160006134799190614340565b6006820160006101000a81549073ffffffffffffffffffffffffffffffffffffffff02191690556006820160146101000a81549060ff02191690556007820160006134c49190614380565b6008820160006101000a81549060ff0219169055505050565b600260009054906101000a900460ff1681565b60015481565b6004602052816000526040600020818154811061351257600080fd5b90600052602060002001600091509150505481565b600080600660003373ffffffffffffffffffffffffffffffffffffffff1673ffffffffffffffffffffffffffffffffffffffff16815260200190815260200160002090506040518060400160405280600067ffffffffffffffff811115613591576135906151b3565b5b6040519080825280602002602001820160405280156135bf5781602001602082028036833780820191505090505b50815260200160008152508160020160008201518160000190805190602001906135ea9291906143a1565b50602082015181600101559050507f69dad80af5bbf467deb57c60ff8e39e3aacc707b1aa1c5b240aab4982f946fee8160000160009054906101000a900473ffffffffffffffffffffffffffffffffffffffff1660405161364b9190614ae9565b60405180910390a1600191505090565b6005602052816000526040600020818154811061367757600080fd5b906000526020600020016000915091505080546136939061501c565b80601f01602080910402602001604051908101604052809291908181526020018280546136bf9061501c565b801561370c5780601f106136e15761010080835404028352916020019161370c565b820191906000526020600020905b8154815290600101906020018083116136ef57829003601f168201915b505050505081565b60076020528060005260406000206000915054906101000a900473ffffffffffffffffffffffffffffffffffffffff1681565b61374f6143ee565b600660008373ffffffffffffffffffffffffffffffffffffffff1673ffffffffffffffffffffffffffffffffffffffff1681526020019081526020016000206040518060600160405290816000820160009054906101000a900473ffffffffffffffffffffffffffffffffffffffff1673ffffffffffffffffffffffffffffffffffffffff1673ffffffffffffffffffffffffffffffffffffffff1681526020016001820180546137ff9061501c565b80601f016020809104026020016040519081016040528092919081815260200182805461382b9061501c565b80156138785780601f1061384d57610100808354040283529160200191613878565b820191906000526020600020905b81548152906001019060200180831161385b57829003601f168201915b5050505050815260200160028201604051806040016040529081600082018054806020026020016040519081016040528092919081815260200182805480156138e057602002820191906000526020600020905b8154815260200190600101908083116138cc575b50505050508152602001600182015481525050815250509050919050565b600b5481565b6005600082815260200190815260200160002082908060018154018082558091505060019003906000526020600020016000909190919091509080519060200190613950929190614230565b505050565b6000600860003373ffffffffffffffffffffffffffffffffffffffff1673ffffffffffffffffffffffffffffffffffffffff168152602001908152602001600020604051806101400160405280600081526020016040518060400160405280600581526020017f64756d6d7900000000000000000000000000000000000000000000000000000081525081526020016040518060400160405280600581526020017f64756d6d790000000000000000000000000000000000000000000000000000008152508152602001600081526020016040518060400160405280600581526020017f64756d6d7900000000000000000000000000000000000000000000000000000081525081526020016040518060400160405280600581526020017f64756d6d790000000000000000000000000000000000000000000000000000008152508152602001600073ffffffffffffffffffffffffffffffffffffffff168152602001600015158152602001600067ffffffffffffffff811115613add57613adc6151b3565b5b604051908082528060200260200182016040528015613b0b5781602001602082028036833780820191505090505b50815260200160006005811115613b2557613b246150f7565b5b8152509080600181540180825580915050600190039060005260206000209060090201600090919091909150600082015181600001556020820151816001019080519060200190613b77929190614230565b506040820151816002019080519060200190613b94929190614230565b50606082015181600301556080820151816004019080519060200190613bbb929190614230565b5060a0820151816005019080519060200190613bd8929190614230565b5060c08201518160060160006101000a81548173ffffffffffffffffffffffffffffffffffffffff021916908373ffffffffffffffffffffffffffffffffffffffff16021790555060e08201518160060160146101000a81548160ff021916908315150217905550610100820151816007019080519060200190613c5d9291906142b6565b506101208201518160080160006101000a81548160ff02191690836005811115613c8a57613c896150f7565b5b02179055505050600060405180606001604052808573ffffffffffffffffffffffffffffffffffffffff1681526020018481526020016040518060400160405280600067ffffffffffffffff811115613ce657613ce56151b3565b5b604051908082528060200260200182016040528015613d145781602001602082028036833780820191505090505b5081526020016000815250815250905060016000815480929190613d379061507f565b9190505550806000015160076000600154815260200190815260200160002060006101000a81548173ffffffffffffffffffffffffffffffffffffffff021916908373ffffffffffffffffffffffffffffffffffffffff16021790555080600660008673ffffffffffffffffffffffffffffffffffffffff1673ffffffffffffffffffffffffffffffffffffffff16815260200190815260200160002060008201518160000160006101000a81548173ffffffffffffffffffffffffffffffffffffffff021916908373ffffffffffffffffffffffffffffffffffffffff1602179055506020820151816001019080519060200190613e37929190614230565b506040820151816002016000820151816000019080519060200190613e5d9291906143a1565b506020820151816001015550509050507f155e8619f4d23b96769599cb9af87da3e06a360082869c18578011da9a06e67084604051613e9c9190614ae9565b60405180910390a1600191505092915050565b60005481565b60006060806000606080600073ffffffffffffffffffffffffffffffffffffffff168873ffffffffffffffffffffffffffffffffffffffff161415613ef957600080fd5b60008760ff1610158015613f11575060ff8760ff1611155b613f1a57600080fd5b6000600860008a73ffffffffffffffffffffffffffffffffffffffff1673ffffffffffffffffffffffffffffffffffffffff1681526020019081526020016000208054905011613f6957600080fd5b6000600860008a73ffffffffffffffffffffffffffffffffffffffff1673ffffffffffffffffffffffffffffffffffffffff1681526020019081526020016000208860ff1681548110613fbf57613fbe615184565b5b906000526020600020906009020190508060000154816001018260020183600301548460040185600501848054613ff59061501c565b80601f01602080910402602001604051908101604052809291908181526020018280546140219061501c565b801561406e5780601f106140435761010080835404028352916020019161406e565b820191906000526020600020905b81548152906001019060200180831161405157829003601f168201915b505050505094508380546140819061501c565b80601f01602080910402602001604051908101604052809291908181526020018280546140ad9061501c565b80156140fa5780601f106140cf576101008083540402835291602001916140fa565b820191906000526020600020905b8154815290600101906020018083116140dd57829003601f168201915b5050505050935081805461410d9061501c565b80601f01602080910402602001604051908101604052809291908181526020018280546141399061501c565b80156141865780601f1061415b57610100808354040283529160200191614186565b820191906000526020600020905b81548152906001019060200180831161416957829003601f168201915b505050505091508080546141999061501c565b80601f01602080910402602001604051908101604052809291908181526020018280546141c59061501c565b80156142125780601f106141e757610100808354040283529160200191614212565b820191906000526020600020905b8154815290600101906020018083116141f557829003601f168201915b50505050509050965096509650965096509650509295509295509295565b82805461423c9061501c565b90600052602060002090601f01602090048101928261425e57600085556142a5565b82601f1061427757805160ff19168380011785556142a5565b828001600101855582156142a5579182015b828111156142a4578251825591602001919060010190614289565b5b5090506142b2919061442b565b5090565b82805482825590600052602060002090810192821561432f579160200282015b8281111561432e5782518260006101000a81548173ffffffffffffffffffffffffffffffffffffffff021916908373ffffffffffffffffffffffffffffffffffffffff160217905550916020019190600101906142d6565b5b50905061433c919061442b565b5090565b50805461434c9061501c565b6000825580601f1061435e575061437d565b601f01602090049060005260206000209081019061437c919061442b565b5b50565b508054600082559060005260206000209081019061439e919061442b565b50565b8280548282559060005260206000209081019282156143dd579160200282015b828111156143dc5782518255916020019190600101906143c1565b5b5090506143ea919061442b565b5090565b6040518060600160405280600073ffffffffffffffffffffffffffffffffffffffff16815260200160608152602001614425614448565b81525090565b5b8082111561444457600081600090555060010161442c565b5090565b604051806040016040528060608152602001600081525090565b600061447561447084614e3f565b614e1a565b905082815260208101848484011115614491576144906151e7565b5b61449c848285614fda565b509392505050565b6000813590506144b38161521b565b92915050565b6000813590506144c881615232565b92915050565b600082601f8301126144e3576144e26151e2565b5b81356144f3848260208601614462565b91505092915050565b60008135905061450b81615242565b92915050565b60008135905061452081615259565b92915050565b60006020828403121561453c5761453b6151f1565b5b600061454a848285016144a4565b91505092915050565b6000806040838503121561456a576145696151f1565b5b6000614578858286016144a4565b925050602083013567ffffffffffffffff811115614599576145986151ec565b5b6145a5858286016144ce565b9150509250929050565b600080604083850312156145c6576145c56151f1565b5b60006145d4858286016144a4565b92505060206145e5858286016144fc565b9150509250929050565b60008060408385031215614606576146056151f1565b5b6000614614858286016144a4565b925050602061462585828601614511565b9150509250929050565b60008060008060008060c0878903121561464c5761464b6151f1565b5b600087013567ffffffffffffffff81111561466a576146696151ec565b5b61467689828a016144ce565b965050602087013567ffffffffffffffff811115614697576146966151ec565b5b6146a389828a016144ce565b95505060406146b489828a016144fc565b945050606087013567ffffffffffffffff8111156146d5576146d46151ec565b5b6146e189828a016144ce565b935050608087013567ffffffffffffffff811115614702576147016151ec565b5b61470e89828a016144ce565b92505060a061471f89828a016144b9565b9150509295509295509295565b60008060408385031215614743576147426151f1565b5b600083013567ffffffffffffffff811115614761576147606151ec565b5b61476d858286016144ce565b925050602061477e858286016144fc565b9150509250929050565b60006020828403121561479e5761479d6151f1565b5b60006147ac848285016144fc565b91505092915050565b60008060008060008060c087890312156147d2576147d16151f1565b5b60006147e089828a016144fc565b965050602087013567ffffffffffffffff811115614801576148006151ec565b5b61480d89828a016144ce565b955050604087013567ffffffffffffffff81111561482e5761482d6151ec565b5b61483a89828a016144ce565b945050606061484b89828a016144fc565b935050608087013567ffffffffffffffff81111561486c5761486b6151ec565b5b61487889828a016144ce565b92505060a061488989828a016144b9565b9150509295509295509295565b600080604083850312156148ad576148ac6151f1565b5b60006148bb858286016144fc565b92505060206148cc858286016144fc565b9150509250929050565b60006148e28383614acb565b60208301905092915050565b6148f781614f60565b82525050565b61490681614f60565b82525050565b600061491782614e80565b6149218185614ea3565b935061492c83614e70565b8060005b8381101561495d57815161494488826148d6565b975061494f83614e96565b925050600181019050614930565b5085935050505092915050565b61497381614f72565b82525050565b61498281614fc8565b82525050565b600061499382614e8b565b61499d8185614eb4565b93506149ad818560208601614fe9565b6149b6816151f6565b840191505092915050565b60006149cc82614e8b565b6149d68185614ec5565b93506149e6818560208601614fe9565b6149ef816151f6565b840191505092915050565b60006040830160008301518482036000860152614a17828261490c565b9150506020830151614a2c6020860182614acb565b508091505092915050565b60006040830160008301518482036000860152614a54828261490c565b9150506020830151614a696020860182614acb565b508091505092915050565b6000606083016000830151614a8c60008601826148ee565b5060208301518482036020860152614aa48282614988565b91505060408301518482036040860152614abe82826149fa565b9150508091505092915050565b614ad481614fb1565b82525050565b614ae381614fb1565b82525050565b6000602082019050614afe60008301846148fd565b92915050565b6000606082019050614b1960008301866148fd565b8181036020830152614b2b81856149c1565b90508181036040830152614b3f8184614a37565b9050949350505050565b6000604082019050614b5e60008301856148fd565b614b6b6020830184614ada565b9392505050565b6000608082019050614b8760008301876148fd565b614b946020830186614ada565b614ba16040830185614ada565b614bae6060830184614ada565b95945050505050565b6000602082019050614bcc600083018461496a565b92915050565b6000604082019050614be7600083018561496a565b614bf46020830184614ada565b9392505050565b60006020820190508181036000830152614c1581846149c1565b905092915050565b60006020820190508181036000830152614c378184614a74565b905092915050565b6000602082019050614c546000830184614ada565b92915050565b600060c082019050614c6f6000830189614ada565b8181036020830152614c8181886149c1565b90508181036040830152614c9581876149c1565b9050614ca46060830186614ada565b8181036080830152614cb681856149c1565b905081810360a0830152614cca81846149c1565b9050979650505050505050565b600061010082019050614ced600083018b614ada565b8181036020830152614cff818a6149c1565b90508181036040830152614d1381896149c1565b9050614d226060830188614ada565b8181036080830152614d3481876149c1565b905081810360a0830152614d4881866149c1565b9050614d5760c08301856148fd565b614d6460e083018461496a565b9998505050505050505050565b600061012082019050614d87600083018c614ada565b8181036020830152614d99818b6149c1565b90508181036040830152614dad818a6149c1565b9050614dbc6060830189614ada565b8181036080830152614dce81886149c1565b905081810360a0830152614de281876149c1565b9050614df160c08301866148fd565b614dfe60e083018561496a565b614e0c610100830184614979565b9a9950505050505050505050565b6000614e24614e35565b9050614e30828261504e565b919050565b6000604051905090565b600067ffffffffffffffff821115614e5a57614e596151b3565b5b614e63826151f6565b9050602081019050919050565b6000819050602082019050919050565b600081519050919050565b600081519050919050565b6000602082019050919050565b600082825260208201905092915050565b600082825260208201905092915050565b600082825260208201905092915050565b6000614ee182614fb1565b9150614eec83614fb1565b9250827fffffffffffffffffffffffffffffffffffffffffffffffffffffffffffffffff03821115614f2157614f206150c8565b5b828201905092915050565b6000614f3782614fb1565b9150614f4283614fb1565b925082821015614f5557614f546150c8565b5b828203905092915050565b6000614f6b82614f91565b9050919050565b60008115159050919050565b6000819050614f8c82615207565b919050565b600073ffffffffffffffffffffffffffffffffffffffff82169050919050565b6000819050919050565b600060ff82169050919050565b6000614fd382614f7e565b9050919050565b82818337600083830152505050565b60005b83811015615007578082015181840152602081019050614fec565b83811115615016576000848401525b50505050565b6000600282049050600182168061503457607f821691505b6020821081141561504857615047615126565b5b50919050565b615057826151f6565b810181811067ffffffffffffffff82111715615076576150756151b3565b5b80604052505050565b600061508a82614fb1565b91507fffffffffffffffffffffffffffffffffffffffffffffffffffffffffffffffff8214156150bd576150bc6150c8565b5b600182019050919050565b7f4e487b7100000000000000000000000000000000000000000000000000000000600052601160045260246000fd5b7f4e487b7100000000000000000000000000000000000000000000000000000000600052602160045260246000fd5b7f4e487b7100000000000000000000000000000000000000000000000000000000600052602260045260246000fd5b7f4e487b7100000000000000000000000000000000000000000000000000000000600052603160045260246000fd5b7f4e487b7100000000000000000000000000000000000000000000000000000000600052603260045260246000fd5b7f4e487b7100000000000000000000000000000000000000000000000000000000600052604160045260246000fd5b600080fd5b600080fd5b600080fd5b600080fd5b6000601f19601f8301169050919050565b60068110615218576152176150f7565b5b50565b61522481614f60565b811461522f57600080fd5b50565b6006811061523f57600080fd5b50565b61524b81614fb1565b811461525657600080fd5b50565b61526281614fbb565b811461526d57600080fd5b5056fea2646970667358221220bcf4b31dcce2fc319ccfbe7bc090ab961326b37c3ee6c184f54287dd39bad03464736f6c63430008070033",
  "immutableReferences": {},
  "source": "// if purchased w bdi 27zfa\r\n// SPDX-License-Identifier: MIT\r\npragma solidity  ^0.8.0;\r\n\r\ncontract Marketplace {\r\n    //string public name;\r\n    uint public productCount = 0;\r\n    uint public customerCount = 0;\r\n    //to store the products on blockchain\r\n    bool public flag = false;\r\n    mapping(uint => Product) public products;\r\n    mapping(uint => uint[]) public productsRates;\r\n    mapping(uint => string[]) public productsReviews;\r\n    //to store the customers on blockchain\r\n    mapping(address  => Customer) public customers;\r\n    mapping(uint => address) public addressLUT;\r\n    // Maps owner to their images\r\n    mapping (address => Product[]) public ownerToProducts;\r\n    uint[] public emptySpaces;\r\n    uint public len; \r\n    uint public ftt = 0;\r\n    enum Categories {\r\n        Tech,\r\n        Books,\r\n        AudioBooks,\r\n        image,\r\n        video,\r\n        file\r\n    }\r\n    struct Customer {\r\n        address adr;\r\n        string name;\r\n        Cart cart;\r\n        \r\n    }\r\n\r\n    struct Cart {\r\n      uint256[] products;\r\n      uint256 completeSum;\r\n    }\r\n\r\n    struct Product {\r\n        uint id;\r\n        string name;\r\n        string description;\r\n        uint price;\r\n        string imgipfshash;\r\n        string fileipfshash;\r\n        address owner;\r\n        bool purchased;\r\n        address[] owners;\r\n        //bytes32 uploadedOn;\r\n        Categories categorie;\r\n    }\r\n\r\n    event ProductCreated(uint id, string name, string description, uint price, string imgipfshash, string fileipfshash, address owner, bool purchased);\r\n    event ProductPurchased(uint id, string name, string description, uint price, string imgipfshash, string fileipfshash, address owner, bool purchased);\r\n    event CustomerRegistered(address customer);\r\n    event CustomerRegistrationFailed(address customer);\r\n    event CartProductInserted(address customer, uint256 prodId, uint256 prodPrice, uint256 completeSum);\r\n    event CartProductInsertionFailed(address customer, uint256 prodId);\r\n    event CartProductRemoved(address customer, uint256 prodId);\r\n    event CartEmptied(address customer);\r\n\r\n    // Create a new product with a struct\r\n    // Add the struct to the mapping, and store it on the blockchain\r\n    // Trigger an event that lets someone know a product was creatd\r\n    function createProduct(string memory _name,string memory _description, uint _price,string memory _imgipfshash,string memory _fileipfshash , Categories _categorie ) public {\r\n        // Require a valid name\r\n        require(bytes(_name).length > 0);\r\n        // Require a valid description\r\n        //require(bytes(_description).length > 0);\r\n        // Require a valid price\r\n        require(_price > 0);\r\n        // Require a valid image hash\r\n        //require(bytes(_imgipfshash).length > 0);\r\n        // Require a valid file hash\r\n        //require(bytes(_fileipfshash).length > 0);*/\r\n        // Increment product count\r\n        if(emptySpaces.length == 0 || emptySpaces[0]==0){\r\n                productCount ++;\r\n                products[productCount] = Product(productCount, _name , _description, _price , _imgipfshash , _fileipfshash ,msg.sender, false ,new address[](0), _categorie);\r\n        \r\n                ownerToProducts[msg.sender].push(Product({\r\n                id: productCount,\r\n                name: _name,\r\n                description: _description,\r\n                price: _price,\r\n                imgipfshash: _imgipfshash,\r\n                fileipfshash:_fileipfshash,\r\n                owner: msg.sender,\r\n                purchased: false,\r\n                owners: new address[](0),\r\n                categorie: _categorie\r\n                \r\n            }));\r\n            emit ProductCreated(productCount, _name, _description, _price, _imgipfshash,_fileipfshash, msg.sender, false);\r\n        }\r\n        else{\r\n            uint tmp = emptySpaces[0];\r\n            products[emptySpaces[0]] = Product(emptySpaces[0], _name , _description ,_price , _imgipfshash ,_fileipfshash, msg.sender, false,new address[](0), _categorie);\r\n            len = emptySpaces.length;\r\n            for(uint i = 0;i < emptySpaces.length - 1;i++){\r\n                emptySpaces[i] = emptySpaces[ i+1 ];\r\n            }\r\n            emptySpaces.pop();\r\n            ownerToProducts[msg.sender][tmp] = Product(\r\n                tmp,\r\n                _name,\r\n                _description,\r\n                _price,\r\n                _imgipfshash,\r\n                _fileipfshash,\r\n                msg.sender,\r\n                false,\r\n                new address[](0),\r\n                _categorie\r\n                );\r\n                emit ProductCreated(tmp, _name, _description, _price, _imgipfshash,_fileipfshash, msg.sender, false);\r\n        }\r\n        \r\n    }\r\n\r\n    function removeProduct(uint id1) public {\r\n        removeNestedProduct(id1);\r\n        delete products [id1];\r\n        emptySpaces.push(id1);\r\n    }\r\n    function removeNestedProduct(uint id1) public {\r\n        delete ownerToProducts[msg.sender][id1];\r\n    }\r\n    function purchaseProduct(uint _id) public payable {\r\n        // Fetch the product\r\n        Product memory _product = products[_id];\r\n        // Fetch the owner\r\n        address _seller = _product.owner;\r\n        /*// Make sure the product has a valid id\r\n        require(_product.id > 0 && _product.id <= productCount);\r\n        // Require that there is enough Ether in the transaction\r\n        require(msg.value >= _product.price);\r\n        // Require that the product has not been purchased already\r\n        require(!_product.purchased);\r\n        // Require that the buyer is not the seller\r\n        require(_seller != msg.sender);\r\n        // Transfer ownership to the buyer*/\r\n        _product.owner = msg.sender;\r\n        // Mark as purchased\r\n        _product.purchased = true;\r\n        // Update the product\r\n        products[_id] = _product;\r\n        // Pay the seller by sending them Ether\r\n        payable(_seller).transfer(msg.value);\r\n        removeNestedProduct(_id);\r\n        // Trigger an event\r\n        emit ProductPurchased(productCount, _product.name,_product.description, _product.price, _product.imgipfshash, _product.fileipfshash, msg.sender, true);\r\n    }\r\n    function editProduct(uint256 _id , string memory _name , string memory _des , uint _price , string memory _imgipfshash , Categories _categorie) public{\r\n        Product memory _product = products[_id];\r\n        _product.name = _name;\r\n        _product.description = _des;\r\n        _product.price = _price;\r\n        _product.imgipfshash = _imgipfshash;\r\n        _product.categorie = _categorie;\r\n        products[_id] = _product;\r\n        Product memory _ownerToProducts = ownerToProducts[msg.sender][_id];\r\n        _ownerToProducts.name = _name;\r\n        _ownerToProducts.description = _des;\r\n        _ownerToProducts.price = _price;\r\n        _ownerToProducts.imgipfshash = _imgipfshash;\r\n        _ownerToProducts.categorie = _categorie;\r\n        ownerToProducts[msg.sender][_id] = _ownerToProducts;\r\n        \r\n    }\r\n    function giveRate(uint _rate ,uint pos_in_prod_mapping ) public {\r\n        productsRates[pos_in_prod_mapping].push(_rate);\r\n    }\r\n    function writeReview(string memory _review ,uint pos_in_prod_mapping) public {\r\n        productsReviews[pos_in_prod_mapping].push(_review);\r\n    }\r\n\r\n    function insertProductIntoCart(uint256 id) public returns (bool success,\r\n                                                  uint256 pos_in_prod_mapping) {\r\n        Customer storage cust = customers[msg.sender];\r\n        Product memory prod = products[id];\r\n        uint256 prods_prev_len = cust.cart.products.length;\r\n        cust.cart.products.push(prod.id);\r\n        uint256 current_sum = cust.cart.completeSum;\r\n        cust.cart.completeSum = current_sum + prod.price;\r\n        if (cust.cart.products.length > prods_prev_len) {\r\n          emit CartProductInserted(msg.sender, id, prod.price, cust.cart.completeSum);\r\n          return (true, cust.cart.products.length - 1);\r\n        }\r\n        emit CartProductInsertionFailed(msg.sender, id);\r\n        return (false, 0);\r\n    }\r\n\r\n    function removeProductFromCart(uint256 prod_pos_in_mapping) public {\r\n        uint256[] memory new_product_list = new uint256[](customers[msg.sender]\r\n                                                    .cart.products.length - 1);\r\n        uint256[] memory customerProds = customers[msg.sender].cart.products;\r\n        for (uint256 i = 0; i < customerProds.length; i++) {\r\n          if (i != prod_pos_in_mapping) {\r\n            new_product_list[i] = customerProds[i];\r\n          } else {\r\n            customers[msg.sender].cart.completeSum -=\r\n                                               products[customerProds[i]].price;\r\n            emit CartProductRemoved(msg.sender, customerProds[i]);\r\n          }\r\n        }\r\n        customers[msg.sender].cart.products = new_product_list;\r\n    }\r\n\r\n    function emptyCart() public returns (bool success) {\r\n        Customer storage customer = customers[msg.sender];\r\n        customer.cart = Cart(new uint256[](0), 0);\r\n        emit CartEmptied(customer.adr);\r\n        return true;\r\n    }\r\n\r\n    function registerCustomer(address _address, string memory _name)\r\n                                        public returns (bool success) {\r\n    ownerToProducts[msg.sender].push(Product({\r\n                id: 0,\r\n                name: \"dummy\",\r\n                description: \"dummy\",\r\n                price: 0,\r\n                imgipfshash: \"dummy\",\r\n                fileipfshash:\"dummy\",\r\n                owner: 0x0000000000000000000000000000000000000000,\r\n                purchased: false,\r\n                owners: new address[](0),\r\n                categorie: Categories.Tech\r\n        }));\r\n\r\n        Customer memory customer = Customer(_address, _name,Cart(new uint256[](0), 0));\r\n        customerCount++;\r\n        addressLUT[customerCount]=customer.adr;\r\n        customers[_address] = customer;\r\n        emit CustomerRegistered(_address);\r\n        return true;\r\n    }\r\n\r\n    function getCustomer(address _adr) view public returns(Customer memory){\r\n    \treturn customers[_adr];\r\n    }\r\n\r\n    function getProductCount(address _owner) view\r\n        public\r\n        returns (uint256) \r\n    {\r\n        require(_owner != address(0));\r\n        return ownerToProducts[_owner].length;\r\n    }\r\n\r\n    function getProduct(address _owner, uint8 _index) view\r\n        public returns (\r\n        uint _id, \r\n        string memory _name, \r\n        string memory _description,\r\n        uint _price,\r\n        string memory imgipfshash,\r\n        string memory fileipfshash\r\n    ) {\r\n\r\n        require(_owner != address(0));\r\n        require(_index >= 0 && _index <= 2**8 - 1);\r\n        require(ownerToProducts[_owner].length > 0);\r\n\r\n        Product storage product = ownerToProducts[_owner][_index];\r\n        \r\n        return (\r\n            product.id, \r\n            product.name,\r\n            product.description,\r\n            product.price,\r\n            product.imgipfshash,\r\n            product.fileipfshash\r\n        );\r\n    }\r\n\r\n}\r\n\r\n",
  "sourcePath": "C:\\Users\\Administrator\\Desktop\\MarketPlace\\src\\contracts\\Marketplace.sol",
  "compiler": {
    "name": "solc",
    "version": "0.8.7+commit.e28d00a7.Emscripten.clang"
  },
  "schemaVersion": "3.4.2",
  "updatedAt": "2021-08-18T20:53:49.261Z",
  "networkType": "ethereum",
  "devdoc": {
    "kind": "dev",
    "methods": {},
    "version": 1
  },
  "userdoc": {
    "kind": "user",
    "methods": {},
    "version": 1
  }
}