{
  "contractName": "Marketplace",
  "abi": [
    {
      "anonymous": false,
      "inputs": [
        {
          "indexed": false,
          "internalType": "address",
          "name": "customer",
          "type": "address"
        }
      ],
      "name": "CartEmptied",
      "type": "event"
    },
    {
      "anonymous": false,
      "inputs": [
        {
          "indexed": false,
          "internalType": "address",
          "name": "customer",
          "type": "address"
        },
        {
          "indexed": false,
          "internalType": "uint256",
          "name": "prodId",
          "type": "uint256"
        },
        {
          "indexed": false,
          "internalType": "uint256",
          "name": "prodPrice",
          "type": "uint256"
        },
        {
          "indexed": false,
          "internalType": "uint256",
          "name": "completeSum",
          "type": "uint256"
        }
      ],
      "name": "CartProductInserted",
      "type": "event"
    },
    {
      "anonymous": false,
      "inputs": [
        {
          "indexed": false,
          "internalType": "address",
          "name": "customer",
          "type": "address"
        },
        {
          "indexed": false,
          "internalType": "uint256",
          "name": "prodId",
          "type": "uint256"
        }
      ],
      "name": "CartProductInsertionFailed",
      "type": "event"
    },
    {
      "anonymous": false,
      "inputs": [
        {
          "indexed": false,
          "internalType": "address",
          "name": "customer",
          "type": "address"
        },
        {
          "indexed": false,
          "internalType": "uint256",
          "name": "prodId",
          "type": "uint256"
        }
      ],
      "name": "CartProductRemoved",
      "type": "event"
    },
    {
      "anonymous": false,
      "inputs": [
        {
          "indexed": false,
          "internalType": "address",
          "name": "customer",
          "type": "address"
        }
      ],
      "name": "CustomerRegistered",
      "type": "event"
    },
    {
      "anonymous": false,
      "inputs": [
        {
          "indexed": false,
          "internalType": "address",
          "name": "customer",
          "type": "address"
        }
      ],
      "name": "CustomerRegistrationFailed",
      "type": "event"
    },
    {
      "anonymous": false,
      "inputs": [
        {
          "indexed": false,
          "internalType": "uint256",
          "name": "id",
          "type": "uint256"
        },
        {
          "indexed": false,
          "internalType": "string",
          "name": "name",
          "type": "string"
        },
        {
          "indexed": false,
          "internalType": "string",
          "name": "description",
          "type": "string"
        },
        {
          "indexed": false,
          "internalType": "uint256",
          "name": "price",
          "type": "uint256"
        },
        {
          "indexed": false,
          "internalType": "string",
          "name": "imgipfshash",
          "type": "string"
        },
        {
          "indexed": false,
          "internalType": "string",
          "name": "fileipfshash",
          "type": "string"
        },
        {
          "indexed": false,
          "internalType": "address",
          "name": "owner",
          "type": "address"
        }
      ],
      "name": "ProductCreated",
      "type": "event"
    },
    {
      "anonymous": false,
      "inputs": [
        {
          "indexed": false,
          "internalType": "uint256",
          "name": "id",
          "type": "uint256"
        },
        {
          "indexed": false,
          "internalType": "string",
          "name": "name",
          "type": "string"
        },
        {
          "indexed": false,
          "internalType": "string",
          "name": "description",
          "type": "string"
        },
        {
          "indexed": false,
          "internalType": "uint256",
          "name": "price",
          "type": "uint256"
        },
        {
          "indexed": false,
          "internalType": "string",
          "name": "imgipfshash",
          "type": "string"
        },
        {
          "indexed": false,
          "internalType": "address",
          "name": "owner",
          "type": "address"
        }
      ],
      "name": "ProductPurchased",
      "type": "event"
    },
    {
      "inputs": [
        {
          "internalType": "uint256",
          "name": "",
          "type": "uint256"
        }
      ],
      "name": "addressLUT",
      "outputs": [
        {
          "internalType": "address",
          "name": "",
          "type": "address"
        }
      ],
      "stateMutability": "view",
      "type": "function",
      "constant": true
    },
    {
      "inputs": [],
      "name": "customerCount",
      "outputs": [
        {
          "internalType": "uint256",
          "name": "",
          "type": "uint256"
        }
      ],
      "stateMutability": "view",
      "type": "function",
      "constant": true
    },
    {
      "inputs": [
        {
          "internalType": "address",
          "name": "",
          "type": "address"
        }
      ],
      "name": "customers",
      "outputs": [
        {
          "internalType": "address",
          "name": "adr",
          "type": "address"
        },
        {
          "internalType": "string",
          "name": "name",
          "type": "string"
        }
      ],
      "stateMutability": "view",
      "type": "function",
      "constant": true
    },
    {
      "inputs": [
        {
          "internalType": "uint256",
          "name": "",
          "type": "uint256"
        }
      ],
      "name": "files",
      "outputs": [
        {
          "internalType": "string",
          "name": "",
          "type": "string"
        }
      ],
      "stateMutability": "view",
      "type": "function",
      "constant": true
    },
    {
      "inputs": [],
      "name": "flag",
      "outputs": [
        {
          "internalType": "bool",
          "name": "",
          "type": "bool"
        }
      ],
      "stateMutability": "view",
      "type": "function",
      "constant": true
    },
    {
      "inputs": [],
      "name": "productCount",
      "outputs": [
        {
          "internalType": "uint256",
          "name": "",
          "type": "uint256"
        }
      ],
      "stateMutability": "view",
      "type": "function",
      "constant": true
    },
    {
      "inputs": [
        {
          "internalType": "uint256",
          "name": "",
          "type": "uint256"
        }
      ],
      "name": "products",
      "outputs": [
        {
          "internalType": "uint256",
          "name": "id",
          "type": "uint256"
        },
        {
          "internalType": "string",
          "name": "name",
          "type": "string"
        },
        {
          "internalType": "string",
          "name": "description",
          "type": "string"
        },
        {
          "internalType": "uint256",
          "name": "price",
          "type": "uint256"
        },
        {
          "internalType": "string",
          "name": "imgipfshash",
          "type": "string"
        },
        {
          "internalType": "address",
          "name": "owner",
          "type": "address"
        },
        {
          "internalType": "enum Marketplace.Categories",
          "name": "categorie",
          "type": "uint8"
        },
        {
          "internalType": "uint256",
          "name": "uploadedOn",
          "type": "uint256"
        },
        {
          "internalType": "uint256",
          "name": "rate",
          "type": "uint256"
        },
        {
          "internalType": "uint256",
          "name": "reviewsCount",
          "type": "uint256"
        },
        {
          "internalType": "uint256",
          "name": "totalSold",
          "type": "uint256"
        },
        {
          "internalType": "uint256",
          "name": "report",
          "type": "uint256"
        },
        {
          "internalType": "uint256",
          "name": "removed",
          "type": "uint256"
        }
      ],
      "stateMutability": "view",
      "type": "function",
      "constant": true
    },
    {
      "inputs": [
        {
          "internalType": "string",
          "name": "_name",
          "type": "string"
        },
        {
          "internalType": "string",
          "name": "_description",
          "type": "string"
        },
        {
          "internalType": "uint256",
          "name": "_price",
          "type": "uint256"
        },
        {
          "internalType": "string",
          "name": "_imgipfshash",
          "type": "string"
        },
        {
          "internalType": "string",
          "name": "_fileipfshash",
          "type": "string"
        },
        {
          "internalType": "enum Marketplace.Categories",
          "name": "_categorie",
          "type": "uint8"
        }
      ],
      "name": "createProduct",
      "outputs": [],
      "stateMutability": "nonpayable",
      "type": "function"
    },
    {
      "inputs": [
        {
          "internalType": "uint256",
          "name": "_id",
          "type": "uint256"
        }
      ],
      "name": "purchaseProduct",
      "outputs": [],
      "stateMutability": "payable",
      "type": "function",
      "payable": true
    },
    {
      "inputs": [
        {
          "internalType": "uint256",
          "name": "id1",
          "type": "uint256"
        }
      ],
      "name": "removeProduct",
      "outputs": [],
      "stateMutability": "nonpayable",
      "type": "function"
    },
    {
      "inputs": [
        {
          "internalType": "uint256",
          "name": "id1",
          "type": "uint256"
        }
      ],
      "name": "restoreProduct",
      "outputs": [],
      "stateMutability": "nonpayable",
      "type": "function"
    },
    {
      "inputs": [
        {
          "internalType": "uint256",
          "name": "_id",
          "type": "uint256"
        },
        {
          "internalType": "string",
          "name": "_name",
          "type": "string"
        },
        {
          "internalType": "string",
          "name": "_des",
          "type": "string"
        },
        {
          "internalType": "uint256",
          "name": "_price",
          "type": "uint256"
        },
        {
          "internalType": "enum Marketplace.Categories",
          "name": "_categorie",
          "type": "uint8"
        }
      ],
      "name": "editProduct",
      "outputs": [],
      "stateMutability": "nonpayable",
      "type": "function"
    },
    {
      "inputs": [
        {
          "internalType": "uint256",
          "name": "_id",
          "type": "uint256"
        },
        {
          "internalType": "uint256",
          "name": "_rate",
          "type": "uint256"
        },
        {
          "internalType": "uint256",
          "name": "_score",
          "type": "uint256"
        },
        {
          "internalType": "string",
          "name": "_review",
          "type": "string"
        }
      ],
      "name": "reviewProduct",
      "outputs": [],
      "stateMutability": "nonpayable",
      "type": "function"
    },
    {
      "inputs": [
        {
          "internalType": "address",
          "name": "_address",
          "type": "address"
        },
        {
          "internalType": "string",
          "name": "_name",
          "type": "string"
        }
      ],
      "name": "registerCustomer",
      "outputs": [
        {
          "internalType": "bool",
          "name": "success",
          "type": "bool"
        }
      ],
      "stateMutability": "nonpayable",
      "type": "function"
    },
    {
      "inputs": [
        {
          "internalType": "address",
          "name": "_adr",
          "type": "address"
        }
      ],
      "name": "hasRegistered",
      "outputs": [
        {
          "internalType": "bool",
          "name": "",
          "type": "bool"
        }
      ],
      "stateMutability": "view",
      "type": "function",
      "constant": true
    },
    {
      "inputs": [
        {
          "internalType": "uint256",
          "name": "_id",
          "type": "uint256"
        }
      ],
      "name": "hasReported",
      "outputs": [
        {
          "internalType": "bool",
          "name": "",
          "type": "bool"
        }
      ],
      "stateMutability": "view",
      "type": "function",
      "constant": true
    },
    {
      "inputs": [
        {
          "internalType": "uint256",
          "name": "_id",
          "type": "uint256"
        }
      ],
      "name": "report",
      "outputs": [],
      "stateMutability": "nonpayable",
      "type": "function"
    },
    {
      "inputs": [
        {
          "internalType": "uint256",
          "name": "_id",
          "type": "uint256"
        }
      ],
      "name": "getReport",
      "outputs": [
        {
          "internalType": "uint256",
          "name": "",
          "type": "uint256"
        }
      ],
      "stateMutability": "view",
      "type": "function",
      "constant": true
    },
    {
      "inputs": [
        {
          "internalType": "address",
          "name": "_adr",
          "type": "address"
        }
      ],
      "name": "getUserReviews",
      "outputs": [
        {
          "components": [
            {
              "internalType": "bool",
              "name": "isBuy",
              "type": "bool"
            },
            {
              "internalType": "bool",
              "name": "isReview",
              "type": "bool"
            },
            {
              "internalType": "address",
              "name": "adr",
              "type": "address"
            },
            {
              "internalType": "uint256",
              "name": "pid",
              "type": "uint256"
            },
            {
              "internalType": "string",
              "name": "name",
              "type": "string"
            },
            {
              "internalType": "uint256",
              "name": "rate",
              "type": "uint256"
            },
            {
              "internalType": "string",
              "name": "reviewDescription",
              "type": "string"
            },
            {
              "internalType": "uint256",
              "name": "score",
              "type": "uint256"
            },
            {
              "internalType": "uint256",
              "name": "timeStamp",
              "type": "uint256"
            }
          ],
          "internalType": "struct Marketplace.Review[]",
          "name": "",
          "type": "tuple[]"
        }
      ],
      "stateMutability": "view",
      "type": "function",
      "constant": true
    },
    {
      "inputs": [
        {
          "internalType": "uint256",
          "name": "_id",
          "type": "uint256"
        }
      ],
      "name": "getProductReviews",
      "outputs": [
        {
          "components": [
            {
              "internalType": "bool",
              "name": "isBuy",
              "type": "bool"
            },
            {
              "internalType": "bool",
              "name": "isReview",
              "type": "bool"
            },
            {
              "internalType": "address",
              "name": "adr",
              "type": "address"
            },
            {
              "internalType": "uint256",
              "name": "pid",
              "type": "uint256"
            },
            {
              "internalType": "string",
              "name": "name",
              "type": "string"
            },
            {
              "internalType": "uint256",
              "name": "rate",
              "type": "uint256"
            },
            {
              "internalType": "string",
              "name": "reviewDescription",
              "type": "string"
            },
            {
              "internalType": "uint256",
              "name": "score",
              "type": "uint256"
            },
            {
              "internalType": "uint256",
              "name": "timeStamp",
              "type": "uint256"
            }
          ],
          "internalType": "struct Marketplace.Review[]",
          "name": "",
          "type": "tuple[]"
        }
      ],
      "stateMutability": "view",
      "type": "function",
      "constant": true
    },
    {
      "inputs": [
        {
          "internalType": "uint256",
          "name": "_id",
          "type": "uint256"
        }
      ],
      "name": "getProductBuyers",
      "outputs": [
        {
          "internalType": "address[]",
          "name": "",
          "type": "address[]"
        }
      ],
      "stateMutability": "view",
      "type": "function",
      "constant": true
    },
    {
      "inputs": [
        {
          "internalType": "uint256",
          "name": "_id",
          "type": "uint256"
        }
      ],
      "name": "getProductfile",
      "outputs": [
        {
          "internalType": "string",
          "name": "",
          "type": "string"
        }
      ],
      "stateMutability": "view",
      "type": "function",
      "constant": true
    },
    {
      "inputs": [
        {
          "internalType": "address",
          "name": "adr",
          "type": "address"
        }
      ],
      "name": "getPurchasedProducts",
      "outputs": [
        {
          "internalType": "uint256[]",
          "name": "",
          "type": "uint256[]"
        }
      ],
      "stateMutability": "view",
      "type": "function",
      "constant": true
    }
  ],
  "bytecode": "0x608060405260008080556001556002805460ff19169055606460075534801561002757600080fd5b5061255b806100376000396000f3fe6080604052600436106101805760003560e01c80637acc0b20116100d6578063aca490181161007f578063e0f6ef8711610059578063e0f6ef87146104a6578063e4bb50c8146104bc578063f4c714b4146104dc57600080fd5b8063aca490181461040b578063cc94f2d914610459578063db1970f41461048657600080fd5b8063969b1cdb116100b0578063969b1cdb146103b55780639757e8a3146103d5578063a0d03526146103eb57600080fd5b80637acc0b20146103425780637b61b7021461037b578063890eba681461039b57600080fd5b806338e76a031161013857806346a4237b1161011257806346a4237b146102c45780634e7f9b19146102e45780635ee95cae1461032257600080fd5b806338e76a031461026457806342761c851461027757806343308eef1461029757600080fd5b80630fb9398f116101695780630fb9398f146101dc57806318d0e8b214610209578063336989ae1461023657600080fd5b8063084874ce146101855780630b784d2d146101ba575b600080fd5b34801561019157600080fd5b506101a56101a0366004611ee5565b6104fc565b60405190151581526020015b60405180910390f35b3480156101c657600080fd5b506101da6101d5366004611e1f565b610530565b005b3480156101e857600080fd5b506101fc6101f7366004611ee5565b610791565b6040516101b19190612119565b34801561021557600080fd5b50610229610224366004611daf565b610800565b6040516101b19190612166565b34801561024257600080fd5b50610256610251366004611daf565b6109fc565b6040516101b19291906120ef565b6101da610272366004611ee5565b610aab565b34801561028357600080fd5b506101da610292366004611f86565b610d01565b3480156102a357600080fd5b506102b76102b2366004611ee5565b611166565b6040516101b19190612280565b3480156102d057600080fd5b506102296102df366004611ee5565b611363565b3480156102f057600080fd5b506103146102ff366004611ee5565b6000908152600360205260409020600e015490565b6040519081526020016101b1565b34801561032e57600080fd5b506101da61033d366004611ee5565b611551565b34801561034e57600080fd5b5061036261035d366004611ee5565b6115a8565b6040516101b19d9c9b9a99989796959493929190612293565b34801561038757600080fd5b506101da610396366004611efe565b6117b3565b3480156103a757600080fd5b506002546101a59060ff1681565b3480156103c157600080fd5b506101da6103d0366004611ee5565b611886565b3480156103e157600080fd5b5061031460015481565b3480156103f757600080fd5b506101a5610406366004611daf565b611908565b34801561041757600080fd5b50610441610426366004611ee5565b6005602052600090815260409020546001600160a01b031681565b6040516001600160a01b0390911681526020016101b1565b34801561046557600080fd5b50610479610474366004611daf565b611967565b6040516101b19190612248565b34801561049257600080fd5b506101a56104a1366004611dd1565b6119d5565b3480156104b257600080fd5b5061031460005481565b3480156104c857600080fd5b506101da6104d7366004611ee5565b611a99565b3480156104e857600080fd5b506102b76104f7366004611ee5565b611aec565b6000818152600360209081526040808320338452600d0190915281205460ff1661052857506000919050565b506001919050565b600086511161053e57600080fd5b600085511161054c57600080fd5b6000841161055957600080fd5b600083511161056757600080fd5b600082511161057557600080fd5b60008054429180610585836124b2565b90915550506000805480825260036020908152604090922090815588516105b4926001909201918a0190611b86565b5060008054815260036020908152604090912087516105db92600290920191890190611b86565b50600080548152600360208181526040808420909201889055825483529120855161060e92600490920191870190611b86565b50600080548152600660209081526040909120845161062f92860190611b86565b50600080548152600360205260408082206005908101805473ffffffffffffffffffffffffffffffffffffffff1916331790558254835291200180548391907fffffffffffffffffffffff00ffffffffffffffffffffffffffffffffffffffff16600160a01b83600a8111156106a7576106a76124e3565b02179055506000805481526003602081815260408084206006018590558354845280842060080184905583548452808420600e0184905583548452808420338552600d018252808420805460ff1916905583548452828252808420600a0184905580518481528083018083528554865293909252909220915161072e926009019190611c0a565b5060008054815260036020526040808220600f01829055905490517f1a3f2c9175d23760b6304c5f19e98b7b12dd25309a0a92996815dcf864cece0991610780918a908a908a908a908a903390612334565b60405180910390a150505050505050565b6000818152600360209081526040918290206009018054835181840281018401909452808452606093928301828280156107f457602002820191906000526020600020905b81546001600160a01b031681526001909101906020018083116107d6575b50505050509050919050565b6001600160a01b0381166000908152600460209081526040808320600301805482518185028101850190935280835260609492939192909184015b828210156109f1576000848152602090819020604080516101208101825260078602909201805460ff80821615158552610100820416151594840194909452620100009093046001600160a01b031690820152600182015460608201526002820180549192916080840191906108b09061247d565b80601f01602080910402602001604051908101604052809291908181526020018280546108dc9061247d565b80156109295780601f106108fe57610100808354040283529160200191610929565b820191906000526020600020905b81548152906001019060200180831161090c57829003601f168201915b505050505081526020016003820154815260200160048201805461094c9061247d565b80601f01602080910402602001604051908101604052809291908181526020018280546109789061247d565b80156109c55780601f1061099a576101008083540402835291602001916109c5565b820191906000526020600020905b8154815290600101906020018083116109a857829003601f168201915b50505050508152602001600582015481526020016006820154815250508152602001906001019061083b565b505050509050919050565b600460205260009081526040902080546001820180546001600160a01b039092169291610a289061247d565b80601f0160208091040260200160405190810160405280929190818152602001828054610a549061247d565b8015610aa15780601f10610a7657610100808354040283529160200191610aa1565b820191906000526020600020905b815481529060010190602001808311610a8457829003601f168201915b5050505050905082565b6000818152600360205260409020600501546001600160a01b031633811415610b1b5760405162461bcd60e51b815260206004820152601f60248201527f596f752063616e6e6f742062757920796f7572206f776e2070726f647563740060448201526064015b60405180910390fd5b60008281526003602052604090205415801590610b48575060008054838252600360205260409091205411155b610b5157600080fd5b60008281526003602081905260409091200154341015610bb35760405162461bcd60e51b815260206004820152601260248201527f496e73756666696369656e7420457468657200000000000000000000000000006044820152606401610b12565b6001600160a01b038116331415610bc957600080fd5b600082815260036020818152604080842033808652600c82018452918520805460ff1916600190811790915593835260098101805494850181558552918420909201805473ffffffffffffffffffffffffffffffffffffffff1916909217909155838252600a01805491610c3c836124b2565b90915550503360009081526004602090815260408083206002018054600181018255908452918320909101849055516001600160a01b038316913480156108fc02929091818181858888f19350505050158015610c9d573d6000803e3d6000fd5b5060008054838252600360208190526040928390209081015492517fa60391b5fc12a2bf84e95996952da9569290e72de60381dafc011bc0fbbd6af193610cf5939260018101926002820192916004019033906123ab565b60405180910390a15050565b6000848152600360209081526040808320338452600c0190915290205460ff161515600114610d985760405162461bcd60e51b815260206004820152602b60248201527f596f7520617265206e6f7420656c696769626c6520746f20726576696577207460448201527f6869732070726f647563740000000000000000000000000000000000000000006064820152608401610b12565b6000848152600360209081526040808320338452600c01909152902054610100900460ff1661116057600084815260036020908152604080832033808552600c90910180845282852080546201000084027fffffffffffffffffffff000000000000000000000000000000000000000000ff9091161761010017815582865260018181018b90556004865293862092909552909252018054600290920191610e3f9061247d565b610e4a929190611c6c565b506000848152600360208181526040808420338552600c0182529092209081018590558251610e8192600490920191840190611b86565b506000848152600360209081526040808320338452600c8101835290832060058101869055426006820155600b909101805460018082018355918552929093208154600790930201805460ff938416151560ff19821681178355835461010090819004909516151590940261ff001990941661ffff199091161792909217808355815462010000908190046001600160a01b0316027fffffffffffffffffffff0000000000000000000000000000000000000000ffff90911617825582810154928201929092556002808301805491830191610f5c9061247d565b610f67929190611c6c565b50600382015481600301556004820181600401908054610f869061247d565b610f91929190611c6c565b50600582810154908201556006918201549101553360008181526004602090815260408083208884526003808452828520958552600c90950183529083209301805460018181018355918452919092208354600790920201805460ff928316151560ff19821681178355855461010090819004909416151590930261ff001990931661ffff199091161791909117808255835462010000908190046001600160a01b0316027fffffffffffffffffffff0000000000000000000000000000000000000000ffff9091161781558183015491810191909155600280830180549183019161107c9061247d565b611087929190611c6c565b506003820154816003015560048201816004019080546110a69061247d565b6110b1929190611c6c565b506005828101549082015560069182015491015560008481526003602052604081206008018054916110e2836124b2565b909155505060008481526003602052604081206008015461110590600190612466565b6000868152600360205260409020600701546111219190612447565b905061112d848261240d565b60008681526003602052604090206008015490915061114c9082612425565b600086815260036020526040902060070155505b50505050565b6000818152600360205260409020600501546060906001600160a01b031633141561121f57600082815260066020526040902080546111a49061247d565b80601f01602080910402602001604051908101604052809291908181526020018280546111d09061247d565b80156107f45780601f106111f2576101008083540402835291602001916107f4565b820191906000526020600020905b8154815290600101906020018083116112005750939695505050505050565b6000828152600360205260409020600901541561134a5760005b600083815260036020526040902060090154811015611344576000838152600360205260409020600901805433919083908110611278576112786124f9565b6000918252602090912001546001600160a01b0316141561133257600083815260066020526040902080546112ac9061247d565b80601f01602080910402602001604051908101604052809291908181526020018280546112d89061247d565b80156113255780601f106112fa57610100808354040283529160200191611325565b820191906000526020600020905b81548152906001019060200180831161130857829003601f168201915b5050505050915050919050565b8061133c816124b2565b915050611239565b50919050565b505060408051602081019091526000815290565b919050565b606060036000838152602001908152602001600020600b01805480602002602001604051908101604052809291908181526020016000905b828210156109f1576000848152602090819020604080516101208101825260078602909201805460ff80821615158552610100820416151594840194909452620100009093046001600160a01b031690820152600182015460608201526002820180549192916080840191906114109061247d565b80601f016020809104026020016040519081016040528092919081815260200182805461143c9061247d565b80156114895780601f1061145e57610100808354040283529160200191611489565b820191906000526020600020905b81548152906001019060200180831161146c57829003601f168201915b50505050508152602001600382015481526020016004820180546114ac9061247d565b80601f01602080910402602001604051908101604052809291908181526020018280546114d89061247d565b80156115255780601f106114fa57610100808354040283529160200191611525565b820191906000526020600020905b81548152906001019060200180831161150857829003601f168201915b50505050508152602001600582015481526020016006820154815250508152602001906001019061139b565b6000818152600360205260409020600501546001600160a01b03163314801561158957506000818152600360205260409020600f0154155b156115a55760008181526003602052604090206001600f909101555b50565b600360205260009081526040902080546001820180549192916115ca9061247d565b80601f01602080910402602001604051908101604052809291908181526020018280546115f69061247d565b80156116435780601f1061161857610100808354040283529160200191611643565b820191906000526020600020905b81548152906001019060200180831161162657829003601f168201915b5050505050908060020180546116589061247d565b80601f01602080910402602001604051908101604052809291908181526020018280546116849061247d565b80156116d15780601f106116a6576101008083540402835291602001916116d1565b820191906000526020600020905b8154815290600101906020018083116116b457829003601f168201915b5050505050908060030154908060040180546116ec9061247d565b80601f01602080910402602001604051908101604052809291908181526020018280546117189061247d565b80156117655780601f1061173a57610100808354040283529160200191611765565b820191906000526020600020905b81548152906001019060200180831161174857829003601f168201915b505050506005830154600684015460078501546008860154600a870154600e880154600f9098015496976001600160a01b03861697600160a01b90960460ff1696509394929391929091908d565b6000858152600360205260409020600501546001600160a01b031633141561187f57600085815260036020908152604090912085516117fa92600190920191870190611b86565b506000858152600360209081526040909120845161182092600290920191860190611b86565b50600085815260036020819052604090912090810183905560050180548291907fffffffffffffffffffffff00ffffffffffffffffffffffffffffffffffffffff16600160a01b83600a811115611879576118796124e3565b02179055505b5050505050565b61188f816104fc565b6115a5576000818152600360205260408120600e018054916118b0836124b2565b90915550506000818152600360208181526040808420338552600d81018352908420805460ff1916600117905560075493859052919052600e0154106115a55760009081526003602052604090206002600f90910155565b6001546000901561195f5760015b60015481101561195d576000818152600560205260409020546001600160a01b038481169116141561194b5750600192915050565b80611955816124b2565b915050611916565b505b506000919050565b6001600160a01b0381166000908152600460209081526040918290206002018054835181840281018401909452808452606093928301828280156107f457602002820191906000526020600020905b8154815260200190600101908083116119b65750505050509050919050565b60018054600091826119e6836124b2565b909155505060018054600090815260056020908152604080832080546001600160a01b03891673ffffffffffffffffffffffffffffffffffffffff1991821681179092558185526004845291909320805490911690921782558451611a5393929092019190850190611b86565b506040516001600160a01b03841681527f155e8619f4d23b96769599cb9af87da3e06a360082869c18578011da9a06e6709060200160405180910390a150600192915050565b6000818152600360205260409020600501546001600160a01b031633148015611ad357506000818152600360205260409020600f01546001145b156115a5576000908152600360205260408120600f0155565b60066020526000908152604090208054611b059061247d565b80601f0160208091040260200160405190810160405280929190818152602001828054611b319061247d565b8015611b7e5780601f10611b5357610100808354040283529160200191611b7e565b820191906000526020600020905b815481529060010190602001808311611b6157829003601f168201915b505050505081565b828054611b929061247d565b90600052602060002090601f016020900481019282611bb45760008555611bfa565b82601f10611bcd57805160ff1916838001178555611bfa565b82800160010185558215611bfa579182015b82811115611bfa578251825591602001919060010190611bdf565b50611c06929150611ce7565b5090565b828054828255906000526020600020908101928215611bfa579160200282015b82811115611bfa578251825473ffffffffffffffffffffffffffffffffffffffff19166001600160a01b03909116178255602090920191600190910190611c2a565b828054611c789061247d565b90600052602060002090601f016020900481019282611c9a5760008555611bfa565b82601f10611cab5780548555611bfa565b82800160010185558215611bfa57600052602060002091601f016020900482015b82811115611bfa578254825591600101919060010190611ccc565b5b80821115611c065760008155600101611ce8565b80356001600160a01b038116811461135e57600080fd5b8035600b811061135e57600080fd5b600082601f830112611d3357600080fd5b813567ffffffffffffffff80821115611d4e57611d4e61250f565b604051601f8301601f19908116603f01168101908282118183101715611d7657611d7661250f565b81604052838152866020858801011115611d8f57600080fd5b836020870160208301376000602085830101528094505050505092915050565b600060208284031215611dc157600080fd5b611dca82611cfc565b9392505050565b60008060408385031215611de457600080fd5b611ded83611cfc565b9150602083013567ffffffffffffffff811115611e0957600080fd5b611e1585828601611d22565b9150509250929050565b60008060008060008060c08789031215611e3857600080fd5b863567ffffffffffffffff80821115611e5057600080fd5b611e5c8a838b01611d22565b97506020890135915080821115611e7257600080fd5b611e7e8a838b01611d22565b9650604089013595506060890135915080821115611e9b57600080fd5b611ea78a838b01611d22565b94506080890135915080821115611ebd57600080fd5b50611eca89828a01611d22565b925050611ed960a08801611d13565b90509295509295509295565b600060208284031215611ef757600080fd5b5035919050565b600080600080600060a08688031215611f1657600080fd5b85359450602086013567ffffffffffffffff80821115611f3557600080fd5b611f4189838a01611d22565b95506040880135915080821115611f5757600080fd5b50611f6488828901611d22565b93505060608601359150611f7a60808701611d13565b90509295509295909350565b60008060008060808587031215611f9c57600080fd5b843593506020850135925060408501359150606085013567ffffffffffffffff811115611fc857600080fd5b611fd487828801611d22565b91505092959194509250565b600b8110611ffe57634e487b7160e01b600052602160045260246000fd5b9052565b6000815180845260005b818110156120285760208185018101518683018201520161200c565b8181111561203a576000602083870101525b50601f01601f19169290920160200192915050565b8054600090600181811c908083168061206957607f831692505b602080841082141561208b57634e487b7160e01b600052602260045260246000fd5b838852602088018280156120a657600181146120b7576120e2565b60ff198716825282820197506120e2565b60008981526020902060005b878110156120dc578154848201529086019084016120c3565b83019850505b5050505050505092915050565b6001600160a01b03831681526040602082015260006121116040830184612002565b949350505050565b6020808252825182820181905260009190848201906040850190845b8181101561215a5783516001600160a01b031683529284019291840191600101612135565b50909695505050505050565b60006020808301818452808551808352604092508286019150828160051b87010184880160005b8381101561223a57603f19898403018552815180511515845287810151151588850152868101516001600160a01b0316878501526060808201519085015260808082015161012082870181905291906121e883880182612002565b9250505060a080830151818701525060c0808301518683038288015261220e8382612002565b60e08581015190890152610100948501519490970193909352505050938601939086019060010161218d565b509098975050505050505050565b6020808252825182820181905260009190848201906040850190845b8181101561215a57835183529284019291840191600101612264565b602081526000611dca6020830184612002565b8d81526101a0602082015260006122ae6101a083018f612002565b82810360408401526122c0818f612002565b90508c606084015282810360808401526122da818d612002565b9150506001600160a01b038a1660a08301526122f960c083018a611fe0565b8760e083015286610100830152856101208301528461014083015283610160830152826101808301529e9d5050505050505050505050505050565b87815260e06020820152600061234d60e0830189612002565b828103604084015261235f8189612002565b905086606084015282810360808401526123798187612002565b905082810360a084015261238d8186612002565b9150506001600160a01b03831660c083015298975050505050505050565b86815260c0602082015260006123c460c083018861204f565b82810360408401526123d6818861204f565b905085606084015282810360808401526123f0818661204f565b9150506001600160a01b03831660a0830152979650505050505050565b60008219821115612420576124206124cd565b500190565b60008261244257634e487b7160e01b600052601260045260246000fd5b500490565b6000816000190483118215151615612461576124616124cd565b500290565b600082821015612478576124786124cd565b500390565b600181811c9082168061249157607f821691505b6020821081141561134457634e487b7160e01b600052602260045260246000fd5b60006000198214156124c6576124c66124cd565b5060010190565b634e487b7160e01b600052601160045260246000fd5b634e487b7160e01b600052602160045260246000fd5b634e487b7160e01b600052603260045260246000fd5b634e487b7160e01b600052604160045260246000fdfea2646970667358221220d3420ec4dc0a51a7e308f4ca7a910344d6035540e1fda5c84bb9ff1f1d1832a564736f6c63430008070033",
  "immutableReferences": {},
  "source": "//buyer w purchasedProduct\r\n//raters\r\n// SPDX-License-Identifier: MIT\r\npragma solidity  ^0.8.0;\r\n\r\ncontract Marketplace {\r\n    //string public name;\r\n    uint public productCount = 0;\r\n    uint public customerCount = 0;\r\n    //to store the products on blockchain\r\n    bool public flag = false;\r\n    mapping(uint => Product) public products;\r\n    //mapping(uint => uint[]) public productsRates;\r\n    //mapping(uint => string[]) public productsReviews;\r\n    //to store the customers on blockchain\r\n    mapping(address  => Customer) public customers;\r\n    mapping(uint => address) public addressLUT;\r\n    mapping(uint => string) public files;\r\n    uint256 MAXREPORT = 100;\r\n    \r\n    enum Categories {\r\n        Tech,\r\n        PCGames,\r\n        PS4Games,\r\n        XboxGames,\r\n        Movies,\r\n        Courses,\r\n        Books,\r\n        AudioBooks,\r\n        Images,\r\n        Videos,\r\n        Other\r\n    }\r\n    struct Review{\r\n        bool isBuy;\r\n        bool isReview;\r\n        address adr;\r\n        uint pid;\r\n        string name;\r\n        uint256 rate;\r\n        string reviewDescription;\r\n        uint256 score;\r\n        uint timeStamp;\r\n    }\r\n    struct Customer {\r\n        address adr;\r\n        string name;\r\n        uint256[] purchasedProducts;\r\n        Review[] reviews;\r\n    }\r\n\r\n    struct Product {\r\n        uint id;\r\n        string name;\r\n        string description;\r\n        uint price;\r\n        string imgipfshash;\r\n        address owner;\r\n        Categories categorie;\r\n        uint256 uploadedOn;\r\n        uint256 rate;\r\n        uint256 reviewsCount;\r\n        address[] buyers;\r\n        uint256 totalSold;\r\n        Review [] reviews;\r\n        mapping (address=>Review) productUserReview;\r\n        mapping (address => bool)hasReported;\r\n        uint report;\r\n        uint removed;\r\n    }\r\n\r\n    event ProductCreated(uint id, string name, string description, uint price, string imgipfshash, string fileipfshash, address owner);\r\n    event ProductPurchased(uint id, string name, string description, uint price, string imgipfshash, address owner);\r\n    event CustomerRegistered(address customer);\r\n    event CustomerRegistrationFailed(address customer);\r\n    event CartProductInserted(address customer, uint256 prodId, uint256 prodPrice, uint256 completeSum);\r\n    event CartProductInsertionFailed(address customer, uint256 prodId);\r\n    event CartProductRemoved(address customer, uint256 prodId);\r\n    event CartEmptied(address customer);\r\n\r\n    // Create a new product with a struct\r\n    // Add the struct to the mapping, and store it on the blockchain\r\n    // Trigger an event that lets someone know a product was creatd\r\n    function createProduct(string memory _name,string memory _description, uint _price,string memory _imgipfshash,string memory _fileipfshash , Categories _categorie ) public {\r\n        // Require a valid name\r\n        require(bytes(_name).length > 0);\r\n        // Require a valid description\r\n        require(bytes(_description).length > 0);\r\n        // Require a valid price\r\n        require(_price > 0);\r\n        // Require a valid image hash\r\n        require(bytes(_imgipfshash).length > 0);\r\n        // Require a valid file hash\r\n        require(bytes(_fileipfshash).length > 0);\r\n        // Increment product count\r\n        uint256 _uploadedOn = block.timestamp;\r\n        //increment number of products\r\n        productCount ++;\r\n        //add this Product to the products map\r\n        products[productCount].id = productCount;\r\n        products[productCount].name = _name;\r\n        products[productCount].description = _description;\r\n        products[productCount].price = _price;\r\n        products[productCount].imgipfshash = _imgipfshash;\r\n        files[productCount] = _fileipfshash;\r\n        products[productCount].owner = msg.sender;\r\n        products[productCount].categorie = _categorie;\r\n        products[productCount].uploadedOn = _uploadedOn;\r\n        products[productCount].reviewsCount = 0;\r\n        products[productCount].report = 0;\r\n        products[productCount].hasReported[msg.sender] = false;\r\n        products[productCount].totalSold = 0;\r\n        products[productCount].buyers = new address[](0);\r\n        products[productCount].removed = 0;\r\n        //add this product to the customer's owned product\r\n        //create an event\r\n        emit ProductCreated(productCount, _name, _description, _price, _imgipfshash,_fileipfshash, msg.sender);\r\n    }\r\n\r\n    function purchaseProduct(uint _id) public payable {\r\n        // Fetch the owner\r\n        address _seller = products[_id].owner;\r\n        require(products[_id].owner != msg.sender, \"You cannot buy your own product\");\r\n        // Make sure the product has a valid id\r\n        require(products[_id].id > 0 && products[_id].id <= productCount);\r\n        // Require that there is enough Ether in the transaction\r\n        require(msg.value >= products[_id].price, \"Insufficient Ether\");\r\n        // Require that the buyer is not the seller\r\n        require(_seller != msg.sender);\r\n        //add to products a user can revie\r\n        products[_id].productUserReview[msg.sender].isBuy = true;\r\n        //add this customer to the people who bought this product\r\n        products[_id].buyers.push(msg.sender);\r\n        //update total purchases\r\n        products[_id].totalSold++;\r\n        //add to the products owners\r\n        customers[msg.sender].purchasedProducts.push(_id);\r\n        // Pay the seller by sending them Ether\r\n        payable(_seller).transfer(msg.value);\r\n        // Trigger an event\r\n        emit ProductPurchased(productCount, products[_id].name,products[_id].description, products[_id].price, products[_id].imgipfshash, msg.sender);\r\n    }\r\n    function removeProduct(uint id1) public {\r\n        if(msg.sender == products[id1].owner && products[id1].removed == 0){\r\n            products[id1].removed = 1;\r\n        }\r\n    }\r\n    function restoreProduct(uint id1) public {\r\n        if(msg.sender == products[id1].owner && products[id1].removed == 1){\r\n            products[id1].removed = 0;\r\n        }\r\n    }\r\n    function editProduct(uint256 _id , string memory _name , string memory _des , uint _price , Categories _categorie) public{\r\n        if(msg.sender == products[_id].owner){\r\n            products[_id].name = _name;\r\n            products[_id].description = _des;\r\n            products[_id].price = _price;\r\n            products[_id].categorie = _categorie;\r\n            \r\n        }\r\n    }\r\n    function reviewProduct(uint _id,uint256 _rate,uint256 _score, string memory _review) public\r\n    {\r\n           require(products[_id].productUserReview[msg.sender].isBuy == true, \"You are not eligible to review this product\");\r\n           if (products[_id].productUserReview[msg.sender].isReview == false){ //only once\r\n               products[_id].productUserReview[msg.sender].isReview = true;\r\n\r\n               products[_id].productUserReview[msg.sender].adr = msg.sender;\r\n               products[_id].productUserReview[msg.sender].pid = _id;\r\n               products[_id].productUserReview[msg.sender].name = customers[msg.sender].name;\r\n               products[_id].productUserReview[msg.sender].rate = _rate;\r\n               products[_id].productUserReview[msg.sender].reviewDescription = _review;\r\n               products[_id].productUserReview[msg.sender].score = _score;\r\n               products[_id].productUserReview[msg.sender].timeStamp = block.timestamp;\r\n\r\n    \r\n               products[_id].reviews.push(products[_id].productUserReview[msg.sender]);\r\n               customers[msg.sender].reviews.push(products[_id].productUserReview[msg.sender]);\r\n               products[_id].reviewsCount ++;\r\n               \r\n               //calculate and update product rate\r\n                uint avg = (products[_id].rate) * (products[_id].reviewsCount - 1);\r\n                avg += _rate;\r\n                products[_id].rate = avg / products[_id].reviewsCount;\r\n           }\r\n\r\n    }\r\n\r\n    function registerCustomer(address _address, string memory _name)\r\n                                        public returns (bool success) {\r\n        customerCount++;\r\n        addressLUT[customerCount]=_address;\r\n        customers[_address].adr = _address;\r\n        customers[_address].name = _name;\r\n        emit CustomerRegistered(_address);\r\n        return true;\r\n    }\r\n    function hasRegistered(address _adr) public view returns(bool){\r\n        if(customerCount>0){\r\n            for(uint i=1;i<customerCount;i++){\r\n                if(addressLUT[i] == _adr)\r\n                    return true;\r\n            }\r\n        }\r\n        return false;\r\n    } \r\n    function hasReported(uint _id) public view returns(bool){\r\n        if(products[_id].hasReported[msg.sender] == false)\r\n            return false;\r\n        return true;\r\n    } \r\n    function report(uint _id) public {\r\n        if(!hasReported(_id)){\r\n            products[_id].report++;\r\n            products[_id].hasReported[msg.sender] = true;\r\n            if(products[_id].report >= MAXREPORT){\r\n                products[_id].removed = 2;\r\n            }\r\n        }\r\n    }\r\n    function getReport(uint _id) public view returns(uint){\r\n        return products[_id].report;\r\n    }\r\n    function getUserReviews(address _adr) public view returns (Review[] memory){\r\n        return customers[_adr].reviews;\r\n    }\r\n    function getProductReviews(uint _id) public view returns (Review[] memory){\r\n        return products[_id].reviews;\r\n    }\r\n    function getProductBuyers(uint _id) public view returns(address[] memory){\r\n        return products[_id].buyers;\r\n    }\r\n    function getProductfile(uint _id) public view returns(string memory){\r\n        if(products[_id].owner == msg.sender){\r\n            return files[_id];\r\n        }\r\n        else if(products[_id].buyers.length > 0)\r\n        for(uint i=0;i<products[_id].buyers.length;i++){\r\n            if(products[_id].buyers[i] == msg.sender)\r\n                return files[_id];\r\n        }\r\n        else\r\n        return \"\";\r\n    }\r\n    function getPurchasedProducts(address adr) public view returns( uint256[] memory){\r\n        return customers[adr].purchasedProducts;\r\n    }\r\n\r\n}",
  "sourcePath": "C:\\Users\\Administrator\\Desktop\\MarketPlace\\src\\contracts\\Marketplace.sol",
  "compiler": {
    "name": "solc",
    "version": "0.8.7+commit.e28d00a7.Emscripten.clang"
  },
  "schemaVersion": "3.4.2",
  "updatedAt": "2021-08-30T10:43:50.271Z",
  "networkType": "ethereum",
  "devdoc": {
    "kind": "dev",
    "methods": {},
    "version": 1
  },
  "userdoc": {
    "kind": "user",
    "methods": {},
    "version": 1
  }
}