{
  "contractName": "Marketplace",
  "abi": [
    {
      "anonymous": false,
      "inputs": [
        {
          "indexed": false,
          "internalType": "address",
          "name": "customer",
          "type": "address"
        }
      ],
      "name": "CartEmptied",
      "type": "event"
    },
    {
      "anonymous": false,
      "inputs": [
        {
          "indexed": false,
          "internalType": "address",
          "name": "customer",
          "type": "address"
        },
        {
          "indexed": false,
          "internalType": "uint256",
          "name": "prodId",
          "type": "uint256"
        },
        {
          "indexed": false,
          "internalType": "uint256",
          "name": "prodPrice",
          "type": "uint256"
        },
        {
          "indexed": false,
          "internalType": "uint256",
          "name": "completeSum",
          "type": "uint256"
        }
      ],
      "name": "CartProductInserted",
      "type": "event"
    },
    {
      "anonymous": false,
      "inputs": [
        {
          "indexed": false,
          "internalType": "address",
          "name": "customer",
          "type": "address"
        },
        {
          "indexed": false,
          "internalType": "uint256",
          "name": "prodId",
          "type": "uint256"
        }
      ],
      "name": "CartProductInsertionFailed",
      "type": "event"
    },
    {
      "anonymous": false,
      "inputs": [
        {
          "indexed": false,
          "internalType": "address",
          "name": "customer",
          "type": "address"
        },
        {
          "indexed": false,
          "internalType": "uint256",
          "name": "prodId",
          "type": "uint256"
        }
      ],
      "name": "CartProductRemoved",
      "type": "event"
    },
    {
      "anonymous": false,
      "inputs": [
        {
          "indexed": false,
          "internalType": "address",
          "name": "customer",
          "type": "address"
        }
      ],
      "name": "CustomerRegistered",
      "type": "event"
    },
    {
      "anonymous": false,
      "inputs": [
        {
          "indexed": false,
          "internalType": "address",
          "name": "customer",
          "type": "address"
        }
      ],
      "name": "CustomerRegistrationFailed",
      "type": "event"
    },
    {
      "anonymous": false,
      "inputs": [
        {
          "indexed": false,
          "internalType": "uint256",
          "name": "id",
          "type": "uint256"
        },
        {
          "indexed": false,
          "internalType": "string",
          "name": "name",
          "type": "string"
        },
        {
          "indexed": false,
          "internalType": "string",
          "name": "description",
          "type": "string"
        },
        {
          "indexed": false,
          "internalType": "uint256",
          "name": "price",
          "type": "uint256"
        },
        {
          "indexed": false,
          "internalType": "string",
          "name": "imgipfshash",
          "type": "string"
        },
        {
          "indexed": false,
          "internalType": "string",
          "name": "fileipfshash",
          "type": "string"
        },
        {
          "indexed": false,
          "internalType": "address",
          "name": "owner",
          "type": "address"
        }
      ],
      "name": "ProductCreated",
      "type": "event"
    },
    {
      "anonymous": false,
      "inputs": [
        {
          "indexed": false,
          "internalType": "uint256",
          "name": "id",
          "type": "uint256"
        },
        {
          "indexed": false,
          "internalType": "string",
          "name": "name",
          "type": "string"
        },
        {
          "indexed": false,
          "internalType": "string",
          "name": "description",
          "type": "string"
        },
        {
          "indexed": false,
          "internalType": "uint256",
          "name": "price",
          "type": "uint256"
        },
        {
          "indexed": false,
          "internalType": "string",
          "name": "imgipfshash",
          "type": "string"
        },
        {
          "indexed": false,
          "internalType": "address",
          "name": "owner",
          "type": "address"
        }
      ],
      "name": "ProductPurchased",
      "type": "event"
    },
    {
      "inputs": [
        {
          "internalType": "uint256",
          "name": "",
          "type": "uint256"
        }
      ],
      "name": "addressLUT",
      "outputs": [
        {
          "internalType": "address",
          "name": "",
          "type": "address"
        }
      ],
      "stateMutability": "view",
      "type": "function",
      "constant": true
    },
    {
      "inputs": [],
      "name": "customerCount",
      "outputs": [
        {
          "internalType": "uint256",
          "name": "",
          "type": "uint256"
        }
      ],
      "stateMutability": "view",
      "type": "function",
      "constant": true
    },
    {
      "inputs": [
        {
          "internalType": "address",
          "name": "",
          "type": "address"
        }
      ],
      "name": "customers",
      "outputs": [
        {
          "internalType": "address",
          "name": "adr",
          "type": "address"
        },
        {
          "internalType": "string",
          "name": "name",
          "type": "string"
        }
      ],
      "stateMutability": "view",
      "type": "function",
      "constant": true
    },
    {
      "inputs": [
        {
          "internalType": "uint256",
          "name": "",
          "type": "uint256"
        }
      ],
      "name": "files",
      "outputs": [
        {
          "internalType": "string",
          "name": "",
          "type": "string"
        }
      ],
      "stateMutability": "view",
      "type": "function",
      "constant": true
    },
    {
      "inputs": [],
      "name": "flag",
      "outputs": [
        {
          "internalType": "bool",
          "name": "",
          "type": "bool"
        }
      ],
      "stateMutability": "view",
      "type": "function",
      "constant": true
    },
    {
      "inputs": [],
      "name": "productCount",
      "outputs": [
        {
          "internalType": "uint256",
          "name": "",
          "type": "uint256"
        }
      ],
      "stateMutability": "view",
      "type": "function",
      "constant": true
    },
    {
      "inputs": [
        {
          "internalType": "uint256",
          "name": "",
          "type": "uint256"
        }
      ],
      "name": "products",
      "outputs": [
        {
          "internalType": "uint256",
          "name": "id",
          "type": "uint256"
        },
        {
          "internalType": "string",
          "name": "name",
          "type": "string"
        },
        {
          "internalType": "string",
          "name": "description",
          "type": "string"
        },
        {
          "internalType": "uint256",
          "name": "price",
          "type": "uint256"
        },
        {
          "internalType": "string",
          "name": "imgipfshash",
          "type": "string"
        },
        {
          "internalType": "address",
          "name": "owner",
          "type": "address"
        },
        {
          "internalType": "enum Marketplace.Categories",
          "name": "categorie",
          "type": "uint8"
        },
        {
          "internalType": "uint256",
          "name": "uploadedOn",
          "type": "uint256"
        },
        {
          "internalType": "uint256",
          "name": "rate",
          "type": "uint256"
        },
        {
          "internalType": "uint256",
          "name": "reviewsCount",
          "type": "uint256"
        },
        {
          "internalType": "uint256",
          "name": "totalSold",
          "type": "uint256"
        },
        {
          "internalType": "uint256",
          "name": "report",
          "type": "uint256"
        }
      ],
      "stateMutability": "view",
      "type": "function",
      "constant": true
    },
    {
      "inputs": [
        {
          "internalType": "string",
          "name": "_name",
          "type": "string"
        },
        {
          "internalType": "string",
          "name": "_description",
          "type": "string"
        },
        {
          "internalType": "uint256",
          "name": "_price",
          "type": "uint256"
        },
        {
          "internalType": "string",
          "name": "_imgipfshash",
          "type": "string"
        },
        {
          "internalType": "string",
          "name": "_fileipfshash",
          "type": "string"
        },
        {
          "internalType": "enum Marketplace.Categories",
          "name": "_categorie",
          "type": "uint8"
        }
      ],
      "name": "createProduct",
      "outputs": [],
      "stateMutability": "nonpayable",
      "type": "function"
    },
    {
      "inputs": [
        {
          "internalType": "uint256",
          "name": "_id",
          "type": "uint256"
        }
      ],
      "name": "purchaseProduct",
      "outputs": [],
      "stateMutability": "payable",
      "type": "function",
      "payable": true
    },
    {
      "inputs": [
        {
          "internalType": "uint256",
          "name": "id1",
          "type": "uint256"
        }
      ],
      "name": "removeProduct",
      "outputs": [],
      "stateMutability": "nonpayable",
      "type": "function"
    },
    {
      "inputs": [
        {
          "internalType": "uint256",
          "name": "_id",
          "type": "uint256"
        },
        {
          "internalType": "string",
          "name": "_name",
          "type": "string"
        },
        {
          "internalType": "string",
          "name": "_des",
          "type": "string"
        },
        {
          "internalType": "uint256",
          "name": "_price",
          "type": "uint256"
        },
        {
          "internalType": "enum Marketplace.Categories",
          "name": "_categorie",
          "type": "uint8"
        }
      ],
      "name": "editProduct",
      "outputs": [],
      "stateMutability": "nonpayable",
      "type": "function"
    },
    {
      "inputs": [
        {
          "internalType": "uint256",
          "name": "_id",
          "type": "uint256"
        },
        {
          "internalType": "uint256",
          "name": "_rate",
          "type": "uint256"
        },
        {
          "internalType": "uint256",
          "name": "_score",
          "type": "uint256"
        },
        {
          "internalType": "string",
          "name": "_review",
          "type": "string"
        }
      ],
      "name": "reviewProduct",
      "outputs": [],
      "stateMutability": "nonpayable",
      "type": "function"
    },
    {
      "inputs": [
        {
          "internalType": "address",
          "name": "_address",
          "type": "address"
        },
        {
          "internalType": "string",
          "name": "_name",
          "type": "string"
        }
      ],
      "name": "registerCustomer",
      "outputs": [
        {
          "internalType": "bool",
          "name": "success",
          "type": "bool"
        }
      ],
      "stateMutability": "nonpayable",
      "type": "function"
    },
    {
      "inputs": [
        {
          "internalType": "uint256",
          "name": "_id",
          "type": "uint256"
        }
      ],
      "name": "report",
      "outputs": [],
      "stateMutability": "nonpayable",
      "type": "function"
    },
    {
      "inputs": [
        {
          "internalType": "uint256",
          "name": "_id",
          "type": "uint256"
        }
      ],
      "name": "getReport",
      "outputs": [
        {
          "internalType": "uint256",
          "name": "",
          "type": "uint256"
        }
      ],
      "stateMutability": "view",
      "type": "function",
      "constant": true
    },
    {
      "inputs": [
        {
          "internalType": "uint256",
          "name": "_id",
          "type": "uint256"
        }
      ],
      "name": "getProductReviews",
      "outputs": [
        {
          "components": [
            {
              "internalType": "bool",
              "name": "isBuy",
              "type": "bool"
            },
            {
              "internalType": "bool",
              "name": "isReview",
              "type": "bool"
            },
            {
              "internalType": "address",
              "name": "adr",
              "type": "address"
            },
            {
              "internalType": "string",
              "name": "name",
              "type": "string"
            },
            {
              "internalType": "uint256",
              "name": "rate",
              "type": "uint256"
            },
            {
              "internalType": "string",
              "name": "reviewDescription",
              "type": "string"
            },
            {
              "internalType": "uint256",
              "name": "score",
              "type": "uint256"
            },
            {
              "internalType": "uint256",
              "name": "timeStamp",
              "type": "uint256"
            }
          ],
          "internalType": "struct Marketplace.Review[]",
          "name": "",
          "type": "tuple[]"
        }
      ],
      "stateMutability": "view",
      "type": "function",
      "constant": true
    },
    {
      "inputs": [
        {
          "internalType": "uint256",
          "name": "_id",
          "type": "uint256"
        }
      ],
      "name": "getProductBuyers",
      "outputs": [
        {
          "internalType": "address[]",
          "name": "",
          "type": "address[]"
        }
      ],
      "stateMutability": "view",
      "type": "function",
      "constant": true
    },
    {
      "inputs": [
        {
          "internalType": "uint256",
          "name": "_id",
          "type": "uint256"
        }
      ],
      "name": "getProductfile",
      "outputs": [
        {
          "internalType": "string",
          "name": "",
          "type": "string"
        }
      ],
      "stateMutability": "view",
      "type": "function",
      "constant": true
    },
    {
      "inputs": [
        {
          "internalType": "address",
          "name": "adr",
          "type": "address"
        }
      ],
      "name": "getPurchasedProducts",
      "outputs": [
        {
          "internalType": "uint256[]",
          "name": "",
          "type": "uint256[]"
        }
      ],
      "stateMutability": "view",
      "type": "function",
      "constant": true
    }
  ],
  "bytecode": "0x60806040526000805560006001556000600260006101000a81548160ff021916908315150217905550606460075534801561003957600080fd5b50613480806100496000396000f3fe6080604052600436106101145760003560e01c80637acc0b20116100a0578063aca4901811610064578063aca49018146103d2578063cc94f2d91461040f578063db1970f41461044c578063e0f6ef8714610489578063f4c714b4146104b457610114565b80637acc0b20146102e25780637b61b7021461032a578063890eba6814610353578063969b1cdb1461037e5780639757e8a3146103a757610114565b806342761c85116100e757806342761c85146101d957806343308eef1461020257806346a4237b1461023f5780634e7f9b191461027c5780635ee95cae146102b957610114565b80630b784d2d146101195780630fb9398f14610142578063336989ae1461017f57806338e76a03146101bd575b600080fd5b34801561012557600080fd5b50610140600480360381019061013b9190612642565b6104f1565b005b34801561014e57600080fd5b506101696004803603810190610164919061273f565b610804565b6040516101769190612c97565b60405180910390f35b34801561018b57600080fd5b506101a660048036038101906101a191906125b9565b6108a8565b6040516101b4929190612c67565b60405180910390f35b6101d760048036038101906101d2919061273f565b610974565b005b3480156101e557600080fd5b5061020060048036038101906101fb919061281f565b610c0d565b005b34801561020e57600080fd5b506102296004803603810190610224919061273f565b6112fa565b6040516102369190612d18565b60405180910390f35b34801561024b57600080fd5b506102666004803603810190610261919061273f565b6115af565b6040516102739190612cb9565b60405180910390f35b34801561028857600080fd5b506102a3600480360381019061029e919061273f565b6117f3565b6040516102b09190612d5a565b60405180910390f35b3480156102c557600080fd5b506102e060048036038101906102db919061273f565b611813565b005b3480156102ee57600080fd5b506103096004803603810190610304919061273f565b61195a565b6040516103219c9b9a99989796959493929190612d75565b60405180910390f35b34801561033657600080fd5b50610351600480360381019061034c919061276c565b611b7f565b005b34801561035f57600080fd5b50610368611ca0565b6040516103759190612cfd565b60405180910390f35b34801561038a57600080fd5b506103a560048036038101906103a0919061273f565b611cb3565b005b3480156103b357600080fd5b506103bc611de5565b6040516103c99190612d5a565b60405180910390f35b3480156103de57600080fd5b506103f960048036038101906103f4919061273f565b611deb565b6040516104069190612c4c565b60405180910390f35b34801561041b57600080fd5b50610436600480360381019061043191906125b9565b611e1e565b6040516104439190612cdb565b60405180910390f35b34801561045857600080fd5b50610473600480360381019061046e91906125e6565b611eb8565b6040516104809190612cfd565b60405180910390f35b34801561049557600080fd5b5061049e6120ad565b6040516104ab9190612d5a565b60405180910390f35b3480156104c057600080fd5b506104db60048036038101906104d6919061273f565b6120b3565b6040516104e89190612d18565b60405180910390f35b60008651116104ff57600080fd5b600085511161050d57600080fd5b6000841161051a57600080fd5b600083511161052857600080fd5b600082511161053657600080fd5b600042905060008081548092919061054d90613221565b9190505550600054600360008054815260200190815260200160002060000181905550866003600080548152602001908152602001600020600101908051906020019061059b929190612153565b5085600360008054815260200190815260200160002060020190805190602001906105c7929190612153565b5084600360008054815260200190815260200160002060030181905550836003600080548152602001908152602001600020600401908051906020019061060f929190612153565b508260066000805481526020019081526020016000209080519060200190610638929190612153565b5033600360008054815260200190815260200160002060050160006101000a81548173ffffffffffffffffffffffffffffffffffffffff021916908373ffffffffffffffffffffffffffffffffffffffff16021790555081600360008054815260200190815260200160002060050160146101000a81548160ff0219169083600a8111156106c9576106c86132c8565b5b021790555080600360008054815260200190815260200160002060060181905550600060036000805481526020019081526020016000206008018190555060006003600080548152602001908152602001600020600e018190555060006003600080548152602001908152602001600020600a0181905550600067ffffffffffffffff81111561075c5761075b613355565b5b60405190808252806020026020018201604052801561078a5781602001602082028036833780820191505090505b50600360008054815260200190815260200160002060090190805190602001906107b59291906121d9565b507f1a3f2c9175d23760b6304c5f19e98b7b12dd25309a0a92996815dcf864cece096000548888888888336040516107f39796959493929190612e44565b60405180910390a150505050505050565b60606003600083815260200190815260200160002060090180548060200260200160405190810160405280929190818152602001828054801561089c57602002820191906000526020600020905b8160009054906101000a900473ffffffffffffffffffffffffffffffffffffffff1673ffffffffffffffffffffffffffffffffffffffff1681526020019060010190808311610852575b50505050509050919050565b60046020528060005260406000206000915090508060000160009054906101000a900473ffffffffffffffffffffffffffffffffffffffff16908060010180546108f1906131be565b80601f016020809104026020016040519081016040528092919081815260200182805461091d906131be565b801561096a5780601f1061093f5761010080835404028352916020019161096a565b820191906000526020600020905b81548152906001019060200180831161094d57829003601f168201915b5050505050905082565b60006003600083815260200190815260200160002060050160009054906101000a900473ffffffffffffffffffffffffffffffffffffffff169050600160036000848152602001908152602001600020600c0160003373ffffffffffffffffffffffffffffffffffffffff1673ffffffffffffffffffffffffffffffffffffffff16815260200190815260200160002060000160006101000a81548160ff02191690831515021790555060036000838152602001908152602001600020600901339080600181540180825580915050600190039060005260206000200160009091909190916101000a81548173ffffffffffffffffffffffffffffffffffffffff021916908373ffffffffffffffffffffffffffffffffffffffff16021790555060036000838152602001908152602001600020600a016000815480929190610abc90613221565b9190505550600460003373ffffffffffffffffffffffffffffffffffffffff1673ffffffffffffffffffffffffffffffffffffffff1681526020019081526020016000206002018290806001815401808255809150506001900390600052602060002001600090919091909150558073ffffffffffffffffffffffffffffffffffffffff166108fc349081150290604051600060405180830381858888f19350505050158015610b70573d6000803e3d6000fd5b507fa60391b5fc12a2bf84e95996952da9569290e72de60381dafc011bc0fbbd6af1600054600360008581526020019081526020016000206001016003600086815260200190815260200160002060020160036000878152602001908152602001600020600301546003600088815260200190815260200160002060040133604051610c0196959493929190612ecf565b60405180910390a15050565b6001151560036000868152602001908152602001600020600c0160003373ffffffffffffffffffffffffffffffffffffffff1673ffffffffffffffffffffffffffffffffffffffff16815260200190815260200160002060000160009054906101000a900460ff16151514610cb7576040517f08c379a0000000000000000000000000000000000000000000000000000000008152600401610cae90612d3a565b60405180910390fd5b6000151560036000868152602001908152602001600020600c0160003373ffffffffffffffffffffffffffffffffffffffff1673ffffffffffffffffffffffffffffffffffffffff16815260200190815260200160002060000160019054906101000a900460ff16151514156112f457600160036000868152602001908152602001600020600c0160003373ffffffffffffffffffffffffffffffffffffffff1673ffffffffffffffffffffffffffffffffffffffff16815260200190815260200160002060000160016101000a81548160ff0219169083151502179055503360036000868152602001908152602001600020600c0160003373ffffffffffffffffffffffffffffffffffffffff1673ffffffffffffffffffffffffffffffffffffffff16815260200190815260200160002060000160026101000a81548173ffffffffffffffffffffffffffffffffffffffff021916908373ffffffffffffffffffffffffffffffffffffffff160217905550600460003373ffffffffffffffffffffffffffffffffffffffff1673ffffffffffffffffffffffffffffffffffffffff16815260200190815260200160002060010160036000868152602001908152602001600020600c0160003373ffffffffffffffffffffffffffffffffffffffff1673ffffffffffffffffffffffffffffffffffffffff168152602001908152602001600020600101908054610ecf906131be565b610eda929190612263565b508260036000868152602001908152602001600020600c0160003373ffffffffffffffffffffffffffffffffffffffff1673ffffffffffffffffffffffffffffffffffffffff168152602001908152602001600020600201819055508060036000868152602001908152602001600020600c0160003373ffffffffffffffffffffffffffffffffffffffff1673ffffffffffffffffffffffffffffffffffffffff1681526020019081526020016000206003019080519060200190610fa0929190612153565b508160036000868152602001908152602001600020600c0160003373ffffffffffffffffffffffffffffffffffffffff1673ffffffffffffffffffffffffffffffffffffffff168152602001908152602001600020600401819055504260036000868152602001908152602001600020600c0160003373ffffffffffffffffffffffffffffffffffffffff1673ffffffffffffffffffffffffffffffffffffffff1681526020019081526020016000206005018190555060036000858152602001908152602001600020600b0160036000868152602001908152602001600020600c0160003373ffffffffffffffffffffffffffffffffffffffff1673ffffffffffffffffffffffffffffffffffffffff16815260200190815260200160002090806001815401808255809150506001900390600052602060002090600602016000909190919091506000820160009054906101000a900460ff168160000160006101000a81548160ff0219169083151502179055506000820160019054906101000a900460ff168160000160016101000a81548160ff0219169083151502179055506000820160029054906101000a900473ffffffffffffffffffffffffffffffffffffffff168160000160026101000a81548173ffffffffffffffffffffffffffffffffffffffff021916908373ffffffffffffffffffffffffffffffffffffffff16021790555060018201816001019080546111be906131be565b6111c99291906122f0565b506002820154816002015560038201816003019080546111e8906131be565b6111f39291906122f0565b506004820154816004015560058201548160050155505060036000858152602001908152602001600020600801600081548092919061123190613221565b91905055506000805b60036000878152602001908152602001600020600b01805490508110156112b55760036000878152602001908152602001600020600b01818154811061128357611282613326565b5b906000526020600020906006020160020154826112a09190613088565b915080806112ad90613221565b91505061123a565b506003600086815260200190815260200160002060080154816112d891906130de565b6003600087815260200190815260200160002060070181905550505b50505050565b60603373ffffffffffffffffffffffffffffffffffffffff166003600084815260200190815260200160002060050160009054906101000a900473ffffffffffffffffffffffffffffffffffffffff1673ffffffffffffffffffffffffffffffffffffffff16141561140957600660008381526020019081526020016000208054611384906131be565b80601f01602080910402602001604051908101604052809291908181526020018280546113b0906131be565b80156113fd5780601f106113d2576101008083540402835291602001916113fd565b820191906000526020600020905b8154815290600101906020018083116113e057829003601f168201915b505050505090506115aa565b6000600360008481526020019081526020016000206009018054905011156115925760005b600360008481526020019081526020016000206009018054905081101561158c573373ffffffffffffffffffffffffffffffffffffffff1660036000858152602001908152602001600020600901828154811061148e5761148d613326565b5b9060005260206000200160009054906101000a900473ffffffffffffffffffffffffffffffffffffffff1673ffffffffffffffffffffffffffffffffffffffff161415611579576006600084815260200190815260200160002080546114f3906131be565b80601f016020809104026020016040519081016040528092919081815260200182805461151f906131be565b801561156c5780601f106115415761010080835404028352916020019161156c565b820191906000526020600020905b81548152906001019060200180831161154f57829003601f168201915b50505050509150506115aa565b808061158490613221565b91505061142e565b506115a9565b6040518060200160405280600081525090506115aa565b5b919050565b606060036000838152602001908152602001600020600b01805480602002602001604051908101604052809291908181526020016000905b828210156117e85783829060005260206000209060060201604051806101000160405290816000820160009054906101000a900460ff161515151581526020016000820160019054906101000a900460ff161515151581526020016000820160029054906101000a900473ffffffffffffffffffffffffffffffffffffffff1673ffffffffffffffffffffffffffffffffffffffff1673ffffffffffffffffffffffffffffffffffffffff1681526020016001820180546116a7906131be565b80601f01602080910402602001604051908101604052809291908181526020018280546116d3906131be565b80156117205780601f106116f557610100808354040283529160200191611720565b820191906000526020600020905b81548152906001019060200180831161170357829003601f168201915b5050505050815260200160028201548152602001600382018054611743906131be565b80601f016020809104026020016040519081016040528092919081815260200182805461176f906131be565b80156117bc5780601f10611791576101008083540402835291602001916117bc565b820191906000526020600020905b81548152906001019060200180831161179f57829003601f168201915b5050505050815260200160048201548152602001600582015481525050815260200190600101906115e7565b505050509050919050565b600060036000838152602001908152602001600020600e01549050919050565b6003600082815260200190815260200160002060050160009054906101000a900473ffffffffffffffffffffffffffffffffffffffff1673ffffffffffffffffffffffffffffffffffffffff163373ffffffffffffffffffffffffffffffffffffffff16141561195757600360008281526020019081526020016000206000808201600090556001820160006118a9919061237d565b6002820160006118b9919061237d565b60038201600090556004820160006118d1919061237d565b6005820160006101000a81549073ffffffffffffffffffffffffffffffffffffffff02191690556005820160146101000a81549060ff021916905560068201600090556007820160009055600882016000905560098201600061193491906123bd565b600a820160009055600b8201600061194c91906123de565b600e82016000905550505b50565b6003602052806000526040600020600091509050806000015490806001018054611983906131be565b80601f01602080910402602001604051908101604052809291908181526020018280546119af906131be565b80156119fc5780601f106119d1576101008083540402835291602001916119fc565b820191906000526020600020905b8154815290600101906020018083116119df57829003601f168201915b505050505090806002018054611a11906131be565b80601f0160208091040260200160405190810160405280929190818152602001828054611a3d906131be565b8015611a8a5780601f10611a5f57610100808354040283529160200191611a8a565b820191906000526020600020905b815481529060010190602001808311611a6d57829003601f168201915b505050505090806003015490806004018054611aa5906131be565b80601f0160208091040260200160405190810160405280929190818152602001828054611ad1906131be565b8015611b1e5780601f10611af357610100808354040283529160200191611b1e565b820191906000526020600020905b815481529060010190602001808311611b0157829003601f168201915b5050505050908060050160009054906101000a900473ffffffffffffffffffffffffffffffffffffffff16908060050160149054906101000a900460ff169080600601549080600701549080600801549080600a01549080600e015490508c565b6003600086815260200190815260200160002060050160009054906101000a900473ffffffffffffffffffffffffffffffffffffffff1673ffffffffffffffffffffffffffffffffffffffff163373ffffffffffffffffffffffffffffffffffffffff161415611c995783600360008781526020019081526020016000206001019080519060200190611c13929190612153565b5082600360008781526020019081526020016000206002019080519060200190611c3e929190612153565b50816003600087815260200190815260200160002060030181905550806003600087815260200190815260200160002060050160146101000a81548160ff0219169083600a811115611c9357611c926132c8565b5b02179055505b5050505050565b600260009054906101000a900460ff1681565b6000151560036000838152602001908152602001600020600d0160003373ffffffffffffffffffffffffffffffffffffffff1673ffffffffffffffffffffffffffffffffffffffff16815260200190815260200160002060009054906101000a900460ff1615151415611de25760036000828152602001908152602001600020600e016000815480929190611d4790613221565b9190505550600160036000838152602001908152602001600020600d0160003373ffffffffffffffffffffffffffffffffffffffff1673ffffffffffffffffffffffffffffffffffffffff16815260200190815260200160002060006101000a81548160ff02191690831515021790555060075460036000838152602001908152602001600020600e015410611de157611de081611813565b5b5b50565b60015481565b60056020528060005260406000206000915054906101000a900473ffffffffffffffffffffffffffffffffffffffff1681565b6060600460008373ffffffffffffffffffffffffffffffffffffffff1673ffffffffffffffffffffffffffffffffffffffff168152602001908152602001600020600201805480602002602001604051908101604052809291908181526020018280548015611eac57602002820191906000526020600020905b815481526020019060010190808311611e98575b50505050509050919050565b60008060405180606001604052808573ffffffffffffffffffffffffffffffffffffffff168152602001848152602001600067ffffffffffffffff811115611f0357611f02613355565b5b604051908082528060200260200182016040528015611f315781602001602082028036833780820191505090505b50815250905060016000815480929190611f4a90613221565b9190505550806000015160056000600154815260200190815260200160002060006101000a81548173ffffffffffffffffffffffffffffffffffffffff021916908373ffffffffffffffffffffffffffffffffffffffff16021790555080600460008673ffffffffffffffffffffffffffffffffffffffff1673ffffffffffffffffffffffffffffffffffffffff16815260200190815260200160002060008201518160000160006101000a81548173ffffffffffffffffffffffffffffffffffffffff021916908373ffffffffffffffffffffffffffffffffffffffff160217905550602082015181600101908051906020019061204a929190612153565b506040820151816002019080519060200190612067929190612402565b509050507f155e8619f4d23b96769599cb9af87da3e06a360082869c18578011da9a06e6708460405161209a9190612c4c565b60405180910390a1600191505092915050565b60005481565b600660205280600052604060002060009150905080546120d2906131be565b80601f01602080910402602001604051908101604052809291908181526020018280546120fe906131be565b801561214b5780601f106121205761010080835404028352916020019161214b565b820191906000526020600020905b81548152906001019060200180831161212e57829003601f168201915b505050505081565b82805461215f906131be565b90600052602060002090601f01602090048101928261218157600085556121c8565b82601f1061219a57805160ff19168380011785556121c8565b828001600101855582156121c8579182015b828111156121c75782518255916020019190600101906121ac565b5b5090506121d5919061244f565b5090565b828054828255906000526020600020908101928215612252579160200282015b828111156122515782518260006101000a81548173ffffffffffffffffffffffffffffffffffffffff021916908373ffffffffffffffffffffffffffffffffffffffff160217905550916020019190600101906121f9565b5b50905061225f919061244f565b5090565b82805461226f906131be565b90600052602060002090601f01602090048101928261229157600085556122df565b82601f106122a257805485556122df565b828001600101855582156122df57600052602060002091601f016020900482015b828111156122de5782548255916001019190600101906122c3565b5b5090506122ec919061244f565b5090565b8280546122fc906131be565b90600052602060002090601f01602090048101928261231e576000855561236c565b82601f1061232f578054855561236c565b8280016001018555821561236c57600052602060002091601f016020900482015b8281111561236b578254825591600101919060010190612350565b5b509050612379919061244f565b5090565b508054612389906131be565b6000825580601f1061239b57506123ba565b601f0160209004906000526020600020908101906123b9919061244f565b5b50565b50805460008255906000526020600020908101906123db919061244f565b50565b50805460008255600602906000526020600020908101906123ff919061246c565b50565b82805482825590600052602060002090810192821561243e579160200282015b8281111561243d578251825591602001919060010190612422565b5b50905061244b919061244f565b5090565b5b80821115612468576000816000905550600101612450565b5090565b5b8082111561250657600080820160006101000a81549060ff02191690556000820160016101000a81549060ff02191690556000820160026101000a81549073ffffffffffffffffffffffffffffffffffffffff02191690556001820160006124d5919061237d565b60028201600090556003820160006124ed919061237d565b600482016000905560058201600090555060060161246d565b5090565b600061251d61251884612f6a565b612f45565b90508281526020810184848401111561253957612538613389565b5b61254484828561317c565b509392505050565b60008135905061255b8161340c565b92915050565b60008135905061257081613423565b92915050565b600082601f83011261258b5761258a613384565b5b813561259b84826020860161250a565b91505092915050565b6000813590506125b381613433565b92915050565b6000602082840312156125cf576125ce613393565b5b60006125dd8482850161254c565b91505092915050565b600080604083850312156125fd576125fc613393565b5b600061260b8582860161254c565b925050602083013567ffffffffffffffff81111561262c5761262b61338e565b5b61263885828601612576565b9150509250929050565b60008060008060008060c0878903121561265f5761265e613393565b5b600087013567ffffffffffffffff81111561267d5761267c61338e565b5b61268989828a01612576565b965050602087013567ffffffffffffffff8111156126aa576126a961338e565b5b6126b689828a01612576565b95505060406126c789828a016125a4565b945050606087013567ffffffffffffffff8111156126e8576126e761338e565b5b6126f489828a01612576565b935050608087013567ffffffffffffffff8111156127155761271461338e565b5b61272189828a01612576565b92505060a061273289828a01612561565b9150509295509295509295565b60006020828403121561275557612754613393565b5b6000612763848285016125a4565b91505092915050565b600080600080600060a0868803121561278857612787613393565b5b6000612796888289016125a4565b955050602086013567ffffffffffffffff8111156127b7576127b661338e565b5b6127c388828901612576565b945050604086013567ffffffffffffffff8111156127e4576127e361338e565b5b6127f088828901612576565b9350506060612801888289016125a4565b925050608061281288828901612561565b9150509295509295909350565b6000806000806080858703121561283957612838613393565b5b6000612847878288016125a4565b9450506020612858878288016125a4565b9350506040612869878288016125a4565b925050606085013567ffffffffffffffff81111561288a5761288961338e565b5b61289687828801612576565b91505092959194509250565b60006128ae83836128e6565b60208301905092915050565b60006128c68383612b77565b905092915050565b60006128da8383612c2e565b60208301905092915050565b6128ef8161310f565b82525050565b6128fe8161310f565b82525050565b600061290f82612fe0565b6129198185613033565b935061292483612f9b565b8060005b8381101561295557815161293c88826128a2565b97506129478361300c565b925050600181019050612928565b5085935050505092915050565b600061296d82612feb565b6129778185613044565b93508360208202850161298985612fab565b8060005b858110156129c557848403895281516129a685826128ba565b94506129b183613019565b925060208a0199505060018101905061298d565b50829750879550505050505092915050565b60006129e282612ff6565b6129ec8185613055565b93506129f783612fbb565b8060005b83811015612a28578151612a0f88826128ce565b9750612a1a83613026565b9250506001810190506129fb565b5085935050505092915050565b612a3e81613121565b82525050565b612a4d81613121565b82525050565b612a5c8161316a565b82525050565b6000612a6d82613001565b612a778185613066565b9350612a8781856020860161318b565b612a9081613398565b840191505092915050565b6000612aa682613001565b612ab08185613077565b9350612ac081856020860161318b565b612ac981613398565b840191505092915050565b60008154612ae1816131be565b612aeb8186613077565b94506001821660008114612b065760018114612b1857612b4b565b60ff1983168652602086019350612b4b565b612b2185612fcb565b60005b83811015612b4357815481890152600182019150602081019050612b24565b808801955050505b50505092915050565b6000612b61602b83613077565b9150612b6c826133a9565b604082019050919050565b600061010083016000830151612b906000860182612a35565b506020830151612ba36020860182612a35565b506040830151612bb660408601826128e6565b5060608301518482036060860152612bce8282612a62565b9150506080830151612be36080860182612c2e565b5060a083015184820360a0860152612bfb8282612a62565b91505060c0830151612c1060c0860182612c2e565b5060e0830151612c2360e0860182612c2e565b508091505092915050565b612c3781613160565b82525050565b612c4681613160565b82525050565b6000602082019050612c6160008301846128f5565b92915050565b6000604082019050612c7c60008301856128f5565b8181036020830152612c8e8184612a9b565b90509392505050565b60006020820190508181036000830152612cb18184612904565b905092915050565b60006020820190508181036000830152612cd38184612962565b905092915050565b60006020820190508181036000830152612cf581846129d7565b905092915050565b6000602082019050612d126000830184612a44565b92915050565b60006020820190508181036000830152612d328184612a9b565b905092915050565b60006020820190508181036000830152612d5381612b54565b9050919050565b6000602082019050612d6f6000830184612c3d565b92915050565b600061018082019050612d8b600083018f612c3d565b8181036020830152612d9d818e612a9b565b90508181036040830152612db1818d612a9b565b9050612dc0606083018c612c3d565b8181036080830152612dd2818b612a9b565b9050612de160a083018a6128f5565b612dee60c0830189612a53565b612dfb60e0830188612c3d565b612e09610100830187612c3d565b612e17610120830186612c3d565b612e25610140830185612c3d565b612e33610160830184612c3d565b9d9c50505050505050505050505050565b600060e082019050612e59600083018a612c3d565b8181036020830152612e6b8189612a9b565b90508181036040830152612e7f8188612a9b565b9050612e8e6060830187612c3d565b8181036080830152612ea08186612a9b565b905081810360a0830152612eb48185612a9b565b9050612ec360c08301846128f5565b98975050505050505050565b600060c082019050612ee46000830189612c3d565b8181036020830152612ef68188612ad4565b90508181036040830152612f0a8187612ad4565b9050612f196060830186612c3d565b8181036080830152612f2b8185612ad4565b9050612f3a60a08301846128f5565b979650505050505050565b6000612f4f612f60565b9050612f5b82826131f0565b919050565b6000604051905090565b600067ffffffffffffffff821115612f8557612f84613355565b5b612f8e82613398565b9050602081019050919050565b6000819050602082019050919050565b6000819050602082019050919050565b6000819050602082019050919050565b60008190508160005260206000209050919050565b600081519050919050565b600081519050919050565b600081519050919050565b600081519050919050565b6000602082019050919050565b6000602082019050919050565b6000602082019050919050565b600082825260208201905092915050565b600082825260208201905092915050565b600082825260208201905092915050565b600082825260208201905092915050565b600082825260208201905092915050565b600061309382613160565b915061309e83613160565b9250827fffffffffffffffffffffffffffffffffffffffffffffffffffffffffffffffff038211156130d3576130d261326a565b5b828201905092915050565b60006130e982613160565b91506130f483613160565b92508261310457613103613299565b5b828204905092915050565b600061311a82613140565b9050919050565b60008115159050919050565b600081905061313b826133f8565b919050565b600073ffffffffffffffffffffffffffffffffffffffff82169050919050565b6000819050919050565b60006131758261312d565b9050919050565b82818337600083830152505050565b60005b838110156131a957808201518184015260208101905061318e565b838111156131b8576000848401525b50505050565b600060028204905060018216806131d657607f821691505b602082108114156131ea576131e96132f7565b5b50919050565b6131f982613398565b810181811067ffffffffffffffff8211171561321857613217613355565b5b80604052505050565b600061322c82613160565b91507fffffffffffffffffffffffffffffffffffffffffffffffffffffffffffffffff82141561325f5761325e61326a565b5b600182019050919050565b7f4e487b7100000000000000000000000000000000000000000000000000000000600052601160045260246000fd5b7f4e487b7100000000000000000000000000000000000000000000000000000000600052601260045260246000fd5b7f4e487b7100000000000000000000000000000000000000000000000000000000600052602160045260246000fd5b7f4e487b7100000000000000000000000000000000000000000000000000000000600052602260045260246000fd5b7f4e487b7100000000000000000000000000000000000000000000000000000000600052603260045260246000fd5b7f4e487b7100000000000000000000000000000000000000000000000000000000600052604160045260246000fd5b600080fd5b600080fd5b600080fd5b600080fd5b6000601f19601f8301169050919050565b7f596f7520617265206e6f7420656c696769626c6520746f20726576696577207460008201527f6869732070726f64756374000000000000000000000000000000000000000000602082015250565b600b8110613409576134086132c8565b5b50565b6134158161310f565b811461342057600080fd5b50565b600b811061343057600080fd5b50565b61343c81613160565b811461344757600080fd5b5056fea26469706673582212208ecb59eae69492ede14916983b75f8a60845df87dd319e3dac44ffee06fcb85164736f6c63430008070033",
  "immutableReferences": {},
  "source": "//buyer w purchasedProduct\r\n// SPDX-License-Identifier: MIT\r\npragma solidity  ^0.8.0;\r\n\r\ncontract Marketplace {\r\n    //string public name;\r\n    uint public productCount = 0;\r\n    uint public customerCount = 0;\r\n    //to store the products on blockchain\r\n    bool public flag = false;\r\n    mapping(uint => Product) public products;\r\n    //mapping(uint => uint[]) public productsRates;\r\n    //mapping(uint => string[]) public productsReviews;\r\n    //to store the customers on blockchain\r\n    mapping(address  => Customer) public customers;\r\n    mapping(uint => address) public addressLUT;\r\n    mapping(uint => string) public files;\r\n    uint256 MAXREPORT = 100;\r\n    \r\n    enum Categories {\r\n        Tech,\r\n        PCGames,\r\n        PS4Games,\r\n        XboxGames,\r\n        Movies,\r\n        Courses,\r\n        Books,\r\n        AudioBooks,\r\n        Images,\r\n        Videos,\r\n        Other\r\n    }\r\n    struct Review{\r\n        bool isBuy;\r\n        bool isReview;\r\n        address adr;\r\n        string name;\r\n        uint256 rate;\r\n        string reviewDescription;\r\n        uint256 score;\r\n        uint timeStamp;\r\n    }\r\n    struct Customer {\r\n        address adr;\r\n        string name;\r\n        uint256[] purchasedProducts;\r\n        \r\n    }\r\n\r\n    struct Product {\r\n        uint id;\r\n        string name;\r\n        string description;\r\n        uint price;\r\n        string imgipfshash;\r\n        address owner;\r\n        Categories categorie;\r\n        uint256 uploadedOn;\r\n        uint256 rate;\r\n        uint256 reviewsCount;\r\n        address[] buyers;\r\n        uint256 totalSold;\r\n        Review [] reviews;\r\n        mapping (address=>Review) productUserReview;\r\n        mapping (address => bool)hasReported;\r\n        uint report;\r\n        //bool removed;\r\n    }\r\n\r\n    event ProductCreated(uint id, string name, string description, uint price, string imgipfshash, string fileipfshash, address owner);\r\n    event ProductPurchased(uint id, string name, string description, uint price, string imgipfshash, address owner);\r\n    event CustomerRegistered(address customer);\r\n    event CustomerRegistrationFailed(address customer);\r\n    event CartProductInserted(address customer, uint256 prodId, uint256 prodPrice, uint256 completeSum);\r\n    event CartProductInsertionFailed(address customer, uint256 prodId);\r\n    event CartProductRemoved(address customer, uint256 prodId);\r\n    event CartEmptied(address customer);\r\n\r\n    // Create a new product with a struct\r\n    // Add the struct to the mapping, and store it on the blockchain\r\n    // Trigger an event that lets someone know a product was creatd\r\n    function createProduct(string memory _name,string memory _description, uint _price,string memory _imgipfshash,string memory _fileipfshash , Categories _categorie ) public {\r\n        // Require a valid name\r\n        require(bytes(_name).length > 0);\r\n        // Require a valid description\r\n        require(bytes(_description).length > 0);\r\n        // Require a valid price\r\n        require(_price > 0);\r\n        // Require a valid image hash\r\n        require(bytes(_imgipfshash).length > 0);\r\n        // Require a valid file hash\r\n        require(bytes(_fileipfshash).length > 0);\r\n        // Increment product count\r\n        uint256 _uploadedOn = block.timestamp;\r\n        //increment number of products\r\n        productCount ++;\r\n        //add this Product to the products map\r\n        products[productCount].id = productCount;\r\n        products[productCount].name = _name;\r\n        products[productCount].description = _description;\r\n        products[productCount].price = _price;\r\n        products[productCount].imgipfshash = _imgipfshash;\r\n        files[productCount] = _fileipfshash;\r\n        products[productCount].owner = msg.sender;\r\n        products[productCount].categorie = _categorie;\r\n        products[productCount].uploadedOn = _uploadedOn;\r\n        products[productCount].reviewsCount = 0;\r\n        products[productCount].report = 0;\r\n        products[productCount].totalSold = 0;\r\n        products[productCount].buyers = new address[](0);\r\n        //products[productCount].removed = false;\r\n        //add this product to the customer's owned product\r\n        //create an event\r\n        emit ProductCreated(productCount, _name, _description, _price, _imgipfshash,_fileipfshash, msg.sender);\r\n    }\r\n\r\n    function purchaseProduct(uint _id) public payable {\r\n        // Fetch the owner\r\n        address _seller = products[_id].owner;\r\n        /*require(products[_id].owner != msg.sender, \"You cannot buy your own product\");\r\n        // Make sure the product has a valid id\r\n        require(products[_id].id > 0 && products[_id].id <= productCount);\r\n        // Require that there is enough Ether in the transaction\r\n        require(msg.value >= products[_id].price, \"Insufficient Ether\");\r\n        // Require that the buyer is not the seller\r\n        require(_seller != msg.sender);*/\r\n        //add to products a user can revie\r\n        products[_id].productUserReview[msg.sender].isBuy = true;\r\n        //add this customer to the people who bought this product\r\n        products[_id].buyers.push(msg.sender);\r\n        //update total purchases\r\n        products[_id].totalSold++;\r\n        //add to the products owners\r\n        customers[msg.sender].purchasedProducts.push(_id);\r\n        // Pay the seller by sending them Ether\r\n        payable(_seller).transfer(msg.value);\r\n        // Trigger an event\r\n        emit ProductPurchased(productCount, products[_id].name,products[_id].description, products[_id].price, products[_id].imgipfshash, msg.sender);\r\n    }\r\n    /* function removeProduct(uint id1) public {\r\n         if(msg.sender == products[id1].owner){\r\n             products[id1].removed = true;\r\n         }\r\n     }*/\r\n    function removeProduct(uint id1) public {\r\n        if(msg.sender == products[id1].owner){\r\n            delete products [id1];\r\n        }\r\n    }\r\n    function editProduct(uint256 _id , string memory _name , string memory _des , uint _price , Categories _categorie) public{\r\n        if(msg.sender == products[_id].owner){\r\n            products[_id].name = _name;\r\n            products[_id].description = _des;\r\n            products[_id].price = _price;\r\n            products[_id].categorie = _categorie;\r\n            \r\n        }\r\n    }\r\n    function reviewProduct(uint _id,uint256 _rate,uint256 _score, string memory _review) public\r\n    {\r\n           require(products[_id].productUserReview[msg.sender].isBuy == true, \"You are not eligible to review this product\");\r\n           if (products[_id].productUserReview[msg.sender].isReview == false){ //only once\r\n               products[_id].productUserReview[msg.sender].isReview = true;\r\n\r\n               products[_id].productUserReview[msg.sender].adr = msg.sender;\r\n               products[_id].productUserReview[msg.sender].name = customers[msg.sender].name;\r\n               products[_id].productUserReview[msg.sender].rate = _rate;\r\n               products[_id].productUserReview[msg.sender].reviewDescription = _review;\r\n               products[_id].productUserReview[msg.sender].score = _score;\r\n               products[_id].productUserReview[msg.sender].timeStamp = block.timestamp;\r\n\r\n    \r\n               products[_id].reviews.push(products[_id].productUserReview[msg.sender]);\r\n    \r\n               products[_id].reviewsCount ++;\r\n               \r\n               //calculate and update product rate\r\n               uint sum=0;\r\n               for(uint i=0;i<products[_id].reviews.length;i++){\r\n               sum+=products[_id].reviews[i].rate;\r\n               }\r\n               products[_id].rate = sum/products[_id].reviewsCount;\r\n           }\r\n\r\n    }\r\n\r\n    function registerCustomer(address _address, string memory _name)\r\n                                        public returns (bool success) {\r\n        Customer memory customer = Customer(_address, _name,new uint256[](0));\r\n        customerCount++;\r\n        addressLUT[customerCount]=customer.adr;\r\n        customers[_address] = customer;\r\n        emit CustomerRegistered(_address);\r\n        return true;\r\n    }\r\n    function report(uint _id) public {\r\n        if(products[_id].hasReported[msg.sender] == false){\r\n            products[_id].report++;\r\n            products[_id].hasReported[msg.sender] = true;\r\n            if(products[_id].report >= MAXREPORT){\r\n                removeProduct(_id);\r\n            }\r\n        }\r\n    }\r\n    function getReport(uint _id) public view returns(uint){\r\n        return products[_id].report;\r\n    }\r\n    function getProductReviews(uint _id) public view returns (Review[] memory){\r\n        return products[_id].reviews;\r\n    }\r\n    function getProductBuyers(uint _id) public view returns(address[] memory){\r\n        return products[_id].buyers;\r\n    }\r\n    function getProductfile(uint _id) public view returns(string memory){\r\n        if(products[_id].owner == msg.sender){\r\n            return files[_id];\r\n        }\r\n        else if(products[_id].buyers.length > 0)\r\n        for(uint i=0;i<products[_id].buyers.length;i++){\r\n            if(products[_id].buyers[i] == msg.sender)\r\n                return files[_id];\r\n        }\r\n        else\r\n        return \"\";\r\n    }\r\n    function getPurchasedProducts(address adr) public view returns( uint256[] memory){\r\n        return customers[adr].purchasedProducts;\r\n    }\r\n\r\n}",
  "sourcePath": "C:\\Users\\Administrator\\Desktop\\MarketPlace\\src\\contracts\\Marketplace.sol",
  "compiler": {
    "name": "solc",
    "version": "0.8.7+commit.e28d00a7.Emscripten.clang"
  },
  "schemaVersion": "3.4.2",
  "updatedAt": "2021-08-27T21:01:14.096Z",
  "networkType": "ethereum",
  "devdoc": {
    "kind": "dev",
    "methods": {},
    "version": 1
  },
  "userdoc": {
    "kind": "user",
    "methods": {},
    "version": 1
  }
}