{
  "contractName": "Marketplace",
  "abi": [
    {
      "constant": true,
      "inputs": [],
      "name": "name",
      "outputs": [
        {
          "name": "",
          "type": "string"
        }
      ],
      "payable": false,
      "stateMutability": "view",
      "type": "function",
      "signature": "0x06fdde03"
    },
    {
      "constant": true,
      "inputs": [
        {
          "name": "",
          "type": "address"
        },
        {
          "name": "",
          "type": "uint256"
        }
      ],
      "name": "ownerToProducts",
      "outputs": [
        {
          "name": "id",
          "type": "uint256"
        },
        {
          "name": "name",
          "type": "string"
        },
        {
          "name": "price",
          "type": "uint256"
        },
        {
          "name": "image",
          "type": "string"
        },
        {
          "name": "description",
          "type": "string"
        },
        {
          "name": "owner",
          "type": "address"
        },
        {
          "name": "purchased",
          "type": "bool"
        }
      ],
      "payable": false,
      "stateMutability": "view",
      "type": "function",
      "signature": "0x30ff5948"
    },
    {
      "constant": true,
      "inputs": [
        {
          "name": "",
          "type": "uint256"
        }
      ],
      "name": "products",
      "outputs": [
        {
          "name": "id",
          "type": "uint256"
        },
        {
          "name": "name",
          "type": "string"
        },
        {
          "name": "price",
          "type": "uint256"
        },
        {
          "name": "image",
          "type": "string"
        },
        {
          "name": "description",
          "type": "string"
        },
        {
          "name": "owner",
          "type": "address"
        },
        {
          "name": "purchased",
          "type": "bool"
        }
      ],
      "payable": false,
      "stateMutability": "view",
      "type": "function",
      "signature": "0x7acc0b20"
    },
    {
      "constant": true,
      "inputs": [],
      "name": "productCount",
      "outputs": [
        {
          "name": "",
          "type": "uint256"
        }
      ],
      "payable": false,
      "stateMutability": "view",
      "type": "function",
      "signature": "0xe0f6ef87"
    },
    {
      "inputs": [],
      "payable": false,
      "stateMutability": "nonpayable",
      "type": "constructor",
      "signature": "constructor"
    },
    {
      "anonymous": false,
      "inputs": [
        {
          "indexed": false,
          "name": "id",
          "type": "uint256"
        },
        {
          "indexed": false,
          "name": "name",
          "type": "string"
        },
        {
          "indexed": false,
          "name": "price",
          "type": "uint256"
        },
        {
          "indexed": false,
          "name": "image",
          "type": "string"
        },
        {
          "indexed": false,
          "name": "description",
          "type": "string"
        },
        {
          "indexed": false,
          "name": "owner",
          "type": "address"
        },
        {
          "indexed": false,
          "name": "purchased",
          "type": "bool"
        }
      ],
      "name": "ProductCreated",
      "type": "event",
      "signature": "0xc4aee4ecc65be73661840a0ff455de0c6ac874bd3cf4acf858ac69949a7695bd"
    },
    {
      "anonymous": false,
      "inputs": [
        {
          "indexed": false,
          "name": "id",
          "type": "uint256"
        },
        {
          "indexed": false,
          "name": "name",
          "type": "string"
        },
        {
          "indexed": false,
          "name": "price",
          "type": "uint256"
        },
        {
          "indexed": false,
          "name": "owner",
          "type": "address"
        },
        {
          "indexed": false,
          "name": "purchased",
          "type": "bool"
        }
      ],
      "name": "ProductPurchased",
      "type": "event",
      "signature": "0x79558d0d7d4d900e2f15c4cc0a665f1acdbe415e44de900ecdd1e5bf12b56f4e"
    },
    {
      "constant": false,
      "inputs": [
        {
          "name": "_name",
          "type": "string"
        },
        {
          "name": "_image",
          "type": "string"
        },
        {
          "name": "_description",
          "type": "string"
        },
        {
          "name": "_price",
          "type": "uint256"
        }
      ],
      "name": "createProduct",
      "outputs": [],
      "payable": false,
      "stateMutability": "nonpayable",
      "type": "function",
      "signature": "0x1b61040d"
    },
    {
      "constant": false,
      "inputs": [
        {
          "name": "_id",
          "type": "uint256"
        }
      ],
      "name": "purchaseProduct",
      "outputs": [],
      "payable": true,
      "stateMutability": "payable",
      "type": "function",
      "signature": "0x38e76a03"
    },
    {
      "constant": false,
      "inputs": [
        {
          "name": "_owner",
          "type": "address"
        }
      ],
      "name": "getProductCount",
      "outputs": [
        {
          "name": "",
          "type": "uint256"
        }
      ],
      "payable": false,
      "stateMutability": "nonpayable",
      "type": "function",
      "signature": "0x50208eee"
    },
    {
      "constant": false,
      "inputs": [
        {
          "name": "_owner",
          "type": "address"
        },
        {
          "name": "_index",
          "type": "uint8"
        }
      ],
      "name": "getProduct",
      "outputs": [
        {
          "name": "_id",
          "type": "uint256"
        },
        {
          "name": "_name",
          "type": "string"
        },
        {
          "name": "_price",
          "type": "uint256"
        },
        {
          "name": "image",
          "type": "string"
        },
        {
          "name": "_description",
          "type": "string"
        }
      ],
      "payable": false,
      "stateMutability": "nonpayable",
      "type": "function",
      "signature": "0xe8b4194e"
    }
  ],
  "bytecode": "0x608060405260006002553480156200001657600080fd5b506040805190810160405280601281526020017f4a617a617261204d61726b6574706c616365000000000000000000000000000081525060019080519060200190620000649291906200006b565b506200011a565b828054600181600116156101000203166002900490600052602060002090601f016020900481019282601f10620000ae57805160ff1916838001178555620000df565b82800160010185558215620000df579182015b82811115620000de578251825591602001919060010190620000c1565b5b509050620000ee9190620000f2565b5090565b6200011791905b8082111562000113576000816000905550600101620000f9565b5090565b90565b611c52806200012a6000396000f3fe60806040526004361061008e576000357c0100000000000000000000000000000000000000000000000000000000900463ffffffff16806306fdde03146100935780631b61040d1461012357806330ff59481461032357806338e76a031461051b57806350208eee146105495780637acc0b20146105ae578063e0f6ef8714610786578063e8b4194e146107b1575b600080fd5b34801561009f57600080fd5b506100a861096e565b6040518080602001828103825283818151815260200191508051906020019080838360005b838110156100e85780820151818401526020810190506100cd565b50505050905090810190601f1680156101155780820380516001836020036101000a031916815260200191505b509250505060405180910390f35b34801561012f57600080fd5b506103216004803603608081101561014657600080fd5b810190808035906020019064010000000081111561016357600080fd5b82018360208201111561017557600080fd5b8035906020019184600183028401116401000000008311171561019757600080fd5b91908080601f016020809104026020016040519081016040528093929190818152602001838380828437600081840152601f19601f820116905080830192505050505050509192919290803590602001906401000000008111156101fa57600080fd5b82018360208201111561020c57600080fd5b8035906020019184600183028401116401000000008311171561022e57600080fd5b91908080601f016020809104026020016040519081016040528093929190818152602001838380828437600081840152601f19601f8201169050808301925050505050505091929192908035906020019064010000000081111561029157600080fd5b8201836020820111156102a357600080fd5b803590602001918460018302840111640100000000831117156102c557600080fd5b91908080601f016020809104026020016040519081016040528093929190818152602001838380828437600081840152601f19601f82011690508083019250505050505050919291929080359060200190929190505050610a0c565b005b34801561032f57600080fd5b5061037c6004803603604081101561034657600080fd5b81019080803573ffffffffffffffffffffffffffffffffffffffff16906020019092919080359060200190929190505050610d65565b604051808881526020018060200187815260200180602001806020018673ffffffffffffffffffffffffffffffffffffffff1673ffffffffffffffffffffffffffffffffffffffff1681526020018515151515815260200184810384528a818151815260200191508051906020019080838360005b8381101561040c5780820151818401526020810190506103f1565b50505050905090810190601f1680156104395780820380516001836020036101000a031916815260200191505b50848103835288818151815260200191508051906020019080838360005b83811015610472578082015181840152602081019050610457565b50505050905090810190601f16801561049f5780820380516001836020036101000a031916815260200191505b50848103825287818151815260200191508051906020019080838360005b838110156104d85780820151818401526020810190506104bd565b50505050905090810190601f1680156105055780820380516001836020036101000a031916815260200191505b509a505050505050505050505060405180910390f35b6105476004803603602081101561053157600080fd5b8101908080359060200190929190505050610fb8565b005b34801561055557600080fd5b506105986004803603602081101561056c57600080fd5b81019080803573ffffffffffffffffffffffffffffffffffffffff16906020019092919050505061154e565b6040518082815260200191505060405180910390f35b3480156105ba57600080fd5b506105e7600480360360208110156105d157600080fd5b81019080803590602001909291905050506115d5565b604051808881526020018060200187815260200180602001806020018673ffffffffffffffffffffffffffffffffffffffff1673ffffffffffffffffffffffffffffffffffffffff1681526020018515151515815260200184810384528a818151815260200191508051906020019080838360005b8381101561067757808201518184015260208101905061065c565b50505050905090810190601f1680156106a45780820380516001836020036101000a031916815260200191505b50848103835288818151815260200191508051906020019080838360005b838110156106dd5780820151818401526020810190506106c2565b50505050905090810190601f16801561070a5780820380516001836020036101000a031916815260200191505b50848103825287818151815260200191508051906020019080838360005b83811015610743578082015181840152602081019050610728565b50505050905090810190601f1680156107705780820380516001836020036101000a031916815260200191505b509a505050505050505050505060405180910390f35b34801561079257600080fd5b5061079b61180c565b6040518082815260200191505060405180910390f35b3480156107bd57600080fd5b5061080d600480360360408110156107d457600080fd5b81019080803573ffffffffffffffffffffffffffffffffffffffff169060200190929190803560ff169060200190929190505050611812565b60405180868152602001806020018581526020018060200180602001848103845288818151815260200191508051906020019080838360005b83811015610861578082015181840152602081019050610846565b50505050905090810190601f16801561088e5780820380516001836020036101000a031916815260200191505b50848103835286818151815260200191508051906020019080838360005b838110156108c75780820151818401526020810190506108ac565b50505050905090810190601f1680156108f45780820380516001836020036101000a031916815260200191505b50848103825285818151815260200191508051906020019080838360005b8381101561092d578082015181840152602081019050610912565b50505050905090810190601f16801561095a5780820380516001836020036101000a031916815260200191505b509850505050505050505060405180910390f35b60018054600181600116156101000203166002900480601f016020809104026020016040519081016040528092919081815260200182805460018160011615610100020316600290048015610a045780601f106109d957610100808354040283529160200191610a04565b820191906000526020600020905b8154815290600101906020018083116109e757829003601f168201915b505050505081565b60008451111515610a1c57600080fd5b60008351111515610a2c57600080fd5b60008251111515610a3c57600080fd5b600081111515610a4b57600080fd5b60026000815480929190600101919050555060e06040519081016040528060025481526020018581526020018281526020018481526020018381526020013373ffffffffffffffffffffffffffffffffffffffff16815260200160001515815250600360006002548152602001908152602001600020600082015181600001556020820151816001019080519060200190610ae7929190611b2b565b50604082015181600201556060820151816003019080519060200190610b0e929190611b2b565b506080820151816004019080519060200190610b2b929190611b2b565b5060a08201518160050160006101000a81548173ffffffffffffffffffffffffffffffffffffffff021916908373ffffffffffffffffffffffffffffffffffffffff16021790555060c08201518160050160146101000a81548160ff0219169083151502179055509050507fc4aee4ecc65be73661840a0ff455de0c6ac874bd3cf4acf858ac69949a7695bd60025485838686336000604051808881526020018060200187815260200180602001806020018673ffffffffffffffffffffffffffffffffffffffff1673ffffffffffffffffffffffffffffffffffffffff1681526020018515151515815260200184810384528a818151815260200191508051906020019080838360005b83811015610c51578082015181840152602081019050610c36565b50505050905090810190601f168015610c7e5780820380516001836020036101000a031916815260200191505b50848103835288818151815260200191508051906020019080838360005b83811015610cb7578082015181840152602081019050610c9c565b50505050905090810190601f168015610ce45780820380516001836020036101000a031916815260200191505b50848103825287818151815260200191508051906020019080838360005b83811015610d1d578082015181840152602081019050610d02565b50505050905090810190601f168015610d4a5780820380516001836020036101000a031916815260200191505b509a505050505050505050505060405180910390a150505050565b600460205281600052604060002081815481101515610d8057fe5b906000526020600020906006020160009150915050806000015490806001018054600181600116156101000203166002900480601f016020809104026020016040519081016040528092919081815260200182805460018160011615610100020316600290048015610e335780601f10610e0857610100808354040283529160200191610e33565b820191906000526020600020905b815481529060010190602001808311610e1657829003601f168201915b505050505090806002015490806003018054600181600116156101000203166002900480601f016020809104026020016040519081016040528092919081815260200182805460018160011615610100020316600290048015610ed75780601f10610eac57610100808354040283529160200191610ed7565b820191906000526020600020905b815481529060010190602001808311610eba57829003601f168201915b505050505090806004018054600181600116156101000203166002900480601f016020809104026020016040519081016040528092919081815260200182805460018160011615610100020316600290048015610f755780601f10610f4a57610100808354040283529160200191610f75565b820191906000526020600020905b815481529060010190602001808311610f5857829003601f168201915b5050505050908060050160009054906101000a900473ffffffffffffffffffffffffffffffffffffffff16908060050160149054906101000a900460ff16905087565b610fc0611bab565b6003600083815260200190815260200160002060e0604051908101604052908160008201548152602001600182018054600181600116156101000203166002900480601f0160208091040260200160405190810160405280929190818152602001828054600181600116156101000203166002900480156110825780601f1061105757610100808354040283529160200191611082565b820191906000526020600020905b81548152906001019060200180831161106557829003601f168201915b5050505050815260200160028201548152602001600382018054600181600116156101000203166002900480601f01602080910402602001604051908101604052809291908181526020018280546001816001161561010002031660029004801561112e5780601f106111035761010080835404028352916020019161112e565b820191906000526020600020905b81548152906001019060200180831161111157829003601f168201915b50505050508152602001600482018054600181600116156101000203166002900480601f0160208091040260200160405190810160405280929190818152602001828054600181600116156101000203166002900480156111d05780601f106111a5576101008083540402835291602001916111d0565b820191906000526020600020905b8154815290600101906020018083116111b357829003601f168201915b505050505081526020016005820160009054906101000a900473ffffffffffffffffffffffffffffffffffffffff1673ffffffffffffffffffffffffffffffffffffffff1673ffffffffffffffffffffffffffffffffffffffff1681526020016005820160149054906101000a900460ff161515151581525050905060008160a0015190506000826000015111801561126f5750600254826000015111155b151561127a57600080fd5b8160400151341015151561128d57600080fd5b8160c0015115151561129e57600080fd5b3373ffffffffffffffffffffffffffffffffffffffff168173ffffffffffffffffffffffffffffffffffffffff16141515156112d957600080fd5b338260a0019073ffffffffffffffffffffffffffffffffffffffff16908173ffffffffffffffffffffffffffffffffffffffff168152505060018260c0019015159081151581525050816003600085815260200190815260200160002060008201518160000155602082015181600101908051906020019061135c929190611b2b565b50604082015181600201556060820151816003019080519060200190611383929190611b2b565b5060808201518160040190805190602001906113a0929190611b2b565b5060a08201518160050160006101000a81548173ffffffffffffffffffffffffffffffffffffffff021916908373ffffffffffffffffffffffffffffffffffffffff16021790555060c08201518160050160146101000a81548160ff0219169083151502179055509050508073ffffffffffffffffffffffffffffffffffffffff166108fc349081150290604051600060405180830381858888f19350505050158015611451573d6000803e3d6000fd5b507f79558d0d7d4d900e2f15c4cc0a665f1acdbe415e44de900ecdd1e5bf12b56f4e6002548360200151846040015133600160405180868152602001806020018581526020018473ffffffffffffffffffffffffffffffffffffffff1673ffffffffffffffffffffffffffffffffffffffff16815260200183151515158152602001828103825286818151815260200191508051906020019080838360005b8381101561150b5780820151818401526020810190506114f0565b50505050905090810190601f1680156115385780820380516001836020036101000a031916815260200191505b50965050505050505060405180910390a1505050565b60008073ffffffffffffffffffffffffffffffffffffffff168273ffffffffffffffffffffffffffffffffffffffff161415151561158b57600080fd5b600460008373ffffffffffffffffffffffffffffffffffffffff1673ffffffffffffffffffffffffffffffffffffffff168152602001908152602001600020805490509050919050565b6003602052806000526040600020600091509050806000015490806001018054600181600116156101000203166002900480601f0160208091040260200160405190810160405280929190818152602001828054600181600116156101000203166002900480156116875780601f1061165c57610100808354040283529160200191611687565b820191906000526020600020905b81548152906001019060200180831161166a57829003601f168201915b505050505090806002015490806003018054600181600116156101000203166002900480601f01602080910402602001604051908101604052809291908181526020018280546001816001161561010002031660029004801561172b5780601f106117005761010080835404028352916020019161172b565b820191906000526020600020905b81548152906001019060200180831161170e57829003601f168201915b505050505090806004018054600181600116156101000203166002900480601f0160208091040260200160405190810160405280929190818152602001828054600181600116156101000203166002900480156117c95780601f1061179e576101008083540402835291602001916117c9565b820191906000526020600020905b8154815290600101906020018083116117ac57829003601f168201915b5050505050908060050160009054906101000a900473ffffffffffffffffffffffffffffffffffffffff16908060050160149054906101000a900460ff16905087565b60025481565b600060606000606080600073ffffffffffffffffffffffffffffffffffffffff168773ffffffffffffffffffffffffffffffffffffffff161415151561185757600080fd5b60008660ff161015801561186f575060ff8660ff1611155b151561187a57600080fd5b6000600460008973ffffffffffffffffffffffffffffffffffffffff1673ffffffffffffffffffffffffffffffffffffffff168152602001908152602001600020805490501115156118cb57600080fd5b6000600460008973ffffffffffffffffffffffffffffffffffffffff1673ffffffffffffffffffffffffffffffffffffffff1681526020019081526020016000208760ff1681548110151561191c57fe5b9060005260206000209060060201905080600001548160010182600201548360030184600401838054600181600116156101000203166002900480601f0160208091040260200160405190810160405280929190818152602001828054600181600116156101000203166002900480156119d75780601f106119ac576101008083540402835291602001916119d7565b820191906000526020600020905b8154815290600101906020018083116119ba57829003601f168201915b50505050509350818054600181600116156101000203166002900480601f016020809104026020016040519081016040528092919081815260200182805460018160011615610100020316600290048015611a735780601f10611a4857610100808354040283529160200191611a73565b820191906000526020600020905b815481529060010190602001808311611a5657829003601f168201915b50505050509150808054600181600116156101000203166002900480601f016020809104026020016040519081016040528092919081815260200182805460018160011615610100020316600290048015611b0f5780601f10611ae457610100808354040283529160200191611b0f565b820191906000526020600020905b815481529060010190602001808311611af257829003601f168201915b5050505050905095509550955095509550509295509295909350565b828054600181600116156101000203166002900490600052602060002090601f016020900481019282601f10611b6c57805160ff1916838001178555611b9a565b82800160010185558215611b9a579182015b82811115611b99578251825591602001919060010190611b7e565b5b509050611ba79190611c01565b5090565b60e0604051908101604052806000815260200160608152602001600081526020016060815260200160608152602001600073ffffffffffffffffffffffffffffffffffffffff1681526020016000151581525090565b611c2391905b80821115611c1f576000816000905550600101611c07565b5090565b9056fea165627a7a7230582041e552304609a04b9e56c540f835bc0aae6ee4451716e1cd34d9131d319e030f0029",
  "source": "pragma solidity ^0.5.0;\r\n\r\ncontract Marketplace {\r\n    string ta3dil3;\r\n    string public name;\r\n    uint public productCount = 0;\r\n    //to store the products on blockchain\r\n    mapping(uint => Product) public products;\r\n    // Maps owner to their images\r\n    mapping (address => Product[]) public ownerToProducts;\r\n\r\n    struct Product {\r\n        uint id;\r\n        string name;\r\n        uint price;\r\n        string image;\r\n        string description;\r\n        address payable owner;\r\n        bool purchased;\r\n    }\r\n\r\n    event ProductCreated(\r\n        uint id,\r\n        string name,\r\n        uint price,\r\n        string image,\r\n        string description,\r\n        address payable owner,\r\n        bool purchased\r\n    );\r\n\r\n    event ProductPurchased(\r\n    uint id,\r\n    string name,\r\n    uint price,\r\n    address payable owner,\r\n    bool purchased\r\n);\r\n\r\n    constructor() public {\r\n        name = \"Jazara Marketplace\";\r\n    }\r\n\r\n    // Create a new product with a struct\r\n    // Add the struct to the mapping, and store it on the blockchain\r\n    // Trigger an event that lets someone know a product was creatd\r\n    function createProduct(string memory _name,string memory _image,string memory _description, uint _price) public {\r\n    // Require a valid name\r\n    require(bytes(_name).length > 0);\r\n    // Require a valid image\r\n    require(bytes(_image).length > 0);\r\n    // Require a valid description\r\n    require(bytes(_description).length > 0);\r\n    // Require a valid price\r\n    require(_price > 0);\r\n    // Increment product count\r\n    productCount ++;\r\n    // Create the product\r\n    products[productCount] = Product(productCount, _name, _price,_image,_description, msg.sender, false);\r\n    // Trigger an event\r\n    emit ProductCreated(productCount, _name, _price, _image, _description, msg.sender, false);\r\n    }\r\n\r\n    function purchaseProduct(uint _id) public payable {\r\n    // Fetch the product\r\n    Product memory _product = products[_id];\r\n    // Fetch the owner\r\n    address payable _seller = _product.owner;\r\n    // Make sure the product has a valid id\r\n    require(_product.id > 0 && _product.id <= productCount);\r\n    // Require that there is enough Ether in the transaction\r\n    require(msg.value >= _product.price);\r\n    // Require that the product has not been purchased already\r\n    require(!_product.purchased);\r\n    // Require that the buyer is not the seller\r\n    require(_seller != msg.sender);\r\n    // Transfer ownership to the buyer\r\n    _product.owner = msg.sender;\r\n    // Mark as purchased\r\n    _product.purchased = true;\r\n    // Update the product\r\n    products[_id] = _product;\r\n    // Pay the seller by sending them Ether\r\n    address(_seller).transfer(msg.value);\r\n    // Trigger an event\r\n    emit ProductPurchased(productCount, _product.name, _product.price, msg.sender, true);\r\n    }\r\n\r\n    /** \r\n    * @notice Returns the number of products associated with the given address\r\n    * @dev Controlled by circuit breaker\r\n    * @param _owner The owner address\r\n    * @return The number of products associated with a given address\r\n    */\r\n    function getProductCount(address _owner) \r\n        public\r\n        returns (uint256) \r\n    {\r\n        require(_owner != address(0));\r\n        return ownerToProducts[_owner].length;\r\n    }\r\n\r\n    function getProduct(address _owner, uint8 _index) \r\n        public returns (\r\n        uint _id, \r\n        string memory _name, \r\n        uint _price,\r\n        string memory image,\r\n        string memory _description\r\n    ) {\r\n\r\n        require(_owner != address(0));\r\n        require(_index >= 0 && _index <= 2**8 - 1);\r\n        require(ownerToProducts[_owner].length > 0);\r\n\r\n        Product storage product = ownerToProducts[_owner][_index];\r\n        \r\n        return (\r\n            product.id, \r\n            product.name,\r\n            product.price,\r\n            product.image,\r\n            product.description\r\n        );\r\n    }\r\n\r\n}",
  "sourcePath": "C:/Users/Administrator/Desktop/MarketPlace/src/contracts/Marketplace.sol",
  "compiler": {
    "name": "solc",
    "version": "0.5.0+commit.1d4f565a.Emscripten.clang"
  },
  "schemaVersion": "3.0.2",
  "updatedAt": "2021-08-10T00:37:39.667Z",
  "devdoc": {
    "methods": {
      "getProductCount(address)": {
        "details": "Controlled by circuit breaker\r",
        "params": {
          "_owner": "The owner address\r"
        },
        "return": "The number of products associated with a given address\r"
      }
    }
  },
  "userdoc": {
    "methods": {
      "getProductCount(address)": {
        "notice": "Returns the number of products associated with the given address\r"
      }
    }
  }
}