{
  "contractName": "Marketplace",
  "abi": [
    {
      "anonymous": false,
      "inputs": [
        {
          "indexed": false,
          "internalType": "address",
          "name": "customer",
          "type": "address"
        }
      ],
      "name": "CartEmptied",
      "type": "event"
    },
    {
      "anonymous": false,
      "inputs": [
        {
          "indexed": false,
          "internalType": "address",
          "name": "customer",
          "type": "address"
        },
        {
          "indexed": false,
          "internalType": "uint256",
          "name": "prodId",
          "type": "uint256"
        },
        {
          "indexed": false,
          "internalType": "uint256",
          "name": "prodPrice",
          "type": "uint256"
        },
        {
          "indexed": false,
          "internalType": "uint256",
          "name": "completeSum",
          "type": "uint256"
        }
      ],
      "name": "CartProductInserted",
      "type": "event"
    },
    {
      "anonymous": false,
      "inputs": [
        {
          "indexed": false,
          "internalType": "address",
          "name": "customer",
          "type": "address"
        },
        {
          "indexed": false,
          "internalType": "uint256",
          "name": "prodId",
          "type": "uint256"
        }
      ],
      "name": "CartProductInsertionFailed",
      "type": "event"
    },
    {
      "anonymous": false,
      "inputs": [
        {
          "indexed": false,
          "internalType": "address",
          "name": "customer",
          "type": "address"
        },
        {
          "indexed": false,
          "internalType": "uint256",
          "name": "prodId",
          "type": "uint256"
        }
      ],
      "name": "CartProductRemoved",
      "type": "event"
    },
    {
      "anonymous": false,
      "inputs": [
        {
          "indexed": false,
          "internalType": "address",
          "name": "customer",
          "type": "address"
        }
      ],
      "name": "CustomerRegistered",
      "type": "event"
    },
    {
      "anonymous": false,
      "inputs": [
        {
          "indexed": false,
          "internalType": "address",
          "name": "customer",
          "type": "address"
        }
      ],
      "name": "CustomerRegistrationFailed",
      "type": "event"
    },
    {
      "anonymous": false,
      "inputs": [
        {
          "indexed": false,
          "internalType": "uint256",
          "name": "id",
          "type": "uint256"
        },
        {
          "indexed": false,
          "internalType": "string",
          "name": "name",
          "type": "string"
        },
        {
          "indexed": false,
          "internalType": "string",
          "name": "description",
          "type": "string"
        },
        {
          "indexed": false,
          "internalType": "uint256",
          "name": "price",
          "type": "uint256"
        },
        {
          "indexed": false,
          "internalType": "string",
          "name": "imgipfshash",
          "type": "string"
        },
        {
          "indexed": false,
          "internalType": "string",
          "name": "fileipfshash",
          "type": "string"
        },
        {
          "indexed": false,
          "internalType": "address",
          "name": "owner",
          "type": "address"
        }
      ],
      "name": "ProductCreated",
      "type": "event"
    },
    {
      "anonymous": false,
      "inputs": [
        {
          "indexed": false,
          "internalType": "uint256",
          "name": "id",
          "type": "uint256"
        },
        {
          "indexed": false,
          "internalType": "string",
          "name": "name",
          "type": "string"
        },
        {
          "indexed": false,
          "internalType": "string",
          "name": "description",
          "type": "string"
        },
        {
          "indexed": false,
          "internalType": "uint256",
          "name": "price",
          "type": "uint256"
        },
        {
          "indexed": false,
          "internalType": "string",
          "name": "imgipfshash",
          "type": "string"
        },
        {
          "indexed": false,
          "internalType": "address",
          "name": "owner",
          "type": "address"
        }
      ],
      "name": "ProductPurchased",
      "type": "event"
    },
    {
      "inputs": [
        {
          "internalType": "uint256",
          "name": "",
          "type": "uint256"
        }
      ],
      "name": "addressLUT",
      "outputs": [
        {
          "internalType": "address",
          "name": "",
          "type": "address"
        }
      ],
      "stateMutability": "view",
      "type": "function"
    },
    {
      "inputs": [],
      "name": "customerCount",
      "outputs": [
        {
          "internalType": "uint256",
          "name": "",
          "type": "uint256"
        }
      ],
      "stateMutability": "view",
      "type": "function"
    },
    {
      "inputs": [
        {
          "internalType": "address",
          "name": "",
          "type": "address"
        }
      ],
      "name": "customers",
      "outputs": [
        {
          "internalType": "address",
          "name": "adr",
          "type": "address"
        },
        {
          "internalType": "string",
          "name": "name",
          "type": "string"
        }
      ],
      "stateMutability": "view",
      "type": "function"
    },
    {
      "inputs": [
        {
          "internalType": "uint256",
          "name": "",
          "type": "uint256"
        }
      ],
      "name": "files",
      "outputs": [
        {
          "internalType": "string",
          "name": "",
          "type": "string"
        }
      ],
      "stateMutability": "view",
      "type": "function"
    },
    {
      "inputs": [],
      "name": "flag",
      "outputs": [
        {
          "internalType": "bool",
          "name": "",
          "type": "bool"
        }
      ],
      "stateMutability": "view",
      "type": "function"
    },
    {
      "inputs": [],
      "name": "productCount",
      "outputs": [
        {
          "internalType": "uint256",
          "name": "",
          "type": "uint256"
        }
      ],
      "stateMutability": "view",
      "type": "function"
    },
    {
      "inputs": [
        {
          "internalType": "uint256",
          "name": "",
          "type": "uint256"
        }
      ],
      "name": "products",
      "outputs": [
        {
          "internalType": "uint256",
          "name": "id",
          "type": "uint256"
        },
        {
          "internalType": "string",
          "name": "name",
          "type": "string"
        },
        {
          "internalType": "string",
          "name": "description",
          "type": "string"
        },
        {
          "internalType": "uint256",
          "name": "price",
          "type": "uint256"
        },
        {
          "internalType": "string",
          "name": "imgipfshash",
          "type": "string"
        },
        {
          "internalType": "address",
          "name": "owner",
          "type": "address"
        },
        {
          "internalType": "enum Marketplace.Categories",
          "name": "categorie",
          "type": "uint8"
        },
        {
          "internalType": "uint256",
          "name": "uploadedOn",
          "type": "uint256"
        },
        {
          "internalType": "uint256",
          "name": "rate",
          "type": "uint256"
        },
        {
          "internalType": "uint256",
          "name": "reviewsCount",
          "type": "uint256"
        },
        {
          "internalType": "uint256",
          "name": "totalSold",
          "type": "uint256"
        },
        {
          "internalType": "uint256",
          "name": "report",
          "type": "uint256"
        }
      ],
      "stateMutability": "view",
      "type": "function"
    },
    {
      "inputs": [
        {
          "internalType": "string",
          "name": "_name",
          "type": "string"
        },
        {
          "internalType": "string",
          "name": "_description",
          "type": "string"
        },
        {
          "internalType": "uint256",
          "name": "_price",
          "type": "uint256"
        },
        {
          "internalType": "string",
          "name": "_imgipfshash",
          "type": "string"
        },
        {
          "internalType": "string",
          "name": "_fileipfshash",
          "type": "string"
        },
        {
          "internalType": "enum Marketplace.Categories",
          "name": "_categorie",
          "type": "uint8"
        }
      ],
      "name": "createProduct",
      "outputs": [],
      "stateMutability": "nonpayable",
      "type": "function"
    },
    {
      "inputs": [
        {
          "internalType": "uint256",
          "name": "_id",
          "type": "uint256"
        }
      ],
      "name": "purchaseProduct",
      "outputs": [],
      "stateMutability": "payable",
      "type": "function"
    },
    {
      "inputs": [
        {
          "internalType": "uint256",
          "name": "id1",
          "type": "uint256"
        }
      ],
      "name": "removeProduct",
      "outputs": [],
      "stateMutability": "nonpayable",
      "type": "function"
    },
    {
      "inputs": [
        {
          "internalType": "uint256",
          "name": "_id",
          "type": "uint256"
        },
        {
          "internalType": "string",
          "name": "_name",
          "type": "string"
        },
        {
          "internalType": "string",
          "name": "_des",
          "type": "string"
        },
        {
          "internalType": "uint256",
          "name": "_price",
          "type": "uint256"
        },
        {
          "internalType": "enum Marketplace.Categories",
          "name": "_categorie",
          "type": "uint8"
        }
      ],
      "name": "editProduct",
      "outputs": [],
      "stateMutability": "nonpayable",
      "type": "function"
    },
    {
      "inputs": [
        {
          "internalType": "uint256",
          "name": "_id",
          "type": "uint256"
        },
        {
          "internalType": "uint256",
          "name": "_rate",
          "type": "uint256"
        },
        {
          "internalType": "uint256",
          "name": "_score",
          "type": "uint256"
        },
        {
          "internalType": "string",
          "name": "_review",
          "type": "string"
        }
      ],
      "name": "reviewProduct",
      "outputs": [],
      "stateMutability": "nonpayable",
      "type": "function"
    },
    {
      "inputs": [
        {
          "internalType": "address",
          "name": "_address",
          "type": "address"
        },
        {
          "internalType": "string",
          "name": "_name",
          "type": "string"
        }
      ],
      "name": "registerCustomer",
      "outputs": [
        {
          "internalType": "bool",
          "name": "success",
          "type": "bool"
        }
      ],
      "stateMutability": "nonpayable",
      "type": "function"
    },
    {
      "inputs": [
        {
          "internalType": "uint256",
          "name": "_id",
          "type": "uint256"
        }
      ],
      "name": "report",
      "outputs": [],
      "stateMutability": "nonpayable",
      "type": "function"
    },
    {
      "inputs": [
        {
          "internalType": "uint256",
          "name": "_id",
          "type": "uint256"
        }
      ],
      "name": "getReport",
      "outputs": [
        {
          "internalType": "uint256",
          "name": "",
          "type": "uint256"
        }
      ],
      "stateMutability": "view",
      "type": "function"
    },
    {
      "inputs": [
        {
          "internalType": "uint256",
          "name": "_id",
          "type": "uint256"
        }
      ],
      "name": "getProductReviews",
      "outputs": [
        {
          "components": [
            {
              "internalType": "bool",
              "name": "isBuy",
              "type": "bool"
            },
            {
              "internalType": "bool",
              "name": "isReview",
              "type": "bool"
            },
            {
              "internalType": "address",
              "name": "adr",
              "type": "address"
            },
            {
              "internalType": "string",
              "name": "name",
              "type": "string"
            },
            {
              "internalType": "uint256",
              "name": "rate",
              "type": "uint256"
            },
            {
              "internalType": "string",
              "name": "reviewDescription",
              "type": "string"
            },
            {
              "internalType": "uint256",
              "name": "score",
              "type": "uint256"
            },
            {
              "internalType": "uint256",
              "name": "timeStamp",
              "type": "uint256"
            }
          ],
          "internalType": "struct Marketplace.Review[]",
          "name": "",
          "type": "tuple[]"
        }
      ],
      "stateMutability": "view",
      "type": "function"
    },
    {
      "inputs": [
        {
          "internalType": "uint256",
          "name": "_id",
          "type": "uint256"
        }
      ],
      "name": "getProductBuyers",
      "outputs": [
        {
          "internalType": "address[]",
          "name": "",
          "type": "address[]"
        }
      ],
      "stateMutability": "view",
      "type": "function"
    },
    {
      "inputs": [
        {
          "internalType": "uint256",
          "name": "_id",
          "type": "uint256"
        }
      ],
      "name": "getProductfile",
      "outputs": [
        {
          "internalType": "string",
          "name": "",
          "type": "string"
        }
      ],
      "stateMutability": "view",
      "type": "function"
    },
    {
      "inputs": [
        {
          "internalType": "address",
          "name": "adr",
          "type": "address"
        }
      ],
      "name": "getPurchasedProducts",
      "outputs": [
        {
          "internalType": "uint256[]",
          "name": "",
          "type": "uint256[]"
        }
      ],
      "stateMutability": "view",
      "type": "function"
    }
  ],
  "bytecode": "0x60806040526000805560006001556000600260006101000a81548160ff021916908315150217905550606460075534801561003957600080fd5b5061372c806100496000396000f3fe6080604052600436106101145760003560e01c80637acc0b20116100a0578063aca4901811610064578063aca49018146103d2578063cc94f2d91461040f578063db1970f41461044c578063e0f6ef8714610489578063f4c714b4146104b457610114565b80637acc0b20146102e25780637b61b7021461032a578063890eba6814610353578063969b1cdb1461037e5780639757e8a3146103a757610114565b806342761c85116100e757806342761c85146101d957806343308eef1461020257806346a4237b1461023f5780634e7f9b191461027c5780635ee95cae146102b957610114565b80630b784d2d146101195780630fb9398f14610142578063336989ae1461017f57806338e76a03146101bd575b600080fd5b34801561012557600080fd5b50610140600480360381019061013b9190612788565b6104f1565b005b34801561014e57600080fd5b5061016960048036038101906101649190612885565b6107f6565b6040516101769190612e23565b60405180910390f35b34801561018b57600080fd5b506101a660048036038101906101a191906126ff565b61089a565b6040516101b4929190612df3565b60405180910390f35b6101d760048036038101906101d29190612885565b610966565b005b3480156101e557600080fd5b5061020060048036038101906101fb9190612965565b610d7d565b005b34801561020e57600080fd5b5061022960048036038101906102249190612885565b611440565b6040516102369190612ea4565b60405180910390f35b34801561024b57600080fd5b5061026660048036038101906102619190612885565b6116f5565b6040516102739190612e45565b60405180910390f35b34801561028857600080fd5b506102a3600480360381019061029e9190612885565b611939565b6040516102b09190612f26565b60405180910390f35b3480156102c557600080fd5b506102e060048036038101906102db9190612885565b611959565b005b3480156102ee57600080fd5b5061030960048036038101906103049190612885565b611aa0565b6040516103219c9b9a99989796959493929190612f41565b60405180910390f35b34801561033657600080fd5b50610351600480360381019061034c91906128b2565b611cc5565b005b34801561035f57600080fd5b50610368611de6565b6040516103759190612e89565b60405180910390f35b34801561038a57600080fd5b506103a560048036038101906103a09190612885565b611df9565b005b3480156103b357600080fd5b506103bc611f2b565b6040516103c99190612f26565b60405180910390f35b3480156103de57600080fd5b506103f960048036038101906103f49190612885565b611f31565b6040516104069190612dd8565b60405180910390f35b34801561041b57600080fd5b50610436600480360381019061043191906126ff565b611f64565b6040516104439190612e67565b60405180910390f35b34801561045857600080fd5b50610473600480360381019061046e919061272c565b611ffe565b6040516104809190612e89565b60405180910390f35b34801561049557600080fd5b5061049e6121f3565b6040516104ab9190612f26565b60405180910390f35b3480156104c057600080fd5b506104db60048036038101906104d69190612885565b6121f9565b6040516104e89190612ea4565b60405180910390f35b60008651116104ff57600080fd5b600085511161050d57600080fd5b6000841161051a57600080fd5b600083511161052857600080fd5b600042905060008081548092919061053f9061347b565b9190505550600054600360008054815260200190815260200160002060000181905550866003600080548152602001908152602001600020600101908051906020019061058d929190612299565b5085600360008054815260200190815260200160002060020190805190602001906105b9929190612299565b50846003600080548152602001908152602001600020600301819055508360036000805481526020019081526020016000206004019080519060200190610601929190612299565b50826006600080548152602001908152602001600020908051906020019061062a929190612299565b5033600360008054815260200190815260200160002060050160006101000a81548173ffffffffffffffffffffffffffffffffffffffff021916908373ffffffffffffffffffffffffffffffffffffffff16021790555081600360008054815260200190815260200160002060050160146101000a81548160ff0219169083600a8111156106bb576106ba613522565b5b021790555080600360008054815260200190815260200160002060060181905550600060036000805481526020019081526020016000206008018190555060006003600080548152602001908152602001600020600e018190555060006003600080548152602001908152602001600020600a0181905550600067ffffffffffffffff81111561074e5761074d6135af565b5b60405190808252806020026020018201604052801561077c5781602001602082028036833780820191505090505b50600360008054815260200190815260200160002060090190805190602001906107a792919061231f565b507f1a3f2c9175d23760b6304c5f19e98b7b12dd25309a0a92996815dcf864cece096000548888888888336040516107e59796959493929190613010565b60405180910390a150505050505050565b60606003600083815260200190815260200160002060090180548060200260200160405190810160405280929190818152602001828054801561088e57602002820191906000526020600020905b8160009054906101000a900473ffffffffffffffffffffffffffffffffffffffff1673ffffffffffffffffffffffffffffffffffffffff1681526020019060010190808311610844575b50505050509050919050565b60046020528060005260406000206000915090508060000160009054906101000a900473ffffffffffffffffffffffffffffffffffffffff16908060010180546108e390613418565b80601f016020809104026020016040519081016040528092919081815260200182805461090f90613418565b801561095c5780601f106109315761010080835404028352916020019161095c565b820191906000526020600020905b81548152906001019060200180831161093f57829003601f168201915b5050505050905082565b60006003600083815260200190815260200160002060050160009054906101000a900473ffffffffffffffffffffffffffffffffffffffff1690503373ffffffffffffffffffffffffffffffffffffffff166003600084815260200190815260200160002060050160009054906101000a900473ffffffffffffffffffffffffffffffffffffffff1673ffffffffffffffffffffffffffffffffffffffff161415610a46576040517f08c379a0000000000000000000000000000000000000000000000000000000008152600401610a3d90612f06565b60405180910390fd5b60006003600084815260200190815260200160002060000154118015610a845750600054600360008481526020019081526020016000206000015411155b610a8d57600080fd5b6003600083815260200190815260200160002060030154341015610ae6576040517f08c379a0000000000000000000000000000000000000000000000000000000008152600401610add90612ec6565b60405180910390fd5b3373ffffffffffffffffffffffffffffffffffffffff168173ffffffffffffffffffffffffffffffffffffffff161415610b1f57600080fd5b600160036000848152602001908152602001600020600c0160003373ffffffffffffffffffffffffffffffffffffffff1673ffffffffffffffffffffffffffffffffffffffff16815260200190815260200160002060000160006101000a81548160ff02191690831515021790555060036000838152602001908152602001600020600901339080600181540180825580915050600190039060005260206000200160009091909190916101000a81548173ffffffffffffffffffffffffffffffffffffffff021916908373ffffffffffffffffffffffffffffffffffffffff16021790555060036000838152602001908152602001600020600a016000815480929190610c2c9061347b565b9190505550600460003373ffffffffffffffffffffffffffffffffffffffff1673ffffffffffffffffffffffffffffffffffffffff1681526020019081526020016000206002018290806001815401808255809150506001900390600052602060002001600090919091909150558073ffffffffffffffffffffffffffffffffffffffff166108fc349081150290604051600060405180830381858888f19350505050158015610ce0573d6000803e3d6000fd5b507fa60391b5fc12a2bf84e95996952da9569290e72de60381dafc011bc0fbbd6af1600054600360008581526020019081526020016000206001016003600086815260200190815260200160002060020160036000878152602001908152602001600020600301546003600088815260200190815260200160002060040133604051610d719695949392919061309b565b60405180910390a15050565b6001151560036000868152602001908152602001600020600c0160003373ffffffffffffffffffffffffffffffffffffffff1673ffffffffffffffffffffffffffffffffffffffff16815260200190815260200160002060000160009054906101000a900460ff16151514610e27576040517f08c379a0000000000000000000000000000000000000000000000000000000008152600401610e1e90612ee6565b60405180910390fd5b6000151560036000868152602001908152602001600020600c0160003373ffffffffffffffffffffffffffffffffffffffff1673ffffffffffffffffffffffffffffffffffffffff16815260200190815260200160002060000160019054906101000a900460ff161515141561143a57600160036000868152602001908152602001600020600c0160003373ffffffffffffffffffffffffffffffffffffffff1673ffffffffffffffffffffffffffffffffffffffff16815260200190815260200160002060000160016101000a81548160ff0219169083151502179055503360036000868152602001908152602001600020600c0160003373ffffffffffffffffffffffffffffffffffffffff1673ffffffffffffffffffffffffffffffffffffffff16815260200190815260200160002060000160026101000a81548173ffffffffffffffffffffffffffffffffffffffff021916908373ffffffffffffffffffffffffffffffffffffffff160217905550600460003373ffffffffffffffffffffffffffffffffffffffff1673ffffffffffffffffffffffffffffffffffffffff16815260200190815260200160002060010160036000868152602001908152602001600020600c0160003373ffffffffffffffffffffffffffffffffffffffff1673ffffffffffffffffffffffffffffffffffffffff16815260200190815260200160002060010190805461103f90613418565b61104a9291906123a9565b508260036000868152602001908152602001600020600c0160003373ffffffffffffffffffffffffffffffffffffffff1673ffffffffffffffffffffffffffffffffffffffff168152602001908152602001600020600201819055508060036000868152602001908152602001600020600c0160003373ffffffffffffffffffffffffffffffffffffffff1673ffffffffffffffffffffffffffffffffffffffff1681526020019081526020016000206003019080519060200190611110929190612299565b508160036000868152602001908152602001600020600c0160003373ffffffffffffffffffffffffffffffffffffffff1673ffffffffffffffffffffffffffffffffffffffff168152602001908152602001600020600401819055504260036000868152602001908152602001600020600c0160003373ffffffffffffffffffffffffffffffffffffffff1673ffffffffffffffffffffffffffffffffffffffff1681526020019081526020016000206005018190555060036000858152602001908152602001600020600b0160036000868152602001908152602001600020600c0160003373ffffffffffffffffffffffffffffffffffffffff1673ffffffffffffffffffffffffffffffffffffffff16815260200190815260200160002090806001815401808255809150506001900390600052602060002090600602016000909190919091506000820160009054906101000a900460ff168160000160006101000a81548160ff0219169083151502179055506000820160019054906101000a900460ff168160000160016101000a81548160ff0219169083151502179055506000820160029054906101000a900473ffffffffffffffffffffffffffffffffffffffff168160000160026101000a81548173ffffffffffffffffffffffffffffffffffffffff021916908373ffffffffffffffffffffffffffffffffffffffff160217905550600182018160010190805461132e90613418565b611339929190612436565b5060028201548160020155600382018160030190805461135890613418565b611363929190612436565b50600482015481600401556005820154816005015550506003600085815260200190815260200160002060080160008154809291906113a19061347b565b91905055506000600160036000878152602001908152602001600020600801546113cb9190613335565b60036000878152602001908152602001600020600701546113ec91906132db565b905083816113fa9190613254565b905060036000868152602001908152602001600020600801548161141e91906132aa565b6003600087815260200190815260200160002060070181905550505b50505050565b60603373ffffffffffffffffffffffffffffffffffffffff166003600084815260200190815260200160002060050160009054906101000a900473ffffffffffffffffffffffffffffffffffffffff1673ffffffffffffffffffffffffffffffffffffffff16141561154f576006600083815260200190815260200160002080546114ca90613418565b80601f01602080910402602001604051908101604052809291908181526020018280546114f690613418565b80156115435780601f1061151857610100808354040283529160200191611543565b820191906000526020600020905b81548152906001019060200180831161152657829003601f168201915b505050505090506116f0565b6000600360008481526020019081526020016000206009018054905011156116d85760005b60036000848152602001908152602001600020600901805490508110156116d2573373ffffffffffffffffffffffffffffffffffffffff166003600085815260200190815260200160002060090182815481106115d4576115d3613580565b5b9060005260206000200160009054906101000a900473ffffffffffffffffffffffffffffffffffffffff1673ffffffffffffffffffffffffffffffffffffffff1614156116bf5760066000848152602001908152602001600020805461163990613418565b80601f016020809104026020016040519081016040528092919081815260200182805461166590613418565b80156116b25780601f10611687576101008083540402835291602001916116b2565b820191906000526020600020905b81548152906001019060200180831161169557829003601f168201915b50505050509150506116f0565b80806116ca9061347b565b915050611574565b506116ef565b6040518060200160405280600081525090506116f0565b5b919050565b606060036000838152602001908152602001600020600b01805480602002602001604051908101604052809291908181526020016000905b8282101561192e5783829060005260206000209060060201604051806101000160405290816000820160009054906101000a900460ff161515151581526020016000820160019054906101000a900460ff161515151581526020016000820160029054906101000a900473ffffffffffffffffffffffffffffffffffffffff1673ffffffffffffffffffffffffffffffffffffffff1673ffffffffffffffffffffffffffffffffffffffff1681526020016001820180546117ed90613418565b80601f016020809104026020016040519081016040528092919081815260200182805461181990613418565b80156118665780601f1061183b57610100808354040283529160200191611866565b820191906000526020600020905b81548152906001019060200180831161184957829003601f168201915b505050505081526020016002820154815260200160038201805461188990613418565b80601f01602080910402602001604051908101604052809291908181526020018280546118b590613418565b80156119025780601f106118d757610100808354040283529160200191611902565b820191906000526020600020905b8154815290600101906020018083116118e557829003601f168201915b50505050508152602001600482015481526020016005820154815250508152602001906001019061172d565b505050509050919050565b600060036000838152602001908152602001600020600e01549050919050565b6003600082815260200190815260200160002060050160009054906101000a900473ffffffffffffffffffffffffffffffffffffffff1673ffffffffffffffffffffffffffffffffffffffff163373ffffffffffffffffffffffffffffffffffffffff161415611a9d57600360008281526020019081526020016000206000808201600090556001820160006119ef91906124c3565b6002820160006119ff91906124c3565b6003820160009055600482016000611a1791906124c3565b6005820160006101000a81549073ffffffffffffffffffffffffffffffffffffffff02191690556005820160146101000a81549060ff0219169055600682016000905560078201600090556008820160009055600982016000611a7a9190612503565b600a820160009055600b82016000611a929190612524565b600e82016000905550505b50565b6003602052806000526040600020600091509050806000015490806001018054611ac990613418565b80601f0160208091040260200160405190810160405280929190818152602001828054611af590613418565b8015611b425780601f10611b1757610100808354040283529160200191611b42565b820191906000526020600020905b815481529060010190602001808311611b2557829003601f168201915b505050505090806002018054611b5790613418565b80601f0160208091040260200160405190810160405280929190818152602001828054611b8390613418565b8015611bd05780601f10611ba557610100808354040283529160200191611bd0565b820191906000526020600020905b815481529060010190602001808311611bb357829003601f168201915b505050505090806003015490806004018054611beb90613418565b80601f0160208091040260200160405190810160405280929190818152602001828054611c1790613418565b8015611c645780601f10611c3957610100808354040283529160200191611c64565b820191906000526020600020905b815481529060010190602001808311611c4757829003601f168201915b5050505050908060050160009054906101000a900473ffffffffffffffffffffffffffffffffffffffff16908060050160149054906101000a900460ff169080600601549080600701549080600801549080600a01549080600e015490508c565b6003600086815260200190815260200160002060050160009054906101000a900473ffffffffffffffffffffffffffffffffffffffff1673ffffffffffffffffffffffffffffffffffffffff163373ffffffffffffffffffffffffffffffffffffffff161415611ddf5783600360008781526020019081526020016000206001019080519060200190611d59929190612299565b5082600360008781526020019081526020016000206002019080519060200190611d84929190612299565b50816003600087815260200190815260200160002060030181905550806003600087815260200190815260200160002060050160146101000a81548160ff0219169083600a811115611dd957611dd8613522565b5b02179055505b5050505050565b600260009054906101000a900460ff1681565b6000151560036000838152602001908152602001600020600d0160003373ffffffffffffffffffffffffffffffffffffffff1673ffffffffffffffffffffffffffffffffffffffff16815260200190815260200160002060009054906101000a900460ff1615151415611f285760036000828152602001908152602001600020600e016000815480929190611e8d9061347b565b9190505550600160036000838152602001908152602001600020600d0160003373ffffffffffffffffffffffffffffffffffffffff1673ffffffffffffffffffffffffffffffffffffffff16815260200190815260200160002060006101000a81548160ff02191690831515021790555060075460036000838152602001908152602001600020600e015410611f2757611f2681611959565b5b5b50565b60015481565b60056020528060005260406000206000915054906101000a900473ffffffffffffffffffffffffffffffffffffffff1681565b6060600460008373ffffffffffffffffffffffffffffffffffffffff1673ffffffffffffffffffffffffffffffffffffffff168152602001908152602001600020600201805480602002602001604051908101604052809291908181526020018280548015611ff257602002820191906000526020600020905b815481526020019060010190808311611fde575b50505050509050919050565b60008060405180606001604052808573ffffffffffffffffffffffffffffffffffffffff168152602001848152602001600067ffffffffffffffff811115612049576120486135af565b5b6040519080825280602002602001820160405280156120775781602001602082028036833780820191505090505b508152509050600160008154809291906120909061347b565b9190505550806000015160056000600154815260200190815260200160002060006101000a81548173ffffffffffffffffffffffffffffffffffffffff021916908373ffffffffffffffffffffffffffffffffffffffff16021790555080600460008673ffffffffffffffffffffffffffffffffffffffff1673ffffffffffffffffffffffffffffffffffffffff16815260200190815260200160002060008201518160000160006101000a81548173ffffffffffffffffffffffffffffffffffffffff021916908373ffffffffffffffffffffffffffffffffffffffff1602179055506020820151816001019080519060200190612190929190612299565b5060408201518160020190805190602001906121ad929190612548565b509050507f155e8619f4d23b96769599cb9af87da3e06a360082869c18578011da9a06e670846040516121e09190612dd8565b60405180910390a1600191505092915050565b60005481565b6006602052806000526040600020600091509050805461221890613418565b80601f016020809104026020016040519081016040528092919081815260200182805461224490613418565b80156122915780601f1061226657610100808354040283529160200191612291565b820191906000526020600020905b81548152906001019060200180831161227457829003601f168201915b505050505081565b8280546122a590613418565b90600052602060002090601f0160209004810192826122c7576000855561230e565b82601f106122e057805160ff191683800117855561230e565b8280016001018555821561230e579182015b8281111561230d5782518255916020019190600101906122f2565b5b50905061231b9190612595565b5090565b828054828255906000526020600020908101928215612398579160200282015b828111156123975782518260006101000a81548173ffffffffffffffffffffffffffffffffffffffff021916908373ffffffffffffffffffffffffffffffffffffffff1602179055509160200191906001019061233f565b5b5090506123a59190612595565b5090565b8280546123b590613418565b90600052602060002090601f0160209004810192826123d75760008555612425565b82601f106123e85780548555612425565b8280016001018555821561242557600052602060002091601f016020900482015b82811115612424578254825591600101919060010190612409565b5b5090506124329190612595565b5090565b82805461244290613418565b90600052602060002090601f01602090048101928261246457600085556124b2565b82601f1061247557805485556124b2565b828001600101855582156124b257600052602060002091601f016020900482015b828111156124b1578254825591600101919060010190612496565b5b5090506124bf9190612595565b5090565b5080546124cf90613418565b6000825580601f106124e15750612500565b601f0160209004906000526020600020908101906124ff9190612595565b5b50565b50805460008255906000526020600020908101906125219190612595565b50565b508054600082556006029060005260206000209081019061254591906125b2565b50565b828054828255906000526020600020908101928215612584579160200282015b82811115612583578251825591602001919060010190612568565b5b5090506125919190612595565b5090565b5b808211156125ae576000816000905550600101612596565b5090565b5b8082111561264c57600080820160006101000a81549060ff02191690556000820160016101000a81549060ff02191690556000820160026101000a81549073ffffffffffffffffffffffffffffffffffffffff021916905560018201600061261b91906124c3565b600282016000905560038201600061263391906124c3565b60048201600090556005820160009055506006016125b3565b5090565b600061266361265e84613136565b613111565b90508281526020810184848401111561267f5761267e6135e3565b5b61268a8482856133d6565b509392505050565b6000813590506126a1816136b8565b92915050565b6000813590506126b6816136cf565b92915050565b600082601f8301126126d1576126d06135de565b5b81356126e1848260208601612650565b91505092915050565b6000813590506126f9816136df565b92915050565b600060208284031215612715576127146135ed565b5b600061272384828501612692565b91505092915050565b60008060408385031215612743576127426135ed565b5b600061275185828601612692565b925050602083013567ffffffffffffffff811115612772576127716135e8565b5b61277e858286016126bc565b9150509250929050565b60008060008060008060c087890312156127a5576127a46135ed565b5b600087013567ffffffffffffffff8111156127c3576127c26135e8565b5b6127cf89828a016126bc565b965050602087013567ffffffffffffffff8111156127f0576127ef6135e8565b5b6127fc89828a016126bc565b955050604061280d89828a016126ea565b945050606087013567ffffffffffffffff81111561282e5761282d6135e8565b5b61283a89828a016126bc565b935050608087013567ffffffffffffffff81111561285b5761285a6135e8565b5b61286789828a016126bc565b92505060a061287889828a016126a7565b9150509295509295509295565b60006020828403121561289b5761289a6135ed565b5b60006128a9848285016126ea565b91505092915050565b600080600080600060a086880312156128ce576128cd6135ed565b5b60006128dc888289016126ea565b955050602086013567ffffffffffffffff8111156128fd576128fc6135e8565b5b612909888289016126bc565b945050604086013567ffffffffffffffff81111561292a576129296135e8565b5b612936888289016126bc565b9350506060612947888289016126ea565b9250506080612958888289016126a7565b9150509295509295909350565b6000806000806080858703121561297f5761297e6135ed565b5b600061298d878288016126ea565b945050602061299e878288016126ea565b93505060406129af878288016126ea565b925050606085013567ffffffffffffffff8111156129d0576129cf6135e8565b5b6129dc878288016126bc565b91505092959194509250565b60006129f48383612a2c565b60208301905092915050565b6000612a0c8383612d03565b905092915050565b6000612a208383612dba565b60208301905092915050565b612a3581613369565b82525050565b612a4481613369565b82525050565b6000612a55826131ac565b612a5f81856131ff565b9350612a6a83613167565b8060005b83811015612a9b578151612a8288826129e8565b9750612a8d836131d8565b925050600181019050612a6e565b5085935050505092915050565b6000612ab3826131b7565b612abd8185613210565b935083602082028501612acf85613177565b8060005b85811015612b0b5784840389528151612aec8582612a00565b9450612af7836131e5565b925060208a01995050600181019050612ad3565b50829750879550505050505092915050565b6000612b28826131c2565b612b328185613221565b9350612b3d83613187565b8060005b83811015612b6e578151612b558882612a14565b9750612b60836131f2565b925050600181019050612b41565b5085935050505092915050565b612b848161337b565b82525050565b612b938161337b565b82525050565b612ba2816133c4565b82525050565b6000612bb3826131cd565b612bbd8185613232565b9350612bcd8185602086016133e5565b612bd6816135f2565b840191505092915050565b6000612bec826131cd565b612bf68185613243565b9350612c068185602086016133e5565b612c0f816135f2565b840191505092915050565b60008154612c2781613418565b612c318186613243565b94506001821660008114612c4c5760018114612c5e57612c91565b60ff1983168652602086019350612c91565b612c6785613197565b60005b83811015612c8957815481890152600182019150602081019050612c6a565b808801955050505b50505092915050565b6000612ca7601283613243565b9150612cb282613603565b602082019050919050565b6000612cca602b83613243565b9150612cd58261362c565b604082019050919050565b6000612ced601f83613243565b9150612cf88261367b565b602082019050919050565b600061010083016000830151612d1c6000860182612b7b565b506020830151612d2f6020860182612b7b565b506040830151612d426040860182612a2c565b5060608301518482036060860152612d5a8282612ba8565b9150506080830151612d6f6080860182612dba565b5060a083015184820360a0860152612d878282612ba8565b91505060c0830151612d9c60c0860182612dba565b5060e0830151612daf60e0860182612dba565b508091505092915050565b612dc3816133ba565b82525050565b612dd2816133ba565b82525050565b6000602082019050612ded6000830184612a3b565b92915050565b6000604082019050612e086000830185612a3b565b8181036020830152612e1a8184612be1565b90509392505050565b60006020820190508181036000830152612e3d8184612a4a565b905092915050565b60006020820190508181036000830152612e5f8184612aa8565b905092915050565b60006020820190508181036000830152612e818184612b1d565b905092915050565b6000602082019050612e9e6000830184612b8a565b92915050565b60006020820190508181036000830152612ebe8184612be1565b905092915050565b60006020820190508181036000830152612edf81612c9a565b9050919050565b60006020820190508181036000830152612eff81612cbd565b9050919050565b60006020820190508181036000830152612f1f81612ce0565b9050919050565b6000602082019050612f3b6000830184612dc9565b92915050565b600061018082019050612f57600083018f612dc9565b8181036020830152612f69818e612be1565b90508181036040830152612f7d818d612be1565b9050612f8c606083018c612dc9565b8181036080830152612f9e818b612be1565b9050612fad60a083018a612a3b565b612fba60c0830189612b99565b612fc760e0830188612dc9565b612fd5610100830187612dc9565b612fe3610120830186612dc9565b612ff1610140830185612dc9565b612fff610160830184612dc9565b9d9c50505050505050505050505050565b600060e082019050613025600083018a612dc9565b81810360208301526130378189612be1565b9050818103604083015261304b8188612be1565b905061305a6060830187612dc9565b818103608083015261306c8186612be1565b905081810360a08301526130808185612be1565b905061308f60c0830184612a3b565b98975050505050505050565b600060c0820190506130b06000830189612dc9565b81810360208301526130c28188612c1a565b905081810360408301526130d68187612c1a565b90506130e56060830186612dc9565b81810360808301526130f78185612c1a565b905061310660a0830184612a3b565b979650505050505050565b600061311b61312c565b9050613127828261344a565b919050565b6000604051905090565b600067ffffffffffffffff821115613151576131506135af565b5b61315a826135f2565b9050602081019050919050565b6000819050602082019050919050565b6000819050602082019050919050565b6000819050602082019050919050565b60008190508160005260206000209050919050565b600081519050919050565b600081519050919050565b600081519050919050565b600081519050919050565b6000602082019050919050565b6000602082019050919050565b6000602082019050919050565b600082825260208201905092915050565b600082825260208201905092915050565b600082825260208201905092915050565b600082825260208201905092915050565b600082825260208201905092915050565b600061325f826133ba565b915061326a836133ba565b9250827fffffffffffffffffffffffffffffffffffffffffffffffffffffffffffffffff0382111561329f5761329e6134c4565b5b828201905092915050565b60006132b5826133ba565b91506132c0836133ba565b9250826132d0576132cf6134f3565b5b828204905092915050565b60006132e6826133ba565b91506132f1836133ba565b9250817fffffffffffffffffffffffffffffffffffffffffffffffffffffffffffffffff048311821515161561332a576133296134c4565b5b828202905092915050565b6000613340826133ba565b915061334b836133ba565b92508282101561335e5761335d6134c4565b5b828203905092915050565b60006133748261339a565b9050919050565b60008115159050919050565b6000819050613395826136a4565b919050565b600073ffffffffffffffffffffffffffffffffffffffff82169050919050565b6000819050919050565b60006133cf82613387565b9050919050565b82818337600083830152505050565b60005b838110156134035780820151818401526020810190506133e8565b83811115613412576000848401525b50505050565b6000600282049050600182168061343057607f821691505b6020821081141561344457613443613551565b5b50919050565b613453826135f2565b810181811067ffffffffffffffff82111715613472576134716135af565b5b80604052505050565b6000613486826133ba565b91507fffffffffffffffffffffffffffffffffffffffffffffffffffffffffffffffff8214156134b9576134b86134c4565b5b600182019050919050565b7f4e487b7100000000000000000000000000000000000000000000000000000000600052601160045260246000fd5b7f4e487b7100000000000000000000000000000000000000000000000000000000600052601260045260246000fd5b7f4e487b7100000000000000000000000000000000000000000000000000000000600052602160045260246000fd5b7f4e487b7100000000000000000000000000000000000000000000000000000000600052602260045260246000fd5b7f4e487b7100000000000000000000000000000000000000000000000000000000600052603260045260246000fd5b7f4e487b7100000000000000000000000000000000000000000000000000000000600052604160045260246000fd5b600080fd5b600080fd5b600080fd5b600080fd5b6000601f19601f8301169050919050565b7f496e73756666696369656e742045746865720000000000000000000000000000600082015250565b7f596f7520617265206e6f7420656c696769626c6520746f20726576696577207460008201527f6869732070726f64756374000000000000000000000000000000000000000000602082015250565b7f596f752063616e6e6f742062757920796f7572206f776e2070726f6475637400600082015250565b600b81106136b5576136b4613522565b5b50565b6136c181613369565b81146136cc57600080fd5b50565b600b81106136dc57600080fd5b50565b6136e8816133ba565b81146136f357600080fd5b5056fea2646970667358221220ac25856f55ee61b8659cfd815cff4482d56b08b696214866ec4d2d28eb49d3b264736f6c63430008070033",
  "immutableReferences": {},
  "source": "//buyer w purchasedProduct\r\n//raters\r\n// SPDX-License-Identifier: MIT\r\npragma solidity  ^0.8.0;\r\n\r\ncontract Marketplace {\r\n    //string public name;\r\n    uint public productCount = 0;\r\n    uint public customerCount = 0;\r\n    //to store the products on blockchain\r\n    bool public flag = false;\r\n    mapping(uint => Product) public products;\r\n    //mapping(uint => uint[]) public productsRates;\r\n    //mapping(uint => string[]) public productsReviews;\r\n    //to store the customers on blockchain\r\n    mapping(address  => Customer) public customers;\r\n    mapping(uint => address) public addressLUT;\r\n    mapping(uint => string) public files;\r\n    uint256 MAXREPORT = 100;\r\n    \r\n    enum Categories {\r\n        Tech,\r\n        PCGames,\r\n        PS4Games,\r\n        XboxGames,\r\n        Movies,\r\n        Courses,\r\n        Books,\r\n        AudioBooks,\r\n        Images,\r\n        Videos,\r\n        Other\r\n    }\r\n    struct Review{\r\n        bool isBuy;\r\n        bool isReview;\r\n        address adr;\r\n        string name;\r\n        uint256 rate;\r\n        string reviewDescription;\r\n        uint256 score;\r\n        uint timeStamp;\r\n    }\r\n    struct Customer {\r\n        address adr;\r\n        string name;\r\n        uint256[] purchasedProducts;\r\n        \r\n    }\r\n\r\n    struct Product {\r\n        uint id;\r\n        string name;\r\n        string description;\r\n        uint price;\r\n        string imgipfshash;\r\n        address owner;\r\n        Categories categorie;\r\n        uint256 uploadedOn;\r\n        uint256 rate;\r\n        uint256 reviewsCount;\r\n        address[] buyers;\r\n        uint256 totalSold;\r\n        Review [] reviews;\r\n        mapping (address=>Review) productUserReview;\r\n        mapping (address => bool)hasReported;\r\n        uint report;\r\n        //bool removed;\r\n    }\r\n\r\n    event ProductCreated(uint id, string name, string description, uint price, string imgipfshash, string fileipfshash, address owner);\r\n    event ProductPurchased(uint id, string name, string description, uint price, string imgipfshash, address owner);\r\n    event CustomerRegistered(address customer);\r\n    event CustomerRegistrationFailed(address customer);\r\n    event CartProductInserted(address customer, uint256 prodId, uint256 prodPrice, uint256 completeSum);\r\n    event CartProductInsertionFailed(address customer, uint256 prodId);\r\n    event CartProductRemoved(address customer, uint256 prodId);\r\n    event CartEmptied(address customer);\r\n\r\n    // Create a new product with a struct\r\n    // Add the struct to the mapping, and store it on the blockchain\r\n    // Trigger an event that lets someone know a product was creatd\r\n    function createProduct(string memory _name,string memory _description, uint _price,string memory _imgipfshash,string memory _fileipfshash , Categories _categorie ) public {\r\n        // Require a valid name\r\n        require(bytes(_name).length > 0);\r\n        // Require a valid description\r\n        require(bytes(_description).length > 0);\r\n        // Require a valid price\r\n        require(_price > 0);\r\n        // Require a valid image hash\r\n        require(bytes(_imgipfshash).length > 0);\r\n        // Increment product count\r\n        uint256 _uploadedOn = block.timestamp;\r\n        //increment number of products\r\n        productCount ++;\r\n        //initiate avgRate array\r\n        //add this Product to the products map\r\n        products[productCount].id = productCount;\r\n        products[productCount].name = _name;\r\n        products[productCount].description = _description;\r\n        products[productCount].price = _price;\r\n        products[productCount].imgipfshash = _imgipfshash;\r\n        files[productCount] = _fileipfshash;\r\n        products[productCount].owner = msg.sender;\r\n        products[productCount].categorie = _categorie;\r\n        products[productCount].uploadedOn = _uploadedOn;\r\n        products[productCount].reviewsCount = 0;\r\n        products[productCount].report = 0;\r\n        products[productCount].totalSold = 0;\r\n        products[productCount].buyers = new address[](0);\r\n        //products[productCount].removed = false;\r\n        //add this product to the customer's owned product\r\n        //create an event\r\n        emit ProductCreated(productCount, _name, _description, _price, _imgipfshash,_fileipfshash, msg.sender);\r\n    }\r\n\r\n    function purchaseProduct(uint _id) public payable {\r\n        // Fetch the owner\r\n        address _seller = products[_id].owner;\r\n        require(products[_id].owner != msg.sender, \"You cannot buy your own product\");\r\n        // Make sure the product has a valid id\r\n        require(products[_id].id > 0 && products[_id].id <= productCount);\r\n        // Require that there is enough Ether in the transaction\r\n        require(msg.value >= products[_id].price, \"Insufficient Ether\");\r\n        // Require that the buyer is not the seller\r\n        require(_seller != msg.sender);\r\n        //add to products a user can revie\r\n        products[_id].productUserReview[msg.sender].isBuy = true;\r\n        //add this customer to the people who bought this product\r\n        products[_id].buyers.push(msg.sender);\r\n        //update total purchases\r\n        products[_id].totalSold++;\r\n        //add to the products owners\r\n        customers[msg.sender].purchasedProducts.push(_id);\r\n        // Pay the seller by sending them Ether\r\n        payable(_seller).transfer(msg.value);\r\n        // Trigger an event\r\n        emit ProductPurchased(productCount, products[_id].name,products[_id].description, products[_id].price, products[_id].imgipfshash, msg.sender);\r\n    }\r\n    /* function removeProduct(uint id1) public {\r\n         if(msg.sender == products[id1].owner){\r\n             products[id1].removed = true;\r\n         }\r\n     }*/\r\n    function removeProduct(uint id1) public {\r\n        if(msg.sender == products[id1].owner){\r\n            delete products [id1];\r\n        }\r\n    }\r\n    function editProduct(uint256 _id , string memory _name , string memory _des , uint _price , Categories _categorie) public{\r\n        if(msg.sender == products[_id].owner){\r\n            products[_id].name = _name;\r\n            products[_id].description = _des;\r\n            products[_id].price = _price;\r\n            products[_id].categorie = _categorie;\r\n            \r\n        }\r\n    }\r\n    function reviewProduct(uint _id,uint256 _rate,uint256 _score, string memory _review) public\r\n    {\r\n           require(products[_id].productUserReview[msg.sender].isBuy == true, \"You are not eligible to review this product\");\r\n           if (products[_id].productUserReview[msg.sender].isReview == false){ //only once\r\n               products[_id].productUserReview[msg.sender].isReview = true;\r\n\r\n               products[_id].productUserReview[msg.sender].adr = msg.sender;\r\n               products[_id].productUserReview[msg.sender].name = customers[msg.sender].name;\r\n               products[_id].productUserReview[msg.sender].rate = _rate;\r\n               products[_id].productUserReview[msg.sender].reviewDescription = _review;\r\n               products[_id].productUserReview[msg.sender].score = _score;\r\n               products[_id].productUserReview[msg.sender].timeStamp = block.timestamp;\r\n\r\n    \r\n               products[_id].reviews.push(products[_id].productUserReview[msg.sender]);\r\n    \r\n               products[_id].reviewsCount ++;\r\n               \r\n               //calculate and update product rate\r\n                uint avg = (products[_id].rate) * (products[_id].reviewsCount - 1);\r\n                avg += _rate;\r\n                products[_id].rate = avg / products[_id].reviewsCount;\r\n               /*uint sum=0;\r\n               for(uint i=0;i<products[_id].reviews.length;i++){\r\n                    sum+=products[_id].reviews[i].rate;\r\n               }\r\n               products[_id].rate = sum/products[_id].reviewsCount;*/\r\n           }\r\n\r\n    }\r\n\r\n    function registerCustomer(address _address, string memory _name)\r\n                                        public returns (bool success) {\r\n        Customer memory customer = Customer(_address, _name,new uint256[](0));\r\n        customerCount++;\r\n        addressLUT[customerCount]=customer.adr;\r\n        customers[_address] = customer;\r\n        emit CustomerRegistered(_address);\r\n        return true;\r\n    }\r\n    function report(uint _id) public {\r\n        if(products[_id].hasReported[msg.sender] == false){\r\n            products[_id].report++;\r\n            products[_id].hasReported[msg.sender] = true;\r\n            if(products[_id].report >= MAXREPORT){\r\n                removeProduct(_id);\r\n            }\r\n        }\r\n    }\r\n    function getReport(uint _id) public view returns(uint){\r\n        return products[_id].report;\r\n    }\r\n    function getProductReviews(uint _id) public view returns (Review[] memory){\r\n        return products[_id].reviews;\r\n    }\r\n    function getProductBuyers(uint _id) public view returns(address[] memory){\r\n        return products[_id].buyers;\r\n    }\r\n    function getProductfile(uint _id) public view returns(string memory){\r\n        if(products[_id].owner == msg.sender){\r\n            return files[_id];\r\n        }\r\n        else if(products[_id].buyers.length > 0)\r\n        for(uint i=0;i<products[_id].buyers.length;i++){\r\n            if(products[_id].buyers[i] == msg.sender)\r\n                return files[_id];\r\n        }\r\n        else\r\n        return \"\";\r\n    }\r\n    function getPurchasedProducts(address adr) public view returns( uint256[] memory){\r\n        return customers[adr].purchasedProducts;\r\n    }\r\n\r\n}",
  "sourcePath": "C:\\Users\\carol\\Desktop\\marketplace\\src\\contracts\\Marketplace.sol",
  "compiler": {
    "name": "solc",
    "version": "0.8.7+commit.e28d00a7.Emscripten.clang"
  },
  "schemaVersion": "3.4.2",
  "updatedAt": "2021-08-28T17:20:39.491Z",
  "devdoc": {
    "kind": "dev",
    "methods": {},
    "version": 1
  },
  "userdoc": {
    "kind": "user",
    "methods": {},
    "version": 1
  }
}