{
  "contractName": "Marketplace",
  "abi": [
    {
      "anonymous": false,
      "inputs": [
        {
          "indexed": false,
          "internalType": "address",
          "name": "customer",
          "type": "address"
        }
      ],
      "name": "CartEmptied",
      "type": "event"
    },
    {
      "anonymous": false,
      "inputs": [
        {
          "indexed": false,
          "internalType": "address",
          "name": "customer",
          "type": "address"
        },
        {
          "indexed": false,
          "internalType": "uint256",
          "name": "prodId",
          "type": "uint256"
        },
        {
          "indexed": false,
          "internalType": "uint256",
          "name": "prodPrice",
          "type": "uint256"
        },
        {
          "indexed": false,
          "internalType": "uint256",
          "name": "completeSum",
          "type": "uint256"
        }
      ],
      "name": "CartProductInserted",
      "type": "event"
    },
    {
      "anonymous": false,
      "inputs": [
        {
          "indexed": false,
          "internalType": "address",
          "name": "customer",
          "type": "address"
        },
        {
          "indexed": false,
          "internalType": "uint256",
          "name": "prodId",
          "type": "uint256"
        }
      ],
      "name": "CartProductInsertionFailed",
      "type": "event"
    },
    {
      "anonymous": false,
      "inputs": [
        {
          "indexed": false,
          "internalType": "address",
          "name": "customer",
          "type": "address"
        },
        {
          "indexed": false,
          "internalType": "uint256",
          "name": "prodId",
          "type": "uint256"
        }
      ],
      "name": "CartProductRemoved",
      "type": "event"
    },
    {
      "anonymous": false,
      "inputs": [
        {
          "indexed": false,
          "internalType": "address",
          "name": "customer",
          "type": "address"
        }
      ],
      "name": "CustomerRegistered",
      "type": "event"
    },
    {
      "anonymous": false,
      "inputs": [
        {
          "indexed": false,
          "internalType": "address",
          "name": "customer",
          "type": "address"
        }
      ],
      "name": "CustomerRegistrationFailed",
      "type": "event"
    },
    {
      "anonymous": false,
      "inputs": [
        {
          "indexed": false,
          "internalType": "uint256",
          "name": "id",
          "type": "uint256"
        },
        {
          "indexed": false,
          "internalType": "string",
          "name": "name",
          "type": "string"
        },
        {
          "indexed": false,
          "internalType": "string",
          "name": "description",
          "type": "string"
        },
        {
          "indexed": false,
          "internalType": "uint256",
          "name": "price",
          "type": "uint256"
        },
        {
          "indexed": false,
          "internalType": "string",
          "name": "imgipfshash",
          "type": "string"
        },
        {
          "indexed": false,
          "internalType": "string",
          "name": "fileipfshash",
          "type": "string"
        },
        {
          "indexed": false,
          "internalType": "address",
          "name": "owner",
          "type": "address"
        }
      ],
      "name": "ProductCreated",
      "type": "event"
    },
    {
      "anonymous": false,
      "inputs": [
        {
          "indexed": false,
          "internalType": "uint256",
          "name": "id",
          "type": "uint256"
        },
        {
          "indexed": false,
          "internalType": "string",
          "name": "name",
          "type": "string"
        },
        {
          "indexed": false,
          "internalType": "string",
          "name": "description",
          "type": "string"
        },
        {
          "indexed": false,
          "internalType": "uint256",
          "name": "price",
          "type": "uint256"
        },
        {
          "indexed": false,
          "internalType": "string",
          "name": "imgipfshash",
          "type": "string"
        },
        {
          "indexed": false,
          "internalType": "address",
          "name": "owner",
          "type": "address"
        }
      ],
      "name": "ProductPurchased",
      "type": "event"
    },
    {
      "inputs": [
        {
          "internalType": "uint256",
          "name": "",
          "type": "uint256"
        }
      ],
      "name": "addressLUT",
      "outputs": [
        {
          "internalType": "address",
          "name": "",
          "type": "address"
        }
      ],
      "stateMutability": "view",
      "type": "function",
      "constant": true
    },
    {
      "inputs": [
        {
          "internalType": "enum Marketplace.Categories",
          "name": "",
          "type": "uint8"
        },
        {
          "internalType": "uint256",
          "name": "",
          "type": "uint256"
        }
      ],
      "name": "categorieToProduct",
      "outputs": [
        {
          "internalType": "uint256",
          "name": "",
          "type": "uint256"
        }
      ],
      "stateMutability": "view",
      "type": "function",
      "constant": true
    },
    {
      "inputs": [],
      "name": "customerCount",
      "outputs": [
        {
          "internalType": "uint256",
          "name": "",
          "type": "uint256"
        }
      ],
      "stateMutability": "view",
      "type": "function",
      "constant": true
    },
    {
      "inputs": [
        {
          "internalType": "address",
          "name": "",
          "type": "address"
        }
      ],
      "name": "customers",
      "outputs": [
        {
          "internalType": "address",
          "name": "adr",
          "type": "address"
        },
        {
          "internalType": "string",
          "name": "name",
          "type": "string"
        },
        {
          "components": [
            {
              "internalType": "uint256[]",
              "name": "products",
              "type": "uint256[]"
            },
            {
              "internalType": "uint256",
              "name": "completeSum",
              "type": "uint256"
            }
          ],
          "internalType": "struct Marketplace.Cart",
          "name": "cart",
          "type": "tuple"
        }
      ],
      "stateMutability": "view",
      "type": "function",
      "constant": true
    },
    {
      "inputs": [
        {
          "internalType": "uint256",
          "name": "",
          "type": "uint256"
        }
      ],
      "name": "files",
      "outputs": [
        {
          "internalType": "string",
          "name": "",
          "type": "string"
        }
      ],
      "stateMutability": "view",
      "type": "function",
      "constant": true
    },
    {
      "inputs": [],
      "name": "flag",
      "outputs": [
        {
          "internalType": "bool",
          "name": "",
          "type": "bool"
        }
      ],
      "stateMutability": "view",
      "type": "function",
      "constant": true
    },
    {
      "inputs": [],
      "name": "productCount",
      "outputs": [
        {
          "internalType": "uint256",
          "name": "",
          "type": "uint256"
        }
      ],
      "stateMutability": "view",
      "type": "function",
      "constant": true
    },
    {
      "inputs": [
        {
          "internalType": "uint256",
          "name": "",
          "type": "uint256"
        }
      ],
      "name": "products",
      "outputs": [
        {
          "internalType": "uint256",
          "name": "id",
          "type": "uint256"
        },
        {
          "internalType": "string",
          "name": "name",
          "type": "string"
        },
        {
          "internalType": "string",
          "name": "description",
          "type": "string"
        },
        {
          "internalType": "uint256",
          "name": "price",
          "type": "uint256"
        },
        {
          "internalType": "string",
          "name": "imgipfshash",
          "type": "string"
        },
        {
          "internalType": "address",
          "name": "owner",
          "type": "address"
        },
        {
          "internalType": "enum Marketplace.Categories",
          "name": "categorie",
          "type": "uint8"
        },
        {
          "internalType": "uint256",
          "name": "uploadedOn",
          "type": "uint256"
        },
        {
          "internalType": "uint256",
          "name": "reviewsCount",
          "type": "uint256"
        },
        {
          "internalType": "uint256",
          "name": "totalSold",
          "type": "uint256"
        },
        {
          "internalType": "uint256",
          "name": "report",
          "type": "uint256"
        }
      ],
      "stateMutability": "view",
      "type": "function",
      "constant": true
    },
    {
      "inputs": [
        {
          "internalType": "string",
          "name": "_name",
          "type": "string"
        },
        {
          "internalType": "string",
          "name": "_description",
          "type": "string"
        },
        {
          "internalType": "uint256",
          "name": "_price",
          "type": "uint256"
        },
        {
          "internalType": "string",
          "name": "_imgipfshash",
          "type": "string"
        },
        {
          "internalType": "string",
          "name": "_fileipfshash",
          "type": "string"
        },
        {
          "internalType": "enum Marketplace.Categories",
          "name": "_categorie",
          "type": "uint8"
        }
      ],
      "name": "createProduct",
      "outputs": [],
      "stateMutability": "nonpayable",
      "type": "function"
    },
    {
      "inputs": [
        {
          "internalType": "uint256",
          "name": "_id",
          "type": "uint256"
        }
      ],
      "name": "purchaseProduct",
      "outputs": [],
      "stateMutability": "payable",
      "type": "function",
      "payable": true
    },
    {
      "inputs": [
        {
          "internalType": "uint256",
          "name": "id1",
          "type": "uint256"
        }
      ],
      "name": "removeProduct",
      "outputs": [],
      "stateMutability": "nonpayable",
      "type": "function"
    },
    {
      "inputs": [
        {
          "internalType": "uint256",
          "name": "_id",
          "type": "uint256"
        },
        {
          "internalType": "string",
          "name": "_name",
          "type": "string"
        },
        {
          "internalType": "string",
          "name": "_des",
          "type": "string"
        },
        {
          "internalType": "uint256",
          "name": "_price",
          "type": "uint256"
        },
        {
          "internalType": "enum Marketplace.Categories",
          "name": "_categorie",
          "type": "uint8"
        }
      ],
      "name": "editProduct",
      "outputs": [],
      "stateMutability": "nonpayable",
      "type": "function"
    },
    {
      "inputs": [
        {
          "internalType": "uint256",
          "name": "_id",
          "type": "uint256"
        },
        {
          "internalType": "uint256",
          "name": "_rate",
          "type": "uint256"
        },
        {
          "internalType": "string",
          "name": "_review",
          "type": "string"
        }
      ],
      "name": "reviewProduct",
      "outputs": [],
      "stateMutability": "nonpayable",
      "type": "function"
    },
    {
      "inputs": [
        {
          "internalType": "address",
          "name": "_address",
          "type": "address"
        },
        {
          "internalType": "string",
          "name": "_name",
          "type": "string"
        }
      ],
      "name": "registerCustomer",
      "outputs": [
        {
          "internalType": "bool",
          "name": "success",
          "type": "bool"
        }
      ],
      "stateMutability": "nonpayable",
      "type": "function"
    },
    {
      "inputs": [
        {
          "internalType": "uint256",
          "name": "_id",
          "type": "uint256"
        }
      ],
      "name": "report",
      "outputs": [],
      "stateMutability": "nonpayable",
      "type": "function"
    },
    {
      "inputs": [
        {
          "internalType": "uint256",
          "name": "_id",
          "type": "uint256"
        }
      ],
      "name": "getReport",
      "outputs": [
        {
          "internalType": "uint256",
          "name": "",
          "type": "uint256"
        }
      ],
      "stateMutability": "view",
      "type": "function",
      "constant": true
    },
    {
      "inputs": [
        {
          "internalType": "uint256",
          "name": "_id",
          "type": "uint256"
        }
      ],
      "name": "getProductBuyers",
      "outputs": [
        {
          "internalType": "address[]",
          "name": "",
          "type": "address[]"
        }
      ],
      "stateMutability": "view",
      "type": "function",
      "constant": true
    },
    {
      "inputs": [
        {
          "internalType": "uint256",
          "name": "_id",
          "type": "uint256"
        }
      ],
      "name": "getProductfile",
      "outputs": [
        {
          "internalType": "string",
          "name": "",
          "type": "string"
        }
      ],
      "stateMutability": "view",
      "type": "function",
      "constant": true
    },
    {
      "inputs": [
        {
          "internalType": "address",
          "name": "adr",
          "type": "address"
        }
      ],
      "name": "getPurchasedProducts",
      "outputs": [
        {
          "internalType": "uint256[]",
          "name": "",
          "type": "uint256[]"
        }
      ],
      "stateMutability": "view",
      "type": "function",
      "constant": true
    }
  ],
  "bytecode": "0x60806040526000805560006001556000600260006101000a81548160ff021916908315150217905550606460085534801561003957600080fd5b50613112806100496000396000f3fe6080604052600436106101135760003560e01c80637acc0b20116100a0578063aca4901811610064578063aca49018146103d1578063cc94f2d91461040e578063db1970f41461044b578063e0f6ef8714610488578063f4c714b4146104b357610113565b80637acc0b20146102e25780637b61b70214610329578063890eba6814610352578063969b1cdb1461037d5780639757e8a3146103a657610113565b8063336989ae116100e7578063336989ae146101e457806338e76a031461022357806343308eef1461023f5780634e7f9b191461027c5780635ee95cae146102b957610113565b8062f73d4c146101185780630b784d2d146101415780630fb9398f1461016a57806330a7bfe7146101a7575b600080fd5b34801561012457600080fd5b5061013f600480360381019061013a9190612689565b6104f0565b005b34801561014d57600080fd5b50610168600480360381019061016391906124ac565b610905565b005b34801561017657600080fd5b50610191600480360381019061018c91906125a9565b610ce3565b60405161019e9190612a15565b60405180910390f35b3480156101b357600080fd5b506101ce60048036038101906101c9919061246c565b610d87565b6040516101db9190612ab6565b60405180910390f35b3480156101f057600080fd5b5061020b600480360381019061020691906123e3565b610db8565b60405161021a939291906129d0565b60405180910390f35b61023d600480360381019061023891906125a9565b610ef6565b005b34801561024b57600080fd5b50610266600480360381019061026191906125a9565b61118f565b6040516102739190612a74565b60405180910390f35b34801561028857600080fd5b506102a3600480360381019061029e91906125a9565b61132e565b6040516102b09190612ab6565b60405180910390f35b3480156102c557600080fd5b506102e060048036038101906102db91906125a9565b61134e565b005b3480156102ee57600080fd5b50610309600480360381019061030491906125a9565b61175c565b6040516103209b9a99989796959493929190612ad1565b60405180910390f35b34801561033557600080fd5b50610350600480360381019061034b91906125d6565b61197b565b005b34801561035e57600080fd5b50610367611a9c565b6040516103749190612a59565b60405180910390f35b34801561038957600080fd5b506103a4600480360381019061039f91906125a9565b611aaf565b005b3480156103b257600080fd5b506103bb611be1565b6040516103c89190612ab6565b60405180910390f35b3480156103dd57600080fd5b506103f860048036038101906103f391906125a9565b611be7565b60405161040591906129b5565b60405180910390f35b34801561041a57600080fd5b50610435600480360381019061043091906123e3565b611c1a565b6040516104429190612a37565b60405180910390f35b34801561045757600080fd5b50610472600480360381019061046d9190612410565b611cb4565b60405161047f9190612a59565b60405180910390f35b34801561049457600080fd5b5061049d611fab565b6040516104aa9190612ab6565b60405180910390f35b3480156104bf57600080fd5b506104da60048036038101906104d591906125a9565b611fb1565b6040516104e79190612a74565b60405180910390f35b6001151560036000858152602001908152602001600020600c0160003373ffffffffffffffffffffffffffffffffffffffff1673ffffffffffffffffffffffffffffffffffffffff16815260200190815260200160002060000160009054906101000a900460ff1615151461059a576040517f08c379a000000000000000000000000000000000000000000000000000000000815260040161059190612a96565b60405180910390fd5b6000151560036000858152602001908152602001600020600c0160003373ffffffffffffffffffffffffffffffffffffffff1673ffffffffffffffffffffffffffffffffffffffff16815260200190815260200160002060000160019054906101000a900460ff161515141561090057600160036000858152602001908152602001600020600c0160003373ffffffffffffffffffffffffffffffffffffffff1673ffffffffffffffffffffffffffffffffffffffff16815260200190815260200160002060000160016101000a81548160ff0219169083151502179055508060036000858152602001908152602001600020600c0160003373ffffffffffffffffffffffffffffffffffffffff1673ffffffffffffffffffffffffffffffffffffffff16815260200190815260200160002060010190805190602001906106e3929190612051565b504260036000858152602001908152602001600020600c0160003373ffffffffffffffffffffffffffffffffffffffff1673ffffffffffffffffffffffffffffffffffffffff168152602001908152602001600020600201819055503360036000858152602001908152602001600020600b0160006003600087815260200190815260200160002060070154815260200190815260200160002060006101000a81548173ffffffffffffffffffffffffffffffffffffffff021916908373ffffffffffffffffffffffffffffffffffffffff16021790555060036000848152602001908152602001600020600a0160036000858152602001908152602001600020600c0160003373ffffffffffffffffffffffffffffffffffffffff1673ffffffffffffffffffffffffffffffffffffffff16815260200190815260200160002090806001815401808255809150506001900390600052602060002090600302016000909190919091506000820160009054906101000a900460ff168160000160006101000a81548160ff0219169083151502179055506000820160019054906101000a900460ff168160000160016101000a81548160ff02191690831515021790555060018201816001019080546108bb90612e7f565b6108c69291906120d7565b506002820154816002015550506003600084815260200190815260200160002060070160008154809291906108fa90612ee2565b91905055505b505050565b600086511161091357600080fd5b600085511161092157600080fd5b6000841161092e57600080fd5b600083511161093c57600080fd5b600082511161094a57600080fd5b600042905060008081548092919061096190612ee2565b919050555060005460036000805481526020019081526020016000206000018190555086600360008054815260200190815260200160002060010190805190602001906109af929190612051565b5085600360008054815260200190815260200160002060020190805190602001906109db929190612051565b50846003600080548152602001908152602001600020600301819055508360036000805481526020019081526020016000206004019080519060200190610a23929190612051565b508260076000805481526020019081526020016000209080519060200190610a4c929190612051565b5033600360008054815260200190815260200160002060050160006101000a81548173ffffffffffffffffffffffffffffffffffffffff021916908373ffffffffffffffffffffffffffffffffffffffff16021790555081600360008054815260200190815260200160002060050160146101000a81548160ff0219169083600a811115610add57610adc612f5a565b5b021790555080600360008054815260200190815260200160002060060181905550600060036000805481526020019081526020016000206007018190555060006003600080548152602001908152602001600020600e01819055506000600360008054815260200190815260200160002060090181905550600067ffffffffffffffff811115610b7057610b6f612fe7565b5b604051908082528060200260200182016040528015610b9e5781602001602082028036833780820191505090505b5060036000805481526020019081526020016000206008019080519060200190610bc9929190612164565b506004600083600a811115610be157610be0612f5a565b5b600a811115610bf357610bf2612f5a565b5b81526020019081526020016000206000549080600181540180825580915050600190039060005260206000200160009091909190915055600560003373ffffffffffffffffffffffffffffffffffffffff1673ffffffffffffffffffffffffffffffffffffffff16815260200190815260200160002060020160005490806001815401808255809150506001900390600052602060002001600090919091909150557f1a3f2c9175d23760b6304c5f19e98b7b12dd25309a0a92996815dcf864cece09600054888888888833604051610cd29796959493929190612b91565b60405180910390a150505050505050565b606060036000838152602001908152602001600020600801805480602002602001604051908101604052809291908181526020018280548015610d7b57602002820191906000526020600020905b8160009054906101000a900473ffffffffffffffffffffffffffffffffffffffff1673ffffffffffffffffffffffffffffffffffffffff1681526020019060010190808311610d31575b50505050509050919050565b60046020528160005260406000208181548110610da357600080fd5b90600052602060002001600091509150505481565b60056020528060005260406000206000915090508060000160009054906101000a900473ffffffffffffffffffffffffffffffffffffffff1690806001018054610e0190612e7f565b80601f0160208091040260200160405190810160405280929190818152602001828054610e2d90612e7f565b8015610e7a5780601f10610e4f57610100808354040283529160200191610e7a565b820191906000526020600020905b815481529060010190602001808311610e5d57829003601f168201915b5050505050908060040160405180604001604052908160008201805480602002602001604051908101604052809291908181526020018280548015610ede57602002820191906000526020600020905b815481526020019060010190808311610eca575b50505050508152602001600182015481525050905083565b60006003600083815260200190815260200160002060050160009054906101000a900473ffffffffffffffffffffffffffffffffffffffff169050600160036000848152602001908152602001600020600c0160003373ffffffffffffffffffffffffffffffffffffffff1673ffffffffffffffffffffffffffffffffffffffff16815260200190815260200160002060000160006101000a81548160ff02191690831515021790555060036000838152602001908152602001600020600801339080600181540180825580915050600190039060005260206000200160009091909190916101000a81548173ffffffffffffffffffffffffffffffffffffffff021916908373ffffffffffffffffffffffffffffffffffffffff16021790555060036000838152602001908152602001600020600901600081548092919061103e90612ee2565b9190505550600560003373ffffffffffffffffffffffffffffffffffffffff1673ffffffffffffffffffffffffffffffffffffffff1681526020019081526020016000206003018290806001815401808255809150506001900390600052602060002001600090919091909150558073ffffffffffffffffffffffffffffffffffffffff166108fc349081150290604051600060405180830381858888f193505050501580156110f2573d6000803e3d6000fd5b507fa60391b5fc12a2bf84e95996952da9569290e72de60381dafc011bc0fbbd6af160005460036000858152602001908152602001600020600101600360008681526020019081526020016000206002016003600087815260200190815260200160002060030154600360008881526020019081526020016000206004013360405161118396959493929190612c1c565b60405180910390a15050565b60606000600360008481526020019081526020016000206008018054905011156113165760005b6003600084815260200190815260200160002060080180549050811015611314573373ffffffffffffffffffffffffffffffffffffffff1660036000858152602001908152602001600020600801828154811061121657611215612fb8565b5b9060005260206000200160009054906101000a900473ffffffffffffffffffffffffffffffffffffffff1673ffffffffffffffffffffffffffffffffffffffff1614156113015760076000848152602001908152602001600020805461127b90612e7f565b80601f01602080910402602001604051908101604052809291908181526020018280546112a790612e7f565b80156112f45780601f106112c9576101008083540402835291602001916112f4565b820191906000526020600020905b8154815290600101906020018083116112d757829003601f168201915b5050505050915050611329565b808061130c90612ee2565b9150506111b6565b505b6040518060200160405280600081525090505b919050565b600060036000838152602001908152602001600020600e01549050919050565b6003600082815260200190815260200160002060050160009054906101000a900473ffffffffffffffffffffffffffffffffffffffff1673ffffffffffffffffffffffffffffffffffffffff163373ffffffffffffffffffffffffffffffffffffffff16141561175957600360008281526020019081526020016000206000808201600090556001820160006113e491906121ee565b6002820160006113f491906121ee565b600382016000905560048201600061140c91906121ee565b6005820160006101000a81549073ffffffffffffffffffffffffffffffffffffffff02191690556005820160146101000a81549060ff021916905560068201600090556007820160009055600882016000611467919061222e565b6009820160009055600a8201600061147f919061224f565b600e820160009055505060006003600083815260200190815260200160002060050160149054906101000a900460ff1690506004600082600a8111156114c8576114c7612f5a565b5b600a8111156114da576114d9612f5a565b5b81526020019081526020016000206001836114f59190612d9c565b8154811061150657611505612fb8565b5b9060005260206000200160009055600060036000848152602001908152602001600020600b0160006003600086815260200190815260200160002060070154815260200190815260200160002060009054906101000a900473ffffffffffffffffffffffffffffffffffffffff16905060036000848152602001908152602001600020600b0160006003600086815260200190815260200160002060070154815260200190815260200160002060006101000a81549073ffffffffffffffffffffffffffffffffffffffff021916905560036000848152602001908152602001600020600c0160008273ffffffffffffffffffffffffffffffffffffffff1673ffffffffffffffffffffffffffffffffffffffff168152602001908152602001600020600080820160006101000a81549060ff02191690556000820160016101000a81549060ff021916905560018201600061166291906121ee565b6002820160009055505060005b6000548110156117555783600560003373ffffffffffffffffffffffffffffffffffffffff1673ffffffffffffffffffffffffffffffffffffffff16815260200190815260200160002060020182815481106116ce576116cd612fb8565b5b9060005260206000200154141561174257600560003373ffffffffffffffffffffffffffffffffffffffff1673ffffffffffffffffffffffffffffffffffffffff168152602001908152602001600020600201818154811061173357611732612fb8565b5b90600052602060002001600090555b808061174d90612ee2565b91505061166f565b5050505b50565b600360205280600052604060002060009150905080600001549080600101805461178590612e7f565b80601f01602080910402602001604051908101604052809291908181526020018280546117b190612e7f565b80156117fe5780601f106117d3576101008083540402835291602001916117fe565b820191906000526020600020905b8154815290600101906020018083116117e157829003601f168201915b50505050509080600201805461181390612e7f565b80601f016020809104026020016040519081016040528092919081815260200182805461183f90612e7f565b801561188c5780601f106118615761010080835404028352916020019161188c565b820191906000526020600020905b81548152906001019060200180831161186f57829003601f168201915b5050505050908060030154908060040180546118a790612e7f565b80601f01602080910402602001604051908101604052809291908181526020018280546118d390612e7f565b80156119205780601f106118f557610100808354040283529160200191611920565b820191906000526020600020905b81548152906001019060200180831161190357829003601f168201915b5050505050908060050160009054906101000a900473ffffffffffffffffffffffffffffffffffffffff16908060050160149054906101000a900460ff169080600601549080600701549080600901549080600e015490508b565b6003600086815260200190815260200160002060050160009054906101000a900473ffffffffffffffffffffffffffffffffffffffff1673ffffffffffffffffffffffffffffffffffffffff163373ffffffffffffffffffffffffffffffffffffffff161415611a955783600360008781526020019081526020016000206001019080519060200190611a0f929190612051565b5082600360008781526020019081526020016000206002019080519060200190611a3a929190612051565b50816003600087815260200190815260200160002060030181905550806003600087815260200190815260200160002060050160146101000a81548160ff0219169083600a811115611a8f57611a8e612f5a565b5b02179055505b5050505050565b600260009054906101000a900460ff1681565b6000151560036000838152602001908152602001600020600d0160003373ffffffffffffffffffffffffffffffffffffffff1673ffffffffffffffffffffffffffffffffffffffff16815260200190815260200160002060009054906101000a900460ff1615151415611bde5760036000828152602001908152602001600020600e016000815480929190611b4390612ee2565b9190505550600160036000838152602001908152602001600020600d0160003373ffffffffffffffffffffffffffffffffffffffff1673ffffffffffffffffffffffffffffffffffffffff16815260200190815260200160002060006101000a81548160ff02191690831515021790555060085460036000838152602001908152602001600020600e015410611bdd57611bdc8161134e565b5b5b50565b60015481565b60066020528060005260406000206000915054906101000a900473ffffffffffffffffffffffffffffffffffffffff1681565b6060600560008373ffffffffffffffffffffffffffffffffffffffff1673ffffffffffffffffffffffffffffffffffffffff168152602001908152602001600020600301805480602002602001604051908101604052809291908181526020018280548015611ca857602002820191906000526020600020905b815481526020019060010190808311611c94575b50505050509050919050565b6000806040518060a001604052808573ffffffffffffffffffffffffffffffffffffffff168152602001848152602001600067ffffffffffffffff811115611cff57611cfe612fe7565b5b604051908082528060200260200182016040528015611d2d5781602001602082028036833780820191505090505b508152602001600067ffffffffffffffff811115611d4e57611d4d612fe7565b5b604051908082528060200260200182016040528015611d7c5781602001602082028036833780820191505090505b5081526020016040518060400160405280600067ffffffffffffffff811115611da857611da7612fe7565b5b604051908082528060200260200182016040528015611dd65781602001602082028036833780820191505090505b5081526020016000815250815250905060016000815480929190611df990612ee2565b9190505550806000015160066000600154815260200190815260200160002060006101000a81548173ffffffffffffffffffffffffffffffffffffffff021916908373ffffffffffffffffffffffffffffffffffffffff16021790555080600560008673ffffffffffffffffffffffffffffffffffffffff1673ffffffffffffffffffffffffffffffffffffffff16815260200190815260200160002060008201518160000160006101000a81548173ffffffffffffffffffffffffffffffffffffffff021916908373ffffffffffffffffffffffffffffffffffffffff1602179055506020820151816001019080519060200190611ef9929190612051565b506040820151816002019080519060200190611f16929190612273565b506060820151816003019080519060200190611f33929190612273565b506080820151816004016000820151816000019080519060200190611f59929190612273565b506020820151816001015550509050507f155e8619f4d23b96769599cb9af87da3e06a360082869c18578011da9a06e67084604051611f9891906129b5565b60405180910390a1600191505092915050565b60005481565b60076020528060005260406000206000915090508054611fd090612e7f565b80601f0160208091040260200160405190810160405280929190818152602001828054611ffc90612e7f565b80156120495780601f1061201e57610100808354040283529160200191612049565b820191906000526020600020905b81548152906001019060200180831161202c57829003601f168201915b505050505081565b82805461205d90612e7f565b90600052602060002090601f01602090048101928261207f57600085556120c6565b82601f1061209857805160ff19168380011785556120c6565b828001600101855582156120c6579182015b828111156120c55782518255916020019190600101906120aa565b5b5090506120d391906122c0565b5090565b8280546120e390612e7f565b90600052602060002090601f0160209004810192826121055760008555612153565b82601f106121165780548555612153565b8280016001018555821561215357600052602060002091601f016020900482015b82811115612152578254825591600101919060010190612137565b5b50905061216091906122c0565b5090565b8280548282559060005260206000209081019282156121dd579160200282015b828111156121dc5782518260006101000a81548173ffffffffffffffffffffffffffffffffffffffff021916908373ffffffffffffffffffffffffffffffffffffffff16021790555091602001919060010190612184565b5b5090506121ea91906122c0565b5090565b5080546121fa90612e7f565b6000825580601f1061220c575061222b565b601f01602090049060005260206000209081019061222a91906122c0565b5b50565b508054600082559060005260206000209081019061224c91906122c0565b50565b508054600082556003029060005260206000209081019061227091906122dd565b50565b8280548282559060005260206000209081019282156122af579160200282015b828111156122ae578251825591602001919060010190612293565b5b5090506122bc91906122c0565b5090565b5b808211156122d95760008160009055506001016122c1565b5090565b5b8082111561233057600080820160006101000a81549060ff02191690556000820160016101000a81549060ff021916905560018201600061231f91906121ee565b6002820160009055506003016122de565b5090565b600061234761234284612cb7565b612c92565b9050828152602081018484840111156123635761236261301b565b5b61236e848285612e3d565b509392505050565b6000813590506123858161309e565b92915050565b60008135905061239a816130b5565b92915050565b600082601f8301126123b5576123b4613016565b5b81356123c5848260208601612334565b91505092915050565b6000813590506123dd816130c5565b92915050565b6000602082840312156123f9576123f8613025565b5b600061240784828501612376565b91505092915050565b6000806040838503121561242757612426613025565b5b600061243585828601612376565b925050602083013567ffffffffffffffff81111561245657612455613020565b5b612462858286016123a0565b9150509250929050565b6000806040838503121561248357612482613025565b5b60006124918582860161238b565b92505060206124a2858286016123ce565b9150509250929050565b60008060008060008060c087890312156124c9576124c8613025565b5b600087013567ffffffffffffffff8111156124e7576124e6613020565b5b6124f389828a016123a0565b965050602087013567ffffffffffffffff81111561251457612513613020565b5b61252089828a016123a0565b955050604061253189828a016123ce565b945050606087013567ffffffffffffffff81111561255257612551613020565b5b61255e89828a016123a0565b935050608087013567ffffffffffffffff81111561257f5761257e613020565b5b61258b89828a016123a0565b92505060a061259c89828a0161238b565b9150509295509295509295565b6000602082840312156125bf576125be613025565b5b60006125cd848285016123ce565b91505092915050565b600080600080600060a086880312156125f2576125f1613025565b5b6000612600888289016123ce565b955050602086013567ffffffffffffffff81111561262157612620613020565b5b61262d888289016123a0565b945050604086013567ffffffffffffffff81111561264e5761264d613020565b5b61265a888289016123a0565b935050606061266b888289016123ce565b925050608061267c8882890161238b565b9150509295509295909350565b6000806000606084860312156126a2576126a1613025565b5b60006126b0868287016123ce565b93505060206126c1868287016123ce565b925050604084013567ffffffffffffffff8111156126e2576126e1613020565b5b6126ee868287016123a0565b9150509250925092565b60006127048383612728565b60208301905092915050565b600061271c8383612997565b60208301905092915050565b61273181612dd0565b82525050565b61274081612dd0565b82525050565b600061275182612d1d565b61275b8185612d58565b935061276683612ce8565b8060005b8381101561279757815161277e88826126f8565b975061278983612d3e565b92505060018101905061276a565b5085935050505092915050565b60006127af82612d28565b6127b98185612d69565b93506127c483612cf8565b8060005b838110156127f55781516127dc8882612710565b97506127e783612d4b565b9250506001810190506127c8565b5085935050505092915050565b600061280d82612d28565b6128178185612d7a565b935061282283612cf8565b8060005b8381101561285357815161283a8882612710565b975061284583612d4b565b925050600181019050612826565b5085935050505092915050565b61286981612de2565b82525050565b61287881612e2b565b82525050565b600061288982612d33565b6128938185612d8b565b93506128a3818560208601612e4c565b6128ac8161302a565b840191505092915050565b600081546128c481612e7f565b6128ce8186612d8b565b945060018216600081146128e957600181146128fb5761292e565b60ff198316865260208601935061292e565b61290485612d08565b60005b8381101561292657815481890152600182019150602081019050612907565b808801955050505b50505092915050565b6000612944602b83612d8b565b915061294f8261303b565b604082019050919050565b6000604083016000830151848203600086015261297782826127a4565b915050602083015161298c6020860182612997565b508091505092915050565b6129a081612e21565b82525050565b6129af81612e21565b82525050565b60006020820190506129ca6000830184612737565b92915050565b60006060820190506129e56000830186612737565b81810360208301526129f7818561287e565b90508181036040830152612a0b818461295a565b9050949350505050565b60006020820190508181036000830152612a2f8184612746565b905092915050565b60006020820190508181036000830152612a518184612802565b905092915050565b6000602082019050612a6e6000830184612860565b92915050565b60006020820190508181036000830152612a8e818461287e565b905092915050565b60006020820190508181036000830152612aaf81612937565b9050919050565b6000602082019050612acb60008301846129a6565b92915050565b600061016082019050612ae7600083018e6129a6565b8181036020830152612af9818d61287e565b90508181036040830152612b0d818c61287e565b9050612b1c606083018b6129a6565b8181036080830152612b2e818a61287e565b9050612b3d60a0830189612737565b612b4a60c083018861286f565b612b5760e08301876129a6565b612b656101008301866129a6565b612b736101208301856129a6565b612b816101408301846129a6565b9c9b505050505050505050505050565b600060e082019050612ba6600083018a6129a6565b8181036020830152612bb8818961287e565b90508181036040830152612bcc818861287e565b9050612bdb60608301876129a6565b8181036080830152612bed818661287e565b905081810360a0830152612c01818561287e565b9050612c1060c0830184612737565b98975050505050505050565b600060c082019050612c3160008301896129a6565b8181036020830152612c4381886128b7565b90508181036040830152612c5781876128b7565b9050612c6660608301866129a6565b8181036080830152612c7881856128b7565b9050612c8760a0830184612737565b979650505050505050565b6000612c9c612cad565b9050612ca88282612eb1565b919050565b6000604051905090565b600067ffffffffffffffff821115612cd257612cd1612fe7565b5b612cdb8261302a565b9050602081019050919050565b6000819050602082019050919050565b6000819050602082019050919050565b60008190508160005260206000209050919050565b600081519050919050565b600081519050919050565b600081519050919050565b6000602082019050919050565b6000602082019050919050565b600082825260208201905092915050565b600082825260208201905092915050565b600082825260208201905092915050565b600082825260208201905092915050565b6000612da782612e21565b9150612db283612e21565b925082821015612dc557612dc4612f2b565b5b828203905092915050565b6000612ddb82612e01565b9050919050565b60008115159050919050565b6000819050612dfc8261308a565b919050565b600073ffffffffffffffffffffffffffffffffffffffff82169050919050565b6000819050919050565b6000612e3682612dee565b9050919050565b82818337600083830152505050565b60005b83811015612e6a578082015181840152602081019050612e4f565b83811115612e79576000848401525b50505050565b60006002820490506001821680612e9757607f821691505b60208210811415612eab57612eaa612f89565b5b50919050565b612eba8261302a565b810181811067ffffffffffffffff82111715612ed957612ed8612fe7565b5b80604052505050565b6000612eed82612e21565b91507fffffffffffffffffffffffffffffffffffffffffffffffffffffffffffffffff821415612f2057612f1f612f2b565b5b600182019050919050565b7f4e487b7100000000000000000000000000000000000000000000000000000000600052601160045260246000fd5b7f4e487b7100000000000000000000000000000000000000000000000000000000600052602160045260246000fd5b7f4e487b7100000000000000000000000000000000000000000000000000000000600052602260045260246000fd5b7f4e487b7100000000000000000000000000000000000000000000000000000000600052603260045260246000fd5b7f4e487b7100000000000000000000000000000000000000000000000000000000600052604160045260246000fd5b600080fd5b600080fd5b600080fd5b600080fd5b6000601f19601f8301169050919050565b7f596f7520617265206e6f7420656c696769626c6520746f20726576696577207460008201527f6869732070726f64756374000000000000000000000000000000000000000000602082015250565b600b811061309b5761309a612f5a565b5b50565b6130a781612dd0565b81146130b257600080fd5b50565b600b81106130c257600080fd5b50565b6130ce81612e21565b81146130d957600080fd5b5056fea2646970667358221220621d2a5e14caf2aa41a5977169f6f591547c5c6fd96b8fe1e7f80a123372eca964736f6c63430008070033",
  "immutableReferences": {},
  "source": "//buyer w purchasedProduct\r\n// SPDX-License-Identifier: MIT\r\npragma solidity  ^0.8.0;\r\n\r\ncontract Marketplace {\r\n    //string public name;\r\n    uint public productCount = 0;\r\n    uint public customerCount = 0;\r\n    //to store the products on blockchain\r\n    bool public flag = false;\r\n    mapping(uint => Product) public products;\r\n    //mapping(uint => uint[]) public productsRates;\r\n    //mapping(uint => string[]) public productsReviews;\r\n    mapping(Categories => uint[]) public categorieToProduct;\r\n    //to store the customers on blockchain\r\n    mapping(address  => Customer) public customers;\r\n    mapping(uint => address) public addressLUT;\r\n    mapping(uint => string) public files;\r\n    uint256 MAXREPORT = 100;\r\n    \r\n    enum Categories {\r\n        Tech,\r\n        PCGames,\r\n        PS4Games,\r\n        XboxGames,\r\n        Movies,\r\n        Courses,\r\n        Books,\r\n        AudioBooks,\r\n        Images,\r\n        Videos,\r\n        Other\r\n    }\r\n    struct Review{\r\n        bool isBuy;\r\n        bool isReview;\r\n        string reviewDescription;\r\n        uint timeStamp;\r\n    }\r\n    struct Customer {\r\n        address adr;\r\n        string name;\r\n        uint256[] ownedProducts;\r\n        uint256[] purchasedProducts;\r\n        Cart cart;\r\n        \r\n    }\r\n\r\n    struct Cart {\r\n      uint256[] products;\r\n      uint256 completeSum;\r\n    }\r\n\r\n    struct Product {\r\n        uint id;\r\n        string name;\r\n        string description;\r\n        uint price;\r\n        string imgipfshash;\r\n        address owner;\r\n        Categories categorie;\r\n        uint256 uploadedOn;\r\n        //uint256 rate;\r\n        uint256 reviewsCount;\r\n        address[] buyers;\r\n        uint256 totalSold;\r\n        Review [] reviews;\r\n        mapping (uint=>address) raters; //address of reviewers\r\n        mapping (address=>Review) productUserReview;\r\n        mapping (address => bool)hasReported;\r\n        uint report;\r\n        //bool removed;\r\n    }\r\n\r\n    event ProductCreated(uint id, string name, string description, uint price, string imgipfshash, string fileipfshash, address owner);\r\n    event ProductPurchased(uint id, string name, string description, uint price, string imgipfshash, address owner);\r\n    event CustomerRegistered(address customer);\r\n    event CustomerRegistrationFailed(address customer);\r\n    event CartProductInserted(address customer, uint256 prodId, uint256 prodPrice, uint256 completeSum);\r\n    event CartProductInsertionFailed(address customer, uint256 prodId);\r\n    event CartProductRemoved(address customer, uint256 prodId);\r\n    event CartEmptied(address customer);\r\n\r\n    // Create a new product with a struct\r\n    // Add the struct to the mapping, and store it on the blockchain\r\n    // Trigger an event that lets someone know a product was creatd\r\n    function createProduct(string memory _name,string memory _description, uint _price,string memory _imgipfshash,string memory _fileipfshash , Categories _categorie ) public {\r\n        // Require a valid name\r\n        require(bytes(_name).length > 0);\r\n        // Require a valid description\r\n        require(bytes(_description).length > 0);\r\n        // Require a valid price\r\n        require(_price > 0);\r\n        // Require a valid image hash\r\n        require(bytes(_imgipfshash).length > 0);\r\n        // Require a valid file hash\r\n        require(bytes(_fileipfshash).length > 0);\r\n        // Increment product count\r\n        uint256 _uploadedOn = block.timestamp;\r\n        //increment number of products\r\n        productCount ++;\r\n        //add this Product to the products map\r\n        products[productCount].id = productCount;\r\n        products[productCount].name = _name;\r\n        products[productCount].description = _description;\r\n        products[productCount].price = _price;\r\n        products[productCount].imgipfshash = _imgipfshash;\r\n        files[productCount] = _fileipfshash;\r\n        products[productCount].owner = msg.sender;\r\n        products[productCount].categorie = _categorie;\r\n        products[productCount].uploadedOn = _uploadedOn;\r\n        products[productCount].reviewsCount = 0;\r\n        products[productCount].report = 0;\r\n        products[productCount].totalSold = 0;\r\n        products[productCount].buyers = new address[](0);\r\n        //products[productCount].removed = false;\r\n        //add this product to it's categorie\r\n        categorieToProduct[_categorie].push(productCount);\r\n        //add this product to the customer's owned product\r\n        customers[msg.sender].ownedProducts.push(productCount);\r\n        //create an event\r\n        emit ProductCreated(productCount, _name, _description, _price, _imgipfshash,_fileipfshash, msg.sender);\r\n    }\r\n\r\n    function purchaseProduct(uint _id) public payable {\r\n        // Fetch the owner\r\n        address _seller = products[_id].owner;\r\n        /*require(products[_id].owner != msg.sender, \"You cannot buy your own product\");\r\n        // Make sure the product has a valid id\r\n        require(products[_id].id > 0 && products[_id].id <= productCount);\r\n        // Require that there is enough Ether in the transaction\r\n        require(msg.value >= products[_id].price, \"Insufficient Ether\");\r\n        // Require that the buyer is not the seller\r\n        require(_seller != msg.sender);*/\r\n        //add to products a user can revie\r\n        products[_id].productUserReview[msg.sender].isBuy = true;\r\n        //add this customer to the people who bought this product\r\n        products[_id].buyers.push(msg.sender);\r\n        //update total purchases\r\n        products[_id].totalSold++;\r\n        //add to the products owners\r\n        customers[msg.sender].purchasedProducts.push(_id);\r\n        // Pay the seller by sending them Ether\r\n        payable(_seller).transfer(msg.value);\r\n        // Trigger an event\r\n        emit ProductPurchased(productCount, products[_id].name,products[_id].description, products[_id].price, products[_id].imgipfshash, msg.sender);\r\n    }\r\n    /* function removeProduct(uint id1) public {\r\n         if(msg.sender == products[id1].owner){\r\n             products[id1].removed = true;\r\n         }\r\n     }*/\r\n        function removeProduct(uint id1) public {\r\n        if(msg.sender == products[id1].owner){\r\n            delete products [id1];\r\n            Categories cat;\r\n            cat = products[id1].categorie;\r\n            delete categorieToProduct[cat][id1-1];\r\n            address add = products[id1].raters[products[id1].reviewsCount];\r\n            delete products[id1].raters[products[id1].reviewsCount];\r\n            delete products[id1].productUserReview[add];\r\n            for(uint i=0;i<productCount;i++){\r\n                if(customers[msg.sender].ownedProducts[i] == id1){\r\n                    delete customers[msg.sender].ownedProducts[i];\r\n                }\r\n            }\r\n        }\r\n    }\r\n    function editProduct(uint256 _id , string memory _name , string memory _des , uint _price , Categories _categorie) public{\r\n        if(msg.sender == products[_id].owner){\r\n            products[_id].name = _name;\r\n            products[_id].description = _des;\r\n            products[_id].price = _price;\r\n            products[_id].categorie = _categorie;\r\n            \r\n        }\r\n    }\r\n    function reviewProduct(uint _id,uint256 _rate, string memory _review) public\r\n    {\r\n           require(products[_id].productUserReview[msg.sender].isBuy == true, \"You are not eligible to review this product\");\r\n           if (products[_id].productUserReview[msg.sender].isReview == false){ //only once\r\n               products[_id].productUserReview[msg.sender].isReview = true;\r\n               //should update rate\r\n               products[_id].productUserReview[msg.sender].reviewDescription = _review;\r\n               products[_id].productUserReview[msg.sender].timeStamp = block.timestamp;\r\n    \r\n               products[_id].raters[products[_id].reviewsCount] = msg.sender;\r\n                  products[_id].reviews.push(products[_id].productUserReview[msg.sender]);\r\n    \r\n               products[_id].reviewsCount ++;\r\n           }\r\n\r\n    }\r\n\r\n    /*function insertProductIntoCart(uint256 id) public returns (bool success,\r\n                                                  uint256 pos_in_prod_mapping) {\r\n        Customer storage cust = customers[msg.sender];\r\n        Product memory prod = products[id];\r\n        uint256 prods_prev_len = cust.cart.products.length;\r\n        cust.cart.products.push(prod.id);\r\n        uint256 current_sum = cust.cart.completeSum;\r\n        cust.cart.completeSum = current_sum + prod.price;\r\n        if (cust.cart.products.length > prods_prev_len) {\r\n          emit CartProductInserted(msg.sender, id, prod.price, cust.cart.completeSum);\r\n          return (true, cust.cart.products.length - 1);\r\n        }\r\n        emit CartProductInsertionFailed(msg.sender, id);\r\n        return (false, 0);\r\n    }*/\r\n\r\n    /*function removeProductFromCart(uint256 prod_pos_in_mapping) public {\r\n        uint256[] memory new_product_list = new uint256[](customers[msg.sender]\r\n                                                    .cart.products.length - 1);\r\n        uint256[] memory customerProds = customers[msg.sender].cart.products;\r\n        for (uint256 i = 0; i < customerProds.length; i++) {\r\n          if (i != prod_pos_in_mapping) {\r\n            new_product_list[i] = customerProds[i];\r\n          } else {\r\n            customers[msg.sender].cart.completeSum -=\r\n                                               products[customerProds[i]].price;\r\n            emit CartProductRemoved(msg.sender, customerProds[i]);\r\n          }\r\n        }\r\n        customers[msg.sender].cart.products = new_product_list;\r\n    }\r\n*/\r\n    /*function emptyCart() public returns (bool success) {\r\n        Customer storage customer = customers[msg.sender];\r\n        customer.cart = Cart(new uint256[](0), 0);\r\n        emit CartEmptied(customer.adr);\r\n        return true;\r\n    }\r\n*/\r\n    function registerCustomer(address _address, string memory _name)\r\n                                        public returns (bool success) {\r\n        Customer memory customer = Customer(_address, _name,new uint256[](0),new uint256[](0),Cart(new uint256[](0),0));\r\n        customerCount++;\r\n        addressLUT[customerCount]=customer.adr;\r\n        customers[_address] = customer;\r\n        emit CustomerRegistered(_address);\r\n        return true;\r\n    }\r\n    function report(uint _id) public {\r\n        if(products[_id].hasReported[msg.sender] == false){\r\n            products[_id].report++;\r\n            products[_id].hasReported[msg.sender] = true;\r\n            if(products[_id].report >= MAXREPORT){\r\n                removeProduct(_id);\r\n            }\r\n        }\r\n    }\r\n    function getReport(uint _id) public view returns(uint){\r\n        return products[_id].report;\r\n    }\r\n    // function getProductReviews(uint _id) public view returns (Review[] memory){\r\n    //     return products[_id].reviews;\r\n    // }\r\n    function getProductBuyers(uint _id) public view returns(address[] memory){\r\n        return products[_id].buyers;\r\n    }\r\n    function getProductfile(uint _id) public view returns(string memory){\r\n        if(products[_id].buyers.length > 0)\r\n        for(uint i=0;i<products[_id].buyers.length;i++){\r\n            if(products[_id].buyers[i] == msg.sender)\r\n                return files[_id];\r\n        }\r\n        return \"\";\r\n    }\r\n    function getPurchasedProducts(address adr) public view returns( uint256[] memory){\r\n        return customers[adr].purchasedProducts;\r\n    }\r\n\r\n}",
  "sourcePath": "C:\\Users\\Administrator\\Desktop\\MarketPlace\\src\\contracts\\Marketplace.sol",
  "compiler": {
    "name": "solc",
    "version": "0.8.7+commit.e28d00a7.Emscripten.clang"
  },
  "schemaVersion": "3.4.2",
  "updatedAt": "2021-08-27T15:03:08.259Z",
  "networkType": "ethereum",
  "devdoc": {
    "kind": "dev",
    "methods": {},
    "version": 1
  },
  "userdoc": {
    "kind": "user",
    "methods": {},
    "version": 1
  }
}