{
  "contractName": "Marketplace",
  "abi": [
    {
      "anonymous": false,
      "inputs": [
        {
          "indexed": false,
          "internalType": "address",
          "name": "customer",
          "type": "address"
        }
      ],
      "name": "CartEmptied",
      "type": "event"
    },
    {
      "anonymous": false,
      "inputs": [
        {
          "indexed": false,
          "internalType": "address",
          "name": "customer",
          "type": "address"
        },
        {
          "indexed": false,
          "internalType": "uint256",
          "name": "prodId",
          "type": "uint256"
        },
        {
          "indexed": false,
          "internalType": "uint256",
          "name": "prodPrice",
          "type": "uint256"
        },
        {
          "indexed": false,
          "internalType": "uint256",
          "name": "completeSum",
          "type": "uint256"
        }
      ],
      "name": "CartProductInserted",
      "type": "event"
    },
    {
      "anonymous": false,
      "inputs": [
        {
          "indexed": false,
          "internalType": "address",
          "name": "customer",
          "type": "address"
        },
        {
          "indexed": false,
          "internalType": "uint256",
          "name": "prodId",
          "type": "uint256"
        }
      ],
      "name": "CartProductInsertionFailed",
      "type": "event"
    },
    {
      "anonymous": false,
      "inputs": [
        {
          "indexed": false,
          "internalType": "address",
          "name": "customer",
          "type": "address"
        },
        {
          "indexed": false,
          "internalType": "uint256",
          "name": "prodId",
          "type": "uint256"
        }
      ],
      "name": "CartProductRemoved",
      "type": "event"
    },
    {
      "anonymous": false,
      "inputs": [
        {
          "indexed": false,
          "internalType": "address",
          "name": "customer",
          "type": "address"
        }
      ],
      "name": "CustomerRegistered",
      "type": "event"
    },
    {
      "anonymous": false,
      "inputs": [
        {
          "indexed": false,
          "internalType": "address",
          "name": "customer",
          "type": "address"
        }
      ],
      "name": "CustomerRegistrationFailed",
      "type": "event"
    },
    {
      "anonymous": false,
      "inputs": [
        {
          "indexed": false,
          "internalType": "uint256",
          "name": "id",
          "type": "uint256"
        },
        {
          "indexed": false,
          "internalType": "string",
          "name": "name",
          "type": "string"
        },
        {
          "indexed": false,
          "internalType": "string",
          "name": "description",
          "type": "string"
        },
        {
          "indexed": false,
          "internalType": "uint256",
          "name": "price",
          "type": "uint256"
        },
        {
          "indexed": false,
          "internalType": "string",
          "name": "imgipfshash",
          "type": "string"
        },
        {
          "indexed": false,
          "internalType": "string",
          "name": "fileipfshash",
          "type": "string"
        },
        {
          "indexed": false,
          "internalType": "address",
          "name": "owner",
          "type": "address"
        },
        {
          "indexed": false,
          "internalType": "bool",
          "name": "purchased",
          "type": "bool"
        }
      ],
      "name": "ProductCreated",
      "type": "event"
    },
    {
      "anonymous": false,
      "inputs": [
        {
          "indexed": false,
          "internalType": "uint256",
          "name": "id",
          "type": "uint256"
        },
        {
          "indexed": false,
          "internalType": "string",
          "name": "name",
          "type": "string"
        },
        {
          "indexed": false,
          "internalType": "string",
          "name": "description",
          "type": "string"
        },
        {
          "indexed": false,
          "internalType": "uint256",
          "name": "price",
          "type": "uint256"
        },
        {
          "indexed": false,
          "internalType": "string",
          "name": "imgipfshash",
          "type": "string"
        },
        {
          "indexed": false,
          "internalType": "string",
          "name": "fileipfshash",
          "type": "string"
        },
        {
          "indexed": false,
          "internalType": "address",
          "name": "owner",
          "type": "address"
        },
        {
          "indexed": false,
          "internalType": "bool",
          "name": "purchased",
          "type": "bool"
        }
      ],
      "name": "ProductPurchased",
      "type": "event"
    },
    {
      "inputs": [
        {
          "internalType": "uint256",
          "name": "",
          "type": "uint256"
        }
      ],
      "name": "addressLUT",
      "outputs": [
        {
          "internalType": "address",
          "name": "",
          "type": "address"
        }
      ],
      "stateMutability": "view",
      "type": "function"
    },
    {
      "inputs": [],
      "name": "customerCount",
      "outputs": [
        {
          "internalType": "uint256",
          "name": "",
          "type": "uint256"
        }
      ],
      "stateMutability": "view",
      "type": "function"
    },
    {
      "inputs": [
        {
          "internalType": "address",
          "name": "",
          "type": "address"
        }
      ],
      "name": "customers",
      "outputs": [
        {
          "internalType": "address",
          "name": "adr",
          "type": "address"
        },
        {
          "internalType": "string",
          "name": "name",
          "type": "string"
        },
        {
          "components": [
            {
              "internalType": "uint256[]",
              "name": "products",
              "type": "uint256[]"
            },
            {
              "internalType": "uint256",
              "name": "completeSum",
              "type": "uint256"
            }
          ],
          "internalType": "struct Marketplace.Cart",
          "name": "cart",
          "type": "tuple"
        }
      ],
      "stateMutability": "view",
      "type": "function"
    },
    {
      "inputs": [
        {
          "internalType": "uint256",
          "name": "",
          "type": "uint256"
        }
      ],
      "name": "emptySpaces",
      "outputs": [
        {
          "internalType": "uint256",
          "name": "",
          "type": "uint256"
        }
      ],
      "stateMutability": "view",
      "type": "function"
    },
    {
      "inputs": [],
      "name": "flag",
      "outputs": [
        {
          "internalType": "bool",
          "name": "",
          "type": "bool"
        }
      ],
      "stateMutability": "view",
      "type": "function"
    },
    {
      "inputs": [],
      "name": "ftt",
      "outputs": [
        {
          "internalType": "uint256",
          "name": "",
          "type": "uint256"
        }
      ],
      "stateMutability": "view",
      "type": "function"
    },
    {
      "inputs": [],
      "name": "len",
      "outputs": [
        {
          "internalType": "uint256",
          "name": "",
          "type": "uint256"
        }
      ],
      "stateMutability": "view",
      "type": "function"
    },
    {
      "inputs": [
        {
          "internalType": "address",
          "name": "",
          "type": "address"
        },
        {
          "internalType": "uint256",
          "name": "",
          "type": "uint256"
        }
      ],
      "name": "ownerToProducts",
      "outputs": [
        {
          "internalType": "uint256",
          "name": "id",
          "type": "uint256"
        },
        {
          "internalType": "string",
          "name": "name",
          "type": "string"
        },
        {
          "internalType": "string",
          "name": "description",
          "type": "string"
        },
        {
          "internalType": "uint256",
          "name": "price",
          "type": "uint256"
        },
        {
          "internalType": "string",
          "name": "imgipfshash",
          "type": "string"
        },
        {
          "internalType": "string",
          "name": "fileipfshash",
          "type": "string"
        },
        {
          "internalType": "address",
          "name": "owner",
          "type": "address"
        },
        {
          "internalType": "bool",
          "name": "purchased",
          "type": "bool"
        }
      ],
      "stateMutability": "view",
      "type": "function"
    },
    {
      "inputs": [],
      "name": "productCount",
      "outputs": [
        {
          "internalType": "uint256",
          "name": "",
          "type": "uint256"
        }
      ],
      "stateMutability": "view",
      "type": "function"
    },
    {
      "inputs": [
        {
          "internalType": "uint256",
          "name": "",
          "type": "uint256"
        }
      ],
      "name": "products",
      "outputs": [
        {
          "internalType": "uint256",
          "name": "id",
          "type": "uint256"
        },
        {
          "internalType": "string",
          "name": "name",
          "type": "string"
        },
        {
          "internalType": "string",
          "name": "description",
          "type": "string"
        },
        {
          "internalType": "uint256",
          "name": "price",
          "type": "uint256"
        },
        {
          "internalType": "string",
          "name": "imgipfshash",
          "type": "string"
        },
        {
          "internalType": "string",
          "name": "fileipfshash",
          "type": "string"
        },
        {
          "internalType": "address",
          "name": "owner",
          "type": "address"
        },
        {
          "internalType": "bool",
          "name": "purchased",
          "type": "bool"
        }
      ],
      "stateMutability": "view",
      "type": "function"
    },
    {
      "inputs": [
        {
          "internalType": "string",
          "name": "_name",
          "type": "string"
        },
        {
          "internalType": "string",
          "name": "_description",
          "type": "string"
        },
        {
          "internalType": "uint256",
          "name": "_price",
          "type": "uint256"
        },
        {
          "internalType": "string",
          "name": "_imgipfshash",
          "type": "string"
        },
        {
          "internalType": "string",
          "name": "_fileipfshash",
          "type": "string"
        }
      ],
      "name": "createProduct",
      "outputs": [],
      "stateMutability": "nonpayable",
      "type": "function"
    },
    {
      "inputs": [
        {
          "internalType": "uint256",
          "name": "id1",
          "type": "uint256"
        }
      ],
      "name": "removeProduct",
      "outputs": [],
      "stateMutability": "nonpayable",
      "type": "function"
    },
    {
      "inputs": [
        {
          "internalType": "uint256",
          "name": "id1",
          "type": "uint256"
        }
      ],
      "name": "removeNestedProduct",
      "outputs": [],
      "stateMutability": "nonpayable",
      "type": "function"
    },
    {
      "inputs": [
        {
          "internalType": "uint256",
          "name": "_id",
          "type": "uint256"
        }
      ],
      "name": "purchaseProduct",
      "outputs": [],
      "stateMutability": "payable",
      "type": "function"
    },
    {
      "inputs": [
        {
          "internalType": "uint256",
          "name": "id",
          "type": "uint256"
        }
      ],
      "name": "insertProductIntoCart",
      "outputs": [
        {
          "internalType": "bool",
          "name": "success",
          "type": "bool"
        },
        {
          "internalType": "uint256",
          "name": "pos_in_prod_mapping",
          "type": "uint256"
        }
      ],
      "stateMutability": "nonpayable",
      "type": "function"
    },
    {
      "inputs": [
        {
          "internalType": "uint256",
          "name": "prod_pos_in_mapping",
          "type": "uint256"
        }
      ],
      "name": "removeProductFromCart",
      "outputs": [],
      "stateMutability": "nonpayable",
      "type": "function"
    },
    {
      "inputs": [],
      "name": "emptyCart",
      "outputs": [
        {
          "internalType": "bool",
          "name": "success",
          "type": "bool"
        }
      ],
      "stateMutability": "nonpayable",
      "type": "function"
    },
    {
      "inputs": [
        {
          "internalType": "address",
          "name": "_address",
          "type": "address"
        },
        {
          "internalType": "string",
          "name": "_name",
          "type": "string"
        }
      ],
      "name": "registerCustomer",
      "outputs": [
        {
          "internalType": "bool",
          "name": "success",
          "type": "bool"
        }
      ],
      "stateMutability": "nonpayable",
      "type": "function"
    },
    {
      "inputs": [
        {
          "internalType": "address",
          "name": "_adr",
          "type": "address"
        }
      ],
      "name": "getCustomer",
      "outputs": [
        {
          "components": [
            {
              "internalType": "address",
              "name": "adr",
              "type": "address"
            },
            {
              "internalType": "string",
              "name": "name",
              "type": "string"
            },
            {
              "components": [
                {
                  "internalType": "uint256[]",
                  "name": "products",
                  "type": "uint256[]"
                },
                {
                  "internalType": "uint256",
                  "name": "completeSum",
                  "type": "uint256"
                }
              ],
              "internalType": "struct Marketplace.Cart",
              "name": "cart",
              "type": "tuple"
            }
          ],
          "internalType": "struct Marketplace.Customer",
          "name": "",
          "type": "tuple"
        }
      ],
      "stateMutability": "view",
      "type": "function"
    },
    {
      "inputs": [
        {
          "internalType": "address",
          "name": "_owner",
          "type": "address"
        }
      ],
      "name": "getProductCount",
      "outputs": [
        {
          "internalType": "uint256",
          "name": "",
          "type": "uint256"
        }
      ],
      "stateMutability": "view",
      "type": "function"
    },
    {
      "inputs": [
        {
          "internalType": "address",
          "name": "_owner",
          "type": "address"
        },
        {
          "internalType": "uint8",
          "name": "_index",
          "type": "uint8"
        }
      ],
      "name": "getProduct",
      "outputs": [
        {
          "internalType": "uint256",
          "name": "_id",
          "type": "uint256"
        },
        {
          "internalType": "string",
          "name": "_name",
          "type": "string"
        },
        {
          "internalType": "string",
          "name": "_description",
          "type": "string"
        },
        {
          "internalType": "uint256",
          "name": "_price",
          "type": "uint256"
        },
        {
          "internalType": "string",
          "name": "imgipfshash",
          "type": "string"
        },
        {
          "internalType": "string",
          "name": "fileipfshash",
          "type": "string"
        }
      ],
      "stateMutability": "view",
      "type": "function"
    }
  ],
  "bytecode": "0x60806040526000805560006001556000600260006101000a81548160ff021916908315150217905550600060095534801561003957600080fd5b50614352806100496000396000f3fe60806040526004361061012a5760003560e01c8063846c8dea116100ab578063cb949e511161006f578063cb949e511461042e578063ce9f791d1461046b578063d17209d714610496578063db1970f4146104bf578063e0f6ef87146104fc578063e8b4194e146105275761012a565b8063846c8dea14610347578063890eba68146103705780639757e8a31461039b578063a0c8c156146103c6578063aca49018146103f15761012a565b80635ee95cae116100f25780635ee95cae146102365780636ebdac121461025f57806377faa57c146102885780637acc0b20146102c55780637e6b867f146103095761012a565b806330ff59481461012f578063336989ae1461017357806338e76a03146101b257806350208eee146101ce57806356d88e271461020b575b600080fd5b34801561013b57600080fd5b506101566004803603810190610151919061393c565b610569565b60405161016a989796959493929190613ea4565b60405180910390f35b34801561017f57600080fd5b5061019a600480360381019061019591906138b3565b61081b565b6040516101a993929190613cf3565b60405180910390f35b6101cc60048036038101906101c79190613aa7565b610959565b005b3480156101da57600080fd5b506101f560048036038101906101f091906138b3565b610efe565b6040516102029190613e0c565b60405180910390f35b34801561021757600080fd5b50610220610f83565b60405161022d9190613e0c565b60405180910390f35b34801561024257600080fd5b5061025d60048036038101906102589190613aa7565b610f89565b005b34801561026b57600080fd5b5061028660048036038101906102819190613aa7565b61106f565b005b34801561029457600080fd5b506102af60048036038101906102aa9190613aa7565b61134d565b6040516102bc9190613e0c565b60405180910390f35b3480156102d157600080fd5b506102ec60048036038101906102e79190613aa7565b611371565b604051610300989796959493929190613ea4565b60405180910390f35b34801561031557600080fd5b50610330600480360381019061032b9190613aa7565b611606565b60405161033e929190613dc1565b60405180910390f35b34801561035357600080fd5b5061036e60048036038101906103699190613aa7565b611afb565b005b34801561037c57600080fd5b50610385612114565b6040516103929190613da6565b60405180910390f35b3480156103a757600080fd5b506103b0612127565b6040516103bd9190613e0c565b60405180910390f35b3480156103d257600080fd5b506103db61212d565b6040516103e89190613da6565b60405180910390f35b3480156103fd57600080fd5b5061041860048036038101906104139190613aa7565b612261565b6040516104259190613cd8565b60405180910390f35b34801561043a57600080fd5b50610455600480360381019061045091906138b3565b6122a0565b6040516104629190613dea565b60405180910390f35b34801561047757600080fd5b50610480612457565b60405161048d9190613e0c565b60405180910390f35b3480156104a257600080fd5b506104bd60048036038101906104b891906139bc565b61245d565b005b3480156104cb57600080fd5b506104e660048036038101906104e191906138e0565b612e37565b6040516104f39190613da6565b60405180910390f35b34801561050857600080fd5b50610511613172565b60405161051e9190613e0c565b60405180910390f35b34801561053357600080fd5b5061054e6004803603810190610549919061397c565b613178565b60405161056096959493929190613e27565b60405180910390f35b6006602052816000526040600020818154811061058557600080fd5b9060005260206000209060080201600091509150508060000154908060010180546105af9061411b565b80601f01602080910402602001604051908101604052809291908181526020018280546105db9061411b565b80156106285780601f106105fd57610100808354040283529160200191610628565b820191906000526020600020905b81548152906001019060200180831161060b57829003601f168201915b50505050509080600201805461063d9061411b565b80601f01602080910402602001604051908101604052809291908181526020018280546106699061411b565b80156106b65780601f1061068b576101008083540402835291602001916106b6565b820191906000526020600020905b81548152906001019060200180831161069957829003601f168201915b5050505050908060030154908060040180546106d19061411b565b80601f01602080910402602001604051908101604052809291908181526020018280546106fd9061411b565b801561074a5780601f1061071f5761010080835404028352916020019161074a565b820191906000526020600020905b81548152906001019060200180831161072d57829003601f168201915b50505050509080600501805461075f9061411b565b80601f016020809104026020016040519081016040528092919081815260200182805461078b9061411b565b80156107d85780601f106107ad576101008083540402835291602001916107d8565b820191906000526020600020905b8154815290600101906020018083116107bb57829003601f168201915b5050505050908060060160009054906101000a900473ffffffffffffffffffffffffffffffffffffffff16908060060160149054906101000a900460ff16905088565b60046020528060005260406000206000915090508060000160009054906101000a900473ffffffffffffffffffffffffffffffffffffffff16908060010180546108649061411b565b80601f01602080910402602001604051908101604052809291908181526020018280546108909061411b565b80156108dd5780601f106108b2576101008083540402835291602001916108dd565b820191906000526020600020905b8154815290600101906020018083116108c057829003601f168201915b505050505090806002016040518060400160405290816000820180548060200260200160405190810160405280929190818152602001828054801561094157602002820191906000526020600020905b81548152602001906001019080831161092d575b50505050508152602001600182015481525050905083565b60006003600083815260200190815260200160002060405180610120016040529081600082015481526020016001820180546109949061411b565b80601f01602080910402602001604051908101604052809291908181526020018280546109c09061411b565b8015610a0d5780601f106109e257610100808354040283529160200191610a0d565b820191906000526020600020905b8154815290600101906020018083116109f057829003601f168201915b50505050508152602001600282018054610a269061411b565b80601f0160208091040260200160405190810160405280929190818152602001828054610a529061411b565b8015610a9f5780601f10610a7457610100808354040283529160200191610a9f565b820191906000526020600020905b815481529060010190602001808311610a8257829003601f168201915b5050505050815260200160038201548152602001600482018054610ac29061411b565b80601f0160208091040260200160405190810160405280929190818152602001828054610aee9061411b565b8015610b3b5780601f10610b1057610100808354040283529160200191610b3b565b820191906000526020600020905b815481529060010190602001808311610b1e57829003601f168201915b50505050508152602001600582018054610b549061411b565b80601f0160208091040260200160405190810160405280929190818152602001828054610b809061411b565b8015610bcd5780601f10610ba257610100808354040283529160200191610bcd565b820191906000526020600020905b815481529060010190602001808311610bb057829003601f168201915b505050505081526020016006820160009054906101000a900473ffffffffffffffffffffffffffffffffffffffff1673ffffffffffffffffffffffffffffffffffffffff1673ffffffffffffffffffffffffffffffffffffffff1681526020016006820160149054906101000a900460ff1615151515815260200160078201805480602002602001604051908101604052809291908181526020018280548015610ccc57602002820191906000526020600020905b8160009054906101000a900473ffffffffffffffffffffffffffffffffffffffff1673ffffffffffffffffffffffffffffffffffffffff1681526020019060010190808311610c82575b505050505081525050905060008160c001519050338260c0019073ffffffffffffffffffffffffffffffffffffffff16908173ffffffffffffffffffffffffffffffffffffffff168152505060018260e00190151590811515815250508160036000858152602001908152602001600020600082015181600001556020820151816001019080519060200190610d639291906134f3565b506040820151816002019080519060200190610d809291906134f3565b50606082015181600301556080820151816004019080519060200190610da79291906134f3565b5060a0820151816005019080519060200190610dc49291906134f3565b5060c08201518160060160006101000a81548173ffffffffffffffffffffffffffffffffffffffff021916908373ffffffffffffffffffffffffffffffffffffffff16021790555060e08201518160060160146101000a81548160ff021916908315150217905550610100820151816007019080519060200190610e49929190613579565b509050508073ffffffffffffffffffffffffffffffffffffffff166108fc349081150290604051600060405180830381858888f19350505050158015610e93573d6000803e3d6000fd5b50610e9d83611afb565b7f5d3e174cea83fc7a15e7c910d86c8dceb0129bfdabceb14a6e43e0d4ccbfdb4a60005483602001518460400151856060015186608001518760a00151336001604051610ef1989796959493929190613ea4565b60405180910390a1505050565b60008073ffffffffffffffffffffffffffffffffffffffff168273ffffffffffffffffffffffffffffffffffffffff161415610f3957600080fd5b600660008373ffffffffffffffffffffffffffffffffffffffff1673ffffffffffffffffffffffffffffffffffffffff168152602001908152602001600020805490509050919050565b60085481565b610f9281611afb565b60036000828152602001908152602001600020600080820160009055600182016000610fbe9190613603565b600282016000610fce9190613603565b6003820160009055600482016000610fe69190613603565b600582016000610ff69190613603565b6006820160006101000a81549073ffffffffffffffffffffffffffffffffffffffff02191690556006820160146101000a81549060ff02191690556007820160006110419190613643565b5050600781908060018154018082558091505060019003906000526020600020016000909190919091505550565b60006001600460003373ffffffffffffffffffffffffffffffffffffffff1673ffffffffffffffffffffffffffffffffffffffff168152602001908152602001600020600201600001805490506110c69190614050565b67ffffffffffffffff8111156110df576110de614283565b5b60405190808252806020026020018201604052801561110d5781602001602082028036833780820191505090505b5090506000600460003373ffffffffffffffffffffffffffffffffffffffff1673ffffffffffffffffffffffffffffffffffffffff1681526020019081526020016000206002016000018054806020026020016040519081016040528092919081815260200182805480156111a157602002820191906000526020600020905b81548152602001906001019080831161118d575b5050505050905060005b81518110156112ed578381146111fa578181815181106111ce576111cd614254565b5b60200260200101518382815181106111e9576111e8614254565b5b6020026020010181815250506112da565b6003600083838151811061121157611210614254565b5b6020026020010151815260200190815260200160002060030154600460003373ffffffffffffffffffffffffffffffffffffffff1673ffffffffffffffffffffffffffffffffffffffff168152602001908152602001600020600201600101600082825461127f9190614050565b925050819055507fa623e239783d1923197e89ebc14226d544e0c6a48928ebfd977de627b61766bf338383815181106112bb576112ba614254565b5b60200260200101516040516112d1929190613d38565b60405180910390a15b80806112e59061417e565b9150506111ab565b5081600460003373ffffffffffffffffffffffffffffffffffffffff1673ffffffffffffffffffffffffffffffffffffffff1681526020019081526020016000206002016000019080519060200190611347929190613664565b50505050565b6007818154811061135d57600080fd5b906000526020600020016000915090505481565b600360205280600052604060002060009150905080600001549080600101805461139a9061411b565b80601f01602080910402602001604051908101604052809291908181526020018280546113c69061411b565b80156114135780601f106113e857610100808354040283529160200191611413565b820191906000526020600020905b8154815290600101906020018083116113f657829003601f168201915b5050505050908060020180546114289061411b565b80601f01602080910402602001604051908101604052809291908181526020018280546114549061411b565b80156114a15780601f10611476576101008083540402835291602001916114a1565b820191906000526020600020905b81548152906001019060200180831161148457829003601f168201915b5050505050908060030154908060040180546114bc9061411b565b80601f01602080910402602001604051908101604052809291908181526020018280546114e89061411b565b80156115355780601f1061150a57610100808354040283529160200191611535565b820191906000526020600020905b81548152906001019060200180831161151857829003601f168201915b50505050509080600501805461154a9061411b565b80601f01602080910402602001604051908101604052809291908181526020018280546115769061411b565b80156115c35780601f10611598576101008083540402835291602001916115c3565b820191906000526020600020905b8154815290600101906020018083116115a657829003601f168201915b5050505050908060060160009054906101000a900473ffffffffffffffffffffffffffffffffffffffff16908060060160149054906101000a900460ff16905088565b6000806000600460003373ffffffffffffffffffffffffffffffffffffffff1673ffffffffffffffffffffffffffffffffffffffff168152602001908152602001600020905060006003600086815260200190815260200160002060405180610120016040529081600082015481526020016001820180546116879061411b565b80601f01602080910402602001604051908101604052809291908181526020018280546116b39061411b565b80156117005780601f106116d557610100808354040283529160200191611700565b820191906000526020600020905b8154815290600101906020018083116116e357829003601f168201915b505050505081526020016002820180546117199061411b565b80601f01602080910402602001604051908101604052809291908181526020018280546117459061411b565b80156117925780601f1061176757610100808354040283529160200191611792565b820191906000526020600020905b81548152906001019060200180831161177557829003601f168201915b50505050508152602001600382015481526020016004820180546117b59061411b565b80601f01602080910402602001604051908101604052809291908181526020018280546117e19061411b565b801561182e5780601f106118035761010080835404028352916020019161182e565b820191906000526020600020905b81548152906001019060200180831161181157829003601f168201915b505050505081526020016005820180546118479061411b565b80601f01602080910402602001604051908101604052809291908181526020018280546118739061411b565b80156118c05780601f10611895576101008083540402835291602001916118c0565b820191906000526020600020905b8154815290600101906020018083116118a357829003601f168201915b505050505081526020016006820160009054906101000a900473ffffffffffffffffffffffffffffffffffffffff1673ffffffffffffffffffffffffffffffffffffffff1673ffffffffffffffffffffffffffffffffffffffff1681526020016006820160149054906101000a900460ff16151515158152602001600782018054806020026020016040519081016040528092919081815260200182805480156119bf57602002820191906000526020600020905b8160009054906101000a900473ffffffffffffffffffffffffffffffffffffffff1673ffffffffffffffffffffffffffffffffffffffff1681526020019060010190808311611975575b50505050508152505090506000826002016000018054905090508260020160000182600001519080600181540180825580915050600190039060005260206000200160009091909190915055600083600201600101549050826060015181611a279190613ffa565b84600201600101819055508184600201600001805490501115611ab1577f1e862ddcab5a3222c811c44ecc1c4a46d3da57dde0e884ad6e7e070a8ece2377338885606001518760020160010154604051611a849493929190613d61565b60405180910390a16001808560020160000180549050611aa49190614050565b9550955050505050611af6565b7f5f187c44b1528b1d93b313a10cf6038ff514e59499f6790e1e2da2f7d1cfdd303388604051611ae2929190613d38565b60405180910390a160008095509550505050505b915091565b6000805b600660003373ffffffffffffffffffffffffffffffffffffffff1673ffffffffffffffffffffffffffffffffffffffff16815260200190815260200160002080549050811015611be55782600660003373ffffffffffffffffffffffffffffffffffffffff1673ffffffffffffffffffffffffffffffffffffffff1681526020019081526020016000208281548110611b9b57611b9a614254565b5b9060005260206000209060080201600001541415611bd2576001600260006101000a81548160ff0219169083151502179055508091505b8080611bdd9061417e565b915050611aff565b50600260009054906101000a900460ff1615612110576001600660003373ffffffffffffffffffffffffffffffffffffffff1673ffffffffffffffffffffffffffffffffffffffff16815260200190815260200160002080549050611c4a9190614050565b811415611d7457600660003373ffffffffffffffffffffffffffffffffffffffff1673ffffffffffffffffffffffffffffffffffffffff168152602001908152602001600020805480611ca057611c9f614225565b5b6001900381819060005260206000209060080201600080820160009055600182016000611ccd9190613603565b600282016000611cdd9190613603565b6003820160009055600482016000611cf59190613603565b600582016000611d059190613603565b6006820160006101000a81549073ffffffffffffffffffffffffffffffffffffffff02191690556006820160146101000a81549060ff0219169055600782016000611d509190613643565b505090556000600260006101000a81548160ff02191690831515021790555061210f565b60008190505b6001600660003373ffffffffffffffffffffffffffffffffffffffff1673ffffffffffffffffffffffffffffffffffffffff16815260200190815260200160002080549050611dc99190614050565b811015611fef57600660003373ffffffffffffffffffffffffffffffffffffffff1673ffffffffffffffffffffffffffffffffffffffff168152602001908152602001600020600182611e1c9190613ffa565b81548110611e2d57611e2c614254565b5b9060005260206000209060080201600660003373ffffffffffffffffffffffffffffffffffffffff1673ffffffffffffffffffffffffffffffffffffffff1681526020019081526020016000208281548110611e8c57611e8b614254565b5b9060005260206000209060080201600082015481600001556001820181600101908054611eb89061411b565b611ec39291906136b1565b506002820181600201908054611ed89061411b565b611ee39291906136b1565b50600382015481600301556004820181600401908054611f029061411b565b611f0d9291906136b1565b506005820181600501908054611f229061411b565b611f2d9291906136b1565b506006820160009054906101000a900473ffffffffffffffffffffffffffffffffffffffff168160060160006101000a81548173ffffffffffffffffffffffffffffffffffffffff021916908373ffffffffffffffffffffffffffffffffffffffff1602179055506006820160149054906101000a900460ff168160060160146101000a81548160ff0219169083151502179055506007820181600701908054611fd892919061373e565b509050508080611fe79061417e565b915050611d7a565b50600660003373ffffffffffffffffffffffffffffffffffffffff1673ffffffffffffffffffffffffffffffffffffffff16815260200190815260200160002080548061203f5761203e614225565b5b600190038181906000526020600020906008020160008082016000905560018201600061206c9190613603565b60028201600061207c9190613603565b60038201600090556004820160006120949190613603565b6005820160006120a49190613603565b6006820160006101000a81549073ffffffffffffffffffffffffffffffffffffffff02191690556006820160146101000a81549060ff02191690556007820160006120ef9190613643565b505090556000600260006101000a81548160ff0219169083151502179055505b5b5050565b600260009054906101000a900460ff1681565b60015481565b600080600460003373ffffffffffffffffffffffffffffffffffffffff1673ffffffffffffffffffffffffffffffffffffffff16815260200190815260200160002090506040518060400160405280600067ffffffffffffffff81111561219757612196614283565b5b6040519080825280602002602001820160405280156121c55781602001602082028036833780820191505090505b50815260200160008152508160020160008201518160000190805190602001906121f0929190613664565b50602082015181600101559050507f69dad80af5bbf467deb57c60ff8e39e3aacc707b1aa1c5b240aab4982f946fee8160000160009054906101000a900473ffffffffffffffffffffffffffffffffffffffff166040516122519190613cd8565b60405180910390a1600191505090565b6005818154811061227157600080fd5b906000526020600020016000915054906101000a900473ffffffffffffffffffffffffffffffffffffffff1681565b6122a8613790565b600460008373ffffffffffffffffffffffffffffffffffffffff1673ffffffffffffffffffffffffffffffffffffffff1681526020019081526020016000206040518060600160405290816000820160009054906101000a900473ffffffffffffffffffffffffffffffffffffffff1673ffffffffffffffffffffffffffffffffffffffff1673ffffffffffffffffffffffffffffffffffffffff1681526020016001820180546123589061411b565b80601f01602080910402602001604051908101604052809291908181526020018280546123849061411b565b80156123d15780601f106123a6576101008083540402835291602001916123d1565b820191906000526020600020905b8154815290600101906020018083116123b457829003601f168201915b50505050508152602001600282016040518060400160405290816000820180548060200260200160405190810160405280929190818152602001828054801561243957602002820191906000526020600020905b815481526020019060010190808311612425575b50505050508152602001600182015481525050815250509050919050565b60095481565b600085511161246b57600080fd5b6000831161247857600080fd5b600060078054905014806124ab57506000600760008154811061249e5761249d614254565b5b9060005260206000200154145b156128f7576000808154809291906124c29061417e565b919050555060405180610120016040528060005481526020018681526020018581526020018481526020018381526020018281526020013373ffffffffffffffffffffffffffffffffffffffff168152602001600015158152602001600067ffffffffffffffff81111561253957612538614283565b5b6040519080825280602002602001820160405280156125675781602001602082028036833780820191505090505b5081525060036000805481526020019081526020016000206000820151816000015560208201518160010190805190602001906125a59291906134f3565b5060408201518160020190805190602001906125c29291906134f3565b506060820151816003015560808201518160040190805190602001906125e99291906134f3565b5060a08201518160050190805190602001906126069291906134f3565b5060c08201518160060160006101000a81548173ffffffffffffffffffffffffffffffffffffffff021916908373ffffffffffffffffffffffffffffffffffffffff16021790555060e08201518160060160146101000a81548160ff02191690831515021790555061010082015181600701908051906020019061268b929190613579565b50905050600660003373ffffffffffffffffffffffffffffffffffffffff1673ffffffffffffffffffffffffffffffffffffffff16815260200190815260200160002060405180610120016040528060005481526020018781526020018681526020018581526020018481526020018381526020013373ffffffffffffffffffffffffffffffffffffffff168152602001600015158152602001600067ffffffffffffffff8111156127405761273f614283565b5b60405190808252806020026020018201604052801561276e5781602001602082028036833780820191505090505b5081525090806001815401808255809150506001900390600052602060002090600802016000909190919091506000820151816000015560208201518160010190805190602001906127c19291906134f3565b5060408201518160020190805190602001906127de9291906134f3565b506060820151816003015560808201518160040190805190602001906128059291906134f3565b5060a08201518160050190805190602001906128229291906134f3565b5060c08201518160060160006101000a81548173ffffffffffffffffffffffffffffffffffffffff021916908373ffffffffffffffffffffffffffffffffffffffff16021790555060e08201518160060160146101000a81548160ff0219169083151502179055506101008201518160070190805190602001906128a7929190613579565b5050507fbb45e05496e643a69bb522fd78ec743fcc4cecc08d892a6685a76f79e29e1eb460005486868686863360006040516128ea989796959493929190613ea4565b60405180910390a1612e30565b6000600760008154811061290e5761290d614254565b5b90600052602060002001549050604051806101200160405280600760008154811061293c5761293b614254565b5b906000526020600020015481526020018781526020018681526020018581526020018481526020018381526020013373ffffffffffffffffffffffffffffffffffffffff168152602001600015158152602001600067ffffffffffffffff8111156129aa576129a9614283565b5b6040519080825280602002602001820160405280156129d85781602001602082028036833780820191505090505b508152506003600060076000815481106129f5576129f4614254565b5b90600052602060002001548152602001908152602001600020600082015181600001556020820151816001019080519060200190612a349291906134f3565b506040820151816002019080519060200190612a519291906134f3565b50606082015181600301556080820151816004019080519060200190612a789291906134f3565b5060a0820151816005019080519060200190612a959291906134f3565b5060c08201518160060160006101000a81548173ffffffffffffffffffffffffffffffffffffffff021916908373ffffffffffffffffffffffffffffffffffffffff16021790555060e08201518160060160146101000a81548160ff021916908315150217905550610100820151816007019080519060200190612b1a929190613579565b5090505060078054905060088190555060005b6001600780549050612b3f9190614050565b811015612ba6576007600182612b559190613ffa565b81548110612b6657612b65614254565b5b906000526020600020015460078281548110612b8557612b84614254565b5b90600052602060002001819055508080612b9e9061417e565b915050612b2d565b506007805480612bb957612bb8614225565b5b60019003818190600052602060002001600090559055600660003373ffffffffffffffffffffffffffffffffffffffff1673ffffffffffffffffffffffffffffffffffffffff1681526020019081526020016000206040518061012001604052808381526020018881526020018781526020018681526020018581526020018481526020013373ffffffffffffffffffffffffffffffffffffffff168152602001600015158152602001600067ffffffffffffffff811115612c7e57612c7d614283565b5b604051908082528060200260200182016040528015612cac5781602001602082028036833780820191505090505b508152509080600181540180825580915050600190039060005260206000209060080201600090919091909150600082015181600001556020820151816001019080519060200190612cff9291906134f3565b506040820151816002019080519060200190612d1c9291906134f3565b50606082015181600301556080820151816004019080519060200190612d439291906134f3565b5060a0820151816005019080519060200190612d609291906134f3565b5060c08201518160060160006101000a81548173ffffffffffffffffffffffffffffffffffffffff021916908373ffffffffffffffffffffffffffffffffffffffff16021790555060e08201518160060160146101000a81548160ff021916908315150217905550610100820151816007019080519060200190612de5929190613579565b5050507fbb45e05496e643a69bb522fd78ec743fcc4cecc08d892a6685a76f79e29e1eb4818787878787336000604051612e26989796959493929190613ea4565b60405180910390a1505b5050505050565b60008073ffffffffffffffffffffffffffffffffffffffff168373ffffffffffffffffffffffffffffffffffffffff1614158015612f035750600073ffffffffffffffffffffffffffffffffffffffff16600460008573ffffffffffffffffffffffffffffffffffffffff1673ffffffffffffffffffffffffffffffffffffffff16815260200190815260200160002060000160009054906101000a900473ffffffffffffffffffffffffffffffffffffffff1673ffffffffffffffffffffffffffffffffffffffff16145b1561313057600060405180606001604052808573ffffffffffffffffffffffffffffffffffffffff1681526020018481526020016040518060400160405280600067ffffffffffffffff811115612f5d57612f5c614283565b5b604051908082528060200260200182016040528015612f8b5781602001602082028036833780820191505090505b5081526020016000815250815250905060016000815480929190612fae9061417e565b91905055508060000151600560015481548110612fce57612fcd614254565b5b9060005260206000200160006101000a81548173ffffffffffffffffffffffffffffffffffffffff021916908373ffffffffffffffffffffffffffffffffffffffff16021790555080600460008673ffffffffffffffffffffffffffffffffffffffff1673ffffffffffffffffffffffffffffffffffffffff16815260200190815260200160002060008201518160000160006101000a81548173ffffffffffffffffffffffffffffffffffffffff021916908373ffffffffffffffffffffffffffffffffffffffff16021790555060208201518160010190805190602001906130b99291906134f3565b5060408201518160020160008201518160000190805190602001906130df929190613664565b506020820151816001015550509050507f155e8619f4d23b96769599cb9af87da3e06a360082869c18578011da9a06e6708460405161311e9190613cd8565b60405180910390a1600191505061316c565b7f7c66b00fc05577d946381dc5b311ac0e6f93dbdc6f1b7b6a570ccdd7dbed6a038360405161315f9190613cd8565b60405180910390a1600090505b92915050565b60005481565b60006060806000606080600073ffffffffffffffffffffffffffffffffffffffff168873ffffffffffffffffffffffffffffffffffffffff1614156131bc57600080fd5b60008760ff16101580156131d4575060ff8760ff1611155b6131dd57600080fd5b6000600660008a73ffffffffffffffffffffffffffffffffffffffff1673ffffffffffffffffffffffffffffffffffffffff168152602001908152602001600020805490501161322c57600080fd5b6000600660008a73ffffffffffffffffffffffffffffffffffffffff1673ffffffffffffffffffffffffffffffffffffffff1681526020019081526020016000208860ff168154811061328257613281614254565b5b9060005260206000209060080201905080600001548160010182600201836003015484600401856005018480546132b89061411b565b80601f01602080910402602001604051908101604052809291908181526020018280546132e49061411b565b80156133315780601f1061330657610100808354040283529160200191613331565b820191906000526020600020905b81548152906001019060200180831161331457829003601f168201915b505050505094508380546133449061411b565b80601f01602080910402602001604051908101604052809291908181526020018280546133709061411b565b80156133bd5780601f10613392576101008083540402835291602001916133bd565b820191906000526020600020905b8154815290600101906020018083116133a057829003601f168201915b505050505093508180546133d09061411b565b80601f01602080910402602001604051908101604052809291908181526020018280546133fc9061411b565b80156134495780601f1061341e57610100808354040283529160200191613449565b820191906000526020600020905b81548152906001019060200180831161342c57829003601f168201915b5050505050915080805461345c9061411b565b80601f01602080910402602001604051908101604052809291908181526020018280546134889061411b565b80156134d55780601f106134aa576101008083540402835291602001916134d5565b820191906000526020600020905b8154815290600101906020018083116134b857829003601f168201915b50505050509050965096509650965096509650509295509295509295565b8280546134ff9061411b565b90600052602060002090601f0160209004810192826135215760008555613568565b82601f1061353a57805160ff1916838001178555613568565b82800160010185558215613568579182015b8281111561356757825182559160200191906001019061354c565b5b50905061357591906137cd565b5090565b8280548282559060005260206000209081019282156135f2579160200282015b828111156135f15782518260006101000a81548173ffffffffffffffffffffffffffffffffffffffff021916908373ffffffffffffffffffffffffffffffffffffffff16021790555091602001919060010190613599565b5b5090506135ff91906137cd565b5090565b50805461360f9061411b565b6000825580601f106136215750613640565b601f01602090049060005260206000209081019061363f91906137cd565b5b50565b508054600082559060005260206000209081019061366191906137cd565b50565b8280548282559060005260206000209081019282156136a0579160200282015b8281111561369f578251825591602001919060010190613684565b5b5090506136ad91906137cd565b5090565b8280546136bd9061411b565b90600052602060002090601f0160209004810192826136df576000855561372d565b82601f106136f0578054855561372d565b8280016001018555821561372d57600052602060002091601f016020900482015b8281111561372c578254825591600101919060010190613711565b5b50905061373a91906137cd565b5090565b82805482825590600052602060002090810192821561377f5760005260206000209182015b8281111561377e578254825591600101919060010190613763565b5b50905061378c91906137cd565b5090565b6040518060600160405280600073ffffffffffffffffffffffffffffffffffffffff168152602001606081526020016137c76137ea565b81525090565b5b808211156137e65760008160009055506001016137ce565b5090565b604051806040016040528060608152602001600081525090565b600061381761381284613f63565b613f3e565b905082815260208101848484011115613833576138326142b7565b5b61383e8482856140d9565b509392505050565b600081359050613855816142d7565b92915050565b600082601f8301126138705761386f6142b2565b5b8135613880848260208601613804565b91505092915050565b600081359050613898816142ee565b92915050565b6000813590506138ad81614305565b92915050565b6000602082840312156138c9576138c86142c1565b5b60006138d784828501613846565b91505092915050565b600080604083850312156138f7576138f66142c1565b5b600061390585828601613846565b925050602083013567ffffffffffffffff811115613926576139256142bc565b5b6139328582860161385b565b9150509250929050565b60008060408385031215613953576139526142c1565b5b600061396185828601613846565b925050602061397285828601613889565b9150509250929050565b60008060408385031215613993576139926142c1565b5b60006139a185828601613846565b92505060206139b28582860161389e565b9150509250929050565b600080600080600060a086880312156139d8576139d76142c1565b5b600086013567ffffffffffffffff8111156139f6576139f56142bc565b5b613a028882890161385b565b955050602086013567ffffffffffffffff811115613a2357613a226142bc565b5b613a2f8882890161385b565b9450506040613a4088828901613889565b935050606086013567ffffffffffffffff811115613a6157613a606142bc565b5b613a6d8882890161385b565b925050608086013567ffffffffffffffff811115613a8e57613a8d6142bc565b5b613a9a8882890161385b565b9150509295509295909350565b600060208284031215613abd57613abc6142c1565b5b6000613acb84828501613889565b91505092915050565b6000613ae08383613cba565b60208301905092915050565b613af581614084565b82525050565b613b0481614084565b82525050565b6000613b1582613fa4565b613b1f8185613fc7565b9350613b2a83613f94565b8060005b83811015613b5b578151613b428882613ad4565b9750613b4d83613fba565b925050600181019050613b2e565b5085935050505092915050565b613b7181614096565b82525050565b6000613b8282613faf565b613b8c8185613fd8565b9350613b9c8185602086016140e8565b613ba5816142c6565b840191505092915050565b6000613bbb82613faf565b613bc58185613fe9565b9350613bd58185602086016140e8565b613bde816142c6565b840191505092915050565b60006040830160008301518482036000860152613c068282613b0a565b9150506020830151613c1b6020860182613cba565b508091505092915050565b60006040830160008301518482036000860152613c438282613b0a565b9150506020830151613c586020860182613cba565b508091505092915050565b6000606083016000830151613c7b6000860182613aec565b5060208301518482036020860152613c938282613b77565b91505060408301518482036040860152613cad8282613be9565b9150508091505092915050565b613cc3816140c2565b82525050565b613cd2816140c2565b82525050565b6000602082019050613ced6000830184613afb565b92915050565b6000606082019050613d086000830186613afb565b8181036020830152613d1a8185613bb0565b90508181036040830152613d2e8184613c26565b9050949350505050565b6000604082019050613d4d6000830185613afb565b613d5a6020830184613cc9565b9392505050565b6000608082019050613d766000830187613afb565b613d836020830186613cc9565b613d906040830185613cc9565b613d9d6060830184613cc9565b95945050505050565b6000602082019050613dbb6000830184613b68565b92915050565b6000604082019050613dd66000830185613b68565b613de36020830184613cc9565b9392505050565b60006020820190508181036000830152613e048184613c63565b905092915050565b6000602082019050613e216000830184613cc9565b92915050565b600060c082019050613e3c6000830189613cc9565b8181036020830152613e4e8188613bb0565b90508181036040830152613e628187613bb0565b9050613e716060830186613cc9565b8181036080830152613e838185613bb0565b905081810360a0830152613e978184613bb0565b9050979650505050505050565b600061010082019050613eba600083018b613cc9565b8181036020830152613ecc818a613bb0565b90508181036040830152613ee08189613bb0565b9050613eef6060830188613cc9565b8181036080830152613f018187613bb0565b905081810360a0830152613f158186613bb0565b9050613f2460c0830185613afb565b613f3160e0830184613b68565b9998505050505050505050565b6000613f48613f59565b9050613f54828261414d565b919050565b6000604051905090565b600067ffffffffffffffff821115613f7e57613f7d614283565b5b613f87826142c6565b9050602081019050919050565b6000819050602082019050919050565b600081519050919050565b600081519050919050565b6000602082019050919050565b600082825260208201905092915050565b600082825260208201905092915050565b600082825260208201905092915050565b6000614005826140c2565b9150614010836140c2565b9250827fffffffffffffffffffffffffffffffffffffffffffffffffffffffffffffffff03821115614045576140446141c7565b5b828201905092915050565b600061405b826140c2565b9150614066836140c2565b925082821015614079576140786141c7565b5b828203905092915050565b600061408f826140a2565b9050919050565b60008115159050919050565b600073ffffffffffffffffffffffffffffffffffffffff82169050919050565b6000819050919050565b600060ff82169050919050565b82818337600083830152505050565b60005b838110156141065780820151818401526020810190506140eb565b83811115614115576000848401525b50505050565b6000600282049050600182168061413357607f821691505b60208210811415614147576141466141f6565b5b50919050565b614156826142c6565b810181811067ffffffffffffffff8211171561417557614174614283565b5b80604052505050565b6000614189826140c2565b91507fffffffffffffffffffffffffffffffffffffffffffffffffffffffffffffffff8214156141bc576141bb6141c7565b5b600182019050919050565b7f4e487b7100000000000000000000000000000000000000000000000000000000600052601160045260246000fd5b7f4e487b7100000000000000000000000000000000000000000000000000000000600052602260045260246000fd5b7f4e487b7100000000000000000000000000000000000000000000000000000000600052603160045260246000fd5b7f4e487b7100000000000000000000000000000000000000000000000000000000600052603260045260246000fd5b7f4e487b7100000000000000000000000000000000000000000000000000000000600052604160045260246000fd5b600080fd5b600080fd5b600080fd5b600080fd5b6000601f19601f8301169050919050565b6142e081614084565b81146142eb57600080fd5b50565b6142f7816140c2565b811461430257600080fd5b50565b61430e816140cc565b811461431957600080fd5b5056fea2646970667358221220f90b4bf5b17725ff795998f143ee7e69760f5bd0bafb2f49502a785a2a0eaf6664736f6c63430008070033",
  "immutableReferences": {},
  "source": "// if purchased w bdi 27zfa\r\n// SPDX-License-Identifier: MIT\r\npragma solidity  ^0.8.0;\r\n\r\ncontract Marketplace {\r\n    //string public name;\r\n    uint public productCount = 0;\r\n    uint public customerCount = 0;\r\n    //to store the products on blockchain\r\n    bool public flag = false;\r\n    mapping(uint => Product) public products;\r\n    //to store the customers on blockchain\r\n    mapping(address  => Customer) public customers;\r\n    address[] public addressLUT;\r\n    // Maps owner to their images\r\n    mapping (address => Product[]) public ownerToProducts;\r\n    uint[] public emptySpaces;\r\n    uint public len; \r\n    uint public ftt = 0;\r\n\r\n    struct Customer {\r\n        address adr;\r\n        string name;\r\n        Cart cart;\r\n    }\r\n\r\n    struct Cart {\r\n      uint256[] products;\r\n      uint256 completeSum;\r\n    }\r\n\r\n    struct Product {\r\n        uint id;\r\n        string name;\r\n        string description;\r\n        uint price;\r\n        string imgipfshash;\r\n        string fileipfshash;\r\n        address owner;\r\n        bool purchased;\r\n        address[] owners;\r\n    }\r\n\r\n    event ProductCreated(uint id, string name, string description, uint price, string imgipfshash, string fileipfshash, address owner, bool purchased);\r\n    event ProductPurchased(uint id, string name, string description, uint price, string imgipfshash, string fileipfshash, address owner, bool purchased);\r\n    event CustomerRegistered(address customer);\r\n    event CustomerRegistrationFailed(address customer);\r\n    event CartProductInserted(address customer, uint256 prodId, uint256 prodPrice, uint256 completeSum);\r\n    event CartProductInsertionFailed(address customer, uint256 prodId);\r\n    event CartProductRemoved(address customer, uint256 prodId);\r\n    event CartEmptied(address customer);\r\n\r\n\r\n    /*constructor() public {\r\n        name = \"Jazara Marketplace\";\r\n    }*/\r\n\r\n    // Create a new product with a struct\r\n    // Add the struct to the mapping, and store it on the blockchain\r\n    // Trigger an event that lets someone know a product was creatd\r\n    function createProduct(string memory _name,string memory _description, uint _price,string memory _imgipfshash,string memory _fileipfshash) public {\r\n        // Require a valid name\r\n        require(bytes(_name).length > 0);\r\n        // Require a valid description\r\n        //require(bytes(_description).length > 0);\r\n        // Require a valid price\r\n        require(_price > 0);\r\n        // Require a valid image hash\r\n        //require(bytes(_imgipfshash).length > 0);\r\n        // Require a valid file hash\r\n        //require(bytes(_fileipfshash).length > 0);*/\r\n        // Increment product count\r\n        if(emptySpaces.length == 0 || emptySpaces[0]==0){\r\n                productCount ++;\r\n                products[productCount] = Product(productCount, _name , _description, _price , _imgipfshash , _fileipfshash ,msg.sender, false ,new address[](0));\r\n        \r\n                ownerToProducts[msg.sender].push(Product({\r\n                id: productCount,\r\n                name: _name,\r\n                description: _description,\r\n                price: _price,\r\n                imgipfshash: _imgipfshash,\r\n                fileipfshash:_fileipfshash,\r\n                owner: msg.sender,\r\n                purchased: false,\r\n                owners: new address[](0)\r\n            }));\r\n            emit ProductCreated(productCount, _name, _description, _price, _imgipfshash,_fileipfshash, msg.sender, false);\r\n        }\r\n        else{\r\n            uint tmp = emptySpaces[0];\r\n            products[emptySpaces[0]] = Product(emptySpaces[0], _name , _description ,_price , _imgipfshash ,_fileipfshash, msg.sender, false,new address[](0) );\r\n            len = emptySpaces.length;\r\n            for(uint i = 0;i < emptySpaces.length - 1;i++){\r\n                emptySpaces[i] = emptySpaces[ i+1 ];\r\n            }\r\n            emptySpaces.pop();\r\n            ownerToProducts[msg.sender].push(Product({\r\n                id: tmp,\r\n                name: _name,\r\n                description: _description,\r\n                price: _price,\r\n                imgipfshash: _imgipfshash,\r\n                fileipfshash:_fileipfshash,\r\n                owner: msg.sender,\r\n                purchased: false,\r\n                owners: new address[](0)\r\n                }));\r\n                emit ProductCreated(tmp, _name, _description, _price, _imgipfshash,_fileipfshash, msg.sender, false);\r\n        }\r\n        \r\n    }\r\n\r\n    function removeProduct(uint id1) public {\r\n        removeNestedProduct(id1);\r\n        delete products [id1];\r\n        emptySpaces.push(id1);\r\n    }\r\n    function removeNestedProduct(uint id1) public {\r\n        uint index =0;\r\n        for(uint i=0;i<ownerToProducts[msg.sender].length;i++){\r\n            if(ownerToProducts[msg.sender][i].id == id1){\r\n                flag = true;\r\n                index = i;\r\n            }\r\n        }\r\n        if(flag){\r\n            if(index == ownerToProducts[msg.sender].length -1){\r\n                ownerToProducts[msg.sender].pop();\r\n                flag = false;\r\n            }\r\n            else{\r\n                for(uint i = index ;i <ownerToProducts[msg.sender].length - 1 ; i++){\r\n                    ownerToProducts[msg.sender][i] = ownerToProducts[msg.sender][ i+1 ];\r\n                }\r\n                ownerToProducts[msg.sender].pop();\r\n                flag = false;\r\n            }\r\n        }\r\n    }\r\n    function purchaseProduct(uint _id) public payable {\r\n        // Fetch the product\r\n        Product memory _product = products[_id];\r\n        // Fetch the owner\r\n        address _seller = _product.owner;\r\n        /*// Make sure the product has a valid id\r\n        require(_product.id > 0 && _product.id <= productCount);\r\n        // Require that there is enough Ether in the transaction\r\n        require(msg.value >= _product.price);\r\n        // Require that the product has not been purchased already\r\n        require(!_product.purchased);\r\n        // Require that the buyer is not the seller\r\n        require(_seller != msg.sender);\r\n        // Transfer ownership to the buyer*/\r\n        _product.owner = msg.sender;\r\n        // Mark as purchased\r\n        _product.purchased = true;\r\n        // Update the product\r\n        products[_id] = _product;\r\n        // Pay the seller by sending them Ether\r\n        payable(_seller).transfer(msg.value);\r\n        removeNestedProduct(_id);\r\n        // Trigger an event\r\n        emit ProductPurchased(productCount, _product.name,_product.description, _product.price, _product.imgipfshash, _product.fileipfshash, msg.sender, true);\r\n    }\r\n\r\n    function insertProductIntoCart(uint256 id) public returns (bool success,\r\n                                                  uint256 pos_in_prod_mapping) {\r\n        Customer storage cust = customers[msg.sender];\r\n        Product memory prod = products[id];\r\n        uint256 prods_prev_len = cust.cart.products.length;\r\n        cust.cart.products.push(prod.id);\r\n        uint256 current_sum = cust.cart.completeSum;\r\n        cust.cart.completeSum = current_sum + prod.price;\r\n        if (cust.cart.products.length > prods_prev_len) {\r\n          emit CartProductInserted(msg.sender, id, prod.price, cust.cart.completeSum);\r\n          return (true, cust.cart.products.length - 1);\r\n        }\r\n        emit CartProductInsertionFailed(msg.sender, id);\r\n        return (false, 0);\r\n    }\r\n\r\n    function removeProductFromCart(uint256 prod_pos_in_mapping) public {\r\n        uint256[] memory new_product_list = new uint256[](customers[msg.sender]\r\n                                                    .cart.products.length - 1);\r\n        uint256[] memory customerProds = customers[msg.sender].cart.products;\r\n        for (uint256 i = 0; i < customerProds.length; i++) {\r\n          if (i != prod_pos_in_mapping) {\r\n            new_product_list[i] = customerProds[i];\r\n          } else {\r\n            customers[msg.sender].cart.completeSum -=\r\n                                               products[customerProds[i]].price;\r\n            emit CartProductRemoved(msg.sender, customerProds[i]);\r\n          }\r\n        }\r\n        customers[msg.sender].cart.products = new_product_list;\r\n    }\r\n\r\n    function emptyCart() public returns (bool success) {\r\n        Customer storage customer = customers[msg.sender];\r\n        customer.cart = Cart(new uint256[](0), 0);\r\n        emit CartEmptied(customer.adr);\r\n        return true;\r\n    }\r\n\r\n    function registerCustomer(address _address, string memory _name)\r\n                                        public returns (bool success) {\r\n      if (_address != address(0) && customers[_address].adr == address(0x0)) {\r\n        Customer memory customer = Customer({ adr: _address, name: _name,\r\n                                              cart: Cart(new uint256[](0), 0)\r\n                                            });\r\n        customerCount++;\r\n        addressLUT[customerCount] = customer.adr;\r\n        customers[_address] = customer;\r\n        emit CustomerRegistered(_address);\r\n        return true;\r\n      }\r\n      emit CustomerRegistrationFailed(_address);\r\n      return false;\r\n    }\r\n\r\n    function getCustomer(address _adr) view public returns(Customer memory){\r\n    \treturn customers[_adr];\r\n    }\r\n\r\n    function getProductCount(address _owner) view\r\n        public\r\n        returns (uint256) \r\n    {\r\n        require(_owner != address(0));\r\n        return ownerToProducts[_owner].length;\r\n    }\r\n\r\n    function getProduct(address _owner, uint8 _index) view\r\n        public returns (\r\n        uint _id, \r\n        string memory _name, \r\n        string memory _description,\r\n        uint _price,\r\n        string memory imgipfshash,\r\n        string memory fileipfshash\r\n    ) {\r\n\r\n        require(_owner != address(0));\r\n        require(_index >= 0 && _index <= 2**8 - 1);\r\n        require(ownerToProducts[_owner].length > 0);\r\n\r\n        Product storage product = ownerToProducts[_owner][_index];\r\n        \r\n        return (\r\n            product.id, \r\n            product.name,\r\n            product.description,\r\n            product.price,\r\n            product.imgipfshash,\r\n            product.fileipfshash\r\n        );\r\n    }\r\n\r\n}",
  "sourcePath": "C:\\Users\\Administrator\\Desktop\\MarketPlace\\src\\contracts\\Marketplace.sol",
  "compiler": {
    "name": "solc",
    "version": "0.8.7+commit.e28d00a7.Emscripten.clang"
  },
  "schemaVersion": "3.4.2",
  "updatedAt": "2021-08-13T06:10:00.935Z",
  "devdoc": {
    "kind": "dev",
    "methods": {},
    "version": 1
  },
  "userdoc": {
    "kind": "user",
    "methods": {},
    "version": 1
  }
}