{
  "contractName": "Marketplace",
  "abi": [
    {
      "anonymous": false,
      "inputs": [
        {
          "indexed": false,
          "internalType": "address",
          "name": "customer",
          "type": "address"
        }
      ],
      "name": "CartEmptied",
      "type": "event"
    },
    {
      "anonymous": false,
      "inputs": [
        {
          "indexed": false,
          "internalType": "address",
          "name": "customer",
          "type": "address"
        },
        {
          "indexed": false,
          "internalType": "uint256",
          "name": "prodId",
          "type": "uint256"
        },
        {
          "indexed": false,
          "internalType": "uint256",
          "name": "prodPrice",
          "type": "uint256"
        },
        {
          "indexed": false,
          "internalType": "uint256",
          "name": "completeSum",
          "type": "uint256"
        }
      ],
      "name": "CartProductInserted",
      "type": "event"
    },
    {
      "anonymous": false,
      "inputs": [
        {
          "indexed": false,
          "internalType": "address",
          "name": "customer",
          "type": "address"
        },
        {
          "indexed": false,
          "internalType": "uint256",
          "name": "prodId",
          "type": "uint256"
        }
      ],
      "name": "CartProductInsertionFailed",
      "type": "event"
    },
    {
      "anonymous": false,
      "inputs": [
        {
          "indexed": false,
          "internalType": "address",
          "name": "customer",
          "type": "address"
        },
        {
          "indexed": false,
          "internalType": "uint256",
          "name": "prodId",
          "type": "uint256"
        }
      ],
      "name": "CartProductRemoved",
      "type": "event"
    },
    {
      "anonymous": false,
      "inputs": [
        {
          "indexed": false,
          "internalType": "address",
          "name": "customer",
          "type": "address"
        }
      ],
      "name": "CustomerRegistered",
      "type": "event"
    },
    {
      "anonymous": false,
      "inputs": [
        {
          "indexed": false,
          "internalType": "address",
          "name": "customer",
          "type": "address"
        }
      ],
      "name": "CustomerRegistrationFailed",
      "type": "event"
    },
    {
      "anonymous": false,
      "inputs": [
        {
          "indexed": false,
          "internalType": "uint256",
          "name": "id",
          "type": "uint256"
        },
        {
          "indexed": false,
          "internalType": "string",
          "name": "name",
          "type": "string"
        },
        {
          "indexed": false,
          "internalType": "string",
          "name": "description",
          "type": "string"
        },
        {
          "indexed": false,
          "internalType": "uint256",
          "name": "price",
          "type": "uint256"
        },
        {
          "indexed": false,
          "internalType": "string",
          "name": "imgipfshash",
          "type": "string"
        },
        {
          "indexed": false,
          "internalType": "string",
          "name": "fileipfshash",
          "type": "string"
        },
        {
          "indexed": false,
          "internalType": "address",
          "name": "owner",
          "type": "address"
        }
      ],
      "name": "ProductCreated",
      "type": "event"
    },
    {
      "anonymous": false,
      "inputs": [
        {
          "indexed": false,
          "internalType": "uint256",
          "name": "id",
          "type": "uint256"
        },
        {
          "indexed": false,
          "internalType": "string",
          "name": "name",
          "type": "string"
        },
        {
          "indexed": false,
          "internalType": "string",
          "name": "description",
          "type": "string"
        },
        {
          "indexed": false,
          "internalType": "uint256",
          "name": "price",
          "type": "uint256"
        },
        {
          "indexed": false,
          "internalType": "string",
          "name": "imgipfshash",
          "type": "string"
        },
        {
          "indexed": false,
          "internalType": "address",
          "name": "owner",
          "type": "address"
        }
      ],
      "name": "ProductPurchased",
      "type": "event"
    },
    {
      "inputs": [
        {
          "internalType": "uint256",
          "name": "",
          "type": "uint256"
        }
      ],
      "name": "addressLUT",
      "outputs": [
        {
          "internalType": "address",
          "name": "",
          "type": "address"
        }
      ],
      "stateMutability": "view",
      "type": "function"
    },
    {
      "inputs": [],
      "name": "customerCount",
      "outputs": [
        {
          "internalType": "uint256",
          "name": "",
          "type": "uint256"
        }
      ],
      "stateMutability": "view",
      "type": "function"
    },
    {
      "inputs": [
        {
          "internalType": "address",
          "name": "",
          "type": "address"
        }
      ],
      "name": "customers",
      "outputs": [
        {
          "internalType": "address",
          "name": "adr",
          "type": "address"
        },
        {
          "internalType": "string",
          "name": "name",
          "type": "string"
        }
      ],
      "stateMutability": "view",
      "type": "function"
    },
    {
      "inputs": [
        {
          "internalType": "uint256",
          "name": "",
          "type": "uint256"
        }
      ],
      "name": "files",
      "outputs": [
        {
          "internalType": "string",
          "name": "",
          "type": "string"
        }
      ],
      "stateMutability": "view",
      "type": "function"
    },
    {
      "inputs": [],
      "name": "flag",
      "outputs": [
        {
          "internalType": "bool",
          "name": "",
          "type": "bool"
        }
      ],
      "stateMutability": "view",
      "type": "function"
    },
    {
      "inputs": [],
      "name": "productCount",
      "outputs": [
        {
          "internalType": "uint256",
          "name": "",
          "type": "uint256"
        }
      ],
      "stateMutability": "view",
      "type": "function"
    },
    {
      "inputs": [
        {
          "internalType": "uint256",
          "name": "",
          "type": "uint256"
        }
      ],
      "name": "products",
      "outputs": [
        {
          "internalType": "uint256",
          "name": "id",
          "type": "uint256"
        },
        {
          "internalType": "string",
          "name": "name",
          "type": "string"
        },
        {
          "internalType": "string",
          "name": "description",
          "type": "string"
        },
        {
          "internalType": "uint256",
          "name": "price",
          "type": "uint256"
        },
        {
          "internalType": "string",
          "name": "imgipfshash",
          "type": "string"
        },
        {
          "internalType": "address",
          "name": "owner",
          "type": "address"
        },
        {
          "internalType": "enum Marketplace.Categories",
          "name": "categorie",
          "type": "uint8"
        },
        {
          "internalType": "uint256",
          "name": "uploadedOn",
          "type": "uint256"
        },
        {
          "internalType": "uint256",
          "name": "rate",
          "type": "uint256"
        },
        {
          "internalType": "uint256",
          "name": "reviewsCount",
          "type": "uint256"
        },
        {
          "internalType": "uint256",
          "name": "totalSold",
          "type": "uint256"
        },
        {
          "internalType": "uint256",
          "name": "report",
          "type": "uint256"
        },
        {
          "internalType": "uint256",
          "name": "removed",
          "type": "uint256"
        }
      ],
      "stateMutability": "view",
      "type": "function"
    },
    {
      "inputs": [
        {
          "internalType": "string",
          "name": "_name",
          "type": "string"
        },
        {
          "internalType": "string",
          "name": "_description",
          "type": "string"
        },
        {
          "internalType": "uint256",
          "name": "_price",
          "type": "uint256"
        },
        {
          "internalType": "string",
          "name": "_imgipfshash",
          "type": "string"
        },
        {
          "internalType": "string",
          "name": "_fileipfshash",
          "type": "string"
        },
        {
          "internalType": "enum Marketplace.Categories",
          "name": "_categorie",
          "type": "uint8"
        }
      ],
      "name": "createProduct",
      "outputs": [],
      "stateMutability": "nonpayable",
      "type": "function"
    },
    {
      "inputs": [
        {
          "internalType": "uint256",
          "name": "_id",
          "type": "uint256"
        }
      ],
      "name": "purchaseProduct",
      "outputs": [],
      "stateMutability": "payable",
      "type": "function"
    },
    {
      "inputs": [
        {
          "internalType": "uint256",
          "name": "id1",
          "type": "uint256"
        }
      ],
      "name": "removeProduct",
      "outputs": [],
      "stateMutability": "nonpayable",
      "type": "function"
    },
    {
      "inputs": [
        {
          "internalType": "uint256",
          "name": "id1",
          "type": "uint256"
        }
      ],
      "name": "restoreProduct",
      "outputs": [],
      "stateMutability": "nonpayable",
      "type": "function"
    },
    {
      "inputs": [
        {
          "internalType": "uint256",
          "name": "_id",
          "type": "uint256"
        },
        {
          "internalType": "string",
          "name": "_name",
          "type": "string"
        },
        {
          "internalType": "string",
          "name": "_des",
          "type": "string"
        },
        {
          "internalType": "uint256",
          "name": "_price",
          "type": "uint256"
        },
        {
          "internalType": "enum Marketplace.Categories",
          "name": "_categorie",
          "type": "uint8"
        }
      ],
      "name": "editProduct",
      "outputs": [],
      "stateMutability": "nonpayable",
      "type": "function"
    },
    {
      "inputs": [
        {
          "internalType": "uint256",
          "name": "_id",
          "type": "uint256"
        },
        {
          "internalType": "uint256",
          "name": "_rate",
          "type": "uint256"
        },
        {
          "internalType": "uint256",
          "name": "_score",
          "type": "uint256"
        },
        {
          "internalType": "string",
          "name": "_review",
          "type": "string"
        }
      ],
      "name": "reviewProduct",
      "outputs": [],
      "stateMutability": "nonpayable",
      "type": "function"
    },
    {
      "inputs": [
        {
          "internalType": "address",
          "name": "_address",
          "type": "address"
        },
        {
          "internalType": "string",
          "name": "_name",
          "type": "string"
        }
      ],
      "name": "registerCustomer",
      "outputs": [
        {
          "internalType": "bool",
          "name": "success",
          "type": "bool"
        }
      ],
      "stateMutability": "nonpayable",
      "type": "function"
    },
    {
      "inputs": [
        {
          "internalType": "uint256",
          "name": "_id",
          "type": "uint256"
        }
      ],
      "name": "hasReported",
      "outputs": [
        {
          "internalType": "bool",
          "name": "",
          "type": "bool"
        }
      ],
      "stateMutability": "view",
      "type": "function"
    },
    {
      "inputs": [
        {
          "internalType": "uint256",
          "name": "_id",
          "type": "uint256"
        }
      ],
      "name": "report",
      "outputs": [],
      "stateMutability": "nonpayable",
      "type": "function"
    },
    {
      "inputs": [
        {
          "internalType": "uint256",
          "name": "_id",
          "type": "uint256"
        }
      ],
      "name": "getReport",
      "outputs": [
        {
          "internalType": "uint256",
          "name": "",
          "type": "uint256"
        }
      ],
      "stateMutability": "view",
      "type": "function"
    },
    {
      "inputs": [
        {
          "internalType": "uint256",
          "name": "_id",
          "type": "uint256"
        }
      ],
      "name": "getProductReviews",
      "outputs": [
        {
          "components": [
            {
              "internalType": "bool",
              "name": "isBuy",
              "type": "bool"
            },
            {
              "internalType": "bool",
              "name": "isReview",
              "type": "bool"
            },
            {
              "internalType": "address",
              "name": "adr",
              "type": "address"
            },
            {
              "internalType": "string",
              "name": "name",
              "type": "string"
            },
            {
              "internalType": "uint256",
              "name": "rate",
              "type": "uint256"
            },
            {
              "internalType": "string",
              "name": "reviewDescription",
              "type": "string"
            },
            {
              "internalType": "uint256",
              "name": "score",
              "type": "uint256"
            },
            {
              "internalType": "uint256",
              "name": "timeStamp",
              "type": "uint256"
            }
          ],
          "internalType": "struct Marketplace.Review[]",
          "name": "",
          "type": "tuple[]"
        }
      ],
      "stateMutability": "view",
      "type": "function"
    },
    {
      "inputs": [
        {
          "internalType": "uint256",
          "name": "_id",
          "type": "uint256"
        }
      ],
      "name": "getProductBuyers",
      "outputs": [
        {
          "internalType": "address[]",
          "name": "",
          "type": "address[]"
        }
      ],
      "stateMutability": "view",
      "type": "function"
    },
    {
      "inputs": [
        {
          "internalType": "uint256",
          "name": "_id",
          "type": "uint256"
        }
      ],
      "name": "getProductfile",
      "outputs": [
        {
          "internalType": "string",
          "name": "",
          "type": "string"
        }
      ],
      "stateMutability": "view",
      "type": "function"
    },
    {
      "inputs": [
        {
          "internalType": "address",
          "name": "adr",
          "type": "address"
        }
      ],
      "name": "getPurchasedProducts",
      "outputs": [
        {
          "internalType": "uint256[]",
          "name": "",
          "type": "uint256[]"
        }
      ],
      "stateMutability": "view",
      "type": "function"
    }
  ],
  "bytecode": "0x608060405260008080556001556002805460ff19169055606460075534801561002757600080fd5b5061223f806100376000396000f3fe60806040526004361061016a5760003560e01c80637acc0b20116100cb578063aca490181161007f578063e0f6ef8711610059578063e0f6ef8714610450578063e4bb50c814610466578063f4c714b41461048657600080fd5b8063aca49018146103b5578063cc94f2d914610403578063db1970f41461043057600080fd5b8063890eba68116100b0578063890eba6814610365578063969b1cdb1461037f5780639757e8a31461039f57600080fd5b80637acc0b201461030c5780637b61b7021461034557600080fd5b806342761c851161012257806346a4237b1161010757806346a4237b146102815780634e7f9b19146102ae5780635ee95cae146102ec57600080fd5b806342761c851461023457806343308eef1461025457600080fd5b80630fb9398f116101535780630fb9398f146101c6578063336989ae146101f357806338e76a031461022157600080fd5b8063084874ce1461016f5780630b784d2d146101a4575b600080fd5b34801561017b57600080fd5b5061018f61018a366004611bd4565b6104a6565b60405190151581526020015b60405180910390f35b3480156101b057600080fd5b506101c46101bf366004611b0e565b6104da565b005b3480156101d257600080fd5b506101e66101e1366004611bd4565b61073b565b60405161019b9190611e08565b3480156101ff57600080fd5b5061021361020e366004611a9e565b6107aa565b60405161019b929190611dde565b6101c461022f366004611bd4565b610859565b34801561024057600080fd5b506101c461024f366004611c75565b610aaf565b34801561026057600080fd5b5061027461026f366004611bd4565b610de2565b60405161019b9190611f64565b34801561028d57600080fd5b506102a161029c366004611bd4565b610fdf565b60405161019b9190611e55565b3480156102ba57600080fd5b506102de6102c9366004611bd4565b6000908152600360205260409020600e015490565b60405190815260200161019b565b3480156102f857600080fd5b506101c4610307366004611bd4565b6111cf565b34801561031857600080fd5b5061032c610327366004611bd4565b611226565b60405161019b9d9c9b9a99989796959493929190611f77565b34801561035157600080fd5b506101c4610360366004611bed565b611431565b34801561037157600080fd5b5060025461018f9060ff1681565b34801561038b57600080fd5b506101c461039a366004611bd4565b611504565b3480156103ab57600080fd5b506102de60015481565b3480156103c157600080fd5b506103eb6103d0366004611bd4565b6005602052600090815260409020546001600160a01b031681565b6040516001600160a01b03909116815260200161019b565b34801561040f57600080fd5b5061042361041e366004611a9e565b611586565b60405161019b9190611f2c565b34801561043c57600080fd5b5061018f61044b366004611ac0565b6115f4565b34801561045c57600080fd5b506102de60005481565b34801561047257600080fd5b506101c4610481366004611bd4565b61174e565b34801561049257600080fd5b506102746104a1366004611bd4565b6117a1565b6000818152600360209081526040808320338452600d0190915281205460ff166104d257506000919050565b506001919050565b60008651116104e857600080fd5b60008551116104f657600080fd5b6000841161050357600080fd5b600083511161051157600080fd5b600082511161051f57600080fd5b6000805442918061052f83612196565b909155505060008054808252600360209081526040909220908155885161055e926001909201918a019061183b565b5060008054815260036020908152604090912087516105859260029092019189019061183b565b5060008054815260036020818152604080842090920188905582548352912085516105b89260049092019187019061183b565b5060008054815260066020908152604090912084516105d99286019061183b565b50600080548152600360205260408082206005908101805473ffffffffffffffffffffffffffffffffffffffff1916331790558254835291200180548391907fffffffffffffffffffffff00ffffffffffffffffffffffffffffffffffffffff16600160a01b83600a811115610651576106516121c7565b02179055506000805481526003602081815260408084206006018590558354845280842060080184905583548452808420600e0184905583548452808420338552600d018252808420805460ff1916905583548452828252808420600a018490558051848152808301808352855486529390925290922091516106d89260090191906118bf565b5060008054815260036020526040808220600f01829055905490517f1a3f2c9175d23760b6304c5f19e98b7b12dd25309a0a92996815dcf864cece099161072a918a908a908a908a908a903390612018565b60405180910390a150505050505050565b60008181526003602090815260409182902060090180548351818402810184019094528084526060939283018282801561079e57602002820191906000526020600020905b81546001600160a01b03168152600190910190602001808311610780575b50505050509050919050565b600460205260009081526040902080546001820180546001600160a01b0390921692916107d690612161565b80601f016020809104026020016040519081016040528092919081815260200182805461080290612161565b801561084f5780601f106108245761010080835404028352916020019161084f565b820191906000526020600020905b81548152906001019060200180831161083257829003601f168201915b5050505050905082565b6000818152600360205260409020600501546001600160a01b0316338114156108c95760405162461bcd60e51b815260206004820152601f60248201527f596f752063616e6e6f742062757920796f7572206f776e2070726f647563740060448201526064015b60405180910390fd5b600082815260036020526040902054158015906108f6575060008054838252600360205260409091205411155b6108ff57600080fd5b600082815260036020819052604090912001543410156109615760405162461bcd60e51b815260206004820152601260248201527f496e73756666696369656e74204574686572000000000000000000000000000060448201526064016108c0565b6001600160a01b03811633141561097757600080fd5b600082815260036020818152604080842033808652600c82018452918520805460ff1916600190811790915593835260098101805494850181558552918420909201805473ffffffffffffffffffffffffffffffffffffffff1916909217909155838252600a018054916109ea83612196565b90915550503360009081526004602090815260408083206002018054600181018255908452918320909101849055516001600160a01b038316913480156108fc02929091818181858888f19350505050158015610a4b573d6000803e3d6000fd5b5060008054838252600360208190526040928390209081015492517fa60391b5fc12a2bf84e95996952da9569290e72de60381dafc011bc0fbbd6af193610aa39392600181019260028201929160040190339061208f565b60405180910390a15050565b6000848152600360209081526040808320338452600c0190915290205460ff161515600114610b465760405162461bcd60e51b815260206004820152602b60248201527f596f7520617265206e6f7420656c696769626c6520746f20726576696577207460448201527f6869732070726f6475637400000000000000000000000000000000000000000060648201526084016108c0565b6000848152600360209081526040808320338452600c01909152902054610100900460ff16610ddc57600084815260036020908152604080832033808552600c9091018084528285208054620100009093027fffffffffffffffffffff000000000000000000000000000000000000000000ff909316929092176101001782556004845291909320915260019081018054919092019190610be690612161565b610bf1929190611921565b506000848152600360208181526040808420338552600c018252909220600281018690558351610c299391909201919084019061183b565b506000848152600360209081526040808320338452600c8101835290832060048101869055426005820155600b909101805460018082018355918552929093208154600690930201805460ff938416151560ff19821681178355835461010090819004909516151590940261ff001990941661ffff199091161792909217808355815462010000908190046001600160a01b0316027fffffffffffffffffffff0000000000000000000000000000000000000000ffff90911617825582810180549193830191610cf890612161565b610d03929190611921565b50600282015481600201556003820181600301908054610d2290612161565b610d2d929190611921565b50600482810154908201556005918201549101556000848152600360205260408120600801805491610d5e83612196565b9091555050600084815260036020526040812060080154610d819060019061214a565b600086815260036020526040902060070154610d9d919061212b565b9050610da984826120f1565b600086815260036020526040902060080154909150610dc89082612109565b600086815260036020526040902060070155505b50505050565b6000818152600360205260409020600501546060906001600160a01b0316331415610e9b5760008281526006602052604090208054610e2090612161565b80601f0160208091040260200160405190810160405280929190818152602001828054610e4c90612161565b801561079e5780601f10610e6e5761010080835404028352916020019161079e565b820191906000526020600020905b815481529060010190602001808311610e7c5750939695505050505050565b60008281526003602052604090206009015415610fc65760005b600083815260036020526040902060090154811015610fc0576000838152600360205260409020600901805433919083908110610ef457610ef46121dd565b6000918252602090912001546001600160a01b03161415610fae5760008381526006602052604090208054610f2890612161565b80601f0160208091040260200160405190810160405280929190818152602001828054610f5490612161565b8015610fa15780601f10610f7657610100808354040283529160200191610fa1565b820191906000526020600020905b815481529060010190602001808311610f8457829003601f168201915b5050505050915050919050565b80610fb881612196565b915050610eb5565b50919050565b505060408051602081019091526000815290565b919050565b606060036000838152602001908152602001600020600b01805480602002602001604051908101604052809291908181526020016000905b828210156111c457600084815260209081902060408051610100808201835260068702909301805460ff80821615158452948104909416151594820194909452620100009092046001600160a01b03169082015260018201805491929160608401919061108390612161565b80601f01602080910402602001604051908101604052809291908181526020018280546110af90612161565b80156110fc5780601f106110d1576101008083540402835291602001916110fc565b820191906000526020600020905b8154815290600101906020018083116110df57829003601f168201915b505050505081526020016002820154815260200160038201805461111f90612161565b80601f016020809104026020016040519081016040528092919081815260200182805461114b90612161565b80156111985780601f1061116d57610100808354040283529160200191611198565b820191906000526020600020905b81548152906001019060200180831161117b57829003601f168201915b505050505081526020016004820154815260200160058201548152505081526020019060010190611017565b505050509050919050565b6000818152600360205260409020600501546001600160a01b03163314801561120757506000818152600360205260409020600f0154155b156112235760008181526003602052604090206001600f909101555b50565b6003602052600090815260409020805460018201805491929161124890612161565b80601f016020809104026020016040519081016040528092919081815260200182805461127490612161565b80156112c15780601f10611296576101008083540402835291602001916112c1565b820191906000526020600020905b8154815290600101906020018083116112a457829003601f168201915b5050505050908060020180546112d690612161565b80601f016020809104026020016040519081016040528092919081815260200182805461130290612161565b801561134f5780601f106113245761010080835404028352916020019161134f565b820191906000526020600020905b81548152906001019060200180831161133257829003601f168201915b50505050509080600301549080600401805461136a90612161565b80601f016020809104026020016040519081016040528092919081815260200182805461139690612161565b80156113e35780601f106113b8576101008083540402835291602001916113e3565b820191906000526020600020905b8154815290600101906020018083116113c657829003601f168201915b505050506005830154600684015460078501546008860154600a870154600e880154600f9098015496976001600160a01b03861697600160a01b90960460ff1696509394929391929091908d565b6000858152600360205260409020600501546001600160a01b03163314156114fd57600085815260036020908152604090912085516114789260019092019187019061183b565b506000858152600360209081526040909120845161149e9260029092019186019061183b565b50600085815260036020819052604090912090810183905560050180548291907fffffffffffffffffffffff00ffffffffffffffffffffffffffffffffffffffff16600160a01b83600a8111156114f7576114f76121c7565b02179055505b5050505050565b61150d816104a6565b611223576000818152600360205260408120600e0180549161152e83612196565b90915550506000818152600360208181526040808420338552600d81018352908420805460ff1916600117905560075493859052919052600e0154106112235760009081526003602052604090206002600f90910155565b6001600160a01b03811660009081526004602090815260409182902060020180548351818402810184019094528084526060939283018282801561079e57602002820191906000526020600020905b8154815260200190600101908083116115d55750505050509050919050565b6000806040518060600160405280856001600160a01b03168152602001848152602001600067ffffffffffffffff811115611631576116316121f3565b60405190808252806020026020018201604052801561165a578160200160208202803683370190505b50905260018054919250600061166f83612196565b9091555050805160018054600090815260056020908152604080832080546001600160a01b0396871673ffffffffffffffffffffffffffffffffffffffff1991821617909155898616845260048352922085518154951694909216939093178155828401518051859492936116e99390850192019061183b565b506040820151805161170591600284019160209091019061199c565b50506040516001600160a01b03861681527f155e8619f4d23b96769599cb9af87da3e06a360082869c18578011da9a06e670915060200160405180910390a15060019392505050565b6000818152600360205260409020600501546001600160a01b03163314801561178857506000818152600360205260409020600f01546001145b15611223576000908152600360205260408120600f0155565b600660205260009081526040902080546117ba90612161565b80601f01602080910402602001604051908101604052809291908181526020018280546117e690612161565b80156118335780601f1061180857610100808354040283529160200191611833565b820191906000526020600020905b81548152906001019060200180831161181657829003601f168201915b505050505081565b82805461184790612161565b90600052602060002090601f01602090048101928261186957600085556118af565b82601f1061188257805160ff19168380011785556118af565b828001600101855582156118af579182015b828111156118af578251825591602001919060010190611894565b506118bb9291506119d6565b5090565b8280548282559060005260206000209081019282156118af579160200282015b828111156118af578251825473ffffffffffffffffffffffffffffffffffffffff19166001600160a01b039091161782556020909201916001909101906118df565b82805461192d90612161565b90600052602060002090601f01602090048101928261194f57600085556118af565b82601f1061196057805485556118af565b828001600101855582156118af57600052602060002091601f016020900482015b828111156118af578254825591600101919060010190611981565b8280548282559060005260206000209081019282156118af57916020028201828111156118af578251825591602001919060010190611894565b5b808211156118bb57600081556001016119d7565b80356001600160a01b0381168114610fda57600080fd5b8035600b8110610fda57600080fd5b600082601f830112611a2257600080fd5b813567ffffffffffffffff80821115611a3d57611a3d6121f3565b604051601f8301601f19908116603f01168101908282118183101715611a6557611a656121f3565b81604052838152866020858801011115611a7e57600080fd5b836020870160208301376000602085830101528094505050505092915050565b600060208284031215611ab057600080fd5b611ab9826119eb565b9392505050565b60008060408385031215611ad357600080fd5b611adc836119eb565b9150602083013567ffffffffffffffff811115611af857600080fd5b611b0485828601611a11565b9150509250929050565b60008060008060008060c08789031215611b2757600080fd5b863567ffffffffffffffff80821115611b3f57600080fd5b611b4b8a838b01611a11565b97506020890135915080821115611b6157600080fd5b611b6d8a838b01611a11565b9650604089013595506060890135915080821115611b8a57600080fd5b611b968a838b01611a11565b94506080890135915080821115611bac57600080fd5b50611bb989828a01611a11565b925050611bc860a08801611a02565b90509295509295509295565b600060208284031215611be657600080fd5b5035919050565b600080600080600060a08688031215611c0557600080fd5b85359450602086013567ffffffffffffffff80821115611c2457600080fd5b611c3089838a01611a11565b95506040880135915080821115611c4657600080fd5b50611c5388828901611a11565b93505060608601359150611c6960808701611a02565b90509295509295909350565b60008060008060808587031215611c8b57600080fd5b843593506020850135925060408501359150606085013567ffffffffffffffff811115611cb757600080fd5b611cc387828801611a11565b91505092959194509250565b600b8110611ced57634e487b7160e01b600052602160045260246000fd5b9052565b6000815180845260005b81811015611d1757602081850181015186830182015201611cfb565b81811115611d29576000602083870101525b50601f01601f19169290920160200192915050565b8054600090600181811c9080831680611d5857607f831692505b6020808410821415611d7a57634e487b7160e01b600052602260045260246000fd5b83885260208801828015611d955760018114611da657611dd1565b60ff19871682528282019750611dd1565b60008981526020902060005b87811015611dcb57815484820152908601908401611db2565b83019850505b5050505050505092915050565b6001600160a01b0383168152604060208201526000611e006040830184611cf1565b949350505050565b6020808252825182820181905260009190848201906040850190845b81811015611e495783516001600160a01b031683529284019291840191600101611e24565b50909695505050505050565b60006020808301818452808551808352604092508286019150828160051b87010184880160005b83811015611f1e57603f19898403018552815180511515845287810151151588850152868101516001600160a01b0316878501526060808201516101008287018190529190611ecd83880182611cf1565b92505050608080830151818701525060a08083015186830382880152611ef38382611cf1565b60c0858101519089015260e09485015194909701939093525050509386019390860190600101611e7c565b509098975050505050505050565b6020808252825182820181905260009190848201906040850190845b81811015611e4957835183529284019291840191600101611f48565b602081526000611ab96020830184611cf1565b8d81526101a060208201526000611f926101a083018f611cf1565b8281036040840152611fa4818f611cf1565b90508c60608401528281036080840152611fbe818d611cf1565b9150506001600160a01b038a1660a0830152611fdd60c083018a611ccf565b8760e083015286610100830152856101208301528461014083015283610160830152826101808301529e9d5050505050505050505050505050565b87815260e06020820152600061203160e0830189611cf1565b82810360408401526120438189611cf1565b9050866060840152828103608084015261205d8187611cf1565b905082810360a08401526120718186611cf1565b9150506001600160a01b03831660c083015298975050505050505050565b86815260c0602082015260006120a860c0830188611d3e565b82810360408401526120ba8188611d3e565b905085606084015282810360808401526120d48186611d3e565b9150506001600160a01b03831660a0830152979650505050505050565b60008219821115612104576121046121b1565b500190565b60008261212657634e487b7160e01b600052601260045260246000fd5b500490565b6000816000190483118215151615612145576121456121b1565b500290565b60008282101561215c5761215c6121b1565b500390565b600181811c9082168061217557607f821691505b60208210811415610fc057634e487b7160e01b600052602260045260246000fd5b60006000198214156121aa576121aa6121b1565b5060010190565b634e487b7160e01b600052601160045260246000fd5b634e487b7160e01b600052602160045260246000fd5b634e487b7160e01b600052603260045260246000fd5b634e487b7160e01b600052604160045260246000fdfea2646970667358221220fdf139a9ea5bf6cdba5f13fe7cd631d68504c2f631f62d29b6f2aa84168b1fe964736f6c63430008070033",
  "immutableReferences": {},
  "source": "//buyer w purchasedProduct\r\n//raters\r\n// SPDX-License-Identifier: MIT\r\npragma solidity  ^0.8.0;\r\n\r\ncontract Marketplace {\r\n    //string public name;\r\n    uint public productCount = 0;\r\n    uint public customerCount = 0;\r\n    //to store the products on blockchain\r\n    bool public flag = false;\r\n    mapping(uint => Product) public products;\r\n    //mapping(uint => uint[]) public productsRates;\r\n    //mapping(uint => string[]) public productsReviews;\r\n    //to store the customers on blockchain\r\n    mapping(address  => Customer) public customers;\r\n    mapping(uint => address) public addressLUT;\r\n    mapping(uint => string) public files;\r\n    uint256 MAXREPORT = 100;\r\n    \r\n    enum Categories {\r\n        Tech,\r\n        PCGames,\r\n        PS4Games,\r\n        XboxGames,\r\n        Movies,\r\n        Courses,\r\n        Books,\r\n        AudioBooks,\r\n        Images,\r\n        Videos,\r\n        Other\r\n    }\r\n    struct Review{\r\n        bool isBuy;\r\n        bool isReview;\r\n        address adr;\r\n        string name;\r\n        uint256 rate;\r\n        string reviewDescription;\r\n        uint256 score;\r\n        uint timeStamp;\r\n    }\r\n    struct Customer {\r\n        address adr;\r\n        string name;\r\n        uint256[] purchasedProducts;\r\n        \r\n    }\r\n\r\n    struct Product {\r\n        uint id;\r\n        string name;\r\n        string description;\r\n        uint price;\r\n        string imgipfshash;\r\n        address owner;\r\n        Categories categorie;\r\n        uint256 uploadedOn;\r\n        uint256 rate;\r\n        uint256 reviewsCount;\r\n        address[] buyers;\r\n        uint256 totalSold;\r\n        Review [] reviews;\r\n        mapping (address=>Review) productUserReview;\r\n        mapping (address => bool)hasReported;\r\n        uint report;\r\n        uint removed;\r\n    }\r\n\r\n    event ProductCreated(uint id, string name, string description, uint price, string imgipfshash, string fileipfshash, address owner);\r\n    event ProductPurchased(uint id, string name, string description, uint price, string imgipfshash, address owner);\r\n    event CustomerRegistered(address customer);\r\n    event CustomerRegistrationFailed(address customer);\r\n    event CartProductInserted(address customer, uint256 prodId, uint256 prodPrice, uint256 completeSum);\r\n    event CartProductInsertionFailed(address customer, uint256 prodId);\r\n    event CartProductRemoved(address customer, uint256 prodId);\r\n    event CartEmptied(address customer);\r\n\r\n    // Create a new product with a struct\r\n    // Add the struct to the mapping, and store it on the blockchain\r\n    // Trigger an event that lets someone know a product was creatd\r\n    function createProduct(string memory _name,string memory _description, uint _price,string memory _imgipfshash,string memory _fileipfshash , Categories _categorie ) public {\r\n        // Require a valid name\r\n        require(bytes(_name).length > 0);\r\n        // Require a valid description\r\n        require(bytes(_description).length > 0);\r\n        // Require a valid price\r\n        require(_price > 0);\r\n        // Require a valid image hash\r\n        require(bytes(_imgipfshash).length > 0);\r\n        // Require a valid file hash\r\n        require(bytes(_fileipfshash).length > 0);\r\n        // Increment product count\r\n        uint256 _uploadedOn = block.timestamp;\r\n        //increment number of products\r\n        productCount ++;\r\n        //add this Product to the products map\r\n        products[productCount].id = productCount;\r\n        products[productCount].name = _name;\r\n        products[productCount].description = _description;\r\n        products[productCount].price = _price;\r\n        products[productCount].imgipfshash = _imgipfshash;\r\n        files[productCount] = _fileipfshash;\r\n        products[productCount].owner = msg.sender;\r\n        products[productCount].categorie = _categorie;\r\n        products[productCount].uploadedOn = _uploadedOn;\r\n        products[productCount].reviewsCount = 0;\r\n        products[productCount].report = 0;\r\n        products[productCount].hasReported[msg.sender] = false;\r\n        products[productCount].totalSold = 0;\r\n        products[productCount].buyers = new address[](0);\r\n        products[productCount].removed = 0;\r\n        //add this product to the customer's owned product\r\n        //create an event\r\n        emit ProductCreated(productCount, _name, _description, _price, _imgipfshash,_fileipfshash, msg.sender);\r\n    }\r\n\r\n    function purchaseProduct(uint _id) public payable {\r\n        // Fetch the owner\r\n        address _seller = products[_id].owner;\r\n        require(products[_id].owner != msg.sender, \"You cannot buy your own product\");\r\n        // Make sure the product has a valid id\r\n        require(products[_id].id > 0 && products[_id].id <= productCount);\r\n        // Require that there is enough Ether in the transaction\r\n        require(msg.value >= products[_id].price, \"Insufficient Ether\");\r\n        // Require that the buyer is not the seller\r\n        require(_seller != msg.sender);\r\n        //add to products a user can revie\r\n        products[_id].productUserReview[msg.sender].isBuy = true;\r\n        //add this customer to the people who bought this product\r\n        products[_id].buyers.push(msg.sender);\r\n        //update total purchases\r\n        products[_id].totalSold++;\r\n        //add to the products owners\r\n        customers[msg.sender].purchasedProducts.push(_id);\r\n        // Pay the seller by sending them Ether\r\n        payable(_seller).transfer(msg.value);\r\n        // Trigger an event\r\n        emit ProductPurchased(productCount, products[_id].name,products[_id].description, products[_id].price, products[_id].imgipfshash, msg.sender);\r\n    }\r\n    function removeProduct(uint id1) public {\r\n        if(msg.sender == products[id1].owner && products[id1].removed == 0){\r\n            products[id1].removed = 1;\r\n        }\r\n    }\r\n    function restoreProduct(uint id1) public {\r\n        if(msg.sender == products[id1].owner && products[id1].removed == 1){\r\n            products[id1].removed = 0;\r\n        }\r\n    }\r\n    function editProduct(uint256 _id , string memory _name , string memory _des , uint _price , Categories _categorie) public{\r\n        if(msg.sender == products[_id].owner){\r\n            products[_id].name = _name;\r\n            products[_id].description = _des;\r\n            products[_id].price = _price;\r\n            products[_id].categorie = _categorie;\r\n            \r\n        }\r\n    }\r\n    function reviewProduct(uint _id,uint256 _rate,uint256 _score, string memory _review) public\r\n    {\r\n           require(products[_id].productUserReview[msg.sender].isBuy == true, \"You are not eligible to review this product\");\r\n           if (products[_id].productUserReview[msg.sender].isReview == false){ //only once\r\n               products[_id].productUserReview[msg.sender].isReview = true;\r\n\r\n               products[_id].productUserReview[msg.sender].adr = msg.sender;\r\n               products[_id].productUserReview[msg.sender].name = customers[msg.sender].name;\r\n               products[_id].productUserReview[msg.sender].rate = _rate;\r\n               products[_id].productUserReview[msg.sender].reviewDescription = _review;\r\n               products[_id].productUserReview[msg.sender].score = _score;\r\n               products[_id].productUserReview[msg.sender].timeStamp = block.timestamp;\r\n\r\n    \r\n               products[_id].reviews.push(products[_id].productUserReview[msg.sender]);\r\n    \r\n               products[_id].reviewsCount ++;\r\n               \r\n               //calculate and update product rate\r\n                uint avg = (products[_id].rate) * (products[_id].reviewsCount - 1);\r\n                avg += _rate;\r\n                products[_id].rate = avg / products[_id].reviewsCount;\r\n           }\r\n\r\n    }\r\n\r\n    function registerCustomer(address _address, string memory _name)\r\n                                        public returns (bool success) {\r\n        Customer memory customer = Customer(_address, _name,new uint256[](0));\r\n        customerCount++;\r\n        addressLUT[customerCount]=customer.adr;\r\n        customers[_address] = customer;\r\n        emit CustomerRegistered(_address);\r\n        return true;\r\n    }\r\n    function hasReported(uint _id) public view returns(bool){\r\n        if(products[_id].hasReported[msg.sender] == false)\r\n            return false;\r\n        return true;\r\n    } \r\n    function report(uint _id) public {\r\n        if(!hasReported(_id)){\r\n            products[_id].report++;\r\n            products[_id].hasReported[msg.sender] = true;\r\n            if(products[_id].report >= MAXREPORT){\r\n                products[_id].removed = 2;\r\n            }\r\n        }\r\n    }\r\n    function getReport(uint _id) public view returns(uint){\r\n        return products[_id].report;\r\n    }\r\n    function getProductReviews(uint _id) public view returns (Review[] memory){\r\n        return products[_id].reviews;\r\n    }\r\n    function getProductBuyers(uint _id) public view returns(address[] memory){\r\n        return products[_id].buyers;\r\n    }\r\n    function getProductfile(uint _id) public view returns(string memory){\r\n        if(products[_id].owner == msg.sender){\r\n            return files[_id];\r\n        }\r\n        else if(products[_id].buyers.length > 0)\r\n        for(uint i=0;i<products[_id].buyers.length;i++){\r\n            if(products[_id].buyers[i] == msg.sender)\r\n                return files[_id];\r\n        }\r\n        else\r\n        return \"\";\r\n    }\r\n    function getPurchasedProducts(address adr) public view returns( uint256[] memory){\r\n        return customers[adr].purchasedProducts;\r\n    }\r\n\r\n}",
  "sourcePath": "C:\\Users\\carol\\Desktop\\marketplace\\src\\contracts\\Marketplace.sol",
  "compiler": {
    "name": "solc",
    "version": "0.8.7+commit.e28d00a7.Emscripten.clang"
  },
  "schemaVersion": "3.4.2",
  "updatedAt": "2021-08-29T19:01:16.990Z",
  "devdoc": {
    "kind": "dev",
    "methods": {},
    "version": 1
  },
  "userdoc": {
    "kind": "user",
    "methods": {},
    "version": 1
  }
}