{
  "contractName": "Marketplace",
  "abi": [
    {
      "anonymous": false,
      "inputs": [
        {
          "indexed": false,
          "internalType": "uint256",
          "name": "id",
          "type": "uint256"
        },
        {
          "indexed": false,
          "internalType": "string",
          "name": "name",
          "type": "string"
        },
        {
          "indexed": false,
          "internalType": "string",
          "name": "description",
          "type": "string"
        },
        {
          "indexed": false,
          "internalType": "uint256",
          "name": "price",
          "type": "uint256"
        },
        {
          "indexed": false,
          "internalType": "string",
          "name": "imgipfshash",
          "type": "string"
        },
        {
          "indexed": false,
          "internalType": "string",
          "name": "fileipfshash",
          "type": "string"
        },
        {
          "indexed": false,
          "internalType": "address",
          "name": "owner",
          "type": "address"
        },
        {
          "indexed": false,
          "internalType": "bool",
          "name": "purchased",
          "type": "bool"
        }
      ],
      "name": "ProductCreated",
      "type": "event"
    },
    {
      "anonymous": false,
      "inputs": [
        {
          "indexed": false,
          "internalType": "uint256",
          "name": "id",
          "type": "uint256"
        },
        {
          "indexed": false,
          "internalType": "string",
          "name": "name",
          "type": "string"
        },
        {
          "indexed": false,
          "internalType": "string",
          "name": "description",
          "type": "string"
        },
        {
          "indexed": false,
          "internalType": "uint256",
          "name": "price",
          "type": "uint256"
        },
        {
          "indexed": false,
          "internalType": "string",
          "name": "imgipfshash",
          "type": "string"
        },
        {
          "indexed": false,
          "internalType": "string",
          "name": "fileipfshash",
          "type": "string"
        },
        {
          "indexed": false,
          "internalType": "address",
          "name": "owner",
          "type": "address"
        },
        {
          "indexed": false,
          "internalType": "bool",
          "name": "purchased",
          "type": "bool"
        }
      ],
      "name": "ProductPurchased",
      "type": "event"
    },
    {
      "inputs": [
        {
          "internalType": "uint256",
          "name": "",
          "type": "uint256"
        }
      ],
      "name": "emptySpaces",
      "outputs": [
        {
          "internalType": "uint256",
          "name": "",
          "type": "uint256"
        }
      ],
      "stateMutability": "view",
      "type": "function"
    },
    {
      "inputs": [],
      "name": "flag",
      "outputs": [
        {
          "internalType": "bool",
          "name": "",
          "type": "bool"
        }
      ],
      "stateMutability": "view",
      "type": "function"
    },
    {
      "inputs": [],
      "name": "len",
      "outputs": [
        {
          "internalType": "uint256",
          "name": "",
          "type": "uint256"
        }
      ],
      "stateMutability": "view",
      "type": "function"
    },
    {
      "inputs": [
        {
          "internalType": "address",
          "name": "",
          "type": "address"
        },
        {
          "internalType": "uint256",
          "name": "",
          "type": "uint256"
        }
      ],
      "name": "ownerToProducts",
      "outputs": [
        {
          "internalType": "uint256",
          "name": "id",
          "type": "uint256"
        },
        {
          "internalType": "string",
          "name": "name",
          "type": "string"
        },
        {
          "internalType": "string",
          "name": "description",
          "type": "string"
        },
        {
          "internalType": "uint256",
          "name": "price",
          "type": "uint256"
        },
        {
          "internalType": "string",
          "name": "imgipfshash",
          "type": "string"
        },
        {
          "internalType": "string",
          "name": "fileipfshash",
          "type": "string"
        },
        {
          "internalType": "address",
          "name": "owner",
          "type": "address"
        },
        {
          "internalType": "bool",
          "name": "purchased",
          "type": "bool"
        }
      ],
      "stateMutability": "view",
      "type": "function"
    },
    {
      "inputs": [],
      "name": "productCount",
      "outputs": [
        {
          "internalType": "uint256",
          "name": "",
          "type": "uint256"
        }
      ],
      "stateMutability": "view",
      "type": "function"
    },
    {
      "inputs": [
        {
          "internalType": "uint256",
          "name": "",
          "type": "uint256"
        }
      ],
      "name": "products",
      "outputs": [
        {
          "internalType": "uint256",
          "name": "id",
          "type": "uint256"
        },
        {
          "internalType": "string",
          "name": "name",
          "type": "string"
        },
        {
          "internalType": "string",
          "name": "description",
          "type": "string"
        },
        {
          "internalType": "uint256",
          "name": "price",
          "type": "uint256"
        },
        {
          "internalType": "string",
          "name": "imgipfshash",
          "type": "string"
        },
        {
          "internalType": "string",
          "name": "fileipfshash",
          "type": "string"
        },
        {
          "internalType": "address",
          "name": "owner",
          "type": "address"
        },
        {
          "internalType": "bool",
          "name": "purchased",
          "type": "bool"
        }
      ],
      "stateMutability": "view",
      "type": "function"
    },
    {
      "inputs": [
        {
          "internalType": "string",
          "name": "_name",
          "type": "string"
        },
        {
          "internalType": "string",
          "name": "_description",
          "type": "string"
        },
        {
          "internalType": "uint256",
          "name": "_price",
          "type": "uint256"
        },
        {
          "internalType": "string",
          "name": "_imgipfshash",
          "type": "string"
        },
        {
          "internalType": "string",
          "name": "_fileipfshash",
          "type": "string"
        }
      ],
      "name": "createProduct",
      "outputs": [],
      "stateMutability": "nonpayable",
      "type": "function"
    },
    {
      "inputs": [
        {
          "internalType": "uint256",
          "name": "id1",
          "type": "uint256"
        }
      ],
      "name": "removeProduct",
      "outputs": [],
      "stateMutability": "nonpayable",
      "type": "function"
    },
    {
      "inputs": [
        {
          "internalType": "uint256",
          "name": "id1",
          "type": "uint256"
        }
      ],
      "name": "removeNestedProduct",
      "outputs": [],
      "stateMutability": "nonpayable",
      "type": "function"
    },
    {
      "inputs": [
        {
          "internalType": "uint256",
          "name": "_id",
          "type": "uint256"
        }
      ],
      "name": "purchaseProduct",
      "outputs": [],
      "stateMutability": "payable",
      "type": "function"
    },
    {
      "inputs": [
        {
          "internalType": "address",
          "name": "_owner",
          "type": "address"
        }
      ],
      "name": "getProductCount",
      "outputs": [
        {
          "internalType": "uint256",
          "name": "",
          "type": "uint256"
        }
      ],
      "stateMutability": "view",
      "type": "function"
    },
    {
      "inputs": [
        {
          "internalType": "address",
          "name": "_owner",
          "type": "address"
        },
        {
          "internalType": "uint8",
          "name": "_index",
          "type": "uint8"
        }
      ],
      "name": "getProduct",
      "outputs": [
        {
          "internalType": "uint256",
          "name": "_id",
          "type": "uint256"
        },
        {
          "internalType": "string",
          "name": "_name",
          "type": "string"
        },
        {
          "internalType": "string",
          "name": "_description",
          "type": "string"
        },
        {
          "internalType": "uint256",
          "name": "_price",
          "type": "uint256"
        },
        {
          "internalType": "string",
          "name": "imgipfshash",
          "type": "string"
        },
        {
          "internalType": "string",
          "name": "fileipfshash",
          "type": "string"
        }
      ],
      "stateMutability": "view",
      "type": "function"
    }
  ],
  "bytecode": "0x6080604052600080556000600160006101000a81548160ff02191690831515021790555034801561002f57600080fd5b5061274e8061003f6000396000f3fe6080604052600436106100a75760003560e01c80637acc0b20116100645780637acc0b20146101da578063846c8dea1461021e578063890eba6814610247578063d17209d714610272578063e0f6ef871461029b578063e8b4194e146102c6576100a7565b806330ff5948146100ac57806338e76a03146100f057806350208eee1461010c57806356d88e27146101495780635ee95cae1461017457806377faa57c1461019d575b600080fd5b3480156100b857600080fd5b506100d360048036038101906100ce9190612039565b610308565b6040516100e79897969594939291906122ea565b60405180910390f35b61010a600480360381019061010591906121a4565b6105ba565b005b34801561011857600080fd5b50610133600480360381019061012e919061200c565b610ab3565b6040516101409190612252565b60405180910390f35b34801561015557600080fd5b5061015e610b38565b60405161016b9190612252565b60405180910390f35b34801561018057600080fd5b5061019b600480360381019061019691906121a4565b610b3e565b005b3480156101a957600080fd5b506101c460048036038101906101bf91906121a4565b610c14565b6040516101d19190612252565b60405180910390f35b3480156101e657600080fd5b5061020160048036038101906101fc91906121a4565b610c38565b6040516102159897969594939291906122ea565b60405180910390f35b34801561022a57600080fd5b50610245600480360381019061024091906121a4565b610ecd565b005b34801561025357600080fd5b5061025c611234565b6040516102699190612237565b60405180910390f35b34801561027e57600080fd5b50610299600480360381019061029491906120b9565b611247565b005b3480156102a757600080fd5b506102b0611a6c565b6040516102bd9190612252565b60405180910390f35b3480156102d257600080fd5b506102ed60048036038101906102e89190612079565b611a72565b6040516102ff9695949392919061226d565b60405180910390f35b6003602052816000526040600020818154811061032457600080fd5b90600052602060002090600702016000915091505080600001549080600101805461034e90612517565b80601f016020809104026020016040519081016040528092919081815260200182805461037a90612517565b80156103c75780601f1061039c576101008083540402835291602001916103c7565b820191906000526020600020905b8154815290600101906020018083116103aa57829003601f168201915b5050505050908060020180546103dc90612517565b80601f016020809104026020016040519081016040528092919081815260200182805461040890612517565b80156104555780601f1061042a57610100808354040283529160200191610455565b820191906000526020600020905b81548152906001019060200180831161043857829003601f168201915b50505050509080600301549080600401805461047090612517565b80601f016020809104026020016040519081016040528092919081815260200182805461049c90612517565b80156104e95780601f106104be576101008083540402835291602001916104e9565b820191906000526020600020905b8154815290600101906020018083116104cc57829003601f168201915b5050505050908060050180546104fe90612517565b80601f016020809104026020016040519081016040528092919081815260200182805461052a90612517565b80156105775780601f1061054c57610100808354040283529160200191610577565b820191906000526020600020905b81548152906001019060200180831161055a57829003601f168201915b5050505050908060060160009054906101000a900473ffffffffffffffffffffffffffffffffffffffff16908060060160149054906101000a900460ff16905088565b60006002600083815260200190815260200160002060405180610100016040529081600082015481526020016001820180546105f590612517565b80601f016020809104026020016040519081016040528092919081815260200182805461062190612517565b801561066e5780601f106106435761010080835404028352916020019161066e565b820191906000526020600020905b81548152906001019060200180831161065157829003601f168201915b5050505050815260200160028201805461068790612517565b80601f01602080910402602001604051908101604052809291908181526020018280546106b390612517565b80156107005780601f106106d557610100808354040283529160200191610700565b820191906000526020600020905b8154815290600101906020018083116106e357829003601f168201915b505050505081526020016003820154815260200160048201805461072390612517565b80601f016020809104026020016040519081016040528092919081815260200182805461074f90612517565b801561079c5780601f106107715761010080835404028352916020019161079c565b820191906000526020600020905b81548152906001019060200180831161077f57829003601f168201915b505050505081526020016005820180546107b590612517565b80601f01602080910402602001604051908101604052809291908181526020018280546107e190612517565b801561082e5780601f106108035761010080835404028352916020019161082e565b820191906000526020600020905b81548152906001019060200180831161081157829003601f168201915b505050505081526020016006820160009054906101000a900473ffffffffffffffffffffffffffffffffffffffff1673ffffffffffffffffffffffffffffffffffffffff1673ffffffffffffffffffffffffffffffffffffffff1681526020016006820160149054906101000a900460ff161515151581525050905060008160c001519050338260c0019073ffffffffffffffffffffffffffffffffffffffff16908173ffffffffffffffffffffffffffffffffffffffff168152505060018260e00190151590811515815250508160026000858152602001908152602001600020600082015181600001556020820151816001019080519060200190610936929190611ded565b506040820151816002019080519060200190610953929190611ded565b5060608201518160030155608082015181600401908051906020019061097a929190611ded565b5060a0820151816005019080519060200190610997929190611ded565b5060c08201518160060160006101000a81548173ffffffffffffffffffffffffffffffffffffffff021916908373ffffffffffffffffffffffffffffffffffffffff16021790555060e08201518160060160146101000a81548160ff0219169083151502179055509050508073ffffffffffffffffffffffffffffffffffffffff166108fc349081150290604051600060405180830381858888f19350505050158015610a48573d6000803e3d6000fd5b50610a5283610ecd565b7f5d3e174cea83fc7a15e7c910d86c8dceb0129bfdabceb14a6e43e0d4ccbfdb4a60005483602001518460400151856060015186608001518760a00151336001604051610aa69897969594939291906122ea565b60405180910390a1505050565b60008073ffffffffffffffffffffffffffffffffffffffff168273ffffffffffffffffffffffffffffffffffffffff161415610aee57600080fd5b600360008373ffffffffffffffffffffffffffffffffffffffff1673ffffffffffffffffffffffffffffffffffffffff168152602001908152602001600020805490509050919050565b60055481565b610b4781610ecd565b60026000828152602001908152602001600020600080820160009055600182016000610b739190611e73565b600282016000610b839190611e73565b6003820160009055600482016000610b9b9190611e73565b600582016000610bab9190611e73565b6006820160006101000a81549073ffffffffffffffffffffffffffffffffffffffff02191690556006820160146101000a81549060ff02191690555050600481908060018154018082558091505060019003906000526020600020016000909190919091505550565b60048181548110610c2457600080fd5b906000526020600020016000915090505481565b6002602052806000526040600020600091509050806000015490806001018054610c6190612517565b80601f0160208091040260200160405190810160405280929190818152602001828054610c8d90612517565b8015610cda5780601f10610caf57610100808354040283529160200191610cda565b820191906000526020600020905b815481529060010190602001808311610cbd57829003601f168201915b505050505090806002018054610cef90612517565b80601f0160208091040260200160405190810160405280929190818152602001828054610d1b90612517565b8015610d685780601f10610d3d57610100808354040283529160200191610d68565b820191906000526020600020905b815481529060010190602001808311610d4b57829003601f168201915b505050505090806003015490806004018054610d8390612517565b80601f0160208091040260200160405190810160405280929190818152602001828054610daf90612517565b8015610dfc5780601f10610dd157610100808354040283529160200191610dfc565b820191906000526020600020905b815481529060010190602001808311610ddf57829003601f168201915b505050505090806005018054610e1190612517565b80601f0160208091040260200160405190810160405280929190818152602001828054610e3d90612517565b8015610e8a5780601f10610e5f57610100808354040283529160200191610e8a565b820191906000526020600020905b815481529060010190602001808311610e6d57829003601f168201915b5050505050908060060160009054906101000a900473ffffffffffffffffffffffffffffffffffffffff16908060060160149054906101000a900460ff16905088565b6000600182610edc919061244c565b90505b6001600360003373ffffffffffffffffffffffffffffffffffffffff1673ffffffffffffffffffffffffffffffffffffffff16815260200190815260200160002080549050610f2e919061244c565b81101561113d57600360003373ffffffffffffffffffffffffffffffffffffffff1673ffffffffffffffffffffffffffffffffffffffff168152602001908152602001600020600182610f8191906123f6565b81548110610f9257610f91612650565b5b9060005260206000209060070201600360003373ffffffffffffffffffffffffffffffffffffffff1673ffffffffffffffffffffffffffffffffffffffff1681526020019081526020016000208281548110610ff157610ff0612650565b5b906000526020600020906007020160008201548160000155600182018160010190805461101d90612517565b611028929190611eb3565b50600282018160020190805461103d90612517565b611048929190611eb3565b5060038201548160030155600482018160040190805461106790612517565b611072929190611eb3565b50600582018160050190805461108790612517565b611092929190611eb3565b506006820160009054906101000a900473ffffffffffffffffffffffffffffffffffffffff168160060160006101000a81548173ffffffffffffffffffffffffffffffffffffffff021916908373ffffffffffffffffffffffffffffffffffffffff1602179055506006820160149054906101000a900460ff168160060160146101000a81548160ff02191690831515021790555090505080806111359061257a565b915050610edf565b50600360003373ffffffffffffffffffffffffffffffffffffffff1673ffffffffffffffffffffffffffffffffffffffff16815260200190815260200160002080548061118d5761118c612621565b5b60019003818190600052602060002090600702016000808201600090556001820160006111ba9190611e73565b6002820160006111ca9190611e73565b60038201600090556004820160006111e29190611e73565b6005820160006111f29190611e73565b6006820160006101000a81549073ffffffffffffffffffffffffffffffffffffffff02191690556006820160146101000a81549060ff02191690555050905550565b600160009054906101000a900460ff1681565b6000600480549050148061127a57506000600460008154811061126d5761126c612650565b5b9060005260206000200154145b156115ec576000808154809291906112919061257a565b919050555060405180610100016040528060005481526020018681526020018581526020018481526020018381526020018281526020013373ffffffffffffffffffffffffffffffffffffffff168152602001600015158152506002600080548152602001908152602001600020600082015181600001556020820151816001019080519060200190611325929190611ded565b506040820151816002019080519060200190611342929190611ded565b50606082015181600301556080820151816004019080519060200190611369929190611ded565b5060a0820151816005019080519060200190611386929190611ded565b5060c08201518160060160006101000a81548173ffffffffffffffffffffffffffffffffffffffff021916908373ffffffffffffffffffffffffffffffffffffffff16021790555060e08201518160060160146101000a81548160ff021916908315150217905550905050600360003373ffffffffffffffffffffffffffffffffffffffff1673ffffffffffffffffffffffffffffffffffffffff16815260200190815260200160002060405180610100016040528060005481526020018781526020018681526020018581526020018481526020018381526020013373ffffffffffffffffffffffffffffffffffffffff1681526020016000151581525090806001815401808255809150506001900390600052602060002090600702016000909190919091506000820151816000015560208201518160010190805190602001906114d4929190611ded565b5060408201518160020190805190602001906114f1929190611ded565b50606082015181600301556080820151816004019080519060200190611518929190611ded565b5060a0820151816005019080519060200190611535929190611ded565b5060c08201518160060160006101000a81548173ffffffffffffffffffffffffffffffffffffffff021916908373ffffffffffffffffffffffffffffffffffffffff16021790555060e08201518160060160146101000a81548160ff02191690831515021790555050507fbb45e05496e643a69bb522fd78ec743fcc4cecc08d892a6685a76f79e29e1eb460005486868686863360006040516115df9897969594939291906122ea565b60405180910390a1611a65565b60018060006101000a81548160ff0219169083151502179055506000600460008154811061161d5761161c612650565b5b90600052602060002001549050604051806101000160405280600460008154811061164b5761164a612650565b5b906000526020600020015481526020018781526020018681526020018581526020018481526020018381526020013373ffffffffffffffffffffffffffffffffffffffff168152602001600015158152506002600060046000815481106116b5576116b4612650565b5b906000526020600020015481526020019081526020016000206000820151816000015560208201518160010190805190602001906116f4929190611ded565b506040820151816002019080519060200190611711929190611ded565b50606082015181600301556080820151816004019080519060200190611738929190611ded565b5060a0820151816005019080519060200190611755929190611ded565b5060c08201518160060160006101000a81548173ffffffffffffffffffffffffffffffffffffffff021916908373ffffffffffffffffffffffffffffffffffffffff16021790555060e08201518160060160146101000a81548160ff02191690831515021790555090505060048054905060058190555060005b60016004805490506117e1919061244c565b8110156118485760046001826117f791906123f6565b8154811061180857611807612650565b5b90600052602060002001546004828154811061182757611826612650565b5b906000526020600020018190555080806118409061257a565b9150506117cf565b50600480548061185b5761185a612621565b5b60019003818190600052602060002001600090559055600360003373ffffffffffffffffffffffffffffffffffffffff1673ffffffffffffffffffffffffffffffffffffffff1681526020019081526020016000206040518061010001604052808381526020018881526020018781526020018681526020018581526020018481526020013373ffffffffffffffffffffffffffffffffffffffff168152602001600015158152509080600181540180825580915050600190039060005260206000209060070201600090919091909150600082015181600001556020820151816001019080519060200190611952929190611ded565b50604082015181600201908051906020019061196f929190611ded565b50606082015181600301556080820151816004019080519060200190611996929190611ded565b5060a08201518160050190805190602001906119b3929190611ded565b5060c08201518160060160006101000a81548173ffffffffffffffffffffffffffffffffffffffff021916908373ffffffffffffffffffffffffffffffffffffffff16021790555060e08201518160060160146101000a81548160ff02191690831515021790555050507fbb45e05496e643a69bb522fd78ec743fcc4cecc08d892a6685a76f79e29e1eb4818787878787336000604051611a5b9897969594939291906122ea565b60405180910390a1505b5050505050565b60005481565b60006060806000606080600073ffffffffffffffffffffffffffffffffffffffff168873ffffffffffffffffffffffffffffffffffffffff161415611ab657600080fd5b60008760ff1610158015611ace575060ff8760ff1611155b611ad757600080fd5b6000600360008a73ffffffffffffffffffffffffffffffffffffffff1673ffffffffffffffffffffffffffffffffffffffff1681526020019081526020016000208054905011611b2657600080fd5b6000600360008a73ffffffffffffffffffffffffffffffffffffffff1673ffffffffffffffffffffffffffffffffffffffff1681526020019081526020016000208860ff1681548110611b7c57611b7b612650565b5b906000526020600020906007020190508060000154816001018260020183600301548460040185600501848054611bb290612517565b80601f0160208091040260200160405190810160405280929190818152602001828054611bde90612517565b8015611c2b5780601f10611c0057610100808354040283529160200191611c2b565b820191906000526020600020905b815481529060010190602001808311611c0e57829003601f168201915b50505050509450838054611c3e90612517565b80601f0160208091040260200160405190810160405280929190818152602001828054611c6a90612517565b8015611cb75780601f10611c8c57610100808354040283529160200191611cb7565b820191906000526020600020905b815481529060010190602001808311611c9a57829003601f168201915b50505050509350818054611cca90612517565b80601f0160208091040260200160405190810160405280929190818152602001828054611cf690612517565b8015611d435780601f10611d1857610100808354040283529160200191611d43565b820191906000526020600020905b815481529060010190602001808311611d2657829003601f168201915b50505050509150808054611d5690612517565b80601f0160208091040260200160405190810160405280929190818152602001828054611d8290612517565b8015611dcf5780601f10611da457610100808354040283529160200191611dcf565b820191906000526020600020905b815481529060010190602001808311611db257829003601f168201915b50505050509050965096509650965096509650509295509295509295565b828054611df990612517565b90600052602060002090601f016020900481019282611e1b5760008555611e62565b82601f10611e3457805160ff1916838001178555611e62565b82800160010185558215611e62579182015b82811115611e61578251825591602001919060010190611e46565b5b509050611e6f9190611f40565b5090565b508054611e7f90612517565b6000825580601f10611e915750611eb0565b601f016020900490600052602060002090810190611eaf9190611f40565b5b50565b828054611ebf90612517565b90600052602060002090601f016020900481019282611ee15760008555611f2f565b82601f10611ef25780548555611f2f565b82800160010185558215611f2f57600052602060002091601f016020900482015b82811115611f2e578254825591600101919060010190611f13565b5b509050611f3c9190611f40565b5090565b5b80821115611f59576000816000905550600101611f41565b5090565b6000611f70611f6b846123a9565b612384565b905082815260208101848484011115611f8c57611f8b6126b3565b5b611f978482856124d5565b509392505050565b600081359050611fae816126d3565b92915050565b600082601f830112611fc957611fc86126ae565b5b8135611fd9848260208601611f5d565b91505092915050565b600081359050611ff1816126ea565b92915050565b60008135905061200681612701565b92915050565b600060208284031215612022576120216126bd565b5b600061203084828501611f9f565b91505092915050565b600080604083850312156120505761204f6126bd565b5b600061205e85828601611f9f565b925050602061206f85828601611fe2565b9150509250929050565b600080604083850312156120905761208f6126bd565b5b600061209e85828601611f9f565b92505060206120af85828601611ff7565b9150509250929050565b600080600080600060a086880312156120d5576120d46126bd565b5b600086013567ffffffffffffffff8111156120f3576120f26126b8565b5b6120ff88828901611fb4565b955050602086013567ffffffffffffffff8111156121205761211f6126b8565b5b61212c88828901611fb4565b945050604061213d88828901611fe2565b935050606086013567ffffffffffffffff81111561215e5761215d6126b8565b5b61216a88828901611fb4565b925050608086013567ffffffffffffffff81111561218b5761218a6126b8565b5b61219788828901611fb4565b9150509295509295909350565b6000602082840312156121ba576121b96126bd565b5b60006121c884828501611fe2565b91505092915050565b6121da81612480565b82525050565b6121e981612492565b82525050565b60006121fa826123da565b61220481856123e5565b93506122148185602086016124e4565b61221d816126c2565b840191505092915050565b612231816124be565b82525050565b600060208201905061224c60008301846121e0565b92915050565b60006020820190506122676000830184612228565b92915050565b600060c0820190506122826000830189612228565b818103602083015261229481886121ef565b905081810360408301526122a881876121ef565b90506122b76060830186612228565b81810360808301526122c981856121ef565b905081810360a08301526122dd81846121ef565b9050979650505050505050565b600061010082019050612300600083018b612228565b8181036020830152612312818a6121ef565b9050818103604083015261232681896121ef565b90506123356060830188612228565b818103608083015261234781876121ef565b905081810360a083015261235b81866121ef565b905061236a60c08301856121d1565b61237760e08301846121e0565b9998505050505050505050565b600061238e61239f565b905061239a8282612549565b919050565b6000604051905090565b600067ffffffffffffffff8211156123c4576123c361267f565b5b6123cd826126c2565b9050602081019050919050565b600081519050919050565b600082825260208201905092915050565b6000612401826124be565b915061240c836124be565b9250827fffffffffffffffffffffffffffffffffffffffffffffffffffffffffffffffff03821115612441576124406125c3565b5b828201905092915050565b6000612457826124be565b9150612462836124be565b925082821015612475576124746125c3565b5b828203905092915050565b600061248b8261249e565b9050919050565b60008115159050919050565b600073ffffffffffffffffffffffffffffffffffffffff82169050919050565b6000819050919050565b600060ff82169050919050565b82818337600083830152505050565b60005b838110156125025780820151818401526020810190506124e7565b83811115612511576000848401525b50505050565b6000600282049050600182168061252f57607f821691505b60208210811415612543576125426125f2565b5b50919050565b612552826126c2565b810181811067ffffffffffffffff821117156125715761257061267f565b5b80604052505050565b6000612585826124be565b91507fffffffffffffffffffffffffffffffffffffffffffffffffffffffffffffffff8214156125b8576125b76125c3565b5b600182019050919050565b7f4e487b7100000000000000000000000000000000000000000000000000000000600052601160045260246000fd5b7f4e487b7100000000000000000000000000000000000000000000000000000000600052602260045260246000fd5b7f4e487b7100000000000000000000000000000000000000000000000000000000600052603160045260246000fd5b7f4e487b7100000000000000000000000000000000000000000000000000000000600052603260045260246000fd5b7f4e487b7100000000000000000000000000000000000000000000000000000000600052604160045260246000fd5b600080fd5b600080fd5b600080fd5b600080fd5b6000601f19601f8301169050919050565b6126dc81612480565b81146126e757600080fd5b50565b6126f3816124be565b81146126fe57600080fd5b50565b61270a816124c8565b811461271557600080fd5b5056fea264697066735822122064b260dfafd7ddb7116d7c8b3440cb8ab2ad29fc91729f73325547c1443ccc0464736f6c63430008070033",
  "immutableReferences": {},
  "source": "// SPDX-License-Identifier: MIT\r\npragma solidity  ^0.8.0;\r\n\r\ncontract Marketplace {\r\n    //string public name;\r\n    uint public productCount = 0;\r\n    //to store the products on blockchain\r\n    bool public flag = false;\r\n    mapping(uint => Product) public products;\r\n    // Maps owner to their images\r\n    mapping (address => Product[]) public ownerToProducts;\r\n    uint[] public emptySpaces;\r\n    uint public len; \r\n\r\n    struct Product {\r\n        uint id;\r\n        string name;\r\n        string description;\r\n        uint price;\r\n        string imgipfshash;\r\n        string fileipfshash;\r\n        address owner;\r\n        bool purchased;\r\n    }\r\n\r\n    event ProductCreated(\r\n        uint id,\r\n        string name,\r\n        string description,\r\n        uint price,\r\n        string imgipfshash,\r\n        string fileipfshash,\r\n        address owner,\r\n        bool purchased\r\n    );\r\n\r\n    event ProductPurchased(\r\n    uint id,\r\n    string name,\r\n    string description,\r\n    uint price,\r\n    string imgipfshash,\r\n    string fileipfshash,\r\n    address owner,\r\n    bool purchased\r\n);\r\n\r\n    /*constructor() public {\r\n        name = \"Jazara Marketplace\";\r\n    }*/\r\n\r\n    // Create a new product with a struct\r\n    // Add the struct to the mapping, and store it on the blockchain\r\n    // Trigger an event that lets someone know a product was creatd\r\n    function createProduct(string memory _name,string memory _description, uint _price,string memory _imgipfshash,string memory _fileipfshash) public {\r\n        /*// Require a valid name\r\n        require(bytes(_name).length > 0);\r\n        // Require a valid description\r\n        require(bytes(_description).length > 0);\r\n        // Require a valid price\r\n        require(_price > 0);\r\n        // Require a valid image hash\r\n        require(bytes(_imgipfshash).length > 0);\r\n        // Require a valid file hash\r\n        require(bytes(_fileipfshash).length > 0);*/\r\n        // Increment product count\r\n        if(emptySpaces.length == 0 || emptySpaces[0]==0){\r\n            productCount ++;\r\n                products[productCount] = Product(productCount, _name , _description, _price , _imgipfshash , _fileipfshash ,msg.sender, false );\r\n        \r\n                ownerToProducts[msg.sender].push(Product({\r\n                id: productCount,\r\n                name: _name,\r\n                description: _description,\r\n                price: _price,\r\n                imgipfshash: _imgipfshash,\r\n                fileipfshash:_fileipfshash,\r\n                owner: msg.sender,\r\n                purchased: false\r\n            }));\r\n            emit ProductCreated(productCount, _name, _description, _price, _imgipfshash,_fileipfshash, msg.sender, false);\r\n        }\r\n        else{\r\n            flag = true;\r\n            uint tmp = emptySpaces[0];\r\n            products[emptySpaces[0]] = Product(emptySpaces[0], _name , _description ,_price , _imgipfshash ,_fileipfshash, msg.sender, false );\r\n            len = emptySpaces.length;\r\n            for(uint i = 0;i < emptySpaces.length - 1;i++){\r\n                emptySpaces[i] = emptySpaces[ i+1 ];\r\n            }\r\n            emptySpaces.pop();\r\n            ownerToProducts[msg.sender].push(Product({\r\n                id: tmp,\r\n                name: _name,\r\n                description: _description,\r\n                price: _price,\r\n                imgipfshash: _imgipfshash,\r\n                fileipfshash:_fileipfshash,\r\n                owner: msg.sender,\r\n                purchased: false\r\n                }));\r\n                emit ProductCreated(tmp, _name, _description, _price, _imgipfshash,_fileipfshash, msg.sender, false);\r\n        }\r\n        \r\n    }\r\n\r\n    function removeProduct(uint id1) public {\r\n        removeNestedProduct(id1);\r\n        delete products [id1];\r\n        emptySpaces.push(id1);\r\n    }\r\n    function removeNestedProduct(uint id1) public {\r\n        for(uint i=id1-1;i<ownerToProducts[msg.sender].length - 1;i++){\r\n            ownerToProducts[msg.sender][i] = ownerToProducts[msg.sender][ i+1 ];\r\n        }\r\n        ownerToProducts[msg.sender].pop();\r\n    }\r\n    function purchaseProduct(uint _id) public payable {\r\n        // Fetch the product\r\n        Product memory _product = products[_id];\r\n        // Fetch the owner\r\n        address _seller = _product.owner;\r\n        /*// Make sure the product has a valid id\r\n        require(_product.id > 0 && _product.id <= productCount);\r\n        // Require that there is enough Ether in the transaction\r\n        require(msg.value >= _product.price);\r\n        // Require that the product has not been purchased already\r\n        require(!_product.purchased);\r\n        // Require that the buyer is not the seller\r\n        require(_seller != msg.sender);\r\n        // Transfer ownership to the buyer*/\r\n        _product.owner = msg.sender;\r\n        // Mark as purchased\r\n        _product.purchased = true;\r\n        // Update the product\r\n        products[_id] = _product;\r\n        // Pay the seller by sending them Ether\r\n        payable(_seller).transfer(msg.value);\r\n        removeNestedProduct(_id);\r\n        // Trigger an event\r\n        emit ProductPurchased(productCount, _product.name,_product.description, _product.price, _product.imgipfshash, _product.fileipfshash, msg.sender, true);\r\n    }\r\n\r\n    /** \r\n    * @notice Returns the number of products associated with the given address\r\n    * @dev Controlled by circuit breaker\r\n    * @param _owner The owner address\r\n    * @return The number of products associated with a given address\r\n    */\r\n    function getProductCount(address _owner) view\r\n        public\r\n        returns (uint256) \r\n    {\r\n        require(_owner != address(0));\r\n        return ownerToProducts[_owner].length;\r\n    }\r\n\r\n    function getProduct(address _owner, uint8 _index) view\r\n        public returns (\r\n        uint _id, \r\n        string memory _name, \r\n        string memory _description,\r\n        uint _price,\r\n        string memory imgipfshash,\r\n        string memory fileipfshash\r\n    ) {\r\n\r\n        require(_owner != address(0));\r\n        require(_index >= 0 && _index <= 2**8 - 1);\r\n        require(ownerToProducts[_owner].length > 0);\r\n\r\n        Product storage product = ownerToProducts[_owner][_index];\r\n        \r\n        return (\r\n            product.id, \r\n            product.name,\r\n            product.description,\r\n            product.price,\r\n            product.imgipfshash,\r\n            product.fileipfshash\r\n        );\r\n    }\r\n\r\n}",
  "sourcePath": "C:\\Users\\carol\\Desktop\\marketplace\\src\\contracts\\Marketplace.sol",
  "compiler": {
    "name": "solc",
    "version": "0.8.7+commit.e28d00a7.Emscripten.clang"
  },
  "schemaVersion": "3.4.2",
  "updatedAt": "2021-08-11T23:30:06.678Z",
  "devdoc": {
    "kind": "dev",
    "methods": {
      "getProductCount(address)": {
        "details": "Controlled by circuit breaker",
        "params": {
          "_owner": "The owner address"
        },
        "returns": {
          "_0": "The number of products associated with a given address"
        }
      }
    },
    "version": 1
  },
  "userdoc": {
    "kind": "user",
    "methods": {
      "getProductCount(address)": {
        "notice": "Returns the number of products associated with the given address"
      }
    },
    "version": 1
  }
}