{
  "contractName": "Marketplace",
  "abi": [
    {
      "anonymous": false,
      "inputs": [
        {
          "indexed": false,
          "internalType": "address",
          "name": "customer",
          "type": "address"
        }
      ],
      "name": "CartEmptied",
      "type": "event"
    },
    {
      "anonymous": false,
      "inputs": [
        {
          "indexed": false,
          "internalType": "address",
          "name": "customer",
          "type": "address"
        },
        {
          "indexed": false,
          "internalType": "uint256",
          "name": "prodId",
          "type": "uint256"
        },
        {
          "indexed": false,
          "internalType": "uint256",
          "name": "prodPrice",
          "type": "uint256"
        },
        {
          "indexed": false,
          "internalType": "uint256",
          "name": "completeSum",
          "type": "uint256"
        }
      ],
      "name": "CartProductInserted",
      "type": "event"
    },
    {
      "anonymous": false,
      "inputs": [
        {
          "indexed": false,
          "internalType": "address",
          "name": "customer",
          "type": "address"
        },
        {
          "indexed": false,
          "internalType": "uint256",
          "name": "prodId",
          "type": "uint256"
        }
      ],
      "name": "CartProductInsertionFailed",
      "type": "event"
    },
    {
      "anonymous": false,
      "inputs": [
        {
          "indexed": false,
          "internalType": "address",
          "name": "customer",
          "type": "address"
        },
        {
          "indexed": false,
          "internalType": "uint256",
          "name": "prodId",
          "type": "uint256"
        }
      ],
      "name": "CartProductRemoved",
      "type": "event"
    },
    {
      "anonymous": false,
      "inputs": [
        {
          "indexed": false,
          "internalType": "address",
          "name": "customer",
          "type": "address"
        }
      ],
      "name": "CustomerRegistered",
      "type": "event"
    },
    {
      "anonymous": false,
      "inputs": [
        {
          "indexed": false,
          "internalType": "address",
          "name": "customer",
          "type": "address"
        }
      ],
      "name": "CustomerRegistrationFailed",
      "type": "event"
    },
    {
      "anonymous": false,
      "inputs": [
        {
          "indexed": false,
          "internalType": "uint256",
          "name": "id",
          "type": "uint256"
        },
        {
          "indexed": false,
          "internalType": "string",
          "name": "name",
          "type": "string"
        },
        {
          "indexed": false,
          "internalType": "string",
          "name": "description",
          "type": "string"
        },
        {
          "indexed": false,
          "internalType": "uint256",
          "name": "price",
          "type": "uint256"
        },
        {
          "indexed": false,
          "internalType": "string",
          "name": "imgipfshash",
          "type": "string"
        },
        {
          "indexed": false,
          "internalType": "string",
          "name": "fileipfshash",
          "type": "string"
        },
        {
          "indexed": false,
          "internalType": "address",
          "name": "owner",
          "type": "address"
        },
        {
          "indexed": false,
          "internalType": "bool",
          "name": "purchased",
          "type": "bool"
        }
      ],
      "name": "ProductCreated",
      "type": "event"
    },
    {
      "anonymous": false,
      "inputs": [
        {
          "indexed": false,
          "internalType": "uint256",
          "name": "id",
          "type": "uint256"
        },
        {
          "indexed": false,
          "internalType": "string",
          "name": "name",
          "type": "string"
        },
        {
          "indexed": false,
          "internalType": "string",
          "name": "description",
          "type": "string"
        },
        {
          "indexed": false,
          "internalType": "uint256",
          "name": "price",
          "type": "uint256"
        },
        {
          "indexed": false,
          "internalType": "string",
          "name": "imgipfshash",
          "type": "string"
        },
        {
          "indexed": false,
          "internalType": "string",
          "name": "fileipfshash",
          "type": "string"
        },
        {
          "indexed": false,
          "internalType": "address",
          "name": "owner",
          "type": "address"
        },
        {
          "indexed": false,
          "internalType": "bool",
          "name": "purchased",
          "type": "bool"
        }
      ],
      "name": "ProductPurchased",
      "type": "event"
    },
    {
      "inputs": [
        {
          "internalType": "address",
          "name": "",
          "type": "address"
        }
      ],
      "name": "customers",
      "outputs": [
        {
          "internalType": "uint256",
          "name": "id",
          "type": "uint256"
        },
        {
          "internalType": "address",
          "name": "adr",
          "type": "address"
        },
        {
          "internalType": "bytes32",
          "name": "name",
          "type": "bytes32"
        },
        {
          "internalType": "uint256",
          "name": "balance",
          "type": "uint256"
        },
        {
          "components": [
            {
              "internalType": "uint256[]",
              "name": "products",
              "type": "uint256[]"
            },
            {
              "internalType": "uint256",
              "name": "completeSum",
              "type": "uint256"
            }
          ],
          "internalType": "struct Marketplace.Cart",
          "name": "cart",
          "type": "tuple"
        }
      ],
      "stateMutability": "view",
      "type": "function",
      "constant": true
    },
    {
      "inputs": [
        {
          "internalType": "uint256",
          "name": "",
          "type": "uint256"
        }
      ],
      "name": "emptySpaces",
      "outputs": [
        {
          "internalType": "uint256",
          "name": "",
          "type": "uint256"
        }
      ],
      "stateMutability": "view",
      "type": "function",
      "constant": true
    },
    {
      "inputs": [],
      "name": "flag",
      "outputs": [
        {
          "internalType": "bool",
          "name": "",
          "type": "bool"
        }
      ],
      "stateMutability": "view",
      "type": "function",
      "constant": true
    },
    {
      "inputs": [],
      "name": "ftt",
      "outputs": [
        {
          "internalType": "uint256",
          "name": "",
          "type": "uint256"
        }
      ],
      "stateMutability": "view",
      "type": "function",
      "constant": true
    },
    {
      "inputs": [],
      "name": "len",
      "outputs": [
        {
          "internalType": "uint256",
          "name": "",
          "type": "uint256"
        }
      ],
      "stateMutability": "view",
      "type": "function",
      "constant": true
    },
    {
      "inputs": [
        {
          "internalType": "address",
          "name": "",
          "type": "address"
        },
        {
          "internalType": "uint256",
          "name": "",
          "type": "uint256"
        }
      ],
      "name": "ownerToProducts",
      "outputs": [
        {
          "internalType": "uint256",
          "name": "id",
          "type": "uint256"
        },
        {
          "internalType": "string",
          "name": "name",
          "type": "string"
        },
        {
          "internalType": "string",
          "name": "description",
          "type": "string"
        },
        {
          "internalType": "uint256",
          "name": "price",
          "type": "uint256"
        },
        {
          "internalType": "string",
          "name": "imgipfshash",
          "type": "string"
        },
        {
          "internalType": "string",
          "name": "fileipfshash",
          "type": "string"
        },
        {
          "internalType": "address",
          "name": "owner",
          "type": "address"
        },
        {
          "internalType": "bool",
          "name": "purchased",
          "type": "bool"
        }
      ],
      "stateMutability": "view",
      "type": "function",
      "constant": true
    },
    {
      "inputs": [],
      "name": "productCount",
      "outputs": [
        {
          "internalType": "uint256",
          "name": "",
          "type": "uint256"
        }
      ],
      "stateMutability": "view",
      "type": "function",
      "constant": true
    },
    {
      "inputs": [
        {
          "internalType": "uint256",
          "name": "",
          "type": "uint256"
        }
      ],
      "name": "products",
      "outputs": [
        {
          "internalType": "uint256",
          "name": "id",
          "type": "uint256"
        },
        {
          "internalType": "string",
          "name": "name",
          "type": "string"
        },
        {
          "internalType": "string",
          "name": "description",
          "type": "string"
        },
        {
          "internalType": "uint256",
          "name": "price",
          "type": "uint256"
        },
        {
          "internalType": "string",
          "name": "imgipfshash",
          "type": "string"
        },
        {
          "internalType": "string",
          "name": "fileipfshash",
          "type": "string"
        },
        {
          "internalType": "address",
          "name": "owner",
          "type": "address"
        },
        {
          "internalType": "bool",
          "name": "purchased",
          "type": "bool"
        }
      ],
      "stateMutability": "view",
      "type": "function",
      "constant": true
    },
    {
      "inputs": [
        {
          "internalType": "string",
          "name": "_name",
          "type": "string"
        },
        {
          "internalType": "string",
          "name": "_description",
          "type": "string"
        },
        {
          "internalType": "uint256",
          "name": "_price",
          "type": "uint256"
        },
        {
          "internalType": "string",
          "name": "_imgipfshash",
          "type": "string"
        },
        {
          "internalType": "string",
          "name": "_fileipfshash",
          "type": "string"
        }
      ],
      "name": "createProduct",
      "outputs": [],
      "stateMutability": "nonpayable",
      "type": "function"
    },
    {
      "inputs": [
        {
          "internalType": "uint256",
          "name": "id1",
          "type": "uint256"
        }
      ],
      "name": "removeProduct",
      "outputs": [],
      "stateMutability": "nonpayable",
      "type": "function"
    },
    {
      "inputs": [
        {
          "internalType": "uint256",
          "name": "id1",
          "type": "uint256"
        }
      ],
      "name": "removeNestedProduct",
      "outputs": [],
      "stateMutability": "nonpayable",
      "type": "function"
    },
    {
      "inputs": [
        {
          "internalType": "uint256",
          "name": "_id",
          "type": "uint256"
        }
      ],
      "name": "purchaseProduct",
      "outputs": [],
      "stateMutability": "payable",
      "type": "function",
      "payable": true
    },
    {
      "inputs": [
        {
          "internalType": "uint256",
          "name": "id",
          "type": "uint256"
        }
      ],
      "name": "insertProductIntoCart",
      "outputs": [
        {
          "internalType": "bool",
          "name": "success",
          "type": "bool"
        },
        {
          "internalType": "uint256",
          "name": "pos_in_prod_mapping",
          "type": "uint256"
        }
      ],
      "stateMutability": "nonpayable",
      "type": "function"
    },
    {
      "inputs": [
        {
          "internalType": "uint256",
          "name": "prod_pos_in_mapping",
          "type": "uint256"
        }
      ],
      "name": "removeProductFromCart",
      "outputs": [],
      "stateMutability": "nonpayable",
      "type": "function"
    },
    {
      "inputs": [],
      "name": "emptyCart",
      "outputs": [
        {
          "internalType": "bool",
          "name": "success",
          "type": "bool"
        }
      ],
      "stateMutability": "nonpayable",
      "type": "function"
    },
    {
      "inputs": [
        {
          "internalType": "address",
          "name": "_owner",
          "type": "address"
        }
      ],
      "name": "getProductCount",
      "outputs": [
        {
          "internalType": "uint256",
          "name": "",
          "type": "uint256"
        }
      ],
      "stateMutability": "view",
      "type": "function",
      "constant": true
    },
    {
      "inputs": [
        {
          "internalType": "address",
          "name": "_owner",
          "type": "address"
        },
        {
          "internalType": "uint8",
          "name": "_index",
          "type": "uint8"
        }
      ],
      "name": "getProduct",
      "outputs": [
        {
          "internalType": "uint256",
          "name": "_id",
          "type": "uint256"
        },
        {
          "internalType": "string",
          "name": "_name",
          "type": "string"
        },
        {
          "internalType": "string",
          "name": "_description",
          "type": "string"
        },
        {
          "internalType": "uint256",
          "name": "_price",
          "type": "uint256"
        },
        {
          "internalType": "string",
          "name": "imgipfshash",
          "type": "string"
        },
        {
          "internalType": "string",
          "name": "fileipfshash",
          "type": "string"
        }
      ],
      "stateMutability": "view",
      "type": "function",
      "constant": true
    }
  ],
  "bytecode": "0x6080604052600080556000600160006101000a81548160ff021916908315150217905550600060075534801561003457600080fd5b50613afe806100446000396000f3fe6080604052600436106100fe5760003560e01c80637acc0b2011610095578063a0c8c15611610064578063a0c8c15614610371578063ce9f791d1461039c578063d17209d7146103c7578063e0f6ef87146103f0578063e8b4194e1461041b576100fe565b80637acc0b201461029b5780637e6b867f146102df578063846c8dea1461031d578063890eba6814610346576100fe565b806356d88e27116100d157806356d88e27146101e15780635ee95cae1461020c5780636ebdac121461023557806377faa57c1461025e576100fe565b806330ff594814610103578063336989ae1461014757806338e76a031461018857806350208eee146101a4575b600080fd5b34801561010f57600080fd5b5061012a600480360381019061012591906131c9565b61045d565b60405161013e989796959493929190613657565b60405180910390f35b34801561015357600080fd5b5061016e6004803603810190610169919061319c565b61070f565b60405161017f959493929190613580565b60405180910390f35b6101a2600480360381019061019d9190613334565b6107d1565b005b3480156101b057600080fd5b506101cb60048036038101906101c6919061319c565b610d76565b6040516101d89190613565565b60405180910390f35b3480156101ed57600080fd5b506101f6610dfb565b6040516102039190613565565b60405180910390f35b34801561021857600080fd5b50610233600480360381019061022e9190613334565b610e01565b005b34801561024157600080fd5b5061025c60048036038101906102579190613334565b610ee7565b005b34801561026a57600080fd5b5061028560048036038101906102809190613334565b6111c5565b6040516102929190613565565b60405180910390f35b3480156102a757600080fd5b506102c260048036038101906102bd9190613334565b6111e9565b6040516102d6989796959493929190613657565b60405180910390f35b3480156102eb57600080fd5b5061030660048036038101906103019190613334565b61147e565b60405161031492919061353c565b60405180910390f35b34801561032957600080fd5b50610344600480360381019061033f9190613334565b611973565b005b34801561035257600080fd5b5061035b611f8b565b6040516103689190613521565b60405180910390f35b34801561037d57600080fd5b50610386611f9e565b6040516103939190613521565b60405180910390f35b3480156103a857600080fd5b506103b16120d2565b6040516103be9190613565565b60405180910390f35b3480156103d357600080fd5b506103ee60048036038101906103e99190613249565b6120d8565b005b3480156103fc57600080fd5b50610405612ab2565b6040516104129190613565565b60405180910390f35b34801561042757600080fd5b50610442600480360381019061043d9190613209565b612ab8565b604051610454969594939291906135da565b60405180910390f35b6004602052816000526040600020818154811061047957600080fd5b9060005260206000209060080201600091509150508060000154908060010180546104a3906138c7565b80601f01602080910402602001604051908101604052809291908181526020018280546104cf906138c7565b801561051c5780601f106104f15761010080835404028352916020019161051c565b820191906000526020600020905b8154815290600101906020018083116104ff57829003601f168201915b505050505090806002018054610531906138c7565b80601f016020809104026020016040519081016040528092919081815260200182805461055d906138c7565b80156105aa5780601f1061057f576101008083540402835291602001916105aa565b820191906000526020600020905b81548152906001019060200180831161058d57829003601f168201915b5050505050908060030154908060040180546105c5906138c7565b80601f01602080910402602001604051908101604052809291908181526020018280546105f1906138c7565b801561063e5780601f106106135761010080835404028352916020019161063e565b820191906000526020600020905b81548152906001019060200180831161062157829003601f168201915b505050505090806005018054610653906138c7565b80601f016020809104026020016040519081016040528092919081815260200182805461067f906138c7565b80156106cc5780601f106106a1576101008083540402835291602001916106cc565b820191906000526020600020905b8154815290600101906020018083116106af57829003601f168201915b5050505050908060060160009054906101000a900473ffffffffffffffffffffffffffffffffffffffff16908060060160149054906101000a900460ff16905088565b60036020528060005260406000206000915090508060000154908060010160009054906101000a900473ffffffffffffffffffffffffffffffffffffffff169080600201549080600301549080600401604051806040016040529081600082018054806020026020016040519081016040528092919081815260200182805480156107b957602002820191906000526020600020905b8154815260200190600101908083116107a5575b50505050508152602001600182015481525050905085565b600060026000838152602001908152602001600020604051806101200160405290816000820154815260200160018201805461080c906138c7565b80601f0160208091040260200160405190810160405280929190818152602001828054610838906138c7565b80156108855780601f1061085a57610100808354040283529160200191610885565b820191906000526020600020905b81548152906001019060200180831161086857829003601f168201915b5050505050815260200160028201805461089e906138c7565b80601f01602080910402602001604051908101604052809291908181526020018280546108ca906138c7565b80156109175780601f106108ec57610100808354040283529160200191610917565b820191906000526020600020905b8154815290600101906020018083116108fa57829003601f168201915b505050505081526020016003820154815260200160048201805461093a906138c7565b80601f0160208091040260200160405190810160405280929190818152602001828054610966906138c7565b80156109b35780601f10610988576101008083540402835291602001916109b3565b820191906000526020600020905b81548152906001019060200180831161099657829003601f168201915b505050505081526020016005820180546109cc906138c7565b80601f01602080910402602001604051908101604052809291908181526020018280546109f8906138c7565b8015610a455780601f10610a1a57610100808354040283529160200191610a45565b820191906000526020600020905b815481529060010190602001808311610a2857829003601f168201915b505050505081526020016006820160009054906101000a900473ffffffffffffffffffffffffffffffffffffffff1673ffffffffffffffffffffffffffffffffffffffff1673ffffffffffffffffffffffffffffffffffffffff1681526020016006820160149054906101000a900460ff1615151515815260200160078201805480602002602001604051908101604052809291908181526020018280548015610b4457602002820191906000526020600020905b8160009054906101000a900473ffffffffffffffffffffffffffffffffffffffff1673ffffffffffffffffffffffffffffffffffffffff1681526020019060010190808311610afa575b505050505081525050905060008160c001519050338260c0019073ffffffffffffffffffffffffffffffffffffffff16908173ffffffffffffffffffffffffffffffffffffffff168152505060018260e00190151590811515815250508160026000858152602001908152602001600020600082015181600001556020820151816001019080519060200190610bdb929190612e33565b506040820151816002019080519060200190610bf8929190612e33565b50606082015181600301556080820151816004019080519060200190610c1f929190612e33565b5060a0820151816005019080519060200190610c3c929190612e33565b5060c08201518160060160006101000a81548173ffffffffffffffffffffffffffffffffffffffff021916908373ffffffffffffffffffffffffffffffffffffffff16021790555060e08201518160060160146101000a81548160ff021916908315150217905550610100820151816007019080519060200190610cc1929190612eb9565b509050508073ffffffffffffffffffffffffffffffffffffffff166108fc349081150290604051600060405180830381858888f19350505050158015610d0b573d6000803e3d6000fd5b50610d1583611973565b7f5d3e174cea83fc7a15e7c910d86c8dceb0129bfdabceb14a6e43e0d4ccbfdb4a60005483602001518460400151856060015186608001518760a00151336001604051610d69989796959493929190613657565b60405180910390a1505050565b60008073ffffffffffffffffffffffffffffffffffffffff168273ffffffffffffffffffffffffffffffffffffffff161415610db157600080fd5b600460008373ffffffffffffffffffffffffffffffffffffffff1673ffffffffffffffffffffffffffffffffffffffff168152602001908152602001600020805490509050919050565b60065481565b610e0a81611973565b60026000828152602001908152602001600020600080820160009055600182016000610e369190612f43565b600282016000610e469190612f43565b6003820160009055600482016000610e5e9190612f43565b600582016000610e6e9190612f43565b6006820160006101000a81549073ffffffffffffffffffffffffffffffffffffffff02191690556006820160146101000a81549060ff0219169055600782016000610eb99190612f83565b5050600581908060018154018082558091505060019003906000526020600020016000909190919091505550565b60006001600360003373ffffffffffffffffffffffffffffffffffffffff1673ffffffffffffffffffffffffffffffffffffffff16815260200190815260200160002060040160000180549050610f3e91906137f2565b67ffffffffffffffff811115610f5757610f56613a2f565b5b604051908082528060200260200182016040528015610f855781602001602082028036833780820191505090505b5090506000600360003373ffffffffffffffffffffffffffffffffffffffff1673ffffffffffffffffffffffffffffffffffffffff16815260200190815260200160002060040160000180548060200260200160405190810160405280929190818152602001828054801561101957602002820191906000526020600020905b815481526020019060010190808311611005575b5050505050905060005b8151811015611165578381146110725781818151811061104657611045613a00565b5b602002602001015183828151811061106157611060613a00565b5b602002602001018181525050611152565b6002600083838151811061108957611088613a00565b5b6020026020010151815260200190815260200160002060030154600360003373ffffffffffffffffffffffffffffffffffffffff1673ffffffffffffffffffffffffffffffffffffffff16815260200190815260200160002060040160010160008282546110f791906137f2565b925050819055507fa623e239783d1923197e89ebc14226d544e0c6a48928ebfd977de627b61766bf3383838151811061113357611132613a00565b5b60200260200101516040516111499291906134b3565b60405180910390a15b808061115d9061392a565b915050611023565b5081600360003373ffffffffffffffffffffffffffffffffffffffff1673ffffffffffffffffffffffffffffffffffffffff16815260200190815260200160002060040160000190805190602001906111bf929190612fa4565b50505050565b600581815481106111d557600080fd5b906000526020600020016000915090505481565b6002602052806000526040600020600091509050806000015490806001018054611212906138c7565b80601f016020809104026020016040519081016040528092919081815260200182805461123e906138c7565b801561128b5780601f106112605761010080835404028352916020019161128b565b820191906000526020600020905b81548152906001019060200180831161126e57829003601f168201915b5050505050908060020180546112a0906138c7565b80601f01602080910402602001604051908101604052809291908181526020018280546112cc906138c7565b80156113195780601f106112ee57610100808354040283529160200191611319565b820191906000526020600020905b8154815290600101906020018083116112fc57829003601f168201915b505050505090806003015490806004018054611334906138c7565b80601f0160208091040260200160405190810160405280929190818152602001828054611360906138c7565b80156113ad5780601f10611382576101008083540402835291602001916113ad565b820191906000526020600020905b81548152906001019060200180831161139057829003601f168201915b5050505050908060050180546113c2906138c7565b80601f01602080910402602001604051908101604052809291908181526020018280546113ee906138c7565b801561143b5780601f106114105761010080835404028352916020019161143b565b820191906000526020600020905b81548152906001019060200180831161141e57829003601f168201915b5050505050908060060160009054906101000a900473ffffffffffffffffffffffffffffffffffffffff16908060060160149054906101000a900460ff16905088565b6000806000600360003373ffffffffffffffffffffffffffffffffffffffff1673ffffffffffffffffffffffffffffffffffffffff168152602001908152602001600020905060006002600086815260200190815260200160002060405180610120016040529081600082015481526020016001820180546114ff906138c7565b80601f016020809104026020016040519081016040528092919081815260200182805461152b906138c7565b80156115785780601f1061154d57610100808354040283529160200191611578565b820191906000526020600020905b81548152906001019060200180831161155b57829003601f168201915b50505050508152602001600282018054611591906138c7565b80601f01602080910402602001604051908101604052809291908181526020018280546115bd906138c7565b801561160a5780601f106115df5761010080835404028352916020019161160a565b820191906000526020600020905b8154815290600101906020018083116115ed57829003601f168201915b505050505081526020016003820154815260200160048201805461162d906138c7565b80601f0160208091040260200160405190810160405280929190818152602001828054611659906138c7565b80156116a65780601f1061167b576101008083540402835291602001916116a6565b820191906000526020600020905b81548152906001019060200180831161168957829003601f168201915b505050505081526020016005820180546116bf906138c7565b80601f01602080910402602001604051908101604052809291908181526020018280546116eb906138c7565b80156117385780601f1061170d57610100808354040283529160200191611738565b820191906000526020600020905b81548152906001019060200180831161171b57829003601f168201915b505050505081526020016006820160009054906101000a900473ffffffffffffffffffffffffffffffffffffffff1673ffffffffffffffffffffffffffffffffffffffff1673ffffffffffffffffffffffffffffffffffffffff1681526020016006820160149054906101000a900460ff161515151581526020016007820180548060200260200160405190810160405280929190818152602001828054801561183757602002820191906000526020600020905b8160009054906101000a900473ffffffffffffffffffffffffffffffffffffffff1673ffffffffffffffffffffffffffffffffffffffff16815260200190600101908083116117ed575b5050505050815250509050600082600401600001805490509050826004016000018260000151908060018154018082558091505060019003906000526020600020016000909190919091505560008360040160010154905082606001518161189f919061379c565b84600401600101819055508184600401600001805490501115611929577f1e862ddcab5a3222c811c44ecc1c4a46d3da57dde0e884ad6e7e070a8ece23773388856060015187600401600101546040516118fc94939291906134dc565b60405180910390a1600180856004016000018054905061191c91906137f2565b955095505050505061196e565b7f5f187c44b1528b1d93b313a10cf6038ff514e59499f6790e1e2da2f7d1cfdd30338860405161195a9291906134b3565b60405180910390a160008095509550505050505b915091565b6000805b600460003373ffffffffffffffffffffffffffffffffffffffff1673ffffffffffffffffffffffffffffffffffffffff16815260200190815260200160002080549050811015611a5c5782600460003373ffffffffffffffffffffffffffffffffffffffff1673ffffffffffffffffffffffffffffffffffffffff1681526020019081526020016000208281548110611a1357611a12613a00565b5b9060005260206000209060080201600001541415611a495760018060006101000a81548160ff0219169083151502179055508091505b8080611a549061392a565b915050611977565b50600160009054906101000a900460ff1615611f87576001600460003373ffffffffffffffffffffffffffffffffffffffff1673ffffffffffffffffffffffffffffffffffffffff16815260200190815260200160002080549050611ac191906137f2565b811415611beb57600460003373ffffffffffffffffffffffffffffffffffffffff1673ffffffffffffffffffffffffffffffffffffffff168152602001908152602001600020805480611b1757611b166139d1565b5b6001900381819060005260206000209060080201600080820160009055600182016000611b449190612f43565b600282016000611b549190612f43565b6003820160009055600482016000611b6c9190612f43565b600582016000611b7c9190612f43565b6006820160006101000a81549073ffffffffffffffffffffffffffffffffffffffff02191690556006820160146101000a81549060ff0219169055600782016000611bc79190612f83565b505090556000600160006101000a81548160ff021916908315150217905550611f86565b60008190505b6001600460003373ffffffffffffffffffffffffffffffffffffffff1673ffffffffffffffffffffffffffffffffffffffff16815260200190815260200160002080549050611c4091906137f2565b811015611e6657600460003373ffffffffffffffffffffffffffffffffffffffff1673ffffffffffffffffffffffffffffffffffffffff168152602001908152602001600020600182611c93919061379c565b81548110611ca457611ca3613a00565b5b9060005260206000209060080201600460003373ffffffffffffffffffffffffffffffffffffffff1673ffffffffffffffffffffffffffffffffffffffff1681526020019081526020016000208281548110611d0357611d02613a00565b5b9060005260206000209060080201600082015481600001556001820181600101908054611d2f906138c7565b611d3a929190612ff1565b506002820181600201908054611d4f906138c7565b611d5a929190612ff1565b50600382015481600301556004820181600401908054611d79906138c7565b611d84929190612ff1565b506005820181600501908054611d99906138c7565b611da4929190612ff1565b506006820160009054906101000a900473ffffffffffffffffffffffffffffffffffffffff168160060160006101000a81548173ffffffffffffffffffffffffffffffffffffffff021916908373ffffffffffffffffffffffffffffffffffffffff1602179055506006820160149054906101000a900460ff168160060160146101000a81548160ff0219169083151502179055506007820181600701908054611e4f92919061307e565b509050508080611e5e9061392a565b915050611bf1565b50600460003373ffffffffffffffffffffffffffffffffffffffff1673ffffffffffffffffffffffffffffffffffffffff168152602001908152602001600020805480611eb657611eb56139d1565b5b6001900381819060005260206000209060080201600080820160009055600182016000611ee39190612f43565b600282016000611ef39190612f43565b6003820160009055600482016000611f0b9190612f43565b600582016000611f1b9190612f43565b6006820160006101000a81549073ffffffffffffffffffffffffffffffffffffffff02191690556006820160146101000a81549060ff0219169055600782016000611f669190612f83565b505090556000600160006101000a81548160ff0219169083151502179055505b5b5050565b600160009054906101000a900460ff1681565b600080600360003373ffffffffffffffffffffffffffffffffffffffff1673ffffffffffffffffffffffffffffffffffffffff16815260200190815260200160002090506040518060400160405280600067ffffffffffffffff81111561200857612007613a2f565b5b6040519080825280602002602001820160405280156120365781602001602082028036833780820191505090505b5081526020016000815250816004016000820151816000019080519060200190612061929190612fa4565b50602082015181600101559050507f69dad80af5bbf467deb57c60ff8e39e3aacc707b1aa1c5b240aab4982f946fee8160010160009054906101000a900473ffffffffffffffffffffffffffffffffffffffff166040516120c29190613498565b60405180910390a1600191505090565b60075481565b60008551116120e657600080fd5b600083116120f357600080fd5b6000600580549050148061212657506000600560008154811061211957612118613a00565b5b9060005260206000200154145b156125725760008081548092919061213d9061392a565b919050555060405180610120016040528060005481526020018681526020018581526020018481526020018381526020018281526020013373ffffffffffffffffffffffffffffffffffffffff168152602001600015158152602001600067ffffffffffffffff8111156121b4576121b3613a2f565b5b6040519080825280602002602001820160405280156121e25781602001602082028036833780820191505090505b508152506002600080548152602001908152602001600020600082015181600001556020820151816001019080519060200190612220929190612e33565b50604082015181600201908051906020019061223d929190612e33565b50606082015181600301556080820151816004019080519060200190612264929190612e33565b5060a0820151816005019080519060200190612281929190612e33565b5060c08201518160060160006101000a81548173ffffffffffffffffffffffffffffffffffffffff021916908373ffffffffffffffffffffffffffffffffffffffff16021790555060e08201518160060160146101000a81548160ff021916908315150217905550610100820151816007019080519060200190612306929190612eb9565b50905050600460003373ffffffffffffffffffffffffffffffffffffffff1673ffffffffffffffffffffffffffffffffffffffff16815260200190815260200160002060405180610120016040528060005481526020018781526020018681526020018581526020018481526020018381526020013373ffffffffffffffffffffffffffffffffffffffff168152602001600015158152602001600067ffffffffffffffff8111156123bb576123ba613a2f565b5b6040519080825280602002602001820160405280156123e95781602001602082028036833780820191505090505b50815250908060018154018082558091505060019003906000526020600020906008020160009091909190915060008201518160000155602082015181600101908051906020019061243c929190612e33565b506040820151816002019080519060200190612459929190612e33565b50606082015181600301556080820151816004019080519060200190612480929190612e33565b5060a082015181600501908051906020019061249d929190612e33565b5060c08201518160060160006101000a81548173ffffffffffffffffffffffffffffffffffffffff021916908373ffffffffffffffffffffffffffffffffffffffff16021790555060e08201518160060160146101000a81548160ff021916908315150217905550610100820151816007019080519060200190612522929190612eb9565b5050507fbb45e05496e643a69bb522fd78ec743fcc4cecc08d892a6685a76f79e29e1eb46000548686868686336000604051612565989796959493929190613657565b60405180910390a1612aab565b6000600560008154811061258957612588613a00565b5b9060005260206000200154905060405180610120016040528060056000815481106125b7576125b6613a00565b5b906000526020600020015481526020018781526020018681526020018581526020018481526020018381526020013373ffffffffffffffffffffffffffffffffffffffff168152602001600015158152602001600067ffffffffffffffff81111561262557612624613a2f565b5b6040519080825280602002602001820160405280156126535781602001602082028036833780820191505090505b508152506002600060056000815481106126705761266f613a00565b5b906000526020600020015481526020019081526020016000206000820151816000015560208201518160010190805190602001906126af929190612e33565b5060408201518160020190805190602001906126cc929190612e33565b506060820151816003015560808201518160040190805190602001906126f3929190612e33565b5060a0820151816005019080519060200190612710929190612e33565b5060c08201518160060160006101000a81548173ffffffffffffffffffffffffffffffffffffffff021916908373ffffffffffffffffffffffffffffffffffffffff16021790555060e08201518160060160146101000a81548160ff021916908315150217905550610100820151816007019080519060200190612795929190612eb9565b5090505060058054905060068190555060005b60016005805490506127ba91906137f2565b8110156128215760056001826127d0919061379c565b815481106127e1576127e0613a00565b5b906000526020600020015460058281548110612800576127ff613a00565b5b906000526020600020018190555080806128199061392a565b9150506127a8565b506005805480612834576128336139d1565b5b60019003818190600052602060002001600090559055600460003373ffffffffffffffffffffffffffffffffffffffff1673ffffffffffffffffffffffffffffffffffffffff1681526020019081526020016000206040518061012001604052808381526020018881526020018781526020018681526020018581526020018481526020013373ffffffffffffffffffffffffffffffffffffffff168152602001600015158152602001600067ffffffffffffffff8111156128f9576128f8613a2f565b5b6040519080825280602002602001820160405280156129275781602001602082028036833780820191505090505b50815250908060018154018082558091505060019003906000526020600020906008020160009091909190915060008201518160000155602082015181600101908051906020019061297a929190612e33565b506040820151816002019080519060200190612997929190612e33565b506060820151816003015560808201518160040190805190602001906129be929190612e33565b5060a08201518160050190805190602001906129db929190612e33565b5060c08201518160060160006101000a81548173ffffffffffffffffffffffffffffffffffffffff021916908373ffffffffffffffffffffffffffffffffffffffff16021790555060e08201518160060160146101000a81548160ff021916908315150217905550610100820151816007019080519060200190612a60929190612eb9565b5050507fbb45e05496e643a69bb522fd78ec743fcc4cecc08d892a6685a76f79e29e1eb4818787878787336000604051612aa1989796959493929190613657565b60405180910390a1505b5050505050565b60005481565b60006060806000606080600073ffffffffffffffffffffffffffffffffffffffff168873ffffffffffffffffffffffffffffffffffffffff161415612afc57600080fd5b60008760ff1610158015612b14575060ff8760ff1611155b612b1d57600080fd5b6000600460008a73ffffffffffffffffffffffffffffffffffffffff1673ffffffffffffffffffffffffffffffffffffffff1681526020019081526020016000208054905011612b6c57600080fd5b6000600460008a73ffffffffffffffffffffffffffffffffffffffff1673ffffffffffffffffffffffffffffffffffffffff1681526020019081526020016000208860ff1681548110612bc257612bc1613a00565b5b906000526020600020906008020190508060000154816001018260020183600301548460040185600501848054612bf8906138c7565b80601f0160208091040260200160405190810160405280929190818152602001828054612c24906138c7565b8015612c715780601f10612c4657610100808354040283529160200191612c71565b820191906000526020600020905b815481529060010190602001808311612c5457829003601f168201915b50505050509450838054612c84906138c7565b80601f0160208091040260200160405190810160405280929190818152602001828054612cb0906138c7565b8015612cfd5780601f10612cd257610100808354040283529160200191612cfd565b820191906000526020600020905b815481529060010190602001808311612ce057829003601f168201915b50505050509350818054612d10906138c7565b80601f0160208091040260200160405190810160405280929190818152602001828054612d3c906138c7565b8015612d895780601f10612d5e57610100808354040283529160200191612d89565b820191906000526020600020905b815481529060010190602001808311612d6c57829003601f168201915b50505050509150808054612d9c906138c7565b80601f0160208091040260200160405190810160405280929190818152602001828054612dc8906138c7565b8015612e155780601f10612dea57610100808354040283529160200191612e15565b820191906000526020600020905b815481529060010190602001808311612df857829003601f168201915b50505050509050965096509650965096509650509295509295509295565b828054612e3f906138c7565b90600052602060002090601f016020900481019282612e615760008555612ea8565b82601f10612e7a57805160ff1916838001178555612ea8565b82800160010185558215612ea8579182015b82811115612ea7578251825591602001919060010190612e8c565b5b509050612eb591906130d0565b5090565b828054828255906000526020600020908101928215612f32579160200282015b82811115612f315782518260006101000a81548173ffffffffffffffffffffffffffffffffffffffff021916908373ffffffffffffffffffffffffffffffffffffffff16021790555091602001919060010190612ed9565b5b509050612f3f91906130d0565b5090565b508054612f4f906138c7565b6000825580601f10612f615750612f80565b601f016020900490600052602060002090810190612f7f91906130d0565b5b50565b5080546000825590600052602060002090810190612fa191906130d0565b50565b828054828255906000526020600020908101928215612fe0579160200282015b82811115612fdf578251825591602001919060010190612fc4565b5b509050612fed91906130d0565b5090565b828054612ffd906138c7565b90600052602060002090601f01602090048101928261301f576000855561306d565b82601f10613030578054855561306d565b8280016001018555821561306d57600052602060002091601f016020900482015b8281111561306c578254825591600101919060010190613051565b5b50905061307a91906130d0565b5090565b8280548282559060005260206000209081019282156130bf5760005260206000209182015b828111156130be5782548255916001019190600101906130a3565b5b5090506130cc91906130d0565b5090565b5b808211156130e95760008160009055506001016130d1565b5090565b60006131006130fb84613716565b6136f1565b90508281526020810184848401111561311c5761311b613a63565b5b613127848285613885565b509392505050565b60008135905061313e81613a83565b92915050565b600082601f83011261315957613158613a5e565b5b81356131698482602086016130ed565b91505092915050565b60008135905061318181613a9a565b92915050565b60008135905061319681613ab1565b92915050565b6000602082840312156131b2576131b1613a6d565b5b60006131c08482850161312f565b91505092915050565b600080604083850312156131e0576131df613a6d565b5b60006131ee8582860161312f565b92505060206131ff85828601613172565b9150509250929050565b600080604083850312156132205761321f613a6d565b5b600061322e8582860161312f565b925050602061323f85828601613187565b9150509250929050565b600080600080600060a0868803121561326557613264613a6d565b5b600086013567ffffffffffffffff81111561328357613282613a68565b5b61328f88828901613144565b955050602086013567ffffffffffffffff8111156132b0576132af613a68565b5b6132bc88828901613144565b94505060406132cd88828901613172565b935050606086013567ffffffffffffffff8111156132ee576132ed613a68565b5b6132fa88828901613144565b925050608086013567ffffffffffffffff81111561331b5761331a613a68565b5b61332788828901613144565b9150509295509295909350565b60006020828403121561334a57613349613a6d565b5b600061335884828501613172565b91505092915050565b600061336d838361347a565b60208301905092915050565b61338281613826565b82525050565b600061339382613757565b61339d818561377a565b93506133a883613747565b8060005b838110156133d95781516133c08882613361565b97506133cb8361376d565b9250506001810190506133ac565b5085935050505092915050565b6133ef81613838565b82525050565b6133fe81613844565b82525050565b600061340f82613762565b613419818561378b565b9350613429818560208601613894565b61343281613a72565b840191505092915050565b6000604083016000830151848203600086015261345a8282613388565b915050602083015161346f602086018261347a565b508091505092915050565b6134838161386e565b82525050565b6134928161386e565b82525050565b60006020820190506134ad6000830184613379565b92915050565b60006040820190506134c86000830185613379565b6134d56020830184613489565b9392505050565b60006080820190506134f16000830187613379565b6134fe6020830186613489565b61350b6040830185613489565b6135186060830184613489565b95945050505050565b600060208201905061353660008301846133e6565b92915050565b600060408201905061355160008301856133e6565b61355e6020830184613489565b9392505050565b600060208201905061357a6000830184613489565b92915050565b600060a0820190506135956000830188613489565b6135a26020830187613379565b6135af60408301866133f5565b6135bc6060830185613489565b81810360808301526135ce818461343d565b90509695505050505050565b600060c0820190506135ef6000830189613489565b81810360208301526136018188613404565b905081810360408301526136158187613404565b90506136246060830186613489565b81810360808301526136368185613404565b905081810360a083015261364a8184613404565b9050979650505050505050565b60006101008201905061366d600083018b613489565b818103602083015261367f818a613404565b905081810360408301526136938189613404565b90506136a26060830188613489565b81810360808301526136b48187613404565b905081810360a08301526136c88186613404565b90506136d760c0830185613379565b6136e460e08301846133e6565b9998505050505050505050565b60006136fb61370c565b905061370782826138f9565b919050565b6000604051905090565b600067ffffffffffffffff82111561373157613730613a2f565b5b61373a82613a72565b9050602081019050919050565b6000819050602082019050919050565b600081519050919050565b600081519050919050565b6000602082019050919050565b600082825260208201905092915050565b600082825260208201905092915050565b60006137a78261386e565b91506137b28361386e565b9250827fffffffffffffffffffffffffffffffffffffffffffffffffffffffffffffffff038211156137e7576137e6613973565b5b828201905092915050565b60006137fd8261386e565b91506138088361386e565b92508282101561381b5761381a613973565b5b828203905092915050565b60006138318261384e565b9050919050565b60008115159050919050565b6000819050919050565b600073ffffffffffffffffffffffffffffffffffffffff82169050919050565b6000819050919050565b600060ff82169050919050565b82818337600083830152505050565b60005b838110156138b2578082015181840152602081019050613897565b838111156138c1576000848401525b50505050565b600060028204905060018216806138df57607f821691505b602082108114156138f3576138f26139a2565b5b50919050565b61390282613a72565b810181811067ffffffffffffffff8211171561392157613920613a2f565b5b80604052505050565b60006139358261386e565b91507fffffffffffffffffffffffffffffffffffffffffffffffffffffffffffffffff82141561396857613967613973565b5b600182019050919050565b7f4e487b7100000000000000000000000000000000000000000000000000000000600052601160045260246000fd5b7f4e487b7100000000000000000000000000000000000000000000000000000000600052602260045260246000fd5b7f4e487b7100000000000000000000000000000000000000000000000000000000600052603160045260246000fd5b7f4e487b7100000000000000000000000000000000000000000000000000000000600052603260045260246000fd5b7f4e487b7100000000000000000000000000000000000000000000000000000000600052604160045260246000fd5b600080fd5b600080fd5b600080fd5b600080fd5b6000601f19601f8301169050919050565b613a8c81613826565b8114613a9757600080fd5b50565b613aa38161386e565b8114613aae57600080fd5b50565b613aba81613878565b8114613ac557600080fd5b5056fea264697066735822122001ccc9e0159706854d8d582a0d470206c885bb6dd8f42ab4c4b8a30bf188c1fe64736f6c63430008070033",
  "immutableReferences": {},
  "source": "// if purchased w bdi 27zfa\r\n// SPDX-License-Identifier: MIT\r\npragma solidity  ^0.8.0;\r\n\r\ncontract Marketplace {\r\n    //string public name;\r\n    uint public productCount = 0;\r\n    //to store the products on blockchain\r\n    bool public flag = false;\r\n    mapping(uint => Product) public products;\r\n    //to store the customers on blockchain\r\n    mapping(address  => Customer) public customers;\r\n    // Maps owner to their images\r\n    mapping (address => Product[]) public ownerToProducts;\r\n    uint[] public emptySpaces;\r\n    uint public len; \r\n    uint public ftt = 0;\r\n\r\n    struct Customer {\r\n        uint id;\r\n        address adr;\r\n        bytes32 name;\r\n        uint256 balance;\r\n        Cart cart;\r\n    }\r\n\r\n    struct Cart {\r\n      uint256[] products;\r\n      uint256 completeSum;\r\n    }\r\n\r\n    struct Product {\r\n        uint id;\r\n        string name;\r\n        string description;\r\n        uint price;\r\n        string imgipfshash;\r\n        string fileipfshash;\r\n        address owner;\r\n        bool purchased;\r\n        address[] owners;\r\n    }\r\n\r\n    event ProductCreated(uint id, string name, string description, uint price, string imgipfshash, string fileipfshash, address owner, bool purchased);\r\n    event ProductPurchased(uint id, string name, string description, uint price, string imgipfshash, string fileipfshash, address owner, bool purchased);\r\n    event CustomerRegistered(address customer);\r\n    event CustomerRegistrationFailed(address customer);\r\n    event CartProductInserted(address customer, uint256 prodId, uint256 prodPrice, uint256 completeSum);\r\n    event CartProductInsertionFailed(address customer, uint256 prodId);\r\n    event CartProductRemoved(address customer, uint256 prodId);\r\n    event CartEmptied(address customer);\r\n\r\n\r\n    /*constructor() public {\r\n        name = \"Jazara Marketplace\";\r\n    }*/\r\n\r\n    // Create a new product with a struct\r\n    // Add the struct to the mapping, and store it on the blockchain\r\n    // Trigger an event that lets someone know a product was creatd\r\n    function createProduct(string memory _name,string memory _description, uint _price,string memory _imgipfshash,string memory _fileipfshash) public {\r\n        // Require a valid name\r\n        require(bytes(_name).length > 0);\r\n        // Require a valid description\r\n        //require(bytes(_description).length > 0);\r\n        // Require a valid price\r\n        require(_price > 0);\r\n        // Require a valid image hash\r\n        //require(bytes(_imgipfshash).length > 0);\r\n        // Require a valid file hash\r\n        //require(bytes(_fileipfshash).length > 0);*/\r\n        // Increment product count\r\n        if(emptySpaces.length == 0 || emptySpaces[0]==0){\r\n                productCount ++;\r\n                products[productCount] = Product(productCount, _name , _description, _price , _imgipfshash , _fileipfshash ,msg.sender, false ,new address[](0));\r\n        \r\n                ownerToProducts[msg.sender].push(Product({\r\n                id: productCount,\r\n                name: _name,\r\n                description: _description,\r\n                price: _price,\r\n                imgipfshash: _imgipfshash,\r\n                fileipfshash:_fileipfshash,\r\n                owner: msg.sender,\r\n                purchased: false,\r\n                owners: new address[](0)\r\n            }));\r\n            emit ProductCreated(productCount, _name, _description, _price, _imgipfshash,_fileipfshash, msg.sender, false);\r\n        }\r\n        else{\r\n            uint tmp = emptySpaces[0];\r\n            products[emptySpaces[0]] = Product(emptySpaces[0], _name , _description ,_price , _imgipfshash ,_fileipfshash, msg.sender, false,new address[](0) );\r\n            len = emptySpaces.length;\r\n            for(uint i = 0;i < emptySpaces.length - 1;i++){\r\n                emptySpaces[i] = emptySpaces[ i+1 ];\r\n            }\r\n            emptySpaces.pop();\r\n            ownerToProducts[msg.sender].push(Product({\r\n                id: tmp,\r\n                name: _name,\r\n                description: _description,\r\n                price: _price,\r\n                imgipfshash: _imgipfshash,\r\n                fileipfshash:_fileipfshash,\r\n                owner: msg.sender,\r\n                purchased: false,\r\n                owners: new address[](0)\r\n                }));\r\n                emit ProductCreated(tmp, _name, _description, _price, _imgipfshash,_fileipfshash, msg.sender, false);\r\n        }\r\n        \r\n    }\r\n\r\n    function removeProduct(uint id1) public {\r\n        removeNestedProduct(id1);\r\n        delete products [id1];\r\n        emptySpaces.push(id1);\r\n    }\r\n    function removeNestedProduct(uint id1) public {\r\n        uint index =0;\r\n        for(uint i=0;i<ownerToProducts[msg.sender].length;i++){\r\n            if(ownerToProducts[msg.sender][i].id == id1){\r\n                flag = true;\r\n                index = i;\r\n            }\r\n        }\r\n        if(flag){\r\n            if(index == ownerToProducts[msg.sender].length -1){\r\n                ownerToProducts[msg.sender].pop();\r\n                flag = false;\r\n            }\r\n            else{\r\n                for(uint i = index ;i <ownerToProducts[msg.sender].length - 1 ; i++){\r\n                    ownerToProducts[msg.sender][i] = ownerToProducts[msg.sender][ i+1 ];\r\n                }\r\n                ownerToProducts[msg.sender].pop();\r\n                flag = false;\r\n            }\r\n        }\r\n    }\r\n    function purchaseProduct(uint _id) public payable {\r\n        // Fetch the product\r\n        Product memory _product = products[_id];\r\n        // Fetch the owner\r\n        address _seller = _product.owner;\r\n        /*// Make sure the product has a valid id\r\n        require(_product.id > 0 && _product.id <= productCount);\r\n        // Require that there is enough Ether in the transaction\r\n        require(msg.value >= _product.price);\r\n        // Require that the product has not been purchased already\r\n        require(!_product.purchased);\r\n        // Require that the buyer is not the seller\r\n        require(_seller != msg.sender);\r\n        // Transfer ownership to the buyer*/\r\n        _product.owner = msg.sender;\r\n        // Mark as purchased\r\n        _product.purchased = true;\r\n        // Update the product\r\n        products[_id] = _product;\r\n        // Pay the seller by sending them Ether\r\n        payable(_seller).transfer(msg.value);\r\n        removeNestedProduct(_id);\r\n        // Trigger an event\r\n        emit ProductPurchased(productCount, _product.name,_product.description, _product.price, _product.imgipfshash, _product.fileipfshash, msg.sender, true);\r\n    }\r\n\r\n    function insertProductIntoCart(uint256 id) public returns (bool success,\r\n                                                  uint256 pos_in_prod_mapping) {\r\n        Customer storage cust = customers[msg.sender];\r\n        Product memory prod = products[id];\r\n        uint256 prods_prev_len = cust.cart.products.length;\r\n        cust.cart.products.push(prod.id);\r\n        uint256 current_sum = cust.cart.completeSum;\r\n        cust.cart.completeSum = current_sum + prod.price;\r\n        if (cust.cart.products.length > prods_prev_len) {\r\n          emit CartProductInserted(msg.sender, id, prod.price, cust.cart.completeSum);\r\n          return (true, cust.cart.products.length - 1);\r\n        }\r\n        emit CartProductInsertionFailed(msg.sender, id);\r\n        return (false, 0);\r\n    }\r\n\r\n    function removeProductFromCart(uint256 prod_pos_in_mapping) public {\r\n      /*if (msg.sender != owner) {*/\r\n        uint256[] memory new_product_list = new uint256[](customers[msg.sender]\r\n                                                    .cart.products.length - 1);\r\n        uint256[] memory customerProds = customers[msg.sender].cart.products;\r\n        for (uint256 i = 0; i < customerProds.length; i++) {\r\n          if (i != prod_pos_in_mapping) {\r\n            new_product_list[i] = customerProds[i];\r\n          } else {\r\n            customers[msg.sender].cart.completeSum -=\r\n                                               products[customerProds[i]].price;\r\n            emit CartProductRemoved(msg.sender, customerProds[i]);\r\n          }\r\n        }\r\n        customers[msg.sender].cart.products = new_product_list;\r\n      /*}*/\r\n    }\r\n\r\n    function emptyCart() public returns (bool success) {\r\n      /*if (msg.sender != owner) {*/\r\n        Customer storage customer = customers[msg.sender];\r\n        customer.cart = Cart(new uint256[](0), 0);\r\n        emit CartEmptied(customer.adr);\r\n        return true;\r\n      /*}*/\r\n      /*return false;*/\r\n    }\r\n\r\n    function getProductCount(address _owner) view\r\n        public\r\n        returns (uint256) \r\n    {\r\n        require(_owner != address(0));\r\n        return ownerToProducts[_owner].length;\r\n    }\r\n\r\n    function getProduct(address _owner, uint8 _index) view\r\n        public returns (\r\n        uint _id, \r\n        string memory _name, \r\n        string memory _description,\r\n        uint _price,\r\n        string memory imgipfshash,\r\n        string memory fileipfshash\r\n    ) {\r\n\r\n        require(_owner != address(0));\r\n        require(_index >= 0 && _index <= 2**8 - 1);\r\n        require(ownerToProducts[_owner].length > 0);\r\n\r\n        Product storage product = ownerToProducts[_owner][_index];\r\n        \r\n        return (\r\n            product.id, \r\n            product.name,\r\n            product.description,\r\n            product.price,\r\n            product.imgipfshash,\r\n            product.fileipfshash\r\n        );\r\n    }\r\n\r\n}",
  "sourcePath": "C:\\Users\\Administrator\\Desktop\\MarketPlace\\src\\contracts\\Marketplace.sol",
  "compiler": {
    "name": "solc",
    "version": "0.8.7+commit.e28d00a7.Emscripten.clang"
  },
  "schemaVersion": "3.4.2",
  "updatedAt": "2021-08-12T14:38:26.460Z",
  "networkType": "ethereum",
  "devdoc": {
    "kind": "dev",
    "methods": {},
    "version": 1
  },
  "userdoc": {
    "kind": "user",
    "methods": {},
    "version": 1
  }
}