{
  "contractName": "Marketplace",
  "abi": [
    {
      "anonymous": false,
      "inputs": [
        {
          "indexed": false,
          "internalType": "address",
          "name": "customer",
          "type": "address"
        }
      ],
      "name": "CartEmptied",
      "type": "event"
    },
    {
      "anonymous": false,
      "inputs": [
        {
          "indexed": false,
          "internalType": "address",
          "name": "customer",
          "type": "address"
        },
        {
          "indexed": false,
          "internalType": "uint256",
          "name": "prodId",
          "type": "uint256"
        },
        {
          "indexed": false,
          "internalType": "uint256",
          "name": "prodPrice",
          "type": "uint256"
        },
        {
          "indexed": false,
          "internalType": "uint256",
          "name": "completeSum",
          "type": "uint256"
        }
      ],
      "name": "CartProductInserted",
      "type": "event"
    },
    {
      "anonymous": false,
      "inputs": [
        {
          "indexed": false,
          "internalType": "address",
          "name": "customer",
          "type": "address"
        },
        {
          "indexed": false,
          "internalType": "uint256",
          "name": "prodId",
          "type": "uint256"
        }
      ],
      "name": "CartProductInsertionFailed",
      "type": "event"
    },
    {
      "anonymous": false,
      "inputs": [
        {
          "indexed": false,
          "internalType": "address",
          "name": "customer",
          "type": "address"
        },
        {
          "indexed": false,
          "internalType": "uint256",
          "name": "prodId",
          "type": "uint256"
        }
      ],
      "name": "CartProductRemoved",
      "type": "event"
    },
    {
      "anonymous": false,
      "inputs": [
        {
          "indexed": false,
          "internalType": "address",
          "name": "customer",
          "type": "address"
        }
      ],
      "name": "CustomerRegistered",
      "type": "event"
    },
    {
      "anonymous": false,
      "inputs": [
        {
          "indexed": false,
          "internalType": "address",
          "name": "customer",
          "type": "address"
        }
      ],
      "name": "CustomerRegistrationFailed",
      "type": "event"
    },
    {
      "anonymous": false,
      "inputs": [
        {
          "indexed": false,
          "internalType": "uint256",
          "name": "id",
          "type": "uint256"
        },
        {
          "indexed": false,
          "internalType": "string",
          "name": "name",
          "type": "string"
        },
        {
          "indexed": false,
          "internalType": "string",
          "name": "description",
          "type": "string"
        },
        {
          "indexed": false,
          "internalType": "uint256",
          "name": "price",
          "type": "uint256"
        },
        {
          "indexed": false,
          "internalType": "string",
          "name": "imgipfshash",
          "type": "string"
        },
        {
          "indexed": false,
          "internalType": "string",
          "name": "fileipfshash",
          "type": "string"
        },
        {
          "indexed": false,
          "internalType": "address",
          "name": "owner",
          "type": "address"
        },
        {
          "indexed": false,
          "internalType": "bool",
          "name": "purchased",
          "type": "bool"
        }
      ],
      "name": "ProductCreated",
      "type": "event"
    },
    {
      "anonymous": false,
      "inputs": [
        {
          "indexed": false,
          "internalType": "uint256",
          "name": "id",
          "type": "uint256"
        },
        {
          "indexed": false,
          "internalType": "string",
          "name": "name",
          "type": "string"
        },
        {
          "indexed": false,
          "internalType": "string",
          "name": "description",
          "type": "string"
        },
        {
          "indexed": false,
          "internalType": "uint256",
          "name": "price",
          "type": "uint256"
        },
        {
          "indexed": false,
          "internalType": "string",
          "name": "imgipfshash",
          "type": "string"
        },
        {
          "indexed": false,
          "internalType": "string",
          "name": "fileipfshash",
          "type": "string"
        },
        {
          "indexed": false,
          "internalType": "address",
          "name": "owner",
          "type": "address"
        },
        {
          "indexed": false,
          "internalType": "bool",
          "name": "purchased",
          "type": "bool"
        }
      ],
      "name": "ProductPurchased",
      "type": "event"
    },
    {
      "inputs": [
        {
          "internalType": "uint256",
          "name": "",
          "type": "uint256"
        }
      ],
      "name": "addressLUT",
      "outputs": [
        {
          "internalType": "address",
          "name": "",
          "type": "address"
        }
      ],
      "stateMutability": "view",
      "type": "function",
      "constant": true
    },
    {
      "inputs": [],
      "name": "customerCount",
      "outputs": [
        {
          "internalType": "uint256",
          "name": "",
          "type": "uint256"
        }
      ],
      "stateMutability": "view",
      "type": "function",
      "constant": true
    },
    {
      "inputs": [
        {
          "internalType": "address",
          "name": "",
          "type": "address"
        }
      ],
      "name": "customers",
      "outputs": [
        {
          "internalType": "address",
          "name": "adr",
          "type": "address"
        },
        {
          "internalType": "string",
          "name": "name",
          "type": "string"
        },
        {
          "components": [
            {
              "internalType": "uint256[]",
              "name": "products",
              "type": "uint256[]"
            },
            {
              "internalType": "uint256",
              "name": "completeSum",
              "type": "uint256"
            }
          ],
          "internalType": "struct Marketplace.Cart",
          "name": "cart",
          "type": "tuple"
        }
      ],
      "stateMutability": "view",
      "type": "function",
      "constant": true
    },
    {
      "inputs": [
        {
          "internalType": "uint256",
          "name": "",
          "type": "uint256"
        }
      ],
      "name": "emptySpaces",
      "outputs": [
        {
          "internalType": "uint256",
          "name": "",
          "type": "uint256"
        }
      ],
      "stateMutability": "view",
      "type": "function",
      "constant": true
    },
    {
      "inputs": [],
      "name": "flag",
      "outputs": [
        {
          "internalType": "bool",
          "name": "",
          "type": "bool"
        }
      ],
      "stateMutability": "view",
      "type": "function",
      "constant": true
    },
    {
      "inputs": [],
      "name": "ftt",
      "outputs": [
        {
          "internalType": "uint256",
          "name": "",
          "type": "uint256"
        }
      ],
      "stateMutability": "view",
      "type": "function",
      "constant": true
    },
    {
      "inputs": [],
      "name": "len",
      "outputs": [
        {
          "internalType": "uint256",
          "name": "",
          "type": "uint256"
        }
      ],
      "stateMutability": "view",
      "type": "function",
      "constant": true
    },
    {
      "inputs": [
        {
          "internalType": "address",
          "name": "",
          "type": "address"
        },
        {
          "internalType": "uint256",
          "name": "",
          "type": "uint256"
        }
      ],
      "name": "ownerToProducts",
      "outputs": [
        {
          "internalType": "uint256",
          "name": "id",
          "type": "uint256"
        },
        {
          "internalType": "string",
          "name": "name",
          "type": "string"
        },
        {
          "internalType": "string",
          "name": "description",
          "type": "string"
        },
        {
          "internalType": "uint256",
          "name": "price",
          "type": "uint256"
        },
        {
          "internalType": "string",
          "name": "imgipfshash",
          "type": "string"
        },
        {
          "internalType": "string",
          "name": "fileipfshash",
          "type": "string"
        },
        {
          "internalType": "address",
          "name": "owner",
          "type": "address"
        },
        {
          "internalType": "bool",
          "name": "purchased",
          "type": "bool"
        }
      ],
      "stateMutability": "view",
      "type": "function",
      "constant": true
    },
    {
      "inputs": [],
      "name": "productCount",
      "outputs": [
        {
          "internalType": "uint256",
          "name": "",
          "type": "uint256"
        }
      ],
      "stateMutability": "view",
      "type": "function",
      "constant": true
    },
    {
      "inputs": [
        {
          "internalType": "uint256",
          "name": "",
          "type": "uint256"
        }
      ],
      "name": "products",
      "outputs": [
        {
          "internalType": "uint256",
          "name": "id",
          "type": "uint256"
        },
        {
          "internalType": "string",
          "name": "name",
          "type": "string"
        },
        {
          "internalType": "string",
          "name": "description",
          "type": "string"
        },
        {
          "internalType": "uint256",
          "name": "price",
          "type": "uint256"
        },
        {
          "internalType": "string",
          "name": "imgipfshash",
          "type": "string"
        },
        {
          "internalType": "string",
          "name": "fileipfshash",
          "type": "string"
        },
        {
          "internalType": "address",
          "name": "owner",
          "type": "address"
        },
        {
          "internalType": "bool",
          "name": "purchased",
          "type": "bool"
        }
      ],
      "stateMutability": "view",
      "type": "function",
      "constant": true
    },
    {
      "inputs": [
        {
          "internalType": "string",
          "name": "_name",
          "type": "string"
        },
        {
          "internalType": "string",
          "name": "_description",
          "type": "string"
        },
        {
          "internalType": "uint256",
          "name": "_price",
          "type": "uint256"
        },
        {
          "internalType": "string",
          "name": "_imgipfshash",
          "type": "string"
        },
        {
          "internalType": "string",
          "name": "_fileipfshash",
          "type": "string"
        }
      ],
      "name": "createProduct",
      "outputs": [],
      "stateMutability": "nonpayable",
      "type": "function"
    },
    {
      "inputs": [
        {
          "internalType": "uint256",
          "name": "id1",
          "type": "uint256"
        }
      ],
      "name": "removeProduct",
      "outputs": [],
      "stateMutability": "nonpayable",
      "type": "function"
    },
    {
      "inputs": [
        {
          "internalType": "uint256",
          "name": "id1",
          "type": "uint256"
        }
      ],
      "name": "removeNestedProduct",
      "outputs": [],
      "stateMutability": "nonpayable",
      "type": "function"
    },
    {
      "inputs": [
        {
          "internalType": "uint256",
          "name": "_id",
          "type": "uint256"
        }
      ],
      "name": "purchaseProduct",
      "outputs": [],
      "stateMutability": "payable",
      "type": "function",
      "payable": true
    },
    {
      "inputs": [
        {
          "internalType": "uint256",
          "name": "_id",
          "type": "uint256"
        },
        {
          "internalType": "string",
          "name": "_name",
          "type": "string"
        },
        {
          "internalType": "string",
          "name": "_des",
          "type": "string"
        },
        {
          "internalType": "uint256",
          "name": "_price",
          "type": "uint256"
        },
        {
          "internalType": "string",
          "name": "_imgipfshash",
          "type": "string"
        },
        {
          "internalType": "string",
          "name": "_fileipfshash",
          "type": "string"
        }
      ],
      "name": "editProduct",
      "outputs": [],
      "stateMutability": "nonpayable",
      "type": "function"
    },
    {
      "inputs": [
        {
          "internalType": "uint256",
          "name": "id",
          "type": "uint256"
        }
      ],
      "name": "insertProductIntoCart",
      "outputs": [
        {
          "internalType": "bool",
          "name": "success",
          "type": "bool"
        },
        {
          "internalType": "uint256",
          "name": "pos_in_prod_mapping",
          "type": "uint256"
        }
      ],
      "stateMutability": "nonpayable",
      "type": "function"
    },
    {
      "inputs": [
        {
          "internalType": "uint256",
          "name": "prod_pos_in_mapping",
          "type": "uint256"
        }
      ],
      "name": "removeProductFromCart",
      "outputs": [],
      "stateMutability": "nonpayable",
      "type": "function"
    },
    {
      "inputs": [],
      "name": "emptyCart",
      "outputs": [
        {
          "internalType": "bool",
          "name": "success",
          "type": "bool"
        }
      ],
      "stateMutability": "nonpayable",
      "type": "function"
    },
    {
      "inputs": [
        {
          "internalType": "address",
          "name": "_address",
          "type": "address"
        },
        {
          "internalType": "string",
          "name": "_name",
          "type": "string"
        }
      ],
      "name": "registerCustomer",
      "outputs": [
        {
          "internalType": "bool",
          "name": "success",
          "type": "bool"
        }
      ],
      "stateMutability": "nonpayable",
      "type": "function"
    },
    {
      "inputs": [
        {
          "internalType": "address",
          "name": "_adr",
          "type": "address"
        }
      ],
      "name": "getCustomer",
      "outputs": [
        {
          "components": [
            {
              "internalType": "address",
              "name": "adr",
              "type": "address"
            },
            {
              "internalType": "string",
              "name": "name",
              "type": "string"
            },
            {
              "components": [
                {
                  "internalType": "uint256[]",
                  "name": "products",
                  "type": "uint256[]"
                },
                {
                  "internalType": "uint256",
                  "name": "completeSum",
                  "type": "uint256"
                }
              ],
              "internalType": "struct Marketplace.Cart",
              "name": "cart",
              "type": "tuple"
            }
          ],
          "internalType": "struct Marketplace.Customer",
          "name": "",
          "type": "tuple"
        }
      ],
      "stateMutability": "view",
      "type": "function",
      "constant": true
    },
    {
      "inputs": [
        {
          "internalType": "address",
          "name": "_owner",
          "type": "address"
        }
      ],
      "name": "getProductCount",
      "outputs": [
        {
          "internalType": "uint256",
          "name": "",
          "type": "uint256"
        }
      ],
      "stateMutability": "view",
      "type": "function",
      "constant": true
    },
    {
      "inputs": [
        {
          "internalType": "address",
          "name": "_owner",
          "type": "address"
        },
        {
          "internalType": "uint8",
          "name": "_index",
          "type": "uint8"
        }
      ],
      "name": "getProduct",
      "outputs": [
        {
          "internalType": "uint256",
          "name": "_id",
          "type": "uint256"
        },
        {
          "internalType": "string",
          "name": "_name",
          "type": "string"
        },
        {
          "internalType": "string",
          "name": "_description",
          "type": "string"
        },
        {
          "internalType": "uint256",
          "name": "_price",
          "type": "uint256"
        },
        {
          "internalType": "string",
          "name": "imgipfshash",
          "type": "string"
        },
        {
          "internalType": "string",
          "name": "fileipfshash",
          "type": "string"
        }
      ],
      "stateMutability": "view",
      "type": "function",
      "constant": true
    }
  ],
  "bytecode": "0x60806040526000805560006001556000600260006101000a81548160ff021916908315150217905550600060095534801561003957600080fd5b5061481d806100496000396000f3fe6080604052600436106101355760003560e01c8063846c8dea116100ab578063cb949e511161006f578063cb949e5114610462578063ce9f791d1461049f578063d17209d7146104ca578063db1970f4146104f3578063e0f6ef8714610530578063e8b4194e1461055b57610135565b8063846c8dea1461037b578063890eba68146103a45780639757e8a3146103cf578063a0c8c156146103fa578063aca490181461042557610135565b806356d88e27116100fd57806356d88e271461023f5780635ee95cae1461026a5780636ebdac121461029357806377faa57c146102bc5780637acc0b20146102f95780637e6b867f1461033d57610135565b806330ff59481461013a578063336989ae1461017e57806338e76a03146101bd5780634b4f69fb146101d957806350208eee14610202575b600080fd5b34801561014657600080fd5b50610161600480360381019061015c9190613d0a565b61059d565b60405161017598979695949392919061436f565b60405180910390f35b34801561018a57600080fd5b506101a560048036038101906101a09190613c81565b61084f565b6040516101b4939291906141be565b60405180910390f35b6101d760048036038101906101d29190613e75565b61098d565b005b3480156101e557600080fd5b5061020060048036038101906101fb9190613ea2565b610f32565b005b34801561020e57600080fd5b5061022960048036038101906102249190613c81565b611974565b60405161023691906142d7565b60405180910390f35b34801561024b57600080fd5b506102546119f9565b60405161026191906142d7565b60405180910390f35b34801561027657600080fd5b50610291600480360381019061028c9190613e75565b6119ff565b005b34801561029f57600080fd5b506102ba60048036038101906102b59190613e75565b611ae5565b005b3480156102c857600080fd5b506102e360048036038101906102de9190613e75565b611dc3565b6040516102f091906142d7565b60405180910390f35b34801561030557600080fd5b50610320600480360381019061031b9190613e75565b611de7565b60405161033498979695949392919061436f565b60405180910390f35b34801561034957600080fd5b50610364600480360381019061035f9190613e75565b61207c565b60405161037292919061428c565b60405180910390f35b34801561038757600080fd5b506103a2600480360381019061039d9190613e75565b612571565b005b3480156103b057600080fd5b506103b9612671565b6040516103c69190614271565b60405180910390f35b3480156103db57600080fd5b506103e4612684565b6040516103f191906142d7565b60405180910390f35b34801561040657600080fd5b5061040f61268a565b60405161041c9190614271565b60405180910390f35b34801561043157600080fd5b5061044c60048036038101906104479190613e75565b6127be565b60405161045991906141a3565b60405180910390f35b34801561046e57600080fd5b5061048960048036038101906104849190613c81565b6127fd565b60405161049691906142b5565b60405180910390f35b3480156104ab57600080fd5b506104b46129b4565b6040516104c191906142d7565b60405180910390f35b3480156104d657600080fd5b506104f160048036038101906104ec9190613d8a565b6129ba565b005b3480156104ff57600080fd5b5061051a60048036038101906105159190613cae565b61338c565b6040516105279190614271565b60405180910390f35b34801561053c57600080fd5b5061054561361f565b60405161055291906142d7565b60405180910390f35b34801561056757600080fd5b50610582600480360381019061057d9190613d4a565b613625565b604051610594969594939291906142f2565b60405180910390f35b600660205281600052604060002081815481106105b957600080fd5b9060005260206000209060080201600091509150508060000154908060010180546105e3906145e6565b80601f016020809104026020016040519081016040528092919081815260200182805461060f906145e6565b801561065c5780601f106106315761010080835404028352916020019161065c565b820191906000526020600020905b81548152906001019060200180831161063f57829003601f168201915b505050505090806002018054610671906145e6565b80601f016020809104026020016040519081016040528092919081815260200182805461069d906145e6565b80156106ea5780601f106106bf576101008083540402835291602001916106ea565b820191906000526020600020905b8154815290600101906020018083116106cd57829003601f168201915b505050505090806003015490806004018054610705906145e6565b80601f0160208091040260200160405190810160405280929190818152602001828054610731906145e6565b801561077e5780601f106107535761010080835404028352916020019161077e565b820191906000526020600020905b81548152906001019060200180831161076157829003601f168201915b505050505090806005018054610793906145e6565b80601f01602080910402602001604051908101604052809291908181526020018280546107bf906145e6565b801561080c5780601f106107e15761010080835404028352916020019161080c565b820191906000526020600020905b8154815290600101906020018083116107ef57829003601f168201915b5050505050908060060160009054906101000a900473ffffffffffffffffffffffffffffffffffffffff16908060060160149054906101000a900460ff16905088565b60046020528060005260406000206000915090508060000160009054906101000a900473ffffffffffffffffffffffffffffffffffffffff1690806001018054610898906145e6565b80601f01602080910402602001604051908101604052809291908181526020018280546108c4906145e6565b80156109115780601f106108e657610100808354040283529160200191610911565b820191906000526020600020905b8154815290600101906020018083116108f457829003601f168201915b505050505090806002016040518060400160405290816000820180548060200260200160405190810160405280929190818152602001828054801561097557602002820191906000526020600020905b815481526020019060010190808311610961575b50505050508152602001600182015481525050905083565b60006003600083815260200190815260200160002060405180610120016040529081600082015481526020016001820180546109c8906145e6565b80601f01602080910402602001604051908101604052809291908181526020018280546109f4906145e6565b8015610a415780601f10610a1657610100808354040283529160200191610a41565b820191906000526020600020905b815481529060010190602001808311610a2457829003601f168201915b50505050508152602001600282018054610a5a906145e6565b80601f0160208091040260200160405190810160405280929190818152602001828054610a86906145e6565b8015610ad35780601f10610aa857610100808354040283529160200191610ad3565b820191906000526020600020905b815481529060010190602001808311610ab657829003601f168201915b5050505050815260200160038201548152602001600482018054610af6906145e6565b80601f0160208091040260200160405190810160405280929190818152602001828054610b22906145e6565b8015610b6f5780601f10610b4457610100808354040283529160200191610b6f565b820191906000526020600020905b815481529060010190602001808311610b5257829003601f168201915b50505050508152602001600582018054610b88906145e6565b80601f0160208091040260200160405190810160405280929190818152602001828054610bb4906145e6565b8015610c015780601f10610bd657610100808354040283529160200191610c01565b820191906000526020600020905b815481529060010190602001808311610be457829003601f168201915b505050505081526020016006820160009054906101000a900473ffffffffffffffffffffffffffffffffffffffff1673ffffffffffffffffffffffffffffffffffffffff1673ffffffffffffffffffffffffffffffffffffffff1681526020016006820160149054906101000a900460ff1615151515815260200160078201805480602002602001604051908101604052809291908181526020018280548015610d0057602002820191906000526020600020905b8160009054906101000a900473ffffffffffffffffffffffffffffffffffffffff1673ffffffffffffffffffffffffffffffffffffffff1681526020019060010190808311610cb6575b505050505081525050905060008160c001519050338260c0019073ffffffffffffffffffffffffffffffffffffffff16908173ffffffffffffffffffffffffffffffffffffffff168152505060018260e00190151590811515815250508160036000858152602001908152602001600020600082015181600001556020820151816001019080519060200190610d979291906139a0565b506040820151816002019080519060200190610db49291906139a0565b50606082015181600301556080820151816004019080519060200190610ddb9291906139a0565b5060a0820151816005019080519060200190610df89291906139a0565b5060c08201518160060160006101000a81548173ffffffffffffffffffffffffffffffffffffffff021916908373ffffffffffffffffffffffffffffffffffffffff16021790555060e08201518160060160146101000a81548160ff021916908315150217905550610100820151816007019080519060200190610e7d929190613a26565b509050508073ffffffffffffffffffffffffffffffffffffffff166108fc349081150290604051600060405180830381858888f19350505050158015610ec7573d6000803e3d6000fd5b50610ed183612571565b7f5d3e174cea83fc7a15e7c910d86c8dceb0129bfdabceb14a6e43e0d4ccbfdb4a60005483602001518460400151856060015186608001518760a00151336001604051610f2598979695949392919061436f565b60405180910390a1505050565b6000600360008881526020019081526020016000206040518061012001604052908160008201548152602001600182018054610f6d906145e6565b80601f0160208091040260200160405190810160405280929190818152602001828054610f99906145e6565b8015610fe65780601f10610fbb57610100808354040283529160200191610fe6565b820191906000526020600020905b815481529060010190602001808311610fc957829003601f168201915b50505050508152602001600282018054610fff906145e6565b80601f016020809104026020016040519081016040528092919081815260200182805461102b906145e6565b80156110785780601f1061104d57610100808354040283529160200191611078565b820191906000526020600020905b81548152906001019060200180831161105b57829003601f168201915b505050505081526020016003820154815260200160048201805461109b906145e6565b80601f01602080910402602001604051908101604052809291908181526020018280546110c7906145e6565b80156111145780601f106110e957610100808354040283529160200191611114565b820191906000526020600020905b8154815290600101906020018083116110f757829003601f168201915b5050505050815260200160058201805461112d906145e6565b80601f0160208091040260200160405190810160405280929190818152602001828054611159906145e6565b80156111a65780601f1061117b576101008083540402835291602001916111a6565b820191906000526020600020905b81548152906001019060200180831161118957829003601f168201915b505050505081526020016006820160009054906101000a900473ffffffffffffffffffffffffffffffffffffffff1673ffffffffffffffffffffffffffffffffffffffff1673ffffffffffffffffffffffffffffffffffffffff1681526020016006820160149054906101000a900460ff16151515158152602001600782018054806020026020016040519081016040528092919081815260200182805480156112a557602002820191906000526020600020905b8160009054906101000a900473ffffffffffffffffffffffffffffffffffffffff1673ffffffffffffffffffffffffffffffffffffffff168152602001906001019080831161125b575b505050505081525050905085816020018190525084816040018190525083816060018181525050828160800181905250818160a0018190525080600360008981526020019081526020016000206000820151816000015560208201518160010190805190602001906113189291906139a0565b5060408201518160020190805190602001906113359291906139a0565b5060608201518160030155608082015181600401908051906020019061135c9291906139a0565b5060a08201518160050190805190602001906113799291906139a0565b5060c08201518160060160006101000a81548173ffffffffffffffffffffffffffffffffffffffff021916908373ffffffffffffffffffffffffffffffffffffffff16021790555060e08201518160060160146101000a81548160ff0219169083151502179055506101008201518160070190805190602001906113fe929190613a26565b509050506000600660003373ffffffffffffffffffffffffffffffffffffffff1673ffffffffffffffffffffffffffffffffffffffff16815260200190815260200160002088815481106114555761145461471f565b5b90600052602060002090600802016040518061012001604052908160008201548152602001600182018054611489906145e6565b80601f01602080910402602001604051908101604052809291908181526020018280546114b5906145e6565b80156115025780601f106114d757610100808354040283529160200191611502565b820191906000526020600020905b8154815290600101906020018083116114e557829003601f168201915b5050505050815260200160028201805461151b906145e6565b80601f0160208091040260200160405190810160405280929190818152602001828054611547906145e6565b80156115945780601f1061156957610100808354040283529160200191611594565b820191906000526020600020905b81548152906001019060200180831161157757829003601f168201915b50505050508152602001600382015481526020016004820180546115b7906145e6565b80601f01602080910402602001604051908101604052809291908181526020018280546115e3906145e6565b80156116305780601f1061160557610100808354040283529160200191611630565b820191906000526020600020905b81548152906001019060200180831161161357829003601f168201915b50505050508152602001600582018054611649906145e6565b80601f0160208091040260200160405190810160405280929190818152602001828054611675906145e6565b80156116c25780601f10611697576101008083540402835291602001916116c2565b820191906000526020600020905b8154815290600101906020018083116116a557829003601f168201915b505050505081526020016006820160009054906101000a900473ffffffffffffffffffffffffffffffffffffffff1673ffffffffffffffffffffffffffffffffffffffff1673ffffffffffffffffffffffffffffffffffffffff1681526020016006820160149054906101000a900460ff16151515158152602001600782018054806020026020016040519081016040528092919081815260200182805480156117c157602002820191906000526020600020905b8160009054906101000a900473ffffffffffffffffffffffffffffffffffffffff1673ffffffffffffffffffffffffffffffffffffffff1681526020019060010190808311611777575b505050505081525050905086816020018190525085816040018190525084816060018181525050838160800181905250828160a0018190525080600660003373ffffffffffffffffffffffffffffffffffffffff1673ffffffffffffffffffffffffffffffffffffffff168152602001908152602001600020898154811061184c5761184b61471f565b5b90600052602060002090600802016000820151816000015560208201518160010190805190602001906118809291906139a0565b50604082015181600201908051906020019061189d9291906139a0565b506060820151816003015560808201518160040190805190602001906118c49291906139a0565b5060a08201518160050190805190602001906118e19291906139a0565b5060c08201518160060160006101000a81548173ffffffffffffffffffffffffffffffffffffffff021916908373ffffffffffffffffffffffffffffffffffffffff16021790555060e08201518160060160146101000a81548160ff021916908315150217905550610100820151816007019080519060200190611966929190613a26565b509050505050505050505050565b60008073ffffffffffffffffffffffffffffffffffffffff168273ffffffffffffffffffffffffffffffffffffffff1614156119af57600080fd5b600660008373ffffffffffffffffffffffffffffffffffffffff1673ffffffffffffffffffffffffffffffffffffffff168152602001908152602001600020805490509050919050565b60085481565b611a0881612571565b60036000828152602001908152602001600020600080820160009055600182016000611a349190613ab0565b600282016000611a449190613ab0565b6003820160009055600482016000611a5c9190613ab0565b600582016000611a6c9190613ab0565b6006820160006101000a81549073ffffffffffffffffffffffffffffffffffffffff02191690556006820160146101000a81549060ff0219169055600782016000611ab79190613af0565b5050600781908060018154018082558091505060019003906000526020600020016000909190919091505550565b60006001600460003373ffffffffffffffffffffffffffffffffffffffff1673ffffffffffffffffffffffffffffffffffffffff16815260200190815260200160002060020160000180549050611b3c919061451b565b67ffffffffffffffff811115611b5557611b5461474e565b5b604051908082528060200260200182016040528015611b835781602001602082028036833780820191505090505b5090506000600460003373ffffffffffffffffffffffffffffffffffffffff1673ffffffffffffffffffffffffffffffffffffffff168152602001908152602001600020600201600001805480602002602001604051908101604052809291908181526020018280548015611c1757602002820191906000526020600020905b815481526020019060010190808311611c03575b5050505050905060005b8151811015611d6357838114611c7057818181518110611c4457611c4361471f565b5b6020026020010151838281518110611c5f57611c5e61471f565b5b602002602001018181525050611d50565b60036000838381518110611c8757611c8661471f565b5b6020026020010151815260200190815260200160002060030154600460003373ffffffffffffffffffffffffffffffffffffffff1673ffffffffffffffffffffffffffffffffffffffff1681526020019081526020016000206002016001016000828254611cf5919061451b565b925050819055507fa623e239783d1923197e89ebc14226d544e0c6a48928ebfd977de627b61766bf33838381518110611d3157611d3061471f565b5b6020026020010151604051611d47929190614203565b60405180910390a15b8080611d5b90614649565b915050611c21565b5081600460003373ffffffffffffffffffffffffffffffffffffffff1673ffffffffffffffffffffffffffffffffffffffff1681526020019081526020016000206002016000019080519060200190611dbd929190613b11565b50505050565b60078181548110611dd357600080fd5b906000526020600020016000915090505481565b6003602052806000526040600020600091509050806000015490806001018054611e10906145e6565b80601f0160208091040260200160405190810160405280929190818152602001828054611e3c906145e6565b8015611e895780601f10611e5e57610100808354040283529160200191611e89565b820191906000526020600020905b815481529060010190602001808311611e6c57829003601f168201915b505050505090806002018054611e9e906145e6565b80601f0160208091040260200160405190810160405280929190818152602001828054611eca906145e6565b8015611f175780601f10611eec57610100808354040283529160200191611f17565b820191906000526020600020905b815481529060010190602001808311611efa57829003601f168201915b505050505090806003015490806004018054611f32906145e6565b80601f0160208091040260200160405190810160405280929190818152602001828054611f5e906145e6565b8015611fab5780601f10611f8057610100808354040283529160200191611fab565b820191906000526020600020905b815481529060010190602001808311611f8e57829003601f168201915b505050505090806005018054611fc0906145e6565b80601f0160208091040260200160405190810160405280929190818152602001828054611fec906145e6565b80156120395780601f1061200e57610100808354040283529160200191612039565b820191906000526020600020905b81548152906001019060200180831161201c57829003601f168201915b5050505050908060060160009054906101000a900473ffffffffffffffffffffffffffffffffffffffff16908060060160149054906101000a900460ff16905088565b6000806000600460003373ffffffffffffffffffffffffffffffffffffffff1673ffffffffffffffffffffffffffffffffffffffff168152602001908152602001600020905060006003600086815260200190815260200160002060405180610120016040529081600082015481526020016001820180546120fd906145e6565b80601f0160208091040260200160405190810160405280929190818152602001828054612129906145e6565b80156121765780601f1061214b57610100808354040283529160200191612176565b820191906000526020600020905b81548152906001019060200180831161215957829003601f168201915b5050505050815260200160028201805461218f906145e6565b80601f01602080910402602001604051908101604052809291908181526020018280546121bb906145e6565b80156122085780601f106121dd57610100808354040283529160200191612208565b820191906000526020600020905b8154815290600101906020018083116121eb57829003601f168201915b505050505081526020016003820154815260200160048201805461222b906145e6565b80601f0160208091040260200160405190810160405280929190818152602001828054612257906145e6565b80156122a45780601f10612279576101008083540402835291602001916122a4565b820191906000526020600020905b81548152906001019060200180831161228757829003601f168201915b505050505081526020016005820180546122bd906145e6565b80601f01602080910402602001604051908101604052809291908181526020018280546122e9906145e6565b80156123365780601f1061230b57610100808354040283529160200191612336565b820191906000526020600020905b81548152906001019060200180831161231957829003601f168201915b505050505081526020016006820160009054906101000a900473ffffffffffffffffffffffffffffffffffffffff1673ffffffffffffffffffffffffffffffffffffffff1673ffffffffffffffffffffffffffffffffffffffff1681526020016006820160149054906101000a900460ff161515151581526020016007820180548060200260200160405190810160405280929190818152602001828054801561243557602002820191906000526020600020905b8160009054906101000a900473ffffffffffffffffffffffffffffffffffffffff1673ffffffffffffffffffffffffffffffffffffffff16815260200190600101908083116123eb575b5050505050815250509050600082600201600001805490509050826002016000018260000151908060018154018082558091505060019003906000526020600020016000909190919091505560008360020160010154905082606001518161249d91906144c5565b84600201600101819055508184600201600001805490501115612527577f1e862ddcab5a3222c811c44ecc1c4a46d3da57dde0e884ad6e7e070a8ece23773388856060015187600201600101546040516124fa949392919061422c565b60405180910390a1600180856002016000018054905061251a919061451b565b955095505050505061256c565b7f5f187c44b1528b1d93b313a10cf6038ff514e59499f6790e1e2da2f7d1cfdd303388604051612558929190614203565b60405180910390a160008095509550505050505b915091565b600660003373ffffffffffffffffffffffffffffffffffffffff1673ffffffffffffffffffffffffffffffffffffffff16815260200190815260200160002081815481106125c2576125c161471f565b5b90600052602060002090600802016000808201600090556001820160006125e99190613ab0565b6002820160006125f99190613ab0565b60038201600090556004820160006126119190613ab0565b6005820160006126219190613ab0565b6006820160006101000a81549073ffffffffffffffffffffffffffffffffffffffff02191690556006820160146101000a81549060ff021916905560078201600061266c9190613af0565b505050565b600260009054906101000a900460ff1681565b60015481565b600080600460003373ffffffffffffffffffffffffffffffffffffffff1673ffffffffffffffffffffffffffffffffffffffff16815260200190815260200160002090506040518060400160405280600067ffffffffffffffff8111156126f4576126f361474e565b5b6040519080825280602002602001820160405280156127225781602001602082028036833780820191505090505b508152602001600081525081600201600082015181600001908051906020019061274d929190613b11565b50602082015181600101559050507f69dad80af5bbf467deb57c60ff8e39e3aacc707b1aa1c5b240aab4982f946fee8160000160009054906101000a900473ffffffffffffffffffffffffffffffffffffffff166040516127ae91906141a3565b60405180910390a1600191505090565b600581815481106127ce57600080fd5b906000526020600020016000915054906101000a900473ffffffffffffffffffffffffffffffffffffffff1681565b612805613b5e565b600460008373ffffffffffffffffffffffffffffffffffffffff1673ffffffffffffffffffffffffffffffffffffffff1681526020019081526020016000206040518060600160405290816000820160009054906101000a900473ffffffffffffffffffffffffffffffffffffffff1673ffffffffffffffffffffffffffffffffffffffff1673ffffffffffffffffffffffffffffffffffffffff1681526020016001820180546128b5906145e6565b80601f01602080910402602001604051908101604052809291908181526020018280546128e1906145e6565b801561292e5780601f106129035761010080835404028352916020019161292e565b820191906000526020600020905b81548152906001019060200180831161291157829003601f168201915b50505050508152602001600282016040518060400160405290816000820180548060200260200160405190810160405280929190818152602001828054801561299657602002820191906000526020600020905b815481526020019060010190808311612982575b50505050508152602001600182015481525050815250509050919050565b60095481565b60008551116129c857600080fd5b600083116129d557600080fd5b60006007805490501480612a085750600060076000815481106129fb576129fa61471f565b5b9060005260206000200154145b15612e5457600080815480929190612a1f90614649565b919050555060405180610120016040528060005481526020018681526020018581526020018481526020018381526020018281526020013373ffffffffffffffffffffffffffffffffffffffff168152602001600015158152602001600067ffffffffffffffff811115612a9657612a9561474e565b5b604051908082528060200260200182016040528015612ac45781602001602082028036833780820191505090505b508152506003600080548152602001908152602001600020600082015181600001556020820151816001019080519060200190612b029291906139a0565b506040820151816002019080519060200190612b1f9291906139a0565b50606082015181600301556080820151816004019080519060200190612b469291906139a0565b5060a0820151816005019080519060200190612b639291906139a0565b5060c08201518160060160006101000a81548173ffffffffffffffffffffffffffffffffffffffff021916908373ffffffffffffffffffffffffffffffffffffffff16021790555060e08201518160060160146101000a81548160ff021916908315150217905550610100820151816007019080519060200190612be8929190613a26565b50905050600660003373ffffffffffffffffffffffffffffffffffffffff1673ffffffffffffffffffffffffffffffffffffffff16815260200190815260200160002060405180610120016040528060005481526020018781526020018681526020018581526020018481526020018381526020013373ffffffffffffffffffffffffffffffffffffffff168152602001600015158152602001600067ffffffffffffffff811115612c9d57612c9c61474e565b5b604051908082528060200260200182016040528015612ccb5781602001602082028036833780820191505090505b508152509080600181540180825580915050600190039060005260206000209060080201600090919091909150600082015181600001556020820151816001019080519060200190612d1e9291906139a0565b506040820151816002019080519060200190612d3b9291906139a0565b50606082015181600301556080820151816004019080519060200190612d629291906139a0565b5060a0820151816005019080519060200190612d7f9291906139a0565b5060c08201518160060160006101000a81548173ffffffffffffffffffffffffffffffffffffffff021916908373ffffffffffffffffffffffffffffffffffffffff16021790555060e08201518160060160146101000a81548160ff021916908315150217905550610100820151816007019080519060200190612e04929190613a26565b5050507fbb45e05496e643a69bb522fd78ec743fcc4cecc08d892a6685a76f79e29e1eb46000548686868686336000604051612e4798979695949392919061436f565b60405180910390a1613385565b60006007600081548110612e6b57612e6a61471f565b5b906000526020600020015490506040518061012001604052806007600081548110612e9957612e9861471f565b5b906000526020600020015481526020018781526020018681526020018581526020018481526020018381526020013373ffffffffffffffffffffffffffffffffffffffff168152602001600015158152602001600067ffffffffffffffff811115612f0757612f0661474e565b5b604051908082528060200260200182016040528015612f355781602001602082028036833780820191505090505b50815250600360006007600081548110612f5257612f5161471f565b5b90600052602060002001548152602001908152602001600020600082015181600001556020820151816001019080519060200190612f919291906139a0565b506040820151816002019080519060200190612fae9291906139a0565b50606082015181600301556080820151816004019080519060200190612fd59291906139a0565b5060a0820151816005019080519060200190612ff29291906139a0565b5060c08201518160060160006101000a81548173ffffffffffffffffffffffffffffffffffffffff021916908373ffffffffffffffffffffffffffffffffffffffff16021790555060e08201518160060160146101000a81548160ff021916908315150217905550610100820151816007019080519060200190613077929190613a26565b5090505060078054905060088190555060005b600160078054905061309c919061451b565b8110156131035760076001826130b291906144c5565b815481106130c3576130c261471f565b5b9060005260206000200154600782815481106130e2576130e161471f565b5b906000526020600020018190555080806130fb90614649565b91505061308a565b506007805480613116576131156146f0565b5b600190038181906000526020600020016000905590556040518061012001604052808281526020018781526020018681526020018581526020018481526020018381526020013373ffffffffffffffffffffffffffffffffffffffff168152602001600015158152602001600067ffffffffffffffff81111561319c5761319b61474e565b5b6040519080825280602002602001820160405280156131ca5781602001602082028036833780820191505090505b50815250600660003373ffffffffffffffffffffffffffffffffffffffff1673ffffffffffffffffffffffffffffffffffffffff168152602001908152602001600020828154811061321f5761321e61471f565b5b90600052602060002090600802016000820151816000015560208201518160010190805190602001906132539291906139a0565b5060408201518160020190805190602001906132709291906139a0565b506060820151816003015560808201518160040190805190602001906132979291906139a0565b5060a08201518160050190805190602001906132b49291906139a0565b5060c08201518160060160006101000a81548173ffffffffffffffffffffffffffffffffffffffff021916908373ffffffffffffffffffffffffffffffffffffffff16021790555060e08201518160060160146101000a81548160ff021916908315150217905550610100820151816007019080519060200190613339929190613a26565b509050507fbb45e05496e643a69bb522fd78ec743fcc4cecc08d892a6685a76f79e29e1eb481878787878733600060405161337b98979695949392919061436f565b60405180910390a1505b5050505050565b6000600560009080600181540180825580915050600190039060005260206000200160009091909190916101000a81548173ffffffffffffffffffffffffffffffffffffffff021916908373ffffffffffffffffffffffffffffffffffffffff160217905550600060405180606001604052808573ffffffffffffffffffffffffffffffffffffffff1681526020018481526020016040518060400160405280600067ffffffffffffffff8111156134475761344661474e565b5b6040519080825280602002602001820160405280156134755781602001602082028036833780820191505090505b508152602001600081525081525090506001600081548092919061349890614649565b9190505550600581600001519080600181540180825580915050600190039060005260206000200160009091909190916101000a81548173ffffffffffffffffffffffffffffffffffffffff021916908373ffffffffffffffffffffffffffffffffffffffff16021790555080600460008673ffffffffffffffffffffffffffffffffffffffff1673ffffffffffffffffffffffffffffffffffffffff16815260200190815260200160002060008201518160000160006101000a81548173ffffffffffffffffffffffffffffffffffffffff021916908373ffffffffffffffffffffffffffffffffffffffff16021790555060208201518160010190805190602001906135a79291906139a0565b5060408201518160020160008201518160000190805190602001906135cd929190613b11565b506020820151816001015550509050507f155e8619f4d23b96769599cb9af87da3e06a360082869c18578011da9a06e6708460405161360c91906141a3565b60405180910390a1600191505092915050565b60005481565b60006060806000606080600073ffffffffffffffffffffffffffffffffffffffff168873ffffffffffffffffffffffffffffffffffffffff16141561366957600080fd5b60008760ff1610158015613681575060ff8760ff1611155b61368a57600080fd5b6000600660008a73ffffffffffffffffffffffffffffffffffffffff1673ffffffffffffffffffffffffffffffffffffffff16815260200190815260200160002080549050116136d957600080fd5b6000600660008a73ffffffffffffffffffffffffffffffffffffffff1673ffffffffffffffffffffffffffffffffffffffff1681526020019081526020016000208860ff168154811061372f5761372e61471f565b5b906000526020600020906008020190508060000154816001018260020183600301548460040185600501848054613765906145e6565b80601f0160208091040260200160405190810160405280929190818152602001828054613791906145e6565b80156137de5780601f106137b3576101008083540402835291602001916137de565b820191906000526020600020905b8154815290600101906020018083116137c157829003601f168201915b505050505094508380546137f1906145e6565b80601f016020809104026020016040519081016040528092919081815260200182805461381d906145e6565b801561386a5780601f1061383f5761010080835404028352916020019161386a565b820191906000526020600020905b81548152906001019060200180831161384d57829003601f168201915b5050505050935081805461387d906145e6565b80601f01602080910402602001604051908101604052809291908181526020018280546138a9906145e6565b80156138f65780601f106138cb576101008083540402835291602001916138f6565b820191906000526020600020905b8154815290600101906020018083116138d957829003601f168201915b50505050509150808054613909906145e6565b80601f0160208091040260200160405190810160405280929190818152602001828054613935906145e6565b80156139825780601f1061395757610100808354040283529160200191613982565b820191906000526020600020905b81548152906001019060200180831161396557829003601f168201915b50505050509050965096509650965096509650509295509295509295565b8280546139ac906145e6565b90600052602060002090601f0160209004810192826139ce5760008555613a15565b82601f106139e757805160ff1916838001178555613a15565b82800160010185558215613a15579182015b82811115613a145782518255916020019190600101906139f9565b5b509050613a229190613b9b565b5090565b828054828255906000526020600020908101928215613a9f579160200282015b82811115613a9e5782518260006101000a81548173ffffffffffffffffffffffffffffffffffffffff021916908373ffffffffffffffffffffffffffffffffffffffff16021790555091602001919060010190613a46565b5b509050613aac9190613b9b565b5090565b508054613abc906145e6565b6000825580601f10613ace5750613aed565b601f016020900490600052602060002090810190613aec9190613b9b565b5b50565b5080546000825590600052602060002090810190613b0e9190613b9b565b50565b828054828255906000526020600020908101928215613b4d579160200282015b82811115613b4c578251825591602001919060010190613b31565b5b509050613b5a9190613b9b565b5090565b6040518060600160405280600073ffffffffffffffffffffffffffffffffffffffff16815260200160608152602001613b95613bb8565b81525090565b5b80821115613bb4576000816000905550600101613b9c565b5090565b604051806040016040528060608152602001600081525090565b6000613be5613be08461442e565b614409565b905082815260208101848484011115613c0157613c00614782565b5b613c0c8482856145a4565b509392505050565b600081359050613c23816147a2565b92915050565b600082601f830112613c3e57613c3d61477d565b5b8135613c4e848260208601613bd2565b91505092915050565b600081359050613c66816147b9565b92915050565b600081359050613c7b816147d0565b92915050565b600060208284031215613c9757613c9661478c565b5b6000613ca584828501613c14565b91505092915050565b60008060408385031215613cc557613cc461478c565b5b6000613cd385828601613c14565b925050602083013567ffffffffffffffff811115613cf457613cf3614787565b5b613d0085828601613c29565b9150509250929050565b60008060408385031215613d2157613d2061478c565b5b6000613d2f85828601613c14565b9250506020613d4085828601613c57565b9150509250929050565b60008060408385031215613d6157613d6061478c565b5b6000613d6f85828601613c14565b9250506020613d8085828601613c6c565b9150509250929050565b600080600080600060a08688031215613da657613da561478c565b5b600086013567ffffffffffffffff811115613dc457613dc3614787565b5b613dd088828901613c29565b955050602086013567ffffffffffffffff811115613df157613df0614787565b5b613dfd88828901613c29565b9450506040613e0e88828901613c57565b935050606086013567ffffffffffffffff811115613e2f57613e2e614787565b5b613e3b88828901613c29565b925050608086013567ffffffffffffffff811115613e5c57613e5b614787565b5b613e6888828901613c29565b9150509295509295909350565b600060208284031215613e8b57613e8a61478c565b5b6000613e9984828501613c57565b91505092915050565b60008060008060008060c08789031215613ebf57613ebe61478c565b5b6000613ecd89828a01613c57565b965050602087013567ffffffffffffffff811115613eee57613eed614787565b5b613efa89828a01613c29565b955050604087013567ffffffffffffffff811115613f1b57613f1a614787565b5b613f2789828a01613c29565b9450506060613f3889828a01613c57565b935050608087013567ffffffffffffffff811115613f5957613f58614787565b5b613f6589828a01613c29565b92505060a087013567ffffffffffffffff811115613f8657613f85614787565b5b613f9289828a01613c29565b9150509295509295509295565b6000613fab8383614185565b60208301905092915050565b613fc08161454f565b82525050565b613fcf8161454f565b82525050565b6000613fe08261446f565b613fea8185614492565b9350613ff58361445f565b8060005b8381101561402657815161400d8882613f9f565b975061401883614485565b925050600181019050613ff9565b5085935050505092915050565b61403c81614561565b82525050565b600061404d8261447a565b61405781856144a3565b93506140678185602086016145b3565b61407081614791565b840191505092915050565b60006140868261447a565b61409081856144b4565b93506140a08185602086016145b3565b6140a981614791565b840191505092915050565b600060408301600083015184820360008601526140d18282613fd5565b91505060208301516140e66020860182614185565b508091505092915050565b6000604083016000830151848203600086015261410e8282613fd5565b91505060208301516141236020860182614185565b508091505092915050565b60006060830160008301516141466000860182613fb7565b506020830151848203602086015261415e8282614042565b9150506040830151848203604086015261417882826140b4565b9150508091505092915050565b61418e8161458d565b82525050565b61419d8161458d565b82525050565b60006020820190506141b86000830184613fc6565b92915050565b60006060820190506141d36000830186613fc6565b81810360208301526141e5818561407b565b905081810360408301526141f981846140f1565b9050949350505050565b60006040820190506142186000830185613fc6565b6142256020830184614194565b9392505050565b60006080820190506142416000830187613fc6565b61424e6020830186614194565b61425b6040830185614194565b6142686060830184614194565b95945050505050565b60006020820190506142866000830184614033565b92915050565b60006040820190506142a16000830185614033565b6142ae6020830184614194565b9392505050565b600060208201905081810360008301526142cf818461412e565b905092915050565b60006020820190506142ec6000830184614194565b92915050565b600060c0820190506143076000830189614194565b8181036020830152614319818861407b565b9050818103604083015261432d818761407b565b905061433c6060830186614194565b818103608083015261434e818561407b565b905081810360a0830152614362818461407b565b9050979650505050505050565b600061010082019050614385600083018b614194565b8181036020830152614397818a61407b565b905081810360408301526143ab818961407b565b90506143ba6060830188614194565b81810360808301526143cc818761407b565b905081810360a08301526143e0818661407b565b90506143ef60c0830185613fc6565b6143fc60e0830184614033565b9998505050505050505050565b6000614413614424565b905061441f8282614618565b919050565b6000604051905090565b600067ffffffffffffffff8211156144495761444861474e565b5b61445282614791565b9050602081019050919050565b6000819050602082019050919050565b600081519050919050565b600081519050919050565b6000602082019050919050565b600082825260208201905092915050565b600082825260208201905092915050565b600082825260208201905092915050565b60006144d08261458d565b91506144db8361458d565b9250827fffffffffffffffffffffffffffffffffffffffffffffffffffffffffffffffff038211156145105761450f614692565b5b828201905092915050565b60006145268261458d565b91506145318361458d565b92508282101561454457614543614692565b5b828203905092915050565b600061455a8261456d565b9050919050565b60008115159050919050565b600073ffffffffffffffffffffffffffffffffffffffff82169050919050565b6000819050919050565b600060ff82169050919050565b82818337600083830152505050565b60005b838110156145d15780820151818401526020810190506145b6565b838111156145e0576000848401525b50505050565b600060028204905060018216806145fe57607f821691505b60208210811415614612576146116146c1565b5b50919050565b61462182614791565b810181811067ffffffffffffffff821117156146405761463f61474e565b5b80604052505050565b60006146548261458d565b91507fffffffffffffffffffffffffffffffffffffffffffffffffffffffffffffffff82141561468757614686614692565b5b600182019050919050565b7f4e487b7100000000000000000000000000000000000000000000000000000000600052601160045260246000fd5b7f4e487b7100000000000000000000000000000000000000000000000000000000600052602260045260246000fd5b7f4e487b7100000000000000000000000000000000000000000000000000000000600052603160045260246000fd5b7f4e487b7100000000000000000000000000000000000000000000000000000000600052603260045260246000fd5b7f4e487b7100000000000000000000000000000000000000000000000000000000600052604160045260246000fd5b600080fd5b600080fd5b600080fd5b600080fd5b6000601f19601f8301169050919050565b6147ab8161454f565b81146147b657600080fd5b50565b6147c28161458d565b81146147cd57600080fd5b50565b6147d981614597565b81146147e457600080fd5b5056fea2646970667358221220024610e1dd14457603ed9268591a6d3110fc089fefa98e4432c214249e988a9564736f6c63430008070033",
  "immutableReferences": {},
  "source": "// if purchased w bdi 27zfa\r\n// SPDX-License-Identifier: MIT\r\npragma solidity  ^0.8.0;\r\n\r\ncontract Marketplace {\r\n    //string public name;\r\n    uint public productCount = 0;\r\n    uint public customerCount = 0;\r\n    //to store the products on blockchain\r\n    bool public flag = false;\r\n    mapping(uint => Product) public products;\r\n    //to store the customers on blockchain\r\n    mapping(address  => Customer) public customers;\r\n    address[] public addressLUT;\r\n    // Maps owner to their images\r\n    mapping (address => Product[]) public ownerToProducts;\r\n    uint[] public emptySpaces;\r\n    uint public len; \r\n    uint public ftt = 0;\r\n\r\n    struct Customer {\r\n        address adr;\r\n        string name;\r\n        Cart cart;\r\n    }\r\n\r\n    struct Cart {\r\n      uint256[] products;\r\n      uint256 completeSum;\r\n    }\r\n\r\n    struct Product {\r\n        uint id;\r\n        string name;\r\n        string description;\r\n        uint price;\r\n        string imgipfshash;\r\n        string fileipfshash;\r\n        address owner;\r\n        bool purchased;\r\n        address[] owners;\r\n    }\r\n\r\n    event ProductCreated(uint id, string name, string description, uint price, string imgipfshash, string fileipfshash, address owner, bool purchased);\r\n    event ProductPurchased(uint id, string name, string description, uint price, string imgipfshash, string fileipfshash, address owner, bool purchased);\r\n    event CustomerRegistered(address customer);\r\n    event CustomerRegistrationFailed(address customer);\r\n    event CartProductInserted(address customer, uint256 prodId, uint256 prodPrice, uint256 completeSum);\r\n    event CartProductInsertionFailed(address customer, uint256 prodId);\r\n    event CartProductRemoved(address customer, uint256 prodId);\r\n    event CartEmptied(address customer);\r\n\r\n    // Create a new product with a struct\r\n    // Add the struct to the mapping, and store it on the blockchain\r\n    // Trigger an event that lets someone know a product was creatd\r\n    function createProduct(string memory _name,string memory _description, uint _price,string memory _imgipfshash,string memory _fileipfshash) public {\r\n        // Require a valid name\r\n        require(bytes(_name).length > 0);\r\n        // Require a valid description\r\n        //require(bytes(_description).length > 0);\r\n        // Require a valid price\r\n        require(_price > 0);\r\n        // Require a valid image hash\r\n        //require(bytes(_imgipfshash).length > 0);\r\n        // Require a valid file hash\r\n        //require(bytes(_fileipfshash).length > 0);*/\r\n        // Increment product count\r\n        if(emptySpaces.length == 0 || emptySpaces[0]==0){\r\n                productCount ++;\r\n                products[productCount] = Product(productCount, _name , _description, _price , _imgipfshash , _fileipfshash ,msg.sender, false ,new address[](0));\r\n        \r\n                ownerToProducts[msg.sender].push(Product({\r\n                id: productCount,\r\n                name: _name,\r\n                description: _description,\r\n                price: _price,\r\n                imgipfshash: _imgipfshash,\r\n                fileipfshash:_fileipfshash,\r\n                owner: msg.sender,\r\n                purchased: false,\r\n                owners: new address[](0)\r\n            }));\r\n            emit ProductCreated(productCount, _name, _description, _price, _imgipfshash,_fileipfshash, msg.sender, false);\r\n        }\r\n        else{\r\n            uint tmp = emptySpaces[0];\r\n            products[emptySpaces[0]] = Product(emptySpaces[0], _name , _description ,_price , _imgipfshash ,_fileipfshash, msg.sender, false,new address[](0) );\r\n            len = emptySpaces.length;\r\n            for(uint i = 0;i < emptySpaces.length - 1;i++){\r\n                emptySpaces[i] = emptySpaces[ i+1 ];\r\n            }\r\n            emptySpaces.pop();\r\n            ownerToProducts[msg.sender][tmp] = Product(\r\n                tmp,\r\n                _name,\r\n                _description,\r\n                _price,\r\n                _imgipfshash,\r\n                _fileipfshash,\r\n                msg.sender,\r\n                false,\r\n                new address[](0)\r\n                );\r\n                emit ProductCreated(tmp, _name, _description, _price, _imgipfshash,_fileipfshash, msg.sender, false);\r\n        }\r\n        \r\n    }\r\n\r\n    function removeProduct(uint id1) public {\r\n        removeNestedProduct(id1);\r\n        delete products [id1];\r\n        emptySpaces.push(id1);\r\n    }\r\n    function removeNestedProduct(uint id1) public {\r\n        delete ownerToProducts[msg.sender][id1];\r\n    }\r\n    function purchaseProduct(uint _id) public payable {\r\n        // Fetch the product\r\n        Product memory _product = products[_id];\r\n        // Fetch the owner\r\n        address _seller = _product.owner;\r\n        /*// Make sure the product has a valid id\r\n        require(_product.id > 0 && _product.id <= productCount);\r\n        // Require that there is enough Ether in the transaction\r\n        require(msg.value >= _product.price);\r\n        // Require that the product has not been purchased already\r\n        require(!_product.purchased);\r\n        // Require that the buyer is not the seller\r\n        require(_seller != msg.sender);\r\n        // Transfer ownership to the buyer*/\r\n        _product.owner = msg.sender;\r\n        // Mark as purchased\r\n        _product.purchased = true;\r\n        // Update the product\r\n        products[_id] = _product;\r\n        // Pay the seller by sending them Ether\r\n        payable(_seller).transfer(msg.value);\r\n        removeNestedProduct(_id);\r\n        // Trigger an event\r\n        emit ProductPurchased(productCount, _product.name,_product.description, _product.price, _product.imgipfshash, _product.fileipfshash, msg.sender, true);\r\n    }\r\n    function editProduct(uint256 _id , string memory _name , string memory _des , uint _price , string memory _imgipfshash , string memory _fileipfshash) public{\r\n        Product memory _product = products[_id];\r\n        _product.name = _name;\r\n        _product.description = _des;\r\n        _product.price = _price;\r\n        _product.imgipfshash = _imgipfshash;\r\n        _product.fileipfshash = _fileipfshash;\r\n        products[_id] = _product;\r\n        Product memory _ownerToProducts = ownerToProducts[msg.sender][_id];\r\n        _ownerToProducts.name = _name;\r\n        _ownerToProducts.description = _des;\r\n        _ownerToProducts.price = _price;\r\n        _ownerToProducts.imgipfshash = _imgipfshash;\r\n        _ownerToProducts.fileipfshash = _fileipfshash;\r\n        ownerToProducts[msg.sender][_id] = _ownerToProducts;\r\n        \r\n    }\r\n\r\n    function insertProductIntoCart(uint256 id) public returns (bool success,\r\n                                                  uint256 pos_in_prod_mapping) {\r\n        Customer storage cust = customers[msg.sender];\r\n        Product memory prod = products[id];\r\n        uint256 prods_prev_len = cust.cart.products.length;\r\n        cust.cart.products.push(prod.id);\r\n        uint256 current_sum = cust.cart.completeSum;\r\n        cust.cart.completeSum = current_sum + prod.price;\r\n        if (cust.cart.products.length > prods_prev_len) {\r\n          emit CartProductInserted(msg.sender, id, prod.price, cust.cart.completeSum);\r\n          return (true, cust.cart.products.length - 1);\r\n        }\r\n        emit CartProductInsertionFailed(msg.sender, id);\r\n        return (false, 0);\r\n    }\r\n\r\n    function removeProductFromCart(uint256 prod_pos_in_mapping) public {\r\n        uint256[] memory new_product_list = new uint256[](customers[msg.sender]\r\n                                                    .cart.products.length - 1);\r\n        uint256[] memory customerProds = customers[msg.sender].cart.products;\r\n        for (uint256 i = 0; i < customerProds.length; i++) {\r\n          if (i != prod_pos_in_mapping) {\r\n            new_product_list[i] = customerProds[i];\r\n          } else {\r\n            customers[msg.sender].cart.completeSum -=\r\n                                               products[customerProds[i]].price;\r\n            emit CartProductRemoved(msg.sender, customerProds[i]);\r\n          }\r\n        }\r\n        customers[msg.sender].cart.products = new_product_list;\r\n    }\r\n\r\n    function emptyCart() public returns (bool success) {\r\n        Customer storage customer = customers[msg.sender];\r\n        customer.cart = Cart(new uint256[](0), 0);\r\n        emit CartEmptied(customer.adr);\r\n        return true;\r\n    }\r\n\r\n    function registerCustomer(address _address, string memory _name)\r\n                                        public returns (bool success) {\r\n        addressLUT.push(address(0));\r\n        Customer memory customer = Customer(_address, _name,Cart(new uint256[](0), 0) );\r\n        customerCount++;\r\n        addressLUT.push(customer.adr);\r\n        customers[_address] = customer;\r\n        emit CustomerRegistered(_address);\r\n        return true;\r\n    }\r\n\r\n    function getCustomer(address _adr) view public returns(Customer memory){\r\n    \treturn customers[_adr];\r\n    }\r\n\r\n    function getProductCount(address _owner) view\r\n        public\r\n        returns (uint256) \r\n    {\r\n        require(_owner != address(0));\r\n        return ownerToProducts[_owner].length;\r\n    }\r\n\r\n    function getProduct(address _owner, uint8 _index) view\r\n        public returns (\r\n        uint _id, \r\n        string memory _name, \r\n        string memory _description,\r\n        uint _price,\r\n        string memory imgipfshash,\r\n        string memory fileipfshash\r\n    ) {\r\n\r\n        require(_owner != address(0));\r\n        require(_index >= 0 && _index <= 2**8 - 1);\r\n        require(ownerToProducts[_owner].length > 0);\r\n\r\n        Product storage product = ownerToProducts[_owner][_index];\r\n        \r\n        return (\r\n            product.id, \r\n            product.name,\r\n            product.description,\r\n            product.price,\r\n            product.imgipfshash,\r\n            product.fileipfshash\r\n        );\r\n    }\r\n\r\n}",
  "sourcePath": "C:\\Users\\Administrator\\Desktop\\MarketPlace\\src\\contracts\\Marketplace.sol",
  "compiler": {
    "name": "solc",
    "version": "0.8.7+commit.e28d00a7.Emscripten.clang"
  },
  "schemaVersion": "3.4.2",
  "updatedAt": "2021-08-13T16:03:44.432Z",
  "networkType": "ethereum",
  "devdoc": {
    "kind": "dev",
    "methods": {},
    "version": 1
  },
  "userdoc": {
    "kind": "user",
    "methods": {},
    "version": 1
  }
}