{
  "contractName": "Marketplace",
  "abi": [
    {
      "anonymous": false,
      "inputs": [
        {
          "indexed": false,
          "internalType": "address",
          "name": "customer",
          "type": "address"
        }
      ],
      "name": "CartEmptied",
      "type": "event"
    },
    {
      "anonymous": false,
      "inputs": [
        {
          "indexed": false,
          "internalType": "address",
          "name": "customer",
          "type": "address"
        },
        {
          "indexed": false,
          "internalType": "uint256",
          "name": "prodId",
          "type": "uint256"
        },
        {
          "indexed": false,
          "internalType": "uint256",
          "name": "prodPrice",
          "type": "uint256"
        },
        {
          "indexed": false,
          "internalType": "uint256",
          "name": "completeSum",
          "type": "uint256"
        }
      ],
      "name": "CartProductInserted",
      "type": "event"
    },
    {
      "anonymous": false,
      "inputs": [
        {
          "indexed": false,
          "internalType": "address",
          "name": "customer",
          "type": "address"
        },
        {
          "indexed": false,
          "internalType": "uint256",
          "name": "prodId",
          "type": "uint256"
        }
      ],
      "name": "CartProductInsertionFailed",
      "type": "event"
    },
    {
      "anonymous": false,
      "inputs": [
        {
          "indexed": false,
          "internalType": "address",
          "name": "customer",
          "type": "address"
        },
        {
          "indexed": false,
          "internalType": "uint256",
          "name": "prodId",
          "type": "uint256"
        }
      ],
      "name": "CartProductRemoved",
      "type": "event"
    },
    {
      "anonymous": false,
      "inputs": [
        {
          "indexed": false,
          "internalType": "address",
          "name": "customer",
          "type": "address"
        }
      ],
      "name": "CustomerRegistered",
      "type": "event"
    },
    {
      "anonymous": false,
      "inputs": [
        {
          "indexed": false,
          "internalType": "address",
          "name": "customer",
          "type": "address"
        }
      ],
      "name": "CustomerRegistrationFailed",
      "type": "event"
    },
    {
      "anonymous": false,
      "inputs": [
        {
          "indexed": false,
          "internalType": "uint256",
          "name": "id",
          "type": "uint256"
        },
        {
          "indexed": false,
          "internalType": "string",
          "name": "name",
          "type": "string"
        },
        {
          "indexed": false,
          "internalType": "string",
          "name": "description",
          "type": "string"
        },
        {
          "indexed": false,
          "internalType": "uint256",
          "name": "price",
          "type": "uint256"
        },
        {
          "indexed": false,
          "internalType": "string",
          "name": "imgipfshash",
          "type": "string"
        },
        {
          "indexed": false,
          "internalType": "string",
          "name": "fileipfshash",
          "type": "string"
        },
        {
          "indexed": false,
          "internalType": "address",
          "name": "owner",
          "type": "address"
        }
      ],
      "name": "ProductCreated",
      "type": "event"
    },
    {
      "anonymous": false,
      "inputs": [
        {
          "indexed": false,
          "internalType": "uint256",
          "name": "id",
          "type": "uint256"
        },
        {
          "indexed": false,
          "internalType": "string",
          "name": "name",
          "type": "string"
        },
        {
          "indexed": false,
          "internalType": "string",
          "name": "description",
          "type": "string"
        },
        {
          "indexed": false,
          "internalType": "uint256",
          "name": "price",
          "type": "uint256"
        },
        {
          "indexed": false,
          "internalType": "string",
          "name": "imgipfshash",
          "type": "string"
        },
        {
          "indexed": false,
          "internalType": "address",
          "name": "owner",
          "type": "address"
        }
      ],
      "name": "ProductPurchased",
      "type": "event"
    },
    {
      "inputs": [
        {
          "internalType": "uint256",
          "name": "",
          "type": "uint256"
        }
      ],
      "name": "addressLUT",
      "outputs": [
        {
          "internalType": "address",
          "name": "",
          "type": "address"
        }
      ],
      "stateMutability": "view",
      "type": "function",
      "constant": true
    },
    {
      "inputs": [],
      "name": "customerCount",
      "outputs": [
        {
          "internalType": "uint256",
          "name": "",
          "type": "uint256"
        }
      ],
      "stateMutability": "view",
      "type": "function",
      "constant": true
    },
    {
      "inputs": [
        {
          "internalType": "address",
          "name": "",
          "type": "address"
        }
      ],
      "name": "customers",
      "outputs": [
        {
          "internalType": "address",
          "name": "adr",
          "type": "address"
        },
        {
          "internalType": "string",
          "name": "name",
          "type": "string"
        }
      ],
      "stateMutability": "view",
      "type": "function",
      "constant": true
    },
    {
      "inputs": [
        {
          "internalType": "uint256",
          "name": "",
          "type": "uint256"
        }
      ],
      "name": "files",
      "outputs": [
        {
          "internalType": "string",
          "name": "",
          "type": "string"
        }
      ],
      "stateMutability": "view",
      "type": "function",
      "constant": true
    },
    {
      "inputs": [],
      "name": "flag",
      "outputs": [
        {
          "internalType": "bool",
          "name": "",
          "type": "bool"
        }
      ],
      "stateMutability": "view",
      "type": "function",
      "constant": true
    },
    {
      "inputs": [],
      "name": "ftt",
      "outputs": [
        {
          "internalType": "bool",
          "name": "",
          "type": "bool"
        }
      ],
      "stateMutability": "view",
      "type": "function",
      "constant": true
    },
    {
      "inputs": [],
      "name": "productCount",
      "outputs": [
        {
          "internalType": "uint256",
          "name": "",
          "type": "uint256"
        }
      ],
      "stateMutability": "view",
      "type": "function",
      "constant": true
    },
    {
      "inputs": [
        {
          "internalType": "uint256",
          "name": "",
          "type": "uint256"
        }
      ],
      "name": "products",
      "outputs": [
        {
          "internalType": "uint256",
          "name": "id",
          "type": "uint256"
        },
        {
          "internalType": "string",
          "name": "name",
          "type": "string"
        },
        {
          "internalType": "string",
          "name": "description",
          "type": "string"
        },
        {
          "internalType": "uint256",
          "name": "price",
          "type": "uint256"
        },
        {
          "internalType": "string",
          "name": "imgipfshash",
          "type": "string"
        },
        {
          "internalType": "address",
          "name": "owner",
          "type": "address"
        },
        {
          "internalType": "enum Marketplace.Categories",
          "name": "categorie",
          "type": "uint8"
        },
        {
          "internalType": "uint256",
          "name": "uploadedOn",
          "type": "uint256"
        },
        {
          "internalType": "uint256",
          "name": "rate",
          "type": "uint256"
        },
        {
          "internalType": "uint256",
          "name": "reviewsCount",
          "type": "uint256"
        },
        {
          "internalType": "uint256",
          "name": "totalSold",
          "type": "uint256"
        },
        {
          "internalType": "uint256",
          "name": "report",
          "type": "uint256"
        },
        {
          "internalType": "uint256",
          "name": "removed",
          "type": "uint256"
        }
      ],
      "stateMutability": "view",
      "type": "function",
      "constant": true
    },
    {
      "inputs": [
        {
          "internalType": "string",
          "name": "_name",
          "type": "string"
        },
        {
          "internalType": "string",
          "name": "_description",
          "type": "string"
        },
        {
          "internalType": "uint256",
          "name": "_price",
          "type": "uint256"
        },
        {
          "internalType": "string",
          "name": "_imgipfshash",
          "type": "string"
        },
        {
          "internalType": "string",
          "name": "_fileipfshash",
          "type": "string"
        },
        {
          "internalType": "enum Marketplace.Categories",
          "name": "_categorie",
          "type": "uint8"
        }
      ],
      "name": "createProduct",
      "outputs": [],
      "stateMutability": "nonpayable",
      "type": "function"
    },
    {
      "inputs": [
        {
          "internalType": "uint256",
          "name": "_id",
          "type": "uint256"
        }
      ],
      "name": "purchaseProduct",
      "outputs": [],
      "stateMutability": "payable",
      "type": "function",
      "payable": true
    },
    {
      "inputs": [
        {
          "internalType": "uint256",
          "name": "id1",
          "type": "uint256"
        }
      ],
      "name": "removeProduct",
      "outputs": [],
      "stateMutability": "nonpayable",
      "type": "function"
    },
    {
      "inputs": [
        {
          "internalType": "uint256",
          "name": "id1",
          "type": "uint256"
        }
      ],
      "name": "restoreProduct",
      "outputs": [],
      "stateMutability": "nonpayable",
      "type": "function"
    },
    {
      "inputs": [
        {
          "internalType": "uint256",
          "name": "_id",
          "type": "uint256"
        },
        {
          "internalType": "string",
          "name": "_name",
          "type": "string"
        },
        {
          "internalType": "string",
          "name": "_des",
          "type": "string"
        },
        {
          "internalType": "uint256",
          "name": "_price",
          "type": "uint256"
        },
        {
          "internalType": "enum Marketplace.Categories",
          "name": "_categorie",
          "type": "uint8"
        }
      ],
      "name": "editProduct",
      "outputs": [],
      "stateMutability": "nonpayable",
      "type": "function"
    },
    {
      "inputs": [
        {
          "internalType": "uint256",
          "name": "_id",
          "type": "uint256"
        },
        {
          "internalType": "uint256",
          "name": "_rate",
          "type": "uint256"
        },
        {
          "internalType": "uint256",
          "name": "_score",
          "type": "uint256"
        },
        {
          "internalType": "string",
          "name": "_review",
          "type": "string"
        }
      ],
      "name": "reviewProduct",
      "outputs": [],
      "stateMutability": "nonpayable",
      "type": "function"
    },
    {
      "inputs": [
        {
          "internalType": "address",
          "name": "_address",
          "type": "address"
        },
        {
          "internalType": "string",
          "name": "_name",
          "type": "string"
        }
      ],
      "name": "registerCustomer",
      "outputs": [
        {
          "internalType": "bool",
          "name": "success",
          "type": "bool"
        }
      ],
      "stateMutability": "nonpayable",
      "type": "function"
    },
    {
      "inputs": [
        {
          "internalType": "address",
          "name": "_adr",
          "type": "address"
        }
      ],
      "name": "hasRegistered",
      "outputs": [
        {
          "internalType": "bool",
          "name": "",
          "type": "bool"
        }
      ],
      "stateMutability": "view",
      "type": "function",
      "constant": true
    },
    {
      "inputs": [
        {
          "internalType": "uint256",
          "name": "_id",
          "type": "uint256"
        }
      ],
      "name": "hasReported",
      "outputs": [
        {
          "internalType": "bool",
          "name": "",
          "type": "bool"
        }
      ],
      "stateMutability": "view",
      "type": "function",
      "constant": true
    },
    {
      "inputs": [
        {
          "internalType": "uint256",
          "name": "_id",
          "type": "uint256"
        }
      ],
      "name": "report",
      "outputs": [],
      "stateMutability": "nonpayable",
      "type": "function"
    },
    {
      "inputs": [
        {
          "internalType": "uint256",
          "name": "_id",
          "type": "uint256"
        }
      ],
      "name": "getReport",
      "outputs": [
        {
          "internalType": "uint256",
          "name": "",
          "type": "uint256"
        }
      ],
      "stateMutability": "view",
      "type": "function",
      "constant": true
    },
    {
      "inputs": [
        {
          "internalType": "address",
          "name": "_adr",
          "type": "address"
        }
      ],
      "name": "getUserReviews",
      "outputs": [
        {
          "components": [
            {
              "internalType": "bool",
              "name": "isBuy",
              "type": "bool"
            },
            {
              "internalType": "bool",
              "name": "isReview",
              "type": "bool"
            },
            {
              "internalType": "address",
              "name": "adr",
              "type": "address"
            },
            {
              "internalType": "uint256",
              "name": "pid",
              "type": "uint256"
            },
            {
              "internalType": "string",
              "name": "name",
              "type": "string"
            },
            {
              "internalType": "uint256",
              "name": "rate",
              "type": "uint256"
            },
            {
              "internalType": "string",
              "name": "reviewDescription",
              "type": "string"
            },
            {
              "internalType": "uint256",
              "name": "score",
              "type": "uint256"
            },
            {
              "internalType": "uint256",
              "name": "timeStamp",
              "type": "uint256"
            }
          ],
          "internalType": "struct Marketplace.Review[]",
          "name": "",
          "type": "tuple[]"
        }
      ],
      "stateMutability": "view",
      "type": "function",
      "constant": true
    },
    {
      "inputs": [
        {
          "internalType": "uint256",
          "name": "_id",
          "type": "uint256"
        }
      ],
      "name": "getProductReviews",
      "outputs": [
        {
          "components": [
            {
              "internalType": "bool",
              "name": "isBuy",
              "type": "bool"
            },
            {
              "internalType": "bool",
              "name": "isReview",
              "type": "bool"
            },
            {
              "internalType": "address",
              "name": "adr",
              "type": "address"
            },
            {
              "internalType": "uint256",
              "name": "pid",
              "type": "uint256"
            },
            {
              "internalType": "string",
              "name": "name",
              "type": "string"
            },
            {
              "internalType": "uint256",
              "name": "rate",
              "type": "uint256"
            },
            {
              "internalType": "string",
              "name": "reviewDescription",
              "type": "string"
            },
            {
              "internalType": "uint256",
              "name": "score",
              "type": "uint256"
            },
            {
              "internalType": "uint256",
              "name": "timeStamp",
              "type": "uint256"
            }
          ],
          "internalType": "struct Marketplace.Review[]",
          "name": "",
          "type": "tuple[]"
        }
      ],
      "stateMutability": "view",
      "type": "function",
      "constant": true
    },
    {
      "inputs": [
        {
          "internalType": "uint256",
          "name": "_id",
          "type": "uint256"
        }
      ],
      "name": "getProductBuyers",
      "outputs": [
        {
          "internalType": "address[]",
          "name": "",
          "type": "address[]"
        }
      ],
      "stateMutability": "view",
      "type": "function",
      "constant": true
    },
    {
      "inputs": [
        {
          "internalType": "uint256",
          "name": "_id",
          "type": "uint256"
        }
      ],
      "name": "getProductfile",
      "outputs": [
        {
          "internalType": "string",
          "name": "",
          "type": "string"
        }
      ],
      "stateMutability": "view",
      "type": "function",
      "constant": true
    },
    {
      "inputs": [
        {
          "internalType": "address",
          "name": "adr",
          "type": "address"
        }
      ],
      "name": "getPurchasedProducts",
      "outputs": [
        {
          "internalType": "uint256[]",
          "name": "",
          "type": "uint256[]"
        }
      ],
      "stateMutability": "view",
      "type": "function",
      "constant": true
    }
  ],
  "bytecode": "0x608060405260008080556001556002805460ff19908116909155606460075560088054909116905534801561003357600080fd5b5061257f806100436000396000f3fe60806040526004361061018b5760003560e01c80637b61b702116100d6578063cc94f2d91161007f578063e0f6ef8711610059578063e0f6ef87146104cb578063e4bb50c8146104e1578063f4c714b41461050157600080fd5b8063cc94f2d914610464578063ce9f791d14610491578063db1970f4146104ab57600080fd5b80639757e8a3116100b05780639757e8a3146103e0578063a0d03526146103f6578063aca490181461041657600080fd5b80637b61b70214610386578063890eba68146103a6578063969b1cdb146103c057600080fd5b806342761c85116101385780634e7f9b19116101125780634e7f9b19146102ef5780635ee95cae1461032d5780637acc0b201461034d57600080fd5b806342761c851461028257806343308eef146102a257806346a4237b146102cf57600080fd5b806318d0e8b21161016957806318d0e8b214610214578063336989ae1461024157806338e76a031461026f57600080fd5b8063084874ce146101905780630b784d2d146101c55780630fb9398f146101e7575b600080fd5b34801561019c57600080fd5b506101b06101ab366004611f09565b610521565b60405190151581526020015b60405180910390f35b3480156101d157600080fd5b506101e56101e0366004611e43565b610555565b005b3480156101f357600080fd5b50610207610202366004611f09565b6107b6565b6040516101bc919061213d565b34801561022057600080fd5b5061023461022f366004611dd3565b610825565b6040516101bc919061218a565b34801561024d57600080fd5b5061026161025c366004611dd3565b610a21565b6040516101bc929190612113565b6101e561027d366004611f09565b610ad0565b34801561028e57600080fd5b506101e561029d366004611faa565b610d26565b3480156102ae57600080fd5b506102c26102bd366004611f09565b61118b565b6040516101bc91906122a4565b3480156102db57600080fd5b506102346102ea366004611f09565b611388565b3480156102fb57600080fd5b5061031f61030a366004611f09565b6000908152600360205260409020600e015490565b6040519081526020016101bc565b34801561033957600080fd5b506101e5610348366004611f09565b611576565b34801561035957600080fd5b5061036d610368366004611f09565b6115cd565b6040516101bc9d9c9b9a999897969594939291906122b7565b34801561039257600080fd5b506101e56103a1366004611f22565b6117d8565b3480156103b257600080fd5b506002546101b09060ff1681565b3480156103cc57600080fd5b506101e56103db366004611f09565b6118ab565b3480156103ec57600080fd5b5061031f60015481565b34801561040257600080fd5b506101b0610411366004611dd3565b61192d565b34801561042257600080fd5b5061044c610431366004611f09565b6005602052600090815260409020546001600160a01b031681565b6040516001600160a01b0390911681526020016101bc565b34801561047057600080fd5b5061048461047f366004611dd3565b61198b565b6040516101bc919061226c565b34801561049d57600080fd5b506008546101b09060ff1681565b3480156104b757600080fd5b506101b06104c6366004611df5565b6119f9565b3480156104d757600080fd5b5061031f60005481565b3480156104ed57600080fd5b506101e56104fc366004611f09565b611abd565b34801561050d57600080fd5b506102c261051c366004611f09565b611b10565b6000818152600360209081526040808320338452600d0190915281205460ff1661054d57506000919050565b506001919050565b600086511161056357600080fd5b600085511161057157600080fd5b6000841161057e57600080fd5b600083511161058c57600080fd5b600082511161059a57600080fd5b600080544291806105aa836124d6565b90915550506000805480825260036020908152604090922090815588516105d9926001909201918a0190611baa565b50600080548152600360209081526040909120875161060092600290920191890190611baa565b50600080548152600360208181526040808420909201889055825483529120855161063392600490920191870190611baa565b50600080548152600660209081526040909120845161065492860190611baa565b50600080548152600360205260408082206005908101805473ffffffffffffffffffffffffffffffffffffffff1916331790558254835291200180548391907fffffffffffffffffffffff00ffffffffffffffffffffffffffffffffffffffff16600160a01b83600a8111156106cc576106cc612507565b02179055506000805481526003602081815260408084206006018590558354845280842060080184905583548452808420600e0184905583548452808420338552600d018252808420805460ff1916905583548452828252808420600a01849055805184815280830180835285548652939092529092209151610753926009019190611c2e565b5060008054815260036020526040808220600f01829055905490517f1a3f2c9175d23760b6304c5f19e98b7b12dd25309a0a92996815dcf864cece09916107a5918a908a908a908a908a903390612358565b60405180910390a150505050505050565b60008181526003602090815260409182902060090180548351818402810184019094528084526060939283018282801561081957602002820191906000526020600020905b81546001600160a01b031681526001909101906020018083116107fb575b50505050509050919050565b6001600160a01b0381166000908152600460209081526040808320600301805482518185028101850190935280835260609492939192909184015b82821015610a16576000848152602090819020604080516101208101825260078602909201805460ff80821615158552610100820416151594840194909452620100009093046001600160a01b031690820152600182015460608201526002820180549192916080840191906108d5906124a1565b80601f0160208091040260200160405190810160405280929190818152602001828054610901906124a1565b801561094e5780601f106109235761010080835404028352916020019161094e565b820191906000526020600020905b81548152906001019060200180831161093157829003601f168201915b5050505050815260200160038201548152602001600482018054610971906124a1565b80601f016020809104026020016040519081016040528092919081815260200182805461099d906124a1565b80156109ea5780601f106109bf576101008083540402835291602001916109ea565b820191906000526020600020905b8154815290600101906020018083116109cd57829003601f168201915b505050505081526020016005820154815260200160068201548152505081526020019060010190610860565b505050509050919050565b600460205260009081526040902080546001820180546001600160a01b039092169291610a4d906124a1565b80601f0160208091040260200160405190810160405280929190818152602001828054610a79906124a1565b8015610ac65780601f10610a9b57610100808354040283529160200191610ac6565b820191906000526020600020905b815481529060010190602001808311610aa957829003601f168201915b5050505050905082565b6000818152600360205260409020600501546001600160a01b031633811415610b405760405162461bcd60e51b815260206004820152601f60248201527f596f752063616e6e6f742062757920796f7572206f776e2070726f647563740060448201526064015b60405180910390fd5b60008281526003602052604090205415801590610b6d575060008054838252600360205260409091205411155b610b7657600080fd5b60008281526003602081905260409091200154341015610bd85760405162461bcd60e51b815260206004820152601260248201527f496e73756666696369656e7420457468657200000000000000000000000000006044820152606401610b37565b6001600160a01b038116331415610bee57600080fd5b600082815260036020818152604080842033808652600c82018452918520805460ff1916600190811790915593835260098101805494850181558552918420909201805473ffffffffffffffffffffffffffffffffffffffff1916909217909155838252600a01805491610c61836124d6565b90915550503360009081526004602090815260408083206002018054600181018255908452918320909101849055516001600160a01b038316913480156108fc02929091818181858888f19350505050158015610cc2573d6000803e3d6000fd5b5060008054838252600360208190526040928390209081015492517fa60391b5fc12a2bf84e95996952da9569290e72de60381dafc011bc0fbbd6af193610d1a939260018101926002820192916004019033906123cf565b60405180910390a15050565b6000848152600360209081526040808320338452600c0190915290205460ff161515600114610dbd5760405162461bcd60e51b815260206004820152602b60248201527f596f7520617265206e6f7420656c696769626c6520746f20726576696577207460448201527f6869732070726f647563740000000000000000000000000000000000000000006064820152608401610b37565b6000848152600360209081526040808320338452600c01909152902054610100900460ff1661118557600084815260036020908152604080832033808552600c90910180845282852080546201000084027fffffffffffffffffffff000000000000000000000000000000000000000000ff9091161761010017815582865260018181018b90556004865293862092909552909252018054600290920191610e64906124a1565b610e6f929190611c90565b506000848152600360208181526040808420338552600c0182529092209081018590558251610ea692600490920191840190611baa565b506000848152600360209081526040808320338452600c8101835290832060058101869055426006820155600b909101805460018082018355918552929093208154600790930201805460ff938416151560ff19821681178355835461010090819004909516151590940261ff001990941661ffff199091161792909217808355815462010000908190046001600160a01b0316027fffffffffffffffffffff0000000000000000000000000000000000000000ffff90911617825582810154928201929092556002808301805491830191610f81906124a1565b610f8c929190611c90565b50600382015481600301556004820181600401908054610fab906124a1565b610fb6929190611c90565b50600582810154908201556006918201549101553360008181526004602090815260408083208884526003808452828520958552600c90950183529083209301805460018181018355918452919092208354600790920201805460ff928316151560ff19821681178355855461010090819004909416151590930261ff001990931661ffff199091161791909117808255835462010000908190046001600160a01b0316027fffffffffffffffffffff0000000000000000000000000000000000000000ffff909116178155818301549181019190915560028083018054918301916110a1906124a1565b6110ac929190611c90565b506003820154816003015560048201816004019080546110cb906124a1565b6110d6929190611c90565b50600582810154908201556006918201549101556000848152600360205260408120600801805491611107836124d6565b909155505060008481526003602052604081206008015461112a9060019061248a565b600086815260036020526040902060070154611146919061246b565b90506111528482612431565b6000868152600360205260409020600801549091506111719082612449565b600086815260036020526040902060070155505b50505050565b6000818152600360205260409020600501546060906001600160a01b031633141561124457600082815260066020526040902080546111c9906124a1565b80601f01602080910402602001604051908101604052809291908181526020018280546111f5906124a1565b80156108195780601f1061121757610100808354040283529160200191610819565b820191906000526020600020905b8154815290600101906020018083116112255750939695505050505050565b6000828152600360205260409020600901541561136f5760005b60008381526003602052604090206009015481101561136957600083815260036020526040902060090180543391908390811061129d5761129d61251d565b6000918252602090912001546001600160a01b0316141561135757600083815260066020526040902080546112d1906124a1565b80601f01602080910402602001604051908101604052809291908181526020018280546112fd906124a1565b801561134a5780601f1061131f5761010080835404028352916020019161134a565b820191906000526020600020905b81548152906001019060200180831161132d57829003601f168201915b5050505050915050919050565b80611361816124d6565b91505061125e565b50919050565b505060408051602081019091526000815290565b919050565b606060036000838152602001908152602001600020600b01805480602002602001604051908101604052809291908181526020016000905b82821015610a16576000848152602090819020604080516101208101825260078602909201805460ff80821615158552610100820416151594840194909452620100009093046001600160a01b03169082015260018201546060820152600282018054919291608084019190611435906124a1565b80601f0160208091040260200160405190810160405280929190818152602001828054611461906124a1565b80156114ae5780601f10611483576101008083540402835291602001916114ae565b820191906000526020600020905b81548152906001019060200180831161149157829003601f168201915b50505050508152602001600382015481526020016004820180546114d1906124a1565b80601f01602080910402602001604051908101604052809291908181526020018280546114fd906124a1565b801561154a5780601f1061151f5761010080835404028352916020019161154a565b820191906000526020600020905b81548152906001019060200180831161152d57829003601f168201915b5050505050815260200160058201548152602001600682015481525050815260200190600101906113c0565b6000818152600360205260409020600501546001600160a01b0316331480156115ae57506000818152600360205260409020600f0154155b156115ca5760008181526003602052604090206001600f909101555b50565b600360205260009081526040902080546001820180549192916115ef906124a1565b80601f016020809104026020016040519081016040528092919081815260200182805461161b906124a1565b80156116685780601f1061163d57610100808354040283529160200191611668565b820191906000526020600020905b81548152906001019060200180831161164b57829003601f168201915b50505050509080600201805461167d906124a1565b80601f01602080910402602001604051908101604052809291908181526020018280546116a9906124a1565b80156116f65780601f106116cb576101008083540402835291602001916116f6565b820191906000526020600020905b8154815290600101906020018083116116d957829003601f168201915b505050505090806003015490806004018054611711906124a1565b80601f016020809104026020016040519081016040528092919081815260200182805461173d906124a1565b801561178a5780601f1061175f5761010080835404028352916020019161178a565b820191906000526020600020905b81548152906001019060200180831161176d57829003601f168201915b505050506005830154600684015460078501546008860154600a870154600e880154600f9098015496976001600160a01b03861697600160a01b90960460ff1696509394929391929091908d565b6000858152600360205260409020600501546001600160a01b03163314156118a4576000858152600360209081526040909120855161181f92600190920191870190611baa565b506000858152600360209081526040909120845161184592600290920191860190611baa565b50600085815260036020819052604090912090810183905560050180548291907fffffffffffffffffffffff00ffffffffffffffffffffffffffffffffffffffff16600160a01b83600a81111561189e5761189e612507565b02179055505b5050505050565b6118b481610521565b6115ca576000818152600360205260408120600e018054916118d5836124d6565b90915550506000818152600360208181526040808420338552600d81018352908420805460ff1916600117905560075493859052919052600e0154106115ca5760009081526003602052604090206002600f90910155565b600154600090156119835760015b6001548111611981576000818152600560205260409020546001600160a01b038481169116141561196f5750600192915050565b80611979816124d6565b91505061193b565b505b506000919050565b6001600160a01b03811660009081526004602090815260409182902060020180548351818402810184019094528084526060939283018282801561081957602002820191906000526020600020905b8154815260200190600101908083116119da5750505050509050919050565b6001805460009182611a0a836124d6565b909155505060018054600090815260056020908152604080832080546001600160a01b03891673ffffffffffffffffffffffffffffffffffffffff1991821681179092558185526004845291909320805490911690921782558451611a7793929092019190850190611baa565b506040516001600160a01b03841681527f155e8619f4d23b96769599cb9af87da3e06a360082869c18578011da9a06e6709060200160405180910390a150600192915050565b6000818152600360205260409020600501546001600160a01b031633148015611af757506000818152600360205260409020600f01546001145b156115ca576000908152600360205260408120600f0155565b60066020526000908152604090208054611b29906124a1565b80601f0160208091040260200160405190810160405280929190818152602001828054611b55906124a1565b8015611ba25780601f10611b7757610100808354040283529160200191611ba2565b820191906000526020600020905b815481529060010190602001808311611b8557829003601f168201915b505050505081565b828054611bb6906124a1565b90600052602060002090601f016020900481019282611bd85760008555611c1e565b82601f10611bf157805160ff1916838001178555611c1e565b82800160010185558215611c1e579182015b82811115611c1e578251825591602001919060010190611c03565b50611c2a929150611d0b565b5090565b828054828255906000526020600020908101928215611c1e579160200282015b82811115611c1e578251825473ffffffffffffffffffffffffffffffffffffffff19166001600160a01b03909116178255602090920191600190910190611c4e565b828054611c9c906124a1565b90600052602060002090601f016020900481019282611cbe5760008555611c1e565b82601f10611ccf5780548555611c1e565b82800160010185558215611c1e57600052602060002091601f016020900482015b82811115611c1e578254825591600101919060010190611cf0565b5b80821115611c2a5760008155600101611d0c565b80356001600160a01b038116811461138357600080fd5b8035600b811061138357600080fd5b600082601f830112611d5757600080fd5b813567ffffffffffffffff80821115611d7257611d72612533565b604051601f8301601f19908116603f01168101908282118183101715611d9a57611d9a612533565b81604052838152866020858801011115611db357600080fd5b836020870160208301376000602085830101528094505050505092915050565b600060208284031215611de557600080fd5b611dee82611d20565b9392505050565b60008060408385031215611e0857600080fd5b611e1183611d20565b9150602083013567ffffffffffffffff811115611e2d57600080fd5b611e3985828601611d46565b9150509250929050565b60008060008060008060c08789031215611e5c57600080fd5b863567ffffffffffffffff80821115611e7457600080fd5b611e808a838b01611d46565b97506020890135915080821115611e9657600080fd5b611ea28a838b01611d46565b9650604089013595506060890135915080821115611ebf57600080fd5b611ecb8a838b01611d46565b94506080890135915080821115611ee157600080fd5b50611eee89828a01611d46565b925050611efd60a08801611d37565b90509295509295509295565b600060208284031215611f1b57600080fd5b5035919050565b600080600080600060a08688031215611f3a57600080fd5b85359450602086013567ffffffffffffffff80821115611f5957600080fd5b611f6589838a01611d46565b95506040880135915080821115611f7b57600080fd5b50611f8888828901611d46565b93505060608601359150611f9e60808701611d37565b90509295509295909350565b60008060008060808587031215611fc057600080fd5b843593506020850135925060408501359150606085013567ffffffffffffffff811115611fec57600080fd5b611ff887828801611d46565b91505092959194509250565b600b811061202257634e487b7160e01b600052602160045260246000fd5b9052565b6000815180845260005b8181101561204c57602081850181015186830182015201612030565b8181111561205e576000602083870101525b50601f01601f19169290920160200192915050565b8054600090600181811c908083168061208d57607f831692505b60208084108214156120af57634e487b7160e01b600052602260045260246000fd5b838852602088018280156120ca57600181146120db57612106565b60ff19871682528282019750612106565b60008981526020902060005b87811015612100578154848201529086019084016120e7565b83019850505b5050505050505092915050565b6001600160a01b03831681526040602082015260006121356040830184612026565b949350505050565b6020808252825182820181905260009190848201906040850190845b8181101561217e5783516001600160a01b031683529284019291840191600101612159565b50909695505050505050565b60006020808301818452808551808352604092508286019150828160051b87010184880160005b8381101561225e57603f19898403018552815180511515845287810151151588850152868101516001600160a01b03168785015260608082015190850152608080820151610120828701819052919061220c83880182612026565b9250505060a080830151818701525060c080830151868303828801526122328382612026565b60e0858101519089015261010094850151949097019390935250505093860193908601906001016121b1565b509098975050505050505050565b6020808252825182820181905260009190848201906040850190845b8181101561217e57835183529284019291840191600101612288565b602081526000611dee6020830184612026565b8d81526101a0602082015260006122d26101a083018f612026565b82810360408401526122e4818f612026565b90508c606084015282810360808401526122fe818d612026565b9150506001600160a01b038a1660a083015261231d60c083018a612004565b8760e083015286610100830152856101208301528461014083015283610160830152826101808301529e9d5050505050505050505050505050565b87815260e06020820152600061237160e0830189612026565b82810360408401526123838189612026565b9050866060840152828103608084015261239d8187612026565b905082810360a08401526123b18186612026565b9150506001600160a01b03831660c083015298975050505050505050565b86815260c0602082015260006123e860c0830188612073565b82810360408401526123fa8188612073565b905085606084015282810360808401526124148186612073565b9150506001600160a01b03831660a0830152979650505050505050565b60008219821115612444576124446124f1565b500190565b60008261246657634e487b7160e01b600052601260045260246000fd5b500490565b6000816000190483118215151615612485576124856124f1565b500290565b60008282101561249c5761249c6124f1565b500390565b600181811c908216806124b557607f821691505b6020821081141561136957634e487b7160e01b600052602260045260246000fd5b60006000198214156124ea576124ea6124f1565b5060010190565b634e487b7160e01b600052601160045260246000fd5b634e487b7160e01b600052602160045260246000fd5b634e487b7160e01b600052603260045260246000fd5b634e487b7160e01b600052604160045260246000fdfea2646970667358221220e7e321c8806462e9ff647224619b49f45249ae1b2861c0184423059037af297964736f6c63430008070033",
  "immutableReferences": {},
  "source": "// SPDX-License-Identifier: MIT\r\npragma solidity  ^0.8.0;\r\n\r\ncontract Marketplace {\r\n    //string public name;\r\n    uint public productCount = 0;\r\n    uint public customerCount = 0;\r\n    //to store the products on blockchain\r\n    bool public flag = false;\r\n    mapping(uint => Product) public products;\r\n    //mapping(uint => uint[]) public productsRates;\r\n    //mapping(uint => string[]) public productsReviews;\r\n    //to store the customers on blockchain\r\n    mapping(address  => Customer) public customers;\r\n    mapping(uint => address) public addressLUT;\r\n    mapping(uint => string) public files;\r\n    uint256 MAXREPORT = 100;\r\n    bool public ftt =false;\r\n    \r\n    enum Categories {\r\n        Tech,\r\n        PCGames,\r\n        PS4Games,\r\n        XboxGames,\r\n        Movies,\r\n        Courses,\r\n        Books,\r\n        AudioBooks,\r\n        Images,\r\n        Videos,\r\n        Other\r\n    }\r\n    struct Review{\r\n        bool isBuy;\r\n        bool isReview;\r\n        address adr;\r\n        uint pid;\r\n        string name;\r\n        uint256 rate;\r\n        string reviewDescription;\r\n        uint256 score;\r\n        uint timeStamp;\r\n    }\r\n    struct Customer {\r\n        address adr;\r\n        string name;\r\n        uint256[] purchasedProducts;\r\n        Review[] reviews;\r\n    }\r\n\r\n    struct Product {\r\n        uint id;\r\n        string name;\r\n        string description;\r\n        uint price;\r\n        string imgipfshash;\r\n        address owner;\r\n        Categories categorie;\r\n        uint256 uploadedOn;\r\n        uint256 rate;\r\n        uint256 reviewsCount;\r\n        address[] buyers;\r\n        uint256 totalSold;\r\n        Review [] reviews;\r\n        mapping (address=>Review) productUserReview;\r\n        mapping (address => bool)hasReported;\r\n        uint report;\r\n        uint removed;\r\n    }\r\n\r\n    event ProductCreated(uint id, string name, string description, uint price, string imgipfshash, string fileipfshash, address owner);\r\n    event ProductPurchased(uint id, string name, string description, uint price, string imgipfshash, address owner);\r\n    event CustomerRegistered(address customer);\r\n    event CustomerRegistrationFailed(address customer);\r\n    event CartProductInserted(address customer, uint256 prodId, uint256 prodPrice, uint256 completeSum);\r\n    event CartProductInsertionFailed(address customer, uint256 prodId);\r\n    event CartProductRemoved(address customer, uint256 prodId);\r\n    event CartEmptied(address customer);\r\n\r\n    // Create a new product with a struct\r\n    // Add the struct to the mapping, and store it on the blockchain\r\n    // Trigger an event that lets someone know a product was creatd\r\n    function createProduct(string memory _name,string memory _description, uint _price,string memory _imgipfshash,string memory _fileipfshash , Categories _categorie ) public {\r\n        // Require a valid name\r\n        require(bytes(_name).length > 0);\r\n        // Require a valid description\r\n        require(bytes(_description).length > 0);\r\n        // Require a valid price\r\n        require(_price > 0);\r\n        // Require a valid image hash\r\n        require(bytes(_imgipfshash).length > 0);\r\n        // Require a valid file hash\r\n        require(bytes(_fileipfshash).length > 0);\r\n        // Increment product count\r\n        uint256 _uploadedOn = block.timestamp;\r\n        //increment number of products\r\n        productCount ++;\r\n        //add this Product to the products map\r\n        products[productCount].id = productCount;\r\n        products[productCount].name = _name;\r\n        products[productCount].description = _description;\r\n        products[productCount].price = _price;\r\n        products[productCount].imgipfshash = _imgipfshash;\r\n        files[productCount] = _fileipfshash;\r\n        products[productCount].owner = msg.sender;\r\n        products[productCount].categorie = _categorie;\r\n        products[productCount].uploadedOn = _uploadedOn;\r\n        products[productCount].reviewsCount = 0;\r\n        products[productCount].report = 0;\r\n        products[productCount].hasReported[msg.sender] = false;\r\n        products[productCount].totalSold = 0;\r\n        products[productCount].buyers = new address[](0);\r\n        products[productCount].removed = 0;\r\n        //add this product to the customer's owned product\r\n        //create an event\r\n        emit ProductCreated(productCount, _name, _description, _price, _imgipfshash,_fileipfshash, msg.sender);\r\n    }\r\n\r\n    function purchaseProduct(uint _id) public payable {\r\n        // Fetch the owner\r\n        address _seller = products[_id].owner;\r\n        require(products[_id].owner != msg.sender, \"You cannot buy your own product\");\r\n        // Make sure the product has a valid id\r\n        require(products[_id].id > 0 && products[_id].id <= productCount);\r\n        // Require that there is enough Ether in the transaction\r\n        require(msg.value >= products[_id].price, \"Insufficient Ether\");\r\n        // Require that the buyer is not the seller\r\n        require(_seller != msg.sender);\r\n        //add to products a user can revie\r\n        products[_id].productUserReview[msg.sender].isBuy = true;\r\n        //add this customer to the people who bought this product\r\n        products[_id].buyers.push(msg.sender);\r\n        //update total purchases\r\n        products[_id].totalSold++;\r\n        //add to the products owners\r\n        customers[msg.sender].purchasedProducts.push(_id);\r\n        // Pay the seller by sending them Ether\r\n        payable(_seller).transfer(msg.value);\r\n        // Trigger an event\r\n        emit ProductPurchased(productCount, products[_id].name,products[_id].description, products[_id].price, products[_id].imgipfshash, msg.sender);\r\n    }\r\n    function removeProduct(uint id1) public {\r\n        if(msg.sender == products[id1].owner && products[id1].removed == 0){\r\n            products[id1].removed = 1;\r\n        }\r\n    }\r\n    function restoreProduct(uint id1) public {\r\n        if(msg.sender == products[id1].owner && products[id1].removed == 1){\r\n            products[id1].removed = 0;\r\n        }\r\n    }\r\n    function editProduct(uint256 _id , string memory _name , string memory _des , uint _price , Categories _categorie) public{\r\n        if(msg.sender == products[_id].owner){\r\n            products[_id].name = _name;\r\n            products[_id].description = _des;\r\n            products[_id].price = _price;\r\n            products[_id].categorie = _categorie;\r\n            \r\n        }\r\n    }\r\n    function reviewProduct(uint _id,uint256 _rate,uint256 _score, string memory _review) public\r\n    {\r\n           require(products[_id].productUserReview[msg.sender].isBuy == true, \"You are not eligible to review this product\");\r\n           if (products[_id].productUserReview[msg.sender].isReview == false){ //only once\r\n               products[_id].productUserReview[msg.sender].isReview = true;\r\n\r\n               products[_id].productUserReview[msg.sender].adr = msg.sender;\r\n               products[_id].productUserReview[msg.sender].pid = _id;\r\n               products[_id].productUserReview[msg.sender].name = customers[msg.sender].name;\r\n               products[_id].productUserReview[msg.sender].rate = _rate;\r\n               products[_id].productUserReview[msg.sender].reviewDescription = _review;\r\n               products[_id].productUserReview[msg.sender].score = _score;\r\n               products[_id].productUserReview[msg.sender].timeStamp = block.timestamp;\r\n\r\n    \r\n               products[_id].reviews.push(products[_id].productUserReview[msg.sender]);\r\n               customers[msg.sender].reviews.push(products[_id].productUserReview[msg.sender]);\r\n               products[_id].reviewsCount ++;\r\n               \r\n               //calculate and update product rate\r\n                uint avg = (products[_id].rate) * (products[_id].reviewsCount - 1);\r\n                avg += _rate;\r\n                products[_id].rate = avg / products[_id].reviewsCount;\r\n           }\r\n\r\n    }\r\n\r\n    function registerCustomer(address _address, string memory _name)\r\n                                        public returns (bool success) {\r\n        customerCount++;\r\n        addressLUT[customerCount]=_address;\r\n        customers[_address].adr = _address;\r\n        customers[_address].name = _name;\r\n        emit CustomerRegistered(_address);\r\n        return true;\r\n    }\r\n    function hasRegistered(address _adr) public view returns(bool){\r\n        if(customerCount>0){\r\n            for(uint i=1;i<=customerCount;i++){\r\n                if(addressLUT[i] == _adr)\r\n                    return true;\r\n            }\r\n        }\r\n        return false;\r\n    } \r\n    function hasReported(uint _id) public view returns(bool){\r\n        if(products[_id].hasReported[msg.sender] == false)\r\n            return false;\r\n        return true;\r\n    } \r\n    function report(uint _id) public {\r\n        if(!hasReported(_id)){\r\n            products[_id].report++;\r\n            products[_id].hasReported[msg.sender] = true;\r\n            if(products[_id].report >= MAXREPORT){\r\n                products[_id].removed = 2;\r\n            }\r\n        }\r\n    }\r\n    function getReport(uint _id) public view returns(uint){\r\n        return products[_id].report;\r\n    }\r\n    function getUserReviews(address _adr) public view returns (Review[] memory){\r\n        return customers[_adr].reviews;\r\n    }\r\n    function getProductReviews(uint _id) public view returns (Review[] memory){\r\n        return products[_id].reviews;\r\n    }\r\n    function getProductBuyers(uint _id) public view returns(address[] memory){\r\n        return products[_id].buyers;\r\n    }\r\n    function getProductfile(uint _id) public view returns(string memory){\r\n        if(products[_id].owner == msg.sender){\r\n            return files[_id];\r\n        }\r\n        else if(products[_id].buyers.length > 0)\r\n        for(uint i=0;i<products[_id].buyers.length;i++){\r\n            if(products[_id].buyers[i] == msg.sender)\r\n                return files[_id];\r\n        }\r\n        else\r\n        return \"\";\r\n    }\r\n    function getPurchasedProducts(address adr) public view returns( uint256[] memory){\r\n        return customers[adr].purchasedProducts;\r\n    }\r\n\r\n}",
  "sourcePath": "C:\\Users\\Administrator\\Desktop\\MarketPlace\\src\\contracts\\Marketplace.sol",
  "compiler": {
    "name": "solc",
    "version": "0.8.7+commit.e28d00a7.Emscripten.clang"
  },
  "schemaVersion": "3.4.2",
  "updatedAt": "2021-08-31T16:03:08.540Z",
  "networkType": "ethereum",
  "devdoc": {
    "kind": "dev",
    "methods": {},
    "version": 1
  },
  "userdoc": {
    "kind": "user",
    "methods": {},
    "version": 1
  }
}