{
  "contractName": "Marketplace",
  "abi": [
    {
      "anonymous": false,
      "inputs": [
        {
          "indexed": false,
          "internalType": "address",
          "name": "customer",
          "type": "address"
        }
      ],
      "name": "CartEmptied",
      "type": "event"
    },
    {
      "anonymous": false,
      "inputs": [
        {
          "indexed": false,
          "internalType": "address",
          "name": "customer",
          "type": "address"
        },
        {
          "indexed": false,
          "internalType": "uint256",
          "name": "prodId",
          "type": "uint256"
        },
        {
          "indexed": false,
          "internalType": "uint256",
          "name": "prodPrice",
          "type": "uint256"
        },
        {
          "indexed": false,
          "internalType": "uint256",
          "name": "completeSum",
          "type": "uint256"
        }
      ],
      "name": "CartProductInserted",
      "type": "event"
    },
    {
      "anonymous": false,
      "inputs": [
        {
          "indexed": false,
          "internalType": "address",
          "name": "customer",
          "type": "address"
        },
        {
          "indexed": false,
          "internalType": "uint256",
          "name": "prodId",
          "type": "uint256"
        }
      ],
      "name": "CartProductInsertionFailed",
      "type": "event"
    },
    {
      "anonymous": false,
      "inputs": [
        {
          "indexed": false,
          "internalType": "address",
          "name": "customer",
          "type": "address"
        },
        {
          "indexed": false,
          "internalType": "uint256",
          "name": "prodId",
          "type": "uint256"
        }
      ],
      "name": "CartProductRemoved",
      "type": "event"
    },
    {
      "anonymous": false,
      "inputs": [
        {
          "indexed": false,
          "internalType": "address",
          "name": "customer",
          "type": "address"
        }
      ],
      "name": "CustomerRegistered",
      "type": "event"
    },
    {
      "anonymous": false,
      "inputs": [
        {
          "indexed": false,
          "internalType": "address",
          "name": "customer",
          "type": "address"
        }
      ],
      "name": "CustomerRegistrationFailed",
      "type": "event"
    },
    {
      "anonymous": false,
      "inputs": [
        {
          "indexed": false,
          "internalType": "uint256",
          "name": "id",
          "type": "uint256"
        },
        {
          "indexed": false,
          "internalType": "string",
          "name": "name",
          "type": "string"
        },
        {
          "indexed": false,
          "internalType": "string",
          "name": "description",
          "type": "string"
        },
        {
          "indexed": false,
          "internalType": "uint256",
          "name": "price",
          "type": "uint256"
        },
        {
          "indexed": false,
          "internalType": "string",
          "name": "imgipfshash",
          "type": "string"
        },
        {
          "indexed": false,
          "internalType": "string",
          "name": "fileipfshash",
          "type": "string"
        },
        {
          "indexed": false,
          "internalType": "address",
          "name": "owner",
          "type": "address"
        }
      ],
      "name": "ProductCreated",
      "type": "event"
    },
    {
      "anonymous": false,
      "inputs": [
        {
          "indexed": false,
          "internalType": "uint256",
          "name": "id",
          "type": "uint256"
        },
        {
          "indexed": false,
          "internalType": "string",
          "name": "name",
          "type": "string"
        },
        {
          "indexed": false,
          "internalType": "string",
          "name": "description",
          "type": "string"
        },
        {
          "indexed": false,
          "internalType": "uint256",
          "name": "price",
          "type": "uint256"
        },
        {
          "indexed": false,
          "internalType": "string",
          "name": "imgipfshash",
          "type": "string"
        },
        {
          "indexed": false,
          "internalType": "address",
          "name": "owner",
          "type": "address"
        }
      ],
      "name": "ProductPurchased",
      "type": "event"
    },
    {
      "inputs": [
        {
          "internalType": "uint256",
          "name": "",
          "type": "uint256"
        }
      ],
      "name": "addressLUT",
      "outputs": [
        {
          "internalType": "address",
          "name": "",
          "type": "address"
        }
      ],
      "stateMutability": "view",
      "type": "function",
      "constant": true
    },
    {
      "inputs": [
        {
          "internalType": "enum Marketplace.Categories",
          "name": "",
          "type": "uint8"
        },
        {
          "internalType": "uint256",
          "name": "",
          "type": "uint256"
        }
      ],
      "name": "categorieToProduct",
      "outputs": [
        {
          "internalType": "uint256",
          "name": "",
          "type": "uint256"
        }
      ],
      "stateMutability": "view",
      "type": "function",
      "constant": true
    },
    {
      "inputs": [],
      "name": "customerCount",
      "outputs": [
        {
          "internalType": "uint256",
          "name": "",
          "type": "uint256"
        }
      ],
      "stateMutability": "view",
      "type": "function",
      "constant": true
    },
    {
      "inputs": [
        {
          "internalType": "address",
          "name": "",
          "type": "address"
        }
      ],
      "name": "customers",
      "outputs": [
        {
          "internalType": "address",
          "name": "adr",
          "type": "address"
        },
        {
          "internalType": "string",
          "name": "name",
          "type": "string"
        },
        {
          "components": [
            {
              "internalType": "uint256[]",
              "name": "products",
              "type": "uint256[]"
            },
            {
              "internalType": "uint256",
              "name": "completeSum",
              "type": "uint256"
            }
          ],
          "internalType": "struct Marketplace.Cart",
          "name": "cart",
          "type": "tuple"
        }
      ],
      "stateMutability": "view",
      "type": "function",
      "constant": true
    },
    {
      "inputs": [
        {
          "internalType": "uint256",
          "name": "",
          "type": "uint256"
        }
      ],
      "name": "files",
      "outputs": [
        {
          "internalType": "string",
          "name": "",
          "type": "string"
        }
      ],
      "stateMutability": "view",
      "type": "function",
      "constant": true
    },
    {
      "inputs": [],
      "name": "flag",
      "outputs": [
        {
          "internalType": "bool",
          "name": "",
          "type": "bool"
        }
      ],
      "stateMutability": "view",
      "type": "function",
      "constant": true
    },
    {
      "inputs": [],
      "name": "productCount",
      "outputs": [
        {
          "internalType": "uint256",
          "name": "",
          "type": "uint256"
        }
      ],
      "stateMutability": "view",
      "type": "function",
      "constant": true
    },
    {
      "inputs": [
        {
          "internalType": "uint256",
          "name": "",
          "type": "uint256"
        }
      ],
      "name": "products",
      "outputs": [
        {
          "internalType": "uint256",
          "name": "id",
          "type": "uint256"
        },
        {
          "internalType": "string",
          "name": "name",
          "type": "string"
        },
        {
          "internalType": "string",
          "name": "description",
          "type": "string"
        },
        {
          "internalType": "uint256",
          "name": "price",
          "type": "uint256"
        },
        {
          "internalType": "string",
          "name": "imgipfshash",
          "type": "string"
        },
        {
          "internalType": "address",
          "name": "owner",
          "type": "address"
        },
        {
          "internalType": "enum Marketplace.Categories",
          "name": "categorie",
          "type": "uint8"
        },
        {
          "internalType": "uint256",
          "name": "uploadedOn",
          "type": "uint256"
        },
        {
          "internalType": "uint256",
          "name": "reviewsCount",
          "type": "uint256"
        },
        {
          "internalType": "uint256",
          "name": "totalSold",
          "type": "uint256"
        },
        {
          "internalType": "uint256",
          "name": "report",
          "type": "uint256"
        }
      ],
      "stateMutability": "view",
      "type": "function",
      "constant": true
    },
    {
      "inputs": [
        {
          "internalType": "string",
          "name": "_name",
          "type": "string"
        },
        {
          "internalType": "string",
          "name": "_description",
          "type": "string"
        },
        {
          "internalType": "uint256",
          "name": "_price",
          "type": "uint256"
        },
        {
          "internalType": "string",
          "name": "_imgipfshash",
          "type": "string"
        },
        {
          "internalType": "string",
          "name": "_fileipfshash",
          "type": "string"
        },
        {
          "internalType": "enum Marketplace.Categories",
          "name": "_categorie",
          "type": "uint8"
        }
      ],
      "name": "createProduct",
      "outputs": [],
      "stateMutability": "nonpayable",
      "type": "function"
    },
    {
      "inputs": [
        {
          "internalType": "uint256",
          "name": "_id",
          "type": "uint256"
        }
      ],
      "name": "purchaseProduct",
      "outputs": [],
      "stateMutability": "payable",
      "type": "function",
      "payable": true
    },
    {
      "inputs": [
        {
          "internalType": "uint256",
          "name": "id1",
          "type": "uint256"
        }
      ],
      "name": "removeProduct",
      "outputs": [],
      "stateMutability": "nonpayable",
      "type": "function"
    },
    {
      "inputs": [
        {
          "internalType": "uint256",
          "name": "_id",
          "type": "uint256"
        },
        {
          "internalType": "string",
          "name": "_name",
          "type": "string"
        },
        {
          "internalType": "string",
          "name": "_des",
          "type": "string"
        },
        {
          "internalType": "uint256",
          "name": "_price",
          "type": "uint256"
        },
        {
          "internalType": "enum Marketplace.Categories",
          "name": "_categorie",
          "type": "uint8"
        }
      ],
      "name": "editProduct",
      "outputs": [],
      "stateMutability": "nonpayable",
      "type": "function"
    },
    {
      "inputs": [
        {
          "internalType": "uint256",
          "name": "_id",
          "type": "uint256"
        },
        {
          "internalType": "uint256",
          "name": "_rate",
          "type": "uint256"
        },
        {
          "internalType": "uint256",
          "name": "_score",
          "type": "uint256"
        },
        {
          "internalType": "string",
          "name": "_review",
          "type": "string"
        }
      ],
      "name": "reviewProduct",
      "outputs": [],
      "stateMutability": "nonpayable",
      "type": "function"
    },
    {
      "inputs": [
        {
          "internalType": "address",
          "name": "_address",
          "type": "address"
        },
        {
          "internalType": "string",
          "name": "_name",
          "type": "string"
        }
      ],
      "name": "registerCustomer",
      "outputs": [
        {
          "internalType": "bool",
          "name": "success",
          "type": "bool"
        }
      ],
      "stateMutability": "nonpayable",
      "type": "function"
    },
    {
      "inputs": [
        {
          "internalType": "uint256",
          "name": "_id",
          "type": "uint256"
        }
      ],
      "name": "report",
      "outputs": [],
      "stateMutability": "nonpayable",
      "type": "function"
    },
    {
      "inputs": [
        {
          "internalType": "uint256",
          "name": "_id",
          "type": "uint256"
        }
      ],
      "name": "getReport",
      "outputs": [
        {
          "internalType": "uint256",
          "name": "",
          "type": "uint256"
        }
      ],
      "stateMutability": "view",
      "type": "function",
      "constant": true
    },
    {
      "inputs": [
        {
          "internalType": "uint256",
          "name": "_id",
          "type": "uint256"
        }
      ],
      "name": "getProductReviews",
      "outputs": [
        {
          "components": [
            {
              "internalType": "bool",
              "name": "isBuy",
              "type": "bool"
            },
            {
              "internalType": "bool",
              "name": "isReview",
              "type": "bool"
            },
            {
              "internalType": "string",
              "name": "reviewDescription",
              "type": "string"
            },
            {
              "internalType": "uint256",
              "name": "score",
              "type": "uint256"
            },
            {
              "internalType": "uint256",
              "name": "timeStamp",
              "type": "uint256"
            }
          ],
          "internalType": "struct Marketplace.Review[]",
          "name": "",
          "type": "tuple[]"
        }
      ],
      "stateMutability": "view",
      "type": "function",
      "constant": true
    },
    {
      "inputs": [
        {
          "internalType": "uint256",
          "name": "_id",
          "type": "uint256"
        }
      ],
      "name": "getProductBuyers",
      "outputs": [
        {
          "internalType": "address[]",
          "name": "",
          "type": "address[]"
        }
      ],
      "stateMutability": "view",
      "type": "function",
      "constant": true
    },
    {
      "inputs": [
        {
          "internalType": "uint256",
          "name": "_id",
          "type": "uint256"
        }
      ],
      "name": "getProductfile",
      "outputs": [
        {
          "internalType": "string",
          "name": "",
          "type": "string"
        }
      ],
      "stateMutability": "view",
      "type": "function",
      "constant": true
    },
    {
      "inputs": [
        {
          "internalType": "address",
          "name": "adr",
          "type": "address"
        }
      ],
      "name": "getPurchasedProducts",
      "outputs": [
        {
          "internalType": "uint256[]",
          "name": "",
          "type": "uint256[]"
        }
      ],
      "stateMutability": "view",
      "type": "function",
      "constant": true
    }
  ],
  "bytecode": "0x60806040526000805560006001556000600260006101000a81548160ff021916908315150217905550606460085534801561003957600080fd5b506135ff806100496000396000f3fe60806040526004361061011f5760003560e01c80637acc0b20116100a0578063aca4901811610064578063aca490181461041a578063cc94f2d914610457578063db1970f414610494578063e0f6ef87146104d1578063f4c714b4146104fc5761011f565b80637acc0b201461032b5780637b61b70214610372578063890eba681461039b578063969b1cdb146103c65780639757e8a3146103ef5761011f565b806342761c85116100e757806342761c851461022257806343308eef1461024b57806346a4237b146102885780634e7f9b19146102c55780635ee95cae146103025761011f565b80630b784d2d146101245780630fb9398f1461014d57806330a7bfe71461018a578063336989ae146101c757806338e76a0314610206575b600080fd5b34801561013057600080fd5b5061014b600480360381019061014691906127d2565b610539565b005b34801561015957600080fd5b50610174600480360381019061016f91906128cf565b610917565b6040516101819190612e96565b60405180910390f35b34801561019657600080fd5b506101b160048036038101906101ac9190612792565b6109bb565b6040516101be9190612f59565b60405180910390f35b3480156101d357600080fd5b506101ee60048036038101906101e99190612709565b6109ec565b6040516101fd93929190612e51565b60405180910390f35b610220600480360381019061021b91906128cf565b610b2a565b005b34801561022e57600080fd5b50610249600480360381019061024491906129af565b610dc3565b005b34801561025757600080fd5b50610272600480360381019061026d91906128cf565b61123e565b60405161027f9190612f17565b60405180910390f35b34801561029457600080fd5b506102af60048036038101906102aa91906128cf565b6114f3565b6040516102bc9190612eb8565b60405180910390f35b3480156102d157600080fd5b506102ec60048036038101906102e791906128cf565b611644565b6040516102f99190612f59565b60405180910390f35b34801561030e57600080fd5b50610329600480360381019061032491906128cf565b611664565b005b34801561033757600080fd5b50610352600480360381019061034d91906128cf565b611a7a565b6040516103699b9a99989796959493929190612f74565b60405180910390f35b34801561037e57600080fd5b50610399600480360381019061039491906128fc565b611c99565b005b3480156103a757600080fd5b506103b0611dba565b6040516103bd9190612efc565b60405180910390f35b3480156103d257600080fd5b506103ed60048036038101906103e891906128cf565b611dcd565b005b3480156103fb57600080fd5b50610404611eff565b6040516104119190612f59565b60405180910390f35b34801561042657600080fd5b50610441600480360381019061043c91906128cf565b611f05565b60405161044e9190612e36565b60405180910390f35b34801561046357600080fd5b5061047e60048036038101906104799190612709565b611f38565b60405161048b9190612eda565b60405180910390f35b3480156104a057600080fd5b506104bb60048036038101906104b69190612736565b611fd2565b6040516104c89190612efc565b60405180910390f35b3480156104dd57600080fd5b506104e66122c9565b6040516104f39190612f59565b60405180910390f35b34801561050857600080fd5b50610523600480360381019061051e91906128cf565b6122cf565b6040516105309190612f17565b60405180910390f35b600086511161054757600080fd5b600085511161055557600080fd5b6000841161056257600080fd5b600083511161057057600080fd5b600082511161057e57600080fd5b6000429050600080815480929190610595906133cf565b919050555060005460036000805481526020019081526020016000206000018190555086600360008054815260200190815260200160002060010190805190602001906105e392919061236f565b50856003600080548152602001908152602001600020600201908051906020019061060f92919061236f565b5084600360008054815260200190815260200160002060030181905550836003600080548152602001908152602001600020600401908051906020019061065792919061236f565b50826007600080548152602001908152602001600020908051906020019061068092919061236f565b5033600360008054815260200190815260200160002060050160006101000a81548173ffffffffffffffffffffffffffffffffffffffff021916908373ffffffffffffffffffffffffffffffffffffffff16021790555081600360008054815260200190815260200160002060050160146101000a81548160ff0219169083600a81111561071157610710613447565b5b021790555080600360008054815260200190815260200160002060060181905550600060036000805481526020019081526020016000206007018190555060006003600080548152602001908152602001600020600e01819055506000600360008054815260200190815260200160002060090181905550600067ffffffffffffffff8111156107a4576107a36134d4565b5b6040519080825280602002602001820160405280156107d25781602001602082028036833780820191505090505b50600360008054815260200190815260200160002060080190805190602001906107fd9291906123f5565b506004600083600a81111561081557610814613447565b5b600a81111561082757610826613447565b5b81526020019081526020016000206000549080600181540180825580915050600190039060005260206000200160009091909190915055600560003373ffffffffffffffffffffffffffffffffffffffff1673ffffffffffffffffffffffffffffffffffffffff16815260200190815260200160002060020160005490806001815401808255809150506001900390600052602060002001600090919091909150557f1a3f2c9175d23760b6304c5f19e98b7b12dd25309a0a92996815dcf864cece096000548888888888336040516109069796959493929190613034565b60405180910390a150505050505050565b6060600360008381526020019081526020016000206008018054806020026020016040519081016040528092919081815260200182805480156109af57602002820191906000526020600020905b8160009054906101000a900473ffffffffffffffffffffffffffffffffffffffff1673ffffffffffffffffffffffffffffffffffffffff1681526020019060010190808311610965575b50505050509050919050565b600460205281600052604060002081815481106109d757600080fd5b90600052602060002001600091509150505481565b60056020528060005260406000206000915090508060000160009054906101000a900473ffffffffffffffffffffffffffffffffffffffff1690806001018054610a359061336c565b80601f0160208091040260200160405190810160405280929190818152602001828054610a619061336c565b8015610aae5780601f10610a8357610100808354040283529160200191610aae565b820191906000526020600020905b815481529060010190602001808311610a9157829003601f168201915b5050505050908060040160405180604001604052908160008201805480602002602001604051908101604052809291908181526020018280548015610b1257602002820191906000526020600020905b815481526020019060010190808311610afe575b50505050508152602001600182015481525050905083565b60006003600083815260200190815260200160002060050160009054906101000a900473ffffffffffffffffffffffffffffffffffffffff169050600160036000848152602001908152602001600020600c0160003373ffffffffffffffffffffffffffffffffffffffff1673ffffffffffffffffffffffffffffffffffffffff16815260200190815260200160002060000160006101000a81548160ff02191690831515021790555060036000838152602001908152602001600020600801339080600181540180825580915050600190039060005260206000200160009091909190916101000a81548173ffffffffffffffffffffffffffffffffffffffff021916908373ffffffffffffffffffffffffffffffffffffffff160217905550600360008381526020019081526020016000206009016000815480929190610c72906133cf565b9190505550600560003373ffffffffffffffffffffffffffffffffffffffff1673ffffffffffffffffffffffffffffffffffffffff1681526020019081526020016000206003018290806001815401808255809150506001900390600052602060002001600090919091909150558073ffffffffffffffffffffffffffffffffffffffff166108fc349081150290604051600060405180830381858888f19350505050158015610d26573d6000803e3d6000fd5b507fa60391b5fc12a2bf84e95996952da9569290e72de60381dafc011bc0fbbd6af1600054600360008581526020019081526020016000206001016003600086815260200190815260200160002060020160036000878152602001908152602001600020600301546003600088815260200190815260200160002060040133604051610db7969594939291906130bf565b60405180910390a15050565b6001151560036000868152602001908152602001600020600c0160003373ffffffffffffffffffffffffffffffffffffffff1673ffffffffffffffffffffffffffffffffffffffff16815260200190815260200160002060000160009054906101000a900460ff16151514610e6d576040517f08c379a0000000000000000000000000000000000000000000000000000000008152600401610e6490612f39565b60405180910390fd5b6000151560036000868152602001908152602001600020600c0160003373ffffffffffffffffffffffffffffffffffffffff1673ffffffffffffffffffffffffffffffffffffffff16815260200190815260200160002060000160019054906101000a900460ff161515141561123857600160036000868152602001908152602001600020600c0160003373ffffffffffffffffffffffffffffffffffffffff1673ffffffffffffffffffffffffffffffffffffffff16815260200190815260200160002060000160016101000a81548160ff0219169083151502179055508060036000868152602001908152602001600020600c0160003373ffffffffffffffffffffffffffffffffffffffff1673ffffffffffffffffffffffffffffffffffffffff1681526020019081526020016000206001019080519060200190610fb692919061236f565b508160036000868152602001908152602001600020600c0160003373ffffffffffffffffffffffffffffffffffffffff1673ffffffffffffffffffffffffffffffffffffffff168152602001908152602001600020600201819055504260036000868152602001908152602001600020600c0160003373ffffffffffffffffffffffffffffffffffffffff1673ffffffffffffffffffffffffffffffffffffffff168152602001908152602001600020600301819055503360036000868152602001908152602001600020600b0160006003600088815260200190815260200160002060070154815260200190815260200160002060006101000a81548173ffffffffffffffffffffffffffffffffffffffff021916908373ffffffffffffffffffffffffffffffffffffffff16021790555060036000858152602001908152602001600020600a0160036000868152602001908152602001600020600c0160003373ffffffffffffffffffffffffffffffffffffffff1673ffffffffffffffffffffffffffffffffffffffff16815260200190815260200160002090806001815401808255809150506001900390600052602060002090600402016000909190919091506000820160009054906101000a900460ff168160000160006101000a81548160ff0219169083151502179055506000820160019054906101000a900460ff168160000160016101000a81548160ff02191690831515021790555060018201816001019080546111e99061336c565b6111f492919061247f565b5060028201548160020155600382015481600301555050600360008581526020019081526020016000206007016000815480929190611232906133cf565b91905055505b50505050565b60603373ffffffffffffffffffffffffffffffffffffffff166003600084815260200190815260200160002060050160009054906101000a900473ffffffffffffffffffffffffffffffffffffffff1673ffffffffffffffffffffffffffffffffffffffff16141561134d576007600083815260200190815260200160002080546112c89061336c565b80601f01602080910402602001604051908101604052809291908181526020018280546112f49061336c565b80156113415780601f1061131657610100808354040283529160200191611341565b820191906000526020600020905b81548152906001019060200180831161132457829003601f168201915b505050505090506114ee565b6000600360008481526020019081526020016000206008018054905011156114d65760005b60036000848152602001908152602001600020600801805490508110156114d0573373ffffffffffffffffffffffffffffffffffffffff166003600085815260200190815260200160002060080182815481106113d2576113d16134a5565b5b9060005260206000200160009054906101000a900473ffffffffffffffffffffffffffffffffffffffff1673ffffffffffffffffffffffffffffffffffffffff1614156114bd576007600084815260200190815260200160002080546114379061336c565b80601f01602080910402602001604051908101604052809291908181526020018280546114639061336c565b80156114b05780601f10611485576101008083540402835291602001916114b0565b820191906000526020600020905b81548152906001019060200180831161149357829003601f168201915b50505050509150506114ee565b80806114c8906133cf565b915050611372565b506114ed565b6040518060200160405280600081525090506114ee565b5b919050565b606060036000838152602001908152602001600020600a01805480602002602001604051908101604052809291908181526020016000905b8282101561163957838290600052602060002090600402016040518060a00160405290816000820160009054906101000a900460ff161515151581526020016000820160019054906101000a900460ff161515151581526020016001820180546115949061336c565b80601f01602080910402602001604051908101604052809291908181526020018280546115c09061336c565b801561160d5780601f106115e25761010080835404028352916020019161160d565b820191906000526020600020905b8154815290600101906020018083116115f057829003601f168201915b50505050508152602001600282015481526020016003820154815250508152602001906001019061152b565b505050509050919050565b600060036000838152602001908152602001600020600e01549050919050565b6003600082815260200190815260200160002060050160009054906101000a900473ffffffffffffffffffffffffffffffffffffffff1673ffffffffffffffffffffffffffffffffffffffff163373ffffffffffffffffffffffffffffffffffffffff161415611a7757600360008281526020019081526020016000206000808201600090556001820160006116fa919061250c565b60028201600061170a919061250c565b6003820160009055600482016000611722919061250c565b6005820160006101000a81549073ffffffffffffffffffffffffffffffffffffffff02191690556005820160146101000a81549060ff02191690556006820160009055600782016000905560088201600061177d919061254c565b6009820160009055600a82016000611795919061256d565b600e820160009055505060006003600083815260200190815260200160002060050160149054906101000a900460ff1690506004600082600a8111156117de576117dd613447565b5b600a8111156117f0576117ef613447565b5b815260200190815260200160002060018361180b9190613289565b8154811061181c5761181b6134a5565b5b9060005260206000200160009055600060036000848152602001908152602001600020600b0160006003600086815260200190815260200160002060070154815260200190815260200160002060009054906101000a900473ffffffffffffffffffffffffffffffffffffffff16905060036000848152602001908152602001600020600b0160006003600086815260200190815260200160002060070154815260200190815260200160002060006101000a81549073ffffffffffffffffffffffffffffffffffffffff021916905560036000848152602001908152602001600020600c0160008273ffffffffffffffffffffffffffffffffffffffff1673ffffffffffffffffffffffffffffffffffffffff168152602001908152602001600020600080820160006101000a81549060ff02191690556000820160016101000a81549060ff0219169055600182016000611978919061250c565b60028201600090556003820160009055505060005b600054811015611a735783600560003373ffffffffffffffffffffffffffffffffffffffff1673ffffffffffffffffffffffffffffffffffffffff16815260200190815260200160002060020182815481106119ec576119eb6134a5565b5b90600052602060002001541415611a6057600560003373ffffffffffffffffffffffffffffffffffffffff1673ffffffffffffffffffffffffffffffffffffffff1681526020019081526020016000206002018181548110611a5157611a506134a5565b5b90600052602060002001600090555b8080611a6b906133cf565b91505061198d565b5050505b50565b6003602052806000526040600020600091509050806000015490806001018054611aa39061336c565b80601f0160208091040260200160405190810160405280929190818152602001828054611acf9061336c565b8015611b1c5780601f10611af157610100808354040283529160200191611b1c565b820191906000526020600020905b815481529060010190602001808311611aff57829003601f168201915b505050505090806002018054611b319061336c565b80601f0160208091040260200160405190810160405280929190818152602001828054611b5d9061336c565b8015611baa5780601f10611b7f57610100808354040283529160200191611baa565b820191906000526020600020905b815481529060010190602001808311611b8d57829003601f168201915b505050505090806003015490806004018054611bc59061336c565b80601f0160208091040260200160405190810160405280929190818152602001828054611bf19061336c565b8015611c3e5780601f10611c1357610100808354040283529160200191611c3e565b820191906000526020600020905b815481529060010190602001808311611c2157829003601f168201915b5050505050908060050160009054906101000a900473ffffffffffffffffffffffffffffffffffffffff16908060050160149054906101000a900460ff169080600601549080600701549080600901549080600e015490508b565b6003600086815260200190815260200160002060050160009054906101000a900473ffffffffffffffffffffffffffffffffffffffff1673ffffffffffffffffffffffffffffffffffffffff163373ffffffffffffffffffffffffffffffffffffffff161415611db35783600360008781526020019081526020016000206001019080519060200190611d2d92919061236f565b5082600360008781526020019081526020016000206002019080519060200190611d5892919061236f565b50816003600087815260200190815260200160002060030181905550806003600087815260200190815260200160002060050160146101000a81548160ff0219169083600a811115611dad57611dac613447565b5b02179055505b5050505050565b600260009054906101000a900460ff1681565b6000151560036000838152602001908152602001600020600d0160003373ffffffffffffffffffffffffffffffffffffffff1673ffffffffffffffffffffffffffffffffffffffff16815260200190815260200160002060009054906101000a900460ff1615151415611efc5760036000828152602001908152602001600020600e016000815480929190611e61906133cf565b9190505550600160036000838152602001908152602001600020600d0160003373ffffffffffffffffffffffffffffffffffffffff1673ffffffffffffffffffffffffffffffffffffffff16815260200190815260200160002060006101000a81548160ff02191690831515021790555060085460036000838152602001908152602001600020600e015410611efb57611efa81611664565b5b5b50565b60015481565b60066020528060005260406000206000915054906101000a900473ffffffffffffffffffffffffffffffffffffffff1681565b6060600560008373ffffffffffffffffffffffffffffffffffffffff1673ffffffffffffffffffffffffffffffffffffffff168152602001908152602001600020600301805480602002602001604051908101604052809291908181526020018280548015611fc657602002820191906000526020600020905b815481526020019060010190808311611fb2575b50505050509050919050565b6000806040518060a001604052808573ffffffffffffffffffffffffffffffffffffffff168152602001848152602001600067ffffffffffffffff81111561201d5761201c6134d4565b5b60405190808252806020026020018201604052801561204b5781602001602082028036833780820191505090505b508152602001600067ffffffffffffffff81111561206c5761206b6134d4565b5b60405190808252806020026020018201604052801561209a5781602001602082028036833780820191505090505b5081526020016040518060400160405280600067ffffffffffffffff8111156120c6576120c56134d4565b5b6040519080825280602002602001820160405280156120f45781602001602082028036833780820191505090505b5081526020016000815250815250905060016000815480929190612117906133cf565b9190505550806000015160066000600154815260200190815260200160002060006101000a81548173ffffffffffffffffffffffffffffffffffffffff021916908373ffffffffffffffffffffffffffffffffffffffff16021790555080600560008673ffffffffffffffffffffffffffffffffffffffff1673ffffffffffffffffffffffffffffffffffffffff16815260200190815260200160002060008201518160000160006101000a81548173ffffffffffffffffffffffffffffffffffffffff021916908373ffffffffffffffffffffffffffffffffffffffff160217905550602082015181600101908051906020019061221792919061236f565b506040820151816002019080519060200190612234929190612591565b506060820151816003019080519060200190612251929190612591565b506080820151816004016000820151816000019080519060200190612277929190612591565b506020820151816001015550509050507f155e8619f4d23b96769599cb9af87da3e06a360082869c18578011da9a06e670846040516122b69190612e36565b60405180910390a1600191505092915050565b60005481565b600760205280600052604060002060009150905080546122ee9061336c565b80601f016020809104026020016040519081016040528092919081815260200182805461231a9061336c565b80156123675780601f1061233c57610100808354040283529160200191612367565b820191906000526020600020905b81548152906001019060200180831161234a57829003601f168201915b505050505081565b82805461237b9061336c565b90600052602060002090601f01602090048101928261239d57600085556123e4565b82601f106123b657805160ff19168380011785556123e4565b828001600101855582156123e4579182015b828111156123e35782518255916020019190600101906123c8565b5b5090506123f191906125de565b5090565b82805482825590600052602060002090810192821561246e579160200282015b8281111561246d5782518260006101000a81548173ffffffffffffffffffffffffffffffffffffffff021916908373ffffffffffffffffffffffffffffffffffffffff16021790555091602001919060010190612415565b5b50905061247b91906125de565b5090565b82805461248b9061336c565b90600052602060002090601f0160209004810192826124ad57600085556124fb565b82601f106124be57805485556124fb565b828001600101855582156124fb57600052602060002091601f016020900482015b828111156124fa5782548255916001019190600101906124df565b5b50905061250891906125de565b5090565b5080546125189061336c565b6000825580601f1061252a5750612549565b601f01602090049060005260206000209081019061254891906125de565b5b50565b508054600082559060005260206000209081019061256a91906125de565b50565b508054600082556004029060005260206000209081019061258e91906125fb565b50565b8280548282559060005260206000209081019282156125cd579160200282015b828111156125cc5782518255916020019190600101906125b1565b5b5090506125da91906125de565b5090565b5b808211156125f75760008160009055506001016125df565b5090565b5b8082111561265657600080820160006101000a81549060ff02191690556000820160016101000a81549060ff021916905560018201600061263d919061250c565b60028201600090556003820160009055506004016125fc565b5090565b600061266d6126688461315a565b613135565b90508281526020810184848401111561268957612688613508565b5b61269484828561332a565b509392505050565b6000813590506126ab8161358b565b92915050565b6000813590506126c0816135a2565b92915050565b600082601f8301126126db576126da613503565b5b81356126eb84826020860161265a565b91505092915050565b600081359050612703816135b2565b92915050565b60006020828403121561271f5761271e613512565b5b600061272d8482850161269c565b91505092915050565b6000806040838503121561274d5761274c613512565b5b600061275b8582860161269c565b925050602083013567ffffffffffffffff81111561277c5761277b61350d565b5b612788858286016126c6565b9150509250929050565b600080604083850312156127a9576127a8613512565b5b60006127b7858286016126b1565b92505060206127c8858286016126f4565b9150509250929050565b60008060008060008060c087890312156127ef576127ee613512565b5b600087013567ffffffffffffffff81111561280d5761280c61350d565b5b61281989828a016126c6565b965050602087013567ffffffffffffffff81111561283a5761283961350d565b5b61284689828a016126c6565b955050604061285789828a016126f4565b945050606087013567ffffffffffffffff8111156128785761287761350d565b5b61288489828a016126c6565b935050608087013567ffffffffffffffff8111156128a5576128a461350d565b5b6128b189828a016126c6565b92505060a06128c289828a016126b1565b9150509295509295509295565b6000602082840312156128e5576128e4613512565b5b60006128f3848285016126f4565b91505092915050565b600080600080600060a0868803121561291857612917613512565b5b6000612926888289016126f4565b955050602086013567ffffffffffffffff8111156129475761294661350d565b5b612953888289016126c6565b945050604086013567ffffffffffffffff8111156129745761297361350d565b5b612980888289016126c6565b9350506060612991888289016126f4565b92505060806129a2888289016126b1565b9150509295509295909350565b600080600080608085870312156129c9576129c8613512565b5b60006129d7878288016126f4565b94505060206129e8878288016126f4565b93505060406129f9878288016126f4565b925050606085013567ffffffffffffffff811115612a1a57612a1961350d565b5b612a26878288016126c6565b91505092959194509250565b6000612a3e8383612a76565b60208301905092915050565b6000612a568383612da2565b905092915050565b6000612a6a8383612e18565b60208301905092915050565b612a7f816132bd565b82525050565b612a8e816132bd565b82525050565b6000612a9f826131d0565b612aa98185613223565b9350612ab48361318b565b8060005b83811015612ae5578151612acc8882612a32565b9750612ad7836131fc565b925050600181019050612ab8565b5085935050505092915050565b6000612afd826131db565b612b078185613234565b935083602082028501612b198561319b565b8060005b85811015612b555784840389528151612b368582612a4a565b9450612b4183613209565b925060208a01995050600181019050612b1d565b50829750879550505050505092915050565b6000612b72826131e6565b612b7c8185613245565b9350612b87836131ab565b8060005b83811015612bb8578151612b9f8882612a5e565b9750612baa83613216565b925050600181019050612b8b565b5085935050505092915050565b6000612bd0826131e6565b612bda8185613256565b9350612be5836131ab565b8060005b83811015612c16578151612bfd8882612a5e565b9750612c0883613216565b925050600181019050612be9565b5085935050505092915050565b612c2c816132cf565b82525050565b612c3b816132cf565b82525050565b612c4a81613318565b82525050565b6000612c5b826131f1565b612c658185613267565b9350612c75818560208601613339565b612c7e81613517565b840191505092915050565b6000612c94826131f1565b612c9e8185613278565b9350612cae818560208601613339565b612cb781613517565b840191505092915050565b60008154612ccf8161336c565b612cd98186613278565b94506001821660008114612cf45760018114612d0657612d39565b60ff1983168652602086019350612d39565b612d0f856131bb565b60005b83811015612d3157815481890152600182019150602081019050612d12565b808801955050505b50505092915050565b6000612d4f602b83613278565b9150612d5a82613528565b604082019050919050565b60006040830160008301518482036000860152612d828282612b67565b9150506020830151612d976020860182612e18565b508091505092915050565b600060a083016000830151612dba6000860182612c23565b506020830151612dcd6020860182612c23565b5060408301518482036040860152612de58282612c50565b9150506060830151612dfa6060860182612e18565b506080830151612e0d6080860182612e18565b508091505092915050565b612e218161330e565b82525050565b612e308161330e565b82525050565b6000602082019050612e4b6000830184612a85565b92915050565b6000606082019050612e666000830186612a85565b8181036020830152612e788185612c89565b90508181036040830152612e8c8184612d65565b9050949350505050565b60006020820190508181036000830152612eb08184612a94565b905092915050565b60006020820190508181036000830152612ed28184612af2565b905092915050565b60006020820190508181036000830152612ef48184612bc5565b905092915050565b6000602082019050612f116000830184612c32565b92915050565b60006020820190508181036000830152612f318184612c89565b905092915050565b60006020820190508181036000830152612f5281612d42565b9050919050565b6000602082019050612f6e6000830184612e27565b92915050565b600061016082019050612f8a600083018e612e27565b8181036020830152612f9c818d612c89565b90508181036040830152612fb0818c612c89565b9050612fbf606083018b612e27565b8181036080830152612fd1818a612c89565b9050612fe060a0830189612a85565b612fed60c0830188612c41565b612ffa60e0830187612e27565b613008610100830186612e27565b613016610120830185612e27565b613024610140830184612e27565b9c9b505050505050505050505050565b600060e082019050613049600083018a612e27565b818103602083015261305b8189612c89565b9050818103604083015261306f8188612c89565b905061307e6060830187612e27565b81810360808301526130908186612c89565b905081810360a08301526130a48185612c89565b90506130b360c0830184612a85565b98975050505050505050565b600060c0820190506130d46000830189612e27565b81810360208301526130e68188612cc2565b905081810360408301526130fa8187612cc2565b90506131096060830186612e27565b818103608083015261311b8185612cc2565b905061312a60a0830184612a85565b979650505050505050565b600061313f613150565b905061314b828261339e565b919050565b6000604051905090565b600067ffffffffffffffff821115613175576131746134d4565b5b61317e82613517565b9050602081019050919050565b6000819050602082019050919050565b6000819050602082019050919050565b6000819050602082019050919050565b60008190508160005260206000209050919050565b600081519050919050565b600081519050919050565b600081519050919050565b600081519050919050565b6000602082019050919050565b6000602082019050919050565b6000602082019050919050565b600082825260208201905092915050565b600082825260208201905092915050565b600082825260208201905092915050565b600082825260208201905092915050565b600082825260208201905092915050565b600082825260208201905092915050565b60006132948261330e565b915061329f8361330e565b9250828210156132b2576132b1613418565b5b828203905092915050565b60006132c8826132ee565b9050919050565b60008115159050919050565b60008190506132e982613577565b919050565b600073ffffffffffffffffffffffffffffffffffffffff82169050919050565b6000819050919050565b6000613323826132db565b9050919050565b82818337600083830152505050565b60005b8381101561335757808201518184015260208101905061333c565b83811115613366576000848401525b50505050565b6000600282049050600182168061338457607f821691505b6020821081141561339857613397613476565b5b50919050565b6133a782613517565b810181811067ffffffffffffffff821117156133c6576133c56134d4565b5b80604052505050565b60006133da8261330e565b91507fffffffffffffffffffffffffffffffffffffffffffffffffffffffffffffffff82141561340d5761340c613418565b5b600182019050919050565b7f4e487b7100000000000000000000000000000000000000000000000000000000600052601160045260246000fd5b7f4e487b7100000000000000000000000000000000000000000000000000000000600052602160045260246000fd5b7f4e487b7100000000000000000000000000000000000000000000000000000000600052602260045260246000fd5b7f4e487b7100000000000000000000000000000000000000000000000000000000600052603260045260246000fd5b7f4e487b7100000000000000000000000000000000000000000000000000000000600052604160045260246000fd5b600080fd5b600080fd5b600080fd5b600080fd5b6000601f19601f8301169050919050565b7f596f7520617265206e6f7420656c696769626c6520746f20726576696577207460008201527f6869732070726f64756374000000000000000000000000000000000000000000602082015250565b600b811061358857613587613447565b5b50565b613594816132bd565b811461359f57600080fd5b50565b600b81106135af57600080fd5b50565b6135bb8161330e565b81146135c657600080fd5b5056fea26469706673582212201806f6369ced1a64180014c5ab7644c098da0603903d7f5e583df445d31072d064736f6c63430008070033",
  "immutableReferences": {},
  "source": "//buyer w purchasedProduct\r\n// SPDX-License-Identifier: MIT\r\npragma solidity  ^0.8.0;\r\n\r\ncontract Marketplace {\r\n    //string public name;\r\n    uint public productCount = 0;\r\n    uint public customerCount = 0;\r\n    //to store the products on blockchain\r\n    bool public flag = false;\r\n    mapping(uint => Product) public products;\r\n    //mapping(uint => uint[]) public productsRates;\r\n    //mapping(uint => string[]) public productsReviews;\r\n    mapping(Categories => uint[]) public categorieToProduct;\r\n    //to store the customers on blockchain\r\n    mapping(address  => Customer) public customers;\r\n    mapping(uint => address) public addressLUT;\r\n    mapping(uint => string) public files;\r\n    uint256 MAXREPORT = 100;\r\n    \r\n    enum Categories {\r\n        Tech,\r\n        PCGames,\r\n        PS4Games,\r\n        XboxGames,\r\n        Movies,\r\n        Courses,\r\n        Books,\r\n        AudioBooks,\r\n        Images,\r\n        Videos,\r\n        Other\r\n    }\r\n    struct Review{\r\n        bool isBuy;\r\n        bool isReview;\r\n        string reviewDescription;\r\n        uint256 score;\r\n        uint timeStamp;\r\n    }\r\n    struct Customer {\r\n        address adr;\r\n        string name;\r\n        uint256[] ownedProducts;\r\n        uint256[] purchasedProducts;\r\n        Cart cart;\r\n        \r\n    }\r\n\r\n    struct Cart {\r\n      uint256[] products;\r\n      uint256 completeSum;\r\n    }\r\n\r\n    struct Product {\r\n        uint id;\r\n        string name;\r\n        string description;\r\n        uint price;\r\n        string imgipfshash;\r\n        address owner;\r\n        Categories categorie;\r\n        uint256 uploadedOn;\r\n        //uint256 rate;\r\n        uint256 reviewsCount;\r\n        address[] buyers;\r\n        uint256 totalSold;\r\n        Review [] reviews;\r\n        mapping (uint=>address) raters; //address of reviewers\r\n        mapping (address=>Review) productUserReview;\r\n        mapping (address => bool)hasReported;\r\n        uint report;\r\n        //bool removed;\r\n    }\r\n\r\n    event ProductCreated(uint id, string name, string description, uint price, string imgipfshash, string fileipfshash, address owner);\r\n    event ProductPurchased(uint id, string name, string description, uint price, string imgipfshash, address owner);\r\n    event CustomerRegistered(address customer);\r\n    event CustomerRegistrationFailed(address customer);\r\n    event CartProductInserted(address customer, uint256 prodId, uint256 prodPrice, uint256 completeSum);\r\n    event CartProductInsertionFailed(address customer, uint256 prodId);\r\n    event CartProductRemoved(address customer, uint256 prodId);\r\n    event CartEmptied(address customer);\r\n\r\n    // Create a new product with a struct\r\n    // Add the struct to the mapping, and store it on the blockchain\r\n    // Trigger an event that lets someone know a product was creatd\r\n    function createProduct(string memory _name,string memory _description, uint _price,string memory _imgipfshash,string memory _fileipfshash , Categories _categorie ) public {\r\n        // Require a valid name\r\n        require(bytes(_name).length > 0);\r\n        // Require a valid description\r\n        require(bytes(_description).length > 0);\r\n        // Require a valid price\r\n        require(_price > 0);\r\n        // Require a valid image hash\r\n        require(bytes(_imgipfshash).length > 0);\r\n        // Require a valid file hash\r\n        require(bytes(_fileipfshash).length > 0);\r\n        // Increment product count\r\n        uint256 _uploadedOn = block.timestamp;\r\n        //increment number of products\r\n        productCount ++;\r\n        //add this Product to the products map\r\n        products[productCount].id = productCount;\r\n        products[productCount].name = _name;\r\n        products[productCount].description = _description;\r\n        products[productCount].price = _price;\r\n        products[productCount].imgipfshash = _imgipfshash;\r\n        files[productCount] = _fileipfshash;\r\n        products[productCount].owner = msg.sender;\r\n        products[productCount].categorie = _categorie;\r\n        products[productCount].uploadedOn = _uploadedOn;\r\n        products[productCount].reviewsCount = 0;\r\n        products[productCount].report = 0;\r\n        products[productCount].totalSold = 0;\r\n        products[productCount].buyers = new address[](0);\r\n        //products[productCount].removed = false;\r\n        //add this product to it's categorie\r\n        categorieToProduct[_categorie].push(productCount);\r\n        //add this product to the customer's owned product\r\n        customers[msg.sender].ownedProducts.push(productCount);\r\n        //create an event\r\n        emit ProductCreated(productCount, _name, _description, _price, _imgipfshash,_fileipfshash, msg.sender);\r\n    }\r\n\r\n    function purchaseProduct(uint _id) public payable {\r\n        // Fetch the owner\r\n        address _seller = products[_id].owner;\r\n        /*require(products[_id].owner != msg.sender, \"You cannot buy your own product\");\r\n        // Make sure the product has a valid id\r\n        require(products[_id].id > 0 && products[_id].id <= productCount);\r\n        // Require that there is enough Ether in the transaction\r\n        require(msg.value >= products[_id].price, \"Insufficient Ether\");\r\n        // Require that the buyer is not the seller\r\n        require(_seller != msg.sender);*/\r\n        //add to products a user can revie\r\n        products[_id].productUserReview[msg.sender].isBuy = true;\r\n        //add this customer to the people who bought this product\r\n        products[_id].buyers.push(msg.sender);\r\n        //update total purchases\r\n        products[_id].totalSold++;\r\n        //add to the products owners\r\n        customers[msg.sender].purchasedProducts.push(_id);\r\n        // Pay the seller by sending them Ether\r\n        payable(_seller).transfer(msg.value);\r\n        // Trigger an event\r\n        emit ProductPurchased(productCount, products[_id].name,products[_id].description, products[_id].price, products[_id].imgipfshash, msg.sender);\r\n    }\r\n    /* function removeProduct(uint id1) public {\r\n         if(msg.sender == products[id1].owner){\r\n             products[id1].removed = true;\r\n         }\r\n     }*/\r\n        function removeProduct(uint id1) public {\r\n        if(msg.sender == products[id1].owner){\r\n            delete products [id1];\r\n            Categories cat;\r\n            cat = products[id1].categorie;\r\n            delete categorieToProduct[cat][id1-1];\r\n            address add = products[id1].raters[products[id1].reviewsCount];\r\n            delete products[id1].raters[products[id1].reviewsCount];\r\n            delete products[id1].productUserReview[add];\r\n            for(uint i=0;i<productCount;i++){\r\n                if(customers[msg.sender].ownedProducts[i] == id1){\r\n                    delete customers[msg.sender].ownedProducts[i];\r\n                }\r\n            }\r\n        }\r\n    }\r\n    function editProduct(uint256 _id , string memory _name , string memory _des , uint _price , Categories _categorie) public{\r\n        if(msg.sender == products[_id].owner){\r\n            products[_id].name = _name;\r\n            products[_id].description = _des;\r\n            products[_id].price = _price;\r\n            products[_id].categorie = _categorie;\r\n            \r\n        }\r\n    }\r\n    function reviewProduct(uint _id,uint256 _rate,uint256 _score, string memory _review) public\r\n    {\r\n           require(products[_id].productUserReview[msg.sender].isBuy == true, \"You are not eligible to review this product\");\r\n           if (products[_id].productUserReview[msg.sender].isReview == false){ //only once\r\n               products[_id].productUserReview[msg.sender].isReview = true;\r\n               //should update rate\r\n               products[_id].productUserReview[msg.sender].reviewDescription = _review;\r\n               products[_id].productUserReview[msg.sender].score = _score;\r\n               products[_id].productUserReview[msg.sender].timeStamp = block.timestamp;\r\n    \r\n               products[_id].raters[products[_id].reviewsCount] = msg.sender;\r\n                  products[_id].reviews.push(products[_id].productUserReview[msg.sender]);\r\n    \r\n               products[_id].reviewsCount ++;\r\n           }\r\n\r\n    }\r\n\r\n    /*function insertProductIntoCart(uint256 id) public returns (bool success,\r\n                                                  uint256 pos_in_prod_mapping) {\r\n        Customer storage cust = customers[msg.sender];\r\n        Product memory prod = products[id];\r\n        uint256 prods_prev_len = cust.cart.products.length;\r\n        cust.cart.products.push(prod.id);\r\n        uint256 current_sum = cust.cart.completeSum;\r\n        cust.cart.completeSum = current_sum + prod.price;\r\n        if (cust.cart.products.length > prods_prev_len) {\r\n          emit CartProductInserted(msg.sender, id, prod.price, cust.cart.completeSum);\r\n          return (true, cust.cart.products.length - 1);\r\n        }\r\n        emit CartProductInsertionFailed(msg.sender, id);\r\n        return (false, 0);\r\n    }*/\r\n\r\n    /*function removeProductFromCart(uint256 prod_pos_in_mapping) public {\r\n        uint256[] memory new_product_list = new uint256[](customers[msg.sender]\r\n                                                    .cart.products.length - 1);\r\n        uint256[] memory customerProds = customers[msg.sender].cart.products;\r\n        for (uint256 i = 0; i < customerProds.length; i++) {\r\n          if (i != prod_pos_in_mapping) {\r\n            new_product_list[i] = customerProds[i];\r\n          } else {\r\n            customers[msg.sender].cart.completeSum -=\r\n                                               products[customerProds[i]].price;\r\n            emit CartProductRemoved(msg.sender, customerProds[i]);\r\n          }\r\n        }\r\n        customers[msg.sender].cart.products = new_product_list;\r\n    }\r\n*/\r\n    /*function emptyCart() public returns (bool success) {\r\n        Customer storage customer = customers[msg.sender];\r\n        customer.cart = Cart(new uint256[](0), 0);\r\n        emit CartEmptied(customer.adr);\r\n        return true;\r\n    }\r\n*/\r\n    function registerCustomer(address _address, string memory _name)\r\n                                        public returns (bool success) {\r\n        Customer memory customer = Customer(_address, _name,new uint256[](0),new uint256[](0),Cart(new uint256[](0),0));\r\n        customerCount++;\r\n        addressLUT[customerCount]=customer.adr;\r\n        customers[_address] = customer;\r\n        emit CustomerRegistered(_address);\r\n        return true;\r\n    }\r\n    function report(uint _id) public {\r\n        if(products[_id].hasReported[msg.sender] == false){\r\n            products[_id].report++;\r\n            products[_id].hasReported[msg.sender] = true;\r\n            if(products[_id].report >= MAXREPORT){\r\n                removeProduct(_id);\r\n            }\r\n        }\r\n    }\r\n    function getReport(uint _id) public view returns(uint){\r\n        return products[_id].report;\r\n    }\r\n\r\n    function getProductReviews(uint _id) public view returns (Review[] memory){\r\n        return products[_id].reviews;\r\n    }\r\n    function getProductBuyers(uint _id) public view returns(address[] memory){\r\n        return products[_id].buyers;\r\n    }\r\n    function getProductfile(uint _id) public view returns(string memory){\r\n        if(products[_id].owner == msg.sender){\r\n            return files[_id];\r\n        }\r\n        else if(products[_id].buyers.length > 0)\r\n        for(uint i=0;i<products[_id].buyers.length;i++){\r\n            if(products[_id].buyers[i] == msg.sender)\r\n                return files[_id];\r\n        }\r\n        else\r\n        return \"\";\r\n    }\r\n    function getPurchasedProducts(address adr) public view returns( uint256[] memory){\r\n        return customers[adr].purchasedProducts;\r\n    }\r\n\r\n}",
  "sourcePath": "C:\\Users\\Administrator\\Desktop\\MarketPlace\\src\\contracts\\Marketplace.sol",
  "compiler": {
    "name": "solc",
    "version": "0.8.7+commit.e28d00a7.Emscripten.clang"
  },
  "schemaVersion": "3.4.2",
  "updatedAt": "2021-08-27T16:01:15.991Z",
  "networkType": "ethereum",
  "devdoc": {
    "kind": "dev",
    "methods": {},
    "version": 1
  },
  "userdoc": {
    "kind": "user",
    "methods": {},
    "version": 1
  }
}