{
  "contractName": "Marketplace",
  "abi": [
    {
      "anonymous": false,
      "inputs": [
        {
          "indexed": false,
          "internalType": "address",
          "name": "customer",
          "type": "address"
        }
      ],
      "name": "CartEmptied",
      "type": "event"
    },
    {
      "anonymous": false,
      "inputs": [
        {
          "indexed": false,
          "internalType": "address",
          "name": "customer",
          "type": "address"
        },
        {
          "indexed": false,
          "internalType": "uint256",
          "name": "prodId",
          "type": "uint256"
        },
        {
          "indexed": false,
          "internalType": "uint256",
          "name": "prodPrice",
          "type": "uint256"
        },
        {
          "indexed": false,
          "internalType": "uint256",
          "name": "completeSum",
          "type": "uint256"
        }
      ],
      "name": "CartProductInserted",
      "type": "event"
    },
    {
      "anonymous": false,
      "inputs": [
        {
          "indexed": false,
          "internalType": "address",
          "name": "customer",
          "type": "address"
        },
        {
          "indexed": false,
          "internalType": "uint256",
          "name": "prodId",
          "type": "uint256"
        }
      ],
      "name": "CartProductInsertionFailed",
      "type": "event"
    },
    {
      "anonymous": false,
      "inputs": [
        {
          "indexed": false,
          "internalType": "address",
          "name": "customer",
          "type": "address"
        },
        {
          "indexed": false,
          "internalType": "uint256",
          "name": "prodId",
          "type": "uint256"
        }
      ],
      "name": "CartProductRemoved",
      "type": "event"
    },
    {
      "anonymous": false,
      "inputs": [
        {
          "indexed": false,
          "internalType": "address",
          "name": "customer",
          "type": "address"
        }
      ],
      "name": "CustomerRegistered",
      "type": "event"
    },
    {
      "anonymous": false,
      "inputs": [
        {
          "indexed": false,
          "internalType": "address",
          "name": "customer",
          "type": "address"
        }
      ],
      "name": "CustomerRegistrationFailed",
      "type": "event"
    },
    {
      "anonymous": false,
      "inputs": [
        {
          "indexed": false,
          "internalType": "uint256",
          "name": "id",
          "type": "uint256"
        },
        {
          "indexed": false,
          "internalType": "string",
          "name": "name",
          "type": "string"
        },
        {
          "indexed": false,
          "internalType": "string",
          "name": "description",
          "type": "string"
        },
        {
          "indexed": false,
          "internalType": "uint256",
          "name": "price",
          "type": "uint256"
        },
        {
          "indexed": false,
          "internalType": "string",
          "name": "imgipfshash",
          "type": "string"
        },
        {
          "indexed": false,
          "internalType": "string",
          "name": "fileipfshash",
          "type": "string"
        },
        {
          "indexed": false,
          "internalType": "address",
          "name": "owner",
          "type": "address"
        },
        {
          "indexed": false,
          "internalType": "bool",
          "name": "purchased",
          "type": "bool"
        }
      ],
      "name": "ProductCreated",
      "type": "event"
    },
    {
      "anonymous": false,
      "inputs": [
        {
          "indexed": false,
          "internalType": "uint256",
          "name": "id",
          "type": "uint256"
        },
        {
          "indexed": false,
          "internalType": "string",
          "name": "name",
          "type": "string"
        },
        {
          "indexed": false,
          "internalType": "string",
          "name": "description",
          "type": "string"
        },
        {
          "indexed": false,
          "internalType": "uint256",
          "name": "price",
          "type": "uint256"
        },
        {
          "indexed": false,
          "internalType": "string",
          "name": "imgipfshash",
          "type": "string"
        },
        {
          "indexed": false,
          "internalType": "string",
          "name": "fileipfshash",
          "type": "string"
        },
        {
          "indexed": false,
          "internalType": "address",
          "name": "owner",
          "type": "address"
        },
        {
          "indexed": false,
          "internalType": "bool",
          "name": "purchased",
          "type": "bool"
        }
      ],
      "name": "ProductPurchased",
      "type": "event"
    },
    {
      "inputs": [
        {
          "internalType": "uint256",
          "name": "",
          "type": "uint256"
        }
      ],
      "name": "addressLUT",
      "outputs": [
        {
          "internalType": "address",
          "name": "",
          "type": "address"
        }
      ],
      "stateMutability": "view",
      "type": "function",
      "constant": true
    },
    {
      "inputs": [
        {
          "internalType": "enum Marketplace.Categories",
          "name": "",
          "type": "uint8"
        },
        {
          "internalType": "uint256",
          "name": "",
          "type": "uint256"
        }
      ],
      "name": "categorieToProduct",
      "outputs": [
        {
          "internalType": "uint256",
          "name": "",
          "type": "uint256"
        }
      ],
      "stateMutability": "view",
      "type": "function",
      "constant": true
    },
    {
      "inputs": [],
      "name": "customerCount",
      "outputs": [
        {
          "internalType": "uint256",
          "name": "",
          "type": "uint256"
        }
      ],
      "stateMutability": "view",
      "type": "function",
      "constant": true
    },
    {
      "inputs": [
        {
          "internalType": "address",
          "name": "",
          "type": "address"
        }
      ],
      "name": "customers",
      "outputs": [
        {
          "internalType": "address",
          "name": "adr",
          "type": "address"
        },
        {
          "internalType": "string",
          "name": "name",
          "type": "string"
        },
        {
          "components": [
            {
              "internalType": "uint256[]",
              "name": "products",
              "type": "uint256[]"
            },
            {
              "internalType": "uint256",
              "name": "completeSum",
              "type": "uint256"
            }
          ],
          "internalType": "struct Marketplace.Cart",
          "name": "cart",
          "type": "tuple"
        }
      ],
      "stateMutability": "view",
      "type": "function",
      "constant": true
    },
    {
      "inputs": [
        {
          "internalType": "uint256",
          "name": "",
          "type": "uint256"
        }
      ],
      "name": "emptySpaces",
      "outputs": [
        {
          "internalType": "uint256",
          "name": "",
          "type": "uint256"
        }
      ],
      "stateMutability": "view",
      "type": "function",
      "constant": true
    },
    {
      "inputs": [],
      "name": "flag",
      "outputs": [
        {
          "internalType": "bool",
          "name": "",
          "type": "bool"
        }
      ],
      "stateMutability": "view",
      "type": "function",
      "constant": true
    },
    {
      "inputs": [],
      "name": "ftt",
      "outputs": [
        {
          "internalType": "uint256",
          "name": "",
          "type": "uint256"
        }
      ],
      "stateMutability": "view",
      "type": "function",
      "constant": true
    },
    {
      "inputs": [],
      "name": "len",
      "outputs": [
        {
          "internalType": "uint256",
          "name": "",
          "type": "uint256"
        }
      ],
      "stateMutability": "view",
      "type": "function",
      "constant": true
    },
    {
      "inputs": [
        {
          "internalType": "address",
          "name": "",
          "type": "address"
        },
        {
          "internalType": "uint256",
          "name": "",
          "type": "uint256"
        }
      ],
      "name": "ownerToProducts",
      "outputs": [
        {
          "internalType": "uint256",
          "name": "id",
          "type": "uint256"
        },
        {
          "internalType": "string",
          "name": "name",
          "type": "string"
        },
        {
          "internalType": "string",
          "name": "description",
          "type": "string"
        },
        {
          "internalType": "uint256",
          "name": "price",
          "type": "uint256"
        },
        {
          "internalType": "string",
          "name": "imgipfshash",
          "type": "string"
        },
        {
          "internalType": "string",
          "name": "fileipfshash",
          "type": "string"
        },
        {
          "internalType": "address",
          "name": "owner",
          "type": "address"
        },
        {
          "internalType": "bool",
          "name": "purchased",
          "type": "bool"
        },
        {
          "internalType": "enum Marketplace.Categories",
          "name": "categorie",
          "type": "uint8"
        },
        {
          "internalType": "uint256",
          "name": "uploadedOn",
          "type": "uint256"
        }
      ],
      "stateMutability": "view",
      "type": "function",
      "constant": true
    },
    {
      "inputs": [],
      "name": "productCount",
      "outputs": [
        {
          "internalType": "uint256",
          "name": "",
          "type": "uint256"
        }
      ],
      "stateMutability": "view",
      "type": "function",
      "constant": true
    },
    {
      "inputs": [
        {
          "internalType": "uint256",
          "name": "",
          "type": "uint256"
        }
      ],
      "name": "products",
      "outputs": [
        {
          "internalType": "uint256",
          "name": "id",
          "type": "uint256"
        },
        {
          "internalType": "string",
          "name": "name",
          "type": "string"
        },
        {
          "internalType": "string",
          "name": "description",
          "type": "string"
        },
        {
          "internalType": "uint256",
          "name": "price",
          "type": "uint256"
        },
        {
          "internalType": "string",
          "name": "imgipfshash",
          "type": "string"
        },
        {
          "internalType": "string",
          "name": "fileipfshash",
          "type": "string"
        },
        {
          "internalType": "address",
          "name": "owner",
          "type": "address"
        },
        {
          "internalType": "bool",
          "name": "purchased",
          "type": "bool"
        },
        {
          "internalType": "enum Marketplace.Categories",
          "name": "categorie",
          "type": "uint8"
        },
        {
          "internalType": "uint256",
          "name": "uploadedOn",
          "type": "uint256"
        }
      ],
      "stateMutability": "view",
      "type": "function",
      "constant": true
    },
    {
      "inputs": [
        {
          "internalType": "uint256",
          "name": "",
          "type": "uint256"
        },
        {
          "internalType": "uint256",
          "name": "",
          "type": "uint256"
        }
      ],
      "name": "productsRates",
      "outputs": [
        {
          "internalType": "uint256",
          "name": "",
          "type": "uint256"
        }
      ],
      "stateMutability": "view",
      "type": "function",
      "constant": true
    },
    {
      "inputs": [
        {
          "internalType": "uint256",
          "name": "",
          "type": "uint256"
        },
        {
          "internalType": "uint256",
          "name": "",
          "type": "uint256"
        }
      ],
      "name": "productsReviews",
      "outputs": [
        {
          "internalType": "string",
          "name": "",
          "type": "string"
        }
      ],
      "stateMutability": "view",
      "type": "function",
      "constant": true
    },
    {
      "inputs": [
        {
          "internalType": "string",
          "name": "_name",
          "type": "string"
        },
        {
          "internalType": "string",
          "name": "_description",
          "type": "string"
        },
        {
          "internalType": "uint256",
          "name": "_price",
          "type": "uint256"
        },
        {
          "internalType": "string",
          "name": "_imgipfshash",
          "type": "string"
        },
        {
          "internalType": "string",
          "name": "_fileipfshash",
          "type": "string"
        },
        {
          "internalType": "enum Marketplace.Categories",
          "name": "_categorie",
          "type": "uint8"
        }
      ],
      "name": "createProduct",
      "outputs": [],
      "stateMutability": "nonpayable",
      "type": "function"
    },
    {
      "inputs": [
        {
          "internalType": "uint256",
          "name": "id1",
          "type": "uint256"
        }
      ],
      "name": "removeProduct",
      "outputs": [],
      "stateMutability": "nonpayable",
      "type": "function"
    },
    {
      "inputs": [
        {
          "internalType": "uint256",
          "name": "id1",
          "type": "uint256"
        }
      ],
      "name": "removeNestedProduct",
      "outputs": [],
      "stateMutability": "nonpayable",
      "type": "function"
    },
    {
      "inputs": [
        {
          "internalType": "uint256",
          "name": "_id",
          "type": "uint256"
        }
      ],
      "name": "purchaseProduct",
      "outputs": [],
      "stateMutability": "payable",
      "type": "function",
      "payable": true
    },
    {
      "inputs": [
        {
          "internalType": "uint256",
          "name": "_id",
          "type": "uint256"
        },
        {
          "internalType": "string",
          "name": "_name",
          "type": "string"
        },
        {
          "internalType": "string",
          "name": "_des",
          "type": "string"
        },
        {
          "internalType": "uint256",
          "name": "_price",
          "type": "uint256"
        },
        {
          "internalType": "enum Marketplace.Categories",
          "name": "_categorie",
          "type": "uint8"
        }
      ],
      "name": "editProduct",
      "outputs": [],
      "stateMutability": "nonpayable",
      "type": "function"
    },
    {
      "inputs": [
        {
          "internalType": "uint256",
          "name": "_rate",
          "type": "uint256"
        },
        {
          "internalType": "uint256",
          "name": "pos_in_prod_mapping",
          "type": "uint256"
        }
      ],
      "name": "giveRate",
      "outputs": [],
      "stateMutability": "nonpayable",
      "type": "function"
    },
    {
      "inputs": [
        {
          "internalType": "string",
          "name": "_review",
          "type": "string"
        },
        {
          "internalType": "uint256",
          "name": "pos_in_prod_mapping",
          "type": "uint256"
        }
      ],
      "name": "writeReview",
      "outputs": [],
      "stateMutability": "nonpayable",
      "type": "function"
    },
    {
      "inputs": [
        {
          "internalType": "uint256",
          "name": "id",
          "type": "uint256"
        }
      ],
      "name": "insertProductIntoCart",
      "outputs": [
        {
          "internalType": "bool",
          "name": "success",
          "type": "bool"
        },
        {
          "internalType": "uint256",
          "name": "pos_in_prod_mapping",
          "type": "uint256"
        }
      ],
      "stateMutability": "nonpayable",
      "type": "function"
    },
    {
      "inputs": [
        {
          "internalType": "uint256",
          "name": "prod_pos_in_mapping",
          "type": "uint256"
        }
      ],
      "name": "removeProductFromCart",
      "outputs": [],
      "stateMutability": "nonpayable",
      "type": "function"
    },
    {
      "inputs": [],
      "name": "emptyCart",
      "outputs": [
        {
          "internalType": "bool",
          "name": "success",
          "type": "bool"
        }
      ],
      "stateMutability": "nonpayable",
      "type": "function"
    },
    {
      "inputs": [
        {
          "internalType": "address",
          "name": "_address",
          "type": "address"
        },
        {
          "internalType": "string",
          "name": "_name",
          "type": "string"
        }
      ],
      "name": "registerCustomer",
      "outputs": [
        {
          "internalType": "bool",
          "name": "success",
          "type": "bool"
        }
      ],
      "stateMutability": "nonpayable",
      "type": "function"
    },
    {
      "inputs": [
        {
          "internalType": "address",
          "name": "_adr",
          "type": "address"
        }
      ],
      "name": "getCustomer",
      "outputs": [
        {
          "components": [
            {
              "internalType": "address",
              "name": "adr",
              "type": "address"
            },
            {
              "internalType": "string",
              "name": "name",
              "type": "string"
            },
            {
              "components": [
                {
                  "internalType": "uint256[]",
                  "name": "products",
                  "type": "uint256[]"
                },
                {
                  "internalType": "uint256",
                  "name": "completeSum",
                  "type": "uint256"
                }
              ],
              "internalType": "struct Marketplace.Cart",
              "name": "cart",
              "type": "tuple"
            }
          ],
          "internalType": "struct Marketplace.Customer",
          "name": "",
          "type": "tuple"
        }
      ],
      "stateMutability": "view",
      "type": "function",
      "constant": true
    },
    {
      "inputs": [
        {
          "internalType": "address",
          "name": "_owner",
          "type": "address"
        }
      ],
      "name": "getProductCount",
      "outputs": [
        {
          "internalType": "uint256",
          "name": "",
          "type": "uint256"
        }
      ],
      "stateMutability": "view",
      "type": "function",
      "constant": true
    },
    {
      "inputs": [
        {
          "internalType": "address",
          "name": "_owner",
          "type": "address"
        },
        {
          "internalType": "uint8",
          "name": "_index",
          "type": "uint8"
        }
      ],
      "name": "getProduct",
      "outputs": [
        {
          "internalType": "uint256",
          "name": "_id",
          "type": "uint256"
        },
        {
          "internalType": "string",
          "name": "_name",
          "type": "string"
        },
        {
          "internalType": "string",
          "name": "_description",
          "type": "string"
        },
        {
          "internalType": "uint256",
          "name": "_price",
          "type": "uint256"
        },
        {
          "internalType": "string",
          "name": "imgipfshash",
          "type": "string"
        },
        {
          "internalType": "string",
          "name": "fileipfshash",
          "type": "string"
        }
      ],
      "stateMutability": "view",
      "type": "function",
      "constant": true
    }
  ],
  "bytecode": "0x60806040526000805560006001556000600260006101000a81548160ff0219169083151502179055506000600c5534801561003957600080fd5b506155eb806200004a6000396000f3fe60806040526004361061019c5760003560e01c80637e6b867f116100ec578063aca490181161008a578063d5b24d8111610064578063d5b24d811461063e578063db1970f414610667578063e0f6ef87146106a4578063e8b4194e146106cf5761019c565b8063aca4901814610599578063cb949e51146105d6578063ce9f791d146106135761019c565b80639757e8a3116100c65780639757e8a3146104c95780639abdb0b0146104f4578063a0c8c15614610531578063a6ec73581461055c5761019c565b80637e6b867f14610437578063846c8dea14610475578063890eba681461049e5761019c565b806350208eee116101595780636ebdac12116101335780636ebdac121461036257806377faa57c1461038b5780637acc0b20146103c85780637b61b7021461040e5761019c565b806350208eee146102d157806356d88e271461030e5780635ee95cae146103395761019c565b80630b784d2d146101a157806330a7bfe7146101ca57806330ff594814610207578063336989ae1461024d57806338e76a031461028c5780634cfc3f31146102a8575b600080fd5b3480156101ad57600080fd5b506101c860048036038101906101c39190614993565b610711565b005b3480156101d657600080fd5b506101f160048036038101906101ec9190614953565b611316565b6040516101fe9190614f75565b60405180910390f35b34801561021357600080fd5b5061022e600480360381019061022991906148d3565b611347565b6040516102449a999897969594939291906150a7565b60405180910390f35b34801561025957600080fd5b50610274600480360381019061026f919061484a565b611612565b60405161028393929190614e3a565b60405180910390f35b6102a660048036038101906102a19190614aec565b611750565b005b3480156102b457600080fd5b506102cf60048036038101906102ca9190614bcc565b611d6d565b005b3480156102dd57600080fd5b506102f860048036038101906102f3919061484a565b611dab565b6040516103059190614f75565b60405180910390f35b34801561031a57600080fd5b50610323611e30565b6040516103309190614f75565b60405180910390f35b34801561034557600080fd5b50610360600480360381019061035b9190614aec565b611e36565b005b34801561036e57600080fd5b5061038960048036038101906103849190614aec565b612002565b005b34801561039757600080fd5b506103b260048036038101906103ad9190614aec565b6122e0565b6040516103bf9190614f75565b60405180910390f35b3480156103d457600080fd5b506103ef60048036038101906103ea9190614aec565b612304565b6040516104059a999897969594939291906150a7565b60405180910390f35b34801561041a57600080fd5b5061043560048036038101906104309190614b19565b6125b2565b005b34801561044357600080fd5b5061045e60048036038101906104599190614aec565b613133565b60405161046c929190614f08565b60405180910390f35b34801561048157600080fd5b5061049c60048036038101906104979190614aec565b61366d565b005b3480156104aa57600080fd5b506104b3613789565b6040516104c09190614eed565b60405180910390f35b3480156104d557600080fd5b506104de61379c565b6040516104eb9190614f75565b60405180910390f35b34801561050057600080fd5b5061051b60048036038101906105169190614bcc565b6137a2565b6040516105289190614f75565b60405180910390f35b34801561053d57600080fd5b506105466137d3565b6040516105539190614eed565b60405180910390f35b34801561056857600080fd5b50610583600480360381019061057e9190614bcc565b613907565b6040516105909190614f31565b60405180910390f35b3480156105a557600080fd5b506105c060048036038101906105bb9190614aec565b6139c0565b6040516105cd9190614e1f565b60405180910390f35b3480156105e257600080fd5b506105fd60048036038101906105f8919061484a565b6139f3565b60405161060a9190614f53565b60405180910390f35b34801561061f57600080fd5b50610628613baa565b6040516106359190614f75565b60405180910390f35b34801561064a57600080fd5b5061066560048036038101906106609190614a90565b613bb0565b005b34801561067357600080fd5b5061068e60048036038101906106899190614877565b613c01565b60405161069b9190614eed565b60405180910390f35b3480156106b057600080fd5b506106b961416d565b6040516106c69190614f75565b60405180910390f35b3480156106db57600080fd5b506106f660048036038101906106f19190614913565b614173565b60405161070896959493929190614f90565b60405180910390f35b600086511161071f57600080fd5b6000841161072c57600080fd5b60004290506000600a80549050148061076457506000600a600081548110610757576107566154c9565b5b9060005260206000200154145b15610cc45760008081548092919061077b906153c4565b919050555060405180610160016040528060005481526020018881526020018781526020018681526020018581526020018481526020013373ffffffffffffffffffffffffffffffffffffffff168152602001600015158152602001600067ffffffffffffffff8111156107f2576107f16154f8565b5b6040519080825280602002602001820160405280156108205781602001602082028036833780820191505090505b50815260200183600a8111156108395761083861543c565b5b815260200182815250600360008054815260200190815260200160002060008201518160000155602082015181600101908051906020019061087c9291906144ee565b5060408201518160020190805190602001906108999291906144ee565b506060820151816003015560808201518160040190805190602001906108c09291906144ee565b5060a08201518160050190805190602001906108dd9291906144ee565b5060c08201518160060160006101000a81548173ffffffffffffffffffffffffffffffffffffffff021916908373ffffffffffffffffffffffffffffffffffffffff16021790555060e08201518160060160146101000a81548160ff021916908315150217905550610100820151816007019080519060200190610962929190614574565b506101208201518160080160006101000a81548160ff0219169083600a81111561098f5761098e61543c565b5b021790555061014082015181600901559050506006600083600a8111156109b9576109b861543c565b5b600a8111156109cb576109ca61543c565b5b81526020019081526020016000206000549080600181540180825580915050600190039060005260206000200160009091909190915055600960003373ffffffffffffffffffffffffffffffffffffffff1673ffffffffffffffffffffffffffffffffffffffff16815260200190815260200160002060405180610160016040528060005481526020018981526020018881526020018781526020018681526020018581526020013373ffffffffffffffffffffffffffffffffffffffff168152602001600015158152602001600067ffffffffffffffff811115610ab357610ab26154f8565b5b604051908082528060200260200182016040528015610ae15781602001602082028036833780820191505090505b50815260200184600a811115610afa57610af961543c565b5b81526020018381525090806001815401808255809150506001900390600052602060002090600a0201600090919091909150600082015181600001556020820151816001019080519060200190610b529291906144ee565b506040820151816002019080519060200190610b6f9291906144ee565b50606082015181600301556080820151816004019080519060200190610b969291906144ee565b5060a0820151816005019080519060200190610bb39291906144ee565b5060c08201518160060160006101000a81548173ffffffffffffffffffffffffffffffffffffffff021916908373ffffffffffffffffffffffffffffffffffffffff16021790555060e08201518160060160146101000a81548160ff021916908315150217905550610100820151816007019080519060200190610c38929190614574565b506101208201518160080160006101000a81548160ff0219169083600a811115610c6557610c6461543c565b5b0217905550610140820151816009015550507fbb45e05496e643a69bb522fd78ec743fcc4cecc08d892a6685a76f79e29e1eb46000548888888888336000604051610cb798979695949392919061500d565b60405180910390a161130d565b6000600a600081548110610cdb57610cda6154c9565b5b90600052602060002001549050604051806101600160405280600a600081548110610d0957610d086154c9565b5b906000526020600020015481526020018981526020018881526020018781526020018681526020018581526020013373ffffffffffffffffffffffffffffffffffffffff168152602001600015158152602001600067ffffffffffffffff811115610d7757610d766154f8565b5b604051908082528060200260200182016040528015610da55781602001602082028036833780820191505090505b50815260200184600a811115610dbe57610dbd61543c565b5b81526020018381525060036000600a600081548110610de057610ddf6154c9565b5b90600052602060002001548152602001908152602001600020600082015181600001556020820151816001019080519060200190610e1f9291906144ee565b506040820151816002019080519060200190610e3c9291906144ee565b50606082015181600301556080820151816004019080519060200190610e639291906144ee565b5060a0820151816005019080519060200190610e809291906144ee565b5060c08201518160060160006101000a81548173ffffffffffffffffffffffffffffffffffffffff021916908373ffffffffffffffffffffffffffffffffffffffff16021790555060e08201518160060160146101000a81548160ff021916908315150217905550610100820151816007019080519060200190610f05929190614574565b506101208201518160080160006101000a81548160ff0219169083600a811115610f3257610f3161543c565b5b02179055506101408201518160090155905050600a80549050600b8190555060005b6001600a80549050610f669190615271565b811015610fcd57600a600182610f7c919061521b565b81548110610f8d57610f8c6154c9565b5b9060005260206000200154600a8281548110610fac57610fab6154c9565b5b90600052602060002001819055508080610fc5906153c4565b915050610f54565b50600a805480610fe057610fdf61549a565b5b60019003818190600052602060002001600090559055806006600085600a81111561100e5761100d61543c565b5b600a8111156110205761101f61543c565b5b815260200190815260200160002060018361103b9190615271565b8154811061104c5761104b6154c9565b5b90600052602060002001819055506040518061016001604052808281526020018981526020018881526020018781526020018681526020018581526020013373ffffffffffffffffffffffffffffffffffffffff168152602001600015158152602001600067ffffffffffffffff8111156110ca576110c96154f8565b5b6040519080825280602002602001820160405280156110f85781602001602082028036833780820191505090505b50815260200184600a8111156111115761111061543c565b5b815260200183815250600960003373ffffffffffffffffffffffffffffffffffffffff1673ffffffffffffffffffffffffffffffffffffffff168152602001908152602001600020828154811061116b5761116a6154c9565b5b90600052602060002090600a020160008201518160000155602082015181600101908051906020019061119f9291906144ee565b5060408201518160020190805190602001906111bc9291906144ee565b506060820151816003015560808201518160040190805190602001906111e39291906144ee565b5060a08201518160050190805190602001906112009291906144ee565b5060c08201518160060160006101000a81548173ffffffffffffffffffffffffffffffffffffffff021916908373ffffffffffffffffffffffffffffffffffffffff16021790555060e08201518160060160146101000a81548160ff021916908315150217905550610100820151816007019080519060200190611285929190614574565b506101208201518160080160006101000a81548160ff0219169083600a8111156112b2576112b161543c565b5b021790555061014082015181600901559050507fbb45e05496e643a69bb522fd78ec743fcc4cecc08d892a6685a76f79e29e1eb481898989898933600060405161130398979695949392919061500d565b60405180910390a1505b50505050505050565b6006602052816000526040600020818154811061133257600080fd5b90600052602060002001600091509150505481565b6009602052816000526040600020818154811061136357600080fd5b90600052602060002090600a02016000915091505080600001549080600101805461138d90615361565b80601f01602080910402602001604051908101604052809291908181526020018280546113b990615361565b80156114065780601f106113db57610100808354040283529160200191611406565b820191906000526020600020905b8154815290600101906020018083116113e957829003601f168201915b50505050509080600201805461141b90615361565b80601f016020809104026020016040519081016040528092919081815260200182805461144790615361565b80156114945780601f1061146957610100808354040283529160200191611494565b820191906000526020600020905b81548152906001019060200180831161147757829003601f168201915b5050505050908060030154908060040180546114af90615361565b80601f01602080910402602001604051908101604052809291908181526020018280546114db90615361565b80156115285780601f106114fd57610100808354040283529160200191611528565b820191906000526020600020905b81548152906001019060200180831161150b57829003601f168201915b50505050509080600501805461153d90615361565b80601f016020809104026020016040519081016040528092919081815260200182805461156990615361565b80156115b65780601f1061158b576101008083540402835291602001916115b6565b820191906000526020600020905b81548152906001019060200180831161159957829003601f168201915b5050505050908060060160009054906101000a900473ffffffffffffffffffffffffffffffffffffffff16908060060160149054906101000a900460ff16908060080160009054906101000a900460ff1690806009015490508a565b60076020528060005260406000206000915090508060000160009054906101000a900473ffffffffffffffffffffffffffffffffffffffff169080600101805461165b90615361565b80601f016020809104026020016040519081016040528092919081815260200182805461168790615361565b80156116d45780601f106116a9576101008083540402835291602001916116d4565b820191906000526020600020905b8154815290600101906020018083116116b757829003601f168201915b505050505090806002016040518060400160405290816000820180548060200260200160405190810160405280929190818152602001828054801561173857602002820191906000526020600020905b815481526020019060010190808311611724575b50505050508152602001600182015481525050905083565b600060036000838152602001908152602001600020604051806101600160405290816000820154815260200160018201805461178b90615361565b80601f01602080910402602001604051908101604052809291908181526020018280546117b790615361565b80156118045780601f106117d957610100808354040283529160200191611804565b820191906000526020600020905b8154815290600101906020018083116117e757829003601f168201915b5050505050815260200160028201805461181d90615361565b80601f016020809104026020016040519081016040528092919081815260200182805461184990615361565b80156118965780601f1061186b57610100808354040283529160200191611896565b820191906000526020600020905b81548152906001019060200180831161187957829003601f168201915b50505050508152602001600382015481526020016004820180546118b990615361565b80601f01602080910402602001604051908101604052809291908181526020018280546118e590615361565b80156119325780601f1061190757610100808354040283529160200191611932565b820191906000526020600020905b81548152906001019060200180831161191557829003601f168201915b5050505050815260200160058201805461194b90615361565b80601f016020809104026020016040519081016040528092919081815260200182805461197790615361565b80156119c45780601f10611999576101008083540402835291602001916119c4565b820191906000526020600020905b8154815290600101906020018083116119a757829003601f168201915b505050505081526020016006820160009054906101000a900473ffffffffffffffffffffffffffffffffffffffff1673ffffffffffffffffffffffffffffffffffffffff1673ffffffffffffffffffffffffffffffffffffffff1681526020016006820160149054906101000a900460ff1615151515815260200160078201805480602002602001604051908101604052809291908181526020018280548015611ac357602002820191906000526020600020905b8160009054906101000a900473ffffffffffffffffffffffffffffffffffffffff1673ffffffffffffffffffffffffffffffffffffffff1681526020019060010190808311611a79575b505050505081526020016008820160009054906101000a900460ff16600a811115611af157611af061543c565b5b600a811115611b0357611b0261543c565b5b8152602001600982015481525050905060008160c001519050338260c0019073ffffffffffffffffffffffffffffffffffffffff16908173ffffffffffffffffffffffffffffffffffffffff168152505060018260e00190151590811515815250508160036000858152602001908152602001600020600082015181600001556020820151816001019080519060200190611b9f9291906144ee565b506040820151816002019080519060200190611bbc9291906144ee565b50606082015181600301556080820151816004019080519060200190611be39291906144ee565b5060a0820151816005019080519060200190611c009291906144ee565b5060c08201518160060160006101000a81548173ffffffffffffffffffffffffffffffffffffffff021916908373ffffffffffffffffffffffffffffffffffffffff16021790555060e08201518160060160146101000a81548160ff021916908315150217905550610100820151816007019080519060200190611c85929190614574565b506101208201518160080160006101000a81548160ff0219169083600a811115611cb257611cb161543c565b5b021790555061014082015181600901559050508073ffffffffffffffffffffffffffffffffffffffff166108fc349081150290604051600060405180830381858888f19350505050158015611d0b573d6000803e3d6000fd5b507f5d3e174cea83fc7a15e7c910d86c8dceb0129bfdabceb14a6e43e0d4ccbfdb4a60005483602001518460400151856060015186608001518760a00151336001604051611d6098979695949392919061500d565b60405180910390a1505050565b600460008281526020019081526020016000208290806001815401808255809150506001900390600052602060002001600090919091909150555050565b60008073ffffffffffffffffffffffffffffffffffffffff168273ffffffffffffffffffffffffffffffffffffffff161415611de657600080fd5b600960008373ffffffffffffffffffffffffffffffffffffffff1673ffffffffffffffffffffffffffffffffffffffff168152602001908152602001600020805490509050919050565b600b5481565b611e3f8161366d565b60036000828152602001908152602001600020600080820160009055600182016000611e6b91906145fe565b600282016000611e7b91906145fe565b6003820160009055600482016000611e9391906145fe565b600582016000611ea391906145fe565b6006820160006101000a81549073ffffffffffffffffffffffffffffffffffffffff02191690556006820160146101000a81549060ff0219169055600782016000611eee919061463e565b6008820160006101000a81549060ff021916905560098201600090555050600460008281526020019081526020016000206000611f2b919061465f565b600560008281526020019081526020016000206000611f4a9190614680565b60006003600083815260200190815260200160002060080160009054906101000a900460ff1690506006600082600a811115611f8957611f8861543c565b5b600a811115611f9b57611f9a61543c565b5b8152602001908152602001600020600183611fb69190615271565b81548110611fc757611fc66154c9565b5b9060005260206000200160009055600a8290806001815401808255809150506001900390600052602060002001600090919091909150555050565b60006001600760003373ffffffffffffffffffffffffffffffffffffffff1673ffffffffffffffffffffffffffffffffffffffff168152602001908152602001600020600201600001805490506120599190615271565b67ffffffffffffffff811115612072576120716154f8565b5b6040519080825280602002602001820160405280156120a05781602001602082028036833780820191505090505b5090506000600760003373ffffffffffffffffffffffffffffffffffffffff1673ffffffffffffffffffffffffffffffffffffffff16815260200190815260200160002060020160000180548060200260200160405190810160405280929190818152602001828054801561213457602002820191906000526020600020905b815481526020019060010190808311612120575b5050505050905060005b81518110156122805783811461218d57818181518110612161576121606154c9565b5b602002602001015183828151811061217c5761217b6154c9565b5b60200260200101818152505061226d565b600360008383815181106121a4576121a36154c9565b5b6020026020010151815260200190815260200160002060030154600760003373ffffffffffffffffffffffffffffffffffffffff1673ffffffffffffffffffffffffffffffffffffffff16815260200190815260200160002060020160010160008282546122129190615271565b925050819055507fa623e239783d1923197e89ebc14226d544e0c6a48928ebfd977de627b61766bf3383838151811061224e5761224d6154c9565b5b6020026020010151604051612264929190614e7f565b60405180910390a15b8080612278906153c4565b91505061213e565b5081600760003373ffffffffffffffffffffffffffffffffffffffff1673ffffffffffffffffffffffffffffffffffffffff16815260200190815260200160002060020160000190805190602001906122da9291906146a1565b50505050565b600a81815481106122f057600080fd5b906000526020600020016000915090505481565b600360205280600052604060002060009150905080600001549080600101805461232d90615361565b80601f016020809104026020016040519081016040528092919081815260200182805461235990615361565b80156123a65780601f1061237b576101008083540402835291602001916123a6565b820191906000526020600020905b81548152906001019060200180831161238957829003601f168201915b5050505050908060020180546123bb90615361565b80601f01602080910402602001604051908101604052809291908181526020018280546123e790615361565b80156124345780601f1061240957610100808354040283529160200191612434565b820191906000526020600020905b81548152906001019060200180831161241757829003601f168201915b50505050509080600301549080600401805461244f90615361565b80601f016020809104026020016040519081016040528092919081815260200182805461247b90615361565b80156124c85780601f1061249d576101008083540402835291602001916124c8565b820191906000526020600020905b8154815290600101906020018083116124ab57829003601f168201915b5050505050908060050180546124dd90615361565b80601f016020809104026020016040519081016040528092919081815260200182805461250990615361565b80156125565780601f1061252b57610100808354040283529160200191612556565b820191906000526020600020905b81548152906001019060200180831161253957829003601f168201915b5050505050908060060160009054906101000a900473ffffffffffffffffffffffffffffffffffffffff16908060060160149054906101000a900460ff16908060080160009054906101000a900460ff1690806009015490508a565b60006003600087815260200190815260200160002060405180610160016040529081600082015481526020016001820180546125ed90615361565b80601f016020809104026020016040519081016040528092919081815260200182805461261990615361565b80156126665780601f1061263b57610100808354040283529160200191612666565b820191906000526020600020905b81548152906001019060200180831161264957829003601f168201915b5050505050815260200160028201805461267f90615361565b80601f01602080910402602001604051908101604052809291908181526020018280546126ab90615361565b80156126f85780601f106126cd576101008083540402835291602001916126f8565b820191906000526020600020905b8154815290600101906020018083116126db57829003601f168201915b505050505081526020016003820154815260200160048201805461271b90615361565b80601f016020809104026020016040519081016040528092919081815260200182805461274790615361565b80156127945780601f1061276957610100808354040283529160200191612794565b820191906000526020600020905b81548152906001019060200180831161277757829003601f168201915b505050505081526020016005820180546127ad90615361565b80601f01602080910402602001604051908101604052809291908181526020018280546127d990615361565b80156128265780601f106127fb57610100808354040283529160200191612826565b820191906000526020600020905b81548152906001019060200180831161280957829003601f168201915b505050505081526020016006820160009054906101000a900473ffffffffffffffffffffffffffffffffffffffff1673ffffffffffffffffffffffffffffffffffffffff1673ffffffffffffffffffffffffffffffffffffffff1681526020016006820160149054906101000a900460ff161515151581526020016007820180548060200260200160405190810160405280929190818152602001828054801561292557602002820191906000526020600020905b8160009054906101000a900473ffffffffffffffffffffffffffffffffffffffff1673ffffffffffffffffffffffffffffffffffffffff16815260200190600101908083116128db575b505050505081526020016008820160009054906101000a900460ff16600a8111156129535761295261543c565b5b600a8111156129655761296461543c565b5b815260200160098201548152505090508481602001819052508381604001819052508281606001818152505081816101200190600a8111156129aa576129a961543c565b5b9081600a8111156129be576129bd61543c565b5b8152505080600360008881526020019081526020016000206000820151816000015560208201518160010190805190602001906129fc9291906144ee565b506040820151816002019080519060200190612a199291906144ee565b50606082015181600301556080820151816004019080519060200190612a409291906144ee565b5060a0820151816005019080519060200190612a5d9291906144ee565b5060c08201518160060160006101000a81548173ffffffffffffffffffffffffffffffffffffffff021916908373ffffffffffffffffffffffffffffffffffffffff16021790555060e08201518160060160146101000a81548160ff021916908315150217905550610100820151816007019080519060200190612ae2929190614574565b506101208201518160080160006101000a81548160ff0219169083600a811115612b0f57612b0e61543c565b5b021790555061014082015181600901559050506000600960003373ffffffffffffffffffffffffffffffffffffffff1673ffffffffffffffffffffffffffffffffffffffff1681526020019081526020016000208781548110612b7557612b746154c9565b5b90600052602060002090600a02016040518061016001604052908160008201548152602001600182018054612ba990615361565b80601f0160208091040260200160405190810160405280929190818152602001828054612bd590615361565b8015612c225780601f10612bf757610100808354040283529160200191612c22565b820191906000526020600020905b815481529060010190602001808311612c0557829003601f168201915b50505050508152602001600282018054612c3b90615361565b80601f0160208091040260200160405190810160405280929190818152602001828054612c6790615361565b8015612cb45780601f10612c8957610100808354040283529160200191612cb4565b820191906000526020600020905b815481529060010190602001808311612c9757829003601f168201915b5050505050815260200160038201548152602001600482018054612cd790615361565b80601f0160208091040260200160405190810160405280929190818152602001828054612d0390615361565b8015612d505780601f10612d2557610100808354040283529160200191612d50565b820191906000526020600020905b815481529060010190602001808311612d3357829003601f168201915b50505050508152602001600582018054612d6990615361565b80601f0160208091040260200160405190810160405280929190818152602001828054612d9590615361565b8015612de25780601f10612db757610100808354040283529160200191612de2565b820191906000526020600020905b815481529060010190602001808311612dc557829003601f168201915b505050505081526020016006820160009054906101000a900473ffffffffffffffffffffffffffffffffffffffff1673ffffffffffffffffffffffffffffffffffffffff1673ffffffffffffffffffffffffffffffffffffffff1681526020016006820160149054906101000a900460ff1615151515815260200160078201805480602002602001604051908101604052809291908181526020018280548015612ee157602002820191906000526020600020905b8160009054906101000a900473ffffffffffffffffffffffffffffffffffffffff1673ffffffffffffffffffffffffffffffffffffffff1681526020019060010190808311612e97575b505050505081526020016008820160009054906101000a900460ff16600a811115612f0f57612f0e61543c565b5b600a811115612f2157612f2061543c565b5b815260200160098201548152505090508581602001819052508481604001819052508381606001818152505082816101200190600a811115612f6657612f6561543c565b5b9081600a811115612f7a57612f7961543c565b5b8152505080600960003373ffffffffffffffffffffffffffffffffffffffff1673ffffffffffffffffffffffffffffffffffffffff1681526020019081526020016000208881548110612fd057612fcf6154c9565b5b90600052602060002090600a02016000820151816000015560208201518160010190805190602001906130049291906144ee565b5060408201518160020190805190602001906130219291906144ee565b506060820151816003015560808201518160040190805190602001906130489291906144ee565b5060a08201518160050190805190602001906130659291906144ee565b5060c08201518160060160006101000a81548173ffffffffffffffffffffffffffffffffffffffff021916908373ffffffffffffffffffffffffffffffffffffffff16021790555060e08201518160060160146101000a81548160ff0219169083151502179055506101008201518160070190805190602001906130ea929190614574565b506101208201518160080160006101000a81548160ff0219169083600a8111156131175761311661543c565b5b0217905550610140820151816009015590505050505050505050565b6000806000600760003373ffffffffffffffffffffffffffffffffffffffff1673ffffffffffffffffffffffffffffffffffffffff168152602001908152602001600020905060006003600086815260200190815260200160002060405180610160016040529081600082015481526020016001820180546131b490615361565b80601f01602080910402602001604051908101604052809291908181526020018280546131e090615361565b801561322d5780601f106132025761010080835404028352916020019161322d565b820191906000526020600020905b81548152906001019060200180831161321057829003601f168201915b5050505050815260200160028201805461324690615361565b80601f016020809104026020016040519081016040528092919081815260200182805461327290615361565b80156132bf5780601f10613294576101008083540402835291602001916132bf565b820191906000526020600020905b8154815290600101906020018083116132a257829003601f168201915b50505050508152602001600382015481526020016004820180546132e290615361565b80601f016020809104026020016040519081016040528092919081815260200182805461330e90615361565b801561335b5780601f106133305761010080835404028352916020019161335b565b820191906000526020600020905b81548152906001019060200180831161333e57829003601f168201915b5050505050815260200160058201805461337490615361565b80601f01602080910402602001604051908101604052809291908181526020018280546133a090615361565b80156133ed5780601f106133c2576101008083540402835291602001916133ed565b820191906000526020600020905b8154815290600101906020018083116133d057829003601f168201915b505050505081526020016006820160009054906101000a900473ffffffffffffffffffffffffffffffffffffffff1673ffffffffffffffffffffffffffffffffffffffff1673ffffffffffffffffffffffffffffffffffffffff1681526020016006820160149054906101000a900460ff16151515158152602001600782018054806020026020016040519081016040528092919081815260200182805480156134ec57602002820191906000526020600020905b8160009054906101000a900473ffffffffffffffffffffffffffffffffffffffff1673ffffffffffffffffffffffffffffffffffffffff16815260200190600101908083116134a2575b505050505081526020016008820160009054906101000a900460ff16600a81111561351a5761351961543c565b5b600a81111561352c5761352b61543c565b5b815260200160098201548152505090506000826002016000018054905090508260020160000182600001519080600181540180825580915050600190039060005260206000200160009091909190915055600083600201600101549050826060015181613599919061521b565b84600201600101819055508184600201600001805490501115613623577f1e862ddcab5a3222c811c44ecc1c4a46d3da57dde0e884ad6e7e070a8ece23773388856060015187600201600101546040516135f69493929190614ea8565b60405180910390a160018085600201600001805490506136169190615271565b9550955050505050613668565b7f5f187c44b1528b1d93b313a10cf6038ff514e59499f6790e1e2da2f7d1cfdd303388604051613654929190614e7f565b60405180910390a160008095509550505050505b915091565b600960003373ffffffffffffffffffffffffffffffffffffffff1673ffffffffffffffffffffffffffffffffffffffff16815260200190815260200160002081815481106136be576136bd6154c9565b5b90600052602060002090600a02016000808201600090556001820160006136e591906145fe565b6002820160006136f591906145fe565b600382016000905560048201600061370d91906145fe565b60058201600061371d91906145fe565b6006820160006101000a81549073ffffffffffffffffffffffffffffffffffffffff02191690556006820160146101000a81549060ff0219169055600782016000613768919061463e565b6008820160006101000a81549060ff02191690556009820160009055505050565b600260009054906101000a900460ff1681565b60015481565b600460205281600052604060002081815481106137be57600080fd5b90600052602060002001600091509150505481565b600080600760003373ffffffffffffffffffffffffffffffffffffffff1673ffffffffffffffffffffffffffffffffffffffff16815260200190815260200160002090506040518060400160405280600067ffffffffffffffff81111561383d5761383c6154f8565b5b60405190808252806020026020018201604052801561386b5781602001602082028036833780820191505090505b50815260200160008152508160020160008201518160000190805190602001906138969291906146a1565b50602082015181600101559050507f69dad80af5bbf467deb57c60ff8e39e3aacc707b1aa1c5b240aab4982f946fee8160000160009054906101000a900473ffffffffffffffffffffffffffffffffffffffff166040516138f79190614e1f565b60405180910390a1600191505090565b6005602052816000526040600020818154811061392357600080fd5b9060005260206000200160009150915050805461393f90615361565b80601f016020809104026020016040519081016040528092919081815260200182805461396b90615361565b80156139b85780601f1061398d576101008083540402835291602001916139b8565b820191906000526020600020905b81548152906001019060200180831161399b57829003601f168201915b505050505081565b60086020528060005260406000206000915054906101000a900473ffffffffffffffffffffffffffffffffffffffff1681565b6139fb6146ee565b600760008373ffffffffffffffffffffffffffffffffffffffff1673ffffffffffffffffffffffffffffffffffffffff1681526020019081526020016000206040518060600160405290816000820160009054906101000a900473ffffffffffffffffffffffffffffffffffffffff1673ffffffffffffffffffffffffffffffffffffffff1673ffffffffffffffffffffffffffffffffffffffff168152602001600182018054613aab90615361565b80601f0160208091040260200160405190810160405280929190818152602001828054613ad790615361565b8015613b245780601f10613af957610100808354040283529160200191613b24565b820191906000526020600020905b815481529060010190602001808311613b0757829003601f168201915b505050505081526020016002820160405180604001604052908160008201805480602002602001604051908101604052809291908181526020018280548015613b8c57602002820191906000526020600020905b815481526020019060010190808311613b78575b50505050508152602001600182015481525050815250509050919050565b600c5481565b6005600082815260200190815260200160002082908060018154018082558091505060019003906000526020600020016000909190919091509080519060200190613bfc9291906144ee565b505050565b6000600960003373ffffffffffffffffffffffffffffffffffffffff1673ffffffffffffffffffffffffffffffffffffffff168152602001908152602001600020604051806101600160405280600081526020016040518060400160405280600581526020017f64756d6d7900000000000000000000000000000000000000000000000000000081525081526020016040518060400160405280600581526020017f64756d6d790000000000000000000000000000000000000000000000000000008152508152602001600081526020016040518060400160405280600581526020017f64756d6d7900000000000000000000000000000000000000000000000000000081525081526020016040518060400160405280600581526020017f64756d6d790000000000000000000000000000000000000000000000000000008152508152602001600073ffffffffffffffffffffffffffffffffffffffff168152602001600015158152602001600067ffffffffffffffff811115613d8957613d886154f8565b5b604051908082528060200260200182016040528015613db75781602001602082028036833780820191505090505b5081526020016000600a811115613dd157613dd061543c565b5b8152602001600081525090806001815401808255809150506001900390600052602060002090600a0201600090919091909150600082015181600001556020820151816001019080519060200190613e2a9291906144ee565b506040820151816002019080519060200190613e479291906144ee565b50606082015181600301556080820151816004019080519060200190613e6e9291906144ee565b5060a0820151816005019080519060200190613e8b9291906144ee565b5060c08201518160060160006101000a81548173ffffffffffffffffffffffffffffffffffffffff021916908373ffffffffffffffffffffffffffffffffffffffff16021790555060e08201518160060160146101000a81548160ff021916908315150217905550610100820151816007019080519060200190613f10929190614574565b506101208201518160080160006101000a81548160ff0219169083600a811115613f3d57613f3c61543c565b5b021790555061014082015181600901555050600060405180606001604052808573ffffffffffffffffffffffffffffffffffffffff1681526020018481526020016040518060400160405280600067ffffffffffffffff811115613fa457613fa36154f8565b5b604051908082528060200260200182016040528015613fd25781602001602082028036833780820191505090505b5081526020016000815250815250905060016000815480929190613ff5906153c4565b9190505550806000015160086000600154815260200190815260200160002060006101000a81548173ffffffffffffffffffffffffffffffffffffffff021916908373ffffffffffffffffffffffffffffffffffffffff16021790555080600760008673ffffffffffffffffffffffffffffffffffffffff1673ffffffffffffffffffffffffffffffffffffffff16815260200190815260200160002060008201518160000160006101000a81548173ffffffffffffffffffffffffffffffffffffffff021916908373ffffffffffffffffffffffffffffffffffffffff16021790555060208201518160010190805190602001906140f59291906144ee565b50604082015181600201600082015181600001908051906020019061411b9291906146a1565b506020820151816001015550509050507f155e8619f4d23b96769599cb9af87da3e06a360082869c18578011da9a06e6708460405161415a9190614e1f565b60405180910390a1600191505092915050565b60005481565b60006060806000606080600073ffffffffffffffffffffffffffffffffffffffff168873ffffffffffffffffffffffffffffffffffffffff1614156141b757600080fd5b60008760ff16101580156141cf575060ff8760ff1611155b6141d857600080fd5b6000600960008a73ffffffffffffffffffffffffffffffffffffffff1673ffffffffffffffffffffffffffffffffffffffff168152602001908152602001600020805490501161422757600080fd5b6000600960008a73ffffffffffffffffffffffffffffffffffffffff1673ffffffffffffffffffffffffffffffffffffffff1681526020019081526020016000208860ff168154811061427d5761427c6154c9565b5b90600052602060002090600a0201905080600001548160010182600201836003015484600401856005018480546142b390615361565b80601f01602080910402602001604051908101604052809291908181526020018280546142df90615361565b801561432c5780601f106143015761010080835404028352916020019161432c565b820191906000526020600020905b81548152906001019060200180831161430f57829003601f168201915b5050505050945083805461433f90615361565b80601f016020809104026020016040519081016040528092919081815260200182805461436b90615361565b80156143b85780601f1061438d576101008083540402835291602001916143b8565b820191906000526020600020905b81548152906001019060200180831161439b57829003601f168201915b505050505093508180546143cb90615361565b80601f01602080910402602001604051908101604052809291908181526020018280546143f790615361565b80156144445780601f1061441957610100808354040283529160200191614444565b820191906000526020600020905b81548152906001019060200180831161442757829003601f168201915b5050505050915080805461445790615361565b80601f016020809104026020016040519081016040528092919081815260200182805461448390615361565b80156144d05780601f106144a5576101008083540402835291602001916144d0565b820191906000526020600020905b8154815290600101906020018083116144b357829003601f168201915b50505050509050965096509650965096509650509295509295509295565b8280546144fa90615361565b90600052602060002090601f01602090048101928261451c5760008555614563565b82601f1061453557805160ff1916838001178555614563565b82800160010185558215614563579182015b82811115614562578251825591602001919060010190614547565b5b509050614570919061472b565b5090565b8280548282559060005260206000209081019282156145ed579160200282015b828111156145ec5782518260006101000a81548173ffffffffffffffffffffffffffffffffffffffff021916908373ffffffffffffffffffffffffffffffffffffffff16021790555091602001919060010190614594565b5b5090506145fa919061472b565b5090565b50805461460a90615361565b6000825580601f1061461c575061463b565b601f01602090049060005260206000209081019061463a919061472b565b5b50565b508054600082559060005260206000209081019061465c919061472b565b50565b508054600082559060005260206000209081019061467d919061472b565b50565b508054600082559060005260206000209081019061469e9190614748565b50565b8280548282559060005260206000209081019282156146dd579160200282015b828111156146dc5782518255916020019190600101906146c1565b5b5090506146ea919061472b565b5090565b6040518060600160405280600073ffffffffffffffffffffffffffffffffffffffff1681526020016060815260200161472561476c565b81525090565b5b8082111561474457600081600090555060010161472c565b5090565b5b80821115614768576000818161475f91906145fe565b50600101614749565b5090565b604051806040016040528060608152602001600081525090565b600061479961479484615184565b61515f565b9050828152602081018484840111156147b5576147b461552c565b5b6147c084828561531f565b509392505050565b6000813590506147d781615560565b92915050565b6000813590506147ec81615577565b92915050565b600082601f83011261480757614806615527565b5b8135614817848260208601614786565b91505092915050565b60008135905061482f81615587565b92915050565b6000813590506148448161559e565b92915050565b6000602082840312156148605761485f615536565b5b600061486e848285016147c8565b91505092915050565b6000806040838503121561488e5761488d615536565b5b600061489c858286016147c8565b925050602083013567ffffffffffffffff8111156148bd576148bc615531565b5b6148c9858286016147f2565b9150509250929050565b600080604083850312156148ea576148e9615536565b5b60006148f8858286016147c8565b925050602061490985828601614820565b9150509250929050565b6000806040838503121561492a57614929615536565b5b6000614938858286016147c8565b925050602061494985828601614835565b9150509250929050565b6000806040838503121561496a57614969615536565b5b6000614978858286016147dd565b925050602061498985828601614820565b9150509250929050565b60008060008060008060c087890312156149b0576149af615536565b5b600087013567ffffffffffffffff8111156149ce576149cd615531565b5b6149da89828a016147f2565b965050602087013567ffffffffffffffff8111156149fb576149fa615531565b5b614a0789828a016147f2565b9550506040614a1889828a01614820565b945050606087013567ffffffffffffffff811115614a3957614a38615531565b5b614a4589828a016147f2565b935050608087013567ffffffffffffffff811115614a6657614a65615531565b5b614a7289828a016147f2565b92505060a0614a8389828a016147dd565b9150509295509295509295565b60008060408385031215614aa757614aa6615536565b5b600083013567ffffffffffffffff811115614ac557614ac4615531565b5b614ad1858286016147f2565b9250506020614ae285828601614820565b9150509250929050565b600060208284031215614b0257614b01615536565b5b6000614b1084828501614820565b91505092915050565b600080600080600060a08688031215614b3557614b34615536565b5b6000614b4388828901614820565b955050602086013567ffffffffffffffff811115614b6457614b63615531565b5b614b70888289016147f2565b945050604086013567ffffffffffffffff811115614b9157614b90615531565b5b614b9d888289016147f2565b9350506060614bae88828901614820565b9250506080614bbf888289016147dd565b9150509295509295909350565b60008060408385031215614be357614be2615536565b5b6000614bf185828601614820565b9250506020614c0285828601614820565b9150509250929050565b6000614c188383614e01565b60208301905092915050565b614c2d816152a5565b82525050565b614c3c816152a5565b82525050565b6000614c4d826151c5565b614c5781856151e8565b9350614c62836151b5565b8060005b83811015614c93578151614c7a8882614c0c565b9750614c85836151db565b925050600181019050614c66565b5085935050505092915050565b614ca9816152b7565b82525050565b614cb88161530d565b82525050565b6000614cc9826151d0565b614cd381856151f9565b9350614ce381856020860161532e565b614cec8161553b565b840191505092915050565b6000614d02826151d0565b614d0c818561520a565b9350614d1c81856020860161532e565b614d258161553b565b840191505092915050565b60006040830160008301518482036000860152614d4d8282614c42565b9150506020830151614d626020860182614e01565b508091505092915050565b60006040830160008301518482036000860152614d8a8282614c42565b9150506020830151614d9f6020860182614e01565b508091505092915050565b6000606083016000830151614dc26000860182614c24565b5060208301518482036020860152614dda8282614cbe565b91505060408301518482036040860152614df48282614d30565b9150508091505092915050565b614e0a816152f6565b82525050565b614e19816152f6565b82525050565b6000602082019050614e346000830184614c33565b92915050565b6000606082019050614e4f6000830186614c33565b8181036020830152614e618185614cf7565b90508181036040830152614e758184614d6d565b9050949350505050565b6000604082019050614e946000830185614c33565b614ea16020830184614e10565b9392505050565b6000608082019050614ebd6000830187614c33565b614eca6020830186614e10565b614ed76040830185614e10565b614ee46060830184614e10565b95945050505050565b6000602082019050614f026000830184614ca0565b92915050565b6000604082019050614f1d6000830185614ca0565b614f2a6020830184614e10565b9392505050565b60006020820190508181036000830152614f4b8184614cf7565b905092915050565b60006020820190508181036000830152614f6d8184614daa565b905092915050565b6000602082019050614f8a6000830184614e10565b92915050565b600060c082019050614fa56000830189614e10565b8181036020830152614fb78188614cf7565b90508181036040830152614fcb8187614cf7565b9050614fda6060830186614e10565b8181036080830152614fec8185614cf7565b905081810360a08301526150008184614cf7565b9050979650505050505050565b600061010082019050615023600083018b614e10565b8181036020830152615035818a614cf7565b905081810360408301526150498189614cf7565b90506150586060830188614e10565b818103608083015261506a8187614cf7565b905081810360a083015261507e8186614cf7565b905061508d60c0830185614c33565b61509a60e0830184614ca0565b9998505050505050505050565b6000610140820190506150bd600083018d614e10565b81810360208301526150cf818c614cf7565b905081810360408301526150e3818b614cf7565b90506150f2606083018a614e10565b81810360808301526151048189614cf7565b905081810360a08301526151188188614cf7565b905061512760c0830187614c33565b61513460e0830186614ca0565b615142610100830185614caf565b615150610120830184614e10565b9b9a5050505050505050505050565b600061516961517a565b90506151758282615393565b919050565b6000604051905090565b600067ffffffffffffffff82111561519f5761519e6154f8565b5b6151a88261553b565b9050602081019050919050565b6000819050602082019050919050565b600081519050919050565b600081519050919050565b6000602082019050919050565b600082825260208201905092915050565b600082825260208201905092915050565b600082825260208201905092915050565b6000615226826152f6565b9150615231836152f6565b9250827fffffffffffffffffffffffffffffffffffffffffffffffffffffffffffffffff038211156152665761526561540d565b5b828201905092915050565b600061527c826152f6565b9150615287836152f6565b92508282101561529a5761529961540d565b5b828203905092915050565b60006152b0826152d6565b9050919050565b60008115159050919050565b60008190506152d18261554c565b919050565b600073ffffffffffffffffffffffffffffffffffffffff82169050919050565b6000819050919050565b600060ff82169050919050565b6000615318826152c3565b9050919050565b82818337600083830152505050565b60005b8381101561534c578082015181840152602081019050615331565b8381111561535b576000848401525b50505050565b6000600282049050600182168061537957607f821691505b6020821081141561538d5761538c61546b565b5b50919050565b61539c8261553b565b810181811067ffffffffffffffff821117156153bb576153ba6154f8565b5b80604052505050565b60006153cf826152f6565b91507fffffffffffffffffffffffffffffffffffffffffffffffffffffffffffffffff8214156154025761540161540d565b5b600182019050919050565b7f4e487b7100000000000000000000000000000000000000000000000000000000600052601160045260246000fd5b7f4e487b7100000000000000000000000000000000000000000000000000000000600052602160045260246000fd5b7f4e487b7100000000000000000000000000000000000000000000000000000000600052602260045260246000fd5b7f4e487b7100000000000000000000000000000000000000000000000000000000600052603160045260246000fd5b7f4e487b7100000000000000000000000000000000000000000000000000000000600052603260045260246000fd5b7f4e487b7100000000000000000000000000000000000000000000000000000000600052604160045260246000fd5b600080fd5b600080fd5b600080fd5b600080fd5b6000601f19601f8301169050919050565b600b811061555d5761555c61543c565b5b50565b615569816152a5565b811461557457600080fd5b50565b600b811061558457600080fd5b50565b615590816152f6565b811461559b57600080fd5b50565b6155a781615300565b81146155b257600080fd5b5056fea2646970667358221220cfb55207721603a03943e632642db5de87fbb78752c8d3c5e7e43571deb4b26064736f6c63430008070033",
  "immutableReferences": {},
  "source": "// if purchased w bdi 27zfa\r\n// SPDX-License-Identifier: MIT\r\npragma solidity  ^0.8.0;\r\n\r\ncontract Marketplace {\r\n    //string public name;\r\n    uint public productCount = 0;\r\n    uint public customerCount = 0;\r\n    //to store the products on blockchain\r\n    bool public flag = false;\r\n    mapping(uint => Product) public products;\r\n    mapping(uint => uint[]) public productsRates;\r\n    mapping(uint => string[]) public productsReviews;\r\n    mapping(Categories => uint[]) public categorieToProduct;\r\n    //to store the customers on blockchain\r\n    mapping(address  => Customer) public customers;\r\n    mapping(uint => address) public addressLUT;\r\n    // Maps owner to their images\r\n    mapping (address => Product[]) public ownerToProducts;\r\n    uint[] public emptySpaces;\r\n    uint public len; \r\n    uint public ftt = 0;\r\n    enum Categories {\r\n        Tech,\r\n        PCGames,\r\n        PS4Games,\r\n        XboxGames,\r\n        Movies,\r\n        Courses,\r\n        Books,\r\n        AudioBooks,\r\n        Images,\r\n        Videos,\r\n        Other\r\n    }\r\n    struct Customer {\r\n        address adr;\r\n        string name;\r\n        Cart cart;\r\n        \r\n    }\r\n\r\n    struct Cart {\r\n      uint256[] products;\r\n      uint256 completeSum;\r\n    }\r\n\r\n    struct Product {\r\n        uint id;\r\n        string name;\r\n        string description;\r\n        uint price;\r\n        string imgipfshash;\r\n        string fileipfshash;\r\n        address owner;\r\n        bool purchased;\r\n        address[] owners;\r\n        Categories categorie;\r\n        uint256 uploadedOn;\r\n    }\r\n\r\n    event ProductCreated(uint id, string name, string description, uint price, string imgipfshash, string fileipfshash, address owner, bool purchased);\r\n    event ProductPurchased(uint id, string name, string description, uint price, string imgipfshash, string fileipfshash, address owner, bool purchased);\r\n    event CustomerRegistered(address customer);\r\n    event CustomerRegistrationFailed(address customer);\r\n    event CartProductInserted(address customer, uint256 prodId, uint256 prodPrice, uint256 completeSum);\r\n    event CartProductInsertionFailed(address customer, uint256 prodId);\r\n    event CartProductRemoved(address customer, uint256 prodId);\r\n    event CartEmptied(address customer);\r\n\r\n    // Create a new product with a struct\r\n    // Add the struct to the mapping, and store it on the blockchain\r\n    // Trigger an event that lets someone know a product was creatd\r\n    function createProduct(string memory _name,string memory _description, uint _price,string memory _imgipfshash,string memory _fileipfshash , Categories _categorie ) public {\r\n        // Require a valid name\r\n        require(bytes(_name).length > 0);\r\n        // Require a valid description\r\n        //require(bytes(_description).length > 0);\r\n        // Require a valid price\r\n        require(_price > 0);\r\n        // Require a valid image hash\r\n        //require(bytes(_imgipfshash).length > 0);\r\n        // Require a valid file hash\r\n        //require(bytes(_fileipfshash).length > 0);*/\r\n        // Increment product count\r\n        uint256 _uploadedOn = block.timestamp;\r\n        if(emptySpaces.length == 0 || emptySpaces[0]==0){\r\n                productCount ++;\r\n                products[productCount] = Product(productCount, _name , _description, _price , _imgipfshash , _fileipfshash ,msg.sender, false ,new address[](0), _categorie , _uploadedOn);\r\n                categorieToProduct[_categorie].push(productCount);\r\n                ownerToProducts[msg.sender].push(Product({\r\n                id: productCount,\r\n                name: _name,\r\n                description: _description,\r\n                price: _price,\r\n                imgipfshash: _imgipfshash,\r\n                fileipfshash:_fileipfshash,\r\n                owner: msg.sender,\r\n                purchased: false,\r\n                owners: new address[](0),\r\n                categorie: _categorie,\r\n                uploadedOn: _uploadedOn\r\n                \r\n            }));\r\n            emit ProductCreated(productCount, _name, _description, _price, _imgipfshash,_fileipfshash, msg.sender, false);\r\n        }\r\n        else{\r\n            uint tmp = emptySpaces[0];\r\n            products[emptySpaces[0]] = Product(emptySpaces[0], _name , _description ,_price , _imgipfshash ,_fileipfshash, msg.sender, false,new address[](0), _categorie, _uploadedOn);\r\n            len = emptySpaces.length;\r\n            for(uint i = 0;i < emptySpaces.length - 1;i++){\r\n                emptySpaces[i] = emptySpaces[ i+1 ];\r\n            }\r\n            emptySpaces.pop();\r\n            categorieToProduct[_categorie][tmp-1] = tmp;\r\n            ownerToProducts[msg.sender][tmp] = Product(\r\n                tmp,\r\n                _name,\r\n                _description,\r\n                _price,\r\n                _imgipfshash,\r\n                _fileipfshash,\r\n                msg.sender,\r\n                false,\r\n                new address[](0),\r\n                _categorie,\r\n                _uploadedOn\r\n                );\r\n                emit ProductCreated(tmp, _name, _description, _price, _imgipfshash,_fileipfshash, msg.sender, false);\r\n        }\r\n        \r\n    }\r\n\r\n    function removeProduct(uint id1) public {\r\n        removeNestedProduct(id1);\r\n        delete products [id1];\r\n        delete productsRates[id1];\r\n        delete productsReviews[id1];\r\n        Categories cat;\r\n        cat = products[id1].categorie;\r\n        delete categorieToProduct[cat][id1-1];\r\n        emptySpaces.push(id1);\r\n    }\r\n    function removeNestedProduct(uint id1) public {\r\n        delete ownerToProducts[msg.sender][id1];\r\n    }\r\n    function purchaseProduct(uint _id) public payable {\r\n        // Fetch the product\r\n        Product memory _product = products[_id];\r\n        // Fetch the owner\r\n        address _seller = _product.owner;\r\n        /*// Make sure the product has a valid id\r\n        require(_product.id > 0 && _product.id <= productCount);\r\n        // Require that there is enough Ether in the transaction\r\n        require(msg.value >= _product.price);\r\n        // Require that the product has not been purchased already\r\n        require(!_product.purchased);\r\n        // Require that the buyer is not the seller\r\n        require(_seller != msg.sender);\r\n        // Transfer ownership to the buyer*/\r\n        _product.owner = msg.sender;\r\n        // Mark as purchased\r\n        _product.purchased = true;\r\n        // Update the product\r\n        products[_id] = _product;\r\n        // Pay the seller by sending them Ether\r\n        payable(_seller).transfer(msg.value);\r\n        //removeNestedProduct(_id);\r\n        // Trigger an event\r\n        emit ProductPurchased(productCount, _product.name,_product.description, _product.price, _product.imgipfshash, _product.fileipfshash, msg.sender, true);\r\n    }\r\n    function editProduct(uint256 _id , string memory _name , string memory _des , uint _price , Categories _categorie) public{\r\n        Product memory _product = products[_id];\r\n        _product.name = _name;\r\n        _product.description = _des;\r\n        _product.price = _price;\r\n        _product.categorie = _categorie;\r\n        products[_id] = _product;\r\n        Product memory _ownerToProducts = ownerToProducts[msg.sender][_id];\r\n        _ownerToProducts.name = _name;\r\n        _ownerToProducts.description = _des;\r\n        _ownerToProducts.price = _price;\r\n        _ownerToProducts.categorie = _categorie;\r\n        ownerToProducts[msg.sender][_id] = _ownerToProducts;\r\n    }\r\n    \r\n    function giveRate(uint _rate ,uint pos_in_prod_mapping ) public {\r\n        productsRates[pos_in_prod_mapping].push(_rate);\r\n    }\r\n    function writeReview(string memory _review ,uint pos_in_prod_mapping) public {\r\n        productsReviews[pos_in_prod_mapping].push(_review);\r\n    }\r\n\r\n    function insertProductIntoCart(uint256 id) public returns (bool success,\r\n                                                  uint256 pos_in_prod_mapping) {\r\n        Customer storage cust = customers[msg.sender];\r\n        Product memory prod = products[id];\r\n        uint256 prods_prev_len = cust.cart.products.length;\r\n        cust.cart.products.push(prod.id);\r\n        uint256 current_sum = cust.cart.completeSum;\r\n        cust.cart.completeSum = current_sum + prod.price;\r\n        if (cust.cart.products.length > prods_prev_len) {\r\n          emit CartProductInserted(msg.sender, id, prod.price, cust.cart.completeSum);\r\n          return (true, cust.cart.products.length - 1);\r\n        }\r\n        emit CartProductInsertionFailed(msg.sender, id);\r\n        return (false, 0);\r\n    }\r\n\r\n    function removeProductFromCart(uint256 prod_pos_in_mapping) public {\r\n        uint256[] memory new_product_list = new uint256[](customers[msg.sender]\r\n                                                    .cart.products.length - 1);\r\n        uint256[] memory customerProds = customers[msg.sender].cart.products;\r\n        for (uint256 i = 0; i < customerProds.length; i++) {\r\n          if (i != prod_pos_in_mapping) {\r\n            new_product_list[i] = customerProds[i];\r\n          } else {\r\n            customers[msg.sender].cart.completeSum -=\r\n                                               products[customerProds[i]].price;\r\n            emit CartProductRemoved(msg.sender, customerProds[i]);\r\n          }\r\n        }\r\n        customers[msg.sender].cart.products = new_product_list;\r\n    }\r\n\r\n    function emptyCart() public returns (bool success) {\r\n        Customer storage customer = customers[msg.sender];\r\n        customer.cart = Cart(new uint256[](0), 0);\r\n        emit CartEmptied(customer.adr);\r\n        return true;\r\n    }\r\n\r\n    function registerCustomer(address _address, string memory _name)\r\n                                        public returns (bool success) {\r\n    ownerToProducts[msg.sender].push(Product({\r\n                id: 0,\r\n                name: \"dummy\",\r\n                description: \"dummy\",\r\n                price: 0,\r\n                imgipfshash: \"dummy\",\r\n                fileipfshash:\"dummy\",\r\n                owner: 0x0000000000000000000000000000000000000000,\r\n                purchased: false,\r\n                owners: new address[](0),\r\n                categorie: Categories.Tech,\r\n                uploadedOn:0\r\n        }));\r\n\r\n        Customer memory customer = Customer(_address, _name,Cart(new uint256[](0), 0));\r\n        customerCount++;\r\n        addressLUT[customerCount]=customer.adr;\r\n        customers[_address] = customer;\r\n        emit CustomerRegistered(_address);\r\n        return true;\r\n    }\r\n\r\n    function getCustomer(address _adr) view public returns(Customer memory){\r\n    \treturn customers[_adr];\r\n    }\r\n\r\n    function getProductCount(address _owner) view\r\n        public\r\n        returns (uint256) \r\n    {\r\n        require(_owner != address(0));\r\n        return ownerToProducts[_owner].length;\r\n    }\r\n\r\n    function getProduct(address _owner, uint8 _index) view\r\n        public returns (\r\n        uint _id, \r\n        string memory _name, \r\n        string memory _description,\r\n        uint _price,\r\n        string memory imgipfshash,\r\n        string memory fileipfshash\r\n    ) {\r\n\r\n        require(_owner != address(0));\r\n        require(_index >= 0 && _index <= 2**8 - 1);\r\n        require(ownerToProducts[_owner].length > 0);\r\n\r\n        Product storage product = ownerToProducts[_owner][_index];\r\n        \r\n        return (\r\n            product.id, \r\n            product.name,\r\n            product.description,\r\n            product.price,\r\n            product.imgipfshash,\r\n            product.fileipfshash\r\n        );\r\n    }\r\n\r\n}",
  "sourcePath": "C:\\Users\\Administrator\\Desktop\\MarketPlace\\src\\contracts\\Marketplace.sol",
  "compiler": {
    "name": "solc",
    "version": "0.8.7+commit.e28d00a7.Emscripten.clang"
  },
  "schemaVersion": "3.4.2",
  "updatedAt": "2021-08-19T21:34:41.652Z",
  "networkType": "ethereum",
  "devdoc": {
    "kind": "dev",
    "methods": {},
    "version": 1
  },
  "userdoc": {
    "kind": "user",
    "methods": {},
    "version": 1
  }
}