{
  "contractName": "Marketplace",
  "abi": [
    {
      "anonymous": false,
      "inputs": [
        {
          "indexed": false,
          "internalType": "address",
          "name": "customer",
          "type": "address"
        }
      ],
      "name": "CartEmptied",
      "type": "event"
    },
    {
      "anonymous": false,
      "inputs": [
        {
          "indexed": false,
          "internalType": "address",
          "name": "customer",
          "type": "address"
        },
        {
          "indexed": false,
          "internalType": "uint256",
          "name": "prodId",
          "type": "uint256"
        },
        {
          "indexed": false,
          "internalType": "uint256",
          "name": "prodPrice",
          "type": "uint256"
        },
        {
          "indexed": false,
          "internalType": "uint256",
          "name": "completeSum",
          "type": "uint256"
        }
      ],
      "name": "CartProductInserted",
      "type": "event"
    },
    {
      "anonymous": false,
      "inputs": [
        {
          "indexed": false,
          "internalType": "address",
          "name": "customer",
          "type": "address"
        },
        {
          "indexed": false,
          "internalType": "uint256",
          "name": "prodId",
          "type": "uint256"
        }
      ],
      "name": "CartProductInsertionFailed",
      "type": "event"
    },
    {
      "anonymous": false,
      "inputs": [
        {
          "indexed": false,
          "internalType": "address",
          "name": "customer",
          "type": "address"
        },
        {
          "indexed": false,
          "internalType": "uint256",
          "name": "prodId",
          "type": "uint256"
        }
      ],
      "name": "CartProductRemoved",
      "type": "event"
    },
    {
      "anonymous": false,
      "inputs": [
        {
          "indexed": false,
          "internalType": "address",
          "name": "customer",
          "type": "address"
        }
      ],
      "name": "CustomerRegistered",
      "type": "event"
    },
    {
      "anonymous": false,
      "inputs": [
        {
          "indexed": false,
          "internalType": "address",
          "name": "customer",
          "type": "address"
        }
      ],
      "name": "CustomerRegistrationFailed",
      "type": "event"
    },
    {
      "anonymous": false,
      "inputs": [
        {
          "indexed": false,
          "internalType": "uint256",
          "name": "id",
          "type": "uint256"
        },
        {
          "indexed": false,
          "internalType": "string",
          "name": "name",
          "type": "string"
        },
        {
          "indexed": false,
          "internalType": "string",
          "name": "description",
          "type": "string"
        },
        {
          "indexed": false,
          "internalType": "uint256",
          "name": "price",
          "type": "uint256"
        },
        {
          "indexed": false,
          "internalType": "string",
          "name": "imgipfshash",
          "type": "string"
        },
        {
          "indexed": false,
          "internalType": "string",
          "name": "fileipfshash",
          "type": "string"
        },
        {
          "indexed": false,
          "internalType": "address",
          "name": "owner",
          "type": "address"
        },
        {
          "indexed": false,
          "internalType": "bool",
          "name": "purchased",
          "type": "bool"
        }
      ],
      "name": "ProductCreated",
      "type": "event"
    },
    {
      "anonymous": false,
      "inputs": [
        {
          "indexed": false,
          "internalType": "uint256",
          "name": "id",
          "type": "uint256"
        },
        {
          "indexed": false,
          "internalType": "string",
          "name": "name",
          "type": "string"
        },
        {
          "indexed": false,
          "internalType": "string",
          "name": "description",
          "type": "string"
        },
        {
          "indexed": false,
          "internalType": "uint256",
          "name": "price",
          "type": "uint256"
        },
        {
          "indexed": false,
          "internalType": "string",
          "name": "imgipfshash",
          "type": "string"
        },
        {
          "indexed": false,
          "internalType": "string",
          "name": "fileipfshash",
          "type": "string"
        },
        {
          "indexed": false,
          "internalType": "address",
          "name": "owner",
          "type": "address"
        },
        {
          "indexed": false,
          "internalType": "bool",
          "name": "purchased",
          "type": "bool"
        }
      ],
      "name": "ProductPurchased",
      "type": "event"
    },
    {
      "inputs": [
        {
          "internalType": "uint256",
          "name": "",
          "type": "uint256"
        }
      ],
      "name": "addressLUT",
      "outputs": [
        {
          "internalType": "address",
          "name": "",
          "type": "address"
        }
      ],
      "stateMutability": "view",
      "type": "function",
      "constant": true
    },
    {
      "inputs": [],
      "name": "customerCount",
      "outputs": [
        {
          "internalType": "uint256",
          "name": "",
          "type": "uint256"
        }
      ],
      "stateMutability": "view",
      "type": "function",
      "constant": true
    },
    {
      "inputs": [
        {
          "internalType": "address",
          "name": "",
          "type": "address"
        }
      ],
      "name": "customers",
      "outputs": [
        {
          "internalType": "address",
          "name": "adr",
          "type": "address"
        },
        {
          "internalType": "string",
          "name": "name",
          "type": "string"
        },
        {
          "components": [
            {
              "internalType": "uint256[]",
              "name": "products",
              "type": "uint256[]"
            },
            {
              "internalType": "uint256",
              "name": "completeSum",
              "type": "uint256"
            }
          ],
          "internalType": "struct Marketplace.Cart",
          "name": "cart",
          "type": "tuple"
        }
      ],
      "stateMutability": "view",
      "type": "function",
      "constant": true
    },
    {
      "inputs": [
        {
          "internalType": "uint256",
          "name": "",
          "type": "uint256"
        }
      ],
      "name": "emptySpaces",
      "outputs": [
        {
          "internalType": "uint256",
          "name": "",
          "type": "uint256"
        }
      ],
      "stateMutability": "view",
      "type": "function",
      "constant": true
    },
    {
      "inputs": [],
      "name": "flag",
      "outputs": [
        {
          "internalType": "bool",
          "name": "",
          "type": "bool"
        }
      ],
      "stateMutability": "view",
      "type": "function",
      "constant": true
    },
    {
      "inputs": [],
      "name": "ftt",
      "outputs": [
        {
          "internalType": "uint256",
          "name": "",
          "type": "uint256"
        }
      ],
      "stateMutability": "view",
      "type": "function",
      "constant": true
    },
    {
      "inputs": [],
      "name": "len",
      "outputs": [
        {
          "internalType": "uint256",
          "name": "",
          "type": "uint256"
        }
      ],
      "stateMutability": "view",
      "type": "function",
      "constant": true
    },
    {
      "inputs": [
        {
          "internalType": "address",
          "name": "",
          "type": "address"
        },
        {
          "internalType": "uint256",
          "name": "",
          "type": "uint256"
        }
      ],
      "name": "ownerToProducts",
      "outputs": [
        {
          "internalType": "uint256",
          "name": "id",
          "type": "uint256"
        },
        {
          "internalType": "string",
          "name": "name",
          "type": "string"
        },
        {
          "internalType": "string",
          "name": "description",
          "type": "string"
        },
        {
          "internalType": "uint256",
          "name": "price",
          "type": "uint256"
        },
        {
          "internalType": "string",
          "name": "imgipfshash",
          "type": "string"
        },
        {
          "internalType": "string",
          "name": "fileipfshash",
          "type": "string"
        },
        {
          "internalType": "address",
          "name": "owner",
          "type": "address"
        },
        {
          "internalType": "bool",
          "name": "purchased",
          "type": "bool"
        }
      ],
      "stateMutability": "view",
      "type": "function",
      "constant": true
    },
    {
      "inputs": [],
      "name": "productCount",
      "outputs": [
        {
          "internalType": "uint256",
          "name": "",
          "type": "uint256"
        }
      ],
      "stateMutability": "view",
      "type": "function",
      "constant": true
    },
    {
      "inputs": [
        {
          "internalType": "uint256",
          "name": "",
          "type": "uint256"
        }
      ],
      "name": "products",
      "outputs": [
        {
          "internalType": "uint256",
          "name": "id",
          "type": "uint256"
        },
        {
          "internalType": "string",
          "name": "name",
          "type": "string"
        },
        {
          "internalType": "string",
          "name": "description",
          "type": "string"
        },
        {
          "internalType": "uint256",
          "name": "price",
          "type": "uint256"
        },
        {
          "internalType": "string",
          "name": "imgipfshash",
          "type": "string"
        },
        {
          "internalType": "string",
          "name": "fileipfshash",
          "type": "string"
        },
        {
          "internalType": "address",
          "name": "owner",
          "type": "address"
        },
        {
          "internalType": "bool",
          "name": "purchased",
          "type": "bool"
        }
      ],
      "stateMutability": "view",
      "type": "function",
      "constant": true
    },
    {
      "inputs": [
        {
          "internalType": "string",
          "name": "_name",
          "type": "string"
        },
        {
          "internalType": "string",
          "name": "_description",
          "type": "string"
        },
        {
          "internalType": "uint256",
          "name": "_price",
          "type": "uint256"
        },
        {
          "internalType": "string",
          "name": "_imgipfshash",
          "type": "string"
        },
        {
          "internalType": "string",
          "name": "_fileipfshash",
          "type": "string"
        }
      ],
      "name": "createProduct",
      "outputs": [],
      "stateMutability": "nonpayable",
      "type": "function"
    },
    {
      "inputs": [
        {
          "internalType": "uint256",
          "name": "id1",
          "type": "uint256"
        }
      ],
      "name": "removeProduct",
      "outputs": [],
      "stateMutability": "nonpayable",
      "type": "function"
    },
    {
      "inputs": [
        {
          "internalType": "uint256",
          "name": "id1",
          "type": "uint256"
        }
      ],
      "name": "removeNestedProduct",
      "outputs": [],
      "stateMutability": "nonpayable",
      "type": "function"
    },
    {
      "inputs": [
        {
          "internalType": "uint256",
          "name": "_id",
          "type": "uint256"
        }
      ],
      "name": "purchaseProduct",
      "outputs": [],
      "stateMutability": "payable",
      "type": "function",
      "payable": true
    },
    {
      "inputs": [
        {
          "internalType": "uint256",
          "name": "_id",
          "type": "uint256"
        },
        {
          "internalType": "string",
          "name": "_name",
          "type": "string"
        },
        {
          "internalType": "string",
          "name": "_des",
          "type": "string"
        },
        {
          "internalType": "uint256",
          "name": "_price",
          "type": "uint256"
        },
        {
          "internalType": "string",
          "name": "_imgipfshash",
          "type": "string"
        },
        {
          "internalType": "string",
          "name": "_fileipfshash",
          "type": "string"
        }
      ],
      "name": "editProduct",
      "outputs": [],
      "stateMutability": "nonpayable",
      "type": "function"
    },
    {
      "inputs": [
        {
          "internalType": "uint256",
          "name": "id",
          "type": "uint256"
        }
      ],
      "name": "insertProductIntoCart",
      "outputs": [
        {
          "internalType": "bool",
          "name": "success",
          "type": "bool"
        },
        {
          "internalType": "uint256",
          "name": "pos_in_prod_mapping",
          "type": "uint256"
        }
      ],
      "stateMutability": "nonpayable",
      "type": "function"
    },
    {
      "inputs": [
        {
          "internalType": "uint256",
          "name": "prod_pos_in_mapping",
          "type": "uint256"
        }
      ],
      "name": "removeProductFromCart",
      "outputs": [],
      "stateMutability": "nonpayable",
      "type": "function"
    },
    {
      "inputs": [],
      "name": "emptyCart",
      "outputs": [
        {
          "internalType": "bool",
          "name": "success",
          "type": "bool"
        }
      ],
      "stateMutability": "nonpayable",
      "type": "function"
    },
    {
      "inputs": [
        {
          "internalType": "address",
          "name": "_address",
          "type": "address"
        },
        {
          "internalType": "string",
          "name": "_name",
          "type": "string"
        }
      ],
      "name": "registerCustomer",
      "outputs": [
        {
          "internalType": "bool",
          "name": "success",
          "type": "bool"
        }
      ],
      "stateMutability": "nonpayable",
      "type": "function"
    },
    {
      "inputs": [
        {
          "internalType": "address",
          "name": "_adr",
          "type": "address"
        }
      ],
      "name": "getCustomer",
      "outputs": [
        {
          "components": [
            {
              "internalType": "address",
              "name": "adr",
              "type": "address"
            },
            {
              "internalType": "string",
              "name": "name",
              "type": "string"
            },
            {
              "components": [
                {
                  "internalType": "uint256[]",
                  "name": "products",
                  "type": "uint256[]"
                },
                {
                  "internalType": "uint256",
                  "name": "completeSum",
                  "type": "uint256"
                }
              ],
              "internalType": "struct Marketplace.Cart",
              "name": "cart",
              "type": "tuple"
            }
          ],
          "internalType": "struct Marketplace.Customer",
          "name": "",
          "type": "tuple"
        }
      ],
      "stateMutability": "view",
      "type": "function",
      "constant": true
    },
    {
      "inputs": [
        {
          "internalType": "address",
          "name": "_owner",
          "type": "address"
        }
      ],
      "name": "getProductCount",
      "outputs": [
        {
          "internalType": "uint256",
          "name": "",
          "type": "uint256"
        }
      ],
      "stateMutability": "view",
      "type": "function",
      "constant": true
    },
    {
      "inputs": [
        {
          "internalType": "address",
          "name": "_owner",
          "type": "address"
        },
        {
          "internalType": "uint8",
          "name": "_index",
          "type": "uint8"
        }
      ],
      "name": "getProduct",
      "outputs": [
        {
          "internalType": "uint256",
          "name": "_id",
          "type": "uint256"
        },
        {
          "internalType": "string",
          "name": "_name",
          "type": "string"
        },
        {
          "internalType": "string",
          "name": "_description",
          "type": "string"
        },
        {
          "internalType": "uint256",
          "name": "_price",
          "type": "uint256"
        },
        {
          "internalType": "string",
          "name": "imgipfshash",
          "type": "string"
        },
        {
          "internalType": "string",
          "name": "fileipfshash",
          "type": "string"
        }
      ],
      "stateMutability": "view",
      "type": "function",
      "constant": true
    }
  ],
  "bytecode": "0x60806040526000805560006001556000600260006101000a81548160ff021916908315150217905550600060095534801561003957600080fd5b50614a8e806100496000396000f3fe6080604052600436106101355760003560e01c8063846c8dea116100ab578063cb949e511161006f578063cb949e5114610462578063ce9f791d1461049f578063d17209d7146104ca578063db1970f4146104f3578063e0f6ef8714610530578063e8b4194e1461055b57610135565b8063846c8dea1461037b578063890eba68146103a45780639757e8a3146103cf578063a0c8c156146103fa578063aca490181461042557610135565b806356d88e27116100fd57806356d88e271461023f5780635ee95cae1461026a5780636ebdac121461029357806377faa57c146102bc5780637acc0b20146102f95780637e6b867f1461033d57610135565b806330ff59481461013a578063336989ae1461017e57806338e76a03146101bd5780634b4f69fb146101d957806350208eee14610202575b600080fd5b34801561014657600080fd5b50610161600480360381019061015c9190613f7b565b61059d565b6040516101759897969594939291906145e0565b60405180910390f35b34801561018a57600080fd5b506101a560048036038101906101a09190613ef2565b61084f565b6040516101b49392919061442f565b60405180910390f35b6101d760048036038101906101d291906140e6565b61098d565b005b3480156101e557600080fd5b5061020060048036038101906101fb9190614113565b610f32565b005b34801561020e57600080fd5b5061022960048036038101906102249190613ef2565b611974565b6040516102369190614548565b60405180910390f35b34801561024b57600080fd5b506102546119f9565b6040516102619190614548565b60405180910390f35b34801561027657600080fd5b50610291600480360381019061028c91906140e6565b6119ff565b005b34801561029f57600080fd5b506102ba60048036038101906102b591906140e6565b611ae5565b005b3480156102c857600080fd5b506102e360048036038101906102de91906140e6565b611dc3565b6040516102f09190614548565b60405180910390f35b34801561030557600080fd5b50610320600480360381019061031b91906140e6565b611de7565b6040516103349897969594939291906145e0565b60405180910390f35b34801561034957600080fd5b50610364600480360381019061035f91906140e6565b61207c565b6040516103729291906144fd565b60405180910390f35b34801561038757600080fd5b506103a2600480360381019061039d91906140e6565b612571565b005b3480156103b057600080fd5b506103b9612671565b6040516103c691906144e2565b60405180910390f35b3480156103db57600080fd5b506103e4612684565b6040516103f19190614548565b60405180910390f35b34801561040657600080fd5b5061040f61268a565b60405161041c91906144e2565b60405180910390f35b34801561043157600080fd5b5061044c600480360381019061044791906140e6565b6127be565b6040516104599190614414565b60405180910390f35b34801561046e57600080fd5b5061048960048036038101906104849190613ef2565b6127f1565b6040516104969190614526565b60405180910390f35b3480156104ab57600080fd5b506104b46129a8565b6040516104c19190614548565b60405180910390f35b3480156104d657600080fd5b506104f160048036038101906104ec9190613ffb565b6129ae565b005b3480156104ff57600080fd5b5061051a60048036038101906105159190613f1f565b613380565b60405161052791906144e2565b60405180910390f35b34801561053c57600080fd5b50610545613890565b6040516105529190614548565b60405180910390f35b34801561056757600080fd5b50610582600480360381019061057d9190613fbb565b613896565b60405161059496959493929190614563565b60405180910390f35b600660205281600052604060002081815481106105b957600080fd5b9060005260206000209060080201600091509150508060000154908060010180546105e390614857565b80601f016020809104026020016040519081016040528092919081815260200182805461060f90614857565b801561065c5780601f106106315761010080835404028352916020019161065c565b820191906000526020600020905b81548152906001019060200180831161063f57829003601f168201915b50505050509080600201805461067190614857565b80601f016020809104026020016040519081016040528092919081815260200182805461069d90614857565b80156106ea5780601f106106bf576101008083540402835291602001916106ea565b820191906000526020600020905b8154815290600101906020018083116106cd57829003601f168201915b50505050509080600301549080600401805461070590614857565b80601f016020809104026020016040519081016040528092919081815260200182805461073190614857565b801561077e5780601f106107535761010080835404028352916020019161077e565b820191906000526020600020905b81548152906001019060200180831161076157829003601f168201915b50505050509080600501805461079390614857565b80601f01602080910402602001604051908101604052809291908181526020018280546107bf90614857565b801561080c5780601f106107e15761010080835404028352916020019161080c565b820191906000526020600020905b8154815290600101906020018083116107ef57829003601f168201915b5050505050908060060160009054906101000a900473ffffffffffffffffffffffffffffffffffffffff16908060060160149054906101000a900460ff16905088565b60046020528060005260406000206000915090508060000160009054906101000a900473ffffffffffffffffffffffffffffffffffffffff169080600101805461089890614857565b80601f01602080910402602001604051908101604052809291908181526020018280546108c490614857565b80156109115780601f106108e657610100808354040283529160200191610911565b820191906000526020600020905b8154815290600101906020018083116108f457829003601f168201915b505050505090806002016040518060400160405290816000820180548060200260200160405190810160405280929190818152602001828054801561097557602002820191906000526020600020905b815481526020019060010190808311610961575b50505050508152602001600182015481525050905083565b60006003600083815260200190815260200160002060405180610120016040529081600082015481526020016001820180546109c890614857565b80601f01602080910402602001604051908101604052809291908181526020018280546109f490614857565b8015610a415780601f10610a1657610100808354040283529160200191610a41565b820191906000526020600020905b815481529060010190602001808311610a2457829003601f168201915b50505050508152602001600282018054610a5a90614857565b80601f0160208091040260200160405190810160405280929190818152602001828054610a8690614857565b8015610ad35780601f10610aa857610100808354040283529160200191610ad3565b820191906000526020600020905b815481529060010190602001808311610ab657829003601f168201915b5050505050815260200160038201548152602001600482018054610af690614857565b80601f0160208091040260200160405190810160405280929190818152602001828054610b2290614857565b8015610b6f5780601f10610b4457610100808354040283529160200191610b6f565b820191906000526020600020905b815481529060010190602001808311610b5257829003601f168201915b50505050508152602001600582018054610b8890614857565b80601f0160208091040260200160405190810160405280929190818152602001828054610bb490614857565b8015610c015780601f10610bd657610100808354040283529160200191610c01565b820191906000526020600020905b815481529060010190602001808311610be457829003601f168201915b505050505081526020016006820160009054906101000a900473ffffffffffffffffffffffffffffffffffffffff1673ffffffffffffffffffffffffffffffffffffffff1673ffffffffffffffffffffffffffffffffffffffff1681526020016006820160149054906101000a900460ff1615151515815260200160078201805480602002602001604051908101604052809291908181526020018280548015610d0057602002820191906000526020600020905b8160009054906101000a900473ffffffffffffffffffffffffffffffffffffffff1673ffffffffffffffffffffffffffffffffffffffff1681526020019060010190808311610cb6575b505050505081525050905060008160c001519050338260c0019073ffffffffffffffffffffffffffffffffffffffff16908173ffffffffffffffffffffffffffffffffffffffff168152505060018260e00190151590811515815250508160036000858152602001908152602001600020600082015181600001556020820151816001019080519060200190610d97929190613c11565b506040820151816002019080519060200190610db4929190613c11565b50606082015181600301556080820151816004019080519060200190610ddb929190613c11565b5060a0820151816005019080519060200190610df8929190613c11565b5060c08201518160060160006101000a81548173ffffffffffffffffffffffffffffffffffffffff021916908373ffffffffffffffffffffffffffffffffffffffff16021790555060e08201518160060160146101000a81548160ff021916908315150217905550610100820151816007019080519060200190610e7d929190613c97565b509050508073ffffffffffffffffffffffffffffffffffffffff166108fc349081150290604051600060405180830381858888f19350505050158015610ec7573d6000803e3d6000fd5b50610ed183612571565b7f5d3e174cea83fc7a15e7c910d86c8dceb0129bfdabceb14a6e43e0d4ccbfdb4a60005483602001518460400151856060015186608001518760a00151336001604051610f259897969594939291906145e0565b60405180910390a1505050565b6000600360008881526020019081526020016000206040518061012001604052908160008201548152602001600182018054610f6d90614857565b80601f0160208091040260200160405190810160405280929190818152602001828054610f9990614857565b8015610fe65780601f10610fbb57610100808354040283529160200191610fe6565b820191906000526020600020905b815481529060010190602001808311610fc957829003601f168201915b50505050508152602001600282018054610fff90614857565b80601f016020809104026020016040519081016040528092919081815260200182805461102b90614857565b80156110785780601f1061104d57610100808354040283529160200191611078565b820191906000526020600020905b81548152906001019060200180831161105b57829003601f168201915b505050505081526020016003820154815260200160048201805461109b90614857565b80601f01602080910402602001604051908101604052809291908181526020018280546110c790614857565b80156111145780601f106110e957610100808354040283529160200191611114565b820191906000526020600020905b8154815290600101906020018083116110f757829003601f168201915b5050505050815260200160058201805461112d90614857565b80601f016020809104026020016040519081016040528092919081815260200182805461115990614857565b80156111a65780601f1061117b576101008083540402835291602001916111a6565b820191906000526020600020905b81548152906001019060200180831161118957829003601f168201915b505050505081526020016006820160009054906101000a900473ffffffffffffffffffffffffffffffffffffffff1673ffffffffffffffffffffffffffffffffffffffff1673ffffffffffffffffffffffffffffffffffffffff1681526020016006820160149054906101000a900460ff16151515158152602001600782018054806020026020016040519081016040528092919081815260200182805480156112a557602002820191906000526020600020905b8160009054906101000a900473ffffffffffffffffffffffffffffffffffffffff1673ffffffffffffffffffffffffffffffffffffffff168152602001906001019080831161125b575b505050505081525050905085816020018190525084816040018190525083816060018181525050828160800181905250818160a001819052508060036000898152602001908152602001600020600082015181600001556020820151816001019080519060200190611318929190613c11565b506040820151816002019080519060200190611335929190613c11565b5060608201518160030155608082015181600401908051906020019061135c929190613c11565b5060a0820151816005019080519060200190611379929190613c11565b5060c08201518160060160006101000a81548173ffffffffffffffffffffffffffffffffffffffff021916908373ffffffffffffffffffffffffffffffffffffffff16021790555060e08201518160060160146101000a81548160ff0219169083151502179055506101008201518160070190805190602001906113fe929190613c97565b509050506000600660003373ffffffffffffffffffffffffffffffffffffffff1673ffffffffffffffffffffffffffffffffffffffff168152602001908152602001600020888154811061145557611454614990565b5b9060005260206000209060080201604051806101200160405290816000820154815260200160018201805461148990614857565b80601f01602080910402602001604051908101604052809291908181526020018280546114b590614857565b80156115025780601f106114d757610100808354040283529160200191611502565b820191906000526020600020905b8154815290600101906020018083116114e557829003601f168201915b5050505050815260200160028201805461151b90614857565b80601f016020809104026020016040519081016040528092919081815260200182805461154790614857565b80156115945780601f1061156957610100808354040283529160200191611594565b820191906000526020600020905b81548152906001019060200180831161157757829003601f168201915b50505050508152602001600382015481526020016004820180546115b790614857565b80601f01602080910402602001604051908101604052809291908181526020018280546115e390614857565b80156116305780601f1061160557610100808354040283529160200191611630565b820191906000526020600020905b81548152906001019060200180831161161357829003601f168201915b5050505050815260200160058201805461164990614857565b80601f016020809104026020016040519081016040528092919081815260200182805461167590614857565b80156116c25780601f10611697576101008083540402835291602001916116c2565b820191906000526020600020905b8154815290600101906020018083116116a557829003601f168201915b505050505081526020016006820160009054906101000a900473ffffffffffffffffffffffffffffffffffffffff1673ffffffffffffffffffffffffffffffffffffffff1673ffffffffffffffffffffffffffffffffffffffff1681526020016006820160149054906101000a900460ff16151515158152602001600782018054806020026020016040519081016040528092919081815260200182805480156117c157602002820191906000526020600020905b8160009054906101000a900473ffffffffffffffffffffffffffffffffffffffff1673ffffffffffffffffffffffffffffffffffffffff1681526020019060010190808311611777575b505050505081525050905086816020018190525085816040018190525084816060018181525050838160800181905250828160a0018190525080600660003373ffffffffffffffffffffffffffffffffffffffff1673ffffffffffffffffffffffffffffffffffffffff168152602001908152602001600020898154811061184c5761184b614990565b5b9060005260206000209060080201600082015181600001556020820151816001019080519060200190611880929190613c11565b50604082015181600201908051906020019061189d929190613c11565b506060820151816003015560808201518160040190805190602001906118c4929190613c11565b5060a08201518160050190805190602001906118e1929190613c11565b5060c08201518160060160006101000a81548173ffffffffffffffffffffffffffffffffffffffff021916908373ffffffffffffffffffffffffffffffffffffffff16021790555060e08201518160060160146101000a81548160ff021916908315150217905550610100820151816007019080519060200190611966929190613c97565b509050505050505050505050565b60008073ffffffffffffffffffffffffffffffffffffffff168273ffffffffffffffffffffffffffffffffffffffff1614156119af57600080fd5b600660008373ffffffffffffffffffffffffffffffffffffffff1673ffffffffffffffffffffffffffffffffffffffff168152602001908152602001600020805490509050919050565b60085481565b611a0881612571565b60036000828152602001908152602001600020600080820160009055600182016000611a349190613d21565b600282016000611a449190613d21565b6003820160009055600482016000611a5c9190613d21565b600582016000611a6c9190613d21565b6006820160006101000a81549073ffffffffffffffffffffffffffffffffffffffff02191690556006820160146101000a81549060ff0219169055600782016000611ab79190613d61565b5050600781908060018154018082558091505060019003906000526020600020016000909190919091505550565b60006001600460003373ffffffffffffffffffffffffffffffffffffffff1673ffffffffffffffffffffffffffffffffffffffff16815260200190815260200160002060020160000180549050611b3c919061478c565b67ffffffffffffffff811115611b5557611b546149bf565b5b604051908082528060200260200182016040528015611b835781602001602082028036833780820191505090505b5090506000600460003373ffffffffffffffffffffffffffffffffffffffff1673ffffffffffffffffffffffffffffffffffffffff168152602001908152602001600020600201600001805480602002602001604051908101604052809291908181526020018280548015611c1757602002820191906000526020600020905b815481526020019060010190808311611c03575b5050505050905060005b8151811015611d6357838114611c7057818181518110611c4457611c43614990565b5b6020026020010151838281518110611c5f57611c5e614990565b5b602002602001018181525050611d50565b60036000838381518110611c8757611c86614990565b5b6020026020010151815260200190815260200160002060030154600460003373ffffffffffffffffffffffffffffffffffffffff1673ffffffffffffffffffffffffffffffffffffffff1681526020019081526020016000206002016001016000828254611cf5919061478c565b925050819055507fa623e239783d1923197e89ebc14226d544e0c6a48928ebfd977de627b61766bf33838381518110611d3157611d30614990565b5b6020026020010151604051611d47929190614474565b60405180910390a15b8080611d5b906148ba565b915050611c21565b5081600460003373ffffffffffffffffffffffffffffffffffffffff1673ffffffffffffffffffffffffffffffffffffffff1681526020019081526020016000206002016000019080519060200190611dbd929190613d82565b50505050565b60078181548110611dd357600080fd5b906000526020600020016000915090505481565b6003602052806000526040600020600091509050806000015490806001018054611e1090614857565b80601f0160208091040260200160405190810160405280929190818152602001828054611e3c90614857565b8015611e895780601f10611e5e57610100808354040283529160200191611e89565b820191906000526020600020905b815481529060010190602001808311611e6c57829003601f168201915b505050505090806002018054611e9e90614857565b80601f0160208091040260200160405190810160405280929190818152602001828054611eca90614857565b8015611f175780601f10611eec57610100808354040283529160200191611f17565b820191906000526020600020905b815481529060010190602001808311611efa57829003601f168201915b505050505090806003015490806004018054611f3290614857565b80601f0160208091040260200160405190810160405280929190818152602001828054611f5e90614857565b8015611fab5780601f10611f8057610100808354040283529160200191611fab565b820191906000526020600020905b815481529060010190602001808311611f8e57829003601f168201915b505050505090806005018054611fc090614857565b80601f0160208091040260200160405190810160405280929190818152602001828054611fec90614857565b80156120395780601f1061200e57610100808354040283529160200191612039565b820191906000526020600020905b81548152906001019060200180831161201c57829003601f168201915b5050505050908060060160009054906101000a900473ffffffffffffffffffffffffffffffffffffffff16908060060160149054906101000a900460ff16905088565b6000806000600460003373ffffffffffffffffffffffffffffffffffffffff1673ffffffffffffffffffffffffffffffffffffffff168152602001908152602001600020905060006003600086815260200190815260200160002060405180610120016040529081600082015481526020016001820180546120fd90614857565b80601f016020809104026020016040519081016040528092919081815260200182805461212990614857565b80156121765780601f1061214b57610100808354040283529160200191612176565b820191906000526020600020905b81548152906001019060200180831161215957829003601f168201915b5050505050815260200160028201805461218f90614857565b80601f01602080910402602001604051908101604052809291908181526020018280546121bb90614857565b80156122085780601f106121dd57610100808354040283529160200191612208565b820191906000526020600020905b8154815290600101906020018083116121eb57829003601f168201915b505050505081526020016003820154815260200160048201805461222b90614857565b80601f016020809104026020016040519081016040528092919081815260200182805461225790614857565b80156122a45780601f10612279576101008083540402835291602001916122a4565b820191906000526020600020905b81548152906001019060200180831161228757829003601f168201915b505050505081526020016005820180546122bd90614857565b80601f01602080910402602001604051908101604052809291908181526020018280546122e990614857565b80156123365780601f1061230b57610100808354040283529160200191612336565b820191906000526020600020905b81548152906001019060200180831161231957829003601f168201915b505050505081526020016006820160009054906101000a900473ffffffffffffffffffffffffffffffffffffffff1673ffffffffffffffffffffffffffffffffffffffff1673ffffffffffffffffffffffffffffffffffffffff1681526020016006820160149054906101000a900460ff161515151581526020016007820180548060200260200160405190810160405280929190818152602001828054801561243557602002820191906000526020600020905b8160009054906101000a900473ffffffffffffffffffffffffffffffffffffffff1673ffffffffffffffffffffffffffffffffffffffff16815260200190600101908083116123eb575b5050505050815250509050600082600201600001805490509050826002016000018260000151908060018154018082558091505060019003906000526020600020016000909190919091505560008360020160010154905082606001518161249d9190614736565b84600201600101819055508184600201600001805490501115612527577f1e862ddcab5a3222c811c44ecc1c4a46d3da57dde0e884ad6e7e070a8ece23773388856060015187600201600101546040516124fa949392919061449d565b60405180910390a1600180856002016000018054905061251a919061478c565b955095505050505061256c565b7f5f187c44b1528b1d93b313a10cf6038ff514e59499f6790e1e2da2f7d1cfdd303388604051612558929190614474565b60405180910390a160008095509550505050505b915091565b600660003373ffffffffffffffffffffffffffffffffffffffff1673ffffffffffffffffffffffffffffffffffffffff16815260200190815260200160002081815481106125c2576125c1614990565b5b90600052602060002090600802016000808201600090556001820160006125e99190613d21565b6002820160006125f99190613d21565b60038201600090556004820160006126119190613d21565b6005820160006126219190613d21565b6006820160006101000a81549073ffffffffffffffffffffffffffffffffffffffff02191690556006820160146101000a81549060ff021916905560078201600061266c9190613d61565b505050565b600260009054906101000a900460ff1681565b60015481565b600080600460003373ffffffffffffffffffffffffffffffffffffffff1673ffffffffffffffffffffffffffffffffffffffff16815260200190815260200160002090506040518060400160405280600067ffffffffffffffff8111156126f4576126f36149bf565b5b6040519080825280602002602001820160405280156127225781602001602082028036833780820191505090505b508152602001600081525081600201600082015181600001908051906020019061274d929190613d82565b50602082015181600101559050507f69dad80af5bbf467deb57c60ff8e39e3aacc707b1aa1c5b240aab4982f946fee8160000160009054906101000a900473ffffffffffffffffffffffffffffffffffffffff166040516127ae9190614414565b60405180910390a1600191505090565b60056020528060005260406000206000915054906101000a900473ffffffffffffffffffffffffffffffffffffffff1681565b6127f9613dcf565b600460008373ffffffffffffffffffffffffffffffffffffffff1673ffffffffffffffffffffffffffffffffffffffff1681526020019081526020016000206040518060600160405290816000820160009054906101000a900473ffffffffffffffffffffffffffffffffffffffff1673ffffffffffffffffffffffffffffffffffffffff1673ffffffffffffffffffffffffffffffffffffffff1681526020016001820180546128a990614857565b80601f01602080910402602001604051908101604052809291908181526020018280546128d590614857565b80156129225780601f106128f757610100808354040283529160200191612922565b820191906000526020600020905b81548152906001019060200180831161290557829003601f168201915b50505050508152602001600282016040518060400160405290816000820180548060200260200160405190810160405280929190818152602001828054801561298a57602002820191906000526020600020905b815481526020019060010190808311612976575b50505050508152602001600182015481525050815250509050919050565b60095481565b60008551116129bc57600080fd5b600083116129c957600080fd5b600060078054905014806129fc5750600060076000815481106129ef576129ee614990565b5b9060005260206000200154145b15612e4857600080815480929190612a13906148ba565b919050555060405180610120016040528060005481526020018681526020018581526020018481526020018381526020018281526020013373ffffffffffffffffffffffffffffffffffffffff168152602001600015158152602001600067ffffffffffffffff811115612a8a57612a896149bf565b5b604051908082528060200260200182016040528015612ab85781602001602082028036833780820191505090505b508152506003600080548152602001908152602001600020600082015181600001556020820151816001019080519060200190612af6929190613c11565b506040820151816002019080519060200190612b13929190613c11565b50606082015181600301556080820151816004019080519060200190612b3a929190613c11565b5060a0820151816005019080519060200190612b57929190613c11565b5060c08201518160060160006101000a81548173ffffffffffffffffffffffffffffffffffffffff021916908373ffffffffffffffffffffffffffffffffffffffff16021790555060e08201518160060160146101000a81548160ff021916908315150217905550610100820151816007019080519060200190612bdc929190613c97565b50905050600660003373ffffffffffffffffffffffffffffffffffffffff1673ffffffffffffffffffffffffffffffffffffffff16815260200190815260200160002060405180610120016040528060005481526020018781526020018681526020018581526020018481526020018381526020013373ffffffffffffffffffffffffffffffffffffffff168152602001600015158152602001600067ffffffffffffffff811115612c9157612c906149bf565b5b604051908082528060200260200182016040528015612cbf5781602001602082028036833780820191505090505b508152509080600181540180825580915050600190039060005260206000209060080201600090919091909150600082015181600001556020820151816001019080519060200190612d12929190613c11565b506040820151816002019080519060200190612d2f929190613c11565b50606082015181600301556080820151816004019080519060200190612d56929190613c11565b5060a0820151816005019080519060200190612d73929190613c11565b5060c08201518160060160006101000a81548173ffffffffffffffffffffffffffffffffffffffff021916908373ffffffffffffffffffffffffffffffffffffffff16021790555060e08201518160060160146101000a81548160ff021916908315150217905550610100820151816007019080519060200190612df8929190613c97565b5050507fbb45e05496e643a69bb522fd78ec743fcc4cecc08d892a6685a76f79e29e1eb46000548686868686336000604051612e3b9897969594939291906145e0565b60405180910390a1613379565b60006007600081548110612e5f57612e5e614990565b5b906000526020600020015490506040518061012001604052806007600081548110612e8d57612e8c614990565b5b906000526020600020015481526020018781526020018681526020018581526020018481526020018381526020013373ffffffffffffffffffffffffffffffffffffffff168152602001600015158152602001600067ffffffffffffffff811115612efb57612efa6149bf565b5b604051908082528060200260200182016040528015612f295781602001602082028036833780820191505090505b50815250600360006007600081548110612f4657612f45614990565b5b90600052602060002001548152602001908152602001600020600082015181600001556020820151816001019080519060200190612f85929190613c11565b506040820151816002019080519060200190612fa2929190613c11565b50606082015181600301556080820151816004019080519060200190612fc9929190613c11565b5060a0820151816005019080519060200190612fe6929190613c11565b5060c08201518160060160006101000a81548173ffffffffffffffffffffffffffffffffffffffff021916908373ffffffffffffffffffffffffffffffffffffffff16021790555060e08201518160060160146101000a81548160ff02191690831515021790555061010082015181600701908051906020019061306b929190613c97565b5090505060078054905060088190555060005b6001600780549050613090919061478c565b8110156130f75760076001826130a69190614736565b815481106130b7576130b6614990565b5b9060005260206000200154600782815481106130d6576130d5614990565b5b906000526020600020018190555080806130ef906148ba565b91505061307e565b50600780548061310a57613109614961565b5b600190038181906000526020600020016000905590556040518061012001604052808281526020018781526020018681526020018581526020018481526020018381526020013373ffffffffffffffffffffffffffffffffffffffff168152602001600015158152602001600067ffffffffffffffff8111156131905761318f6149bf565b5b6040519080825280602002602001820160405280156131be5781602001602082028036833780820191505090505b50815250600660003373ffffffffffffffffffffffffffffffffffffffff1673ffffffffffffffffffffffffffffffffffffffff168152602001908152602001600020828154811061321357613212614990565b5b9060005260206000209060080201600082015181600001556020820151816001019080519060200190613247929190613c11565b506040820151816002019080519060200190613264929190613c11565b5060608201518160030155608082015181600401908051906020019061328b929190613c11565b5060a08201518160050190805190602001906132a8929190613c11565b5060c08201518160060160006101000a81548173ffffffffffffffffffffffffffffffffffffffff021916908373ffffffffffffffffffffffffffffffffffffffff16021790555060e08201518160060160146101000a81548160ff02191690831515021790555061010082015181600701908051906020019061332d929190613c97565b509050507fbb45e05496e643a69bb522fd78ec743fcc4cecc08d892a6685a76f79e29e1eb481878787878733600060405161336f9897969594939291906145e0565b60405180910390a1505b5050505050565b6000600660003373ffffffffffffffffffffffffffffffffffffffff1673ffffffffffffffffffffffffffffffffffffffff168152602001908152602001600020604051806101200160405280600081526020016040518060400160405280600581526020017f64756d6d7900000000000000000000000000000000000000000000000000000081525081526020016040518060400160405280600581526020017f64756d6d790000000000000000000000000000000000000000000000000000008152508152602001600081526020016040518060400160405280600581526020017f64756d6d7900000000000000000000000000000000000000000000000000000081525081526020016040518060400160405280600581526020017f64756d6d790000000000000000000000000000000000000000000000000000008152508152602001600073ffffffffffffffffffffffffffffffffffffffff168152602001600015158152602001600067ffffffffffffffff811115613508576135076149bf565b5b6040519080825280602002602001820160405280156135365781602001602082028036833780820191505090505b508152509080600181540180825580915050600190039060005260206000209060080201600090919091909150600082015181600001556020820151816001019080519060200190613589929190613c11565b5060408201518160020190805190602001906135a6929190613c11565b506060820151816003015560808201518160040190805190602001906135cd929190613c11565b5060a08201518160050190805190602001906135ea929190613c11565b5060c08201518160060160006101000a81548173ffffffffffffffffffffffffffffffffffffffff021916908373ffffffffffffffffffffffffffffffffffffffff16021790555060e08201518160060160146101000a81548160ff02191690831515021790555061010082015181600701908051906020019061366f929190613c97565b505050600060405180606001604052808573ffffffffffffffffffffffffffffffffffffffff1681526020018481526020016040518060400160405280600067ffffffffffffffff8111156136c7576136c66149bf565b5b6040519080825280602002602001820160405280156136f55781602001602082028036833780820191505090505b5081526020016000815250815250905060016000815480929190613718906148ba565b9190505550806000015160056000600154815260200190815260200160002060006101000a81548173ffffffffffffffffffffffffffffffffffffffff021916908373ffffffffffffffffffffffffffffffffffffffff16021790555080600460008673ffffffffffffffffffffffffffffffffffffffff1673ffffffffffffffffffffffffffffffffffffffff16815260200190815260200160002060008201518160000160006101000a81548173ffffffffffffffffffffffffffffffffffffffff021916908373ffffffffffffffffffffffffffffffffffffffff1602179055506020820151816001019080519060200190613818929190613c11565b50604082015181600201600082015181600001908051906020019061383e929190613d82565b506020820151816001015550509050507f155e8619f4d23b96769599cb9af87da3e06a360082869c18578011da9a06e6708460405161387d9190614414565b60405180910390a1600191505092915050565b60005481565b60006060806000606080600073ffffffffffffffffffffffffffffffffffffffff168873ffffffffffffffffffffffffffffffffffffffff1614156138da57600080fd5b60008760ff16101580156138f2575060ff8760ff1611155b6138fb57600080fd5b6000600660008a73ffffffffffffffffffffffffffffffffffffffff1673ffffffffffffffffffffffffffffffffffffffff168152602001908152602001600020805490501161394a57600080fd5b6000600660008a73ffffffffffffffffffffffffffffffffffffffff1673ffffffffffffffffffffffffffffffffffffffff1681526020019081526020016000208860ff16815481106139a05761399f614990565b5b9060005260206000209060080201905080600001548160010182600201836003015484600401856005018480546139d690614857565b80601f0160208091040260200160405190810160405280929190818152602001828054613a0290614857565b8015613a4f5780601f10613a2457610100808354040283529160200191613a4f565b820191906000526020600020905b815481529060010190602001808311613a3257829003601f168201915b50505050509450838054613a6290614857565b80601f0160208091040260200160405190810160405280929190818152602001828054613a8e90614857565b8015613adb5780601f10613ab057610100808354040283529160200191613adb565b820191906000526020600020905b815481529060010190602001808311613abe57829003601f168201915b50505050509350818054613aee90614857565b80601f0160208091040260200160405190810160405280929190818152602001828054613b1a90614857565b8015613b675780601f10613b3c57610100808354040283529160200191613b67565b820191906000526020600020905b815481529060010190602001808311613b4a57829003601f168201915b50505050509150808054613b7a90614857565b80601f0160208091040260200160405190810160405280929190818152602001828054613ba690614857565b8015613bf35780601f10613bc857610100808354040283529160200191613bf3565b820191906000526020600020905b815481529060010190602001808311613bd657829003601f168201915b50505050509050965096509650965096509650509295509295509295565b828054613c1d90614857565b90600052602060002090601f016020900481019282613c3f5760008555613c86565b82601f10613c5857805160ff1916838001178555613c86565b82800160010185558215613c86579182015b82811115613c85578251825591602001919060010190613c6a565b5b509050613c939190613e0c565b5090565b828054828255906000526020600020908101928215613d10579160200282015b82811115613d0f5782518260006101000a81548173ffffffffffffffffffffffffffffffffffffffff021916908373ffffffffffffffffffffffffffffffffffffffff16021790555091602001919060010190613cb7565b5b509050613d1d9190613e0c565b5090565b508054613d2d90614857565b6000825580601f10613d3f5750613d5e565b601f016020900490600052602060002090810190613d5d9190613e0c565b5b50565b5080546000825590600052602060002090810190613d7f9190613e0c565b50565b828054828255906000526020600020908101928215613dbe579160200282015b82811115613dbd578251825591602001919060010190613da2565b5b509050613dcb9190613e0c565b5090565b6040518060600160405280600073ffffffffffffffffffffffffffffffffffffffff16815260200160608152602001613e06613e29565b81525090565b5b80821115613e25576000816000905550600101613e0d565b5090565b604051806040016040528060608152602001600081525090565b6000613e56613e518461469f565b61467a565b905082815260208101848484011115613e7257613e716149f3565b5b613e7d848285614815565b509392505050565b600081359050613e9481614a13565b92915050565b600082601f830112613eaf57613eae6149ee565b5b8135613ebf848260208601613e43565b91505092915050565b600081359050613ed781614a2a565b92915050565b600081359050613eec81614a41565b92915050565b600060208284031215613f0857613f076149fd565b5b6000613f1684828501613e85565b91505092915050565b60008060408385031215613f3657613f356149fd565b5b6000613f4485828601613e85565b925050602083013567ffffffffffffffff811115613f6557613f646149f8565b5b613f7185828601613e9a565b9150509250929050565b60008060408385031215613f9257613f916149fd565b5b6000613fa085828601613e85565b9250506020613fb185828601613ec8565b9150509250929050565b60008060408385031215613fd257613fd16149fd565b5b6000613fe085828601613e85565b9250506020613ff185828601613edd565b9150509250929050565b600080600080600060a08688031215614017576140166149fd565b5b600086013567ffffffffffffffff811115614035576140346149f8565b5b61404188828901613e9a565b955050602086013567ffffffffffffffff811115614062576140616149f8565b5b61406e88828901613e9a565b945050604061407f88828901613ec8565b935050606086013567ffffffffffffffff8111156140a05761409f6149f8565b5b6140ac88828901613e9a565b925050608086013567ffffffffffffffff8111156140cd576140cc6149f8565b5b6140d988828901613e9a565b9150509295509295909350565b6000602082840312156140fc576140fb6149fd565b5b600061410a84828501613ec8565b91505092915050565b60008060008060008060c087890312156141305761412f6149fd565b5b600061413e89828a01613ec8565b965050602087013567ffffffffffffffff81111561415f5761415e6149f8565b5b61416b89828a01613e9a565b955050604087013567ffffffffffffffff81111561418c5761418b6149f8565b5b61419889828a01613e9a565b94505060606141a989828a01613ec8565b935050608087013567ffffffffffffffff8111156141ca576141c96149f8565b5b6141d689828a01613e9a565b92505060a087013567ffffffffffffffff8111156141f7576141f66149f8565b5b61420389828a01613e9a565b9150509295509295509295565b600061421c83836143f6565b60208301905092915050565b614231816147c0565b82525050565b614240816147c0565b82525050565b6000614251826146e0565b61425b8185614703565b9350614266836146d0565b8060005b8381101561429757815161427e8882614210565b9750614289836146f6565b92505060018101905061426a565b5085935050505092915050565b6142ad816147d2565b82525050565b60006142be826146eb565b6142c88185614714565b93506142d8818560208601614824565b6142e181614a02565b840191505092915050565b60006142f7826146eb565b6143018185614725565b9350614311818560208601614824565b61431a81614a02565b840191505092915050565b600060408301600083015184820360008601526143428282614246565b915050602083015161435760208601826143f6565b508091505092915050565b6000604083016000830151848203600086015261437f8282614246565b915050602083015161439460208601826143f6565b508091505092915050565b60006060830160008301516143b76000860182614228565b50602083015184820360208601526143cf82826142b3565b915050604083015184820360408601526143e98282614325565b9150508091505092915050565b6143ff816147fe565b82525050565b61440e816147fe565b82525050565b60006020820190506144296000830184614237565b92915050565b60006060820190506144446000830186614237565b818103602083015261445681856142ec565b9050818103604083015261446a8184614362565b9050949350505050565b60006040820190506144896000830185614237565b6144966020830184614405565b9392505050565b60006080820190506144b26000830187614237565b6144bf6020830186614405565b6144cc6040830185614405565b6144d96060830184614405565b95945050505050565b60006020820190506144f760008301846142a4565b92915050565b600060408201905061451260008301856142a4565b61451f6020830184614405565b9392505050565b60006020820190508181036000830152614540818461439f565b905092915050565b600060208201905061455d6000830184614405565b92915050565b600060c0820190506145786000830189614405565b818103602083015261458a81886142ec565b9050818103604083015261459e81876142ec565b90506145ad6060830186614405565b81810360808301526145bf81856142ec565b905081810360a08301526145d381846142ec565b9050979650505050505050565b6000610100820190506145f6600083018b614405565b8181036020830152614608818a6142ec565b9050818103604083015261461c81896142ec565b905061462b6060830188614405565b818103608083015261463d81876142ec565b905081810360a083015261465181866142ec565b905061466060c0830185614237565b61466d60e08301846142a4565b9998505050505050505050565b6000614684614695565b90506146908282614889565b919050565b6000604051905090565b600067ffffffffffffffff8211156146ba576146b96149bf565b5b6146c382614a02565b9050602081019050919050565b6000819050602082019050919050565b600081519050919050565b600081519050919050565b6000602082019050919050565b600082825260208201905092915050565b600082825260208201905092915050565b600082825260208201905092915050565b6000614741826147fe565b915061474c836147fe565b9250827fffffffffffffffffffffffffffffffffffffffffffffffffffffffffffffffff0382111561478157614780614903565b5b828201905092915050565b6000614797826147fe565b91506147a2836147fe565b9250828210156147b5576147b4614903565b5b828203905092915050565b60006147cb826147de565b9050919050565b60008115159050919050565b600073ffffffffffffffffffffffffffffffffffffffff82169050919050565b6000819050919050565b600060ff82169050919050565b82818337600083830152505050565b60005b83811015614842578082015181840152602081019050614827565b83811115614851576000848401525b50505050565b6000600282049050600182168061486f57607f821691505b6020821081141561488357614882614932565b5b50919050565b61489282614a02565b810181811067ffffffffffffffff821117156148b1576148b06149bf565b5b80604052505050565b60006148c5826147fe565b91507fffffffffffffffffffffffffffffffffffffffffffffffffffffffffffffffff8214156148f8576148f7614903565b5b600182019050919050565b7f4e487b7100000000000000000000000000000000000000000000000000000000600052601160045260246000fd5b7f4e487b7100000000000000000000000000000000000000000000000000000000600052602260045260246000fd5b7f4e487b7100000000000000000000000000000000000000000000000000000000600052603160045260246000fd5b7f4e487b7100000000000000000000000000000000000000000000000000000000600052603260045260246000fd5b7f4e487b7100000000000000000000000000000000000000000000000000000000600052604160045260246000fd5b600080fd5b600080fd5b600080fd5b600080fd5b6000601f19601f8301169050919050565b614a1c816147c0565b8114614a2757600080fd5b50565b614a33816147fe565b8114614a3e57600080fd5b50565b614a4a81614808565b8114614a5557600080fd5b5056fea2646970667358221220270767a6cb30359e178d94812df95db66270eacaa460ba14b54deb9f9b6fef6264736f6c63430008070033",
  "immutableReferences": {},
  "source": "// if purchased w bdi 27zfa\r\n// SPDX-License-Identifier: MIT\r\npragma solidity  ^0.8.0;\r\n\r\ncontract Marketplace {\r\n    //string public name;\r\n    uint public productCount = 0;\r\n    uint public customerCount = 0;\r\n    //to store the products on blockchain\r\n    bool public flag = false;\r\n    mapping(uint => Product) public products;\r\n    //to store the customers on blockchain\r\n    mapping(address  => Customer) public customers;\r\n    mapping(uint => address) public addressLUT;\r\n    // Maps owner to their images\r\n    mapping (address => Product[]) public ownerToProducts;\r\n    uint[] public emptySpaces;\r\n    uint public len; \r\n    uint public ftt = 0;\r\n\r\n    struct Customer {\r\n        address adr;\r\n        string name;\r\n        Cart cart;\r\n    }\r\n\r\n    struct Cart {\r\n      uint256[] products;\r\n      uint256 completeSum;\r\n    }\r\n\r\n    struct Product {\r\n        uint id;\r\n        string name;\r\n        string description;\r\n        uint price;\r\n        string imgipfshash;\r\n        string fileipfshash;\r\n        address owner;\r\n        bool purchased;\r\n        address[] owners;\r\n        //bytes32 uploadedOn;\r\n    }\r\n\r\n    event ProductCreated(uint id, string name, string description, uint price, string imgipfshash, string fileipfshash, address owner, bool purchased);\r\n    event ProductPurchased(uint id, string name, string description, uint price, string imgipfshash, string fileipfshash, address owner, bool purchased);\r\n    event CustomerRegistered(address customer);\r\n    event CustomerRegistrationFailed(address customer);\r\n    event CartProductInserted(address customer, uint256 prodId, uint256 prodPrice, uint256 completeSum);\r\n    event CartProductInsertionFailed(address customer, uint256 prodId);\r\n    event CartProductRemoved(address customer, uint256 prodId);\r\n    event CartEmptied(address customer);\r\n\r\n    // Create a new product with a struct\r\n    // Add the struct to the mapping, and store it on the blockchain\r\n    // Trigger an event that lets someone know a product was creatd\r\n    function createProduct(string memory _name,string memory _description, uint _price,string memory _imgipfshash,string memory _fileipfshash) public {\r\n        // Require a valid name\r\n        require(bytes(_name).length > 0);\r\n        // Require a valid description\r\n        //require(bytes(_description).length > 0);\r\n        // Require a valid price\r\n        require(_price > 0);\r\n        // Require a valid image hash\r\n        //require(bytes(_imgipfshash).length > 0);\r\n        // Require a valid file hash\r\n        //require(bytes(_fileipfshash).length > 0);*/\r\n        // Increment product count\r\n        if(emptySpaces.length == 0 || emptySpaces[0]==0){\r\n                productCount ++;\r\n                products[productCount] = Product(productCount, _name , _description, _price , _imgipfshash , _fileipfshash ,msg.sender, false ,new address[](0));\r\n        \r\n                ownerToProducts[msg.sender].push(Product({\r\n                id: productCount,\r\n                name: _name,\r\n                description: _description,\r\n                price: _price,\r\n                imgipfshash: _imgipfshash,\r\n                fileipfshash:_fileipfshash,\r\n                owner: msg.sender,\r\n                purchased: false,\r\n                owners: new address[](0)\r\n            }));\r\n            emit ProductCreated(productCount, _name, _description, _price, _imgipfshash,_fileipfshash, msg.sender, false);\r\n        }\r\n        else{\r\n            uint tmp = emptySpaces[0];\r\n            products[emptySpaces[0]] = Product(emptySpaces[0], _name , _description ,_price , _imgipfshash ,_fileipfshash, msg.sender, false,new address[](0) );\r\n            len = emptySpaces.length;\r\n            for(uint i = 0;i < emptySpaces.length - 1;i++){\r\n                emptySpaces[i] = emptySpaces[ i+1 ];\r\n            }\r\n            emptySpaces.pop();\r\n            ownerToProducts[msg.sender][tmp] = Product(\r\n                tmp,\r\n                _name,\r\n                _description,\r\n                _price,\r\n                _imgipfshash,\r\n                _fileipfshash,\r\n                msg.sender,\r\n                false,\r\n                new address[](0)\r\n                );\r\n                emit ProductCreated(tmp, _name, _description, _price, _imgipfshash,_fileipfshash, msg.sender, false);\r\n        }\r\n        \r\n    }\r\n\r\n    function removeProduct(uint id1) public {\r\n        removeNestedProduct(id1);\r\n        delete products [id1];\r\n        emptySpaces.push(id1);\r\n    }\r\n    function removeNestedProduct(uint id1) public {\r\n        delete ownerToProducts[msg.sender][id1];\r\n    }\r\n    function purchaseProduct(uint _id) public payable {\r\n        // Fetch the product\r\n        Product memory _product = products[_id];\r\n        // Fetch the owner\r\n        address _seller = _product.owner;\r\n        /*// Make sure the product has a valid id\r\n        require(_product.id > 0 && _product.id <= productCount);\r\n        // Require that there is enough Ether in the transaction\r\n        require(msg.value >= _product.price);\r\n        // Require that the product has not been purchased already\r\n        require(!_product.purchased);\r\n        // Require that the buyer is not the seller\r\n        require(_seller != msg.sender);\r\n        // Transfer ownership to the buyer*/\r\n        _product.owner = msg.sender;\r\n        // Mark as purchased\r\n        _product.purchased = true;\r\n        // Update the product\r\n        products[_id] = _product;\r\n        // Pay the seller by sending them Ether\r\n        payable(_seller).transfer(msg.value);\r\n        removeNestedProduct(_id);\r\n        // Trigger an event\r\n        emit ProductPurchased(productCount, _product.name,_product.description, _product.price, _product.imgipfshash, _product.fileipfshash, msg.sender, true);\r\n    }\r\n    function editProduct(uint256 _id , string memory _name , string memory _des , uint _price , string memory _imgipfshash , string memory _fileipfshash) public{\r\n        Product memory _product = products[_id];\r\n        _product.name = _name;\r\n        _product.description = _des;\r\n        _product.price = _price;\r\n        _product.imgipfshash = _imgipfshash;\r\n        _product.fileipfshash = _fileipfshash;\r\n        products[_id] = _product;\r\n        Product memory _ownerToProducts = ownerToProducts[msg.sender][_id];\r\n        _ownerToProducts.name = _name;\r\n        _ownerToProducts.description = _des;\r\n        _ownerToProducts.price = _price;\r\n        _ownerToProducts.imgipfshash = _imgipfshash;\r\n        _ownerToProducts.fileipfshash = _fileipfshash;\r\n        ownerToProducts[msg.sender][_id] = _ownerToProducts;\r\n        \r\n    }\r\n\r\n    function insertProductIntoCart(uint256 id) public returns (bool success,\r\n                                                  uint256 pos_in_prod_mapping) {\r\n        Customer storage cust = customers[msg.sender];\r\n        Product memory prod = products[id];\r\n        uint256 prods_prev_len = cust.cart.products.length;\r\n        cust.cart.products.push(prod.id);\r\n        uint256 current_sum = cust.cart.completeSum;\r\n        cust.cart.completeSum = current_sum + prod.price;\r\n        if (cust.cart.products.length > prods_prev_len) {\r\n          emit CartProductInserted(msg.sender, id, prod.price, cust.cart.completeSum);\r\n          return (true, cust.cart.products.length - 1);\r\n        }\r\n        emit CartProductInsertionFailed(msg.sender, id);\r\n        return (false, 0);\r\n    }\r\n\r\n    function removeProductFromCart(uint256 prod_pos_in_mapping) public {\r\n        uint256[] memory new_product_list = new uint256[](customers[msg.sender]\r\n                                                    .cart.products.length - 1);\r\n        uint256[] memory customerProds = customers[msg.sender].cart.products;\r\n        for (uint256 i = 0; i < customerProds.length; i++) {\r\n          if (i != prod_pos_in_mapping) {\r\n            new_product_list[i] = customerProds[i];\r\n          } else {\r\n            customers[msg.sender].cart.completeSum -=\r\n                                               products[customerProds[i]].price;\r\n            emit CartProductRemoved(msg.sender, customerProds[i]);\r\n          }\r\n        }\r\n        customers[msg.sender].cart.products = new_product_list;\r\n    }\r\n\r\n    function emptyCart() public returns (bool success) {\r\n        Customer storage customer = customers[msg.sender];\r\n        customer.cart = Cart(new uint256[](0), 0);\r\n        emit CartEmptied(customer.adr);\r\n        return true;\r\n    }\r\n\r\n    function registerCustomer(address _address, string memory _name)\r\n                                        public returns (bool success) {\r\n    ownerToProducts[msg.sender].push(Product({\r\n                id: 0,\r\n                name: \"dummy\",\r\n                description: \"dummy\",\r\n                price: 0,\r\n                imgipfshash: \"dummy\",\r\n                fileipfshash:\"dummy\",\r\n                owner: 0x0000000000000000000000000000000000000000,\r\n                purchased: false,\r\n                owners: new address[](0)\r\n        }));\r\n        Customer memory customer = Customer(_address, _name,Cart(new uint256[](0), 0) );\r\n        customerCount++;\r\n        addressLUT[customerCount]=customer.adr;\r\n        customers[_address] = customer;\r\n        emit CustomerRegistered(_address);\r\n        return true;\r\n    }\r\n\r\n    function getCustomer(address _adr) view public returns(Customer memory){\r\n    \treturn customers[_adr];\r\n    }\r\n\r\n    function getProductCount(address _owner) view\r\n        public\r\n        returns (uint256) \r\n    {\r\n        require(_owner != address(0));\r\n        return ownerToProducts[_owner].length;\r\n    }\r\n\r\n    function getProduct(address _owner, uint8 _index) view\r\n        public returns (\r\n        uint _id, \r\n        string memory _name, \r\n        string memory _description,\r\n        uint _price,\r\n        string memory imgipfshash,\r\n        string memory fileipfshash\r\n    ) {\r\n\r\n        require(_owner != address(0));\r\n        require(_index >= 0 && _index <= 2**8 - 1);\r\n        require(ownerToProducts[_owner].length > 0);\r\n\r\n        Product storage product = ownerToProducts[_owner][_index];\r\n        \r\n        return (\r\n            product.id, \r\n            product.name,\r\n            product.description,\r\n            product.price,\r\n            product.imgipfshash,\r\n            product.fileipfshash\r\n        );\r\n    }\r\n\r\n}",
  "sourcePath": "C:\\Users\\Administrator\\Desktop\\MarketPlace\\src\\contracts\\Marketplace.sol",
  "compiler": {
    "name": "solc",
    "version": "0.8.7+commit.e28d00a7.Emscripten.clang"
  },
  "schemaVersion": "3.4.2",
  "updatedAt": "2021-08-14T22:30:24.257Z",
  "networkType": "ethereum",
  "devdoc": {
    "kind": "dev",
    "methods": {},
    "version": 1
  },
  "userdoc": {
    "kind": "user",
    "methods": {},
    "version": 1
  }
}