{
  "contractName": "Marketplace",
  "abi": [
    {
      "anonymous": false,
      "inputs": [
        {
          "indexed": false,
          "internalType": "address",
          "name": "customer",
          "type": "address"
        }
      ],
      "name": "CartEmptied",
      "type": "event"
    },
    {
      "anonymous": false,
      "inputs": [
        {
          "indexed": false,
          "internalType": "address",
          "name": "customer",
          "type": "address"
        },
        {
          "indexed": false,
          "internalType": "uint256",
          "name": "prodId",
          "type": "uint256"
        },
        {
          "indexed": false,
          "internalType": "uint256",
          "name": "prodPrice",
          "type": "uint256"
        },
        {
          "indexed": false,
          "internalType": "uint256",
          "name": "completeSum",
          "type": "uint256"
        }
      ],
      "name": "CartProductInserted",
      "type": "event"
    },
    {
      "anonymous": false,
      "inputs": [
        {
          "indexed": false,
          "internalType": "address",
          "name": "customer",
          "type": "address"
        },
        {
          "indexed": false,
          "internalType": "uint256",
          "name": "prodId",
          "type": "uint256"
        }
      ],
      "name": "CartProductInsertionFailed",
      "type": "event"
    },
    {
      "anonymous": false,
      "inputs": [
        {
          "indexed": false,
          "internalType": "address",
          "name": "customer",
          "type": "address"
        },
        {
          "indexed": false,
          "internalType": "uint256",
          "name": "prodId",
          "type": "uint256"
        }
      ],
      "name": "CartProductRemoved",
      "type": "event"
    },
    {
      "anonymous": false,
      "inputs": [
        {
          "indexed": false,
          "internalType": "address",
          "name": "customer",
          "type": "address"
        }
      ],
      "name": "CustomerRegistered",
      "type": "event"
    },
    {
      "anonymous": false,
      "inputs": [
        {
          "indexed": false,
          "internalType": "address",
          "name": "customer",
          "type": "address"
        }
      ],
      "name": "CustomerRegistrationFailed",
      "type": "event"
    },
    {
      "anonymous": false,
      "inputs": [
        {
          "indexed": false,
          "internalType": "uint256",
          "name": "id",
          "type": "uint256"
        },
        {
          "indexed": false,
          "internalType": "string",
          "name": "name",
          "type": "string"
        },
        {
          "indexed": false,
          "internalType": "string",
          "name": "description",
          "type": "string"
        },
        {
          "indexed": false,
          "internalType": "uint256",
          "name": "price",
          "type": "uint256"
        },
        {
          "indexed": false,
          "internalType": "string",
          "name": "imgipfshash",
          "type": "string"
        },
        {
          "indexed": false,
          "internalType": "string",
          "name": "fileipfshash",
          "type": "string"
        },
        {
          "indexed": false,
          "internalType": "address",
          "name": "owner",
          "type": "address"
        }
      ],
      "name": "ProductCreated",
      "type": "event"
    },
    {
      "anonymous": false,
      "inputs": [
        {
          "indexed": false,
          "internalType": "uint256",
          "name": "id",
          "type": "uint256"
        },
        {
          "indexed": false,
          "internalType": "string",
          "name": "name",
          "type": "string"
        },
        {
          "indexed": false,
          "internalType": "string",
          "name": "description",
          "type": "string"
        },
        {
          "indexed": false,
          "internalType": "uint256",
          "name": "price",
          "type": "uint256"
        },
        {
          "indexed": false,
          "internalType": "string",
          "name": "imgipfshash",
          "type": "string"
        },
        {
          "indexed": false,
          "internalType": "string",
          "name": "fileipfshash",
          "type": "string"
        },
        {
          "indexed": false,
          "internalType": "address",
          "name": "owner",
          "type": "address"
        }
      ],
      "name": "ProductPurchased",
      "type": "event"
    },
    {
      "inputs": [
        {
          "internalType": "uint256",
          "name": "",
          "type": "uint256"
        }
      ],
      "name": "addressLUT",
      "outputs": [
        {
          "internalType": "address",
          "name": "",
          "type": "address"
        }
      ],
      "stateMutability": "view",
      "type": "function",
      "constant": true
    },
    {
      "inputs": [
        {
          "internalType": "enum Marketplace.Categories",
          "name": "",
          "type": "uint8"
        },
        {
          "internalType": "uint256",
          "name": "",
          "type": "uint256"
        }
      ],
      "name": "categorieToProduct",
      "outputs": [
        {
          "internalType": "uint256",
          "name": "",
          "type": "uint256"
        }
      ],
      "stateMutability": "view",
      "type": "function",
      "constant": true
    },
    {
      "inputs": [],
      "name": "customerCount",
      "outputs": [
        {
          "internalType": "uint256",
          "name": "",
          "type": "uint256"
        }
      ],
      "stateMutability": "view",
      "type": "function",
      "constant": true
    },
    {
      "inputs": [
        {
          "internalType": "address",
          "name": "",
          "type": "address"
        }
      ],
      "name": "customers",
      "outputs": [
        {
          "internalType": "address",
          "name": "adr",
          "type": "address"
        },
        {
          "internalType": "string",
          "name": "name",
          "type": "string"
        },
        {
          "components": [
            {
              "internalType": "uint256[]",
              "name": "products",
              "type": "uint256[]"
            },
            {
              "internalType": "uint256",
              "name": "completeSum",
              "type": "uint256"
            }
          ],
          "internalType": "struct Marketplace.Cart",
          "name": "cart",
          "type": "tuple"
        }
      ],
      "stateMutability": "view",
      "type": "function",
      "constant": true
    },
    {
      "inputs": [],
      "name": "flag",
      "outputs": [
        {
          "internalType": "bool",
          "name": "",
          "type": "bool"
        }
      ],
      "stateMutability": "view",
      "type": "function",
      "constant": true
    },
    {
      "inputs": [],
      "name": "productCount",
      "outputs": [
        {
          "internalType": "uint256",
          "name": "",
          "type": "uint256"
        }
      ],
      "stateMutability": "view",
      "type": "function",
      "constant": true
    },
    {
      "inputs": [
        {
          "internalType": "uint256",
          "name": "",
          "type": "uint256"
        }
      ],
      "name": "products",
      "outputs": [
        {
          "internalType": "uint256",
          "name": "id",
          "type": "uint256"
        },
        {
          "internalType": "string",
          "name": "name",
          "type": "string"
        },
        {
          "internalType": "string",
          "name": "description",
          "type": "string"
        },
        {
          "internalType": "uint256",
          "name": "price",
          "type": "uint256"
        },
        {
          "internalType": "string",
          "name": "imgipfshash",
          "type": "string"
        },
        {
          "internalType": "string",
          "name": "fileipfshash",
          "type": "string"
        },
        {
          "internalType": "address",
          "name": "owner",
          "type": "address"
        },
        {
          "internalType": "enum Marketplace.Categories",
          "name": "categorie",
          "type": "uint8"
        },
        {
          "internalType": "uint256",
          "name": "uploadedOn",
          "type": "uint256"
        },
        {
          "internalType": "uint256",
          "name": "rate",
          "type": "uint256"
        },
        {
          "internalType": "uint256",
          "name": "reviewsCount",
          "type": "uint256"
        }
      ],
      "stateMutability": "view",
      "type": "function",
      "constant": true
    },
    {
      "inputs": [
        {
          "internalType": "string",
          "name": "_name",
          "type": "string"
        },
        {
          "internalType": "string",
          "name": "_description",
          "type": "string"
        },
        {
          "internalType": "uint256",
          "name": "_price",
          "type": "uint256"
        },
        {
          "internalType": "string",
          "name": "_imgipfshash",
          "type": "string"
        },
        {
          "internalType": "string",
          "name": "_fileipfshash",
          "type": "string"
        },
        {
          "internalType": "enum Marketplace.Categories",
          "name": "_categorie",
          "type": "uint8"
        }
      ],
      "name": "createProduct",
      "outputs": [],
      "stateMutability": "nonpayable",
      "type": "function"
    },
    {
      "inputs": [
        {
          "internalType": "uint256",
          "name": "_id",
          "type": "uint256"
        }
      ],
      "name": "purchaseProduct",
      "outputs": [],
      "stateMutability": "payable",
      "type": "function",
      "payable": true
    },
    {
      "inputs": [
        {
          "internalType": "uint256",
          "name": "_id",
          "type": "uint256"
        },
        {
          "internalType": "string",
          "name": "_name",
          "type": "string"
        },
        {
          "internalType": "string",
          "name": "_des",
          "type": "string"
        },
        {
          "internalType": "uint256",
          "name": "_price",
          "type": "uint256"
        },
        {
          "internalType": "enum Marketplace.Categories",
          "name": "_categorie",
          "type": "uint8"
        }
      ],
      "name": "editProduct",
      "outputs": [],
      "stateMutability": "nonpayable",
      "type": "function"
    },
    {
      "inputs": [
        {
          "internalType": "uint256",
          "name": "_id",
          "type": "uint256"
        },
        {
          "internalType": "uint256",
          "name": "_rate",
          "type": "uint256"
        },
        {
          "internalType": "string",
          "name": "_review",
          "type": "string"
        }
      ],
      "name": "reviewProduct",
      "outputs": [],
      "stateMutability": "nonpayable",
      "type": "function"
    },
    {
      "inputs": [
        {
          "internalType": "address",
          "name": "_address",
          "type": "address"
        },
        {
          "internalType": "string",
          "name": "_name",
          "type": "string"
        }
      ],
      "name": "registerCustomer",
      "outputs": [
        {
          "internalType": "bool",
          "name": "success",
          "type": "bool"
        }
      ],
      "stateMutability": "nonpayable",
      "type": "function"
    },
    {
      "inputs": [
        {
          "internalType": "address",
          "name": "_adr",
          "type": "address"
        }
      ],
      "name": "getCustomer",
      "outputs": [
        {
          "components": [
            {
              "internalType": "address",
              "name": "adr",
              "type": "address"
            },
            {
              "internalType": "string",
              "name": "name",
              "type": "string"
            },
            {
              "internalType": "uint256[]",
              "name": "ownedProducts",
              "type": "uint256[]"
            },
            {
              "internalType": "uint256[]",
              "name": "purchasedProducts",
              "type": "uint256[]"
            },
            {
              "components": [
                {
                  "internalType": "uint256[]",
                  "name": "products",
                  "type": "uint256[]"
                },
                {
                  "internalType": "uint256",
                  "name": "completeSum",
                  "type": "uint256"
                }
              ],
              "internalType": "struct Marketplace.Cart",
              "name": "cart",
              "type": "tuple"
            }
          ],
          "internalType": "struct Marketplace.Customer",
          "name": "",
          "type": "tuple"
        }
      ],
      "stateMutability": "view",
      "type": "function",
      "constant": true
    },
    {
      "inputs": [
        {
          "internalType": "uint256",
          "name": "_id",
          "type": "uint256"
        }
      ],
      "name": "getNumberOfOwners",
      "outputs": [
        {
          "internalType": "uint256",
          "name": "",
          "type": "uint256"
        }
      ],
      "stateMutability": "view",
      "type": "function",
      "constant": true
    }
  ],
  "bytecode": "0x60806040526000805560006001556000600260006101000a81548160ff02191690831515021790555034801561003457600080fd5b50612b52806100446000396000f3fe6080604052600436106100dc5760003560e01c80637b61b7021161007f578063aca4901811610059578063aca49018146102ce578063cb949e511461030b578063db1970f414610348578063e0f6ef8714610385576100dc565b80637b61b7021461024f578063890eba68146102785780639757e8a3146102a3576100dc565b8063336989ae116100bb578063336989ae1461017057806338e76a03146101af57806377e1d95d146101cb5780637acc0b2014610208576100dc565b8062f73d4c146100e15780630b784d2d1461010a57806330a7bfe714610133575b600080fd5b3480156100ed57600080fd5b5061010860048036038101906101039190612088565b6103b0565b005b34801561011657600080fd5b50610131600480360381019061012c9190611eab565b6107bb565b005b34801561013f57600080fd5b5061015a60048036038101906101559190611e6b565b610b0a565b6040516101679190612524565b60405180910390f35b34801561017c57600080fd5b5061019760048036038101906101929190611de2565b610b3b565b6040516101a693929190612442565b60405180910390f35b6101c960048036038101906101c49190611fa8565b610c79565b005b3480156101d757600080fd5b506101f260048036038101906101ed9190611fa8565b611164565b6040516101ff9190612524565b60405180910390f35b34801561021457600080fd5b5061022f600480360381019061022a9190611fa8565b611187565b6040516102469b9a999897969594939291906125ca565b60405180910390f35b34801561025b57600080fd5b5061027660048036038101906102719190611fd5565b61142e565b005b34801561028457600080fd5b5061028d61154f565b60405161029a9190612487565b60405180910390f35b3480156102af57600080fd5b506102b8611562565b6040516102c59190612524565b60405180910390f35b3480156102da57600080fd5b506102f560048036038101906102f09190611fa8565b611568565b6040516103029190612427565b60405180910390f35b34801561031757600080fd5b50610332600480360381019061032d9190611de2565b61159b565b60405161033f9190612502565b60405180910390f35b34801561035457600080fd5b5061036f600480360381019061036a9190611e0f565b611802565b60405161037c9190612487565b60405180910390f35b34801561039157600080fd5b5061039a611af9565b6040516103a79190612524565b60405180910390f35b6001151560036000858152602001908152602001600020600d0160003373ffffffffffffffffffffffffffffffffffffffff1673ffffffffffffffffffffffffffffffffffffffff16815260200190815260200160002060000160009054906101000a900460ff1615151461045a576040517f08c379a0000000000000000000000000000000000000000000000000000000008152600401610451906124c2565b60405180910390fd5b6000151560036000858152602001908152602001600020600d0160003373ffffffffffffffffffffffffffffffffffffffff1673ffffffffffffffffffffffffffffffffffffffff16815260200190815260200160002060000160019054906101000a90505050600160036000858152602001908152602001600020600d0160003373ffffffffffffffffffffffffffffffffffffffff1673ffffffffffffffffffffffffffffffffffffffff16815260200190815260200160002060000160016101000a81548160ff0219169083151502179055508060036000858152602001908152602001600020600d0160003373ffffffffffffffffffffffffffffffffffffffff1673ffffffffffffffffffffffffffffffffffffffff168152602001908152602001600020600101908051906020019061059a929190611aff565b504260036000858152602001908152602001600020600d0160003373ffffffffffffffffffffffffffffffffffffffff1673ffffffffffffffffffffffffffffffffffffffff168152602001908152602001600020600201819055503360036000858152602001908152602001600020600c0160006003600087815260200190815260200160002060090154815260200190815260200160002060006101000a81548173ffffffffffffffffffffffffffffffffffffffff021916908373ffffffffffffffffffffffffffffffffffffffff16021790555060036000848152602001908152602001600020600b0160036000858152602001908152602001600020600d0160003373ffffffffffffffffffffffffffffffffffffffff1673ffffffffffffffffffffffffffffffffffffffff16815260200190815260200160002090806001815401808255809150506001900390600052602060002090600302016000909190919091506000820160009054906101000a900460ff168160000160006101000a81548160ff0219169083151502179055506000820160019054906101000a900460ff168160000160016101000a81548160ff02191690831515021790555060018201816001019080546107729061289c565b61077d929190611b85565b506002820154816002015550506003600084815260200190815260200160002060090160008154809291906107b1906128ff565b9190505550505050565b60008651116107c957600080fd5b60008551116107d757600080fd5b600084116107e457600080fd5b60008351116107f257600080fd5b600082511161080057600080fd5b6000429050600080815480929190610817906128ff565b91905055506000546003600080548152602001908152602001600020600001819055508660036000805481526020019081526020016000206001019080519060200190610865929190611aff565b508560036000805481526020019081526020016000206002019080519060200190610891929190611aff565b508460036000805481526020019081526020016000206003018190555083600360008054815260200190815260200160002060040190805190602001906108d9929190611aff565b508260036000805481526020019081526020016000206005019080519060200190610905929190611aff565b5033600360008054815260200190815260200160002060060160006101000a81548173ffffffffffffffffffffffffffffffffffffffff021916908373ffffffffffffffffffffffffffffffffffffffff16021790555081600360008054815260200190815260200160002060060160146101000a81548160ff0219169083600a81111561099657610995612977565b5b021790555080600360008054815260200190815260200160002060070181905550600060036000805481526020019081526020016000206008018190555060006003600080548152602001908152602001600020600901819055506004600083600a811115610a0857610a07612977565b5b600a811115610a1a57610a19612977565b5b81526020019081526020016000206000549080600181540180825580915050600190039060005260206000200160009091909190915055600560003373ffffffffffffffffffffffffffffffffffffffff1673ffffffffffffffffffffffffffffffffffffffff16815260200190815260200160002060020160005490806001815401808255809150506001900390600052602060002001600090919091909150557f1a3f2c9175d23760b6304c5f19e98b7b12dd25309a0a92996815dcf864cece09600054888888888833604051610af9979695949392919061253f565b60405180910390a150505050505050565b60046020528160005260406000208181548110610b2657600080fd5b90600052602060002001600091509150505481565b60056020528060005260406000206000915090508060000160009054906101000a900473ffffffffffffffffffffffffffffffffffffffff1690806001018054610b849061289c565b80601f0160208091040260200160405190810160405280929190818152602001828054610bb09061289c565b8015610bfd5780601f10610bd257610100808354040283529160200191610bfd565b820191906000526020600020905b815481529060010190602001808311610be057829003601f168201915b5050505050908060040160405180604001604052908160008201805480602002602001604051908101604052809291908181526020018280548015610c6157602002820191906000526020600020905b815481526020019060010190808311610c4d575b50505050508152602001600182015481525050905083565b60006003600083815260200190815260200160002060060160009054906101000a900473ffffffffffffffffffffffffffffffffffffffff1690503373ffffffffffffffffffffffffffffffffffffffff166003600084815260200190815260200160002060060160009054906101000a900473ffffffffffffffffffffffffffffffffffffffff1673ffffffffffffffffffffffffffffffffffffffff161415610d59576040517f08c379a0000000000000000000000000000000000000000000000000000000008152600401610d50906124e2565b60405180910390fd5b60006003600084815260200190815260200160002060000154118015610d975750600054600360008481526020019081526020016000206000015411155b610da057600080fd5b6003600083815260200190815260200160002060030154341015610df9576040517f08c379a0000000000000000000000000000000000000000000000000000000008152600401610df0906124a2565b60405180910390fd5b3373ffffffffffffffffffffffffffffffffffffffff168173ffffffffffffffffffffffffffffffffffffffff161415610e3257600080fd5b600160036000848152602001908152602001600020600d0160003373ffffffffffffffffffffffffffffffffffffffff1673ffffffffffffffffffffffffffffffffffffffff16815260200190815260200160002060000160006101000a81548160ff02191690831515021790555060036000838152602001908152602001600020600a01600560003373ffffffffffffffffffffffffffffffffffffffff1673ffffffffffffffffffffffffffffffffffffffff16815260200190815260200160002090806001815401808255809150506001900390600052602060002090600602016000909190919091506000820160009054906101000a900473ffffffffffffffffffffffffffffffffffffffff168160000160006101000a81548173ffffffffffffffffffffffffffffffffffffffff021916908373ffffffffffffffffffffffffffffffffffffffff1602179055506001820181600101908054610f9a9061289c565b610fa5929190611b85565b506002820181600201908054610fbc929190611c12565b506003820181600301908054610fd3929190611c12565b5060048201816004016000820181600001908054610ff2929190611c12565b506001820154816001015550505050600560003373ffffffffffffffffffffffffffffffffffffffff1673ffffffffffffffffffffffffffffffffffffffff1681526020019081526020016000206003018290806001815401808255809150506001900390600052602060002001600090919091909150558073ffffffffffffffffffffffffffffffffffffffff166108fc349081150290604051600060405180830381858888f193505050501580156110b0573d6000803e3d6000fd5b507f215942067dd41b71411a8c0c08b393a92646528c54f6f24ce8e54e08b31a09c5600054600360008581526020019081526020016000206001016003600086815260200190815260200160002060020160036000878152602001908152602001600020600301546003600088815260200190815260200160002060040160036000898152602001908152602001600020600501336040516111589796959493929190612691565b60405180910390a15050565b600060036000838152602001908152602001600020600a01805490509050919050565b60036020528060005260406000206000915090508060000154908060010180546111b09061289c565b80601f01602080910402602001604051908101604052809291908181526020018280546111dc9061289c565b80156112295780601f106111fe57610100808354040283529160200191611229565b820191906000526020600020905b81548152906001019060200180831161120c57829003601f168201915b50505050509080600201805461123e9061289c565b80601f016020809104026020016040519081016040528092919081815260200182805461126a9061289c565b80156112b75780601f1061128c576101008083540402835291602001916112b7565b820191906000526020600020905b81548152906001019060200180831161129a57829003601f168201915b5050505050908060030154908060040180546112d29061289c565b80601f01602080910402602001604051908101604052809291908181526020018280546112fe9061289c565b801561134b5780601f106113205761010080835404028352916020019161134b565b820191906000526020600020905b81548152906001019060200180831161132e57829003601f168201915b5050505050908060050180546113609061289c565b80601f016020809104026020016040519081016040528092919081815260200182805461138c9061289c565b80156113d95780601f106113ae576101008083540402835291602001916113d9565b820191906000526020600020905b8154815290600101906020018083116113bc57829003601f168201915b5050505050908060060160009054906101000a900473ffffffffffffffffffffffffffffffffffffffff16908060060160149054906101000a900460ff1690806007015490806008015490806009015490508b565b6003600086815260200190815260200160002060060160009054906101000a900473ffffffffffffffffffffffffffffffffffffffff1673ffffffffffffffffffffffffffffffffffffffff163373ffffffffffffffffffffffffffffffffffffffff16141561154857836003600087815260200190815260200160002060010190805190602001906114c2929190611aff565b50826003600087815260200190815260200160002060020190805190602001906114ed929190611aff565b50816003600087815260200190815260200160002060030181905550806003600087815260200190815260200160002060060160146101000a81548160ff0219169083600a81111561154257611541612977565b5b02179055505b5050505050565b600260009054906101000a900460ff1681565b60015481565b60066020528060005260406000206000915054906101000a900473ffffffffffffffffffffffffffffffffffffffff1681565b6115a3611c64565b600560008373ffffffffffffffffffffffffffffffffffffffff1673ffffffffffffffffffffffffffffffffffffffff1681526020019081526020016000206040518060a00160405290816000820160009054906101000a900473ffffffffffffffffffffffffffffffffffffffff1673ffffffffffffffffffffffffffffffffffffffff1673ffffffffffffffffffffffffffffffffffffffff1681526020016001820180546116539061289c565b80601f016020809104026020016040519081016040528092919081815260200182805461167f9061289c565b80156116cc5780601f106116a1576101008083540402835291602001916116cc565b820191906000526020600020905b8154815290600101906020018083116116af57829003601f168201915b505050505081526020016002820180548060200260200160405190810160405280929190818152602001828054801561172457602002820191906000526020600020905b815481526020019060010190808311611710575b505050505081526020016003820180548060200260200160405190810160405280929190818152602001828054801561177c57602002820191906000526020600020905b815481526020019060010190808311611768575b5050505050815260200160048201604051806040016040529081600082018054806020026020016040519081016040528092919081815260200182805480156117e457602002820191906000526020600020905b8154815260200190600101908083116117d0575b50505050508152602001600182015481525050815250509050919050565b6000806040518060a001604052808573ffffffffffffffffffffffffffffffffffffffff168152602001848152602001600067ffffffffffffffff81111561184d5761184c6129d5565b5b60405190808252806020026020018201604052801561187b5781602001602082028036833780820191505090505b508152602001600067ffffffffffffffff81111561189c5761189b6129d5565b5b6040519080825280602002602001820160405280156118ca5781602001602082028036833780820191505090505b5081526020016040518060400160405280600067ffffffffffffffff8111156118f6576118f56129d5565b5b6040519080825280602002602001820160405280156119245781602001602082028036833780820191505090505b5081526020016000815250815250905060016000815480929190611947906128ff565b9190505550806000015160066000600154815260200190815260200160002060006101000a81548173ffffffffffffffffffffffffffffffffffffffff021916908373ffffffffffffffffffffffffffffffffffffffff16021790555080600560008673ffffffffffffffffffffffffffffffffffffffff1673ffffffffffffffffffffffffffffffffffffffff16815260200190815260200160002060008201518160000160006101000a81548173ffffffffffffffffffffffffffffffffffffffff021916908373ffffffffffffffffffffffffffffffffffffffff1602179055506020820151816001019080519060200190611a47929190611aff565b506040820151816002019080519060200190611a64929190611caf565b506060820151816003019080519060200190611a81929190611caf565b506080820151816004016000820151816000019080519060200190611aa7929190611caf565b506020820151816001015550509050507f155e8619f4d23b96769599cb9af87da3e06a360082869c18578011da9a06e67084604051611ae69190612427565b60405180910390a1600191505092915050565b60005481565b828054611b0b9061289c565b90600052602060002090601f016020900481019282611b2d5760008555611b74565b82601f10611b4657805160ff1916838001178555611b74565b82800160010185558215611b74579182015b82811115611b73578251825591602001919060010190611b58565b5b509050611b819190611cfc565b5090565b828054611b919061289c565b90600052602060002090601f016020900481019282611bb35760008555611c01565b82601f10611bc45780548555611c01565b82800160010185558215611c0157600052602060002091601f016020900482015b82811115611c00578254825591600101919060010190611be5565b5b509050611c0e9190611cfc565b5090565b828054828255906000526020600020908101928215611c535760005260206000209182015b82811115611c52578254825591600101919060010190611c37565b5b509050611c609190611cfc565b5090565b6040518060a00160405280600073ffffffffffffffffffffffffffffffffffffffff168152602001606081526020016060815260200160608152602001611ca9611d19565b81525090565b828054828255906000526020600020908101928215611ceb579160200282015b82811115611cea578251825591602001919060010190611ccf565b5b509050611cf89190611cfc565b5090565b5b80821115611d15576000816000905550600101611cfd565b5090565b604051806040016040528060608152602001600081525090565b6000611d46611d4184612741565b61271c565b905082815260208101848484011115611d6257611d61612a09565b5b611d6d84828561285a565b509392505050565b600081359050611d8481612ade565b92915050565b600081359050611d9981612af5565b92915050565b600082601f830112611db457611db3612a04565b5b8135611dc4848260208601611d33565b91505092915050565b600081359050611ddc81612b05565b92915050565b600060208284031215611df857611df7612a13565b5b6000611e0684828501611d75565b91505092915050565b60008060408385031215611e2657611e25612a13565b5b6000611e3485828601611d75565b925050602083013567ffffffffffffffff811115611e5557611e54612a0e565b5b611e6185828601611d9f565b9150509250929050565b60008060408385031215611e8257611e81612a13565b5b6000611e9085828601611d8a565b9250506020611ea185828601611dcd565b9150509250929050565b60008060008060008060c08789031215611ec857611ec7612a13565b5b600087013567ffffffffffffffff811115611ee657611ee5612a0e565b5b611ef289828a01611d9f565b965050602087013567ffffffffffffffff811115611f1357611f12612a0e565b5b611f1f89828a01611d9f565b9550506040611f3089828a01611dcd565b945050606087013567ffffffffffffffff811115611f5157611f50612a0e565b5b611f5d89828a01611d9f565b935050608087013567ffffffffffffffff811115611f7e57611f7d612a0e565b5b611f8a89828a01611d9f565b92505060a0611f9b89828a01611d8a565b9150509295509295509295565b600060208284031215611fbe57611fbd612a13565b5b6000611fcc84828501611dcd565b91505092915050565b600080600080600060a08688031215611ff157611ff0612a13565b5b6000611fff88828901611dcd565b955050602086013567ffffffffffffffff8111156120205761201f612a0e565b5b61202c88828901611d9f565b945050604086013567ffffffffffffffff81111561204d5761204c612a0e565b5b61205988828901611d9f565b935050606061206a88828901611dcd565b925050608061207b88828901611d8a565b9150509295509295909350565b6000806000606084860312156120a1576120a0612a13565b5b60006120af86828701611dcd565b93505060206120c086828701611dcd565b925050604084013567ffffffffffffffff8111156120e1576120e0612a0e565b5b6120ed86828701611d9f565b9150509250925092565b60006121038383612409565b60208301905092915050565b612118816127ed565b82525050565b612127816127ed565b82525050565b600061213882612797565b61214281856127ba565b935061214d83612772565b8060005b8381101561217e57815161216588826120f7565b9750612170836127ad565b925050600181019050612151565b5085935050505092915050565b612194816127ff565b82525050565b6121a381612848565b82525050565b60006121b4826127a2565b6121be81856127cb565b93506121ce818560208601612869565b6121d781612a18565b840191505092915050565b60006121ed826127a2565b6121f781856127dc565b9350612207818560208601612869565b61221081612a18565b840191505092915050565b600081546122288161289c565b61223281866127dc565b9450600182166000811461224d576001811461225f57612292565b60ff1983168652602086019350612292565b61226885612782565b60005b8381101561228a5781548189015260018201915060208101905061226b565b808801955050505b50505092915050565b60006122a86012836127dc565b91506122b382612a29565b602082019050919050565b60006122cb602b836127dc565b91506122d682612a52565b604082019050919050565b60006122ee601f836127dc565b91506122f982612aa1565b602082019050919050565b60006040830160008301518482036000860152612321828261212d565b91505060208301516123366020860182612409565b508091505092915050565b6000604083016000830151848203600086015261235e828261212d565b91505060208301516123736020860182612409565b508091505092915050565b600060a083016000830151612396600086018261210f565b50602083015184820360208601526123ae82826121a9565b915050604083015184820360408601526123c8828261212d565b915050606083015184820360608601526123e2828261212d565b915050608083015184820360808601526123fc8282612304565b9150508091505092915050565b6124128161283e565b82525050565b6124218161283e565b82525050565b600060208201905061243c600083018461211e565b92915050565b6000606082019050612457600083018661211e565b818103602083015261246981856121e2565b9050818103604083015261247d8184612341565b9050949350505050565b600060208201905061249c600083018461218b565b92915050565b600060208201905081810360008301526124bb8161229b565b9050919050565b600060208201905081810360008301526124db816122be565b9050919050565b600060208201905081810360008301526124fb816122e1565b9050919050565b6000602082019050818103600083015261251c818461237e565b905092915050565b60006020820190506125396000830184612418565b92915050565b600060e082019050612554600083018a612418565b818103602083015261256681896121e2565b9050818103604083015261257a81886121e2565b90506125896060830187612418565b818103608083015261259b81866121e2565b905081810360a08301526125af81856121e2565b90506125be60c083018461211e565b98975050505050505050565b6000610160820190506125e0600083018e612418565b81810360208301526125f2818d6121e2565b90508181036040830152612606818c6121e2565b9050612615606083018b612418565b8181036080830152612627818a6121e2565b905081810360a083015261263b81896121e2565b905061264a60c083018861211e565b61265760e083018761219a565b612665610100830186612418565b612673610120830185612418565b612681610140830184612418565b9c9b505050505050505050505050565b600060e0820190506126a6600083018a612418565b81810360208301526126b8818961221b565b905081810360408301526126cc818861221b565b90506126db6060830187612418565b81810360808301526126ed818661221b565b905081810360a0830152612701818561221b565b905061271060c083018461211e565b98975050505050505050565b6000612726612737565b905061273282826128ce565b919050565b6000604051905090565b600067ffffffffffffffff82111561275c5761275b6129d5565b5b61276582612a18565b9050602081019050919050565b6000819050602082019050919050565b60008190508160005260206000209050919050565b600081519050919050565b600081519050919050565b6000602082019050919050565b600082825260208201905092915050565b600082825260208201905092915050565b600082825260208201905092915050565b60006127f88261281e565b9050919050565b60008115159050919050565b600081905061281982612aca565b919050565b600073ffffffffffffffffffffffffffffffffffffffff82169050919050565b6000819050919050565b60006128538261280b565b9050919050565b82818337600083830152505050565b60005b8381101561288757808201518184015260208101905061286c565b83811115612896576000848401525b50505050565b600060028204905060018216806128b457607f821691505b602082108114156128c8576128c76129a6565b5b50919050565b6128d782612a18565b810181811067ffffffffffffffff821117156128f6576128f56129d5565b5b80604052505050565b600061290a8261283e565b91507fffffffffffffffffffffffffffffffffffffffffffffffffffffffffffffffff82141561293d5761293c612948565b5b600182019050919050565b7f4e487b7100000000000000000000000000000000000000000000000000000000600052601160045260246000fd5b7f4e487b7100000000000000000000000000000000000000000000000000000000600052602160045260246000fd5b7f4e487b7100000000000000000000000000000000000000000000000000000000600052602260045260246000fd5b7f4e487b7100000000000000000000000000000000000000000000000000000000600052604160045260246000fd5b600080fd5b600080fd5b600080fd5b600080fd5b6000601f19601f8301169050919050565b7f496e73756666696369656e742045746865720000000000000000000000000000600082015250565b7f596f7520617265206e6f7420656c696769626c6520746f20726576696577207460008201527f6869732070726f64756374000000000000000000000000000000000000000000602082015250565b7f596f752063616e6e6f742062757920796f7572206f776e2070726f6475637400600082015250565b600b8110612adb57612ada612977565b5b50565b612ae7816127ed565b8114612af257600080fd5b50565b600b8110612b0257600080fd5b50565b612b0e8161283e565b8114612b1957600080fd5b5056fea2646970667358221220cb4a65de6e0aa4679b5f90d1f5f90e6debc07bd64999e9a2aad020e7336aa5a564736f6c63430008070033",
  "immutableReferences": {},
  "source": "//buyer w purchasedProduct\r\n// SPDX-License-Identifier: MIT\r\npragma solidity  ^0.8.0;\r\n\r\ncontract Marketplace {\r\n    //string public name;\r\n    uint public productCount = 0;\r\n    uint public customerCount = 0;\r\n    //to store the products on blockchain\r\n    bool public flag = false;\r\n    mapping(uint => Product) public products;\r\n    //mapping(uint => uint[]) public productsRates;\r\n    //mapping(uint => string[]) public productsReviews;\r\n    mapping(Categories => uint[]) public categorieToProduct;\r\n    //to store the customers on blockchain\r\n    mapping(address  => Customer) public customers;\r\n    mapping(uint => address) public addressLUT;\r\n    \r\n    enum Categories {\r\n        Tech,\r\n        PCGames,\r\n        PS4Games,\r\n        XboxGames,\r\n        Movies,\r\n        Courses,\r\n        Books,\r\n        AudioBooks,\r\n        Images,\r\n        Videos,\r\n        Other\r\n    }\r\n    struct Review{\r\n        bool isBuy;\r\n        bool isReview;\r\n        string reviewDescription;\r\n        uint timeStamp;\r\n    }\r\n    struct Customer {\r\n        address adr;\r\n        string name;\r\n        uint256[] ownedProducts;\r\n        uint256[] purchasedProducts;\r\n        Cart cart;\r\n        \r\n    }\r\n\r\n    struct Cart {\r\n      uint256[] products;\r\n      uint256 completeSum;\r\n    }\r\n\r\n    struct Product {\r\n        uint id;\r\n        string name;\r\n        string description;\r\n        uint price;\r\n        string imgipfshash;\r\n        string fileipfshash;\r\n        address owner;\r\n        Categories categorie;\r\n        uint256 uploadedOn;\r\n        uint256 rate;\r\n        uint256 reviewsCount;\r\n        Customer[] buyers;\r\n        Review [] reviews;\r\n        mapping (uint=>address) raters; //address of reviewers\r\n        mapping (address=>Review) productUserReview;\r\n    }\r\n\r\n    event ProductCreated(uint id, string name, string description, uint price, string imgipfshash, string fileipfshash, address owner);\r\n    event ProductPurchased(uint id, string name, string description, uint price, string imgipfshash, string fileipfshash, address owner);\r\n    event CustomerRegistered(address customer);\r\n    event CustomerRegistrationFailed(address customer);\r\n    event CartProductInserted(address customer, uint256 prodId, uint256 prodPrice, uint256 completeSum);\r\n    event CartProductInsertionFailed(address customer, uint256 prodId);\r\n    event CartProductRemoved(address customer, uint256 prodId);\r\n    event CartEmptied(address customer);\r\n\r\n    // Create a new product with a struct\r\n    // Add the struct to the mapping, and store it on the blockchain\r\n    // Trigger an event that lets someone know a product was creatd\r\n    function createProduct(string memory _name,string memory _description, uint _price,string memory _imgipfshash,string memory _fileipfshash , Categories _categorie ) public {\r\n        // Require a valid name\r\n        require(bytes(_name).length > 0);\r\n        // Require a valid description\r\n        require(bytes(_description).length > 0);\r\n        // Require a valid price\r\n        require(_price > 0);\r\n        // Require a valid image hash\r\n        require(bytes(_imgipfshash).length > 0);\r\n        // Require a valid file hash\r\n        require(bytes(_fileipfshash).length > 0);\r\n        // Increment product count\r\n        uint256 _uploadedOn = block.timestamp;\r\n        //increment number of products\r\n        productCount ++;\r\n        //add this Product to the products map\r\n        products[productCount].id = productCount;\r\n        products[productCount].name = _name;\r\n        products[productCount].description = _description;\r\n        products[productCount].price = _price;\r\n        products[productCount].imgipfshash = _imgipfshash;\r\n        products[productCount].fileipfshash = _fileipfshash;\r\n        products[productCount].owner = msg.sender;\r\n        products[productCount].categorie = _categorie;\r\n        products[productCount].uploadedOn = _uploadedOn;\r\n        products[productCount].rate = 0;\r\n        products[productCount].reviewsCount = 0;\r\n        //add this product to it's categorie\r\n        categorieToProduct[_categorie].push(productCount);\r\n        //add this product to the customer's owned product\r\n        customers[msg.sender].ownedProducts.push(productCount);\r\n        //create an event\r\n        emit ProductCreated(productCount, _name, _description, _price, _imgipfshash,_fileipfshash, msg.sender);\r\n    }\r\n\r\n    function purchaseProduct(uint _id) public payable {\r\n        // Fetch the owner\r\n        address _seller = products[_id].owner;\r\n        require(products[_id].owner != msg.sender, \"You cannot buy your own product\");\r\n        // Make sure the product has a valid id\r\n        require(products[_id].id > 0 && products[_id].id <= productCount);\r\n        // Require that there is enough Ether in the transaction\r\n        require(msg.value >= products[_id].price, \"Insufficient Ether\");\r\n        // Require that the buyer is not the seller\r\n        require(_seller != msg.sender);\r\n        //add to products a user can revie\r\n        products[_id].productUserReview[msg.sender].isBuy = true;\r\n        //add this customer to the people who bought this product\r\n        products[_id].buyers.push(customers[msg.sender]);\r\n        //add to the products owners\r\n        customers[msg.sender].purchasedProducts.push(_id);\r\n        // Pay the seller by sending them Ether\r\n        payable(_seller).transfer(msg.value);\r\n        // Trigger an event\r\n        emit ProductPurchased(productCount, products[_id].name,products[_id].description, products[_id].price, products[_id].imgipfshash, products[_id].fileipfshash, msg.sender);\r\n    }\r\n    function editProduct(uint256 _id , string memory _name , string memory _des , uint _price , Categories _categorie) public{\r\n        if(msg.sender == products[_id].owner){\r\n            products[_id].name = _name;\r\n            products[_id].description = _des;\r\n            products[_id].price = _price;\r\n            products[_id].categorie = _categorie;\r\n        }\r\n    }\r\n    function reviewProduct(uint _id,uint256 _rate, string memory _review) public\r\n    {\r\n           require(products[_id].productUserReview[msg.sender].isBuy == true, \"You are not eligible to review this product\");\r\n           products[_id].productUserReview[msg.sender].isReview == false; //only once\r\n\r\n           products[_id].productUserReview[msg.sender].isReview = true;\r\n           //should update rate\r\n           products[_id].productUserReview[msg.sender].reviewDescription = _review;\r\n           products[_id].productUserReview[msg.sender].timeStamp = block.timestamp;\r\n\r\n           products[_id].raters[products[_id].reviewsCount] = msg.sender;\r\n              products[_id].reviews.push(products[_id].productUserReview[msg.sender]);\r\n\r\n           products[_id].reviewsCount ++;\r\n\r\n    }\r\n    /*function insertProductIntoCart(uint256 id) public returns (bool success,\r\n                                                  uint256 pos_in_prod_mapping) {\r\n        Customer storage cust = customers[msg.sender];\r\n        Product memory prod = products[id];\r\n        uint256 prods_prev_len = cust.cart.products.length;\r\n        cust.cart.products.push(prod.id);\r\n        uint256 current_sum = cust.cart.completeSum;\r\n        cust.cart.completeSum = current_sum + prod.price;\r\n        if (cust.cart.products.length > prods_prev_len) {\r\n          emit CartProductInserted(msg.sender, id, prod.price, cust.cart.completeSum);\r\n          return (true, cust.cart.products.length - 1);\r\n        }\r\n        emit CartProductInsertionFailed(msg.sender, id);\r\n        return (false, 0);\r\n    }*/\r\n\r\n    /*function removeProductFromCart(uint256 prod_pos_in_mapping) public {\r\n        uint256[] memory new_product_list = new uint256[](customers[msg.sender]\r\n                                                    .cart.products.length - 1);\r\n        uint256[] memory customerProds = customers[msg.sender].cart.products;\r\n        for (uint256 i = 0; i < customerProds.length; i++) {\r\n          if (i != prod_pos_in_mapping) {\r\n            new_product_list[i] = customerProds[i];\r\n          } else {\r\n            customers[msg.sender].cart.completeSum -=\r\n                                               products[customerProds[i]].price;\r\n            emit CartProductRemoved(msg.sender, customerProds[i]);\r\n          }\r\n        }\r\n        customers[msg.sender].cart.products = new_product_list;\r\n    }\r\n*/\r\n    /*function emptyCart() public returns (bool success) {\r\n        Customer storage customer = customers[msg.sender];\r\n        customer.cart = Cart(new uint256[](0), 0);\r\n        emit CartEmptied(customer.adr);\r\n        return true;\r\n    }\r\n*/\r\n    function registerCustomer(address _address, string memory _name)\r\n                                        public returns (bool success) {\r\n        Customer memory customer = Customer(_address, _name,new uint256[](0),new uint256[](0),Cart(new uint256[](0),0));\r\n        customerCount++;\r\n        addressLUT[customerCount]=customer.adr;\r\n        customers[_address] = customer;\r\n        emit CustomerRegistered(_address);\r\n        return true;\r\n    }\r\n    function getCustomer(address _adr) view public returns(Customer memory){\r\n        return customers[_adr];\r\n    }\r\n    function getNumberOfOwners(uint _id) public view returns(uint){\r\n        return products[_id].buyers.length;\r\n    }\r\n\r\n\r\n}",
  "sourcePath": "C:\\Users\\carol\\Desktop\\marketplace\\src\\contracts\\Marketplace.sol",
  "compiler": {
    "name": "solc",
    "version": "0.8.7+commit.e28d00a7.Emscripten.clang"
  },
  "schemaVersion": "3.4.2",
  "updatedAt": "2021-08-26T15:48:15.343Z",
  "networkType": "ethereum",
  "devdoc": {
    "kind": "dev",
    "methods": {},
    "version": 1
  },
  "userdoc": {
    "kind": "user",
    "methods": {},
    "version": 1
  }
}