{
  "contractName": "Marketplace",
  "abi": [
    {
      "anonymous": false,
      "inputs": [
        {
          "indexed": false,
          "internalType": "address",
          "name": "customer",
          "type": "address"
        }
      ],
      "name": "CartEmptied",
      "type": "event"
    },
    {
      "anonymous": false,
      "inputs": [
        {
          "indexed": false,
          "internalType": "address",
          "name": "customer",
          "type": "address"
        },
        {
          "indexed": false,
          "internalType": "uint256",
          "name": "prodId",
          "type": "uint256"
        },
        {
          "indexed": false,
          "internalType": "uint256",
          "name": "prodPrice",
          "type": "uint256"
        },
        {
          "indexed": false,
          "internalType": "uint256",
          "name": "completeSum",
          "type": "uint256"
        }
      ],
      "name": "CartProductInserted",
      "type": "event"
    },
    {
      "anonymous": false,
      "inputs": [
        {
          "indexed": false,
          "internalType": "address",
          "name": "customer",
          "type": "address"
        },
        {
          "indexed": false,
          "internalType": "uint256",
          "name": "prodId",
          "type": "uint256"
        }
      ],
      "name": "CartProductInsertionFailed",
      "type": "event"
    },
    {
      "anonymous": false,
      "inputs": [
        {
          "indexed": false,
          "internalType": "address",
          "name": "customer",
          "type": "address"
        },
        {
          "indexed": false,
          "internalType": "uint256",
          "name": "prodId",
          "type": "uint256"
        }
      ],
      "name": "CartProductRemoved",
      "type": "event"
    },
    {
      "anonymous": false,
      "inputs": [
        {
          "indexed": false,
          "internalType": "address",
          "name": "customer",
          "type": "address"
        }
      ],
      "name": "CustomerRegistered",
      "type": "event"
    },
    {
      "anonymous": false,
      "inputs": [
        {
          "indexed": false,
          "internalType": "address",
          "name": "customer",
          "type": "address"
        }
      ],
      "name": "CustomerRegistrationFailed",
      "type": "event"
    },
    {
      "anonymous": false,
      "inputs": [
        {
          "indexed": false,
          "internalType": "uint256",
          "name": "id",
          "type": "uint256"
        },
        {
          "indexed": false,
          "internalType": "string",
          "name": "name",
          "type": "string"
        },
        {
          "indexed": false,
          "internalType": "string",
          "name": "description",
          "type": "string"
        },
        {
          "indexed": false,
          "internalType": "uint256",
          "name": "price",
          "type": "uint256"
        },
        {
          "indexed": false,
          "internalType": "string",
          "name": "imgipfshash",
          "type": "string"
        },
        {
          "indexed": false,
          "internalType": "string",
          "name": "fileipfshash",
          "type": "string"
        },
        {
          "indexed": false,
          "internalType": "address",
          "name": "owner",
          "type": "address"
        },
        {
          "indexed": false,
          "internalType": "bool",
          "name": "purchased",
          "type": "bool"
        }
      ],
      "name": "ProductCreated",
      "type": "event"
    },
    {
      "anonymous": false,
      "inputs": [
        {
          "indexed": false,
          "internalType": "uint256",
          "name": "id",
          "type": "uint256"
        },
        {
          "indexed": false,
          "internalType": "string",
          "name": "name",
          "type": "string"
        },
        {
          "indexed": false,
          "internalType": "string",
          "name": "description",
          "type": "string"
        },
        {
          "indexed": false,
          "internalType": "uint256",
          "name": "price",
          "type": "uint256"
        },
        {
          "indexed": false,
          "internalType": "string",
          "name": "imgipfshash",
          "type": "string"
        },
        {
          "indexed": false,
          "internalType": "string",
          "name": "fileipfshash",
          "type": "string"
        },
        {
          "indexed": false,
          "internalType": "address",
          "name": "owner",
          "type": "address"
        },
        {
          "indexed": false,
          "internalType": "bool",
          "name": "purchased",
          "type": "bool"
        }
      ],
      "name": "ProductPurchased",
      "type": "event"
    },
    {
      "inputs": [
        {
          "internalType": "uint256",
          "name": "",
          "type": "uint256"
        }
      ],
      "name": "addressLUT",
      "outputs": [
        {
          "internalType": "address",
          "name": "",
          "type": "address"
        }
      ],
      "stateMutability": "view",
      "type": "function",
      "constant": true
    },
    {
      "inputs": [
        {
          "internalType": "enum Marketplace.Categories",
          "name": "",
          "type": "uint8"
        },
        {
          "internalType": "uint256",
          "name": "",
          "type": "uint256"
        }
      ],
      "name": "categorieToProduct",
      "outputs": [
        {
          "internalType": "uint256",
          "name": "",
          "type": "uint256"
        }
      ],
      "stateMutability": "view",
      "type": "function",
      "constant": true
    },
    {
      "inputs": [],
      "name": "customerCount",
      "outputs": [
        {
          "internalType": "uint256",
          "name": "",
          "type": "uint256"
        }
      ],
      "stateMutability": "view",
      "type": "function",
      "constant": true
    },
    {
      "inputs": [
        {
          "internalType": "address",
          "name": "",
          "type": "address"
        }
      ],
      "name": "customers",
      "outputs": [
        {
          "internalType": "address",
          "name": "adr",
          "type": "address"
        },
        {
          "internalType": "string",
          "name": "name",
          "type": "string"
        },
        {
          "components": [
            {
              "internalType": "uint256[]",
              "name": "products",
              "type": "uint256[]"
            },
            {
              "internalType": "uint256",
              "name": "completeSum",
              "type": "uint256"
            }
          ],
          "internalType": "struct Marketplace.Cart",
          "name": "cart",
          "type": "tuple"
        }
      ],
      "stateMutability": "view",
      "type": "function",
      "constant": true
    },
    {
      "inputs": [
        {
          "internalType": "uint256",
          "name": "",
          "type": "uint256"
        }
      ],
      "name": "emptySpaces",
      "outputs": [
        {
          "internalType": "uint256",
          "name": "",
          "type": "uint256"
        }
      ],
      "stateMutability": "view",
      "type": "function",
      "constant": true
    },
    {
      "inputs": [],
      "name": "flag",
      "outputs": [
        {
          "internalType": "bool",
          "name": "",
          "type": "bool"
        }
      ],
      "stateMutability": "view",
      "type": "function",
      "constant": true
    },
    {
      "inputs": [],
      "name": "ftt",
      "outputs": [
        {
          "internalType": "uint256",
          "name": "",
          "type": "uint256"
        }
      ],
      "stateMutability": "view",
      "type": "function",
      "constant": true
    },
    {
      "inputs": [],
      "name": "len",
      "outputs": [
        {
          "internalType": "uint256",
          "name": "",
          "type": "uint256"
        }
      ],
      "stateMutability": "view",
      "type": "function",
      "constant": true
    },
    {
      "inputs": [
        {
          "internalType": "address",
          "name": "",
          "type": "address"
        },
        {
          "internalType": "uint256",
          "name": "",
          "type": "uint256"
        }
      ],
      "name": "ownerToProducts",
      "outputs": [
        {
          "internalType": "uint256",
          "name": "id",
          "type": "uint256"
        },
        {
          "internalType": "string",
          "name": "name",
          "type": "string"
        },
        {
          "internalType": "string",
          "name": "description",
          "type": "string"
        },
        {
          "internalType": "uint256",
          "name": "price",
          "type": "uint256"
        },
        {
          "internalType": "string",
          "name": "imgipfshash",
          "type": "string"
        },
        {
          "internalType": "string",
          "name": "fileipfshash",
          "type": "string"
        },
        {
          "internalType": "address",
          "name": "owner",
          "type": "address"
        },
        {
          "internalType": "enum Marketplace.Categories",
          "name": "categorie",
          "type": "uint8"
        },
        {
          "internalType": "uint256",
          "name": "uploadedOn",
          "type": "uint256"
        }
      ],
      "stateMutability": "view",
      "type": "function",
      "constant": true
    },
    {
      "inputs": [
        {
          "internalType": "uint256",
          "name": "",
          "type": "uint256"
        },
        {
          "internalType": "uint256",
          "name": "",
          "type": "uint256"
        }
      ],
      "name": "owners",
      "outputs": [
        {
          "internalType": "address",
          "name": "",
          "type": "address"
        }
      ],
      "stateMutability": "view",
      "type": "function",
      "constant": true
    },
    {
      "inputs": [],
      "name": "productCount",
      "outputs": [
        {
          "internalType": "uint256",
          "name": "",
          "type": "uint256"
        }
      ],
      "stateMutability": "view",
      "type": "function",
      "constant": true
    },
    {
      "inputs": [
        {
          "internalType": "uint256",
          "name": "",
          "type": "uint256"
        }
      ],
      "name": "products",
      "outputs": [
        {
          "internalType": "uint256",
          "name": "id",
          "type": "uint256"
        },
        {
          "internalType": "string",
          "name": "name",
          "type": "string"
        },
        {
          "internalType": "string",
          "name": "description",
          "type": "string"
        },
        {
          "internalType": "uint256",
          "name": "price",
          "type": "uint256"
        },
        {
          "internalType": "string",
          "name": "imgipfshash",
          "type": "string"
        },
        {
          "internalType": "string",
          "name": "fileipfshash",
          "type": "string"
        },
        {
          "internalType": "address",
          "name": "owner",
          "type": "address"
        },
        {
          "internalType": "enum Marketplace.Categories",
          "name": "categorie",
          "type": "uint8"
        },
        {
          "internalType": "uint256",
          "name": "uploadedOn",
          "type": "uint256"
        }
      ],
      "stateMutability": "view",
      "type": "function",
      "constant": true
    },
    {
      "inputs": [
        {
          "internalType": "uint256",
          "name": "",
          "type": "uint256"
        },
        {
          "internalType": "uint256",
          "name": "",
          "type": "uint256"
        }
      ],
      "name": "productsRates",
      "outputs": [
        {
          "internalType": "uint256",
          "name": "",
          "type": "uint256"
        }
      ],
      "stateMutability": "view",
      "type": "function",
      "constant": true
    },
    {
      "inputs": [
        {
          "internalType": "uint256",
          "name": "",
          "type": "uint256"
        },
        {
          "internalType": "uint256",
          "name": "",
          "type": "uint256"
        }
      ],
      "name": "productsReviews",
      "outputs": [
        {
          "internalType": "string",
          "name": "",
          "type": "string"
        }
      ],
      "stateMutability": "view",
      "type": "function",
      "constant": true
    },
    {
      "inputs": [
        {
          "internalType": "uint256",
          "name": "",
          "type": "uint256"
        },
        {
          "internalType": "uint256",
          "name": "",
          "type": "uint256"
        }
      ],
      "name": "purchasedProducts",
      "outputs": [
        {
          "internalType": "uint256",
          "name": "id",
          "type": "uint256"
        },
        {
          "internalType": "string",
          "name": "name",
          "type": "string"
        },
        {
          "internalType": "string",
          "name": "description",
          "type": "string"
        },
        {
          "internalType": "uint256",
          "name": "price",
          "type": "uint256"
        },
        {
          "internalType": "string",
          "name": "imgipfshash",
          "type": "string"
        },
        {
          "internalType": "string",
          "name": "fileipfshash",
          "type": "string"
        },
        {
          "internalType": "address",
          "name": "owner",
          "type": "address"
        },
        {
          "internalType": "enum Marketplace.Categories",
          "name": "categorie",
          "type": "uint8"
        },
        {
          "internalType": "uint256",
          "name": "uploadedOn",
          "type": "uint256"
        }
      ],
      "stateMutability": "view",
      "type": "function",
      "constant": true
    },
    {
      "inputs": [
        {
          "internalType": "string",
          "name": "_name",
          "type": "string"
        },
        {
          "internalType": "string",
          "name": "_description",
          "type": "string"
        },
        {
          "internalType": "uint256",
          "name": "_price",
          "type": "uint256"
        },
        {
          "internalType": "string",
          "name": "_imgipfshash",
          "type": "string"
        },
        {
          "internalType": "string",
          "name": "_fileipfshash",
          "type": "string"
        },
        {
          "internalType": "enum Marketplace.Categories",
          "name": "_categorie",
          "type": "uint8"
        }
      ],
      "name": "createProduct",
      "outputs": [],
      "stateMutability": "nonpayable",
      "type": "function"
    },
    {
      "inputs": [
        {
          "internalType": "uint256",
          "name": "id1",
          "type": "uint256"
        }
      ],
      "name": "removeProduct",
      "outputs": [],
      "stateMutability": "nonpayable",
      "type": "function"
    },
    {
      "inputs": [
        {
          "internalType": "uint256",
          "name": "id1",
          "type": "uint256"
        }
      ],
      "name": "removeNestedProduct",
      "outputs": [],
      "stateMutability": "nonpayable",
      "type": "function"
    },
    {
      "inputs": [
        {
          "internalType": "uint256",
          "name": "_id",
          "type": "uint256"
        }
      ],
      "name": "purchaseProduct",
      "outputs": [],
      "stateMutability": "payable",
      "type": "function",
      "payable": true
    },
    {
      "inputs": [
        {
          "internalType": "uint256",
          "name": "_id",
          "type": "uint256"
        },
        {
          "internalType": "string",
          "name": "_name",
          "type": "string"
        },
        {
          "internalType": "string",
          "name": "_des",
          "type": "string"
        },
        {
          "internalType": "uint256",
          "name": "_price",
          "type": "uint256"
        },
        {
          "internalType": "enum Marketplace.Categories",
          "name": "_categorie",
          "type": "uint8"
        }
      ],
      "name": "editProduct",
      "outputs": [],
      "stateMutability": "nonpayable",
      "type": "function"
    },
    {
      "inputs": [
        {
          "internalType": "uint256",
          "name": "_rate",
          "type": "uint256"
        },
        {
          "internalType": "uint256",
          "name": "pos_in_prod_mapping",
          "type": "uint256"
        }
      ],
      "name": "giveRate",
      "outputs": [],
      "stateMutability": "nonpayable",
      "type": "function"
    },
    {
      "inputs": [
        {
          "internalType": "string",
          "name": "_review",
          "type": "string"
        },
        {
          "internalType": "uint256",
          "name": "pos_in_prod_mapping",
          "type": "uint256"
        }
      ],
      "name": "writeReview",
      "outputs": [],
      "stateMutability": "nonpayable",
      "type": "function"
    },
    {
      "inputs": [
        {
          "internalType": "uint256",
          "name": "id",
          "type": "uint256"
        }
      ],
      "name": "insertProductIntoCart",
      "outputs": [
        {
          "internalType": "bool",
          "name": "success",
          "type": "bool"
        },
        {
          "internalType": "uint256",
          "name": "pos_in_prod_mapping",
          "type": "uint256"
        }
      ],
      "stateMutability": "nonpayable",
      "type": "function"
    },
    {
      "inputs": [
        {
          "internalType": "uint256",
          "name": "prod_pos_in_mapping",
          "type": "uint256"
        }
      ],
      "name": "removeProductFromCart",
      "outputs": [],
      "stateMutability": "nonpayable",
      "type": "function"
    },
    {
      "inputs": [],
      "name": "emptyCart",
      "outputs": [
        {
          "internalType": "bool",
          "name": "success",
          "type": "bool"
        }
      ],
      "stateMutability": "nonpayable",
      "type": "function"
    },
    {
      "inputs": [
        {
          "internalType": "address",
          "name": "_address",
          "type": "address"
        },
        {
          "internalType": "string",
          "name": "_name",
          "type": "string"
        }
      ],
      "name": "registerCustomer",
      "outputs": [
        {
          "internalType": "bool",
          "name": "success",
          "type": "bool"
        }
      ],
      "stateMutability": "nonpayable",
      "type": "function"
    },
    {
      "inputs": [
        {
          "internalType": "address",
          "name": "_adr",
          "type": "address"
        }
      ],
      "name": "getCustomer",
      "outputs": [
        {
          "components": [
            {
              "internalType": "address",
              "name": "adr",
              "type": "address"
            },
            {
              "internalType": "string",
              "name": "name",
              "type": "string"
            },
            {
              "components": [
                {
                  "internalType": "uint256[]",
                  "name": "products",
                  "type": "uint256[]"
                },
                {
                  "internalType": "uint256",
                  "name": "completeSum",
                  "type": "uint256"
                }
              ],
              "internalType": "struct Marketplace.Cart",
              "name": "cart",
              "type": "tuple"
            }
          ],
          "internalType": "struct Marketplace.Customer",
          "name": "",
          "type": "tuple"
        }
      ],
      "stateMutability": "view",
      "type": "function",
      "constant": true
    },
    {
      "inputs": [
        {
          "internalType": "address",
          "name": "_owner",
          "type": "address"
        }
      ],
      "name": "getProductCount",
      "outputs": [
        {
          "internalType": "uint256",
          "name": "",
          "type": "uint256"
        }
      ],
      "stateMutability": "view",
      "type": "function",
      "constant": true
    },
    {
      "inputs": [
        {
          "internalType": "uint256",
          "name": "_id",
          "type": "uint256"
        }
      ],
      "name": "getNumberOfOwners",
      "outputs": [
        {
          "internalType": "uint256",
          "name": "",
          "type": "uint256"
        }
      ],
      "stateMutability": "view",
      "type": "function",
      "constant": true
    },
    {
      "inputs": [
        {
          "internalType": "address",
          "name": "_owner",
          "type": "address"
        },
        {
          "internalType": "uint8",
          "name": "_index",
          "type": "uint8"
        }
      ],
      "name": "getProduct",
      "outputs": [
        {
          "internalType": "uint256",
          "name": "_id",
          "type": "uint256"
        },
        {
          "internalType": "string",
          "name": "_name",
          "type": "string"
        },
        {
          "internalType": "string",
          "name": "_description",
          "type": "string"
        },
        {
          "internalType": "uint256",
          "name": "_price",
          "type": "uint256"
        },
        {
          "internalType": "string",
          "name": "imgipfshash",
          "type": "string"
        },
        {
          "internalType": "string",
          "name": "fileipfshash",
          "type": "string"
        }
      ],
      "stateMutability": "view",
      "type": "function",
      "constant": true
    }
  ],
  "bytecode": "0x60806040526000805560006001556000600260006101000a81548160ff0219169083151502179055506000600e5534801561003957600080fd5b50614ecc806100496000396000f3fe6080604052600436106101cd5760003560e01c80637e6b867f116100f7578063aca4901811610095578063d5b24d8111610064578063d5b24d811461072c578063db1970f414610755578063e0f6ef8714610792578063e8b4194e146107bd576101cd565b8063aca4901814610642578063c38855171461067f578063cb949e51146106c4578063ce9f791d14610701576101cd565b80639757e8a3116100d15780639757e8a3146105725780639abdb0b01461059d578063a0c8c156146105da578063a6ec735814610605576101cd565b80637e6b867f146104e0578063846c8dea1461051e578063890eba6814610547576101cd565b806350208eee1161016f57806377e1d95d1161013e57806377e1d95d146103f857806377faa57c146104355780637acc0b20146104725780637b61b702146104b7576101cd565b806350208eee1461033e57806356d88e271461037b5780635ee95cae146103a65780636ebdac12146103cf576101cd565b8063336989ae116101ab578063336989ae1461027d57806333764f53146102bc57806338e76a03146102f95780634cfc3f3114610315576101cd565b80630b784d2d146101d257806330a7bfe7146101fb57806330ff594814610238575b600080fd5b3480156101de57600080fd5b506101f960048036038101906101f491906142b2565b6107ff565b005b34801561020757600080fd5b50610222600480360381019061021d9190614272565b610c35565b60405161022f9190614894565b60405180910390f35b34801561024457600080fd5b5061025f600480360381019061025a91906141f2565b610c66565b604051610274999897969594939291906149c6565b60405180910390f35b34801561028957600080fd5b506102a4600480360381019061029f9190614169565b610f1e565b6040516102b393929190614759565b60405180910390f35b3480156102c857600080fd5b506102e360048036038101906102de91906144eb565b61105c565b6040516102f0919061473e565b60405180910390f35b610313600480360381019061030e919061440b565b6110aa565b005b34801561032157600080fd5b5061033c600480360381019061033791906144eb565b61178b565b005b34801561034a57600080fd5b5061036560048036038101906103609190614169565b6117c9565b6040516103729190614894565b60405180910390f35b34801561038757600080fd5b5061039061184e565b60405161039d9190614894565b60405180910390f35b3480156103b257600080fd5b506103cd60048036038101906103c8919061440b565b611854565b005b3480156103db57600080fd5b506103f660048036038101906103f1919061440b565b6119d2565b005b34801561040457600080fd5b5061041f600480360381019061041a919061440b565b611cb0565b60405161042c9190614894565b60405180910390f35b34801561044157600080fd5b5061045c6004803603810190610457919061440b565b611cd0565b6040516104699190614894565b60405180910390f35b34801561047e57600080fd5b506104996004803603810190610494919061440b565b611cf4565b6040516104ae999897969594939291906149c6565b60405180910390f35b3480156104c357600080fd5b506104de60048036038101906104d99190614438565b611f8f565b005b3480156104ec57600080fd5b506105076004803603810190610502919061440b565b6129a9565b604051610515929190614827565b60405180910390f35b34801561052a57600080fd5b506105456004803603810190610540919061440b565b612e3a565b005b34801561055357600080fd5b5061055c612f32565b604051610569919061480c565b60405180910390f35b34801561057e57600080fd5b50610587612f45565b6040516105949190614894565b60405180910390f35b3480156105a957600080fd5b506105c460048036038101906105bf91906144eb565b612f4b565b6040516105d19190614894565b60405180910390f35b3480156105e657600080fd5b506105ef612f7c565b6040516105fc919061480c565b60405180910390f35b34801561061157600080fd5b5061062c600480360381019061062791906144eb565b6130b0565b6040516106399190614850565b60405180910390f35b34801561064e57600080fd5b506106696004803603810190610664919061440b565b613169565b604051610676919061473e565b60405180910390f35b34801561068b57600080fd5b506106a660048036038101906106a191906144eb565b61319c565b6040516106bb999897969594939291906149c6565b60405180910390f35b3480156106d057600080fd5b506106eb60048036038101906106e69190614169565b613454565b6040516106f89190614872565b60405180910390f35b34801561070d57600080fd5b5061071661360b565b6040516107239190614894565b60405180910390f35b34801561073857600080fd5b50610753600480360381019061074e91906143af565b613611565b005b34801561076157600080fd5b5061077c60048036038101906107779190614196565b613662565b604051610789919061480c565b60405180910390f35b34801561079e57600080fd5b506107a7613b37565b6040516107b49190614894565b60405180910390f35b3480156107c957600080fd5b506107e460048036038101906107df9190614232565b613b3d565b6040516107f6969594939291906148af565b60405180910390f35b600042905060008081548092919061081690614cd4565b919050555060405180610120016040528060005481526020018881526020018781526020018681526020018581526020018481526020013373ffffffffffffffffffffffffffffffffffffffff16815260200183600a81111561087c5761087b614d4c565b5b81526020018281525060036000805481526020019081526020016000206000820151816000015560208201518160010190805190602001906108bf929190613eb8565b5060408201518160020190805190602001906108dc929190613eb8565b50606082015181600301556080820151816004019080519060200190610903929190613eb8565b5060a0820151816005019080519060200190610920929190613eb8565b5060c08201518160060160006101000a81548173ffffffffffffffffffffffffffffffffffffffff021916908373ffffffffffffffffffffffffffffffffffffffff16021790555060e08201518160060160146101000a81548160ff0219169083600a81111561099357610992614d4c565b5b021790555061010082015181600701559050506006600083600a8111156109bd576109bc614d4c565b5b600a8111156109cf576109ce614d4c565b5b81526020019081526020016000206000549080600181540180825580915050600190039060005260206000200160009091909190915055600960003373ffffffffffffffffffffffffffffffffffffffff1673ffffffffffffffffffffffffffffffffffffffff16815260200190815260200160002060405180610120016040528060005481526020018981526020018881526020018781526020018681526020018581526020013373ffffffffffffffffffffffffffffffffffffffff16815260200184600a811115610aa657610aa5614d4c565b5b8152602001838152509080600181540180825580915050600190039060005260206000209060080201600090919091909150600082015181600001556020820151816001019080519060200190610afe929190613eb8565b506040820151816002019080519060200190610b1b929190613eb8565b50606082015181600301556080820151816004019080519060200190610b42929190613eb8565b5060a0820151816005019080519060200190610b5f929190613eb8565b5060c08201518160060160006101000a81548173ffffffffffffffffffffffffffffffffffffffff021916908373ffffffffffffffffffffffffffffffffffffffff16021790555060e08201518160060160146101000a81548160ff0219169083600a811115610bd257610bd1614d4c565b5b0217905550610100820151816007015550507fbb45e05496e643a69bb522fd78ec743fcc4cecc08d892a6685a76f79e29e1eb46000548888888888336000604051610c2498979695949392919061492c565b60405180910390a150505050505050565b60066020528160005260406000208181548110610c5157600080fd5b90600052602060002001600091509150505481565b60096020528160005260406000208181548110610c8257600080fd5b906000526020600020906008020160009150915050806000015490806001018054610cac90614c71565b80601f0160208091040260200160405190810160405280929190818152602001828054610cd890614c71565b8015610d255780601f10610cfa57610100808354040283529160200191610d25565b820191906000526020600020905b815481529060010190602001808311610d0857829003601f168201915b505050505090806002018054610d3a90614c71565b80601f0160208091040260200160405190810160405280929190818152602001828054610d6690614c71565b8015610db35780601f10610d8857610100808354040283529160200191610db3565b820191906000526020600020905b815481529060010190602001808311610d9657829003601f168201915b505050505090806003015490806004018054610dce90614c71565b80601f0160208091040260200160405190810160405280929190818152602001828054610dfa90614c71565b8015610e475780601f10610e1c57610100808354040283529160200191610e47565b820191906000526020600020905b815481529060010190602001808311610e2a57829003601f168201915b505050505090806005018054610e5c90614c71565b80601f0160208091040260200160405190810160405280929190818152602001828054610e8890614c71565b8015610ed55780601f10610eaa57610100808354040283529160200191610ed5565b820191906000526020600020905b815481529060010190602001808311610eb857829003601f168201915b5050505050908060060160009054906101000a900473ffffffffffffffffffffffffffffffffffffffff16908060060160149054906101000a900460ff16908060070154905089565b60076020528060005260406000206000915090508060000160009054906101000a900473ffffffffffffffffffffffffffffffffffffffff1690806001018054610f6790614c71565b80601f0160208091040260200160405190810160405280929190818152602001828054610f9390614c71565b8015610fe05780601f10610fb557610100808354040283529160200191610fe0565b820191906000526020600020905b815481529060010190602001808311610fc357829003601f168201915b505050505090806002016040518060400160405290816000820180548060200260200160405190810160405280929190818152602001828054801561104457602002820191906000526020600020905b815481526020019060010190808311611030575b50505050508152602001600182015481525050905083565b600a602052816000526040600020818154811061107857600080fd5b906000526020600020016000915091509054906101000a900473ffffffffffffffffffffffffffffffffffffffff1681565b60006003600083815260200190815260200160002060405180610120016040529081600082015481526020016001820180546110e590614c71565b80601f016020809104026020016040519081016040528092919081815260200182805461111190614c71565b801561115e5780601f106111335761010080835404028352916020019161115e565b820191906000526020600020905b81548152906001019060200180831161114157829003601f168201915b5050505050815260200160028201805461117790614c71565b80601f01602080910402602001604051908101604052809291908181526020018280546111a390614c71565b80156111f05780601f106111c5576101008083540402835291602001916111f0565b820191906000526020600020905b8154815290600101906020018083116111d357829003601f168201915b505050505081526020016003820154815260200160048201805461121390614c71565b80601f016020809104026020016040519081016040528092919081815260200182805461123f90614c71565b801561128c5780601f106112615761010080835404028352916020019161128c565b820191906000526020600020905b81548152906001019060200180831161126f57829003601f168201915b505050505081526020016005820180546112a590614c71565b80601f01602080910402602001604051908101604052809291908181526020018280546112d190614c71565b801561131e5780601f106112f35761010080835404028352916020019161131e565b820191906000526020600020905b81548152906001019060200180831161130157829003601f168201915b505050505081526020016006820160009054906101000a900473ffffffffffffffffffffffffffffffffffffffff1673ffffffffffffffffffffffffffffffffffffffff1673ffffffffffffffffffffffffffffffffffffffff1681526020016006820160149054906101000a900460ff16600a8111156113a2576113a1614d4c565b5b600a8111156113b4576113b3614d4c565b5b8152602001600782015481525050905060008160c001519050338260c0019073ffffffffffffffffffffffffffffffffffffffff16908173ffffffffffffffffffffffffffffffffffffffff1681525050600b6000848152602001908152602001600020829080600181540180825580915050600190039060005260206000209060080201600090919091909150600082015181600001556020820151816001019080519060200190611468929190613eb8565b506040820151816002019080519060200190611485929190613eb8565b506060820151816003015560808201518160040190805190602001906114ac929190613eb8565b5060a08201518160050190805190602001906114c9929190613eb8565b5060c08201518160060160006101000a81548173ffffffffffffffffffffffffffffffffffffffff021916908373ffffffffffffffffffffffffffffffffffffffff16021790555060e08201518160060160146101000a81548160ff0219169083600a81111561153c5761153b614d4c565b5b021790555061010082015181600701555050600a6000848152602001908152602001600020339080600181540180825580915050600190039060005260206000200160009091909190916101000a81548173ffffffffffffffffffffffffffffffffffffffff021916908373ffffffffffffffffffffffffffffffffffffffff16021790555081600360008581526020019081526020016000206000820151816000015560208201518160010190805190602001906115fc929190613eb8565b506040820151816002019080519060200190611619929190613eb8565b50606082015181600301556080820151816004019080519060200190611640929190613eb8565b5060a082015181600501908051906020019061165d929190613eb8565b5060c08201518160060160006101000a81548173ffffffffffffffffffffffffffffffffffffffff021916908373ffffffffffffffffffffffffffffffffffffffff16021790555060e08201518160060160146101000a81548160ff0219169083600a8111156116d0576116cf614d4c565b5b021790555061010082015181600701559050508073ffffffffffffffffffffffffffffffffffffffff166108fc349081150290604051600060405180830381858888f19350505050158015611729573d6000803e3d6000fd5b507f5d3e174cea83fc7a15e7c910d86c8dceb0129bfdabceb14a6e43e0d4ccbfdb4a60005483602001518460400151856060015186608001518760a0015133600160405161177e98979695949392919061492c565b60405180910390a1505050565b600460008281526020019081526020016000208290806001815401808255809150506001900390600052602060002001600090919091909150555050565b60008073ffffffffffffffffffffffffffffffffffffffff168273ffffffffffffffffffffffffffffffffffffffff16141561180457600080fd5b600960008373ffffffffffffffffffffffffffffffffffffffff1673ffffffffffffffffffffffffffffffffffffffff168152602001908152602001600020805490509050919050565b600d5481565b6003600082815260200190815260200160002060060160009054906101000a900473ffffffffffffffffffffffffffffffffffffffff1673ffffffffffffffffffffffffffffffffffffffff163373ffffffffffffffffffffffffffffffffffffffff1614156119cf57600360008281526020019081526020016000206000808201600090556001820160006118ea9190613f3e565b6002820160006118fa9190613f3e565b60038201600090556004820160006119129190613f3e565b6005820160006119229190613f3e565b6006820160006101000a81549073ffffffffffffffffffffffffffffffffffffffff02191690556006820160146101000a81549060ff0219169055600782016000905550506004600082815260200190815260200160002060006119869190613f7e565b6005600082815260200190815260200160002060006119a59190613f9f565b600c8190806001815401808255809150506001900390600052602060002001600090919091909150555b50565b60006001600760003373ffffffffffffffffffffffffffffffffffffffff1673ffffffffffffffffffffffffffffffffffffffff16815260200190815260200160002060020160000180549050611a299190614b81565b67ffffffffffffffff811115611a4257611a41614dd9565b5b604051908082528060200260200182016040528015611a705781602001602082028036833780820191505090505b5090506000600760003373ffffffffffffffffffffffffffffffffffffffff1673ffffffffffffffffffffffffffffffffffffffff168152602001908152602001600020600201600001805480602002602001604051908101604052809291908181526020018280548015611b0457602002820191906000526020600020905b815481526020019060010190808311611af0575b5050505050905060005b8151811015611c5057838114611b5d57818181518110611b3157611b30614daa565b5b6020026020010151838281518110611b4c57611b4b614daa565b5b602002602001018181525050611c3d565b60036000838381518110611b7457611b73614daa565b5b6020026020010151815260200190815260200160002060030154600760003373ffffffffffffffffffffffffffffffffffffffff1673ffffffffffffffffffffffffffffffffffffffff1681526020019081526020016000206002016001016000828254611be29190614b81565b925050819055507fa623e239783d1923197e89ebc14226d544e0c6a48928ebfd977de627b61766bf33838381518110611c1e57611c1d614daa565b5b6020026020010151604051611c3492919061479e565b60405180910390a15b8080611c4890614cd4565b915050611b0e565b5081600760003373ffffffffffffffffffffffffffffffffffffffff1673ffffffffffffffffffffffffffffffffffffffff1681526020019081526020016000206002016000019080519060200190611caa929190613fc0565b50505050565b6000600a6000838152602001908152602001600020805490509050919050565b600c8181548110611ce057600080fd5b906000526020600020016000915090505481565b6003602052806000526040600020600091509050806000015490806001018054611d1d90614c71565b80601f0160208091040260200160405190810160405280929190818152602001828054611d4990614c71565b8015611d965780601f10611d6b57610100808354040283529160200191611d96565b820191906000526020600020905b815481529060010190602001808311611d7957829003601f168201915b505050505090806002018054611dab90614c71565b80601f0160208091040260200160405190810160405280929190818152602001828054611dd790614c71565b8015611e245780601f10611df957610100808354040283529160200191611e24565b820191906000526020600020905b815481529060010190602001808311611e0757829003601f168201915b505050505090806003015490806004018054611e3f90614c71565b80601f0160208091040260200160405190810160405280929190818152602001828054611e6b90614c71565b8015611eb85780601f10611e8d57610100808354040283529160200191611eb8565b820191906000526020600020905b815481529060010190602001808311611e9b57829003601f168201915b505050505090806005018054611ecd90614c71565b80601f0160208091040260200160405190810160405280929190818152602001828054611ef990614c71565b8015611f465780601f10611f1b57610100808354040283529160200191611f46565b820191906000526020600020905b815481529060010190602001808311611f2957829003601f168201915b5050505050908060060160009054906101000a900473ffffffffffffffffffffffffffffffffffffffff16908060060160149054906101000a900460ff16908060070154905089565b6003600086815260200190815260200160002060060160009054906101000a900473ffffffffffffffffffffffffffffffffffffffff1673ffffffffffffffffffffffffffffffffffffffff163373ffffffffffffffffffffffffffffffffffffffff1614156129a257600060036000878152602001908152602001600020604051806101200160405290816000820154815260200160018201805461203490614c71565b80601f016020809104026020016040519081016040528092919081815260200182805461206090614c71565b80156120ad5780601f10612082576101008083540402835291602001916120ad565b820191906000526020600020905b81548152906001019060200180831161209057829003601f168201915b505050505081526020016002820180546120c690614c71565b80601f01602080910402602001604051908101604052809291908181526020018280546120f290614c71565b801561213f5780601f106121145761010080835404028352916020019161213f565b820191906000526020600020905b81548152906001019060200180831161212257829003601f168201915b505050505081526020016003820154815260200160048201805461216290614c71565b80601f016020809104026020016040519081016040528092919081815260200182805461218e90614c71565b80156121db5780601f106121b0576101008083540402835291602001916121db565b820191906000526020600020905b8154815290600101906020018083116121be57829003601f168201915b505050505081526020016005820180546121f490614c71565b80601f016020809104026020016040519081016040528092919081815260200182805461222090614c71565b801561226d5780601f106122425761010080835404028352916020019161226d565b820191906000526020600020905b81548152906001019060200180831161225057829003601f168201915b505050505081526020016006820160009054906101000a900473ffffffffffffffffffffffffffffffffffffffff1673ffffffffffffffffffffffffffffffffffffffff1673ffffffffffffffffffffffffffffffffffffffff1681526020016006820160149054906101000a900460ff16600a8111156122f1576122f0614d4c565b5b600a81111561230357612302614d4c565b5b8152602001600782015481525050905084816020018190525083816040018190525082816060018181525050818160e00190600a81111561234757612346614d4c565b5b9081600a81111561235b5761235a614d4c565b5b815250508060036000888152602001908152602001600020600082015181600001556020820151816001019080519060200190612399929190613eb8565b5060408201518160020190805190602001906123b6929190613eb8565b506060820151816003015560808201518160040190805190602001906123dd929190613eb8565b5060a08201518160050190805190602001906123fa929190613eb8565b5060c08201518160060160006101000a81548173ffffffffffffffffffffffffffffffffffffffff021916908373ffffffffffffffffffffffffffffffffffffffff16021790555060e08201518160060160146101000a81548160ff0219169083600a81111561246d5761246c614d4c565b5b021790555061010082015181600701559050506000600960003373ffffffffffffffffffffffffffffffffffffffff1673ffffffffffffffffffffffffffffffffffffffff16815260200190815260200160002087815481106124d3576124d2614daa565b5b9060005260206000209060080201604051806101200160405290816000820154815260200160018201805461250790614c71565b80601f016020809104026020016040519081016040528092919081815260200182805461253390614c71565b80156125805780601f1061255557610100808354040283529160200191612580565b820191906000526020600020905b81548152906001019060200180831161256357829003601f168201915b5050505050815260200160028201805461259990614c71565b80601f01602080910402602001604051908101604052809291908181526020018280546125c590614c71565b80156126125780601f106125e757610100808354040283529160200191612612565b820191906000526020600020905b8154815290600101906020018083116125f557829003601f168201915b505050505081526020016003820154815260200160048201805461263590614c71565b80601f016020809104026020016040519081016040528092919081815260200182805461266190614c71565b80156126ae5780601f10612683576101008083540402835291602001916126ae565b820191906000526020600020905b81548152906001019060200180831161269157829003601f168201915b505050505081526020016005820180546126c790614c71565b80601f01602080910402602001604051908101604052809291908181526020018280546126f390614c71565b80156127405780601f1061271557610100808354040283529160200191612740565b820191906000526020600020905b81548152906001019060200180831161272357829003601f168201915b505050505081526020016006820160009054906101000a900473ffffffffffffffffffffffffffffffffffffffff1673ffffffffffffffffffffffffffffffffffffffff1673ffffffffffffffffffffffffffffffffffffffff1681526020016006820160149054906101000a900460ff16600a8111156127c4576127c3614d4c565b5b600a8111156127d6576127d5614d4c565b5b8152602001600782015481525050905085816020018190525084816040018190525083816060018181525050828160e00190600a81111561281a57612819614d4c565b5b9081600a81111561282e5761282d614d4c565b5b8152505080600960003373ffffffffffffffffffffffffffffffffffffffff1673ffffffffffffffffffffffffffffffffffffffff168152602001908152602001600020888154811061288457612883614daa565b5b90600052602060002090600802016000820151816000015560208201518160010190805190602001906128b8929190613eb8565b5060408201518160020190805190602001906128d5929190613eb8565b506060820151816003015560808201518160040190805190602001906128fc929190613eb8565b5060a0820151816005019080519060200190612919929190613eb8565b5060c08201518160060160006101000a81548173ffffffffffffffffffffffffffffffffffffffff021916908373ffffffffffffffffffffffffffffffffffffffff16021790555060e08201518160060160146101000a81548160ff0219169083600a81111561298c5761298b614d4c565b5b0217905550610100820151816007015590505050505b5050505050565b6000806000600760003373ffffffffffffffffffffffffffffffffffffffff1673ffffffffffffffffffffffffffffffffffffffff16815260200190815260200160002090506000600360008681526020019081526020016000206040518061012001604052908160008201548152602001600182018054612a2a90614c71565b80601f0160208091040260200160405190810160405280929190818152602001828054612a5690614c71565b8015612aa35780601f10612a7857610100808354040283529160200191612aa3565b820191906000526020600020905b815481529060010190602001808311612a8657829003601f168201915b50505050508152602001600282018054612abc90614c71565b80601f0160208091040260200160405190810160405280929190818152602001828054612ae890614c71565b8015612b355780601f10612b0a57610100808354040283529160200191612b35565b820191906000526020600020905b815481529060010190602001808311612b1857829003601f168201915b5050505050815260200160038201548152602001600482018054612b5890614c71565b80601f0160208091040260200160405190810160405280929190818152602001828054612b8490614c71565b8015612bd15780601f10612ba657610100808354040283529160200191612bd1565b820191906000526020600020905b815481529060010190602001808311612bb457829003601f168201915b50505050508152602001600582018054612bea90614c71565b80601f0160208091040260200160405190810160405280929190818152602001828054612c1690614c71565b8015612c635780601f10612c3857610100808354040283529160200191612c63565b820191906000526020600020905b815481529060010190602001808311612c4657829003601f168201915b505050505081526020016006820160009054906101000a900473ffffffffffffffffffffffffffffffffffffffff1673ffffffffffffffffffffffffffffffffffffffff1673ffffffffffffffffffffffffffffffffffffffff1681526020016006820160149054906101000a900460ff16600a811115612ce757612ce6614d4c565b5b600a811115612cf957612cf8614d4c565b5b815260200160078201548152505090506000826002016000018054905090508260020160000182600001519080600181540180825580915050600190039060005260206000200160009091909190915055600083600201600101549050826060015181612d669190614b2b565b84600201600101819055508184600201600001805490501115612df0577f1e862ddcab5a3222c811c44ecc1c4a46d3da57dde0e884ad6e7e070a8ece2377338885606001518760020160010154604051612dc394939291906147c7565b60405180910390a16001808560020160000180549050612de39190614b81565b9550955050505050612e35565b7f5f187c44b1528b1d93b313a10cf6038ff514e59499f6790e1e2da2f7d1cfdd303388604051612e2192919061479e565b60405180910390a160008095509550505050505b915091565b600960003373ffffffffffffffffffffffffffffffffffffffff1673ffffffffffffffffffffffffffffffffffffffff1681526020019081526020016000208181548110612e8b57612e8a614daa565b5b9060005260206000209060080201600080820160009055600182016000612eb29190613f3e565b600282016000612ec29190613f3e565b6003820160009055600482016000612eda9190613f3e565b600582016000612eea9190613f3e565b6006820160006101000a81549073ffffffffffffffffffffffffffffffffffffffff02191690556006820160146101000a81549060ff02191690556007820160009055505050565b600260009054906101000a900460ff1681565b60015481565b60046020528160005260406000208181548110612f6757600080fd5b90600052602060002001600091509150505481565b600080600760003373ffffffffffffffffffffffffffffffffffffffff1673ffffffffffffffffffffffffffffffffffffffff16815260200190815260200160002090506040518060400160405280600067ffffffffffffffff811115612fe657612fe5614dd9565b5b6040519080825280602002602001820160405280156130145781602001602082028036833780820191505090505b508152602001600081525081600201600082015181600001908051906020019061303f929190613fc0565b50602082015181600101559050507f69dad80af5bbf467deb57c60ff8e39e3aacc707b1aa1c5b240aab4982f946fee8160000160009054906101000a900473ffffffffffffffffffffffffffffffffffffffff166040516130a0919061473e565b60405180910390a1600191505090565b600560205281600052604060002081815481106130cc57600080fd5b906000526020600020016000915091505080546130e890614c71565b80601f016020809104026020016040519081016040528092919081815260200182805461311490614c71565b80156131615780601f1061313657610100808354040283529160200191613161565b820191906000526020600020905b81548152906001019060200180831161314457829003601f168201915b505050505081565b60086020528060005260406000206000915054906101000a900473ffffffffffffffffffffffffffffffffffffffff1681565b600b60205281600052604060002081815481106131b857600080fd5b9060005260206000209060080201600091509150508060000154908060010180546131e290614c71565b80601f016020809104026020016040519081016040528092919081815260200182805461320e90614c71565b801561325b5780601f106132305761010080835404028352916020019161325b565b820191906000526020600020905b81548152906001019060200180831161323e57829003601f168201915b50505050509080600201805461327090614c71565b80601f016020809104026020016040519081016040528092919081815260200182805461329c90614c71565b80156132e95780601f106132be576101008083540402835291602001916132e9565b820191906000526020600020905b8154815290600101906020018083116132cc57829003601f168201915b50505050509080600301549080600401805461330490614c71565b80601f016020809104026020016040519081016040528092919081815260200182805461333090614c71565b801561337d5780601f106133525761010080835404028352916020019161337d565b820191906000526020600020905b81548152906001019060200180831161336057829003601f168201915b50505050509080600501805461339290614c71565b80601f01602080910402602001604051908101604052809291908181526020018280546133be90614c71565b801561340b5780601f106133e05761010080835404028352916020019161340b565b820191906000526020600020905b8154815290600101906020018083116133ee57829003601f168201915b5050505050908060060160009054906101000a900473ffffffffffffffffffffffffffffffffffffffff16908060060160149054906101000a900460ff16908060070154905089565b61345c61400d565b600760008373ffffffffffffffffffffffffffffffffffffffff1673ffffffffffffffffffffffffffffffffffffffff1681526020019081526020016000206040518060600160405290816000820160009054906101000a900473ffffffffffffffffffffffffffffffffffffffff1673ffffffffffffffffffffffffffffffffffffffff1673ffffffffffffffffffffffffffffffffffffffff16815260200160018201805461350c90614c71565b80601f016020809104026020016040519081016040528092919081815260200182805461353890614c71565b80156135855780601f1061355a57610100808354040283529160200191613585565b820191906000526020600020905b81548152906001019060200180831161356857829003601f168201915b5050505050815260200160028201604051806040016040529081600082018054806020026020016040519081016040528092919081815260200182805480156135ed57602002820191906000526020600020905b8154815260200190600101908083116135d9575b50505050508152602001600182015481525050815250509050919050565b600e5481565b600560008281526020019081526020016000208290806001815401808255809150506001900390600052602060002001600090919091909150908051906020019061365d929190613eb8565b505050565b6000600960003373ffffffffffffffffffffffffffffffffffffffff1673ffffffffffffffffffffffffffffffffffffffff168152602001908152602001600020604051806101200160405280600081526020016040518060400160405280600581526020017f64756d6d7900000000000000000000000000000000000000000000000000000081525081526020016040518060400160405280600581526020017f64756d6d790000000000000000000000000000000000000000000000000000008152508152602001600081526020016040518060400160405280600581526020017f64756d6d7900000000000000000000000000000000000000000000000000000081525081526020016040518060400160405280600581526020017f64756d6d790000000000000000000000000000000000000000000000000000008152508152602001600073ffffffffffffffffffffffffffffffffffffffff1681526020016000600a8111156137da576137d9614d4c565b5b815260200160008152509080600181540180825580915050600190039060005260206000209060080201600090919091909150600082015181600001556020820151816001019080519060200190613833929190613eb8565b506040820151816002019080519060200190613850929190613eb8565b50606082015181600301556080820151816004019080519060200190613877929190613eb8565b5060a0820151816005019080519060200190613894929190613eb8565b5060c08201518160060160006101000a81548173ffffffffffffffffffffffffffffffffffffffff021916908373ffffffffffffffffffffffffffffffffffffffff16021790555060e08201518160060160146101000a81548160ff0219169083600a81111561390757613906614d4c565b5b021790555061010082015181600701555050600060405180606001604052808573ffffffffffffffffffffffffffffffffffffffff1681526020018481526020016040518060400160405280600067ffffffffffffffff81111561396e5761396d614dd9565b5b60405190808252806020026020018201604052801561399c5781602001602082028036833780820191505090505b50815260200160008152508152509050600160008154809291906139bf90614cd4565b9190505550806000015160086000600154815260200190815260200160002060006101000a81548173ffffffffffffffffffffffffffffffffffffffff021916908373ffffffffffffffffffffffffffffffffffffffff16021790555080600760008673ffffffffffffffffffffffffffffffffffffffff1673ffffffffffffffffffffffffffffffffffffffff16815260200190815260200160002060008201518160000160006101000a81548173ffffffffffffffffffffffffffffffffffffffff021916908373ffffffffffffffffffffffffffffffffffffffff1602179055506020820151816001019080519060200190613abf929190613eb8565b506040820151816002016000820151816000019080519060200190613ae5929190613fc0565b506020820151816001015550509050507f155e8619f4d23b96769599cb9af87da3e06a360082869c18578011da9a06e67084604051613b24919061473e565b60405180910390a1600191505092915050565b60005481565b60006060806000606080600073ffffffffffffffffffffffffffffffffffffffff168873ffffffffffffffffffffffffffffffffffffffff161415613b8157600080fd5b60008760ff1610158015613b99575060ff8760ff1611155b613ba257600080fd5b6000600960008a73ffffffffffffffffffffffffffffffffffffffff1673ffffffffffffffffffffffffffffffffffffffff1681526020019081526020016000208054905011613bf157600080fd5b6000600960008a73ffffffffffffffffffffffffffffffffffffffff1673ffffffffffffffffffffffffffffffffffffffff1681526020019081526020016000208860ff1681548110613c4757613c46614daa565b5b906000526020600020906008020190508060000154816001018260020183600301548460040185600501848054613c7d90614c71565b80601f0160208091040260200160405190810160405280929190818152602001828054613ca990614c71565b8015613cf65780601f10613ccb57610100808354040283529160200191613cf6565b820191906000526020600020905b815481529060010190602001808311613cd957829003601f168201915b50505050509450838054613d0990614c71565b80601f0160208091040260200160405190810160405280929190818152602001828054613d3590614c71565b8015613d825780601f10613d5757610100808354040283529160200191613d82565b820191906000526020600020905b815481529060010190602001808311613d6557829003601f168201915b50505050509350818054613d9590614c71565b80601f0160208091040260200160405190810160405280929190818152602001828054613dc190614c71565b8015613e0e5780601f10613de357610100808354040283529160200191613e0e565b820191906000526020600020905b815481529060010190602001808311613df157829003601f168201915b50505050509150808054613e2190614c71565b80601f0160208091040260200160405190810160405280929190818152602001828054613e4d90614c71565b8015613e9a5780601f10613e6f57610100808354040283529160200191613e9a565b820191906000526020600020905b815481529060010190602001808311613e7d57829003601f168201915b50505050509050965096509650965096509650509295509295509295565b828054613ec490614c71565b90600052602060002090601f016020900481019282613ee65760008555613f2d565b82601f10613eff57805160ff1916838001178555613f2d565b82800160010185558215613f2d579182015b82811115613f2c578251825591602001919060010190613f11565b5b509050613f3a919061404a565b5090565b508054613f4a90614c71565b6000825580601f10613f5c5750613f7b565b601f016020900490600052602060002090810190613f7a919061404a565b5b50565b5080546000825590600052602060002090810190613f9c919061404a565b50565b5080546000825590600052602060002090810190613fbd9190614067565b50565b828054828255906000526020600020908101928215613ffc579160200282015b82811115613ffb578251825591602001919060010190613fe0565b5b509050614009919061404a565b5090565b6040518060600160405280600073ffffffffffffffffffffffffffffffffffffffff1681526020016060815260200161404461408b565b81525090565b5b8082111561406357600081600090555060010161404b565b5090565b5b80821115614087576000818161407e9190613f3e565b50600101614068565b5090565b604051806040016040528060608152602001600081525090565b60006140b86140b384614a94565b614a6f565b9050828152602081018484840111156140d4576140d3614e0d565b5b6140df848285614c2f565b509392505050565b6000813590506140f681614e41565b92915050565b60008135905061410b81614e58565b92915050565b600082601f83011261412657614125614e08565b5b81356141368482602086016140a5565b91505092915050565b60008135905061414e81614e68565b92915050565b60008135905061416381614e7f565b92915050565b60006020828403121561417f5761417e614e17565b5b600061418d848285016140e7565b91505092915050565b600080604083850312156141ad576141ac614e17565b5b60006141bb858286016140e7565b925050602083013567ffffffffffffffff8111156141dc576141db614e12565b5b6141e885828601614111565b9150509250929050565b6000806040838503121561420957614208614e17565b5b6000614217858286016140e7565b92505060206142288582860161413f565b9150509250929050565b6000806040838503121561424957614248614e17565b5b6000614257858286016140e7565b925050602061426885828601614154565b9150509250929050565b6000806040838503121561428957614288614e17565b5b6000614297858286016140fc565b92505060206142a88582860161413f565b9150509250929050565b60008060008060008060c087890312156142cf576142ce614e17565b5b600087013567ffffffffffffffff8111156142ed576142ec614e12565b5b6142f989828a01614111565b965050602087013567ffffffffffffffff81111561431a57614319614e12565b5b61432689828a01614111565b955050604061433789828a0161413f565b945050606087013567ffffffffffffffff81111561435857614357614e12565b5b61436489828a01614111565b935050608087013567ffffffffffffffff81111561438557614384614e12565b5b61439189828a01614111565b92505060a06143a289828a016140fc565b9150509295509295509295565b600080604083850312156143c6576143c5614e17565b5b600083013567ffffffffffffffff8111156143e4576143e3614e12565b5b6143f085828601614111565b92505060206144018582860161413f565b9150509250929050565b60006020828403121561442157614420614e17565b5b600061442f8482850161413f565b91505092915050565b600080600080600060a0868803121561445457614453614e17565b5b60006144628882890161413f565b955050602086013567ffffffffffffffff81111561448357614482614e12565b5b61448f88828901614111565b945050604086013567ffffffffffffffff8111156144b0576144af614e12565b5b6144bc88828901614111565b93505060606144cd8882890161413f565b92505060806144de888289016140fc565b9150509295509295909350565b6000806040838503121561450257614501614e17565b5b60006145108582860161413f565b92505060206145218582860161413f565b9150509250929050565b60006145378383614720565b60208301905092915050565b61454c81614bb5565b82525050565b61455b81614bb5565b82525050565b600061456c82614ad5565b6145768185614af8565b935061458183614ac5565b8060005b838110156145b2578151614599888261452b565b97506145a483614aeb565b925050600181019050614585565b5085935050505092915050565b6145c881614bc7565b82525050565b6145d781614c1d565b82525050565b60006145e882614ae0565b6145f28185614b09565b9350614602818560208601614c3e565b61460b81614e1c565b840191505092915050565b600061462182614ae0565b61462b8185614b1a565b935061463b818560208601614c3e565b61464481614e1c565b840191505092915050565b6000604083016000830151848203600086015261466c8282614561565b91505060208301516146816020860182614720565b508091505092915050565b600060408301600083015184820360008601526146a98282614561565b91505060208301516146be6020860182614720565b508091505092915050565b60006060830160008301516146e16000860182614543565b50602083015184820360208601526146f982826145dd565b91505060408301518482036040860152614713828261464f565b9150508091505092915050565b61472981614c06565b82525050565b61473881614c06565b82525050565b60006020820190506147536000830184614552565b92915050565b600060608201905061476e6000830186614552565b81810360208301526147808185614616565b90508181036040830152614794818461468c565b9050949350505050565b60006040820190506147b36000830185614552565b6147c0602083018461472f565b9392505050565b60006080820190506147dc6000830187614552565b6147e9602083018661472f565b6147f6604083018561472f565b614803606083018461472f565b95945050505050565b600060208201905061482160008301846145bf565b92915050565b600060408201905061483c60008301856145bf565b614849602083018461472f565b9392505050565b6000602082019050818103600083015261486a8184614616565b905092915050565b6000602082019050818103600083015261488c81846146c9565b905092915050565b60006020820190506148a9600083018461472f565b92915050565b600060c0820190506148c4600083018961472f565b81810360208301526148d68188614616565b905081810360408301526148ea8187614616565b90506148f9606083018661472f565b818103608083015261490b8185614616565b905081810360a083015261491f8184614616565b9050979650505050505050565b600061010082019050614942600083018b61472f565b8181036020830152614954818a614616565b905081810360408301526149688189614616565b9050614977606083018861472f565b81810360808301526149898187614616565b905081810360a083015261499d8186614616565b90506149ac60c0830185614552565b6149b960e08301846145bf565b9998505050505050505050565b6000610120820190506149dc600083018c61472f565b81810360208301526149ee818b614616565b90508181036040830152614a02818a614616565b9050614a11606083018961472f565b8181036080830152614a238188614616565b905081810360a0830152614a378187614616565b9050614a4660c0830186614552565b614a5360e08301856145ce565b614a6161010083018461472f565b9a9950505050505050505050565b6000614a79614a8a565b9050614a858282614ca3565b919050565b6000604051905090565b600067ffffffffffffffff821115614aaf57614aae614dd9565b5b614ab882614e1c565b9050602081019050919050565b6000819050602082019050919050565b600081519050919050565b600081519050919050565b6000602082019050919050565b600082825260208201905092915050565b600082825260208201905092915050565b600082825260208201905092915050565b6000614b3682614c06565b9150614b4183614c06565b9250827fffffffffffffffffffffffffffffffffffffffffffffffffffffffffffffffff03821115614b7657614b75614d1d565b5b828201905092915050565b6000614b8c82614c06565b9150614b9783614c06565b925082821015614baa57614ba9614d1d565b5b828203905092915050565b6000614bc082614be6565b9050919050565b60008115159050919050565b6000819050614be182614e2d565b919050565b600073ffffffffffffffffffffffffffffffffffffffff82169050919050565b6000819050919050565b600060ff82169050919050565b6000614c2882614bd3565b9050919050565b82818337600083830152505050565b60005b83811015614c5c578082015181840152602081019050614c41565b83811115614c6b576000848401525b50505050565b60006002820490506001821680614c8957607f821691505b60208210811415614c9d57614c9c614d7b565b5b50919050565b614cac82614e1c565b810181811067ffffffffffffffff82111715614ccb57614cca614dd9565b5b80604052505050565b6000614cdf82614c06565b91507fffffffffffffffffffffffffffffffffffffffffffffffffffffffffffffffff821415614d1257614d11614d1d565b5b600182019050919050565b7f4e487b7100000000000000000000000000000000000000000000000000000000600052601160045260246000fd5b7f4e487b7100000000000000000000000000000000000000000000000000000000600052602160045260246000fd5b7f4e487b7100000000000000000000000000000000000000000000000000000000600052602260045260246000fd5b7f4e487b7100000000000000000000000000000000000000000000000000000000600052603260045260246000fd5b7f4e487b7100000000000000000000000000000000000000000000000000000000600052604160045260246000fd5b600080fd5b600080fd5b600080fd5b600080fd5b6000601f19601f8301169050919050565b600b8110614e3e57614e3d614d4c565b5b50565b614e4a81614bb5565b8114614e5557600080fd5b50565b600b8110614e6557600080fd5b50565b614e7181614c06565b8114614e7c57600080fd5b50565b614e8881614c10565b8114614e9357600080fd5b5056fea2646970667358221220f109481acfe8c6cacf2874bc97aa521b6230da09e1cf12e1f9007f4e1a36b6e164736f6c63430008070033",
  "immutableReferences": {},
  "source": "// if purchased w bdi 27zfa\r\n// SPDX-License-Identifier: MIT\r\npragma solidity  ^0.8.0;\r\n\r\ncontract Marketplace {\r\n    //string public name;\r\n    uint public productCount = 0;\r\n    uint public customerCount = 0;\r\n    //to store the products on blockchain\r\n    bool public flag = false;\r\n    mapping(uint => Product) public products;\r\n    mapping(uint => uint[]) public productsRates;\r\n    mapping(uint => string[]) public productsReviews;\r\n    mapping(Categories => uint[]) public categorieToProduct;\r\n    //to store the customers on blockchain\r\n    mapping(address  => Customer) public customers;\r\n    mapping(uint => address) public addressLUT;\r\n    // Maps owner to their images\r\n    mapping (address => Product[]) public ownerToProducts;\r\n    //many owners\r\n    mapping (uint => address[]) public owners;\r\n    //all purchased products \r\n    mapping (uint => Product[]) public purchasedProducts;\r\n    uint[] public emptySpaces;\r\n    uint public len; \r\n    uint public ftt = 0;\r\n    enum Categories {\r\n        Tech,\r\n        PCGames,\r\n        PS4Games,\r\n        XboxGames,\r\n        Movies,\r\n        Courses,\r\n        Books,\r\n        AudioBooks,\r\n        Images,\r\n        Videos,\r\n        Other\r\n    }\r\n    struct Customer {\r\n        address adr;\r\n        string name;\r\n        Cart cart;\r\n        \r\n    }\r\n\r\n    struct Cart {\r\n      uint256[] products;\r\n      uint256 completeSum;\r\n    }\r\n\r\n    struct Product {\r\n        uint id;\r\n        string name;\r\n        string description;\r\n        uint price;\r\n        string imgipfshash;\r\n        string fileipfshash;\r\n        address owner;\r\n        Categories categorie;\r\n        uint256 uploadedOn;\r\n    }\r\n\r\n    event ProductCreated(uint id, string name, string description, uint price, string imgipfshash, string fileipfshash, address owner, bool purchased);\r\n    event ProductPurchased(uint id, string name, string description, uint price, string imgipfshash, string fileipfshash, address owner, bool purchased);\r\n    event CustomerRegistered(address customer);\r\n    event CustomerRegistrationFailed(address customer);\r\n    event CartProductInserted(address customer, uint256 prodId, uint256 prodPrice, uint256 completeSum);\r\n    event CartProductInsertionFailed(address customer, uint256 prodId);\r\n    event CartProductRemoved(address customer, uint256 prodId);\r\n    event CartEmptied(address customer);\r\n\r\n    // Create a new product with a struct\r\n    // Add the struct to the mapping, and store it on the blockchain\r\n    // Trigger an event that lets someone know a product was creatd\r\n    function createProduct(string memory _name,string memory _description, uint _price,string memory _imgipfshash,string memory _fileipfshash , Categories _categorie ) public {\r\n        /*// Require a valid name\r\n        require(bytes(_name).length > 0);\r\n        // Require a valid description\r\n        //require(bytes(_description).length > 0);\r\n        // Require a valid price\r\n        require(_price > 0);\r\n        // Require a valid image hash\r\n        //require(bytes(_imgipfshash).length > 0);\r\n        // Require a valid file hash\r\n        //require(bytes(_fileipfshash).length > 0);*/\r\n        // Increment product count\r\n        uint256 _uploadedOn = block.timestamp;\r\n        //if(emptySpaces.length == 0 || emptySpaces[0]==0){\r\n                productCount ++;\r\n                products[productCount] = Product(productCount, _name , _description, _price , _imgipfshash , _fileipfshash ,msg.sender, _categorie , _uploadedOn);\r\n                categorieToProduct[_categorie].push(productCount);\r\n                ownerToProducts[msg.sender].push(Product({\r\n                id: productCount,\r\n                name: _name,\r\n                description: _description,\r\n                price: _price,\r\n                imgipfshash: _imgipfshash,\r\n                fileipfshash:_fileipfshash,\r\n                owner: msg.sender,\r\n                categorie: _categorie,\r\n                uploadedOn: _uploadedOn\r\n                \r\n            }));\r\n            emit ProductCreated(productCount, _name, _description, _price, _imgipfshash,_fileipfshash, msg.sender, false);\r\n        //}\r\n        /*\r\n        else{\r\n            uint tmp = emptySpaces[0];\r\n            products[emptySpaces[0]] = Product(emptySpaces[0], _name , _description ,_price , _imgipfshash ,_fileipfshash, msg.sender,  _categorie, _uploadedOn);\r\n            len = emptySpaces.length;\r\n            for(uint i = 0;i < emptySpaces.length - 1;i++){\r\n                emptySpaces[i] = emptySpaces[ i+1 ];\r\n            }\r\n            emptySpaces.pop();            categorieToProduct[_categorie][tmp-1] = tmp;\r\n            ownerToProducts[msg.sender][tmp] = Product(\r\n                tmp,\r\n                _name,\r\n                _description,\r\n                _price,\r\n                _imgipfshash,\r\n                _fileipfshash,\r\n                msg.sender,\r\n                _categorie,\r\n                _uploadedOn\r\n                );\r\n                emit ProductCreated(tmp, _name, _description, _price, _imgipfshash,_fileipfshash, msg.sender, false);\r\n        }\r\n        */\r\n    }\r\n\r\n    function removeProduct(uint id1) public {\r\n        if(msg.sender == products[id1].owner){\r\n            //removeNestedProduct(id1);\r\n            delete products [id1];\r\n            delete productsRates[id1];\r\n            delete productsReviews[id1];\r\n            //Categories cat;\r\n            //cat = products[id1].categorie;\r\n            //delete categorieToProduct[cat][id1-1];\r\n            emptySpaces.push(id1);\r\n        }\r\n    }\r\n    function removeNestedProduct(uint id1) public {\r\n        delete ownerToProducts[msg.sender][id1];\r\n    }\r\n    function purchaseProduct(uint _id) public payable {\r\n        // Fetch the product\r\n        Product memory _product = products[_id];\r\n        // Fetch the owner\r\n        address _seller = _product.owner;\r\n        /*// Make sure the product has a valid id\r\n        require(_product.id > 0 && _product.id <= productCount);\r\n        // Require that there is enough Ether in the transaction\r\n        require(msg.value >= _product.price);\r\n        // Require that the product has not been purchased already\r\n        require(!_product.purchased);\r\n        // Require that the buyer is not the seller\r\n        require(_seller != msg.sender);\r\n        // Transfer ownership to the buyer*/\r\n        _product.owner = msg.sender;\r\n        // Mark as purchased\r\n        purchasedProducts[_id].push(_product);\r\n        owners[_id].push(msg.sender);\r\n        // Update the product\r\n        products[_id] = _product;\r\n        // Pay the seller by sending them Ether\r\n        payable(_seller).transfer(msg.value);\r\n        //removeNestedProduct(_id);\r\n        // Trigger an event\r\n        emit ProductPurchased(productCount, _product.name,_product.description, _product.price, _product.imgipfshash, _product.fileipfshash, msg.sender, true);\r\n    }\r\n    function editProduct(uint256 _id , string memory _name , string memory _des , uint _price , Categories _categorie) public{\r\n        if(msg.sender == products[_id].owner){\r\n            Product memory _product = products[_id];\r\n            _product.name = _name;\r\n            _product.description = _des;\r\n            _product.price = _price;\r\n            _product.categorie = _categorie;\r\n            products[_id] = _product;\r\n            Product memory _ownerToProducts = ownerToProducts[msg.sender][_id];\r\n            _ownerToProducts.name = _name;\r\n            _ownerToProducts.description = _des;\r\n            _ownerToProducts.price = _price;\r\n            _ownerToProducts.categorie = _categorie;\r\n            ownerToProducts[msg.sender][_id] = _ownerToProducts;\r\n        }\r\n    }\r\n    \r\n    function giveRate(uint _rate ,uint pos_in_prod_mapping ) public {\r\n        productsRates[pos_in_prod_mapping].push(_rate);\r\n    }\r\n    function writeReview(string memory _review ,uint pos_in_prod_mapping) public {\r\n        productsReviews[pos_in_prod_mapping].push(_review);\r\n    }\r\n\r\n    function insertProductIntoCart(uint256 id) public returns (bool success,\r\n                                                  uint256 pos_in_prod_mapping) {\r\n        Customer storage cust = customers[msg.sender];\r\n        Product memory prod = products[id];\r\n        uint256 prods_prev_len = cust.cart.products.length;\r\n        cust.cart.products.push(prod.id);\r\n        uint256 current_sum = cust.cart.completeSum;\r\n        cust.cart.completeSum = current_sum + prod.price;\r\n        if (cust.cart.products.length > prods_prev_len) {\r\n          emit CartProductInserted(msg.sender, id, prod.price, cust.cart.completeSum);\r\n          return (true, cust.cart.products.length - 1);\r\n        }\r\n        emit CartProductInsertionFailed(msg.sender, id);\r\n        return (false, 0);\r\n    }\r\n\r\n    function removeProductFromCart(uint256 prod_pos_in_mapping) public {\r\n        uint256[] memory new_product_list = new uint256[](customers[msg.sender]\r\n                                                    .cart.products.length - 1);\r\n        uint256[] memory customerProds = customers[msg.sender].cart.products;\r\n        for (uint256 i = 0; i < customerProds.length; i++) {\r\n          if (i != prod_pos_in_mapping) {\r\n            new_product_list[i] = customerProds[i];\r\n          } else {\r\n            customers[msg.sender].cart.completeSum -=\r\n                                               products[customerProds[i]].price;\r\n            emit CartProductRemoved(msg.sender, customerProds[i]);\r\n          }\r\n        }\r\n        customers[msg.sender].cart.products = new_product_list;\r\n    }\r\n\r\n    function emptyCart() public returns (bool success) {\r\n        Customer storage customer = customers[msg.sender];\r\n        customer.cart = Cart(new uint256[](0), 0);\r\n        emit CartEmptied(customer.adr);\r\n        return true;\r\n    }\r\n\r\n    function registerCustomer(address _address, string memory _name)\r\n                                        public returns (bool success) {\r\n    ownerToProducts[msg.sender].push(Product({\r\n                id: 0,\r\n                name: \"dummy\",\r\n                description: \"dummy\",\r\n                price: 0,\r\n                imgipfshash: \"dummy\",\r\n                fileipfshash:\"dummy\",\r\n                owner: 0x0000000000000000000000000000000000000000,\r\n                categorie: Categories.Tech,\r\n                uploadedOn:0\r\n        }));\r\n\r\n        Customer memory customer = Customer(_address, _name,Cart(new uint256[](0), 0));\r\n        customerCount++;\r\n        addressLUT[customerCount]=customer.adr;\r\n        customers[_address] = customer;\r\n        emit CustomerRegistered(_address);\r\n        return true;\r\n    }\r\n\r\n    function getCustomer(address _adr) view public returns(Customer memory){\r\n    \treturn customers[_adr];\r\n    }\r\n\r\n    function getProductCount(address _owner) view\r\n        public\r\n        returns (uint256) \r\n    {\r\n        require(_owner != address(0));\r\n        return ownerToProducts[_owner].length;\r\n    }\r\n    function getNumberOfOwners(uint _id) public view returns(uint){\r\n        return owners[_id].length;\r\n    }\r\n\r\n    function getProduct(address _owner, uint8 _index) view\r\n        public returns (\r\n        uint _id, \r\n        string memory _name, \r\n        string memory _description,\r\n        uint _price,\r\n        string memory imgipfshash,\r\n        string memory fileipfshash\r\n    ) {\r\n\r\n        require(_owner != address(0));\r\n        require(_index >= 0 && _index <= 2**8 - 1);\r\n        require(ownerToProducts[_owner].length > 0);\r\n\r\n        Product storage product = ownerToProducts[_owner][_index];\r\n        \r\n        return (\r\n            product.id, \r\n            product.name,\r\n            product.description,\r\n            product.price,\r\n            product.imgipfshash,\r\n            product.fileipfshash\r\n        );\r\n    }\r\n\r\n}",
  "sourcePath": "C:\\Users\\Administrator\\Desktop\\MarketPlace\\src\\contracts\\Marketplace.sol",
  "compiler": {
    "name": "solc",
    "version": "0.8.7+commit.e28d00a7.Emscripten.clang"
  },
  "schemaVersion": "3.4.2",
  "updatedAt": "2021-08-24T18:23:25.519Z",
  "networkType": "ethereum",
  "devdoc": {
    "kind": "dev",
    "methods": {},
    "version": 1
  },
  "userdoc": {
    "kind": "user",
    "methods": {},
    "version": 1
  }
}