{
  "contractName": "Marketplace",
  "abi": [
    {
      "anonymous": false,
      "inputs": [
        {
          "indexed": false,
          "internalType": "address",
          "name": "customer",
          "type": "address"
        }
      ],
      "name": "CartEmptied",
      "type": "event"
    },
    {
      "anonymous": false,
      "inputs": [
        {
          "indexed": false,
          "internalType": "address",
          "name": "customer",
          "type": "address"
        },
        {
          "indexed": false,
          "internalType": "uint256",
          "name": "prodId",
          "type": "uint256"
        },
        {
          "indexed": false,
          "internalType": "uint256",
          "name": "prodPrice",
          "type": "uint256"
        },
        {
          "indexed": false,
          "internalType": "uint256",
          "name": "completeSum",
          "type": "uint256"
        }
      ],
      "name": "CartProductInserted",
      "type": "event"
    },
    {
      "anonymous": false,
      "inputs": [
        {
          "indexed": false,
          "internalType": "address",
          "name": "customer",
          "type": "address"
        },
        {
          "indexed": false,
          "internalType": "uint256",
          "name": "prodId",
          "type": "uint256"
        }
      ],
      "name": "CartProductInsertionFailed",
      "type": "event"
    },
    {
      "anonymous": false,
      "inputs": [
        {
          "indexed": false,
          "internalType": "address",
          "name": "customer",
          "type": "address"
        },
        {
          "indexed": false,
          "internalType": "uint256",
          "name": "prodId",
          "type": "uint256"
        }
      ],
      "name": "CartProductRemoved",
      "type": "event"
    },
    {
      "anonymous": false,
      "inputs": [
        {
          "indexed": false,
          "internalType": "address",
          "name": "customer",
          "type": "address"
        }
      ],
      "name": "CustomerRegistered",
      "type": "event"
    },
    {
      "anonymous": false,
      "inputs": [
        {
          "indexed": false,
          "internalType": "address",
          "name": "customer",
          "type": "address"
        }
      ],
      "name": "CustomerRegistrationFailed",
      "type": "event"
    },
    {
      "anonymous": false,
      "inputs": [
        {
          "indexed": false,
          "internalType": "uint256",
          "name": "id",
          "type": "uint256"
        },
        {
          "indexed": false,
          "internalType": "string",
          "name": "name",
          "type": "string"
        },
        {
          "indexed": false,
          "internalType": "string",
          "name": "description",
          "type": "string"
        },
        {
          "indexed": false,
          "internalType": "uint256",
          "name": "price",
          "type": "uint256"
        },
        {
          "indexed": false,
          "internalType": "string",
          "name": "imgipfshash",
          "type": "string"
        },
        {
          "indexed": false,
          "internalType": "string",
          "name": "fileipfshash",
          "type": "string"
        },
        {
          "indexed": false,
          "internalType": "address",
          "name": "owner",
          "type": "address"
        },
        {
          "indexed": false,
          "internalType": "bool",
          "name": "purchased",
          "type": "bool"
        }
      ],
      "name": "ProductCreated",
      "type": "event"
    },
    {
      "anonymous": false,
      "inputs": [
        {
          "indexed": false,
          "internalType": "uint256",
          "name": "id",
          "type": "uint256"
        },
        {
          "indexed": false,
          "internalType": "string",
          "name": "name",
          "type": "string"
        },
        {
          "indexed": false,
          "internalType": "string",
          "name": "description",
          "type": "string"
        },
        {
          "indexed": false,
          "internalType": "uint256",
          "name": "price",
          "type": "uint256"
        },
        {
          "indexed": false,
          "internalType": "string",
          "name": "imgipfshash",
          "type": "string"
        },
        {
          "indexed": false,
          "internalType": "string",
          "name": "fileipfshash",
          "type": "string"
        },
        {
          "indexed": false,
          "internalType": "address",
          "name": "owner",
          "type": "address"
        },
        {
          "indexed": false,
          "internalType": "bool",
          "name": "purchased",
          "type": "bool"
        }
      ],
      "name": "ProductPurchased",
      "type": "event"
    },
    {
      "inputs": [
        {
          "internalType": "uint256",
          "name": "",
          "type": "uint256"
        }
      ],
      "name": "addressLUT",
      "outputs": [
        {
          "internalType": "address",
          "name": "",
          "type": "address"
        }
      ],
      "stateMutability": "view",
      "type": "function",
      "constant": true
    },
    {
      "inputs": [
        {
          "internalType": "enum Marketplace.Categories",
          "name": "",
          "type": "uint8"
        },
        {
          "internalType": "uint256",
          "name": "",
          "type": "uint256"
        }
      ],
      "name": "categorieToProduct",
      "outputs": [
        {
          "internalType": "uint256",
          "name": "",
          "type": "uint256"
        }
      ],
      "stateMutability": "view",
      "type": "function",
      "constant": true
    },
    {
      "inputs": [],
      "name": "customerCount",
      "outputs": [
        {
          "internalType": "uint256",
          "name": "",
          "type": "uint256"
        }
      ],
      "stateMutability": "view",
      "type": "function",
      "constant": true
    },
    {
      "inputs": [
        {
          "internalType": "address",
          "name": "",
          "type": "address"
        }
      ],
      "name": "customers",
      "outputs": [
        {
          "internalType": "address",
          "name": "adr",
          "type": "address"
        },
        {
          "internalType": "string",
          "name": "name",
          "type": "string"
        },
        {
          "components": [
            {
              "internalType": "uint256[]",
              "name": "products",
              "type": "uint256[]"
            },
            {
              "internalType": "uint256",
              "name": "completeSum",
              "type": "uint256"
            }
          ],
          "internalType": "struct Marketplace.Cart",
          "name": "cart",
          "type": "tuple"
        }
      ],
      "stateMutability": "view",
      "type": "function",
      "constant": true
    },
    {
      "inputs": [
        {
          "internalType": "uint256",
          "name": "",
          "type": "uint256"
        }
      ],
      "name": "emptySpaces",
      "outputs": [
        {
          "internalType": "uint256",
          "name": "",
          "type": "uint256"
        }
      ],
      "stateMutability": "view",
      "type": "function",
      "constant": true
    },
    {
      "inputs": [],
      "name": "flag",
      "outputs": [
        {
          "internalType": "bool",
          "name": "",
          "type": "bool"
        }
      ],
      "stateMutability": "view",
      "type": "function",
      "constant": true
    },
    {
      "inputs": [],
      "name": "ftt",
      "outputs": [
        {
          "internalType": "uint256",
          "name": "",
          "type": "uint256"
        }
      ],
      "stateMutability": "view",
      "type": "function",
      "constant": true
    },
    {
      "inputs": [],
      "name": "len",
      "outputs": [
        {
          "internalType": "uint256",
          "name": "",
          "type": "uint256"
        }
      ],
      "stateMutability": "view",
      "type": "function",
      "constant": true
    },
    {
      "inputs": [],
      "name": "productCount",
      "outputs": [
        {
          "internalType": "uint256",
          "name": "",
          "type": "uint256"
        }
      ],
      "stateMutability": "view",
      "type": "function",
      "constant": true
    },
    {
      "inputs": [
        {
          "internalType": "uint256",
          "name": "",
          "type": "uint256"
        }
      ],
      "name": "products",
      "outputs": [
        {
          "internalType": "uint256",
          "name": "id",
          "type": "uint256"
        },
        {
          "internalType": "string",
          "name": "name",
          "type": "string"
        },
        {
          "internalType": "string",
          "name": "description",
          "type": "string"
        },
        {
          "internalType": "uint256",
          "name": "price",
          "type": "uint256"
        },
        {
          "internalType": "string",
          "name": "imgipfshash",
          "type": "string"
        },
        {
          "internalType": "string",
          "name": "fileipfshash",
          "type": "string"
        },
        {
          "internalType": "address",
          "name": "owner",
          "type": "address"
        },
        {
          "internalType": "enum Marketplace.Categories",
          "name": "categorie",
          "type": "uint8"
        },
        {
          "internalType": "uint256",
          "name": "uploadedOn",
          "type": "uint256"
        },
        {
          "internalType": "uint256",
          "name": "rate",
          "type": "uint256"
        },
        {
          "internalType": "uint256",
          "name": "reviewsCount",
          "type": "uint256"
        }
      ],
      "stateMutability": "view",
      "type": "function",
      "constant": true
    },
    {
      "inputs": [
        {
          "internalType": "string",
          "name": "_name",
          "type": "string"
        },
        {
          "internalType": "string",
          "name": "_description",
          "type": "string"
        },
        {
          "internalType": "uint256",
          "name": "_price",
          "type": "uint256"
        },
        {
          "internalType": "string",
          "name": "_imgipfshash",
          "type": "string"
        },
        {
          "internalType": "string",
          "name": "_fileipfshash",
          "type": "string"
        },
        {
          "internalType": "enum Marketplace.Categories",
          "name": "_categorie",
          "type": "uint8"
        }
      ],
      "name": "createProduct",
      "outputs": [],
      "stateMutability": "nonpayable",
      "type": "function"
    },
    {
      "inputs": [
        {
          "internalType": "uint256",
          "name": "_id",
          "type": "uint256"
        }
      ],
      "name": "purchaseProduct",
      "outputs": [],
      "stateMutability": "payable",
      "type": "function",
      "payable": true
    },
    {
      "inputs": [
        {
          "internalType": "uint256",
          "name": "_id",
          "type": "uint256"
        },
        {
          "internalType": "string",
          "name": "_name",
          "type": "string"
        },
        {
          "internalType": "string",
          "name": "_des",
          "type": "string"
        },
        {
          "internalType": "uint256",
          "name": "_price",
          "type": "uint256"
        },
        {
          "internalType": "enum Marketplace.Categories",
          "name": "_categorie",
          "type": "uint8"
        }
      ],
      "name": "editProduct",
      "outputs": [],
      "stateMutability": "nonpayable",
      "type": "function"
    },
    {
      "inputs": [
        {
          "internalType": "uint256",
          "name": "_id",
          "type": "uint256"
        },
        {
          "internalType": "uint256",
          "name": "_rate",
          "type": "uint256"
        },
        {
          "internalType": "string",
          "name": "_review",
          "type": "string"
        }
      ],
      "name": "reviewProduct",
      "outputs": [],
      "stateMutability": "nonpayable",
      "type": "function"
    },
    {
      "inputs": [],
      "name": "emptyCart",
      "outputs": [
        {
          "internalType": "bool",
          "name": "success",
          "type": "bool"
        }
      ],
      "stateMutability": "nonpayable",
      "type": "function"
    },
    {
      "inputs": [
        {
          "internalType": "address",
          "name": "_address",
          "type": "address"
        },
        {
          "internalType": "string",
          "name": "_name",
          "type": "string"
        }
      ],
      "name": "registerCustomer",
      "outputs": [
        {
          "internalType": "bool",
          "name": "success",
          "type": "bool"
        }
      ],
      "stateMutability": "nonpayable",
      "type": "function"
    },
    {
      "inputs": [
        {
          "internalType": "address",
          "name": "_adr",
          "type": "address"
        }
      ],
      "name": "getCustomer",
      "outputs": [
        {
          "components": [
            {
              "internalType": "address",
              "name": "adr",
              "type": "address"
            },
            {
              "internalType": "string",
              "name": "name",
              "type": "string"
            },
            {
              "internalType": "uint256[]",
              "name": "ownedProducts",
              "type": "uint256[]"
            },
            {
              "internalType": "uint256[]",
              "name": "purchasedProducts",
              "type": "uint256[]"
            },
            {
              "components": [
                {
                  "internalType": "uint256[]",
                  "name": "products",
                  "type": "uint256[]"
                },
                {
                  "internalType": "uint256",
                  "name": "completeSum",
                  "type": "uint256"
                }
              ],
              "internalType": "struct Marketplace.Cart",
              "name": "cart",
              "type": "tuple"
            }
          ],
          "internalType": "struct Marketplace.Customer",
          "name": "",
          "type": "tuple"
        }
      ],
      "stateMutability": "view",
      "type": "function",
      "constant": true
    },
    {
      "inputs": [
        {
          "internalType": "uint256",
          "name": "_id",
          "type": "uint256"
        }
      ],
      "name": "getNumberOfOwners",
      "outputs": [
        {
          "internalType": "uint256",
          "name": "",
          "type": "uint256"
        }
      ],
      "stateMutability": "view",
      "type": "function",
      "constant": true
    }
  ],
  "bytecode": "0x60806040526000805560006001556000600260006101000a81548160ff021916908315150217905550600060095534801561003957600080fd5b50612d1f806100496000396000f3fe6080604052600436106101085760003560e01c80637b61b70211610095578063aca4901811610064578063aca490181461038d578063cb949e51146103ca578063ce9f791d14610407578063db1970f414610432578063e0f6ef871461046f57610108565b80637b61b702146102e3578063890eba681461030c5780639757e8a314610337578063a0c8c1561461036257610108565b806338e76a03116100dc57806338e76a03146101db57806356d88e27146101f757806377e1d95d1461022257806377faa57c1461025f5780637acc0b201461029c57610108565b8062f73d4c1461010d5780630b784d2d1461013657806330a7bfe71461015f578063336989ae1461019c575b600080fd5b34801561011957600080fd5b50610134600480360381019061012f9190612237565b61049a565b005b34801561014257600080fd5b5061015d6004803603810190610158919061205a565b6108a5565b005b34801561016b57600080fd5b506101866004803603810190610181919061201a565b610b77565b60405161019391906126d3565b60405180910390f35b3480156101a857600080fd5b506101c360048036038101906101be9190611f91565b610ba8565b6040516101d2939291906125f1565b60405180910390f35b6101f560048036038101906101f09190612157565b610ce6565b005b34801561020357600080fd5b5061020c6111af565b60405161021991906126d3565b60405180910390f35b34801561022e57600080fd5b5061024960048036038101906102449190612157565b6111b5565b60405161025691906126d3565b60405180910390f35b34801561026b57600080fd5b5061028660048036038101906102819190612157565b6111d8565b60405161029391906126d3565b60405180910390f35b3480156102a857600080fd5b506102c360048036038101906102be9190612157565b6111fc565b6040516102da9b9a99989796959493929190612788565b60405180910390f35b3480156102ef57600080fd5b5061030a60048036038101906103059190612184565b6114a3565b005b34801561031857600080fd5b506103216115c4565b60405161032e9190612636565b60405180910390f35b34801561034357600080fd5b5061034c6115d7565b60405161035991906126d3565b60405180910390f35b34801561036e57600080fd5b506103776115dd565b6040516103849190612636565b60405180910390f35b34801561039957600080fd5b506103b460048036038101906103af9190612157565b611711565b6040516103c191906125d6565b60405180910390f35b3480156103d657600080fd5b506103f160048036038101906103ec9190611f91565b611744565b6040516103fe91906126b1565b60405180910390f35b34801561041357600080fd5b5061041c6119ab565b60405161042991906126d3565b60405180910390f35b34801561043e57600080fd5b5061045960048036038101906104549190611fbe565b6119b1565b6040516104669190612636565b60405180910390f35b34801561047b57600080fd5b50610484611ca8565b60405161049191906126d3565b60405180910390f35b6001151560036000858152602001908152602001600020600d0160003373ffffffffffffffffffffffffffffffffffffffff1673ffffffffffffffffffffffffffffffffffffffff16815260200190815260200160002060000160009054906101000a900460ff16151514610544576040517f08c379a000000000000000000000000000000000000000000000000000000000815260040161053b90612671565b60405180910390fd5b6000151560036000858152602001908152602001600020600d0160003373ffffffffffffffffffffffffffffffffffffffff1673ffffffffffffffffffffffffffffffffffffffff16815260200190815260200160002060000160019054906101000a90505050600160036000858152602001908152602001600020600d0160003373ffffffffffffffffffffffffffffffffffffffff1673ffffffffffffffffffffffffffffffffffffffff16815260200190815260200160002060000160016101000a81548160ff0219169083151502179055508060036000858152602001908152602001600020600d0160003373ffffffffffffffffffffffffffffffffffffffff1673ffffffffffffffffffffffffffffffffffffffff1681526020019081526020016000206001019080519060200190610684929190611cae565b504260036000858152602001908152602001600020600d0160003373ffffffffffffffffffffffffffffffffffffffff1673ffffffffffffffffffffffffffffffffffffffff168152602001908152602001600020600201819055503360036000858152602001908152602001600020600c0160006003600087815260200190815260200160002060090154815260200190815260200160002060006101000a81548173ffffffffffffffffffffffffffffffffffffffff021916908373ffffffffffffffffffffffffffffffffffffffff16021790555060036000848152602001908152602001600020600b0160036000858152602001908152602001600020600d0160003373ffffffffffffffffffffffffffffffffffffffff1673ffffffffffffffffffffffffffffffffffffffff16815260200190815260200160002090806001815401808255809150506001900390600052602060002090600302016000909190919091506000820160009054906101000a900460ff168160000160006101000a81548160ff0219169083151502179055506000820160019054906101000a900460ff168160000160016101000a81548160ff021916908315150217905550600182018160010190805461085c90612a69565b610867929190611d34565b5060028201548160020155505060036000848152602001908152602001600020600901600081548092919061089b90612acc565b9190505550505050565b60004290506000808154809291906108bc90612acc565b919050555086600360008054815260200190815260200160002060010190805190602001906108ec929190611cae565b508560036000805481526020019081526020016000206002019080519060200190610918929190611cae565b50846003600080548152602001908152602001600020600301819055508360036000805481526020019081526020016000206004019080519060200190610960929190611cae565b50826003600080548152602001908152602001600020600501908051906020019061098c929190611cae565b5033600360008054815260200190815260200160002060060160006101000a81548173ffffffffffffffffffffffffffffffffffffffff021916908373ffffffffffffffffffffffffffffffffffffffff16021790555081600360008054815260200190815260200160002060060160146101000a81548160ff0219169083600a811115610a1d57610a1c612b44565b5b02179055508060036000805481526020019081526020016000206007018190555060006003600080548152602001908152602001600020600801819055506004600083600a811115610a7257610a71612b44565b5b600a811115610a8457610a83612b44565b5b81526020019081526020016000206000549080600181540180825580915050600190039060005260206000200160009091909190915055600560003373ffffffffffffffffffffffffffffffffffffffff1673ffffffffffffffffffffffffffffffffffffffff16815260200190815260200160002060020160005490806001815401808255809150506001900390600052602060002001600090919091909150557fbb45e05496e643a69bb522fd78ec743fcc4cecc08d892a6685a76f79e29e1eb46000548888888888336000604051610b669897969594939291906126ee565b60405180910390a150505050505050565b60046020528160005260406000208181548110610b9357600080fd5b90600052602060002001600091509150505481565b60056020528060005260406000206000915090508060000160009054906101000a900473ffffffffffffffffffffffffffffffffffffffff1690806001018054610bf190612a69565b80601f0160208091040260200160405190810160405280929190818152602001828054610c1d90612a69565b8015610c6a5780601f10610c3f57610100808354040283529160200191610c6a565b820191906000526020600020905b815481529060010190602001808311610c4d57829003601f168201915b5050505050908060040160405180604001604052908160008201805480602002602001604051908101604052809291908181526020018280548015610cce57602002820191906000526020600020905b815481526020019060010190808311610cba575b50505050508152602001600182015481525050905083565b3373ffffffffffffffffffffffffffffffffffffffff166003600083815260200190815260200160002060060160009054906101000a900473ffffffffffffffffffffffffffffffffffffffff1673ffffffffffffffffffffffffffffffffffffffff161415610d8b576040517f08c379a0000000000000000000000000000000000000000000000000000000008152600401610d8290612691565b60405180910390fd5b6003600082815260200190815260200160002060030154341015610de4576040517f08c379a0000000000000000000000000000000000000000000000000000000008152600401610ddb90612651565b60405180910390fd5b600060036000838152602001908152602001600020905060008160060160009054906101000a900473ffffffffffffffffffffffffffffffffffffffff169050336003600085815260200190815260200160002060060160006101000a81548173ffffffffffffffffffffffffffffffffffffffff021916908373ffffffffffffffffffffffffffffffffffffffff160217905550600160036000858152602001908152602001600020600d0160003373ffffffffffffffffffffffffffffffffffffffff1673ffffffffffffffffffffffffffffffffffffffff16815260200190815260200160002060000160006101000a81548160ff02191690831515021790555060036000848152602001908152602001600020600a01600560003373ffffffffffffffffffffffffffffffffffffffff1673ffffffffffffffffffffffffffffffffffffffff16815260200190815260200160002090806001815401808255809150506001900390600052602060002090600602016000909190919091506000820160009054906101000a900473ffffffffffffffffffffffffffffffffffffffff168160000160006101000a81548173ffffffffffffffffffffffffffffffffffffffff021916908373ffffffffffffffffffffffffffffffffffffffff1602179055506001820181600101908054610fe190612a69565b610fec929190611d34565b506002820181600201908054611003929190611dc1565b50600382018160030190805461101a929190611dc1565b5060048201816004016000820181600001908054611039929190611dc1565b506001820154816001015550505050600560003373ffffffffffffffffffffffffffffffffffffffff1673ffffffffffffffffffffffffffffffffffffffff1681526020019081526020016000206003018390806001815401808255809150506001900390600052602060002001600090919091909150558073ffffffffffffffffffffffffffffffffffffffff166108fc349081150290604051600060405180830381858888f193505050501580156110f7573d6000803e3d6000fd5b507f5d3e174cea83fc7a15e7c910d86c8dceb0129bfdabceb14a6e43e0d4ccbfdb4a6000546003600086815260200190815260200160002060010160036000878152602001908152602001600020600201600360008881526020019081526020016000206003015460036000898152602001908152602001600020600401600360008a81526020019081526020016000206005013360016040516111a298979695949392919061284f565b60405180910390a1505050565b60085481565b600060036000838152602001908152602001600020600a01805490509050919050565b600781815481106111e857600080fd5b906000526020600020016000915090505481565b600360205280600052604060002060009150905080600001549080600101805461122590612a69565b80601f016020809104026020016040519081016040528092919081815260200182805461125190612a69565b801561129e5780601f106112735761010080835404028352916020019161129e565b820191906000526020600020905b81548152906001019060200180831161128157829003601f168201915b5050505050908060020180546112b390612a69565b80601f01602080910402602001604051908101604052809291908181526020018280546112df90612a69565b801561132c5780601f106113015761010080835404028352916020019161132c565b820191906000526020600020905b81548152906001019060200180831161130f57829003601f168201915b50505050509080600301549080600401805461134790612a69565b80601f016020809104026020016040519081016040528092919081815260200182805461137390612a69565b80156113c05780601f10611395576101008083540402835291602001916113c0565b820191906000526020600020905b8154815290600101906020018083116113a357829003601f168201915b5050505050908060050180546113d590612a69565b80601f016020809104026020016040519081016040528092919081815260200182805461140190612a69565b801561144e5780601f106114235761010080835404028352916020019161144e565b820191906000526020600020905b81548152906001019060200180831161143157829003601f168201915b5050505050908060060160009054906101000a900473ffffffffffffffffffffffffffffffffffffffff16908060060160149054906101000a900460ff1690806007015490806008015490806009015490508b565b6003600086815260200190815260200160002060060160009054906101000a900473ffffffffffffffffffffffffffffffffffffffff1673ffffffffffffffffffffffffffffffffffffffff163373ffffffffffffffffffffffffffffffffffffffff1614156115bd5783600360008781526020019081526020016000206001019080519060200190611537929190611cae565b5082600360008781526020019081526020016000206002019080519060200190611562929190611cae565b50816003600087815260200190815260200160002060030181905550806003600087815260200190815260200160002060060160146101000a81548160ff0219169083600a8111156115b7576115b6612b44565b5b02179055505b5050505050565b600260009054906101000a900460ff1681565b60015481565b600080600560003373ffffffffffffffffffffffffffffffffffffffff1673ffffffffffffffffffffffffffffffffffffffff16815260200190815260200160002090506040518060400160405280600067ffffffffffffffff81111561164757611646612ba2565b5b6040519080825280602002602001820160405280156116755781602001602082028036833780820191505090505b50815260200160008152508160040160008201518160000190805190602001906116a0929190611e13565b50602082015181600101559050507f69dad80af5bbf467deb57c60ff8e39e3aacc707b1aa1c5b240aab4982f946fee8160000160009054906101000a900473ffffffffffffffffffffffffffffffffffffffff1660405161170191906125d6565b60405180910390a1600191505090565b60066020528060005260406000206000915054906101000a900473ffffffffffffffffffffffffffffffffffffffff1681565b61174c611e60565b600560008373ffffffffffffffffffffffffffffffffffffffff1673ffffffffffffffffffffffffffffffffffffffff1681526020019081526020016000206040518060a00160405290816000820160009054906101000a900473ffffffffffffffffffffffffffffffffffffffff1673ffffffffffffffffffffffffffffffffffffffff1673ffffffffffffffffffffffffffffffffffffffff1681526020016001820180546117fc90612a69565b80601f016020809104026020016040519081016040528092919081815260200182805461182890612a69565b80156118755780601f1061184a57610100808354040283529160200191611875565b820191906000526020600020905b81548152906001019060200180831161185857829003601f168201915b50505050508152602001600282018054806020026020016040519081016040528092919081815260200182805480156118cd57602002820191906000526020600020905b8154815260200190600101908083116118b9575b505050505081526020016003820180548060200260200160405190810160405280929190818152602001828054801561192557602002820191906000526020600020905b815481526020019060010190808311611911575b50505050508152602001600482016040518060400160405290816000820180548060200260200160405190810160405280929190818152602001828054801561198d57602002820191906000526020600020905b815481526020019060010190808311611979575b50505050508152602001600182015481525050815250509050919050565b60095481565b6000806040518060a001604052808573ffffffffffffffffffffffffffffffffffffffff168152602001848152602001600067ffffffffffffffff8111156119fc576119fb612ba2565b5b604051908082528060200260200182016040528015611a2a5781602001602082028036833780820191505090505b508152602001600067ffffffffffffffff811115611a4b57611a4a612ba2565b5b604051908082528060200260200182016040528015611a795781602001602082028036833780820191505090505b5081526020016040518060400160405280600067ffffffffffffffff811115611aa557611aa4612ba2565b5b604051908082528060200260200182016040528015611ad35781602001602082028036833780820191505090505b5081526020016000815250815250905060016000815480929190611af690612acc565b9190505550806000015160066000600154815260200190815260200160002060006101000a81548173ffffffffffffffffffffffffffffffffffffffff021916908373ffffffffffffffffffffffffffffffffffffffff16021790555080600560008673ffffffffffffffffffffffffffffffffffffffff1673ffffffffffffffffffffffffffffffffffffffff16815260200190815260200160002060008201518160000160006101000a81548173ffffffffffffffffffffffffffffffffffffffff021916908373ffffffffffffffffffffffffffffffffffffffff1602179055506020820151816001019080519060200190611bf6929190611cae565b506040820151816002019080519060200190611c13929190611e13565b506060820151816003019080519060200190611c30929190611e13565b506080820151816004016000820151816000019080519060200190611c56929190611e13565b506020820151816001015550509050507f155e8619f4d23b96769599cb9af87da3e06a360082869c18578011da9a06e67084604051611c9591906125d6565b60405180910390a1600191505092915050565b60005481565b828054611cba90612a69565b90600052602060002090601f016020900481019282611cdc5760008555611d23565b82601f10611cf557805160ff1916838001178555611d23565b82800160010185558215611d23579182015b82811115611d22578251825591602001919060010190611d07565b5b509050611d309190611eab565b5090565b828054611d4090612a69565b90600052602060002090601f016020900481019282611d625760008555611db0565b82601f10611d735780548555611db0565b82800160010185558215611db057600052602060002091601f016020900482015b82811115611daf578254825591600101919060010190611d94565b5b509050611dbd9190611eab565b5090565b828054828255906000526020600020908101928215611e025760005260206000209182015b82811115611e01578254825591600101919060010190611de6565b5b509050611e0f9190611eab565b5090565b828054828255906000526020600020908101928215611e4f579160200282015b82811115611e4e578251825591602001919060010190611e33565b5b509050611e5c9190611eab565b5090565b6040518060a00160405280600073ffffffffffffffffffffffffffffffffffffffff168152602001606081526020016060815260200160608152602001611ea5611ec8565b81525090565b5b80821115611ec4576000816000905550600101611eac565b5090565b604051806040016040528060608152602001600081525090565b6000611ef5611ef08461290e565b6128e9565b905082815260208101848484011115611f1157611f10612bd6565b5b611f1c848285612a27565b509392505050565b600081359050611f3381612cab565b92915050565b600081359050611f4881612cc2565b92915050565b600082601f830112611f6357611f62612bd1565b5b8135611f73848260208601611ee2565b91505092915050565b600081359050611f8b81612cd2565b92915050565b600060208284031215611fa757611fa6612be0565b5b6000611fb584828501611f24565b91505092915050565b60008060408385031215611fd557611fd4612be0565b5b6000611fe385828601611f24565b925050602083013567ffffffffffffffff81111561200457612003612bdb565b5b61201085828601611f4e565b9150509250929050565b6000806040838503121561203157612030612be0565b5b600061203f85828601611f39565b925050602061205085828601611f7c565b9150509250929050565b60008060008060008060c0878903121561207757612076612be0565b5b600087013567ffffffffffffffff81111561209557612094612bdb565b5b6120a189828a01611f4e565b965050602087013567ffffffffffffffff8111156120c2576120c1612bdb565b5b6120ce89828a01611f4e565b95505060406120df89828a01611f7c565b945050606087013567ffffffffffffffff811115612100576120ff612bdb565b5b61210c89828a01611f4e565b935050608087013567ffffffffffffffff81111561212d5761212c612bdb565b5b61213989828a01611f4e565b92505060a061214a89828a01611f39565b9150509295509295509295565b60006020828403121561216d5761216c612be0565b5b600061217b84828501611f7c565b91505092915050565b600080600080600060a086880312156121a05761219f612be0565b5b60006121ae88828901611f7c565b955050602086013567ffffffffffffffff8111156121cf576121ce612bdb565b5b6121db88828901611f4e565b945050604086013567ffffffffffffffff8111156121fc576121fb612bdb565b5b61220888828901611f4e565b935050606061221988828901611f7c565b925050608061222a88828901611f39565b9150509295509295909350565b6000806000606084860312156122505761224f612be0565b5b600061225e86828701611f7c565b935050602061226f86828701611f7c565b925050604084013567ffffffffffffffff8111156122905761228f612bdb565b5b61229c86828701611f4e565b9150509250925092565b60006122b283836125b8565b60208301905092915050565b6122c7816129ba565b82525050565b6122d6816129ba565b82525050565b60006122e782612964565b6122f18185612987565b93506122fc8361293f565b8060005b8381101561232d57815161231488826122a6565b975061231f8361297a565b925050600181019050612300565b5085935050505092915050565b612343816129cc565b82525050565b61235281612a15565b82525050565b60006123638261296f565b61236d8185612998565b935061237d818560208601612a36565b61238681612be5565b840191505092915050565b600061239c8261296f565b6123a681856129a9565b93506123b6818560208601612a36565b6123bf81612be5565b840191505092915050565b600081546123d781612a69565b6123e181866129a9565b945060018216600081146123fc576001811461240e57612441565b60ff1983168652602086019350612441565b6124178561294f565b60005b838110156124395781548189015260018201915060208101905061241a565b808801955050505b50505092915050565b60006124576012836129a9565b915061246282612bf6565b602082019050919050565b600061247a602b836129a9565b915061248582612c1f565b604082019050919050565b600061249d601f836129a9565b91506124a882612c6e565b602082019050919050565b600060408301600083015184820360008601526124d082826122dc565b91505060208301516124e560208601826125b8565b508091505092915050565b6000604083016000830151848203600086015261250d82826122dc565b915050602083015161252260208601826125b8565b508091505092915050565b600060a08301600083015161254560008601826122be565b506020830151848203602086015261255d8282612358565b9150506040830151848203604086015261257782826122dc565b9150506060830151848203606086015261259182826122dc565b915050608083015184820360808601526125ab82826124b3565b9150508091505092915050565b6125c181612a0b565b82525050565b6125d081612a0b565b82525050565b60006020820190506125eb60008301846122cd565b92915050565b600060608201905061260660008301866122cd565b81810360208301526126188185612391565b9050818103604083015261262c81846124f0565b9050949350505050565b600060208201905061264b600083018461233a565b92915050565b6000602082019050818103600083015261266a8161244a565b9050919050565b6000602082019050818103600083015261268a8161246d565b9050919050565b600060208201905081810360008301526126aa81612490565b9050919050565b600060208201905081810360008301526126cb818461252d565b905092915050565b60006020820190506126e860008301846125c7565b92915050565b600061010082019050612704600083018b6125c7565b8181036020830152612716818a612391565b9050818103604083015261272a8189612391565b905061273960608301886125c7565b818103608083015261274b8187612391565b905081810360a083015261275f8186612391565b905061276e60c08301856122cd565b61277b60e083018461233a565b9998505050505050505050565b60006101608201905061279e600083018e6125c7565b81810360208301526127b0818d612391565b905081810360408301526127c4818c612391565b90506127d3606083018b6125c7565b81810360808301526127e5818a612391565b905081810360a08301526127f98189612391565b905061280860c08301886122cd565b61281560e0830187612349565b6128236101008301866125c7565b6128316101208301856125c7565b61283f6101408301846125c7565b9c9b505050505050505050505050565b600061010082019050612865600083018b6125c7565b8181036020830152612877818a6123ca565b9050818103604083015261288b81896123ca565b905061289a60608301886125c7565b81810360808301526128ac81876123ca565b905081810360a08301526128c081866123ca565b90506128cf60c08301856122cd565b6128dc60e083018461233a565b9998505050505050505050565b60006128f3612904565b90506128ff8282612a9b565b919050565b6000604051905090565b600067ffffffffffffffff82111561292957612928612ba2565b5b61293282612be5565b9050602081019050919050565b6000819050602082019050919050565b60008190508160005260206000209050919050565b600081519050919050565b600081519050919050565b6000602082019050919050565b600082825260208201905092915050565b600082825260208201905092915050565b600082825260208201905092915050565b60006129c5826129eb565b9050919050565b60008115159050919050565b60008190506129e682612c97565b919050565b600073ffffffffffffffffffffffffffffffffffffffff82169050919050565b6000819050919050565b6000612a20826129d8565b9050919050565b82818337600083830152505050565b60005b83811015612a54578082015181840152602081019050612a39565b83811115612a63576000848401525b50505050565b60006002820490506001821680612a8157607f821691505b60208210811415612a9557612a94612b73565b5b50919050565b612aa482612be5565b810181811067ffffffffffffffff82111715612ac357612ac2612ba2565b5b80604052505050565b6000612ad782612a0b565b91507fffffffffffffffffffffffffffffffffffffffffffffffffffffffffffffffff821415612b0a57612b09612b15565b5b600182019050919050565b7f4e487b7100000000000000000000000000000000000000000000000000000000600052601160045260246000fd5b7f4e487b7100000000000000000000000000000000000000000000000000000000600052602160045260246000fd5b7f4e487b7100000000000000000000000000000000000000000000000000000000600052602260045260246000fd5b7f4e487b7100000000000000000000000000000000000000000000000000000000600052604160045260246000fd5b600080fd5b600080fd5b600080fd5b600080fd5b6000601f19601f8301169050919050565b7f496e73756666696369656e742045746865720000000000000000000000000000600082015250565b7f596f7520617265206e6f7420656c696769626c6520746f20726576696577207460008201527f6869732070726f64756374000000000000000000000000000000000000000000602082015250565b7f596f752063616e6e6f742062757920796f7572206f776e2070726f6475637400600082015250565b600b8110612ca857612ca7612b44565b5b50565b612cb4816129ba565b8114612cbf57600080fd5b50565b600b8110612ccf57600080fd5b50565b612cdb81612a0b565b8114612ce657600080fd5b5056fea264697066735822122042088b9d5d6f0b607814b78daca01da563c33b1bb1c4221df9b05437205167b064736f6c63430008070033",
  "immutableReferences": {},
  "source": "// if purchased w bdi 27zfa\r\n// SPDX-License-Identifier: MIT\r\npragma solidity  ^0.8.0;\r\n\r\ncontract Marketplace {\r\n    //string public name;\r\n    uint public productCount = 0;\r\n    uint public customerCount = 0;\r\n    //to store the products on blockchain\r\n    bool public flag = false;\r\n    mapping(uint => Product) public products;\r\n    mapping(Categories => uint[]) public categorieToProduct;\r\n    //to store the customers on blockchain\r\n    mapping(address  => Customer) public customers;\r\n    mapping(uint => address) public addressLUT;\r\n    uint[] public emptySpaces;\r\n    uint public len; \r\n    uint public ftt = 0;\r\n    enum Categories {\r\n        Tech,\r\n        PCGames,\r\n        PS4Games,\r\n        XboxGames,\r\n        Movies,\r\n        Courses,\r\n        Books,\r\n        AudioBooks,\r\n        Images,\r\n        Videos,\r\n        Other\r\n    }\r\n    struct Review{\r\n        bool isBuy;\r\n        bool isReview;\r\n        string reviewDescription;\r\n        uint timeStamp;\r\n    }\r\n\r\n    struct Customer {\r\n        address adr;\r\n        string name;\r\n        uint256[] ownedProducts;\r\n        uint256[] purchasedProducts;\r\n        Cart cart;\r\n        \r\n    }\r\n\r\n    struct Cart {\r\n      uint256[] products;\r\n      uint256 completeSum;\r\n    }\r\n\r\n    struct Product {\r\n        uint id;\r\n        string name;\r\n        string description;\r\n        uint price;\r\n        string imgipfshash;\r\n        string fileipfshash;\r\n        address owner;\r\n        Categories categorie;\r\n        uint256 uploadedOn;\r\n        uint256 rate;\r\n        uint256 reviewsCount;\r\n        Customer[] buyers;\r\n        Review [] reviews;\r\n        mapping (uint=>address) raters; //address of reviewers\r\n        mapping (address=>Review) productUserReview;\r\n    }\r\n\r\n    event ProductCreated(uint id, string name, string description, uint price, string imgipfshash, string fileipfshash, address owner, bool purchased);\r\n    event ProductPurchased(uint id, string name, string description, uint price, string imgipfshash, string fileipfshash, address owner, bool purchased);\r\n    event CustomerRegistered(address customer);\r\n    event CustomerRegistrationFailed(address customer);\r\n    event CartProductInserted(address customer, uint256 prodId, uint256 prodPrice, uint256 completeSum);\r\n    event CartProductInsertionFailed(address customer, uint256 prodId);\r\n    event CartProductRemoved(address customer, uint256 prodId);\r\n    event CartEmptied(address customer);\r\n\r\n    function createProduct(string memory _name,string memory _description, uint _price,string memory _imgipfshash,string memory _fileipfshash , Categories _categorie ) public {\r\n        \r\n        uint256 _uploadedOn = block.timestamp;\r\n                productCount ++;\r\n                products[productCount].name = _name;\r\n                products[productCount].description = _description;\r\n                products[productCount].price = _price;\r\n                products[productCount].imgipfshash = _imgipfshash;\r\n                products[productCount].fileipfshash = _fileipfshash;\r\n                products[productCount].owner = msg.sender;\r\n                products[productCount].categorie = _categorie;\r\n                products[productCount].uploadedOn = _uploadedOn;\r\n                products[productCount].rate = 0;\r\n\r\n                categorieToProduct[_categorie].push(productCount);\r\n\r\n                customers[msg.sender].ownedProducts.push(productCount);\r\n\r\n            emit ProductCreated(productCount, _name, _description, _price, _imgipfshash,_fileipfshash, msg.sender, false);\r\n        \r\n            //emptySpaces.push(id1);\r\n    }\r\n\r\n    function purchaseProduct(uint _id) public payable {\r\n        \r\n        require(products[_id].owner != msg.sender, \"You cannot buy your own product\");\r\n        require (msg.value >= products[_id].price , \"Insufficient Ether\");\r\n\r\n        // Fetch the product\r\n        Product storage _product = products[_id];\r\n        // Fetch the owner\r\n        address _seller = _product.owner;\r\n        \r\n        products[_id].owner = msg.sender;\r\n        products[_id].productUserReview[msg.sender].isBuy = true;\r\n        // Mark as purchased\r\n        //purchasedProducts[_id].push(_product);\r\n        products[_id].buyers.push(customers[msg.sender]);\r\n        customers[msg.sender].purchasedProducts.push(_id);\r\n        // Pay the seller by sending them Ether\r\n        payable(_seller).transfer(msg.value);\r\n        //removeNestedProduct(_id);\r\n        // Trigger an event\r\n        emit ProductPurchased(productCount, products[_id].name,products[_id].description, products[_id].price, products[_id].imgipfshash, products[_id].fileipfshash, msg.sender, true);\r\n    }\r\n    function editProduct(uint256 _id , string memory _name , string memory _des , uint _price , Categories _categorie) public{\r\n        if(msg.sender == products[_id].owner){\r\n            products[_id].name = _name;\r\n            products[_id].description = _des;\r\n            products[_id].price = _price;\r\n            products[_id].categorie = _categorie;\r\n\r\n        }\r\n    }\r\n\r\n    function reviewProduct(uint _id,uint256 _rate, string memory _review) public\r\n    {\r\n           require(products[_id].productUserReview[msg.sender].isBuy == true, \"You are not eligible to review this product\");\r\n           products[_id].productUserReview[msg.sender].isReview == false; //only once\r\n\r\n           products[_id].productUserReview[msg.sender].isReview = true;\r\n           //should update rate\r\n           products[_id].productUserReview[msg.sender].reviewDescription = _review;\r\n           products[_id].productUserReview[msg.sender].timeStamp = block.timestamp;\r\n\r\n           products[_id].raters[products[_id].reviewsCount] = msg.sender;\r\n              products[_id].reviews.push(products[_id].productUserReview[msg.sender]);\r\n\r\n           products[_id].reviewsCount ++;\r\n\r\n    }\r\n    \r\n    // function insertProductIntoCart(uint256 id) public returns (bool success,\r\n    //                                               uint256 pos_in_prod_mapping) {\r\n    //     Customer storage cust = customers[msg.sender];\r\n    //     Product memory prod = products[id];\r\n    //     uint256 prods_prev_len = cust.cart.products.length;\r\n    //     cust.cart.products.push(prod.id);\r\n    //     uint256 current_sum = cust.cart.completeSum;\r\n    //     cust.cart.completeSum = current_sum + prod.price;\r\n    //     if (cust.cart.products.length > prods_prev_len) {\r\n    //       emit CartProductInserted(msg.sender, id, prod.price, cust.cart.completeSum);\r\n    //       return (true, cust.cart.products.length - 1);\r\n    //     }\r\n    //     emit CartProductInsertionFailed(msg.sender, id);\r\n    //     return (false, 0);\r\n    // }\r\n\r\n    // function removeProductFromCart(uint256 prod_pos_in_mapping) public {\r\n    //     uint256[] memory new_product_list = new uint256[](customers[msg.sender]\r\n    //                                                 .cart.products.length - 1);\r\n    //     uint256[] memory customerProds = customers[msg.sender].cart.products;\r\n    //     for (uint256 i = 0; i < customerProds.length; i++) {\r\n    //       if (i != prod_pos_in_mapping) {\r\n    //         new_product_list[i] = customerProds[i];\r\n    //       } else {\r\n    //         customers[msg.sender].cart.completeSum -=\r\n    //                                            products[customerProds[i]].price;\r\n    //         emit CartProductRemoved(msg.sender, customerProds[i]);\r\n    //       }\r\n    //     }\r\n    //     customers[msg.sender].cart.products = new_product_list;\r\n    // }\r\n\r\n    function emptyCart() public returns (bool success) {\r\n        Customer storage customer = customers[msg.sender];\r\n        customer.cart = Cart(new uint256[](0), 0);\r\n        emit CartEmptied(customer.adr);\r\n        return true;\r\n    }\r\n\r\n    function registerCustomer(address _address, string memory _name)\r\n                                        public returns (bool success) {\r\n        Customer memory customer = Customer(_address, _name,new uint256[](0),new uint256[](0),Cart(new uint256[](0),0));\r\n        customerCount++;\r\n        addressLUT[customerCount]=customer.adr;\r\n        customers[_address] = customer;\r\n        emit CustomerRegistered(_address);\r\n        return true;\r\n    }\r\n\r\n    function getCustomer(address _adr) view public returns(Customer memory){\r\n    \treturn customers[_adr];\r\n    }\r\n\r\n    function getNumberOfOwners(uint _id) public view returns(uint){\r\n        return products[_id].buyers.length;\r\n    }\r\n}",
  "sourcePath": "C:\\Users\\carol\\Desktop\\marketplace\\src\\contracts\\Marketplace.sol",
  "compiler": {
    "name": "solc",
    "version": "0.8.7+commit.e28d00a7.Emscripten.clang"
  },
  "schemaVersion": "3.4.2",
  "updatedAt": "2021-08-25T15:27:19.796Z",
  "networkType": "ethereum",
  "devdoc": {
    "kind": "dev",
    "methods": {},
    "version": 1
  },
  "userdoc": {
    "kind": "user",
    "methods": {},
    "version": 1
  }
}