{
  "contractName": "Marketplace",
  "abi": [
    {
      "anonymous": false,
      "inputs": [
        {
          "indexed": false,
          "internalType": "address",
          "name": "customer",
          "type": "address"
        }
      ],
      "name": "CartEmptied",
      "type": "event"
    },
    {
      "anonymous": false,
      "inputs": [
        {
          "indexed": false,
          "internalType": "address",
          "name": "customer",
          "type": "address"
        },
        {
          "indexed": false,
          "internalType": "uint256",
          "name": "prodId",
          "type": "uint256"
        },
        {
          "indexed": false,
          "internalType": "uint256",
          "name": "prodPrice",
          "type": "uint256"
        },
        {
          "indexed": false,
          "internalType": "uint256",
          "name": "completeSum",
          "type": "uint256"
        }
      ],
      "name": "CartProductInserted",
      "type": "event"
    },
    {
      "anonymous": false,
      "inputs": [
        {
          "indexed": false,
          "internalType": "address",
          "name": "customer",
          "type": "address"
        },
        {
          "indexed": false,
          "internalType": "uint256",
          "name": "prodId",
          "type": "uint256"
        }
      ],
      "name": "CartProductInsertionFailed",
      "type": "event"
    },
    {
      "anonymous": false,
      "inputs": [
        {
          "indexed": false,
          "internalType": "address",
          "name": "customer",
          "type": "address"
        },
        {
          "indexed": false,
          "internalType": "uint256",
          "name": "prodId",
          "type": "uint256"
        }
      ],
      "name": "CartProductRemoved",
      "type": "event"
    },
    {
      "anonymous": false,
      "inputs": [
        {
          "indexed": false,
          "internalType": "address",
          "name": "customer",
          "type": "address"
        }
      ],
      "name": "CustomerRegistered",
      "type": "event"
    },
    {
      "anonymous": false,
      "inputs": [
        {
          "indexed": false,
          "internalType": "address",
          "name": "customer",
          "type": "address"
        }
      ],
      "name": "CustomerRegistrationFailed",
      "type": "event"
    },
    {
      "anonymous": false,
      "inputs": [
        {
          "indexed": false,
          "internalType": "uint256",
          "name": "id",
          "type": "uint256"
        },
        {
          "indexed": false,
          "internalType": "string",
          "name": "name",
          "type": "string"
        },
        {
          "indexed": false,
          "internalType": "string",
          "name": "description",
          "type": "string"
        },
        {
          "indexed": false,
          "internalType": "uint256",
          "name": "price",
          "type": "uint256"
        },
        {
          "indexed": false,
          "internalType": "string",
          "name": "imgipfshash",
          "type": "string"
        },
        {
          "indexed": false,
          "internalType": "string",
          "name": "fileipfshash",
          "type": "string"
        },
        {
          "indexed": false,
          "internalType": "address",
          "name": "owner",
          "type": "address"
        }
      ],
      "name": "ProductCreated",
      "type": "event"
    },
    {
      "anonymous": false,
      "inputs": [
        {
          "indexed": false,
          "internalType": "uint256",
          "name": "id",
          "type": "uint256"
        },
        {
          "indexed": false,
          "internalType": "string",
          "name": "name",
          "type": "string"
        },
        {
          "indexed": false,
          "internalType": "string",
          "name": "description",
          "type": "string"
        },
        {
          "indexed": false,
          "internalType": "uint256",
          "name": "price",
          "type": "uint256"
        },
        {
          "indexed": false,
          "internalType": "string",
          "name": "imgipfshash",
          "type": "string"
        },
        {
          "indexed": false,
          "internalType": "address",
          "name": "owner",
          "type": "address"
        }
      ],
      "name": "ProductPurchased",
      "type": "event"
    },
    {
      "inputs": [
        {
          "internalType": "uint256",
          "name": "",
          "type": "uint256"
        }
      ],
      "name": "addressLUT",
      "outputs": [
        {
          "internalType": "address",
          "name": "",
          "type": "address"
        }
      ],
      "stateMutability": "view",
      "type": "function"
    },
    {
      "inputs": [],
      "name": "customerCount",
      "outputs": [
        {
          "internalType": "uint256",
          "name": "",
          "type": "uint256"
        }
      ],
      "stateMutability": "view",
      "type": "function"
    },
    {
      "inputs": [
        {
          "internalType": "address",
          "name": "",
          "type": "address"
        }
      ],
      "name": "customers",
      "outputs": [
        {
          "internalType": "address",
          "name": "adr",
          "type": "address"
        },
        {
          "internalType": "string",
          "name": "name",
          "type": "string"
        }
      ],
      "stateMutability": "view",
      "type": "function"
    },
    {
      "inputs": [
        {
          "internalType": "uint256",
          "name": "",
          "type": "uint256"
        }
      ],
      "name": "files",
      "outputs": [
        {
          "internalType": "string",
          "name": "",
          "type": "string"
        }
      ],
      "stateMutability": "view",
      "type": "function"
    },
    {
      "inputs": [],
      "name": "flag",
      "outputs": [
        {
          "internalType": "bool",
          "name": "",
          "type": "bool"
        }
      ],
      "stateMutability": "view",
      "type": "function"
    },
    {
      "inputs": [],
      "name": "productCount",
      "outputs": [
        {
          "internalType": "uint256",
          "name": "",
          "type": "uint256"
        }
      ],
      "stateMutability": "view",
      "type": "function"
    },
    {
      "inputs": [
        {
          "internalType": "uint256",
          "name": "",
          "type": "uint256"
        }
      ],
      "name": "products",
      "outputs": [
        {
          "internalType": "uint256",
          "name": "id",
          "type": "uint256"
        },
        {
          "internalType": "string",
          "name": "name",
          "type": "string"
        },
        {
          "internalType": "string",
          "name": "description",
          "type": "string"
        },
        {
          "internalType": "uint256",
          "name": "price",
          "type": "uint256"
        },
        {
          "internalType": "string",
          "name": "imgipfshash",
          "type": "string"
        },
        {
          "internalType": "address",
          "name": "owner",
          "type": "address"
        },
        {
          "internalType": "enum Marketplace.Categories",
          "name": "categorie",
          "type": "uint8"
        },
        {
          "internalType": "uint256",
          "name": "uploadedOn",
          "type": "uint256"
        },
        {
          "internalType": "uint256",
          "name": "rate",
          "type": "uint256"
        },
        {
          "internalType": "uint256",
          "name": "reviewsCount",
          "type": "uint256"
        },
        {
          "internalType": "uint256",
          "name": "totalSold",
          "type": "uint256"
        },
        {
          "internalType": "uint256",
          "name": "report",
          "type": "uint256"
        },
        {
          "internalType": "bool",
          "name": "removed",
          "type": "bool"
        }
      ],
      "stateMutability": "view",
      "type": "function"
    },
    {
      "inputs": [
        {
          "internalType": "string",
          "name": "_name",
          "type": "string"
        },
        {
          "internalType": "string",
          "name": "_description",
          "type": "string"
        },
        {
          "internalType": "uint256",
          "name": "_price",
          "type": "uint256"
        },
        {
          "internalType": "string",
          "name": "_imgipfshash",
          "type": "string"
        },
        {
          "internalType": "string",
          "name": "_fileipfshash",
          "type": "string"
        },
        {
          "internalType": "enum Marketplace.Categories",
          "name": "_categorie",
          "type": "uint8"
        }
      ],
      "name": "createProduct",
      "outputs": [],
      "stateMutability": "nonpayable",
      "type": "function"
    },
    {
      "inputs": [
        {
          "internalType": "uint256",
          "name": "_id",
          "type": "uint256"
        }
      ],
      "name": "purchaseProduct",
      "outputs": [],
      "stateMutability": "payable",
      "type": "function"
    },
    {
      "inputs": [
        {
          "internalType": "uint256",
          "name": "id1",
          "type": "uint256"
        }
      ],
      "name": "removeProduct",
      "outputs": [],
      "stateMutability": "nonpayable",
      "type": "function"
    },
    {
      "inputs": [
        {
          "internalType": "uint256",
          "name": "_id",
          "type": "uint256"
        },
        {
          "internalType": "string",
          "name": "_name",
          "type": "string"
        },
        {
          "internalType": "string",
          "name": "_des",
          "type": "string"
        },
        {
          "internalType": "uint256",
          "name": "_price",
          "type": "uint256"
        },
        {
          "internalType": "enum Marketplace.Categories",
          "name": "_categorie",
          "type": "uint8"
        }
      ],
      "name": "editProduct",
      "outputs": [],
      "stateMutability": "nonpayable",
      "type": "function"
    },
    {
      "inputs": [
        {
          "internalType": "uint256",
          "name": "_id",
          "type": "uint256"
        },
        {
          "internalType": "uint256",
          "name": "_rate",
          "type": "uint256"
        },
        {
          "internalType": "uint256",
          "name": "_score",
          "type": "uint256"
        },
        {
          "internalType": "string",
          "name": "_review",
          "type": "string"
        }
      ],
      "name": "reviewProduct",
      "outputs": [],
      "stateMutability": "nonpayable",
      "type": "function"
    },
    {
      "inputs": [
        {
          "internalType": "address",
          "name": "_address",
          "type": "address"
        },
        {
          "internalType": "string",
          "name": "_name",
          "type": "string"
        }
      ],
      "name": "registerCustomer",
      "outputs": [
        {
          "internalType": "bool",
          "name": "success",
          "type": "bool"
        }
      ],
      "stateMutability": "nonpayable",
      "type": "function"
    },
    {
      "inputs": [
        {
          "internalType": "uint256",
          "name": "_id",
          "type": "uint256"
        }
      ],
      "name": "hasReported",
      "outputs": [
        {
          "internalType": "bool",
          "name": "",
          "type": "bool"
        }
      ],
      "stateMutability": "view",
      "type": "function"
    },
    {
      "inputs": [
        {
          "internalType": "uint256",
          "name": "_id",
          "type": "uint256"
        }
      ],
      "name": "report",
      "outputs": [],
      "stateMutability": "nonpayable",
      "type": "function"
    },
    {
      "inputs": [
        {
          "internalType": "uint256",
          "name": "_id",
          "type": "uint256"
        }
      ],
      "name": "getReport",
      "outputs": [
        {
          "internalType": "uint256",
          "name": "",
          "type": "uint256"
        }
      ],
      "stateMutability": "view",
      "type": "function"
    },
    {
      "inputs": [
        {
          "internalType": "uint256",
          "name": "_id",
          "type": "uint256"
        }
      ],
      "name": "getProductReviews",
      "outputs": [
        {
          "components": [
            {
              "internalType": "bool",
              "name": "isBuy",
              "type": "bool"
            },
            {
              "internalType": "bool",
              "name": "isReview",
              "type": "bool"
            },
            {
              "internalType": "address",
              "name": "adr",
              "type": "address"
            },
            {
              "internalType": "string",
              "name": "name",
              "type": "string"
            },
            {
              "internalType": "uint256",
              "name": "rate",
              "type": "uint256"
            },
            {
              "internalType": "string",
              "name": "reviewDescription",
              "type": "string"
            },
            {
              "internalType": "uint256",
              "name": "score",
              "type": "uint256"
            },
            {
              "internalType": "uint256",
              "name": "timeStamp",
              "type": "uint256"
            }
          ],
          "internalType": "struct Marketplace.Review[]",
          "name": "",
          "type": "tuple[]"
        }
      ],
      "stateMutability": "view",
      "type": "function"
    },
    {
      "inputs": [
        {
          "internalType": "uint256",
          "name": "_id",
          "type": "uint256"
        }
      ],
      "name": "getProductBuyers",
      "outputs": [
        {
          "internalType": "address[]",
          "name": "",
          "type": "address[]"
        }
      ],
      "stateMutability": "view",
      "type": "function"
    },
    {
      "inputs": [
        {
          "internalType": "uint256",
          "name": "_id",
          "type": "uint256"
        }
      ],
      "name": "getProductfile",
      "outputs": [
        {
          "internalType": "string",
          "name": "",
          "type": "string"
        }
      ],
      "stateMutability": "view",
      "type": "function"
    },
    {
      "inputs": [
        {
          "internalType": "address",
          "name": "adr",
          "type": "address"
        }
      ],
      "name": "getPurchasedProducts",
      "outputs": [
        {
          "internalType": "uint256[]",
          "name": "",
          "type": "uint256[]"
        }
      ],
      "stateMutability": "view",
      "type": "function"
    }
  ],
  "bytecode": "0x608060405260008080556001556002805460ff19169055606460075534801561002757600080fd5b5061231b806100376000396000f3fe60806040526004361061015f5760003560e01c80637acc0b20116100c0578063aca4901811610074578063db1970f411610059578063db1970f414610425578063e0f6ef8714610445578063f4c714b41461045b57600080fd5b8063aca49018146103aa578063cc94f2d9146103f857600080fd5b8063890eba68116100a5578063890eba681461035a578063969b1cdb146103745780639757e8a31461039457600080fd5b80637acc0b20146103015780637b61b7021461033a57600080fd5b806342761c851161011757806346a4237b116100fc57806346a4237b146102765780634e7f9b19146102a35780635ee95cae146102e157600080fd5b806342761c851461022957806343308eef1461024957600080fd5b80630fb9398f116101485780630fb9398f146101bb578063336989ae146101e857806338e76a031461021657600080fd5b8063084874ce146101645780630b784d2d14610199575b600080fd5b34801561017057600080fd5b5061018461017f366004611ca8565b61047b565b60405190151581526020015b60405180910390f35b3480156101a557600080fd5b506101b96101b4366004611be2565b6104af565b005b3480156101c757600080fd5b506101db6101d6366004611ca8565b6106fc565b6040516101909190611edc565b3480156101f457600080fd5b50610208610203366004611b72565b61076b565b604051610190929190611eb2565b6101b9610224366004611ca8565b61081a565b34801561023557600080fd5b506101b9610244366004611d49565b610a70565b34801561025557600080fd5b50610269610264366004611ca8565b610da3565b6040516101909190612038565b34801561028257600080fd5b50610296610291366004611ca8565b610fa0565b6040516101909190611f29565b3480156102af57600080fd5b506102d36102be366004611ca8565b6000908152600360205260409020600e015490565b604051908152602001610190565b3480156102ed57600080fd5b506101b96102fc366004611ca8565b611190565b34801561030d57600080fd5b5061032161031c366004611ca8565b611275565b6040516101909d9c9b9a9998979695949392919061204b565b34801561034657600080fd5b506101b9610355366004611cc1565b611482565b34801561036657600080fd5b506002546101849060ff1681565b34801561038057600080fd5b506101b961038f366004611ca8565b611555565b3480156103a057600080fd5b506102d360015481565b3480156103b657600080fd5b506103e06103c5366004611ca8565b6005602052600090815260409020546001600160a01b031681565b6040516001600160a01b039091168152602001610190565b34801561040457600080fd5b50610418610413366004611b72565b6115c8565b6040516101909190612000565b34801561043157600080fd5b50610184610440366004611b94565b611636565b34801561045157600080fd5b506102d360005481565b34801561046757600080fd5b50610269610476366004611ca8565b611790565b6000818152600360209081526040808320338452600d0190915281205460ff166104a757506000919050565b506001919050565b60008651116104bd57600080fd5b60008551116104cb57600080fd5b600084116104d857600080fd5b60008351116104e657600080fd5b60008251116104f457600080fd5b6000805442918061050483612272565b9091555050600080548082526003602090815260409092209081558851610533926001909201918a019061182a565b50600080548152600360209081526040909120875161055a9260029092019189019061182a565b50600080548152600360208181526040808420909201889055825483529120855161058d9260049092019187019061182a565b5060008054815260066020908152604090912084516105ae9286019061182a565b50600080548152600360205260408082206005908101805473ffffffffffffffffffffffffffffffffffffffff1916331790558254835291200180548391907fffffffffffffffffffffff00ffffffffffffffffffffffffffffffffffffffff16600160a01b83600a811115610626576106266122a3565b02179055506000805481526003602081815260408084206006018590558354845280842060080184905583548452808420600e0184905583548452808420338552600d018252808420805460ff1916905583548452828252808420600a018490558051848152808301808352855486529390925290922091516106ad9260090191906118ae565b507f1a3f2c9175d23760b6304c5f19e98b7b12dd25309a0a92996815dcf864cece096000548888888888336040516106eb97969594939291906120f4565b60405180910390a150505050505050565b60008181526003602090815260409182902060090180548351818402810184019094528084526060939283018282801561075f57602002820191906000526020600020905b81546001600160a01b03168152600190910190602001808311610741575b50505050509050919050565b600460205260009081526040902080546001820180546001600160a01b0390921692916107979061223d565b80601f01602080910402602001604051908101604052809291908181526020018280546107c39061223d565b80156108105780601f106107e557610100808354040283529160200191610810565b820191906000526020600020905b8154815290600101906020018083116107f357829003601f168201915b5050505050905082565b6000818152600360205260409020600501546001600160a01b03163381141561088a5760405162461bcd60e51b815260206004820152601f60248201527f596f752063616e6e6f742062757920796f7572206f776e2070726f647563740060448201526064015b60405180910390fd5b600082815260036020526040902054158015906108b7575060008054838252600360205260409091205411155b6108c057600080fd5b600082815260036020819052604090912001543410156109225760405162461bcd60e51b815260206004820152601260248201527f496e73756666696369656e7420457468657200000000000000000000000000006044820152606401610881565b6001600160a01b03811633141561093857600080fd5b600082815260036020818152604080842033808652600c82018452918520805460ff1916600190811790915593835260098101805494850181558552918420909201805473ffffffffffffffffffffffffffffffffffffffff1916909217909155838252600a018054916109ab83612272565b90915550503360009081526004602090815260408083206002018054600181018255908452918320909101849055516001600160a01b038316913480156108fc02929091818181858888f19350505050158015610a0c573d6000803e3d6000fd5b5060008054838252600360208190526040928390209081015492517fa60391b5fc12a2bf84e95996952da9569290e72de60381dafc011bc0fbbd6af193610a649392600181019260028201929160040190339061216b565b60405180910390a15050565b6000848152600360209081526040808320338452600c0190915290205460ff161515600114610b075760405162461bcd60e51b815260206004820152602b60248201527f596f7520617265206e6f7420656c696769626c6520746f20726576696577207460448201527f6869732070726f647563740000000000000000000000000000000000000000006064820152608401610881565b6000848152600360209081526040808320338452600c01909152902054610100900460ff16610d9d57600084815260036020908152604080832033808552600c9091018084528285208054620100009093027fffffffffffffffffffff000000000000000000000000000000000000000000ff909316929092176101001782556004845291909320915260019081018054919092019190610ba79061223d565b610bb2929190611910565b506000848152600360208181526040808420338552600c018252909220600281018690558351610bea9391909201919084019061182a565b506000848152600360209081526040808320338452600c8101835290832060048101869055426005820155600b909101805460018082018355918552929093208154600690930201805460ff938416151560ff19821681178355835461010090819004909516151590940261ff001990941661ffff199091161792909217808355815462010000908190046001600160a01b0316027fffffffffffffffffffff0000000000000000000000000000000000000000ffff90911617825582810180549193830191610cb99061223d565b610cc4929190611910565b50600282015481600201556003820181600301908054610ce39061223d565b610cee929190611910565b50600482810154908201556005918201549101556000848152600360205260408120600801805491610d1f83612272565b9091555050600084815260036020526040812060080154610d4290600190612226565b600086815260036020526040902060070154610d5e9190612207565b9050610d6a84826121cd565b600086815260036020526040902060080154909150610d8990826121e5565b600086815260036020526040902060070155505b50505050565b6000818152600360205260409020600501546060906001600160a01b0316331415610e5c5760008281526006602052604090208054610de19061223d565b80601f0160208091040260200160405190810160405280929190818152602001828054610e0d9061223d565b801561075f5780601f10610e2f5761010080835404028352916020019161075f565b820191906000526020600020905b815481529060010190602001808311610e3d5750939695505050505050565b60008281526003602052604090206009015415610f875760005b600083815260036020526040902060090154811015610f81576000838152600360205260409020600901805433919083908110610eb557610eb56122b9565b6000918252602090912001546001600160a01b03161415610f6f5760008381526006602052604090208054610ee99061223d565b80601f0160208091040260200160405190810160405280929190818152602001828054610f159061223d565b8015610f625780601f10610f3757610100808354040283529160200191610f62565b820191906000526020600020905b815481529060010190602001808311610f4557829003601f168201915b5050505050915050919050565b80610f7981612272565b915050610e76565b50919050565b505060408051602081019091526000815290565b919050565b606060036000838152602001908152602001600020600b01805480602002602001604051908101604052809291908181526020016000905b8282101561118557600084815260209081902060408051610100808201835260068702909301805460ff80821615158452948104909416151594820194909452620100009092046001600160a01b0316908201526001820180549192916060840191906110449061223d565b80601f01602080910402602001604051908101604052809291908181526020018280546110709061223d565b80156110bd5780601f10611092576101008083540402835291602001916110bd565b820191906000526020600020905b8154815290600101906020018083116110a057829003601f168201915b50505050508152602001600282015481526020016003820180546110e09061223d565b80601f016020809104026020016040519081016040528092919081815260200182805461110c9061223d565b80156111595780601f1061112e57610100808354040283529160200191611159565b820191906000526020600020905b81548152906001019060200180831161113c57829003601f168201915b505050505081526020016004820154815260200160058201548152505081526020019060010190610fd8565b505050509050919050565b6000818152600360205260409020600501546001600160a01b0316331415611272576000818152600360205260408120818155906111d1600183018261198b565b6111df60028301600061198b565b60038201600090556004820160006111f7919061198b565b6005820180547fffffffffffffffffffffff00000000000000000000000000000000000000000016905560006006830181905560078301819055600883018190556112469060098401906119c5565b600a820160009055600b8201600061125e91906119e3565b506000600e820155600f01805460ff191690555b50565b600360205260009081526040902080546001820180549192916112979061223d565b80601f01602080910402602001604051908101604052809291908181526020018280546112c39061223d565b80156113105780601f106112e557610100808354040283529160200191611310565b820191906000526020600020905b8154815290600101906020018083116112f357829003601f168201915b5050505050908060020180546113259061223d565b80601f01602080910402602001604051908101604052809291908181526020018280546113519061223d565b801561139e5780601f106113735761010080835404028352916020019161139e565b820191906000526020600020905b81548152906001019060200180831161138157829003601f168201915b5050505050908060030154908060040180546113b99061223d565b80601f01602080910402602001604051908101604052809291908181526020018280546113e59061223d565b80156114325780601f1061140757610100808354040283529160200191611432565b820191906000526020600020905b81548152906001019060200180831161141557829003601f168201915b5050506005840154600685015460078601546008870154600a880154600e890154600f9099015497986001600160a01b0386169860ff600160a01b9097048716985094965092949193909291168d565b6000858152600360205260409020600501546001600160a01b031633141561154e57600085815260036020908152604090912085516114c99260019092019187019061182a565b50600085815260036020908152604090912084516114ef9260029092019186019061182a565b50600085815260036020819052604090912090810183905560050180548291907fffffffffffffffffffffff00ffffffffffffffffffffffffffffffffffffffff16600160a01b83600a811115611548576115486122a3565b02179055505b5050505050565b61155e8161047b565b611272576000818152600360205260408120600e0180549161157f83612272565b90915550506000818152600360208181526040808420338552600d81018352908420805460ff1916600117905560075493859052919052600e0154106112725761127281611190565b6001600160a01b03811660009081526004602090815260409182902060020180548351818402810184019094528084526060939283018282801561075f57602002820191906000526020600020905b8154815260200190600101908083116116175750505050509050919050565b6000806040518060600160405280856001600160a01b03168152602001848152602001600067ffffffffffffffff811115611673576116736122cf565b60405190808252806020026020018201604052801561169c578160200160208202803683370190505b5090526001805491925060006116b183612272565b9091555050805160018054600090815260056020908152604080832080546001600160a01b0396871673ffffffffffffffffffffffffffffffffffffffff19918216179091558986168452600483529220855181549516949092169390931781558284015180518594929361172b9390850192019061182a565b5060408201518051611747916002840191602090910190611a04565b50506040516001600160a01b03861681527f155e8619f4d23b96769599cb9af87da3e06a360082869c18578011da9a06e670915060200160405180910390a15060019392505050565b600660205260009081526040902080546117a99061223d565b80601f01602080910402602001604051908101604052809291908181526020018280546117d59061223d565b80156118225780601f106117f757610100808354040283529160200191611822565b820191906000526020600020905b81548152906001019060200180831161180557829003601f168201915b505050505081565b8280546118369061223d565b90600052602060002090601f016020900481019282611858576000855561189e565b82601f1061187157805160ff191683800117855561189e565b8280016001018555821561189e579182015b8281111561189e578251825591602001919060010190611883565b506118aa929150611a3e565b5090565b82805482825590600052602060002090810192821561189e579160200282015b8281111561189e578251825473ffffffffffffffffffffffffffffffffffffffff19166001600160a01b039091161782556020909201916001909101906118ce565b82805461191c9061223d565b90600052602060002090601f01602090048101928261193e576000855561189e565b82601f1061194f578054855561189e565b8280016001018555821561189e57600052602060002091601f016020900482015b8281111561189e578254825591600101919060010190611970565b5080546119979061223d565b6000825580601f106119a7575050565b601f0160209004906000526020600020908101906112729190611a3e565b50805460008255906000526020600020908101906112729190611a3e565b50805460008255600602906000526020600020908101906112729190611a53565b82805482825590600052602060002090810192821561189e579160200282018281111561189e578251825591602001919060010190611883565b5b808211156118aa5760008155600101611a3f565b808211156118aa5780547fffffffffffffffffffff000000000000000000000000000000000000000000001681556000611a90600183018261198b565b6002820160009055600382016000611aa8919061198b565b506000600482018190556005820155600601611a53565b80356001600160a01b0381168114610f9b57600080fd5b8035600b8110610f9b57600080fd5b600082601f830112611af657600080fd5b813567ffffffffffffffff80821115611b1157611b116122cf565b604051601f8301601f19908116603f01168101908282118183101715611b3957611b396122cf565b81604052838152866020858801011115611b5257600080fd5b836020870160208301376000602085830101528094505050505092915050565b600060208284031215611b8457600080fd5b611b8d82611abf565b9392505050565b60008060408385031215611ba757600080fd5b611bb083611abf565b9150602083013567ffffffffffffffff811115611bcc57600080fd5b611bd885828601611ae5565b9150509250929050565b60008060008060008060c08789031215611bfb57600080fd5b863567ffffffffffffffff80821115611c1357600080fd5b611c1f8a838b01611ae5565b97506020890135915080821115611c3557600080fd5b611c418a838b01611ae5565b9650604089013595506060890135915080821115611c5e57600080fd5b611c6a8a838b01611ae5565b94506080890135915080821115611c8057600080fd5b50611c8d89828a01611ae5565b925050611c9c60a08801611ad6565b90509295509295509295565b600060208284031215611cba57600080fd5b5035919050565b600080600080600060a08688031215611cd957600080fd5b85359450602086013567ffffffffffffffff80821115611cf857600080fd5b611d0489838a01611ae5565b95506040880135915080821115611d1a57600080fd5b50611d2788828901611ae5565b93505060608601359150611d3d60808701611ad6565b90509295509295909350565b60008060008060808587031215611d5f57600080fd5b843593506020850135925060408501359150606085013567ffffffffffffffff811115611d8b57600080fd5b611d9787828801611ae5565b91505092959194509250565b600b8110611dc157634e487b7160e01b600052602160045260246000fd5b9052565b6000815180845260005b81811015611deb57602081850181015186830182015201611dcf565b81811115611dfd576000602083870101525b50601f01601f19169290920160200192915050565b8054600090600181811c9080831680611e2c57607f831692505b6020808410821415611e4e57634e487b7160e01b600052602260045260246000fd5b83885260208801828015611e695760018114611e7a57611ea5565b60ff19871682528282019750611ea5565b60008981526020902060005b87811015611e9f57815484820152908601908401611e86565b83019850505b5050505050505092915050565b6001600160a01b0383168152604060208201526000611ed46040830184611dc5565b949350505050565b6020808252825182820181905260009190848201906040850190845b81811015611f1d5783516001600160a01b031683529284019291840191600101611ef8565b50909695505050505050565b60006020808301818452808551808352604092508286019150828160051b87010184880160005b83811015611ff257603f19898403018552815180511515845287810151151588850152868101516001600160a01b0316878501526060808201516101008287018190529190611fa183880182611dc5565b92505050608080830151818701525060a08083015186830382880152611fc78382611dc5565b60c0858101519089015260e09485015194909701939093525050509386019390860190600101611f50565b509098975050505050505050565b6020808252825182820181905260009190848201906040850190845b81811015611f1d5783518352928401929184019160010161201c565b602081526000611b8d6020830184611dc5565b8d81526101a0602082015260006120666101a083018f611dc5565b8281036040840152612078818f611dc5565b90508c60608401528281036080840152612092818d611dc5565b9150506001600160a01b038a1660a08301526120b160c083018a611da3565b8760e0830152866101008301528561012083015284610140830152836101608301526120e261018083018415159052565b9e9d5050505050505050505050505050565b87815260e06020820152600061210d60e0830189611dc5565b828103604084015261211f8189611dc5565b905086606084015282810360808401526121398187611dc5565b905082810360a084015261214d8186611dc5565b9150506001600160a01b03831660c083015298975050505050505050565b86815260c06020820152600061218460c0830188611e12565b82810360408401526121968188611e12565b905085606084015282810360808401526121b08186611e12565b9150506001600160a01b03831660a0830152979650505050505050565b600082198211156121e0576121e061228d565b500190565b60008261220257634e487b7160e01b600052601260045260246000fd5b500490565b60008160001904831182151516156122215761222161228d565b500290565b6000828210156122385761223861228d565b500390565b600181811c9082168061225157607f821691505b60208210811415610f8157634e487b7160e01b600052602260045260246000fd5b60006000198214156122865761228661228d565b5060010190565b634e487b7160e01b600052601160045260246000fd5b634e487b7160e01b600052602160045260246000fd5b634e487b7160e01b600052603260045260246000fd5b634e487b7160e01b600052604160045260246000fdfea2646970667358221220ee043ab6114f01cef0977db56c686aab1dd69c854d5fd7cfc38fa495e76ec43364736f6c63430008070033",
  "immutableReferences": {},
  "source": "//buyer w purchasedProduct\r\n//raters\r\n// SPDX-License-Identifier: MIT\r\npragma solidity  ^0.8.0;\r\n\r\ncontract Marketplace {\r\n    //string public name;\r\n    uint public productCount = 0;\r\n    uint public customerCount = 0;\r\n    //to store the products on blockchain\r\n    bool public flag = false;\r\n    mapping(uint => Product) public products;\r\n    //mapping(uint => uint[]) public productsRates;\r\n    //mapping(uint => string[]) public productsReviews;\r\n    //to store the customers on blockchain\r\n    mapping(address  => Customer) public customers;\r\n    mapping(uint => address) public addressLUT;\r\n    mapping(uint => string) public files;\r\n    uint256 MAXREPORT = 100;\r\n    \r\n    enum Categories {\r\n        Tech,\r\n        PCGames,\r\n        PS4Games,\r\n        XboxGames,\r\n        Movies,\r\n        Courses,\r\n        Books,\r\n        AudioBooks,\r\n        Images,\r\n        Videos,\r\n        Other\r\n    }\r\n    struct Review{\r\n        bool isBuy;\r\n        bool isReview;\r\n        address adr;\r\n        string name;\r\n        uint256 rate;\r\n        string reviewDescription;\r\n        uint256 score;\r\n        uint timeStamp;\r\n    }\r\n    struct Customer {\r\n        address adr;\r\n        string name;\r\n        uint256[] purchasedProducts;\r\n        \r\n    }\r\n\r\n    struct Product {\r\n        uint id;\r\n        string name;\r\n        string description;\r\n        uint price;\r\n        string imgipfshash;\r\n        address owner;\r\n        Categories categorie;\r\n        uint256 uploadedOn;\r\n        uint256 rate;\r\n        uint256 reviewsCount;\r\n        address[] buyers;\r\n        uint256 totalSold;\r\n        Review [] reviews;\r\n        mapping (address=>Review) productUserReview;\r\n        mapping (address => bool)hasReported;\r\n        uint report;\r\n        bool removed;\r\n    }\r\n\r\n    event ProductCreated(uint id, string name, string description, uint price, string imgipfshash, string fileipfshash, address owner);\r\n    event ProductPurchased(uint id, string name, string description, uint price, string imgipfshash, address owner);\r\n    event CustomerRegistered(address customer);\r\n    event CustomerRegistrationFailed(address customer);\r\n    event CartProductInserted(address customer, uint256 prodId, uint256 prodPrice, uint256 completeSum);\r\n    event CartProductInsertionFailed(address customer, uint256 prodId);\r\n    event CartProductRemoved(address customer, uint256 prodId);\r\n    event CartEmptied(address customer);\r\n\r\n    // Create a new product with a struct\r\n    // Add the struct to the mapping, and store it on the blockchain\r\n    // Trigger an event that lets someone know a product was creatd\r\n    function createProduct(string memory _name,string memory _description, uint _price,string memory _imgipfshash,string memory _fileipfshash , Categories _categorie ) public {\r\n        // Require a valid name\r\n        require(bytes(_name).length > 0);\r\n        // Require a valid description\r\n        require(bytes(_description).length > 0);\r\n        // Require a valid price\r\n        require(_price > 0);\r\n        // Require a valid image hash\r\n        require(bytes(_imgipfshash).length > 0);\r\n        // Require a valid file hash\r\n        require(bytes(_fileipfshash).length > 0);\r\n        // Increment product count\r\n        uint256 _uploadedOn = block.timestamp;\r\n        //increment number of products\r\n        productCount ++;\r\n        //add this Product to the products map\r\n        products[productCount].id = productCount;\r\n        products[productCount].name = _name;\r\n        products[productCount].description = _description;\r\n        products[productCount].price = _price;\r\n        products[productCount].imgipfshash = _imgipfshash;\r\n        files[productCount] = _fileipfshash;\r\n        products[productCount].owner = msg.sender;\r\n        products[productCount].categorie = _categorie;\r\n        products[productCount].uploadedOn = _uploadedOn;\r\n        products[productCount].reviewsCount = 0;\r\n        products[productCount].report = 0;\r\n        products[productCount].hasReported[msg.sender] = false;\r\n        products[productCount].totalSold = 0;\r\n        products[productCount].buyers = new address[](0);\r\n        //products[productCount].removed = false;\r\n        //add this product to the customer's owned product\r\n        //create an event\r\n        emit ProductCreated(productCount, _name, _description, _price, _imgipfshash,_fileipfshash, msg.sender);\r\n    }\r\n\r\n    function purchaseProduct(uint _id) public payable {\r\n        // Fetch the owner\r\n        address _seller = products[_id].owner;\r\n        require(products[_id].owner != msg.sender, \"You cannot buy your own product\");\r\n        // Make sure the product has a valid id\r\n        require(products[_id].id > 0 && products[_id].id <= productCount);\r\n        // Require that there is enough Ether in the transaction\r\n        require(msg.value >= products[_id].price, \"Insufficient Ether\");\r\n        // Require that the buyer is not the seller\r\n        require(_seller != msg.sender);\r\n        //add to products a user can revie\r\n        products[_id].productUserReview[msg.sender].isBuy = true;\r\n        //add this customer to the people who bought this product\r\n        products[_id].buyers.push(msg.sender);\r\n        //update total purchases\r\n        products[_id].totalSold++;\r\n        //add to the products owners\r\n        customers[msg.sender].purchasedProducts.push(_id);\r\n        // Pay the seller by sending them Ether\r\n        payable(_seller).transfer(msg.value);\r\n        // Trigger an event\r\n        emit ProductPurchased(productCount, products[_id].name,products[_id].description, products[_id].price, products[_id].imgipfshash, msg.sender);\r\n    }\r\n    /* function removeProduct(uint id1) public {\r\n         if(msg.sender == products[id1].owner){\r\n             products[id1].removed = true;\r\n         }\r\n     }*/\r\n    function removeProduct(uint id1) public {\r\n        if(msg.sender == products[id1].owner){\r\n            delete products [id1];\r\n        }\r\n    }\r\n    function editProduct(uint256 _id , string memory _name , string memory _des , uint _price , Categories _categorie) public{\r\n        if(msg.sender == products[_id].owner){\r\n            products[_id].name = _name;\r\n            products[_id].description = _des;\r\n            products[_id].price = _price;\r\n            products[_id].categorie = _categorie;\r\n            \r\n        }\r\n    }\r\n    function reviewProduct(uint _id,uint256 _rate,uint256 _score, string memory _review) public\r\n    {\r\n           require(products[_id].productUserReview[msg.sender].isBuy == true, \"You are not eligible to review this product\");\r\n           if (products[_id].productUserReview[msg.sender].isReview == false){ //only once\r\n               products[_id].productUserReview[msg.sender].isReview = true;\r\n               products[_id].productUserReview[msg.sender].adr = msg.sender;\r\n               products[_id].productUserReview[msg.sender].name = customers[msg.sender].name;\r\n               products[_id].productUserReview[msg.sender].rate = _rate;\r\n               products[_id].productUserReview[msg.sender].reviewDescription = _review;\r\n               products[_id].productUserReview[msg.sender].score = _score;\r\n               products[_id].productUserReview[msg.sender].timeStamp = block.timestamp;\r\n\r\n    \r\n               products[_id].reviews.push(products[_id].productUserReview[msg.sender]);\r\n    \r\n               products[_id].reviewsCount ++;\r\n               \r\n               //calculate and update product rate\r\n                uint avg = (products[_id].rate) * (products[_id].reviewsCount - 1);\r\n                avg += _rate;\r\n                products[_id].rate = avg / products[_id].reviewsCount;\r\n           }\r\n\r\n    }\r\n\r\n    function registerCustomer(address _address, string memory _name)\r\n                                        public returns (bool success) {\r\n        Customer memory customer = Customer(_address, _name,new uint256[](0));\r\n        customerCount++;\r\n        addressLUT[customerCount]=customer.adr;\r\n        customers[_address] = customer;\r\n        emit CustomerRegistered(_address);\r\n        return true;\r\n    }\r\n    function hasReported(uint _id) public view returns(bool){\r\n        if(products[_id].hasReported[msg.sender] == false)\r\n            return false;\r\n        return true;\r\n    } \r\n    function report(uint _id) public {\r\n        if(!hasReported(_id)){\r\n            products[_id].report++;\r\n            products[_id].hasReported[msg.sender] = true;\r\n            if(products[_id].report >= MAXREPORT){\r\n                removeProduct(_id);\r\n            }\r\n        }\r\n    }\r\n    function getReport(uint _id) public view returns(uint){\r\n        return products[_id].report;\r\n    }\r\n    function getProductReviews(uint _id) public view returns (Review[] memory){\r\n        return products[_id].reviews;\r\n    }\r\n    function getProductBuyers(uint _id) public view returns(address[] memory){\r\n        return products[_id].buyers;\r\n    }\r\n    function getProductfile(uint _id) public view returns(string memory){\r\n        if(products[_id].owner == msg.sender){\r\n            return files[_id];\r\n        }\r\n        else if(products[_id].buyers.length > 0)\r\n        for(uint i=0;i<products[_id].buyers.length;i++){\r\n            if(products[_id].buyers[i] == msg.sender)\r\n                return files[_id];\r\n        }\r\n        else\r\n        return \"\";\r\n    }\r\n    function getPurchasedProducts(address adr) public view returns( uint256[] memory){\r\n        return customers[adr].purchasedProducts;\r\n    }\r\n\r\n}",
  "sourcePath": "C:\\Users\\carol\\Desktop\\marketplace\\src\\contracts\\Marketplace.sol",
  "compiler": {
    "name": "solc",
    "version": "0.8.7+commit.e28d00a7.Emscripten.clang"
  },
  "schemaVersion": "3.4.2",
  "updatedAt": "2021-08-29T18:45:12.180Z",
  "devdoc": {
    "kind": "dev",
    "methods": {},
    "version": 1
  },
  "userdoc": {
    "kind": "user",
    "methods": {},
    "version": 1
  }
}