{
  "contractName": "Marketplace",
  "abi": [
    {
      "anonymous": false,
      "inputs": [
        {
          "indexed": false,
          "internalType": "address",
          "name": "customer",
          "type": "address"
        }
      ],
      "name": "CartEmptied",
      "type": "event"
    },
    {
      "anonymous": false,
      "inputs": [
        {
          "indexed": false,
          "internalType": "address",
          "name": "customer",
          "type": "address"
        },
        {
          "indexed": false,
          "internalType": "uint256",
          "name": "prodId",
          "type": "uint256"
        },
        {
          "indexed": false,
          "internalType": "uint256",
          "name": "prodPrice",
          "type": "uint256"
        },
        {
          "indexed": false,
          "internalType": "uint256",
          "name": "completeSum",
          "type": "uint256"
        }
      ],
      "name": "CartProductInserted",
      "type": "event"
    },
    {
      "anonymous": false,
      "inputs": [
        {
          "indexed": false,
          "internalType": "address",
          "name": "customer",
          "type": "address"
        },
        {
          "indexed": false,
          "internalType": "uint256",
          "name": "prodId",
          "type": "uint256"
        }
      ],
      "name": "CartProductInsertionFailed",
      "type": "event"
    },
    {
      "anonymous": false,
      "inputs": [
        {
          "indexed": false,
          "internalType": "address",
          "name": "customer",
          "type": "address"
        },
        {
          "indexed": false,
          "internalType": "uint256",
          "name": "prodId",
          "type": "uint256"
        }
      ],
      "name": "CartProductRemoved",
      "type": "event"
    },
    {
      "anonymous": false,
      "inputs": [
        {
          "indexed": false,
          "internalType": "address",
          "name": "customer",
          "type": "address"
        }
      ],
      "name": "CustomerRegistered",
      "type": "event"
    },
    {
      "anonymous": false,
      "inputs": [
        {
          "indexed": false,
          "internalType": "address",
          "name": "customer",
          "type": "address"
        }
      ],
      "name": "CustomerRegistrationFailed",
      "type": "event"
    },
    {
      "anonymous": false,
      "inputs": [
        {
          "indexed": false,
          "internalType": "uint256",
          "name": "id",
          "type": "uint256"
        },
        {
          "indexed": false,
          "internalType": "string",
          "name": "name",
          "type": "string"
        },
        {
          "indexed": false,
          "internalType": "string",
          "name": "description",
          "type": "string"
        },
        {
          "indexed": false,
          "internalType": "uint256",
          "name": "price",
          "type": "uint256"
        },
        {
          "indexed": false,
          "internalType": "string",
          "name": "imgipfshash",
          "type": "string"
        },
        {
          "indexed": false,
          "internalType": "string",
          "name": "fileipfshash",
          "type": "string"
        },
        {
          "indexed": false,
          "internalType": "address",
          "name": "owner",
          "type": "address"
        },
        {
          "indexed": false,
          "internalType": "bool",
          "name": "purchased",
          "type": "bool"
        }
      ],
      "name": "ProductCreated",
      "type": "event"
    },
    {
      "anonymous": false,
      "inputs": [
        {
          "indexed": false,
          "internalType": "uint256",
          "name": "id",
          "type": "uint256"
        },
        {
          "indexed": false,
          "internalType": "string",
          "name": "name",
          "type": "string"
        },
        {
          "indexed": false,
          "internalType": "string",
          "name": "description",
          "type": "string"
        },
        {
          "indexed": false,
          "internalType": "uint256",
          "name": "price",
          "type": "uint256"
        },
        {
          "indexed": false,
          "internalType": "string",
          "name": "imgipfshash",
          "type": "string"
        },
        {
          "indexed": false,
          "internalType": "string",
          "name": "fileipfshash",
          "type": "string"
        },
        {
          "indexed": false,
          "internalType": "address",
          "name": "owner",
          "type": "address"
        },
        {
          "indexed": false,
          "internalType": "bool",
          "name": "purchased",
          "type": "bool"
        }
      ],
      "name": "ProductPurchased",
      "type": "event"
    },
    {
      "inputs": [
        {
          "internalType": "uint256",
          "name": "",
          "type": "uint256"
        }
      ],
      "name": "addressLUT",
      "outputs": [
        {
          "internalType": "address",
          "name": "",
          "type": "address"
        }
      ],
      "stateMutability": "view",
      "type": "function",
      "constant": true
    },
    {
      "inputs": [
        {
          "internalType": "enum Marketplace.Categories",
          "name": "",
          "type": "uint8"
        },
        {
          "internalType": "uint256",
          "name": "",
          "type": "uint256"
        }
      ],
      "name": "categorieToProduct",
      "outputs": [
        {
          "internalType": "uint256",
          "name": "",
          "type": "uint256"
        }
      ],
      "stateMutability": "view",
      "type": "function",
      "constant": true
    },
    {
      "inputs": [],
      "name": "customerCount",
      "outputs": [
        {
          "internalType": "uint256",
          "name": "",
          "type": "uint256"
        }
      ],
      "stateMutability": "view",
      "type": "function",
      "constant": true
    },
    {
      "inputs": [
        {
          "internalType": "address",
          "name": "",
          "type": "address"
        }
      ],
      "name": "customers",
      "outputs": [
        {
          "internalType": "address",
          "name": "adr",
          "type": "address"
        },
        {
          "internalType": "string",
          "name": "name",
          "type": "string"
        },
        {
          "components": [
            {
              "internalType": "uint256[]",
              "name": "products",
              "type": "uint256[]"
            },
            {
              "internalType": "uint256",
              "name": "completeSum",
              "type": "uint256"
            }
          ],
          "internalType": "struct Marketplace.Cart",
          "name": "cart",
          "type": "tuple"
        }
      ],
      "stateMutability": "view",
      "type": "function",
      "constant": true
    },
    {
      "inputs": [
        {
          "internalType": "uint256",
          "name": "",
          "type": "uint256"
        }
      ],
      "name": "emptySpaces",
      "outputs": [
        {
          "internalType": "uint256",
          "name": "",
          "type": "uint256"
        }
      ],
      "stateMutability": "view",
      "type": "function",
      "constant": true
    },
    {
      "inputs": [],
      "name": "flag",
      "outputs": [
        {
          "internalType": "bool",
          "name": "",
          "type": "bool"
        }
      ],
      "stateMutability": "view",
      "type": "function",
      "constant": true
    },
    {
      "inputs": [],
      "name": "ftt",
      "outputs": [
        {
          "internalType": "uint256",
          "name": "",
          "type": "uint256"
        }
      ],
      "stateMutability": "view",
      "type": "function",
      "constant": true
    },
    {
      "inputs": [],
      "name": "len",
      "outputs": [
        {
          "internalType": "uint256",
          "name": "",
          "type": "uint256"
        }
      ],
      "stateMutability": "view",
      "type": "function",
      "constant": true
    },
    {
      "inputs": [
        {
          "internalType": "address",
          "name": "",
          "type": "address"
        },
        {
          "internalType": "uint256",
          "name": "",
          "type": "uint256"
        }
      ],
      "name": "ownerToProducts",
      "outputs": [
        {
          "internalType": "uint256",
          "name": "id",
          "type": "uint256"
        },
        {
          "internalType": "string",
          "name": "name",
          "type": "string"
        },
        {
          "internalType": "string",
          "name": "description",
          "type": "string"
        },
        {
          "internalType": "uint256",
          "name": "price",
          "type": "uint256"
        },
        {
          "internalType": "string",
          "name": "imgipfshash",
          "type": "string"
        },
        {
          "internalType": "string",
          "name": "fileipfshash",
          "type": "string"
        },
        {
          "internalType": "address",
          "name": "owner",
          "type": "address"
        },
        {
          "internalType": "bool",
          "name": "purchased",
          "type": "bool"
        },
        {
          "internalType": "enum Marketplace.Categories",
          "name": "categorie",
          "type": "uint8"
        },
        {
          "internalType": "uint256",
          "name": "uploadedOn",
          "type": "uint256"
        }
      ],
      "stateMutability": "view",
      "type": "function",
      "constant": true
    },
    {
      "inputs": [],
      "name": "productCount",
      "outputs": [
        {
          "internalType": "uint256",
          "name": "",
          "type": "uint256"
        }
      ],
      "stateMutability": "view",
      "type": "function",
      "constant": true
    },
    {
      "inputs": [
        {
          "internalType": "uint256",
          "name": "",
          "type": "uint256"
        }
      ],
      "name": "products",
      "outputs": [
        {
          "internalType": "uint256",
          "name": "id",
          "type": "uint256"
        },
        {
          "internalType": "string",
          "name": "name",
          "type": "string"
        },
        {
          "internalType": "string",
          "name": "description",
          "type": "string"
        },
        {
          "internalType": "uint256",
          "name": "price",
          "type": "uint256"
        },
        {
          "internalType": "string",
          "name": "imgipfshash",
          "type": "string"
        },
        {
          "internalType": "string",
          "name": "fileipfshash",
          "type": "string"
        },
        {
          "internalType": "address",
          "name": "owner",
          "type": "address"
        },
        {
          "internalType": "bool",
          "name": "purchased",
          "type": "bool"
        },
        {
          "internalType": "enum Marketplace.Categories",
          "name": "categorie",
          "type": "uint8"
        },
        {
          "internalType": "uint256",
          "name": "uploadedOn",
          "type": "uint256"
        }
      ],
      "stateMutability": "view",
      "type": "function",
      "constant": true
    },
    {
      "inputs": [
        {
          "internalType": "uint256",
          "name": "",
          "type": "uint256"
        },
        {
          "internalType": "uint256",
          "name": "",
          "type": "uint256"
        }
      ],
      "name": "productsRates",
      "outputs": [
        {
          "internalType": "uint256",
          "name": "",
          "type": "uint256"
        }
      ],
      "stateMutability": "view",
      "type": "function",
      "constant": true
    },
    {
      "inputs": [
        {
          "internalType": "uint256",
          "name": "",
          "type": "uint256"
        },
        {
          "internalType": "uint256",
          "name": "",
          "type": "uint256"
        }
      ],
      "name": "productsReviews",
      "outputs": [
        {
          "internalType": "string",
          "name": "",
          "type": "string"
        }
      ],
      "stateMutability": "view",
      "type": "function",
      "constant": true
    },
    {
      "inputs": [
        {
          "internalType": "string",
          "name": "_name",
          "type": "string"
        },
        {
          "internalType": "string",
          "name": "_description",
          "type": "string"
        },
        {
          "internalType": "uint256",
          "name": "_price",
          "type": "uint256"
        },
        {
          "internalType": "string",
          "name": "_imgipfshash",
          "type": "string"
        },
        {
          "internalType": "string",
          "name": "_fileipfshash",
          "type": "string"
        },
        {
          "internalType": "enum Marketplace.Categories",
          "name": "_categorie",
          "type": "uint8"
        }
      ],
      "name": "createProduct",
      "outputs": [],
      "stateMutability": "nonpayable",
      "type": "function"
    },
    {
      "inputs": [
        {
          "internalType": "uint256",
          "name": "id1",
          "type": "uint256"
        }
      ],
      "name": "removeProduct",
      "outputs": [],
      "stateMutability": "nonpayable",
      "type": "function"
    },
    {
      "inputs": [
        {
          "internalType": "uint256",
          "name": "id1",
          "type": "uint256"
        }
      ],
      "name": "removeNestedProduct",
      "outputs": [],
      "stateMutability": "nonpayable",
      "type": "function"
    },
    {
      "inputs": [
        {
          "internalType": "uint256",
          "name": "_id",
          "type": "uint256"
        }
      ],
      "name": "purchaseProduct",
      "outputs": [],
      "stateMutability": "payable",
      "type": "function",
      "payable": true
    },
    {
      "inputs": [
        {
          "internalType": "uint256",
          "name": "_id",
          "type": "uint256"
        },
        {
          "internalType": "string",
          "name": "_name",
          "type": "string"
        },
        {
          "internalType": "string",
          "name": "_des",
          "type": "string"
        },
        {
          "internalType": "uint256",
          "name": "_price",
          "type": "uint256"
        },
        {
          "internalType": "string",
          "name": "_imgipfshash",
          "type": "string"
        },
        {
          "internalType": "enum Marketplace.Categories",
          "name": "_categorie",
          "type": "uint8"
        }
      ],
      "name": "editProduct",
      "outputs": [],
      "stateMutability": "nonpayable",
      "type": "function"
    },
    {
      "inputs": [
        {
          "internalType": "uint256",
          "name": "_rate",
          "type": "uint256"
        },
        {
          "internalType": "uint256",
          "name": "pos_in_prod_mapping",
          "type": "uint256"
        }
      ],
      "name": "giveRate",
      "outputs": [],
      "stateMutability": "nonpayable",
      "type": "function"
    },
    {
      "inputs": [
        {
          "internalType": "string",
          "name": "_review",
          "type": "string"
        },
        {
          "internalType": "uint256",
          "name": "pos_in_prod_mapping",
          "type": "uint256"
        }
      ],
      "name": "writeReview",
      "outputs": [],
      "stateMutability": "nonpayable",
      "type": "function"
    },
    {
      "inputs": [
        {
          "internalType": "uint256",
          "name": "id",
          "type": "uint256"
        }
      ],
      "name": "insertProductIntoCart",
      "outputs": [
        {
          "internalType": "bool",
          "name": "success",
          "type": "bool"
        },
        {
          "internalType": "uint256",
          "name": "pos_in_prod_mapping",
          "type": "uint256"
        }
      ],
      "stateMutability": "nonpayable",
      "type": "function"
    },
    {
      "inputs": [
        {
          "internalType": "uint256",
          "name": "prod_pos_in_mapping",
          "type": "uint256"
        }
      ],
      "name": "removeProductFromCart",
      "outputs": [],
      "stateMutability": "nonpayable",
      "type": "function"
    },
    {
      "inputs": [],
      "name": "emptyCart",
      "outputs": [
        {
          "internalType": "bool",
          "name": "success",
          "type": "bool"
        }
      ],
      "stateMutability": "nonpayable",
      "type": "function"
    },
    {
      "inputs": [
        {
          "internalType": "address",
          "name": "_address",
          "type": "address"
        },
        {
          "internalType": "string",
          "name": "_name",
          "type": "string"
        }
      ],
      "name": "registerCustomer",
      "outputs": [
        {
          "internalType": "bool",
          "name": "success",
          "type": "bool"
        }
      ],
      "stateMutability": "nonpayable",
      "type": "function"
    },
    {
      "inputs": [
        {
          "internalType": "address",
          "name": "_adr",
          "type": "address"
        }
      ],
      "name": "getCustomer",
      "outputs": [
        {
          "components": [
            {
              "internalType": "address",
              "name": "adr",
              "type": "address"
            },
            {
              "internalType": "string",
              "name": "name",
              "type": "string"
            },
            {
              "components": [
                {
                  "internalType": "uint256[]",
                  "name": "products",
                  "type": "uint256[]"
                },
                {
                  "internalType": "uint256",
                  "name": "completeSum",
                  "type": "uint256"
                }
              ],
              "internalType": "struct Marketplace.Cart",
              "name": "cart",
              "type": "tuple"
            }
          ],
          "internalType": "struct Marketplace.Customer",
          "name": "",
          "type": "tuple"
        }
      ],
      "stateMutability": "view",
      "type": "function",
      "constant": true
    },
    {
      "inputs": [
        {
          "internalType": "address",
          "name": "_owner",
          "type": "address"
        }
      ],
      "name": "getProductCount",
      "outputs": [
        {
          "internalType": "uint256",
          "name": "",
          "type": "uint256"
        }
      ],
      "stateMutability": "view",
      "type": "function",
      "constant": true
    },
    {
      "inputs": [
        {
          "internalType": "address",
          "name": "_owner",
          "type": "address"
        },
        {
          "internalType": "uint8",
          "name": "_index",
          "type": "uint8"
        }
      ],
      "name": "getProduct",
      "outputs": [
        {
          "internalType": "uint256",
          "name": "_id",
          "type": "uint256"
        },
        {
          "internalType": "string",
          "name": "_name",
          "type": "string"
        },
        {
          "internalType": "string",
          "name": "_description",
          "type": "string"
        },
        {
          "internalType": "uint256",
          "name": "_price",
          "type": "uint256"
        },
        {
          "internalType": "string",
          "name": "imgipfshash",
          "type": "string"
        },
        {
          "internalType": "string",
          "name": "fileipfshash",
          "type": "string"
        }
      ],
      "stateMutability": "view",
      "type": "function",
      "constant": true
    }
  ],
  "bytecode": "0x60806040526000805560006001556000600260006101000a81548160ff0219169083151502179055506000600c5534801561003957600080fd5b5061562c806200004a6000396000f3fe60806040526004361061019c5760003560e01c80637e6b867f116100ec578063aca490181161008a578063d5b24d8111610064578063d5b24d811461063e578063db1970f414610667578063e0f6ef87146106a4578063e8b4194e146106cf5761019c565b8063aca4901814610599578063cb949e51146105d6578063ce9f791d146106135761019c565b80639757e8a3116100c65780639757e8a3146104c95780639abdb0b0146104f4578063a0c8c15614610531578063a6ec73581461055c5761019c565b80637e6b867f14610437578063846c8dea14610475578063890eba681461049e5761019c565b806350208eee116101595780636dda4f8c116101335780636dda4f8c146103625780636ebdac121461038b57806377faa57c146103b45780637acc0b20146103f15761019c565b806350208eee146102d157806356d88e271461030e5780635ee95cae146103395761019c565b80630b784d2d146101a157806330a7bfe7146101ca57806330ff594814610207578063336989ae1461024d57806338e76a031461028c5780634cfc3f31146102a8575b600080fd5b3480156101ad57600080fd5b506101c860048036038101906101c391906149a6565b610711565b005b3480156101d657600080fd5b506101f160048036038101906101ec9190614966565b611316565b6040516101fe9190614fb6565b60405180910390f35b34801561021357600080fd5b5061022e600480360381019061022991906148e6565b611347565b6040516102449a999897969594939291906150e8565b60405180910390f35b34801561025957600080fd5b50610274600480360381019061026f919061485d565b611612565b60405161028393929190614e7b565b60405180910390f35b6102a660048036038101906102a19190614aff565b611750565b005b3480156102b457600080fd5b506102cf60048036038101906102ca9190614c0d565b611d6d565b005b3480156102dd57600080fd5b506102f860048036038101906102f3919061485d565b611dab565b6040516103059190614fb6565b60405180910390f35b34801561031a57600080fd5b50610323611e30565b6040516103309190614fb6565b60405180910390f35b34801561034557600080fd5b50610360600480360381019061035b9190614aff565b611e36565b005b34801561036e57600080fd5b5061038960048036038101906103849190614b2c565b612002565b005b34801561039757600080fd5b506103b260048036038101906103ad9190614aff565b612b96565b005b3480156103c057600080fd5b506103db60048036038101906103d69190614aff565b612e74565b6040516103e89190614fb6565b60405180910390f35b3480156103fd57600080fd5b5061041860048036038101906104139190614aff565b612e98565b60405161042e9a999897969594939291906150e8565b60405180910390f35b34801561044357600080fd5b5061045e60048036038101906104599190614aff565b613146565b60405161046c929190614f49565b60405180910390f35b34801561048157600080fd5b5061049c60048036038101906104979190614aff565b613680565b005b3480156104aa57600080fd5b506104b361379c565b6040516104c09190614f2e565b60405180910390f35b3480156104d557600080fd5b506104de6137af565b6040516104eb9190614fb6565b60405180910390f35b34801561050057600080fd5b5061051b60048036038101906105169190614c0d565b6137b5565b6040516105289190614fb6565b60405180910390f35b34801561053d57600080fd5b506105466137e6565b6040516105539190614f2e565b60405180910390f35b34801561056857600080fd5b50610583600480360381019061057e9190614c0d565b61391a565b6040516105909190614f72565b60405180910390f35b3480156105a557600080fd5b506105c060048036038101906105bb9190614aff565b6139d3565b6040516105cd9190614e60565b60405180910390f35b3480156105e257600080fd5b506105fd60048036038101906105f8919061485d565b613a06565b60405161060a9190614f94565b60405180910390f35b34801561061f57600080fd5b50610628613bbd565b6040516106359190614fb6565b60405180910390f35b34801561064a57600080fd5b5061066560048036038101906106609190614aa3565b613bc3565b005b34801561067357600080fd5b5061068e6004803603810190610689919061488a565b613c14565b60405161069b9190614f2e565b60405180910390f35b3480156106b057600080fd5b506106b9614180565b6040516106c69190614fb6565b60405180910390f35b3480156106db57600080fd5b506106f660048036038101906106f19190614926565b614186565b60405161070896959493929190614fd1565b60405180910390f35b600086511161071f57600080fd5b6000841161072c57600080fd5b60004290506000600a80549050148061076457506000600a6000815481106107575761075661550a565b5b9060005260206000200154145b15610cc45760008081548092919061077b90615405565b919050555060405180610160016040528060005481526020018881526020018781526020018681526020018581526020018481526020013373ffffffffffffffffffffffffffffffffffffffff168152602001600015158152602001600067ffffffffffffffff8111156107f2576107f1615539565b5b6040519080825280602002602001820160405280156108205781602001602082028036833780820191505090505b5081526020018360058111156108395761083861547d565b5b815260200182815250600360008054815260200190815260200160002060008201518160000155602082015181600101908051906020019061087c929190614501565b506040820151816002019080519060200190610899929190614501565b506060820151816003015560808201518160040190805190602001906108c0929190614501565b5060a08201518160050190805190602001906108dd929190614501565b5060c08201518160060160006101000a81548173ffffffffffffffffffffffffffffffffffffffff021916908373ffffffffffffffffffffffffffffffffffffffff16021790555060e08201518160060160146101000a81548160ff021916908315150217905550610100820151816007019080519060200190610962929190614587565b506101208201518160080160006101000a81548160ff0219169083600581111561098f5761098e61547d565b5b02179055506101408201518160090155905050600660008360058111156109b9576109b861547d565b5b60058111156109cb576109ca61547d565b5b81526020019081526020016000206000549080600181540180825580915050600190039060005260206000200160009091909190915055600960003373ffffffffffffffffffffffffffffffffffffffff1673ffffffffffffffffffffffffffffffffffffffff16815260200190815260200160002060405180610160016040528060005481526020018981526020018881526020018781526020018681526020018581526020013373ffffffffffffffffffffffffffffffffffffffff168152602001600015158152602001600067ffffffffffffffff811115610ab357610ab2615539565b5b604051908082528060200260200182016040528015610ae15781602001602082028036833780820191505090505b508152602001846005811115610afa57610af961547d565b5b81526020018381525090806001815401808255809150506001900390600052602060002090600a0201600090919091909150600082015181600001556020820151816001019080519060200190610b52929190614501565b506040820151816002019080519060200190610b6f929190614501565b50606082015181600301556080820151816004019080519060200190610b96929190614501565b5060a0820151816005019080519060200190610bb3929190614501565b5060c08201518160060160006101000a81548173ffffffffffffffffffffffffffffffffffffffff021916908373ffffffffffffffffffffffffffffffffffffffff16021790555060e08201518160060160146101000a81548160ff021916908315150217905550610100820151816007019080519060200190610c38929190614587565b506101208201518160080160006101000a81548160ff02191690836005811115610c6557610c6461547d565b5b0217905550610140820151816009015550507fbb45e05496e643a69bb522fd78ec743fcc4cecc08d892a6685a76f79e29e1eb46000548888888888336000604051610cb798979695949392919061504e565b60405180910390a161130d565b6000600a600081548110610cdb57610cda61550a565b5b90600052602060002001549050604051806101600160405280600a600081548110610d0957610d0861550a565b5b906000526020600020015481526020018981526020018881526020018781526020018681526020018581526020013373ffffffffffffffffffffffffffffffffffffffff168152602001600015158152602001600067ffffffffffffffff811115610d7757610d76615539565b5b604051908082528060200260200182016040528015610da55781602001602082028036833780820191505090505b508152602001846005811115610dbe57610dbd61547d565b5b81526020018381525060036000600a600081548110610de057610ddf61550a565b5b90600052602060002001548152602001908152602001600020600082015181600001556020820151816001019080519060200190610e1f929190614501565b506040820151816002019080519060200190610e3c929190614501565b50606082015181600301556080820151816004019080519060200190610e63929190614501565b5060a0820151816005019080519060200190610e80929190614501565b5060c08201518160060160006101000a81548173ffffffffffffffffffffffffffffffffffffffff021916908373ffffffffffffffffffffffffffffffffffffffff16021790555060e08201518160060160146101000a81548160ff021916908315150217905550610100820151816007019080519060200190610f05929190614587565b506101208201518160080160006101000a81548160ff02191690836005811115610f3257610f3161547d565b5b02179055506101408201518160090155905050600a80549050600b8190555060005b6001600a80549050610f6691906152b2565b811015610fcd57600a600182610f7c919061525c565b81548110610f8d57610f8c61550a565b5b9060005260206000200154600a8281548110610fac57610fab61550a565b5b90600052602060002001819055508080610fc590615405565b915050610f54565b50600a805480610fe057610fdf6154db565b5b60019003818190600052602060002001600090559055806006600085600581111561100e5761100d61547d565b5b60058111156110205761101f61547d565b5b815260200190815260200160002060018361103b91906152b2565b8154811061104c5761104b61550a565b5b90600052602060002001819055506040518061016001604052808281526020018981526020018881526020018781526020018681526020018581526020013373ffffffffffffffffffffffffffffffffffffffff168152602001600015158152602001600067ffffffffffffffff8111156110ca576110c9615539565b5b6040519080825280602002602001820160405280156110f85781602001602082028036833780820191505090505b5081526020018460058111156111115761111061547d565b5b815260200183815250600960003373ffffffffffffffffffffffffffffffffffffffff1673ffffffffffffffffffffffffffffffffffffffff168152602001908152602001600020828154811061116b5761116a61550a565b5b90600052602060002090600a020160008201518160000155602082015181600101908051906020019061119f929190614501565b5060408201518160020190805190602001906111bc929190614501565b506060820151816003015560808201518160040190805190602001906111e3929190614501565b5060a0820151816005019080519060200190611200929190614501565b5060c08201518160060160006101000a81548173ffffffffffffffffffffffffffffffffffffffff021916908373ffffffffffffffffffffffffffffffffffffffff16021790555060e08201518160060160146101000a81548160ff021916908315150217905550610100820151816007019080519060200190611285929190614587565b506101208201518160080160006101000a81548160ff021916908360058111156112b2576112b161547d565b5b021790555061014082015181600901559050507fbb45e05496e643a69bb522fd78ec743fcc4cecc08d892a6685a76f79e29e1eb481898989898933600060405161130398979695949392919061504e565b60405180910390a1505b50505050505050565b6006602052816000526040600020818154811061133257600080fd5b90600052602060002001600091509150505481565b6009602052816000526040600020818154811061136357600080fd5b90600052602060002090600a02016000915091505080600001549080600101805461138d906153a2565b80601f01602080910402602001604051908101604052809291908181526020018280546113b9906153a2565b80156114065780601f106113db57610100808354040283529160200191611406565b820191906000526020600020905b8154815290600101906020018083116113e957829003601f168201915b50505050509080600201805461141b906153a2565b80601f0160208091040260200160405190810160405280929190818152602001828054611447906153a2565b80156114945780601f1061146957610100808354040283529160200191611494565b820191906000526020600020905b81548152906001019060200180831161147757829003601f168201915b5050505050908060030154908060040180546114af906153a2565b80601f01602080910402602001604051908101604052809291908181526020018280546114db906153a2565b80156115285780601f106114fd57610100808354040283529160200191611528565b820191906000526020600020905b81548152906001019060200180831161150b57829003601f168201915b50505050509080600501805461153d906153a2565b80601f0160208091040260200160405190810160405280929190818152602001828054611569906153a2565b80156115b65780601f1061158b576101008083540402835291602001916115b6565b820191906000526020600020905b81548152906001019060200180831161159957829003601f168201915b5050505050908060060160009054906101000a900473ffffffffffffffffffffffffffffffffffffffff16908060060160149054906101000a900460ff16908060080160009054906101000a900460ff1690806009015490508a565b60076020528060005260406000206000915090508060000160009054906101000a900473ffffffffffffffffffffffffffffffffffffffff169080600101805461165b906153a2565b80601f0160208091040260200160405190810160405280929190818152602001828054611687906153a2565b80156116d45780601f106116a9576101008083540402835291602001916116d4565b820191906000526020600020905b8154815290600101906020018083116116b757829003601f168201915b505050505090806002016040518060400160405290816000820180548060200260200160405190810160405280929190818152602001828054801561173857602002820191906000526020600020905b815481526020019060010190808311611724575b50505050508152602001600182015481525050905083565b600060036000838152602001908152602001600020604051806101600160405290816000820154815260200160018201805461178b906153a2565b80601f01602080910402602001604051908101604052809291908181526020018280546117b7906153a2565b80156118045780601f106117d957610100808354040283529160200191611804565b820191906000526020600020905b8154815290600101906020018083116117e757829003601f168201915b5050505050815260200160028201805461181d906153a2565b80601f0160208091040260200160405190810160405280929190818152602001828054611849906153a2565b80156118965780601f1061186b57610100808354040283529160200191611896565b820191906000526020600020905b81548152906001019060200180831161187957829003601f168201915b50505050508152602001600382015481526020016004820180546118b9906153a2565b80601f01602080910402602001604051908101604052809291908181526020018280546118e5906153a2565b80156119325780601f1061190757610100808354040283529160200191611932565b820191906000526020600020905b81548152906001019060200180831161191557829003601f168201915b5050505050815260200160058201805461194b906153a2565b80601f0160208091040260200160405190810160405280929190818152602001828054611977906153a2565b80156119c45780601f10611999576101008083540402835291602001916119c4565b820191906000526020600020905b8154815290600101906020018083116119a757829003601f168201915b505050505081526020016006820160009054906101000a900473ffffffffffffffffffffffffffffffffffffffff1673ffffffffffffffffffffffffffffffffffffffff1673ffffffffffffffffffffffffffffffffffffffff1681526020016006820160149054906101000a900460ff1615151515815260200160078201805480602002602001604051908101604052809291908181526020018280548015611ac357602002820191906000526020600020905b8160009054906101000a900473ffffffffffffffffffffffffffffffffffffffff1673ffffffffffffffffffffffffffffffffffffffff1681526020019060010190808311611a79575b505050505081526020016008820160009054906101000a900460ff166005811115611af157611af061547d565b5b6005811115611b0357611b0261547d565b5b8152602001600982015481525050905060008160c001519050338260c0019073ffffffffffffffffffffffffffffffffffffffff16908173ffffffffffffffffffffffffffffffffffffffff168152505060018260e00190151590811515815250508160036000858152602001908152602001600020600082015181600001556020820151816001019080519060200190611b9f929190614501565b506040820151816002019080519060200190611bbc929190614501565b50606082015181600301556080820151816004019080519060200190611be3929190614501565b5060a0820151816005019080519060200190611c00929190614501565b5060c08201518160060160006101000a81548173ffffffffffffffffffffffffffffffffffffffff021916908373ffffffffffffffffffffffffffffffffffffffff16021790555060e08201518160060160146101000a81548160ff021916908315150217905550610100820151816007019080519060200190611c85929190614587565b506101208201518160080160006101000a81548160ff02191690836005811115611cb257611cb161547d565b5b021790555061014082015181600901559050508073ffffffffffffffffffffffffffffffffffffffff166108fc349081150290604051600060405180830381858888f19350505050158015611d0b573d6000803e3d6000fd5b507f5d3e174cea83fc7a15e7c910d86c8dceb0129bfdabceb14a6e43e0d4ccbfdb4a60005483602001518460400151856060015186608001518760a00151336001604051611d6098979695949392919061504e565b60405180910390a1505050565b600460008281526020019081526020016000208290806001815401808255809150506001900390600052602060002001600090919091909150555050565b60008073ffffffffffffffffffffffffffffffffffffffff168273ffffffffffffffffffffffffffffffffffffffff161415611de657600080fd5b600960008373ffffffffffffffffffffffffffffffffffffffff1673ffffffffffffffffffffffffffffffffffffffff168152602001908152602001600020805490509050919050565b600b5481565b611e3f81613680565b60036000828152602001908152602001600020600080820160009055600182016000611e6b9190614611565b600282016000611e7b9190614611565b6003820160009055600482016000611e939190614611565b600582016000611ea39190614611565b6006820160006101000a81549073ffffffffffffffffffffffffffffffffffffffff02191690556006820160146101000a81549060ff0219169055600782016000611eee9190614651565b6008820160006101000a81549060ff021916905560098201600090555050600460008281526020019081526020016000206000611f2b9190614672565b600560008281526020019081526020016000206000611f4a9190614693565b60006003600083815260200190815260200160002060080160009054906101000a900460ff16905060066000826005811115611f8957611f8861547d565b5b6005811115611f9b57611f9a61547d565b5b8152602001908152602001600020600183611fb691906152b2565b81548110611fc757611fc661550a565b5b9060005260206000200160009055600a8290806001815401808255809150506001900390600052602060002001600090919091909150555050565b600060036000888152602001908152602001600020604051806101600160405290816000820154815260200160018201805461203d906153a2565b80601f0160208091040260200160405190810160405280929190818152602001828054612069906153a2565b80156120b65780601f1061208b576101008083540402835291602001916120b6565b820191906000526020600020905b81548152906001019060200180831161209957829003601f168201915b505050505081526020016002820180546120cf906153a2565b80601f01602080910402602001604051908101604052809291908181526020018280546120fb906153a2565b80156121485780601f1061211d57610100808354040283529160200191612148565b820191906000526020600020905b81548152906001019060200180831161212b57829003601f168201915b505050505081526020016003820154815260200160048201805461216b906153a2565b80601f0160208091040260200160405190810160405280929190818152602001828054612197906153a2565b80156121e45780601f106121b9576101008083540402835291602001916121e4565b820191906000526020600020905b8154815290600101906020018083116121c757829003601f168201915b505050505081526020016005820180546121fd906153a2565b80601f0160208091040260200160405190810160405280929190818152602001828054612229906153a2565b80156122765780601f1061224b57610100808354040283529160200191612276565b820191906000526020600020905b81548152906001019060200180831161225957829003601f168201915b505050505081526020016006820160009054906101000a900473ffffffffffffffffffffffffffffffffffffffff1673ffffffffffffffffffffffffffffffffffffffff1673ffffffffffffffffffffffffffffffffffffffff1681526020016006820160149054906101000a900460ff161515151581526020016007820180548060200260200160405190810160405280929190818152602001828054801561237557602002820191906000526020600020905b8160009054906101000a900473ffffffffffffffffffffffffffffffffffffffff1673ffffffffffffffffffffffffffffffffffffffff168152602001906001019080831161232b575b505050505081526020016008820160009054906101000a900460ff1660058111156123a3576123a261547d565b5b60058111156123b5576123b461547d565b5b81526020016009820154815250509050858160200181905250848160400181905250838160600181815250508281608001819052508181610120019060058111156124035761240261547d565b5b908160058111156124175761241661547d565b5b815250508060036000898152602001908152602001600020600082015181600001556020820151816001019080519060200190612455929190614501565b506040820151816002019080519060200190612472929190614501565b50606082015181600301556080820151816004019080519060200190612499929190614501565b5060a08201518160050190805190602001906124b6929190614501565b5060c08201518160060160006101000a81548173ffffffffffffffffffffffffffffffffffffffff021916908373ffffffffffffffffffffffffffffffffffffffff16021790555060e08201518160060160146101000a81548160ff02191690831515021790555061010082015181600701908051906020019061253b929190614587565b506101208201518160080160006101000a81548160ff021916908360058111156125685761256761547d565b5b021790555061014082015181600901559050506000600960003373ffffffffffffffffffffffffffffffffffffffff1673ffffffffffffffffffffffffffffffffffffffff16815260200190815260200160002088815481106125ce576125cd61550a565b5b90600052602060002090600a02016040518061016001604052908160008201548152602001600182018054612602906153a2565b80601f016020809104026020016040519081016040528092919081815260200182805461262e906153a2565b801561267b5780601f106126505761010080835404028352916020019161267b565b820191906000526020600020905b81548152906001019060200180831161265e57829003601f168201915b50505050508152602001600282018054612694906153a2565b80601f01602080910402602001604051908101604052809291908181526020018280546126c0906153a2565b801561270d5780601f106126e25761010080835404028352916020019161270d565b820191906000526020600020905b8154815290600101906020018083116126f057829003601f168201915b5050505050815260200160038201548152602001600482018054612730906153a2565b80601f016020809104026020016040519081016040528092919081815260200182805461275c906153a2565b80156127a95780601f1061277e576101008083540402835291602001916127a9565b820191906000526020600020905b81548152906001019060200180831161278c57829003601f168201915b505050505081526020016005820180546127c2906153a2565b80601f01602080910402602001604051908101604052809291908181526020018280546127ee906153a2565b801561283b5780601f106128105761010080835404028352916020019161283b565b820191906000526020600020905b81548152906001019060200180831161281e57829003601f168201915b505050505081526020016006820160009054906101000a900473ffffffffffffffffffffffffffffffffffffffff1673ffffffffffffffffffffffffffffffffffffffff1673ffffffffffffffffffffffffffffffffffffffff1681526020016006820160149054906101000a900460ff161515151581526020016007820180548060200260200160405190810160405280929190818152602001828054801561293a57602002820191906000526020600020905b8160009054906101000a900473ffffffffffffffffffffffffffffffffffffffff1673ffffffffffffffffffffffffffffffffffffffff16815260200190600101908083116128f0575b505050505081526020016008820160009054906101000a900460ff1660058111156129685761296761547d565b5b600581111561297a5761297961547d565b5b81526020016009820154815250509050868160200181905250858160400181905250848160600181815250508381608001819052508281610120019060058111156129c8576129c761547d565b5b908160058111156129dc576129db61547d565b5b8152505080600960003373ffffffffffffffffffffffffffffffffffffffff1673ffffffffffffffffffffffffffffffffffffffff1681526020019081526020016000208981548110612a3257612a3161550a565b5b90600052602060002090600a0201600082015181600001556020820151816001019080519060200190612a66929190614501565b506040820151816002019080519060200190612a83929190614501565b50606082015181600301556080820151816004019080519060200190612aaa929190614501565b5060a0820151816005019080519060200190612ac7929190614501565b5060c08201518160060160006101000a81548173ffffffffffffffffffffffffffffffffffffffff021916908373ffffffffffffffffffffffffffffffffffffffff16021790555060e08201518160060160146101000a81548160ff021916908315150217905550610100820151816007019080519060200190612b4c929190614587565b506101208201518160080160006101000a81548160ff02191690836005811115612b7957612b7861547d565b5b021790555061014082015181600901559050505050505050505050565b60006001600760003373ffffffffffffffffffffffffffffffffffffffff1673ffffffffffffffffffffffffffffffffffffffff16815260200190815260200160002060020160000180549050612bed91906152b2565b67ffffffffffffffff811115612c0657612c05615539565b5b604051908082528060200260200182016040528015612c345781602001602082028036833780820191505090505b5090506000600760003373ffffffffffffffffffffffffffffffffffffffff1673ffffffffffffffffffffffffffffffffffffffff168152602001908152602001600020600201600001805480602002602001604051908101604052809291908181526020018280548015612cc857602002820191906000526020600020905b815481526020019060010190808311612cb4575b5050505050905060005b8151811015612e1457838114612d2157818181518110612cf557612cf461550a565b5b6020026020010151838281518110612d1057612d0f61550a565b5b602002602001018181525050612e01565b60036000838381518110612d3857612d3761550a565b5b6020026020010151815260200190815260200160002060030154600760003373ffffffffffffffffffffffffffffffffffffffff1673ffffffffffffffffffffffffffffffffffffffff1681526020019081526020016000206002016001016000828254612da691906152b2565b925050819055507fa623e239783d1923197e89ebc14226d544e0c6a48928ebfd977de627b61766bf33838381518110612de257612de161550a565b5b6020026020010151604051612df8929190614ec0565b60405180910390a15b8080612e0c90615405565b915050612cd2565b5081600760003373ffffffffffffffffffffffffffffffffffffffff1673ffffffffffffffffffffffffffffffffffffffff1681526020019081526020016000206002016000019080519060200190612e6e9291906146b4565b50505050565b600a8181548110612e8457600080fd5b906000526020600020016000915090505481565b6003602052806000526040600020600091509050806000015490806001018054612ec1906153a2565b80601f0160208091040260200160405190810160405280929190818152602001828054612eed906153a2565b8015612f3a5780601f10612f0f57610100808354040283529160200191612f3a565b820191906000526020600020905b815481529060010190602001808311612f1d57829003601f168201915b505050505090806002018054612f4f906153a2565b80601f0160208091040260200160405190810160405280929190818152602001828054612f7b906153a2565b8015612fc85780601f10612f9d57610100808354040283529160200191612fc8565b820191906000526020600020905b815481529060010190602001808311612fab57829003601f168201915b505050505090806003015490806004018054612fe3906153a2565b80601f016020809104026020016040519081016040528092919081815260200182805461300f906153a2565b801561305c5780601f106130315761010080835404028352916020019161305c565b820191906000526020600020905b81548152906001019060200180831161303f57829003601f168201915b505050505090806005018054613071906153a2565b80601f016020809104026020016040519081016040528092919081815260200182805461309d906153a2565b80156130ea5780601f106130bf576101008083540402835291602001916130ea565b820191906000526020600020905b8154815290600101906020018083116130cd57829003601f168201915b5050505050908060060160009054906101000a900473ffffffffffffffffffffffffffffffffffffffff16908060060160149054906101000a900460ff16908060080160009054906101000a900460ff1690806009015490508a565b6000806000600760003373ffffffffffffffffffffffffffffffffffffffff1673ffffffffffffffffffffffffffffffffffffffff168152602001908152602001600020905060006003600086815260200190815260200160002060405180610160016040529081600082015481526020016001820180546131c7906153a2565b80601f01602080910402602001604051908101604052809291908181526020018280546131f3906153a2565b80156132405780601f1061321557610100808354040283529160200191613240565b820191906000526020600020905b81548152906001019060200180831161322357829003601f168201915b50505050508152602001600282018054613259906153a2565b80601f0160208091040260200160405190810160405280929190818152602001828054613285906153a2565b80156132d25780601f106132a7576101008083540402835291602001916132d2565b820191906000526020600020905b8154815290600101906020018083116132b557829003601f168201915b50505050508152602001600382015481526020016004820180546132f5906153a2565b80601f0160208091040260200160405190810160405280929190818152602001828054613321906153a2565b801561336e5780601f106133435761010080835404028352916020019161336e565b820191906000526020600020905b81548152906001019060200180831161335157829003601f168201915b50505050508152602001600582018054613387906153a2565b80601f01602080910402602001604051908101604052809291908181526020018280546133b3906153a2565b80156134005780601f106133d557610100808354040283529160200191613400565b820191906000526020600020905b8154815290600101906020018083116133e357829003601f168201915b505050505081526020016006820160009054906101000a900473ffffffffffffffffffffffffffffffffffffffff1673ffffffffffffffffffffffffffffffffffffffff1673ffffffffffffffffffffffffffffffffffffffff1681526020016006820160149054906101000a900460ff16151515158152602001600782018054806020026020016040519081016040528092919081815260200182805480156134ff57602002820191906000526020600020905b8160009054906101000a900473ffffffffffffffffffffffffffffffffffffffff1673ffffffffffffffffffffffffffffffffffffffff16815260200190600101908083116134b5575b505050505081526020016008820160009054906101000a900460ff16600581111561352d5761352c61547d565b5b600581111561353f5761353e61547d565b5b8152602001600982015481525050905060008260020160000180549050905082600201600001826000015190806001815401808255809150506001900390600052602060002001600090919091909150556000836002016001015490508260600151816135ac919061525c565b84600201600101819055508184600201600001805490501115613636577f1e862ddcab5a3222c811c44ecc1c4a46d3da57dde0e884ad6e7e070a8ece23773388856060015187600201600101546040516136099493929190614ee9565b60405180910390a1600180856002016000018054905061362991906152b2565b955095505050505061367b565b7f5f187c44b1528b1d93b313a10cf6038ff514e59499f6790e1e2da2f7d1cfdd303388604051613667929190614ec0565b60405180910390a160008095509550505050505b915091565b600960003373ffffffffffffffffffffffffffffffffffffffff1673ffffffffffffffffffffffffffffffffffffffff16815260200190815260200160002081815481106136d1576136d061550a565b5b90600052602060002090600a02016000808201600090556001820160006136f89190614611565b6002820160006137089190614611565b60038201600090556004820160006137209190614611565b6005820160006137309190614611565b6006820160006101000a81549073ffffffffffffffffffffffffffffffffffffffff02191690556006820160146101000a81549060ff021916905560078201600061377b9190614651565b6008820160006101000a81549060ff02191690556009820160009055505050565b600260009054906101000a900460ff1681565b60015481565b600460205281600052604060002081815481106137d157600080fd5b90600052602060002001600091509150505481565b600080600760003373ffffffffffffffffffffffffffffffffffffffff1673ffffffffffffffffffffffffffffffffffffffff16815260200190815260200160002090506040518060400160405280600067ffffffffffffffff8111156138505761384f615539565b5b60405190808252806020026020018201604052801561387e5781602001602082028036833780820191505090505b50815260200160008152508160020160008201518160000190805190602001906138a99291906146b4565b50602082015181600101559050507f69dad80af5bbf467deb57c60ff8e39e3aacc707b1aa1c5b240aab4982f946fee8160000160009054906101000a900473ffffffffffffffffffffffffffffffffffffffff1660405161390a9190614e60565b60405180910390a1600191505090565b6005602052816000526040600020818154811061393657600080fd5b90600052602060002001600091509150508054613952906153a2565b80601f016020809104026020016040519081016040528092919081815260200182805461397e906153a2565b80156139cb5780601f106139a0576101008083540402835291602001916139cb565b820191906000526020600020905b8154815290600101906020018083116139ae57829003601f168201915b505050505081565b60086020528060005260406000206000915054906101000a900473ffffffffffffffffffffffffffffffffffffffff1681565b613a0e614701565b600760008373ffffffffffffffffffffffffffffffffffffffff1673ffffffffffffffffffffffffffffffffffffffff1681526020019081526020016000206040518060600160405290816000820160009054906101000a900473ffffffffffffffffffffffffffffffffffffffff1673ffffffffffffffffffffffffffffffffffffffff1673ffffffffffffffffffffffffffffffffffffffff168152602001600182018054613abe906153a2565b80601f0160208091040260200160405190810160405280929190818152602001828054613aea906153a2565b8015613b375780601f10613b0c57610100808354040283529160200191613b37565b820191906000526020600020905b815481529060010190602001808311613b1a57829003601f168201915b505050505081526020016002820160405180604001604052908160008201805480602002602001604051908101604052809291908181526020018280548015613b9f57602002820191906000526020600020905b815481526020019060010190808311613b8b575b50505050508152602001600182015481525050815250509050919050565b600c5481565b6005600082815260200190815260200160002082908060018154018082558091505060019003906000526020600020016000909190919091509080519060200190613c0f929190614501565b505050565b6000600960003373ffffffffffffffffffffffffffffffffffffffff1673ffffffffffffffffffffffffffffffffffffffff168152602001908152602001600020604051806101600160405280600081526020016040518060400160405280600581526020017f64756d6d7900000000000000000000000000000000000000000000000000000081525081526020016040518060400160405280600581526020017f64756d6d790000000000000000000000000000000000000000000000000000008152508152602001600081526020016040518060400160405280600581526020017f64756d6d7900000000000000000000000000000000000000000000000000000081525081526020016040518060400160405280600581526020017f64756d6d790000000000000000000000000000000000000000000000000000008152508152602001600073ffffffffffffffffffffffffffffffffffffffff168152602001600015158152602001600067ffffffffffffffff811115613d9c57613d9b615539565b5b604051908082528060200260200182016040528015613dca5781602001602082028036833780820191505090505b50815260200160006005811115613de457613de361547d565b5b8152602001600081525090806001815401808255809150506001900390600052602060002090600a0201600090919091909150600082015181600001556020820151816001019080519060200190613e3d929190614501565b506040820151816002019080519060200190613e5a929190614501565b50606082015181600301556080820151816004019080519060200190613e81929190614501565b5060a0820151816005019080519060200190613e9e929190614501565b5060c08201518160060160006101000a81548173ffffffffffffffffffffffffffffffffffffffff021916908373ffffffffffffffffffffffffffffffffffffffff16021790555060e08201518160060160146101000a81548160ff021916908315150217905550610100820151816007019080519060200190613f23929190614587565b506101208201518160080160006101000a81548160ff02191690836005811115613f5057613f4f61547d565b5b021790555061014082015181600901555050600060405180606001604052808573ffffffffffffffffffffffffffffffffffffffff1681526020018481526020016040518060400160405280600067ffffffffffffffff811115613fb757613fb6615539565b5b604051908082528060200260200182016040528015613fe55781602001602082028036833780820191505090505b508152602001600081525081525090506001600081548092919061400890615405565b9190505550806000015160086000600154815260200190815260200160002060006101000a81548173ffffffffffffffffffffffffffffffffffffffff021916908373ffffffffffffffffffffffffffffffffffffffff16021790555080600760008673ffffffffffffffffffffffffffffffffffffffff1673ffffffffffffffffffffffffffffffffffffffff16815260200190815260200160002060008201518160000160006101000a81548173ffffffffffffffffffffffffffffffffffffffff021916908373ffffffffffffffffffffffffffffffffffffffff1602179055506020820151816001019080519060200190614108929190614501565b50604082015181600201600082015181600001908051906020019061412e9291906146b4565b506020820151816001015550509050507f155e8619f4d23b96769599cb9af87da3e06a360082869c18578011da9a06e6708460405161416d9190614e60565b60405180910390a1600191505092915050565b60005481565b60006060806000606080600073ffffffffffffffffffffffffffffffffffffffff168873ffffffffffffffffffffffffffffffffffffffff1614156141ca57600080fd5b60008760ff16101580156141e2575060ff8760ff1611155b6141eb57600080fd5b6000600960008a73ffffffffffffffffffffffffffffffffffffffff1673ffffffffffffffffffffffffffffffffffffffff168152602001908152602001600020805490501161423a57600080fd5b6000600960008a73ffffffffffffffffffffffffffffffffffffffff1673ffffffffffffffffffffffffffffffffffffffff1681526020019081526020016000208860ff16815481106142905761428f61550a565b5b90600052602060002090600a0201905080600001548160010182600201836003015484600401856005018480546142c6906153a2565b80601f01602080910402602001604051908101604052809291908181526020018280546142f2906153a2565b801561433f5780601f106143145761010080835404028352916020019161433f565b820191906000526020600020905b81548152906001019060200180831161432257829003601f168201915b50505050509450838054614352906153a2565b80601f016020809104026020016040519081016040528092919081815260200182805461437e906153a2565b80156143cb5780601f106143a0576101008083540402835291602001916143cb565b820191906000526020600020905b8154815290600101906020018083116143ae57829003601f168201915b505050505093508180546143de906153a2565b80601f016020809104026020016040519081016040528092919081815260200182805461440a906153a2565b80156144575780601f1061442c57610100808354040283529160200191614457565b820191906000526020600020905b81548152906001019060200180831161443a57829003601f168201915b5050505050915080805461446a906153a2565b80601f0160208091040260200160405190810160405280929190818152602001828054614496906153a2565b80156144e35780601f106144b8576101008083540402835291602001916144e3565b820191906000526020600020905b8154815290600101906020018083116144c657829003601f168201915b50505050509050965096509650965096509650509295509295509295565b82805461450d906153a2565b90600052602060002090601f01602090048101928261452f5760008555614576565b82601f1061454857805160ff1916838001178555614576565b82800160010185558215614576579182015b8281111561457557825182559160200191906001019061455a565b5b509050614583919061473e565b5090565b828054828255906000526020600020908101928215614600579160200282015b828111156145ff5782518260006101000a81548173ffffffffffffffffffffffffffffffffffffffff021916908373ffffffffffffffffffffffffffffffffffffffff160217905550916020019190600101906145a7565b5b50905061460d919061473e565b5090565b50805461461d906153a2565b6000825580601f1061462f575061464e565b601f01602090049060005260206000209081019061464d919061473e565b5b50565b508054600082559060005260206000209081019061466f919061473e565b50565b5080546000825590600052602060002090810190614690919061473e565b50565b50805460008255906000526020600020908101906146b1919061475b565b50565b8280548282559060005260206000209081019282156146f0579160200282015b828111156146ef5782518255916020019190600101906146d4565b5b5090506146fd919061473e565b5090565b6040518060600160405280600073ffffffffffffffffffffffffffffffffffffffff1681526020016060815260200161473861477f565b81525090565b5b8082111561475757600081600090555060010161473f565b5090565b5b8082111561477b57600081816147729190614611565b5060010161475c565b5090565b604051806040016040528060608152602001600081525090565b60006147ac6147a7846151c5565b6151a0565b9050828152602081018484840111156147c8576147c761556d565b5b6147d3848285615360565b509392505050565b6000813590506147ea816155a1565b92915050565b6000813590506147ff816155b8565b92915050565b600082601f83011261481a57614819615568565b5b813561482a848260208601614799565b91505092915050565b600081359050614842816155c8565b92915050565b600081359050614857816155df565b92915050565b60006020828403121561487357614872615577565b5b6000614881848285016147db565b91505092915050565b600080604083850312156148a1576148a0615577565b5b60006148af858286016147db565b925050602083013567ffffffffffffffff8111156148d0576148cf615572565b5b6148dc85828601614805565b9150509250929050565b600080604083850312156148fd576148fc615577565b5b600061490b858286016147db565b925050602061491c85828601614833565b9150509250929050565b6000806040838503121561493d5761493c615577565b5b600061494b858286016147db565b925050602061495c85828601614848565b9150509250929050565b6000806040838503121561497d5761497c615577565b5b600061498b858286016147f0565b925050602061499c85828601614833565b9150509250929050565b60008060008060008060c087890312156149c3576149c2615577565b5b600087013567ffffffffffffffff8111156149e1576149e0615572565b5b6149ed89828a01614805565b965050602087013567ffffffffffffffff811115614a0e57614a0d615572565b5b614a1a89828a01614805565b9550506040614a2b89828a01614833565b945050606087013567ffffffffffffffff811115614a4c57614a4b615572565b5b614a5889828a01614805565b935050608087013567ffffffffffffffff811115614a7957614a78615572565b5b614a8589828a01614805565b92505060a0614a9689828a016147f0565b9150509295509295509295565b60008060408385031215614aba57614ab9615577565b5b600083013567ffffffffffffffff811115614ad857614ad7615572565b5b614ae485828601614805565b9250506020614af585828601614833565b9150509250929050565b600060208284031215614b1557614b14615577565b5b6000614b2384828501614833565b91505092915050565b60008060008060008060c08789031215614b4957614b48615577565b5b6000614b5789828a01614833565b965050602087013567ffffffffffffffff811115614b7857614b77615572565b5b614b8489828a01614805565b955050604087013567ffffffffffffffff811115614ba557614ba4615572565b5b614bb189828a01614805565b9450506060614bc289828a01614833565b935050608087013567ffffffffffffffff811115614be357614be2615572565b5b614bef89828a01614805565b92505060a0614c0089828a016147f0565b9150509295509295509295565b60008060408385031215614c2457614c23615577565b5b6000614c3285828601614833565b9250506020614c4385828601614833565b9150509250929050565b6000614c598383614e42565b60208301905092915050565b614c6e816152e6565b82525050565b614c7d816152e6565b82525050565b6000614c8e82615206565b614c988185615229565b9350614ca3836151f6565b8060005b83811015614cd4578151614cbb8882614c4d565b9750614cc68361521c565b925050600181019050614ca7565b5085935050505092915050565b614cea816152f8565b82525050565b614cf98161534e565b82525050565b6000614d0a82615211565b614d14818561523a565b9350614d2481856020860161536f565b614d2d8161557c565b840191505092915050565b6000614d4382615211565b614d4d818561524b565b9350614d5d81856020860161536f565b614d668161557c565b840191505092915050565b60006040830160008301518482036000860152614d8e8282614c83565b9150506020830151614da36020860182614e42565b508091505092915050565b60006040830160008301518482036000860152614dcb8282614c83565b9150506020830151614de06020860182614e42565b508091505092915050565b6000606083016000830151614e036000860182614c65565b5060208301518482036020860152614e1b8282614cff565b91505060408301518482036040860152614e358282614d71565b9150508091505092915050565b614e4b81615337565b82525050565b614e5a81615337565b82525050565b6000602082019050614e756000830184614c74565b92915050565b6000606082019050614e906000830186614c74565b8181036020830152614ea28185614d38565b90508181036040830152614eb68184614dae565b9050949350505050565b6000604082019050614ed56000830185614c74565b614ee26020830184614e51565b9392505050565b6000608082019050614efe6000830187614c74565b614f0b6020830186614e51565b614f186040830185614e51565b614f256060830184614e51565b95945050505050565b6000602082019050614f436000830184614ce1565b92915050565b6000604082019050614f5e6000830185614ce1565b614f6b6020830184614e51565b9392505050565b60006020820190508181036000830152614f8c8184614d38565b905092915050565b60006020820190508181036000830152614fae8184614deb565b905092915050565b6000602082019050614fcb6000830184614e51565b92915050565b600060c082019050614fe66000830189614e51565b8181036020830152614ff88188614d38565b9050818103604083015261500c8187614d38565b905061501b6060830186614e51565b818103608083015261502d8185614d38565b905081810360a08301526150418184614d38565b9050979650505050505050565b600061010082019050615064600083018b614e51565b8181036020830152615076818a614d38565b9050818103604083015261508a8189614d38565b90506150996060830188614e51565b81810360808301526150ab8187614d38565b905081810360a08301526150bf8186614d38565b90506150ce60c0830185614c74565b6150db60e0830184614ce1565b9998505050505050505050565b6000610140820190506150fe600083018d614e51565b8181036020830152615110818c614d38565b90508181036040830152615124818b614d38565b9050615133606083018a614e51565b81810360808301526151458189614d38565b905081810360a08301526151598188614d38565b905061516860c0830187614c74565b61517560e0830186614ce1565b615183610100830185614cf0565b615191610120830184614e51565b9b9a5050505050505050505050565b60006151aa6151bb565b90506151b682826153d4565b919050565b6000604051905090565b600067ffffffffffffffff8211156151e0576151df615539565b5b6151e98261557c565b9050602081019050919050565b6000819050602082019050919050565b600081519050919050565b600081519050919050565b6000602082019050919050565b600082825260208201905092915050565b600082825260208201905092915050565b600082825260208201905092915050565b600061526782615337565b915061527283615337565b9250827fffffffffffffffffffffffffffffffffffffffffffffffffffffffffffffffff038211156152a7576152a661544e565b5b828201905092915050565b60006152bd82615337565b91506152c883615337565b9250828210156152db576152da61544e565b5b828203905092915050565b60006152f182615317565b9050919050565b60008115159050919050565b60008190506153128261558d565b919050565b600073ffffffffffffffffffffffffffffffffffffffff82169050919050565b6000819050919050565b600060ff82169050919050565b600061535982615304565b9050919050565b82818337600083830152505050565b60005b8381101561538d578082015181840152602081019050615372565b8381111561539c576000848401525b50505050565b600060028204905060018216806153ba57607f821691505b602082108114156153ce576153cd6154ac565b5b50919050565b6153dd8261557c565b810181811067ffffffffffffffff821117156153fc576153fb615539565b5b80604052505050565b600061541082615337565b91507fffffffffffffffffffffffffffffffffffffffffffffffffffffffffffffffff8214156154435761544261544e565b5b600182019050919050565b7f4e487b7100000000000000000000000000000000000000000000000000000000600052601160045260246000fd5b7f4e487b7100000000000000000000000000000000000000000000000000000000600052602160045260246000fd5b7f4e487b7100000000000000000000000000000000000000000000000000000000600052602260045260246000fd5b7f4e487b7100000000000000000000000000000000000000000000000000000000600052603160045260246000fd5b7f4e487b7100000000000000000000000000000000000000000000000000000000600052603260045260246000fd5b7f4e487b7100000000000000000000000000000000000000000000000000000000600052604160045260246000fd5b600080fd5b600080fd5b600080fd5b600080fd5b6000601f19601f8301169050919050565b6006811061559e5761559d61547d565b5b50565b6155aa816152e6565b81146155b557600080fd5b50565b600681106155c557600080fd5b50565b6155d181615337565b81146155dc57600080fd5b50565b6155e881615341565b81146155f357600080fd5b5056fea2646970667358221220ec0cdf0224e561833a5960081b57b1ef17f23174faf86b882388b4e3818e97e664736f6c63430008070033",
  "immutableReferences": {},
  "source": "// if purchased w bdi 27zfa\r\n// SPDX-License-Identifier: MIT\r\npragma solidity  ^0.8.0;\r\n\r\ncontract Marketplace {\r\n    //string public name;\r\n    uint public productCount = 0;\r\n    uint public customerCount = 0;\r\n    //to store the products on blockchain\r\n    bool public flag = false;\r\n    mapping(uint => Product) public products;\r\n    mapping(uint => uint[]) public productsRates;\r\n    mapping(uint => string[]) public productsReviews;\r\n    mapping(Categories => uint[]) public categorieToProduct;\r\n    //to store the customers on blockchain\r\n    mapping(address  => Customer) public customers;\r\n    mapping(uint => address) public addressLUT;\r\n    // Maps owner to their images\r\n    mapping (address => Product[]) public ownerToProducts;\r\n    uint[] public emptySpaces;\r\n    uint public len; \r\n    uint public ftt = 0;\r\n    enum Categories {\r\n        Tech,\r\n        Books,\r\n        AudioBooks,\r\n        image,\r\n        video,\r\n        file\r\n    }\r\n    struct Customer {\r\n        address adr;\r\n        string name;\r\n        Cart cart;\r\n        \r\n    }\r\n\r\n    struct Cart {\r\n      uint256[] products;\r\n      uint256 completeSum;\r\n    }\r\n\r\n    struct Product {\r\n        uint id;\r\n        string name;\r\n        string description;\r\n        uint price;\r\n        string imgipfshash;\r\n        string fileipfshash;\r\n        address owner;\r\n        bool purchased;\r\n        address[] owners;\r\n        Categories categorie;\r\n        uint256 uploadedOn;\r\n    }\r\n\r\n    event ProductCreated(uint id, string name, string description, uint price, string imgipfshash, string fileipfshash, address owner, bool purchased);\r\n    event ProductPurchased(uint id, string name, string description, uint price, string imgipfshash, string fileipfshash, address owner, bool purchased);\r\n    event CustomerRegistered(address customer);\r\n    event CustomerRegistrationFailed(address customer);\r\n    event CartProductInserted(address customer, uint256 prodId, uint256 prodPrice, uint256 completeSum);\r\n    event CartProductInsertionFailed(address customer, uint256 prodId);\r\n    event CartProductRemoved(address customer, uint256 prodId);\r\n    event CartEmptied(address customer);\r\n\r\n    // Create a new product with a struct\r\n    // Add the struct to the mapping, and store it on the blockchain\r\n    // Trigger an event that lets someone know a product was creatd\r\n    function createProduct(string memory _name,string memory _description, uint _price,string memory _imgipfshash,string memory _fileipfshash , Categories _categorie ) public {\r\n        // Require a valid name\r\n        require(bytes(_name).length > 0);\r\n        // Require a valid description\r\n        //require(bytes(_description).length > 0);\r\n        // Require a valid price\r\n        require(_price > 0);\r\n        // Require a valid image hash\r\n        //require(bytes(_imgipfshash).length > 0);\r\n        // Require a valid file hash\r\n        //require(bytes(_fileipfshash).length > 0);*/\r\n        // Increment product count\r\n        uint256 _uploadedOn = block.timestamp;\r\n        if(emptySpaces.length == 0 || emptySpaces[0]==0){\r\n                productCount ++;\r\n                products[productCount] = Product(productCount, _name , _description, _price , _imgipfshash , _fileipfshash ,msg.sender, false ,new address[](0), _categorie , _uploadedOn);\r\n                categorieToProduct[_categorie].push(productCount);\r\n                ownerToProducts[msg.sender].push(Product({\r\n                id: productCount,\r\n                name: _name,\r\n                description: _description,\r\n                price: _price,\r\n                imgipfshash: _imgipfshash,\r\n                fileipfshash:_fileipfshash,\r\n                owner: msg.sender,\r\n                purchased: false,\r\n                owners: new address[](0),\r\n                categorie: _categorie,\r\n                uploadedOn: _uploadedOn\r\n                \r\n            }));\r\n            emit ProductCreated(productCount, _name, _description, _price, _imgipfshash,_fileipfshash, msg.sender, false);\r\n        }\r\n        else{\r\n            uint tmp = emptySpaces[0];\r\n            products[emptySpaces[0]] = Product(emptySpaces[0], _name , _description ,_price , _imgipfshash ,_fileipfshash, msg.sender, false,new address[](0), _categorie, _uploadedOn);\r\n            len = emptySpaces.length;\r\n            for(uint i = 0;i < emptySpaces.length - 1;i++){\r\n                emptySpaces[i] = emptySpaces[ i+1 ];\r\n            }\r\n            emptySpaces.pop();\r\n            categorieToProduct[_categorie][tmp-1] = tmp;\r\n            ownerToProducts[msg.sender][tmp] = Product(\r\n                tmp,\r\n                _name,\r\n                _description,\r\n                _price,\r\n                _imgipfshash,\r\n                _fileipfshash,\r\n                msg.sender,\r\n                false,\r\n                new address[](0),\r\n                _categorie,\r\n                _uploadedOn\r\n                );\r\n                emit ProductCreated(tmp, _name, _description, _price, _imgipfshash,_fileipfshash, msg.sender, false);\r\n        }\r\n        \r\n    }\r\n\r\n    function removeProduct(uint id1) public {\r\n        removeNestedProduct(id1);\r\n        delete products [id1];\r\n        delete productsRates[id1];\r\n        delete productsReviews[id1];\r\n        Categories cat;\r\n        cat = products[id1].categorie;\r\n        delete categorieToProduct[cat][id1-1];\r\n        emptySpaces.push(id1);\r\n    }\r\n    function removeNestedProduct(uint id1) public {\r\n        delete ownerToProducts[msg.sender][id1];\r\n    }\r\n    function purchaseProduct(uint _id) public payable {\r\n        // Fetch the product\r\n        Product memory _product = products[_id];\r\n        // Fetch the owner\r\n        address _seller = _product.owner;\r\n        /*// Make sure the product has a valid id\r\n        require(_product.id > 0 && _product.id <= productCount);\r\n        // Require that there is enough Ether in the transaction\r\n        require(msg.value >= _product.price);\r\n        // Require that the product has not been purchased already\r\n        require(!_product.purchased);\r\n        // Require that the buyer is not the seller\r\n        require(_seller != msg.sender);\r\n        // Transfer ownership to the buyer*/\r\n        _product.owner = msg.sender;\r\n        // Mark as purchased\r\n        _product.purchased = true;\r\n        // Update the product\r\n        products[_id] = _product;\r\n        // Pay the seller by sending them Ether\r\n        payable(_seller).transfer(msg.value);\r\n        //removeNestedProduct(_id);\r\n        // Trigger an event\r\n        emit ProductPurchased(productCount, _product.name,_product.description, _product.price, _product.imgipfshash, _product.fileipfshash, msg.sender, true);\r\n    }\r\n    function editProduct(uint256 _id , string memory _name , string memory _des , uint _price , string memory _imgipfshash , Categories _categorie) public{\r\n        Product memory _product = products[_id];\r\n        _product.name = _name;\r\n        _product.description = _des;\r\n        _product.price = _price;\r\n        _product.imgipfshash = _imgipfshash;\r\n        _product.categorie = _categorie;\r\n        products[_id] = _product;\r\n        Product memory _ownerToProducts = ownerToProducts[msg.sender][_id];\r\n        _ownerToProducts.name = _name;\r\n        _ownerToProducts.description = _des;\r\n        _ownerToProducts.price = _price;\r\n        _ownerToProducts.imgipfshash = _imgipfshash;\r\n        _ownerToProducts.categorie = _categorie;\r\n        ownerToProducts[msg.sender][_id] = _ownerToProducts;\r\n        \r\n    }\r\n    function giveRate(uint _rate ,uint pos_in_prod_mapping ) public {\r\n        productsRates[pos_in_prod_mapping].push(_rate);\r\n    }\r\n    function writeReview(string memory _review ,uint pos_in_prod_mapping) public {\r\n        productsReviews[pos_in_prod_mapping].push(_review);\r\n    }\r\n\r\n    function insertProductIntoCart(uint256 id) public returns (bool success,\r\n                                                  uint256 pos_in_prod_mapping) {\r\n        Customer storage cust = customers[msg.sender];\r\n        Product memory prod = products[id];\r\n        uint256 prods_prev_len = cust.cart.products.length;\r\n        cust.cart.products.push(prod.id);\r\n        uint256 current_sum = cust.cart.completeSum;\r\n        cust.cart.completeSum = current_sum + prod.price;\r\n        if (cust.cart.products.length > prods_prev_len) {\r\n          emit CartProductInserted(msg.sender, id, prod.price, cust.cart.completeSum);\r\n          return (true, cust.cart.products.length - 1);\r\n        }\r\n        emit CartProductInsertionFailed(msg.sender, id);\r\n        return (false, 0);\r\n    }\r\n\r\n    function removeProductFromCart(uint256 prod_pos_in_mapping) public {\r\n        uint256[] memory new_product_list = new uint256[](customers[msg.sender]\r\n                                                    .cart.products.length - 1);\r\n        uint256[] memory customerProds = customers[msg.sender].cart.products;\r\n        for (uint256 i = 0; i < customerProds.length; i++) {\r\n          if (i != prod_pos_in_mapping) {\r\n            new_product_list[i] = customerProds[i];\r\n          } else {\r\n            customers[msg.sender].cart.completeSum -=\r\n                                               products[customerProds[i]].price;\r\n            emit CartProductRemoved(msg.sender, customerProds[i]);\r\n          }\r\n        }\r\n        customers[msg.sender].cart.products = new_product_list;\r\n    }\r\n\r\n    function emptyCart() public returns (bool success) {\r\n        Customer storage customer = customers[msg.sender];\r\n        customer.cart = Cart(new uint256[](0), 0);\r\n        emit CartEmptied(customer.adr);\r\n        return true;\r\n    }\r\n\r\n    function registerCustomer(address _address, string memory _name)\r\n                                        public returns (bool success) {\r\n    ownerToProducts[msg.sender].push(Product({\r\n                id: 0,\r\n                name: \"dummy\",\r\n                description: \"dummy\",\r\n                price: 0,\r\n                imgipfshash: \"dummy\",\r\n                fileipfshash:\"dummy\",\r\n                owner: 0x0000000000000000000000000000000000000000,\r\n                purchased: false,\r\n                owners: new address[](0),\r\n                categorie: Categories.Tech,\r\n                uploadedOn:0\r\n        }));\r\n\r\n        Customer memory customer = Customer(_address, _name,Cart(new uint256[](0), 0));\r\n        customerCount++;\r\n        addressLUT[customerCount]=customer.adr;\r\n        customers[_address] = customer;\r\n        emit CustomerRegistered(_address);\r\n        return true;\r\n    }\r\n\r\n    function getCustomer(address _adr) view public returns(Customer memory){\r\n    \treturn customers[_adr];\r\n    }\r\n\r\n    function getProductCount(address _owner) view\r\n        public\r\n        returns (uint256) \r\n    {\r\n        require(_owner != address(0));\r\n        return ownerToProducts[_owner].length;\r\n    }\r\n\r\n    function getProduct(address _owner, uint8 _index) view\r\n        public returns (\r\n        uint _id, \r\n        string memory _name, \r\n        string memory _description,\r\n        uint _price,\r\n        string memory imgipfshash,\r\n        string memory fileipfshash\r\n    ) {\r\n\r\n        require(_owner != address(0));\r\n        require(_index >= 0 && _index <= 2**8 - 1);\r\n        require(ownerToProducts[_owner].length > 0);\r\n\r\n        Product storage product = ownerToProducts[_owner][_index];\r\n        \r\n        return (\r\n            product.id, \r\n            product.name,\r\n            product.description,\r\n            product.price,\r\n            product.imgipfshash,\r\n            product.fileipfshash\r\n        );\r\n    }\r\n\r\n}",
  "sourcePath": "C:\\Users\\Administrator\\Desktop\\MarketPlace\\src\\contracts\\Marketplace.sol",
  "compiler": {
    "name": "solc",
    "version": "0.8.7+commit.e28d00a7.Emscripten.clang"
  },
  "schemaVersion": "3.4.2",
  "updatedAt": "2021-08-19T09:09:39.300Z",
  "networkType": "ethereum",
  "devdoc": {
    "kind": "dev",
    "methods": {},
    "version": 1
  },
  "userdoc": {
    "kind": "user",
    "methods": {},
    "version": 1
  }
}